:100000000C94FD040C9444050C9444050C94440594
:100010000C9444050C9444050C9444050C9444053C
:100020000C9444050C9444050C943D260C940F2725
:100030000C94161D0C9444050C9444050C94440532
:100040000C9444050C948F0C0C9444050C944405BA
:100050000C94B40C0C948A1D0C9444050C94440527
:100060000C9444050C9444050C9444050C944405EC
:100070000C9444050C9444050C9444050C944405DC
:100080000C9444050C9444050C9444050C944405CC
:100090000C9444050C9444050C9444050C944405BC
:1000A0000C9444050C9444050C944405E512E512A7
:1000B000171317136413C714C714C7148413211418
:1000C0003214321493149C14C714C01445154515EA
:1000D000571557154E1557155715571545154515ED
:1000E00053155715571553157C27A3279528A32774
:1000F0009528EF27122895286828772829001400CA
:100100001A000800150017001C0018000C0012004F
:1001100013002A002B0004001600070009000A0043
:100120000B000D000E000F0033003400E1001D0035
:100130001B000600190005001100100036003700F2
:1001400038002800E000E300E20001512C002C0000
:100150002C002C005000520051004F000000000005
:10016000000000000000000000000000000000008F
:100170000000000029001E001F00200021002200B6
:10018000230024002500260027004C003A003B00F5
:100190003C003D003E003F00400041004200430063
:1001A00044004500000000000000000000000000C6
:1001B000000000000000000000000000000000003F
:1001C000000001000000000000000000000000002E
:1001D000000000000000000000000000000000001F
:1001E00000000000000000000000000044454255EF
:1001F000473A2064697361626C65642E0A00444565
:100200004255473A20656E61626C65642E0A000AA9
:10021000002530313662003A200025303258000A7D
:10022000722F63203031323334353637383941421A
:10023000434445460A006261636B6C6967687420D9
:10024000737465703A2025750A006261636B6C698E
:100250006768742064697361626C650A0062616337
:100260006B6C6967687420656E61626C650A006218
:1002700061636B6C6967687420746F67676C653A5B
:100280002025750A006261636B6C6967687420647D
:10029000656372656173653A2025750A0062616362
:1002A0006B6C6967687420696E6372656173653A27
:1002B0002025750A000A002530325820006B657928
:1002C000626F6172645F7265706F72743A20000AC7
:1002D0000025303258006B6579626F6172645F731C
:1002E00065745F6C65643A20003F00433E20004C1B
:1002F00025640A0074696D65725F726561643332EA
:1003000028293A202530346C580A006B6579626FD1
:100310006172645F69646C653A2025580A006B65F8
:1003200079626F6172645F70726F746F636F6C3A41
:100330002025580A00686F73745F6B6579626F617E
:1003400072645F6C65647328293A2025580A000A94
:10035000092D20537461747573202D0A004743439F
:100360003A20342E392E32204156522D4C494243E8
:100370003A20312E382E3073766E204156525F412E
:100380005243483A20617672350A004F5054494F23
:100390004E533A204C5546412045585452414B4506
:1003A0005920434F4E534F4C4520434F4D4D414EE6
:1003B0004420343039360A004255494C443A202210
:1003C000302E372E3130312D352D673166323631B2
:1003D000302D646972747922202830393A30363AE7
:1003E0003135204465632031342032303139290AD7
:1003F000005649443A20307831333337284D617004
:100400006C6520436F6D707574696E672920504963
:10041000443A20307836303137284A4E414F204B0D
:100420006579626F61726429205645523A203078AE
:10043000303030310A00444553433A2041206E6F3A
:100440002D6672696C6C73206F7274686F6C696E64
:10045000656172206B6579626F6172640A000A09D6
:100460002D2056657273696F6E202D0A000A092DC2
:1004700020436F6E736F6C65202D0A4553432F71B7
:100480003A09717569740A000A092D204D6167697E
:1004900063202D0A443A094465627567204D6573EF
:1004A0007361676520546F67676C650A583A094D38
:1004B0006174726978204465627567204D6F646568
:1004C00020546F67676C65202D2053686F77206B11
:1004D00065797072657373657320696E206D6174E0
:1004E00072697820677269640A4B3A094B657962D0
:1004F0006F61726420446562756720546F67676C32
:1005000065202D2053686F77206B65797072657355
:1005100073207265706F72740A4D3A094465627592
:1005200067204D6F75736520546F67676C650A5659
:100530003A0956657273696F6E0A533A09537461CA
:100540007475730A433A094163746976617465206E
:10055000436F6E736F6C65204D6F64650A46312D75
:100560004631303A0953776974636820746F204CC0
:100570006179657220302D392028463130203D20A8
:100580004C30290A302D393A095377697463682051
:10059000746F204C6179657220302D390A475241C1
:1005A00056453A0953776974636820746F204C612B
:1005B00079657220302028616C7465726E61746593
:1005C000290A423A094A756D7020746F20426F6F94
:1005D000746C6F616465720A4553433A094A756DDC
:1005E0007020746F20426F6F746C6F61646572204D
:1005F00028616C7465726E617465290A453A095008
:1006000072696E7420454550524F4D205365747485
:10061000696E67730A4253504143453A09436C651A
:10062000617220454550524F4D0A000A0025750061
:100630002E6C6576656C3A20000A002575002E65E3
:100640006E61626C653A20000A0025303258006203
:1006500061636B6C696768745F636F6E6669672E50
:100660007261773A20000A002575002E6E6B726F5A
:100670003A20000A002575002E737761705F626171
:10068000636B736C6173685F6261636B73706163EA
:10069000653A20000A002575002E737761705F6748
:1006A000726176655F6573633A20000A0025750004
:1006B0002E6E6F5F6775693A20000A002575002E5F
:1006C000737761705F72616C745F726775693A20ED
:1006D000000A002575002E737761705F6C616C7481
:1006E0005F6C6775693A20000A002575002E7377E4
:1006F00061705F7263746C5F726775693A20000A9B
:10070000002575002E737761705F6C63746C5F6C8D
:100710006775693A20000A002575002E63617073C1
:100720006C6F636B5F746F5F636F6E74726F6C3A44
:1007300020000A002575002E737761705F636F6E6D
:1007400074726F6C5F636170736C6F636B3A2000DF
:100750000A0025303258006B65796D61705F636FF8
:100760006E6669672E7261773A20000A002575006F
:100770002E6D6F7573653A20000A002575002E6B8B
:100780006579626F6172643A20000A002575002E57
:100790006D61747269783A20000A002575002E6533
:1007A0006E61626C653A20000A00253032580064A0
:1007B000656275675F636F6E6669672E7261773A0F
:1007C00020000A0025750064656661756C745F6CB5
:1007D000617965723A20003F000A6D6F7573653A62
:1007E000206F66660A000A6D6F7573653A206F6E3A
:1007F0000A000A6B6579626F6172643A206F6666FF
:100800000A000A6B6579626F6172643A206F6E0A42
:10081000000A6D61747269783A206F66660A000A90
:100820006D61747269783A206F6E0A000A646562BD
:1008300075673A206F66660A000A64656275673AF2
:10084000206F6E0A000A0A4A756D70696E6720741F
:100850006F20626F6F746C6F616465722E2E2E2034
:1008600000433E2000436C656172696E6720454518
:1008700050524F4D0A006565636F6E6669673A0AAC
:10088000005B735D004B6579626F61726420737405
:100890006172742E0A005B575D005B535D005B5212
:1008A0005D005B445D005B435D00040330000000BD
:1008B0001C034A004E0041004F0020004B00650021
:1008C000790062006F006100720064000000200384
:1008D0004D00610070006C006500200043006F0057
:1008E0006D0070007500740069006E006700000004
:1008F0000403090409025B00030100A0FA090400D3
:10090000000103010100092111010001224000073B
:1009100005810308000A0904010001030000000921
:1009200021110100012236000705820320000A0977
:10093000040200020300000009211101000122222B
:1009400000070583032000010705030320000112AF
:1009500001100100000008371317600100010203B5
:10096000010631FF0974A1010975150026FF0095E4
:1009700020750881020976150026FF00952075086C
:100980009102C005010980A10185031A81002A8313
:1009900000160100260300950175108100C0050CAA
:1009A0000901A10185041A01002A9C0216010026F2
:1009B0009C02950175108100C005010906A1010581
:1009C0000719E029E71500250195087501810295B1
:1009D00001750881010507190029FF150026FF0090
:1009E0009506750881000508190129059505750109
:1009F0009102950175039101C00011241FBECFEF34
:100A0000DAE0DEBFCDBF04B603FE27C08091F70158
:100A10009091F801A091F901B091FA018730904BC3
:100A2000A740B04BD1F41092F7011092F801109248
:100A3000F9011092FA0114BE84B7877F84BF0FB604
:100A4000F894A8958091600088618093600010926E
:100A500060000FBEE0E0F8E3099511E0A0E0B1E02E
:100A6000ECEFF2E502C005900D92AE32B107D9F776
:100A700021E0AEE2B1E001C01D92A73FB207E1F76D
:100A80000E945D230C947C290C940000FF93EF934B
:100A9000E0912E01F0912F01309709F00995EF9127
:100AA000FF910895FC018591803011F0EFDFFBCFBD
:100AB0000895FF27E0E230E247FF0CC0419597FF21
:100AC00009C0EDE26095709580959095611D711D4E
:100AD000811D911D27FF02C0219530E350E2AA2716
:100AE000660F771F881F991FAA1FA41710F0A41B59
:100AF00063955A95A9F7AA3008F0A95FA05DAF9356
:100B0000F395611571058105910541F7ED3211F4F9
:100B1000EF93F395F21718F43F93F395FBCF8F9172
:100B2000B5DFFA95E1F70895E991F9918591803063
:100B300021F0853219F0AADFF9CF089520E0E8947A
:100B400055915532C1F3503311F4689455915A338D
:100B500048F4505390F3220F022E220F220F200D43
:100B6000250FF4CF0EF4219589919991533619F3FD
:100B7000533729F1533559F1BC0188279927E89457
:100B80005C3621F48991999168945591543639F4E1
:100B900046EF7EF077FF0DC08FEF9FEF0AC055370D
:100BA0004AE039F0583540E121F0523642E009F090
:100BB0000895FF93EF937DDFEF91FF91B7CFFF9300
:100BC000EF93FC0181918030B9F360DFFBCFFF939D
:100BD000EF9368DFF1CFDF93CF93CDB7DEB72596E4
:100BE000A3DFCF91DF91089581E0089581E008951A
:100BF0000C94F6051F93CF93DF9300D000D01F9283
:100C0000CDB7DEB749835A8320915C0189819A81EF
:100C1000211112C0662349F00E946A1A182F682F0A
:100C200089819A810E940F1A03C00E943E1A182FD0
:100C300069817A81812F04C00E946A1A69817A8150
:100C40000F900F900F900F900F90DF91CF911F9109
:100C50000C94E306FC01408151816281738184819F
:100C60000C94FA050E94CF1B811102C00E94781CCF
:100C70000E945B0D0C94B6090E945A0D0C94B909A0
:100C800008950C94400681E008950C944306CF9398
:100C9000C82F0E9441068C2F0E944506CF910895CF
:100CA00008950E9435150E9450062FEF84E39CE0C2
:100CB000215080409040E1F700C000000C94B01D2E
:100CC0000F931F93CF93DF938C010E942A06EC01B0
:100CD000B8010E94F805882309F46AC0B801CE0162
:100CE0000E94DA0D882309F463C0B801CE010E9486
:100CF0001B0E882309F45CC0F8018281882339F136
:100D0000C1308CE5D80759F0CE3DECE5DE07E1F0C7
:100D1000C115FCE5DF07D9F40E94510649C0809156
:100D2000D201C82FC095C170C0FB80F98093D20159
:100D3000CC2329F08EEF91E00E94520539C08CEE51
:100D400091E00E94520535C00E94781C31C0C63126
:100D5000DC4539F50E94EA1A282FF801828140917A
:100D6000000150910101882379F02A7A91E009F479
:100D700090E090933001911102C069E201C065E3F7
:100D8000CA010E94B11C0AC080913001811102C0C9
:100D900069E201C065E3CA010E94B31C0E94361BD0
:100DA00007C0C801DF91CF911F910F910C94F405FA
:100DB000C0E08C2FDF91CF911F910F91089580E0BB
:100DC00090E0089508959CE0799FF00111249CE340
:100DD000899FE00DF11D1124E60FF11DEE0FFF1F9D
:100DE000E450FF4F859194910895880F991FFC015D
:100DF000E15FFD4F859194910895CF93DF930E9419
:100E0000E3060E94DE08EC01811522E5920708F056
:100E100046C0811531E5930708F052C1883E91051F
:100E200000F5803E910508F0C5C1883A910570F43F
:100E3000853A910508F0B1C08130910509F4BAC135
:100E400008F46BC1049708F0B5C167C18F3B9105E9
:100E500008F4AEC0803C910508F45FC1805C910944
:100E600006C1811540E4940790F4C11580E3D807CA
:100E700008F001C1C11521E0D20708F44EC1C11527
:100E800030E2D30708F496C1CE019F70F0C08115FF
:100E900040E5940708F0F9C0DF70D06A8BC1C11536
:100EA00089E5D807B8F5C11528E5D20708F021C1B2
:100EB000C11534E5D307D0F42C2F26952695CE0105
:100EC00083709927C115D34508F0FFC040E2249FE5
:100ED00090011124C1E0D0E002C0CC0FDD1F8A9543
:100EE000E2F72C2B3D2BE901DC6864C1C11585E5D7
:100EF000D80708F4F9C0C11526E5D20708F00DC1DE
:100F00008C2F0E9472098F71C82FD0E0DC2FCC2764
:100F1000D06250C1CD3B3CE5D30709F4F5C0E0F405
:100F2000CB3B8CE5D80709F4E9C008F0EAC0C1154D
:100F30003AE5D30708F0F1C08C2F8F700E94720938
:100F400094E0D695C7959A95E1F7CF70D0E0DC2F65
:100F5000CC27D069C82B2EC1C03C4CE5D40709F47E
:100F6000D9C060F4CE3B2CE5D20709F4D0C0CF3B0A
:100F7000DC4509F0D2C0C0E0D2ED1CC1CE019056D4
:100F80008115904208F0C9C08D2F8F710E9472099F
:100F9000DD27D0628F71D82B0DC1853A910509F4F8
:100FA000BFC0863A910509F0BEC0C2E8D0E402C1D4
:100FB000883A910509F4BAC0893A910509F4B9C093
:100FC0008A3A910509F4B8C08B3A910509F4B7C083
:100FD0008C3A910509F4B6C08B3B910509F4B5C074
:100FE0008C3B910509F4B4C08D3A910509F4B3C066
:100FF000803B910509F4B2C08E3A910509F4B1C065
:101000008F3A910509F4B0C0813B910509F4AFC056
:10101000823B910509F4AEC0833B910509F4ADC054
:10102000843B910509F4ACC0853B910509F4ABC044
:10103000863B910509F4AAC0873B910509F4A9C034
:10104000883B910509F4A8C0893B910509F4A7C024
:101050008D3B910509F4A6C08E3B910509F4A5C00E
:101060008A3B910509F4A4C0C0E0D4E4A3C00E9467
:10107000F506EC019FC0CE019927D3FF03C0EC0118
:10108000D86C98C0EC01D06C95C0837021E030E042
:1010900002C0220F331F8A95E2F73C68CE0174E04C
:1010A000969587957A95E1F78370382BCF70C69522
:1010B000C69580E2C89FE0011124C22BD32B7AC0D1
:1010C000D82FCC27C16FD06A75C040E2249F900111
:1010D0001124C1E0D0E002C0CC0FDD1F8A95E2F7F9
:1010E000C22BD32BDA6866C0DC2FCC27C46FD06A42
:1010F00061C0DC2FCC27C06FD06A5CC0C0E0D4EDEB
:1011000059C0C0E0D5ED56C0C0E0D1ED53C0C0E03D
:10111000D0ED50C0C0E0D3ED4DC0C0E0D0E04AC03B
:10112000C1E8D0E447C0C3E8D0E444C0C2EED4E490
:1011300041C0C9EED4E43EC0CAEED4E43BC0C5EB26
:10114000D4E438C0C6EBD4E435C0C3EBD4E432C039
:10115000C4EBD4E42FC0C7EBD4E42CC0CCECD4E473
:1011600029C0CDECD4E426C0C3E8D5E423C0CAE846
:10117000D5E420C0C2E9D5E41DC0C4E9D5E41AC055
:10118000C1E2D6E417C0C3E2D6E414C0C4E2D6E498
:1011900011C0C5E2D6E40EC0C6E2D6E40BC0C7E279
:1011A000D6E408C0CFE6D4E405C0C0E7D4E402C06A
:1011B000CAE2D6E4CE01DF91CF910895823891053D
:1011C00069F1B0F48133910509F46DC048F48932B6
:1011D000910509F463C08A32910509F469C0089544
:1011E0008533910509F455C089339105B9F0089507
:1011F000833E910569F138F4803E9105B1F0823E5D
:10120000910509F10895863E9105A9F1873E910562
:10121000B9F1843E910509F064C023C02091E80132
:1012200020FD4FC021FD4DC008958091E80180FD53
:1012300044C08091E90180FF44C08091E80184FDB1
:1012400042C083EE4DC08091E80182FF38C0F5CFE7
:101250008091E80182FD33C08091E90180FD31C0B9
:10126000ECCF8091E90181FF32C08091E80184FDDB
:101270002AC087EE35C08091E80183FF26C0F5CFF4
:101280008091E80183FD21C08091E90181FD1FC0AB
:10129000ECCF8091E80185FD1CC01DC08091E80164
:1012A00085FD19C016C08091E80186FD16C017C0E3
:1012B0008091E80186FD13C010C089E311C082EE61
:1012C0000FC080EE0DC080E00BC086EE09C084EE3A
:1012D00007C089E205C085E303C08AE201C081E35B
:1012E00090E008959091E80192FF0DC0282F287199
:1012F000283019F4877F846006C0282F2471243099
:1013000011F48B7F886093FF0DC0282F287128313E
:1013100019F4877E846106C0282F2471243111F4CA
:101320008B7E88612091E90120FF0DC0382F387134
:10133000383019F4877F816006C0382F3171313021
:1013400011F48E7F886021FF0DC0282F287128316D
:1013500019F4877E816106C0282F2171213111F493
:101360008E7E886194FD877E089508950C94B5095A
:1013700008950C94B809E82FF0E0EE0FFF1FEF5C22
:10138000FE4F808191810895CF92DF92EF92FF927C
:101390000F931F93CF93DF938FE192E00E9452054A
:1013A00081E3E82E81E0F82EC0E0D0E09AE1C92E7A
:1013B00092E0D92E01E112E0DF93CF93DF92CF923A
:1013C0000E94EB0587E192E00E945205F7018191AE
:1013D00091917F010E94B51B9F938F931F930F9351
:1013E0000E94EB058FE092E00E94520521968DB796
:1013F0009EB708960FB6F8949EBF0FBE8DBFC5303E
:10140000D105D1F6DF91CF911F910F91FF90EF9011
:10141000DF90CF900895A9E1B1E041E050E025E0F0
:101420002A0F8D91E82FE295EF70F0E031A18F70D7
:10143000BA0102C0660F771F8A95E2F7CB01962F9B
:101440009095932391A392A1892B82A32A13E9CF8C
:10145000ADE0B1E041E050E02CE02A0F8D91E82FA3
:10146000E295EF70F0E031A18F70BA0102C0660F13
:10147000771F8A95E2F7CB01962F9095932391A33E
:1014800092A1892B82A32A13E9CFEBE3F1E0A1E338
:10149000B1E0119211921D921D9271E0E534F707AF
:1014A000C1F785E00E94ED0A0C9432065F926F92BC
:1014B0007F928F929F92AF92BF92CF92DF92EF92E4
:1014C000FF920F931F93CF93DF9309E111E0ABE3FA
:1014D000B1E0612CEE24E394F12C5D018D909C90A1
:1014E000119711961C921E92E80189918E01E82FA6
:1014F000E295EF70F0E091A18F70A70101C0440F59
:101500008A95EAF7892F842B81A382A1542E5094C7
:10151000852182A3D0EADA95F1F78DE0C82E81E02B
:10152000D82E80E090E0E60179906E01272D22957B
:101530002F7030E0E90168A12D913C91119770E086
:10154000D72DDF7002C075956795DA95E2F760FDDB
:1015500008C0B701082E02C0660F771F0A94E2F791
:1015600002C060E070E0262B372B11963C932E933F
:1015700001968C309105B9F681A1D52DD823D1A340
:1015800082A1482B42A3129681E0F501208131818E
:101590008216930609F480E0682AF1E0A534BF07BB
:1015A00009F09BCF262D45E061E371E08BE391E0EC
:1015B0000E94EE0A0E943C06862DDF91CF911F917A
:1015C0000F91FF90EF90DF90CF90BF90AF909F90E2
:1015D0008F907F906F905F9008950895FF920F9382
:1015E0001F93CF93DF93F82E092F162FD72FC42FD9
:1015F000222349F081E0809347010E94481D909387
:10160000460180934501809147018823D9F080915C
:101610004501909146010E94601D069798F0EF2DBC
:10162000F02FA12FBD2F80E090E04C2F50E08417C9
:10163000950734F4219131912D933D930196F7CF85
:1016400010924701DF91CF911F910F91FF90089564
:101650000E94CF1B811102C00E94781C0E94001CB6
:101660008093E301282F26952695269530E0243097
:10167000310524F0877088618093E3018091E30154
:1016800080FF04C086958695869501C080E00C9405
:10169000E00C2091E301822F869586958695482F50
:1016A00050E04330510554F48F5F982F990F990FF4
:1016B000990F822F8770892B8093E3018091E3013A
:1016C00081608093E3010E94041C8091D20180FF1D
:1016D00011C08091E3018695869586951F928F9320
:1016E0008DE992E09F938F930E94EB050F900F90EE
:1016F0000F900F908091E3018695869586950C94C6
:10170000E00C8091E301982F969596959695A1F01F
:10171000915E990F990F990F8770892B8093E30140
:10172000887F91E009F490E08091E30190FB80F9DB
:101730008093E3010E94041C8091D20180FF11C0BC
:101740008091E3018695869586951F928F9385E813
:1017500092E09F938F930E94EB050F900F900F9054
:101760000F908091E3018695869586950C94E00C08
:101770008091E30180FD1FC081608093E30181308F
:1017800019F489E08093E3018091E3010E94041C35
:101790008091D20180FF08C08DE592E09F938F93E6
:1017A0000E94EB050F900F908091E301869586953E
:1017B00086950C94E00C08958091E30180FF14C09D
:1017C0008E7F8093E3010E94041C8091D20180FFF0
:1017D00008C08AE492E09F938F930E94EB050F90DC
:1017E0000F9080E00C94E00C0895CF93C091E3013A
:1017F000C1708091D20180FF0CC01F92CF938FE601
:1018000092E09F938F930E94EB050F900F900F90A3
:101810000F90CC2319F0CF910C94DC0BCF910C944A
:10182000B80B9091E301892F8695869586958F5FF9
:101830008F719770843038F4880F880F880F892B48
:101840008093E30102C09093E3018091E301887FDC
:1018500091E009F490E08091E30190FB80F980939E
:10186000E3010E94041C8091D20180FF11C080918D
:10187000E3018695869586951F928F9386E392E085
:101880009F938F930E94EB050F900F900F900F90F6
:101890008091E3018695869586950C94E00C8430C2
:1018A00008F083E0880F880F880F9091E30197700C
:1018B000892B8093E301887F91E009F490E0809187
:1018C000E30190FB80F98093E3010E94041C809166
:1018D000E3018695869586950C94E00CE82FE295B9
:1018E000EF70F0E032A1282F2F7081E090E001C06E
:1018F000880F2A95EAF78095832382A30895E82F1D
:10190000E295EF70F0E032A1282F2F7081E090E097
:1019100001C0880F2A95EAF7832B82A308951F92AE
:101920000F920FB60F9211242F933F934F935F9313
:101930006F937F938F939F93AF93BF93EF93FF9397
:1019400080E90E947F0CFF91EF91BF91AF919F9131
:101950008F917F916F915F914F913F912F910F9058
:101960000FBE0F901F9018951F920F920FB60F92F7
:1019700011242F933F934F935F936F937F938F9394
:101980009F93AF93BF93EF93FF93809188009091C3
:1019900089008130914018F080E90E946E0CFF911F
:1019A000EF91BF91AF919F918F917F916F915F91D7
:1019B0004F913F912F910F900FBE0F901F90189550
:1019C000CF92DF92EF92FF92CF93C82F8430B0F482
:1019D000811115C08091880090918900892BF9F0C0
:1019E00080916F008D7F80936F0080916F008E7F5C
:1019F00080936F0080E90E947F0C11C0C3E080914A
:101A0000880090918900892B51F480916F00826049
:101A100080936F0080916F00816080936F002C2F06
:101A200030E0AFEFBFEF0E94202923E030E040E03C
:101A300050E00E94F8282C3784E138074105510511
:101A400030F4C90169E070E00E94E42829C0DA019D
:101A5000C9018A50974DAF4FBF4F6627782F892F06
:101A60009A2F25EF38E241E050E00E94F828690102
:101A70007A01CA01B9010E94C8289B01AC01C701C3
:101A8000B6010E94C828BB27A92F982F872F00973F
:101A900021E0A207B10511F0BC0102C06FEF7FEF9A
:101AA0007093890060938800CF91FF90EF90DF9052
:101AB000CF9008950895509A80E90E946E0C82E0BC
:101AC0008093800089E1809381008FEF9FEF909356
:101AD0008700809386000C94280B0F931F93CF935D
:101AE000DF93C62FD42F022FFC0182818823C9F0F7
:101AF00060934A010E94481D9093490180934801D8
:101B000080E28C0F883008F050C0C77081E001C0BF
:101B1000880FCA95EAF7DF91CF911F910F910C942E
:101B2000A51210914A01161330C08091480190917E
:101B300049010E94601D883C910538F5C0E2CD0F37
:101B40001D17B9F080E2810F883040F4177081E0F2
:101B500001C0880F1A95EAF70E94AC12C83048F409
:101B600081E09D2F977001C0880F9A95EAF70E9437
:101B7000A512802F0E949212C830B8F4D77081E06D
:101B800001C0880FDA95EAF70AC080E28C0F88302E
:101B900060F4C77081E001C0880FCA95EAF7DF9151
:101BA000CF911F910F910C94AC12DF91CF911F91A7
:101BB0000F9108959C01CB01233F4CE53407F9F0C8
:101BC00078F4283DFCE53F07B9F0293D4CE53407A2
:101BD00011F1273D3C4531F526E241EE61EE1EC094
:101BE000253FFCE53F0799F070F0263F3C45D1F4D6
:101BF00027E245EE66EE12C027E245EE0EC026E271
:101C000041EE60EE0BC027E245EE64EE07C026E22F
:101C100041EE62EE03C028E241E065EE0E946D0DE8
:101C200080E00895FC018281882319F010924A0116
:101C3000089581E00895CF93DF93EC01FB01828149
:101C4000882309F41FC1C230FCE5DF0708F41BC17B
:101C5000C6319CE5D90738F09E012A5F3C45293002
:101C6000310508F010C10E94E21B9093E9018093B6
:101C7000E801C031ECE5DE0709F4C3C008F041C05B
:101C8000C8308CE5D80709F49AC0F0F4C430ECE50C
:101C9000DE0709F487C068F4C2308CE5D80709F480
:101CA00077C0C330DC4509F0E3C08091E801826071
:101CB00076C0C630ECE5DE0709F46EC008F07BC0E4
:101CC0008091E80188606BC0CC308CE5D80709F4BE
:101CD00085C068F4CA30ECE5DE0709F474C008F08A
:101CE00079C00E9435158091E801806858C0CE30D7
:101CF0008CE5D80709F476C008F07FC08091E80130
:101D00008BC0CB3FECE5DE0709F44FC018F5C331BB
:101D10008CE5D80709F47DC078F4C131ECE5DE0725
:101D200009F473C0C231DC4509F0A2C00E94351528
:101D30008091E8018F7733C0C5318CE5D80709F46D
:101D400072C008F486C0CA3FDC4509F091C080919A
:101D5000E9013EC0CF3FFCE5DF0709F45FC058F45E
:101D6000CD3F9CE5D90709F444C008F43FC08091F9
:101D7000E90182602DC0C130FDE5DF0709F475C0BF
:101D800008F45DC0C230DD4509F072C080E06EC06D
:101D90008091E801816003C08091E80180618093B7
:101DA000E80166C08091E80111C08091E90182607C
:101DB0008093E9015DC08091E8018062F0CF80915D
:101DC000E8018064ECCF8091E80188608460E7CF0F
:101DD0008160EECF8091E8018E7FE1CF8091E801B4
:101DE0008D7FDDCF8091E801877FD9CF8091E90198
:101DF00018C08091E9018D7FDBCF8091E8018F7E53
:101E0000CECF8091E8018F7DCACF8091E8018F7B92
:101E1000C6CF8091E801877F8B7FC1CF8091E90198
:101E20008D7F8E7FC5CF8091E80182FB222720F92C
:101E300091E0922790FB82F990FB83F9B0CF8091DB
:101E4000E901982F909591708E7F892B90FB81F9F5
:101E5000AFCF0E9435158091E80187FB222720F93A
:101E600091E0922790FB87F99ACF81E00E947A1C3B
:101E70008091E8019091E9010E94F31B0E943515C1
:101E800080E001C081E0DF91CF91089590935001EF
:101E900080934F010895E0914F01F09150013097E8
:101EA00021F00190F081E02D099480E00895EF92F7
:101EB000FF920F931F93CF93DF93E0914F01F09127
:101EC00050013097B1F18C010280F381E02D09952A
:101ED0008091D20182FF2DC080FF04C08DEB92E083
:101EE0000E945205E80118E087EBE82E82E0F82E08
:101EF0008091D20180FF0BC088811F928F93FF9247
:101F0000EF920E94EB050F900F900F900F901150E1
:101F100021961111EDCF8091D20180FF0AC085EB8F
:101F200092E0DF91CF911F910F91FF90EF900C9471
:101F30005205DF91CF911F910F91FF90EF9008957F
:101F400020914D0130914E018217930771F09093CB
:101F50004E0180934D01E0914F01F0915001309777
:101F600021F00680F781E02D0994089520914B011E
:101F700030914C018217930771F090934C0180933C
:101F80004B01E0914F01F0915001309721F0008416
:101F9000F185E02D0994089585B7806885BF85B7E0
:101FA000806885BF0895089508950C94D40F08950E
:101FB0000C94D70F0E94CC0F0E94D30F0C94D50F16
:101FC00081E008950E943F1D0E940B0A0E94D41DCB
:101FD0000E94280B0C94D80FCF93C82F8091D20168
:101FE00082FF1EC080FF04C086ED92E00E94520571
:101FF0008091D20180FF0CC01F92CF9381ED92E0BF
:102000009F938F930E94EB050F900F900F900F906E
:102010008091D20180FF04C08FEC92E00E945205B3
:102020008C2FCF910C9447064F925F927F928F92A4
:102030009F92AF92BF92CF92DF92EF92FF920F9357
:102040001F93CF93DF93CDB7DEB72A970FB6F894DF
:10205000DEBF0FBECDBF0E94560A0E94E00F811165
:1020600011C08FEF89838A831B820E94481D816083
:10207000782F9D838C8349815A816B818D810E9449
:10208000D01057C092E5C92E91E0D92E00E010E0A3
:10209000AA24A394B12C702E802F0E94BB094C015E
:1020A000F601419051906F01482659264114510480
:1020B00031F40F5F1F4F0530110569F7D2CF8091C2
:1020C000D20181FD0E94C40920E030E07501022E9A
:1020D00002C0EE0CFF1C0A94E2F7C701842195218F
:1020E000892B09F12E837F828E209F2091E0892801
:1020F00009F490E098870E94481D8160782F9A87A4
:1021000089874E815F8168858A850E94D010000F83
:10211000111FF801EE5AFE4F80819181E826F926C1
:10212000F182E08206C02F5F3F4F2C30310571F6FF
:10213000C0CF109151010E944B0F1817D9F00E9487
:102140004B0F809351012A960FB6F894DEBF0FBE55
:10215000CDBFDF91CF911F910F91FF90EF90DF9056
:10216000CF90BF90AF909F908F907F905F904F9057
:102170000C94EC0F2A960FB6F894DEBF0FBECDBFBD
:10218000DF91CF911F910F91FF90EF90DF90CF9053
:10219000BF90AF909F908F907F905F904F900895E9
:1021A000CF93DF93CDB7DEB72B970FB6F894DEBF92
:1021B0000FBECDBF4F83588769877A878B87DE0133
:1021C000119686E0FD0111928A95E9F785E0FE01FE
:1021D000379601900D928A95E1F749815A816B817A
:1021E0007C818D819E810E94DF172B960FB6F8941B
:1021F000DEBF0FBECDBFDF91CF910895FC0180817E
:1022000091810E94AB1A0895CF93DF931F92CDB7AF
:10221000DEB7882309F423C1682F8238C1F40E94F5
:102220004B0F81FD1CC169E3809100019091010178
:102230000E94B11C0E94361B2FEF81EE94E02150CA
:1022400080409040E1F700C0000069E319C0833886
:1022500011F50E944B0F80FD02C163E580910001E2
:10226000909101010E94B11C0E94361B2FEF81EE5C
:1022700094E0215080409040E1F700C0000063E509
:1022800080910001909101010E94B31C0F90DF9199
:10229000CF910C94361B8438C1F40E944B0F82FD01
:1022A000DEC067E480910001909101010E94B11CA1
:1022B0000E94361B2FEF81EE94E021508040904029
:1022C000E1F700C0000067E4DBCF8CEF860F813AB6
:1022D00070F4862F69830E94D52069818111BFC067
:1022E00080910001909101010E94B11CCFCF80E24A
:1022F000860F883048F4677081E001C0880F6A95C6
:10230000EAF70E94ED1AC2CF8BE5860F833088F47E
:10231000653A29F0663A31F083E890E005C081E83B
:1023200090E002C082E890E00F90DF91CF910C9492
:10233000A00F88E5860F873108F091C0683A09F44C
:1023400045C0693A09F445C06A3A09F445C06B3A98
:1023500009F445C06C3A09F445C06B3B09F445C02B
:102360006C3B09F445C06D3A09F445C0603B09F483
:1023700045C06E3A09F445C06F3A09F445C0613B67
:1023800009F445C0623B09F445C0633B09F445C00C
:10239000643B09F445C0653B09F445C0663B09F45C
:1023A00045C0673B09F445C0683B09F445C0693B3B
:1023B00009F445C06D3B09F445C06E3B09F445C0C6
:1023C0006A3B09F445C080E090E044C082EE90E0B2
:1023D00041C089EE90E03EC08AEE90E03BC085EBC4
:1023E00090E038C086EB90E035C083EB90E032C0DF
:1023F00084EB90E02FC087EB90E02CC08CEC90E059
:1024000029C08DEC90E026C083E891E023C08AE8E3
:1024100091E020C082E991E01DC084E991E01AC0FA
:1024200081E292E017C083E292E014C084E292E07D
:1024300011C085E292E00EC086E292E00BC087E216
:1024400092E008C08FE690E005C080E790E002C00F
:102450008AE292E00F90DF91CF910C94B60F0F902B
:10246000DF91CF910895882309F45BC0682F8238EB
:1024700079F40E944B0F81FF54C069E38091000101
:10248000909101010E94B11C0E94361B69E310C0AB
:102490008338B1F40E944B0F80FF43C063E5809105
:1024A0000001909101010E94B11C0E94361B63E55E
:1024B00080910001909101010E94B31C0C94361B85
:1024C000843879F40E944B0F82FF2BC067E480911F
:1024D0000001909101010E94B11C0E94361B67E42B
:1024E000E7CF8CEF860F813A18F380E2860F8830B1
:1024F00048F4677081E001C0880F6A95EAF70E948E
:10250000F31ADCCF8BE5860F833020F480E090E077
:102510000C94A00F685A673120F480E090E00C948E
:10252000B60F0895CF93C82F0E940411C93349F400
:102530002FEF87EE93E0215080409040E1F700C0FC
:1025400000008C2FCF910C943312882321F00E942D
:10255000ED1A0C94361B0895882321F00E94F31A7B
:102560000C94361B0895BF92CF92DF92EF92FF92A8
:102570000F931F93CF93DF937C01062FC72FFC018E
:10258000158112951F70D281D1110E940A1B0E94E1
:10259000E31A882379F0DD2369F080E2800F883028
:1025A00048F082E00E94811B0E94E31A91E0B82E5D
:1025B000B92601C0B12CCC2EC2948FE0C822D12CF8
:1025C000F601EA5AFF4F0C941A298C2F807FCF70A6
:1025D000882311F0C295C07FDD2399F0CC2309F444
:1025E0008DC180E2800F883010F0011104C08C2F63
:1025F0000E94ED1A03C08C2F0E94FD1A0E94361B08
:102600007DC1802F0E943312CC2309F4C0C180E227
:10261000800F883010F0011104C08C2F0E94F31A33
:1026200003C08C2F0E94031B0E94361BB0C18C2F4D
:10263000807FCF70803211F0C295C07F002319F0E7
:102640000130C9F022C0DD2371F0112341F01130B7
:1026500031F40E941D1B8C2B0E94231B98C10E94E9
:102660001D1B8C2B1DC0112319F0113009F48FC1D3
:102670000E942C1B25C0DD2321F0163008F087C1F5
:102680000EC0153008F083C11BC0DD2361F011239B
:1026900031F0F701858180FF31C18F7085838C2FE8
:1026A0000E94A51274C1112359F0093309F037C1F2
:1026B000FFEF27EE83E0F15020408040E1F72DC18D
:1026C0008C2F0E94AC1263C18C2F869586958370E7
:1026D00090E0009719F0019761F059C1DD2321F0D6
:1026E000802F9C2F937002C080E090E00E94A00F8A
:1026F00059C1DD2321F0802F9C2F937002C080E010
:1027000090E00E94B60F4EC18C2F837009F049C033
:10271000D11144C1402F429546954770440F440F54
:10272000602F6F70862F90E0A0E0B0E0042E04C010
:10273000880F991FAA1FBB1F0A94D2F704FF10C06D
:102740000FE010E020E030E004C0000F111F221F56
:10275000331F4A95D2F7009510952095309503C008
:1027600000E010E09801C695C695C370D0E0BC01AA
:10277000CD01602B712B822B932BC230D10559F0E8
:10278000C330D10559F0219719F00E94241906C1D0
:102790000E94121903C10E94361900C10E9410192B
:1027A000FDC0DD2319F08C2F817001C08695882330
:1027B00009F4F4C0402F429546954770440F440FEA
:1027C000602F6F70862F90E0A0E0B0E0042E04C070
:1027D000880F991FAA1FBB1F0A94D2F704FF10C0CD
:1027E0000FE010E020E030E004C0000F111F221FB6
:1027F000331F4A95D2F7009510952095309503C068
:1028000000E010E09801C695C695C370D0E0BC0109
:10281000CD01602B712B822B932BC230D10559F047
:10282000C330D10559F0219719F00E94EA19B6C0BA
:102830000E94D819B3C00E94FC19B0C00E944B1965
:10284000ADC0CF70DD2339F08C2F0E947119802F1D
:102850000E94A512A3C0802F0E94AC128C2F0E9450
:1028600092199CC0023F01F128F4003F41F0013F62
:10287000A1F040C0033FF9F0043F39F13BC0DD2334
:1028800041F0153008F083C08C2F8F710E94B7196A
:102890007EC0163008F07BC0F7CFDD2339F08C2FD7
:1028A0008F710E94711973C0DD23C9F38C2F8F7152
:1028B0000E9492196CC0DD2329F08C2F8F710E9429
:1028C0005C1965C00E94571962C0DD2349F0CF71C1
:1028D0008C2F0E94711963E08C2F0E946C1B57C0D3
:1028E00081E00E94811B123008F451C082E00E94F6
:1028F000811B4DC0DD2331F0112389F2802F0E940E
:10290000041145C0112391F2093349F49FEFE7EE1A
:10291000F3E09150E040F040E1F700C00000802F6C
:102920000E94331234C04C2F4F70602FC7010E9499
:10293000DF060E94831836C0D11134C0CF70D0E0BA
:10294000C230D10599F03CF4209769F02197F9F451
:102950000E94810B27C0C430D10571F054F0259737
:10296000B1F480E00AC00E94490B1CC00E94F50B24
:1029700019C00E94110C16C083E00E944F0C12C0B7
:102980004C2F4F70602FC7010E94E2060BC028E059
:10299000C21AD10884E0C816D10420F40E944B0F5B
:1029A0000E944706BB20D1F00E94DF1A80FD16C0AE
:1029B000F70112820E94D91A0E947119C7010E9460
:1029C000F8140E94D91ADF91CF911F910F91FF90B7
:1029D000EF90DF90CF90BF900C949219DF91CF9140
:1029E0001F910F91FF90EF90DF90CF90BF900895CF
:1029F0000F931F93CF93DF93EC01888199812B81F3
:102A00003C81232BB9F09F3F11F48F3F99F0CE0109
:102A10000E946006882371F0688179818A810E9412
:102A2000B61A8C010E940E1A0E940F19B801CE012D
:102A30000E94B312DF91CF911F910F9108950E94D0
:102A40000A1B0E941A1B0E94361B80E090E00E9425
:102A5000A00F80E090E00C94B60F8091000190915F
:102A600001010E94B51C0C941F150E94FA1A0C94C7
:102A70002D15E92FE295EF70F0E03297EE30F10579
:102A8000B0F4EA59FF4F0C941A29803F91F018F4E2
:102A9000883E68F40EC0843F51F40BC0883E48F075
:102AA000813F29F406C093FB882780F9089580E0D0
:102AB000089581E008950E94AB1A0E943915089587
:102AC000CF93DF9300D000D01F92CDB7DEB70F9029
:102AD0000F900F900F900F90DF91CF910895CF93AB
:102AE000DF9300D000D000D0CDB7DEB726960FB66A
:102AF000F894DEBF0FBECDBFDF91CF9108951F9335
:102B0000CF93DF93C0915D0116E080915E01C817FD
:102B100099F0D0E01C9FF0011D9FF00D1124E15AA7
:102B2000FE4F4081518162817381848195810E9431
:102B30006F152196C770E9CFDF91CF911F9108954E
:102B400040918F015091900160919101709192019B
:102B500080919301909194010C946F158091940150
:102B600082958F7009F054C080919101882309F4F7
:102B70004FC080915D01A0915E0160918F017091C5
:102B800090014091920150919301B6E08A1709F4A7
:102B90003FC090E041155105C1F17F3F11F46F3FF7
:102BA000A1F1B89FF001B99FF00D1124E15AFE4F39
:102BB000218172132AC02081621327C02281211132
:102BC00024C0238134812417350710F421503109A2
:102BD000241B350B283C3105C0F4209194012F7043
:102BE00020612093940126E0289FF001299FF00D99
:102BF0001124EC59FE4F80818F70806180838FE8B3
:102C000091E00E94F8140C947F1501968770BECF56
:102C10000895CF92DF92EF92FF920F931F93CF937D
:102C2000DF93CDB7DEB762970FB6F894DEBF0FBE65
:102C3000CDBF8C0185E0F801DE011D9601900D925B
:102C40008A95E1F7D8014C9111965C9111971296F3
:102C50006C9112971396CD90DC90149730918F0160
:102C6000709190018091920190919301009709F4E5
:102C70006BC17F3F19F43F3F09F466C1E0909101B9
:102C8000EE2009F4C0C020919401C816D90628F09E
:102C9000F601E81BF90BCF0104C0809590958C0DCF
:102CA0009D1DFF24F394883C910578F0F12C207F42
:102CB00009F0C6C07C2DD98AC88A89890E9460150E
:102CC0008FE891E00E94F814B1C0822F807F09F054
:102CD00046C0751314C0341312C0611110C02F7098
:102CE0002061209394010E94A0158FE891E00E943A
:102CF000F81480919401D80115968C932EC0CD289C
:102D000019F15F3F11F44F3FF9F0F62E61111CC02D
:102D100080915D0120915E0136E0821709F45AC06E
:102D200090E0389FF001399FF00D1124E15AFE4FD9
:102D30007181571306C07081471303C072817111EE
:102D400003C001968770E9CFF62E662309F427C1E8
:102D500080919401816080939401F12C20C17513BE
:102D600008C0341306C0611104C080919401D801D9
:102D7000C3C04D875E878D859E856A8B0E945B15DB
:102D80006A898823E1F16623D1F120919401822F91
:102D900082958F7090E0029774F080918F019091EE
:102DA000900198878F831986DB86CA862C87CE018F
:102DB00007960E94F81486E0F801AFE8B1E00190B0
:102DC0000D928A95E1F70E94AE150E94A015FF248E
:102DD000F394E5C04D875E878D859E850E94AB1A72
:102DE000292F22952F7030E0223031050CF0CBC016
:102DF0009F7009F0C5C0805E883008F4D0C0C8015B
:102E00000E94F814E4CFC816D90608F453C0F6019E
:102E1000E81BF90BCF01883C910508F450C0F12C58
:102E20007C2DD98AC88A89890E946015EFE8F1E073
:102E300086E0DF011D928A95E9F70E94A015AFC0D8
:102E4000751314C0341312C0611110C08091940125
:102E5000F8018583C8010E94F81486E0EFE8F1E0EC
:102E6000DF011D928A95E9F7FE2C99C04D875E8798
:102E70008D859E856A8B0E945B156A89882309F47B
:102E8000BECF662309F4BBCF20919401822F829597
:102E90008F7090E002970CF48ECF80918F0190910B
:102EA00090019A8389831B82DD82CC822E83CE019E
:102EB00001967FCF809590958C0D9D1DACCFF62E01
:102EC000662309F49CCF75132EC034132CC02091B7
:102ED000940120FD1FC0822F82958F70D9F0D801F8
:102EE00015962C9315978F3049F08F5F982F9295F8
:102EF000907F822F8F70892B15968C93C8010E942A
:102F0000F81486E0F801AFE8B1E001900D928A95DF
:102F1000E1F793CF86E0F801AFE8B1E001900D92C0
:102F20008A95E1F73CC04D875E878D859E850E941E
:102F30005B15811140CF8091940181608093940151
:102F4000C8010E94F8142BC0662309F458CF4D879E
:102F50005E878D859E850E945B15F82E882309F477
:102F60004ECF86E0F801AFE8B1E001900D928A956E
:102F7000E1F78FE891E00E94FE100E94AE155DCF50
:102F8000811139CF0CC0243031050CF038CF9F703F
:102F900009F431CFF8019581907F09F02CCF8F2D66
:102FA00062960FB6F894DEBF0FBECDBFDF91CF9112
:102FB0001F910F91FF90EF90DF90CF9008951F9396
:102FC000CF93DF93CDB7DEB72C970FB6F894DEBF63
:102FD0000FBECDBF4F83588769877A878B879C87C1
:102FE000CE0107960E940916882369F08F81988583
:102FF0002A853B85232BF1F19F3F09F063C08F3F6A
:1030000009F060C037C086E0FE013796DE011196F8
:1030100001900D928A95E1F76F817885EA85FB85AD
:10302000309741F17F3F11F46F3F21F120915E0114
:1030300030E0C90101968770992740915D0150E009
:103040008417950709F447C069837A83FD83EC836D
:1030500096E0929FD001939FB00D1124A15ABE4FCC
:10306000FE01319601900D929A95E1F780935E01F1
:103070000E947F1516E080915D0190915E01891795
:10308000C1F1189FC0011124815A9E4F0E94091658
:10309000882379F1E0915D011E9FF0011124E15A2E
:1030A000FE4F4081518162817381848195810E94AC
:1030B0006F1580915D0190E001968770992780934C
:1030C0005D01D9CF4F81588569857A858B859C852F
:1030D0000E946F15CFCF0E94351510925E0110929D
:1030E0005D01EFE8F1E086E0DF011D928A95E9F7E6
:1030F000C1CF2C960FB6F894DEBF0FBECDBFDF91C7
:10310000CF911F910895EF92FF920F931F93CF934A
:10311000DF938C01892B09F46CC0F12CEE24E3942D
:10312000E8012196F8018491843740F4843008F056
:1031300051C0813081F0823019F15BC0853709F4CC
:1031400044C0A8F19CE7980F903708F052C08F77E1
:103150000E94331241C00E5F1F4FFE01C49180E2F6
:103160008C0F883048F4C7708E2D01C0880FCA9527
:10317000EAF70E940D1B14C08C2F0E9404112DC071
:103180000E5F1F4FFE01C49180E28C0F883058F40F
:10319000C7708E2D01C0880FCA95EAF70E94131BD5
:1031A0000E94361B1AC08C2F0E94331216C00E5F6D
:1031B0001F4FFE01C491CC2381F08FE99FE001975E
:1031C000F1F700C00000C150F6CF0E5F1F4FFE01A7
:1031D000F49003C00E9404118E018F2D882309F4FE
:1031E0009FCFEFE9FFE03197F1F700C00000815079
:1031F000F5CFDF91CF911F910F91FF90EF90089540
:1032000008950C9400190E9401196093C1017093F4
:10321000C2018093C3019093C4010C941F150895BB
:103220000C9403190F931F930091C1011091C201D7
:103230002091C3013091C401602B712B822B932B01
:103240001F910F910C9403190F931F930091C101CB
:103250001091C2012091C3013091C40160237123F8
:10326000822393231F910F910C9403190F931F93A3
:103270000091C1011091C2012091C3013091C4019C
:1032800060277127822793271F910F910C940319B0
:1032900008950C9448190E9449196093BD017093D8
:1032A000BE018093BF019093C0010C941F1560E094
:1032B00070E0CB010C944B190F931F9341E050E049
:1032C00060E070E08A019B0104C0000F111F221F03
:1032D000331F8A95D2F7C901B8011F910F910C9441
:1032E0004B190F931F9341E050E060E070E004C081
:1032F000440F551F661F771F8A95D2F78091BD0135
:103300009091BE01A091BF01B091C0018A019B01C3
:10331000082B192B2A2B3B2BC901B8011F910F91A8
:103320000C944B190F931F9341E050E060E070E064
:1033300004C0440F551F661F771F8A95D2F740952A
:103340005095609570958091BD019091BE01A091BE
:10335000BF01B091C0018A019B01082319232A23D0
:103360003B23C901B8011F910F910C944B190F9386
:103370001F9341E050E060E070E004C0440F551F2F
:10338000661F771F8A95D2F78091BD019091BE018B
:10339000A091BF01B091C0018A019B0108271927A4
:1033A0002A273B27C901B8011F910F910C944B1993
:1033B0000F931F930091BD011091BE012091BF0199
:1033C0003091C001602B712B822B932B1F910F9199
:1033D0000C944B190F931F930091BD011091BE01E6
:1033E0002091BF013091C001602371238223932378
:1033F0001F910F910C944B190F931F930091BD01D6
:103400001091BE012091BF013091C001602771274A
:10341000822793271F910F910C944B1908952CE04C
:10342000929F800D1124A82FA695A695A69587702A
:1034300051E001C0550F8A95EAF785E0A89FD001B9
:10344000112420E030E070E0F901EA0FFB1FEB5699
:10345000FE4F4081CB01022E02C0969587950A94BB
:10346000E2F78170992781958427852384278083BB
:103470002F5F3F4F2530310539F708952CE0929F9B
:10348000800D1124682F669566956695982F977024
:1034900085E0689FB001112440E050E080E0FA012F
:1034A000E60FF71FEB56FE4F208130E0092E02C0D9
:1034B000369527950A94E2F721703327042E01C030
:1034C000220F0A94EAF7822B4F5F5F4F4530510578
:1034D00031F70895BF92CF92DF92EF92FF920F9350
:1034E0001F93CF93DF938C01C090C101D090C20194
:1034F000E090C301F090C4018091BD019091BE01A4
:10350000A091BF01B091C001C82AD92AEA2AFB2A9A
:10351000CFE1D0E0D701C6010C2E04C0B695A79527
:10352000979587950A94D2F780FF07C0BC2EB80103
:103530008C2F0E94FD06019719F4219758F7B12CA2
:103540008B2DDF91CF911F910F91FF90EF90DF9026
:10355000CF90BF900895CF93DF93EC010E946A1A39
:10356000BE010E94FD06DF91CF9108951F93CF9376
:10357000DF93EB0190915C01992321F0CB010E9434
:10358000AB1A13C0882349F0CB010E946A1A182F86
:10359000682FCE010E940F1A04C0CB010E943E1A70
:1035A000182FBE01812F0E94FD06DF91CF911F9140
:1035B00008958091C501859585958595089580919B
:1035C000C501877008959091C501977081E009F455
:1035D00080E008958091D10108959091D101892BC7
:1035E0008093D101089580959091D1018923809392
:1035F000D10108951092D10108959091D001892BA5
:103600008093D001089580959091D0018923809373
:10361000D00108951092D00108959091CF01892B87
:103620008093CF01089580959091CF018923809355
:10363000CF0108951092CF0108958091C601089599
:1036400008950C94201B9091C601981721F0809347
:10365000C6010C94211B08958091C601882329F08E
:103660001092C60180E00C94211B0895E0910001A6
:10367000F09101018091D1018083E0910001F091EE
:10368000010190818091D001892B8083E09100011C
:10369000F091010190818091CF01892B80838091ED
:1036A000C601882381F0E0910001F0910101908131
:1036B000892B808380910001909101010E947F1CE1
:1036C00081110E942C1B80910001909101010C94AA
:1036D000570F08950C94691B98E0899F900111245D
:1036E000262B2093C5010E9471198091C5018595F3
:1036F000859585950C946A1B1092C50180E00C9409
:103700006A1B2091C501809582238093C501982F63
:10371000977079F430E0482F082E000C550B2417D1
:10372000350739F08595859585950E9492190C94F9
:103730007C1B089590932F0180932E01089582950C
:10374000982F9C7C392F36953695282F237344E08B
:10375000249FC0011124932F982B292F2A7A269574
:10376000892F8575880F822B08951F93CF93DF9340
:103770001F92CDB7DEB799830E949F1B182F9981A6
:10378000892F0E949F1B212F30E0322F2227A90171
:10379000482BCA010F90DF91CF911F91089580E0CF
:1037A00090E00E94422921E08C3E9E4F09F020E0EB
:1037B000822F089582E090E00C943A2983E090E013
:1037C0000C943A29CF9384E090E00E943A29C82FC4
:1037D00081E290E00E943A292C2F30E0A901582B79
:1037E000CA01CF910895CF93C92F682F84E090E04C
:1037F0000E9448296C2F81E290E0CF910C944829D7
:1038000086E090E00C943A29682F86E090E00C94D2
:103810004829AB01BC018FE090E00C945A29AB0120
:10382000BC0183E190E00C945A2960E070E0CB0188
:103830000C940F1C60E070E0CB010E94091C0C94FA
:10384000151C6CEE7EEF80E090E00E94662960E03F
:1038500082E090E00E94482960E083E090E00E94CE
:1038600048291092C1011092C2011092C301109216
:10387000C40160E084E090E00E94482960E081E2B9
:1038800090E00E94482960E085E090E00E9448298D
:1038900060E086E090E00E9448296FEF87E090E0CA
:1038A0000E94482940E050E0BA0188E090E00E9480
:1038B0005A2960E08DE090E00E94482940E050E005
:1038C000BA0188E190E00E945A2960E087E190E027
:1038D0000E94482940E050E0BA018CE190E00E944B
:1038E0005A2960E080E290E00E9448290C941A1C5A
:1038F0000C94211C682F8EE090E00C944829FC0168
:10390000329697E080E0915029F021912223D9F35B
:103910008F5FF9CF08959C01FC0132969FEF80E004
:103920004191461789F09F3F19F4411101C0982F2A
:103930008F5F8630A9F79F3F39F0F901E90FF11D3C
:1039400097FDFA95628308950895FC0132960896D2
:103950002081261301C010823196E817F907C1F7BC
:1039600008950C948B1C0C94A51C029626E0FC0177
:1039700011922A95E9F7089508950C94BC1C0E94B1
:10398000BD1C8091EE01843061F11092D30120E4DE
:1039900088E190E00FB6F894A895809360000FBE80
:1039A0002093600080E00E94E00C80E00E944706C7
:1039B0000E94BD1C83B7817F846083BF83B7816011
:1039C00083BF7894889583B78E7F83BF0FB6F894B2
:1039D000A8958091600088618093600010926000DB
:1039E0000FBE089508950895CF930E94F21C0E947F
:1039F000560A0E94F31CC0E08C2F0E94BB09892B41
:103A000029F4CF5FC530C1F780E001C081E0CF91DC
:103A1000089508950C94091D0E9435150E94280BE5
:103A20000E944B0F0E9447060C940A1D1F920F9292
:103A30000FB60F9211248F939F93AF93BF938091F2
:103A4000D301811113C08091E4019091E501A0910F
:103A5000E601B091E7014196A11DB11D8093E401FB
:103A60009093E501A093E601B093E701BF91AF9178
:103A70009F918F910F900FBE0F901F90189582E02D
:103A800084BD93E095BD9AEF97BD80936E00089535
:103A90002FB7F8948091E4019091E501A091E6019F
:103AA000B091E7012FBF08952FB7F8946091E4011A
:103AB0007091E5018091E6019091E7012FBF089593
:103AC000CF92DF92EF92FF920F931F932FB7F8944C
:103AD0004091E4015091E5016091E6017091E701A8
:103AE0002FBF6A017B01EE24FF248C0120E030E02F
:103AF000C016D106E206F30610F4415051099A01AE
:103B0000281B390BC9011F910F91FF90EF90DF9097
:103B1000CF90089578941F920F920FB60F921124B0
:103B20008F939F93AF93BF938091E4019091E501B0
:103B3000A091E601B091E7010196A11DB11D80930E
:103B4000E4019093E501A093E601B093E701BF91F2
:103B5000AF919F918F910F900FBE0F901F9018956E
:103B600081E08093E00080E28093D8001092C90049
:103B70008FE19EE40197F1F700C0000087E090EB31
:103B8000DC018093F7019093F801A093F901B093C1
:103B9000FA019CE088E10FB6F894A8958093600044
:103BA0000FBE90936000FFCF0E94CF1B811102C017
:103BB0000E94781C0E94DA1B8093D2010E94E21BB3
:103BC0009093E9018093E8010E94DE1B682F70E06A
:103BD00080E090E00C941019CF93C82F1F928F9320
:103BE0008FEE92E09F938F930E94EB0581E090E02F
:103BF000A0E0B0E0BC01CD0104C0660F771F881FB4
:103C0000991FCA95D2F70E9410190F900F900F902C
:103C10000F90CF910C943515CF93DF938B3109F42E
:103C200035C208F0CBC18B3009F4EEC108F0A1C158
:103C3000863009F4ECC120F4853009F4FAC1A8C239
:103C4000873009F408C2883009F0A2C286E798E0FC
:103C50000E94520587EC97E00E9452050E94DE1BED
:103C60001F928F9384EC97E09F938F930E94EB05B4
:103C700082EC97E00E9452050E94DA1BC82F8FEA5F
:103C800097E00E9452051F92CF938AEA97E09F9394
:103C90008F930E94EB0588EA97E00E9452058EE917
:103CA00097E00E9452058C2F81701F928F938BE9B1
:103CB00097E09F938F930E94EB0589E997E00E941C
:103CC00052058FE897E00E945205C1FB882780F9D2
:103CD0001F928F938CE897E09F938F930E94EB0540
:103CE0008AE897E00E9452058EE797E00E9452050D
:103CF000C2FB882780F91F928F938BE797E09F93F1
:103D00008F930E94EB0589E797E00E94520580E7B8
:103D100097E00E945205C3FBCC27C0F91F92CF93B6
:103D20008DE697E09F938F930E94EB058BE697E0DB
:103D30000E9452050E94E21BEC0187E597E00E9479
:103D40005205DF93CF9382E597E09F938F930E9474
:103D5000EB0580E597E00E94520587E397E00E941B
:103D600052058C2F81701F928F9384E397E09F936D
:103D70008F930E94EB058DB79EB780960FB6F8948F
:103D80009EBF0FBE8DBF82E397E00E9452058BE17C
:103D900097E00E945205C1FB882780F91F928F93FC
:103DA00088E197E09F938F930E94EB0586E197E06F
:103DB0000E94520584E097E00E9452058D2F817089
:103DC0001F928F9381E097E09F938F930E94EB0562
:103DD0008FEF96E00E9452058DEE96E00E9452050C
:103DE000D695D1701F92DF938AEE96E09F938F93C2
:103DF0000E94EB0588EE96E00E94520586ED96E063
:103E00000E945205C2FB882780F91F928F9383ED91
:103E100096E09F938F930E94EB0581ED96E00E94C0
:103E200052058FEB96E00E945205C3FB882780F96C
:103E30001F928F938CEB96E09F938F930E94EB05DC
:103E40008AEB96E00E94520580EB96E00E945205B4
:103E5000C4FB882780F91F928F938DEA96E09F9389
:103E60008F930E94EB058BEA96E00E94520589E948
:103E700096E00E945205C5FB882780F91F928F9318
:103E800086E996E09F938F930E94EB0584E996E084
:103E90000E94520588E796E00E945205C6FB8827DB
:103EA00080F91F928F9385E796E09F938F930E94EE
:103EB000EB058DB79EB780960FB6F8949EBF0FBEE8
:103EC0008DBF83E796E00E9452058BE696E00E9444
:103ED0005205C7FBCC27C0F91F92CF9388E696E026
:103EE0009F938F930E94EB0586E696E00E94520511
:103EF0000E94001CC82F8FE496E00E9452051F927A
:103F0000CF938AE496E09F938F930E94EB0588E419
:103F100096E00E9452058EE396E00E9452058C2F97
:103F200081701F928F938BE396E09F938F930E94F3
:103F3000EB0589E396E00E94520580E396E00E943B
:103F40005205C695C695C6951F92CF938DE296E011
:103F50009F938F930E94EB058BE296E00E9452059F
:103F60008DB79EB740960FB6F8949EBF0FBE8DBF1B
:103F700049C0803109F4B4C020F48E3009F49AC0ED
:103F800007C1863109F4C7C0893109F001C18EE546
:103F900094E00E94520586E394E00E94520581EF6E
:103FA00093E00E94520588EB93E00E9452058BE853
:103FB00093E00E9452058DE593E08FC08A32E1F0D4
:103FC00060F4873209F4E0C028F48E3108F4E0C0D0
:103FD0008D51DBC0893269F1DBC0833448F48A3308
:103FE00008F0D0C0853309F4CFC0883369F0D0C061
:103FF000833409F4C9C0CCC085E698E00E9452051C
:104000000E94781CC1E0C9C088E894E066C0809135
:10401000D201817F8E7F8093D2018DE694E00E9451
:10402000520581E698E00E94520581E08093D40118
:10403000E9CF0E94351585E498E00E9452059FEF74
:1040400023ED80E3915020408040E1F700C0000064
:104050000E94B01DD7CF8091D201C82FC095C170EA
:10406000C0FB80F98093D201CC2329F089E398E04A
:104070000E94520592C08CE298E00E945205809105
:10408000D201897F877F8093D201BCCF9091D201EA
:1040900091FBCC27C0F981E0C827892FC0FB81F9AB
:1040A0008093D201CC2319F08FE198E029C081E1FF
:1040B00098E013C09091D20192FBCC27C0F981E027
:1040C000C827892FC0FB82F98093D201CC2319F035
:1040D00082E098E015C082EF97E00E94520592CFEF
:1040E0009091D20193FBCC27C0F981E0C827892F9A
:1040F000C0FB83F98093D201CC2351F086EE97E088
:104100000E9452058091D20181608093D20145C006
:1041100089ED97E0E2CF8FE493E00E9452050E9480
:104120004B0F1F928F9385E393E09F938F930E9491
:10413000EB0580910C011F928F938EE193E09F938A
:104140008F930E94EB058091E1011F928F938BE08A
:1041500093E09F938F930E94EB050E94541D9F93C1
:104160008F937F936F9384EF92E09F938F930E943E
:10417000EB058DB79EB742960FB6F8949EBF0FBE63
:104180008DBF40CF895301C080E00E94EC1D3ACF23
:1041900087ED97E00E945205C0E08C2FDF91CF9110
:1041A000089580E0089580E00895CF93C82F80910E
:1041B000D401882319F0813031F038C00E94EA1A06
:1041C0008232B1F504C00E94EA1A823261F48C2F67
:1041D0000E94D120811104C08C2F0E940C1E24C08B
:1041E00081E090E021C08C2F0E94D32081111BC060
:1041F000C43189F018F4CB3029F010C0C93259F01D
:10420000C83361F48DE694E00E9452058BEE92E093
:104210000E94520508C01092D4010CC089EE92E0B1
:104220000E94520507C081E0817006C01092D4013F
:1042300080E002C080E0F8CFCF9108958091E00146
:10424000089508959FB7F8941092D7019FBF909159
:10425000EE01943009F057C09091E9009F703091C1
:10426000EC00232F217030FD20E8922B23E02093D7
:10427000E9002091EB0020FF43C02091EE0027FFD2
:104280003FC02091D501222321F02091E80025FF95
:1042900037C01092D50126E03091E80035FD15C0F9
:1042A0003091EE01343061F53091EB0035FD28C0DE
:1042B000215021F481E08093D50122C0EFE9FFE095
:1042C0003197F1F700C00000E7CF8093F1008091B3
:1042D000E80085FD0AC08091E80080FFFCCF809156
:1042E000E8008E778093E80006C08FB7F89421E04D
:1042F0002093D7018FBF9F709093E90080E00895CD
:104300009F709093E9008FEF08950F931F93CF93C1
:10431000DF9300D01F92CDB7DEB78C010E9410242E
:10432000823011F0843021F584E089831B830A8375
:1043300082E08093E9008FEF9091E800815095FD35
:1043400006C095ED9A95F1F700008111F5CF8091A7
:10435000E80085FF0DC040E050E063E070E0CE0172
:1043600001960E942D248091E8008E778093E800CA
:104370000F900F900F90DF91CF911F910F910895A3
:10438000CF93DF9300D01F92CDB7DEB72091EE011F
:10439000243031F523E02983805891099B838A8357
:1043A00082E08093E9008FEF9091E800815095FDC5
:1043B00006C095ED9A95F1F700008111F5CF809137
:1043C000E80085FF0DC040E050E063E070E0CE0102
:1043D00001960E942D248091E8008E778093E8005A
:1043E0000F900F900F90DF91CF910895CF93DF93AF
:1043F000EC010E941024823011F0843039F581E004
:104400008093E9008FEF9091E800815095FD06C000
:1044100095ED9A95F1F700008111F5CF8091E800B4
:1044200085FF14C040E050E068E070E0CE010E94DB
:104430002D248091E8008E778093E80088E0FE01CB
:10444000A8EDB1E001900D928A95E1F7DF91CF914F
:10445000089586EA98E00E9452058091ED0181114D
:1044600009C00E94C2250E941F268091E20084603C
:104470008093E200089582EA98E00E94520510922B
:10448000ED0108958EE998E00C9452058AE998E0D0
:104490000C94520586E998E00E9452050C940C1D7C
:1044A0002091D6012F5F822F62E30E94D8289923A2
:1044B00019F02093D60108951092D6018091D7016A
:1044C000882371F18091EE01843041F58091E900FB
:1044D0008F702091EC00922F917020FD90E8892B35
:1044E00093E09093E9009091EB0090FF14C09091BD
:1044F000EE0097FF10C09091E80095FF03C0109266
:10450000F100F9CF9091E80090FF05C09091E8008C
:104510009E779093E8008F708093E9001092D70106
:10452000089542E061EC81E00E943C2542E261ECAA
:1045300082E00E943C2542E261EC83E00C943C2541
:104540008091F001833009F460C030F4813071F063
:10455000823009F499C008958A3009F485C08B30FF
:1045600009F46BC0893009F0A7C020C08091EF0129
:10457000813A09F0A1C08091E800877F8093E8002C
:104580008091F3019091F401892B21F468E088ED8A
:1045900091E003C060E080E090E070E00E94782449
:1045A0008091E8008B778093E80008958091EF0177
:1045B000813209F081C08091F3019091F40102975A
:1045C00008F07AC08091E800877F8093E8008091AE
:1045D000E80082FD05C08091EE018111F8CF6CC02A
:1045E0002091F3008091F20090E0922B029729F441
:1045F0008091F1008B7F813021F48091F1008093D4
:10460000E0018091E8008B7753C08091EF01813AFF
:1046100009F052C08091F3019091F401892B09F0C7
:104620004BC08091E800877F8093E8008091E8008C
:1046300080FFFCCF80910C0136C08091EF01813268
:10464000D9F58091F3019091F401892BA9F580911E
:10465000E800877F8093E8000E9471258091F10136
:1046600080930C010C9435158091EF01813221F576
:104670008091E800877F8093E8000E9471258091F7
:10468000F2018093E10108958091EF01813AA1F454
:104690008091E800877F8093E8008091E80080FFA8
:1046A000FCCF8091E1018093F1008091E8008E774A
:1046B0008093E8000C947125089584B7877F84BFA8
:1046C0000FB6F894A895809160008861809360008F
:1046D000109260000FBE90E080E80FB6F8948093CF
:1046E0006100909361000FBE0E94DA0F0E94C22504
:1046F0000E941F268091E20084608093E20082E2A3
:1047000091E20E949A1B78940E94AD280E94E20FC9
:1047100082E091E00E94460F85E898E00E945205F1
:104720008091EE01853089F481E898E00E9452057D
:104730000E94BF1C8091EC01882391F30E94F41C1D
:10474000882371F30E941724EBCF0E941410E8CF46
:104750000C94AA23292F332723303105C9F064F4A0
:104760002130310581F02230310509F049C08BE557
:1047700090E024EF38E048C02132310521F12232A7
:10478000310571F13DC082E190E02FE439E03CC099
:1047900099278130910571F02CF4892B89F5E0EF90
:1047A000F8E00DC08230910541F0039749F5EAEA3F
:1047B000F8E005C0EEECF8E002C0E0EBF8E0849130
:1047C00090E09F0121C063307105D0F4660F771F20
:1047D000FB01E95DFE4F2081318189E090E014C04A
:1047E0006330710568F4FB01EE0FFF1FEF5DFE4FB4
:1047F00020813181FB01E25EFE4F808190E004C0A8
:1048000080E090E020E030E0FA01318320830895D9
:104810008091EE01843011F081E0089582E00895E6
:104820008091E201811102C00C940824089580E176
:1048300089BD82E189BD09B400FEFDCF8091D80019
:104840008F7D8093D8008091E00082608093E000AB
:104850008091E00081FDFCCF0895CF92DF92EF922E
:10486000FF920F931F93CF93DF93EC018B016A01AB
:104870000E949025811133C0C114D10439F0F60192
:1048800080819181081B190BC80FD91FE12CF12CD5
:104890000115110519F18091E80085FD16C0809180
:1048A000E8008E778093E800C114D10449F0F60146
:1048B00080819181E80EF91EF182E08285E00FC0CF
:1048C0000E949025882321F30AC089918093F100EA
:1048D00001501109FFEFEF1AFF0ADACF80E0DF91F4
:1048E000CF911F910F91FF90EF90DF90CF9008959F
:1048F0002091F5013091F6012617370748F0611530
:10490000710539F42091E8002E772093E80001C06A
:10491000B90140E061157105A9F12091EE01222352
:1049200009F443C0253009F442C02091E80023FD7A
:1049300040C02091E80022FD32C02091E80020FF15
:10494000E9CF4091F3002091F20030E0342BFC01DC
:10495000CF016115710559F02830310540F481917E
:104960008093F100615071092F5F3F4FF1CF41E01B
:104970002830310509F040E02091E8002E7720939F
:10498000E800C8CF4111C9CF0AC08091EE01882349
:1049900061F0853061F08091E80083FD0AC080916C
:1049A000E80082FFF2CF80E0089582E0089583E07E
:1049B000089581E008952091F5013091F6012617C0
:1049C000370748F06115710539F42091E8002E771A
:1049D0002093E80001C0B901FC0120E061157105D8
:1049E00091F18091EE01882309F440C0853009F4EB
:1049F0003FC08091E80083FD3DC08091E80082FDCA
:104A00002FC08091E80080FFE9CF2091F3008091D2
:104A1000F20090E0922B6115710559F088309105F4
:104A200040F424912093F100319661507109019670
:104A3000F2CF21E0089709F020E08091E8008E771E
:104A40008093E800CBCF2111CCCF0AC08091EE013A
:104A5000882361F0853061F08091E80083FD0AC011
:104A60008091E80082FFF2CF80E0089582E008950F
:104A700083E0089581E00895982F973058F590933A
:104A8000E900981739F07091EC002091ED005091F9
:104A9000F00003C0242F762F50E021FF19C0309181
:104AA000EB003E7F3093EB003091ED003D7F309383
:104AB000ED003091EB0031603093EB007093EC002F
:104AC0002093ED005093F0002091EE0027FF07C0E7
:104AD0009F5FD3CF8F708093E90081E0089580E0DD
:104AE00008958091EF0187FF11C08091E80082FD59
:104AF00005C08091EE018111F8CF11C08091E800CE
:104B00008B770BC08091EE01882349F08091E800FB
:104B100080FFF8CF8091E8008E778093E8000895B9
:104B20002091E4003091E50095E64091EC00842F5F
:104B3000817040FF22C08091E80080FD1CC0809100
:104B4000EE01882391F0853091F08091EB0085FD96
:104B500010C04091E4005091E5004217530729F33B
:104B60009A01915011F784E0089582E0089583E05E
:104B7000089581E0089580E008954091E80042FFA3
:104B8000DECF08950E9430260E943826E0EEF0E045
:104B9000808181608083E8EDF0E080818F77808381
:104BA00019BCA7EDB0E08C918E7F8C9380818F7EB5
:104BB00080831092ED0108950F931F93CF93DF939D
:104BC0000E9430260E943826C8EDD0E088818F7779
:104BD000888388818068888388818F7D888319BCD9
:104BE0001092EE011092EA011092EC011092EB018A
:104BF00000EE10E0F80180818B7F808388818160E6
:104C0000888342E060E080E00E943C25E1EEF0E035
:104C100080818E7F8083E2EEF0E0808181608083FE
:104C2000808188608083F80180818E7F8083888185
:104C300080618883DF91CF911F910F910895E8EDF6
:104C4000F0E080818F7E8083E7EDF0E080818160FD
:104C5000808384E082BF81E08093ED010C94DC25A9
:104C6000E8EDF0E080818E7F80831092E20008956D
:104C70001092DA001092E10008951F920F920FB681
:104C80000F9211242F933F934F935F936F937F93D2
:104C90008F939F93AF93BF93EF93FF938091E10026
:104CA00082FF0BC08091E20082FF07C08091E1008B
:104CB0008B7F8093E1000E9450228091DA0080FF78
:104CC0001FC08091D80080FF1BC08091DA008E7FCA
:104CD0008093DA008091D90080FF0DC080E189BD0A
:104CE00082E189BD09B400FEFDCF81E08093EE0131
:104CF0000E94292205C019BC1092EE010E943B229D
:104D00008091E10080FF19C08091E20080FF15C012
:104D10008091E2008E7F8093E2008091E2008061CA
:104D20008093E2008091D80080628093D80019BC03
:104D300085E08093EE010E9446228091E10084FF8D
:104D400030C08091E20084FF2CC080E189BD82E107
:104D500089BD09B400FEFDCF8091D8008F7D80937E
:104D6000D8008091E1008F7E8093E1008091E20085
:104D70008F7E8093E2008091E20081608093E20068
:104D80008091EA01882311F084E007C08091E3005C
:104D900087FD02C081E001C083E08093EE010E94A4
:104DA0004A228091E10083FF29C08091E20083FFC5
:104DB00025C08091E100877F8093E10082E08093AD
:104DC000EE011092EA018091E1008E7F8093E10074
:104DD0008091E2008E7F8093E2008091E20080610A
:104DE0008093E20042E060E080E00E943C258091F8
:104DF000F00088608093F0000E944222FF91EF91C2
:104E0000BF91AF919F918F917F916F915F914F91E2
:104E10003F912F910F900FBE0F901F9018951F92EA
:104E20000F920FB60F9211242F933F934F935F93DE
:104E30006F937F938F939F93AF93BF93CF93DF93A2
:104E4000EF93FF93C091E900CF708091EC00D82FD1
:104E5000D17080FDD0E81092E9008091F000877F4A
:104E60008093F00078940E9453271092E90080917B
:104E7000F00088608093F000CD2BCF70C093E900E4
:104E8000FF91EF91DF91CF91BF91AF919F918F9162
:104E90007F916F915F914F913F912F910F900FBE36
:104EA0000F901F9018951F93CF93DF93CDB7DEB768
:104EB000AA970FB6F894DEBF0FBECDBFEFEEF1E0BC
:104EC00088E08E0F9091F10091938E13FBCF0E949A
:104ED000A0228091E80083FF28C18091EF0190918A
:104EE000F001492F50E04A30510508F01EC1FA0187
:104EF000EC58FF4F0C941A29803821F0823809F0C1
:104F000014C108C08091EB019091EC01992389F0C4
:104F100082600FC08091F3018F70873008F005C167
:104F20008093E9008091EB0085FB882780F910923F
:104F3000E9009091E800977F9093E8008093F1005A
:104F40001092F100D0C0282F2D7F09F0EEC08823E9
:104F500019F0823061F0E9C08091F101813009F0EF
:104F6000E4C0933009F080E08093EC012EC0809182
:104F7000F10181112AC08091F3018F702FEF280F6A
:104F8000263008F0D2C08093E9002091EB0020FF8A
:104F90001CC0933021F48091EB00806214C090918A
:104FA000EB0090619093EB0021E030E0A90102C09A
:104FB000440F551F8A95E2F74093EA001092EA00E9
:104FC0008091EB0088608093EB001092E900809163
:104FD000E800877F8093E8000E947125A6C08111B8
:104FE000A4C01091F1011F778091E3008078812B9C
:104FF0008093E3008091E800877F8093E8000E941F
:1050000071258091E80080FFFCCF8091E3008068EB
:105010008093E300111102C082E001C083E080931D
:10502000EE0183C08058823008F07FC08091F1018A
:105030009091F2018C3D53E0950779F583E08A83E6
:105040008AE289834FB7F894DE01139620E03EE0B0
:1050500051E2E32FF0E050935700E49120FF03C0AA
:10506000E295EF703F5FEF708E2F90E0EA3010F026
:10507000C79601C0C0968D939D932F5F243149F749
:105080004FBF8091E800877F8093E8006AE270E07C
:10509000CE0101960E94782415C06091F3017091B1
:1050A000F401AE014F5F5F4F0E94A823BC01892B22
:1050B000E1F19091E800977F9093E80089819A81CF
:1050C0000E94DB248091E8008B778093E8002DC05C
:1050D000803859F58091E800877F8093E8008091BF
:1050E000EA018093F1008091E8008E7773CF8111FF
:1050F0001CC09091F1019230C0F48091E800877F4C
:105100008093E8009093EA010E9471258091EA0162
:10511000811106C08091E30087FD02C081E001C0DB
:1051200084E08093EE010E9491228091E80083FF49
:105130000AC08091E800877F8093E8008091EB00AF
:1051400080628093EB00AA960FB6F894DEBF0FBE84
:10515000CDBFDF91CF911F910895CF938091EE0144
:105160008823A1F0C091E900CF709091EC00892FC5
:10517000817090FD80E8C82B1092E9008091E800D2
:1051800083FD0E945327CF70C093E900CF9108950B
:10519000DB018F939F930E942F29BF91AF91A29F14
:1051A000800D911DA39F900DB29F900D1124089525
:1051B000991B79E004C0991F961708F0961B881F69
:1051C0007A95C9F780950895AA1BBB1B51E107C0CA
:1051D000AA1FBB1FA617B70710F0A61BB70B881F87
:1051E000991F5A95A9F780959095BC01CD01089516
:1051F000A1E21A2EAA1BBB1BFD010DC0AA1FBB1FDB
:10520000EE1FFF1FA217B307E407F50720F0A21B4C
:10521000B30BE40BF50B661F771F881F991F1A94B9
:1052200069F760957095809590959B01AC01BD01E3
:10523000CF010895EE0FFF1F0590F491E02D099422
:10524000A29FB001B39FC001A39F700D811D1124C7
:10525000911DB29F700D811D1124911D08950E9412
:105260002029A59F900DB49F900DA49F800D911DA6
:1052700011240895F999FECF92BD81BDF89A99271E
:1052800080B50895A8E1B0E042E050E00C946E29AA
:10529000262FF999FECF92BD81BDF89A019700B4EF
:1052A000021639F01FBA20BD0FB6F894FA9AF99A8F
:1052B0000FBE08950396272F0E9449290E9448296E
:1052C000252F0E944929242F0C9449290196272F24
:1052D0000E9449290C944829DC01CB01FC01F99971
:1052E000FECF06C0F2BDE1BDF89A319600B40D9232
:0C52F00041505040B8F70895F894FFCFEB
:1052FC00C7011E21F6212121C021852101F1F431A4
:10530C00323337919294969734C6F0F5F6F74036CF
:0E531C0022B9098309610906091F0938090031
:00000001FF
