:100000000C9495040C94DC040C94DC040C94DC0437
:100010000C94DC040C94DC040C94DC040C94DC04E0
:100020000C94DC040C94DC040C94A4240C9476252D
:100030000C940D1F0C94DC040C94DC040C94DC0474
:100040000C94DC040C94AC0E0C94DC040C94DC04D6
:100050000C94D00E0C94661F0C94DC040C94DC04FD
:100060000C94DC040C94DC040C94DC040C94DC0490
:100070000C94DC040C94DC040C94DC040C94DC0480
:100080000C94DC040C94DC040C94DC040C94DC0470
:100090000C94DC040C94DC040C94DC040C94DC0460
:1000A0000C94DC040C94DC040C94DC04F414F414C0
:1000B000261526157315A716A716A7169115261629
:1000C000371637169716A716A716A0164317431705
:1000D000551755174C1755175517551743174317ED
:1000E0005117551755175117E3250A2602270A26D7
:1000F0000227562679260227D026DF260000000098
:100100005400550056004300440045004600470097
:100110004800000000005F006000610057004000E0
:100120004100420049004A004B00000000005C0012
:100130005D005E0085003D003E003F004C004D002C
:100140004E000000000059005A005B0067003A00B2
:100150003B003C0000000000520000000000620074
:100160006300580000000000000000000000500084
:1001700051004F0044454255473A2064697361621B
:100180006C65642E0A0044454255473A20656E610D
:10019000626C65642E0A000A002530313662003A2E
:1001A000200025303258000A722F6320303132335C
:1001B0003435363738394142434445460A003F001A
:1001C000433E20004C25640A0074696D65725F72BD
:1001D000656164333228293A202530346C580A008E
:1001E0006B6579626F6172645F69646C653A202542
:1001F000580A006B6579626F6172645F70726F7428
:100200006F636F6C3A2025580A00686F73745F6BD8
:100210006579626F6172645F6C65647328293A2046
:1002200025580A000A092D20537461747573202D16
:100230000A004743433A20352E342E30204156528F
:100240002D4C4942433A20322E302E302041565216
:100250005F415243483A20617672350A004F50544C
:10026000494F4E533A204C5546412045585452412F
:100270004B455920434F4E534F4C4520434F4D4D16
:10028000414E4420343039360A004255494C443AF4
:100290002020284170722032382032303231290A31
:1002A000005649443A20307831333337284D617055
:1002B0006C6520436F6D707574696E6729205049B5
:1002C000443A20307836303137284A4E414F204B5F
:1002D0006579626F61726429205645523A20307800
:1002E000303030310A000A092D2056657273696F6B
:1002F0006E202D0A000A092D20436F6E736F6C6506
:10030000202D0A4553432F713A09717569740A000B
:100310000A092D204D61676963202D0A443A09447A
:1003200065627567204D65737361676520546F67FB
:10033000676C650A583A094D6174726978204465A2
:10034000627567204D6F646520546F67676C652028
:100350002D2053686F77206B6579707265737365B4
:100360007320696E206D61747269782067726964A8
:100370000A4B3A094B6579626F6172642044656289
:10038000756720546F67676C65202D2053686F7701
:10039000206B65797072657373207265706F72740B
:1003A0000A4D3A094465627567204D6F7573652083
:1003B000546F67676C650A563A0956657273696FC0
:1003C0006E0A533A095374617475730A433A0941CA
:1003D0006374697661746520436F6E736F6C65201A
:1003E0004D6F64650A46312D4631303A09537769BD
:1003F00074636820746F204C6179657220302D39E8
:100400002028463130203D204C30290A302D393A01
:100410000953776974636820746F204C6179657241
:1004200020302D390A47524156453A0953776974AD
:10043000636820746F204C617965722030202861D8
:100440006C7465726E617465290A423A094A756D69
:100450007020746F20426F6F746C6F616465720AF4
:100460004553433A094A756D7020746F20426F6F8F
:10047000746C6F616465722028616C7465726E6162
:100480007465290A453A095072696E7420454550D1
:10049000524F4D2053657474696E67730A4253500E
:1004A0004143453A09436C65617220454550524FBE
:1004B0004D0A000A002575002E6C6576656C3A20A1
:1004C000000A002575002E656E61626C653A200099
:1004D0000A0025303258006261636B6C696768748A
:1004E0005F636F6E6669672E7261773A20000A005B
:1004F0002575002E6E6B726F3A20000A002575007C
:100500002E737761705F6261636B736C6173685F98
:100510006261636B73706163653A20000A00257540
:10052000002E737761705F67726176655F657363D4
:100530003A20000A002575002E6E6F5F6775693AD4
:1005400020000A002575002E737761705F72616C60
:10055000745F726775693A20000A002575002E7372
:100560007761705F6C616C745F6C6775693A2000CD
:100570000A002575002E737761705F7263746C5F7B
:10058000726775693A20000A002575002E7377613D
:10059000705F6C63746C5F6C6775693A20000A0069
:1005A0002575002E636170736C6F636B5F746F5F92
:1005B000636F6E74726F6C3A20000A002575002E0E
:1005C000737761705F636F6E74726F6C5F6361707D
:1005D000736C6F636B3A20000A0025303258006B51
:1005E00065796D61705F636F6E6669672E726177A2
:1005F0003A20000A002575002E6D6F7573653A204C
:10060000000A002575002E6B6579626F6172643A8D
:1006100020000A002575002E6D61747269783A20F9
:10062000000A002575002E656E61626C653A200037
:100630000A00253032580064656275675F636F6E2B
:100640006669672E7261773A20000A00257500649A
:10065000656661756C745F6C617965723A20003F04
:10066000000A6D6F7573653A206F66660A000A6D41
:100670006F7573653A206F6E0A000A6B6579626F59
:100680006172643A206F66660A000A6B6579626F70
:100690006172643A206F6E0A000A6D617472697843
:1006A0003A206F66660A000A6D61747269783A20B2
:1006B0006F6E0A000A64656275673A206F66660AA3
:1006C000000A64656275673A206F6E0A000A0A4A7A
:1006D000756D70696E6720746F20626F6F746C6FD8
:1006E000616465722E2E2E2000433E2000436C650F
:1006F0006172696E6720454550524F4D0A0065652D
:10070000636F6E6669673A0A006261636B6C696762
:10071000687420737465703A2025750A00626163FD
:100720006B6C696768742064697361626C650A0048
:100730006261636B6C6967687420656E61626C6589
:100740000A006261636B6C6967687420746F676725
:100750006C653A2025750A006261636B6C69676895
:10076000742064656372656173653A2025750A00BB
:100770006261636B6C6967687420696E637265613E
:1007800073653A2025750A000A002530325820008A
:100790006B6579626F6172645F7265706F72743AD3
:1007A00020000A0025303258006B6579626F617253
:1007B000645F7365745F6C65643A20005B735D0011
:1007C0004B6579626F6172642073746172742E0A72
:1007D000005B575D005B535D005B525D005B445DF9
:1007E000005B435D001C034A004E0041004F0020A7
:1007F000004B006500790062006F006100720064C8
:1008000000000020034D00610070006C00650020B6
:100810000043006F006D0070007500740069006E89
:1008200000670000000403090409025B00030100E3
:10083000A0FA0904000001030101000921110100CF
:10084000012240000705810308000A090401000194
:100850000300000009211101000122320007058276
:100860000320000A0904020002030000000921110C
:100870000100012222000705830320000107050370
:100880000320000112011001000000083713176057
:100890000100010200010631FF0974A1010975156B
:1008A0000026FF009520750881020976150026FFB5
:1008B00000952075089102C005010980A1018503FA
:1008C00019012AB700150126B7009501751081009E
:1008D000C0050C0901A101850419012AA002150116
:1008E00026A002950175108100C005010906A1012D
:1008F000050719E029E71500250195087501810212
:100900009501750881010507190029FF150026FFCB
:1009100000950675088100050819012905950575DA
:10092000019102950175039101C011241FBECFEF03
:10093000DAE0DEBFCDBF04B603FE27C080916002BF
:1009400090916102A0916202B09163028730904B56
:10095000A740B04BD1F41092600210926102109245
:1009600062021092630214BE84B7877F84BF0FB601
:10097000F894A8958091600088618093600010923F
:1009800060000FBEE0E0F8E3099511E0A0E0B1E0FF
:10099000E6EDFFE402C005900D92A039B107D9F74A
:1009A00022E0A0E9B1E001C01D92A036B207E1F754
:1009B0000E94D7210C94E9270C940000FF93EF9339
:1009C000E0919001F0919101309709F00995EF9134
:1009D000FF910895FC018591803011F0EFDFFBCF8E
:1009E0000895FF27E0E230E247FF0CC0419597FFF2
:1009F00009C0EDE26095709580959095611D711D1F
:100A0000811D911D27FF02C0219530E350E2AA27E6
:100A1000660F771F881F991FAA1FA41710F0A41B29
:100A200063955A95A9F7AA3008F0A95FA05DAF9326
:100A3000F395611571058105910541F7ED3211F4CA
:100A4000EF93F395F21718F43F93F395FBCF8F9143
:100A5000B5DFFA95E1F70895E991F9918591803034
:100A600021F0853219F0AADFF9CF089520E0E8944B
:100A700055915532C1F3503311F4689455915A335E
:100A800048F4505390F3220F022E220F220F200D14
:100A9000250FF4CF0EF4219589919991533619F3CE
:100AA000533729F1533559F1BC0188279927E89428
:100AB0005C3621F48991999168945591543639F4B2
:100AC00046EF7EF077FF0DC08FEF9FEF0AC05537DE
:100AD0004AE039F0583540E121F0523642E009F061
:100AE0000895FF93EF937DDFEF91FF91B7CFFF93D1
:100AF000EF93FC0181918030B9F360DFFBCFFF936E
:100B0000EF9368DFF1CFDF93CF93CDB7DEB72596B4
:100B1000A3DFCF91DF91089581E0089581E00895EA
:100B20000C948E0508950C9492051F93CF93DF9338
:100B300000D000D01F92CDB7DEB749835A836B83B4
:100B40003091B30189819A81311114C0662359F023
:100B5000222349F00E947C1C182F682F89819A81DA
:100B60000E94251C03C00E94501C182F69817A81A5
:100B7000812F04C00E947C1C69817A810F900F90A4
:100B80000F900F900F90DF91CF911F910C949006D2
:100B9000FC01262F408151816281738184810C94F4
:100BA0009505CF93DF93EC0160E00E94C805BE017C
:100BB000DF91CF910C9493050E94AE1D811102C06C
:100BC0000E945E1E0E947B0F0C94F3080C94EF08A9
:100BD00008950E9431170E94E8052FEF84E39CE0FE
:100BE000215080409040E1F700C000000C948C1F21
:100BF0000F931F93CF93DF93EC0161E00E94C80530
:100C00008C01BE010E949005882309F449C0BE01F1
:100C1000C8010E94750E882309F442C0BE01C801B4
:100C20000E94FE0F8823E1F1BE01C8010E9450100E
:100C30008823B1F1BE01C8010E947B11882381F194
:100C40008A81882331F101308CE5180751F00F3D7E
:100C50008CE51807D9F001151C45D9F40E94E90567
:100C60001FC080912902C82FC095C170C0FB80F9B8
:100C700080932902CC2329F086E891E00E94EA04BF
:100C80000FC084E791E00E94EA040BC00E945E1E40
:100C900007C0CE01DF91CF911F910F910C948C056D
:100CA000C0E08C2FDF91CF911F910F910895829515
:100CB000982F937344E0949F900111248C7C869527
:100CC0008695282B822F8575880F2A7A2695822B68
:100CD0000895CF93DF93D92F0E945706C82F8D2FE9
:100CE0000E9457062C2F30E0322F2227A901482BD3
:100CF000CA01DF91CF91089508950C947C0681E09C
:100D000008950C947F06CF93C82F0E947D068C2FE8
:100D10000E948106CF91089580E090E008950895A3
:100D20002CE3829FC0011124FC012CE0729FE00D96
:100D3000F11D1124E60FF11DEE0FFF1FE450FF4FD0
:100D4000859194910895880F991FFC01E956FE4FF3
:100D5000859194910895CF93DF930E9490060E940D
:100D6000BD07EC018115904508F043C0C11580E432
:100D7000D80708F0CBC0C03ED10528F5C03CD1054E
:100D800008F0B3C0C83AD10578F4C53AD10508F0E7
:100D9000A4C0C130D10509F4ECC008F4E8C0C430E7
:100DA000D10508F0E6C0E3C0CF3BD10508F0DFC0B5
:100DB000C85AD0E0CC0FDD1FC35FDE4F0990D88149
:100DC000C02DD464D6C0C11590E2D90750F4C11526
:100DD00021E0D20708F0CDC0C83ED10508F4C9C053
:100DE000C6C0C11580E3D80708F086C0CE019F7049
:100DF0007FC0C11595E5D90708F043C0C11524E5AA
:100E0000D20708F09AC0C11582E5D80708F5C115C8
:100E100091E5D90708F07DC0CE0174E096958795DD
:100E20007A95E1F783709C2F937021E030E002C047
:100E3000220F331F9A95E2F73C68382BCF70C69586
:100E4000C69580E2C89FE0011124C22BD32B91C02C
:100E50009E01237033278C2F86958695C115D34527
:100E600008F05CC0C1E0D0E002C0CC0FDD1F2A95C5
:100E7000E2F720E2829FC0011124C82BD92BDC6845
:100E800078C0C11529E5D207A0F4C11588E5D807B7
:100E900008F058C0C11596E5D90708F068C08C2F36
:100EA0000E9451088F71C82FD0E0DC2FCC27D06270
:100EB00060C0C1152AE5D20708F449C0CE0190569A
:100EC0008115904208F053C08D2F8F710E945108F8
:100ED000DD27D0628F71D82B4CC0C55AD0E0C55CDD
:100EE000DE4FC881D0E0D06444C0CE01805C91095F
:100EF0000E94A306EC013DC0CE019927D3FF03C099
:100F0000EC01D86C36C0EC01D06C33C0DF70D06A15
:100F100030C0DC2FCC27C16FD06A2BC0C1E0D0E03D
:100F200002C0CC0FDD1F2A95E2F720E2829FC001AC
:100F30001124C82BD92BDA681CC0DC2FCC27C46F36
:100F4000D06A17C0DC2FCC27C06FD06A12C08C2F9C
:100F50008F700E94510894E0D695C7959A95E1F755
:100F6000CF70D0E0DC2FCC27D069C82B02C0C0E006
:100F7000D0E0CE01DF91CF9108958238910569F1DB
:100F8000B0F48133910509F46DC048F489329105BC
:100F900009F463C08A32910509F469C00895853364
:100FA000910509F455C089339105B9F00895833E40
:100FB000910569F138F4803E9105B1F0823E9105CA
:100FC00009F10895863E9105A9F1873E9105B9F191
:100FD000843E910509F064C023C02091510220FD98
:100FE0004FC021FD4DC008958091510280FD44C045
:100FF0008091520280FF44C08091510284FD42C022
:1010000083EE4DC08091510282FF38C0F5CF8091B0
:10101000510282FD33C08091520280FD31C0ECCF7D
:101020008091520281FF32C08091510284FD2AC01A
:1010300087EE35C08091510283FF26C0F5CF8091A5
:10104000510283FD21C08091520281FD1FC0ECCF6F
:101050008091510285FD1CC01DC08091510285FD0B
:1010600019C016C08091510286FD16C017C080912C
:10107000510286FD13C010C089E311C082EE0FC07B
:1010800080EE0DC080E00BC086EE09C084EE07C084
:1010900089E205C085E303C08AE201C081E390E0F4
:1010A00008959091510292FF0DC0282F2871283089
:1010B00019F4877F846006C0282F2471243011F42E
:1010C0008B7F886093FF0DC0282F2871283119F479
:1010D000877E846106C0282F2471243111F48B7E11
:1010E00088612091520220FF0DC0382F38713830AE
:1010F00019F4877F816006C0382F3171313011F4C7
:101100008E7F886021FF0DC0282F2871283119F4A7
:10111000877E816106C0282F2171213111F48E7ED6
:10112000886194FD877E0895E82FF0E0EE0FFF1FA1
:10113000EE5BFD4F808191810895CF92DF92EF9217
:10114000FF920F931F93CF93DF9387EA91E00E9462
:10115000EA0482E4E82E82E0F82EC0E0D0E092EAD1
:10116000C92E91E0D92E09E911E0DF93CF93DF92E8
:10117000CF920E9483058FE991E00E94EA04F70173
:10118000819191917F010E9469069F938F931F9394
:101190000F930E94830587E991E00E94EA0421965B
:1011A0008DB79EB708960FB6F8949EBF0FBE8DBF41
:1011B000C530D105D1F6DF91CF911F910F91FF90EE
:1011C000EF90DF90CF90089580EA8A95F1F7089527
:1011D00000C008950C94E40808950C94EC080C9455
:1011E000ED080C94EC080C94F108F894E82FE295C3
:1011F000EF70F0E031A1282F2F7081E090E001C066
:10120000880F2A95EAF7982F9095932391A392A19E
:10121000892B82A3789408950F931F93CF93DF9324
:1012200086EC0E94F50880EF0E94F50885EF0E9489
:10123000F50886EF0E94F50887EF0E94F508CEE3D7
:10124000D1E00AE411E089910E94F5080C171D070E
:10125000D1F7E8E3F2E0A2E4B2E0119211921D921C
:101260001D9282E0E234F807C1F785E00E94D109BF
:10127000DF91CF911F910F910C94DC057F928F929B
:101280009F92AF92BF92CF92DF92EF92FF920F9315
:101290001F93CF93DF9308E312E08AE4E82E81E006
:1012A000F82EC0E0D0E0712CAA24A394B12C470101
:1012B000F7018081F894E82FE295EF70F0E021A12A
:1012C0008F70A50102C0440F551F8A95E2F7CA012D
:1012D000922F982B91A392A18095892382A3789431
:1012E0000E94E808EEE3F1E020E030E0C12CD12CD0
:1012F0004191A42FA295AF70B0E090968C9190E0B0
:101300004F7002C0959587954A95E2F780FD08C019
:10131000C501022E02C0880F991F0A94E2F702C08D
:1013200080E090E0C82AD92A2F5F3F4F2C3031054A
:10133000F9F65FEFE51AF50AF40180810E94F508DD
:10134000C430D10511F00E94EA08F8018081918132
:10135000C816D90621F0D182C08281E001C080E0A8
:10136000782A21960E5F1F4FC530D10509F09FCF17
:10137000272D45E062E472E088E392E00E94D20902
:101380000E94E605872DDF91CF911F910F91FF906D
:10139000EF90DF90CF90BF90AF909F908F907F9015
:1013A00008950895FF920F931F93CF93DF93F82E24
:1013B000092F162FD72FC42F222349F081E08093C5
:1013C00094010E943F1F909393018093920180911A
:1013D00094018823D9F080919201909193010E9409
:1013E000571F069798F0EF2DF02FA12FBD2F80E00B
:1013F00090E04C2F50E08417950734F421913191FF
:101400002D933D930196F7CF10929401DF91CF91E8
:101410001F910F91FF900895CF93C82F1F928F9324
:1014200084EC91E09F938F930E94830581E090E08C
:10143000A0E0B0E0BC01CD0104C0660F771F881F9B
:10144000991FCA95D2F70E94271B0F900F900F90FB
:101450000F90CF910C943117CF93DF938B3109F418
:1014600026C208F0C7C18B3009F4EAC108F0A1C157
:10147000863009F4E8C120F4853009F4F6C199C238
:10148000873009F4F9C1883009F093C28EEF96E0F5
:101490000E94EA048FE496E00E94EA040E94BD1DC7
:1014A0001F928F938CE496E09F938F930E94830505
:1014B0008AE496E00E94EA040E94B91DC82F87E3DF
:1014C00096E00E94EA041F92CF9382E396E09F93F6
:1014D0008F930E94830580E396E00E94EA0486E2EF
:1014E00096E00E94EA048C2F81701F928F9383E212
:1014F00096E09F938F930E94830581E296E00E947D
:10150000EA0487E196E00E94EA04C1FB882780F99B
:101510001F928F9384E196E09F938F930E9483059F
:1015200082E196E00E94EA0486E096E00E94EA04E6
:10153000C2FB882780F91F928F9383E096E09F93E8
:101540008F930E94830581E096E00E94EA0488EF71
:1015500095E00E94EA04C3FBCC27C0F91F92CF9309
:1015600085EF95E09F938F930E94830583EF95E02D
:101570000E94EA040E94C11DEC018FED95E00E94DB
:10158000EA04DF93CF938AED95E09F938F930E94B7
:10159000830588ED95E00E94EA048FEB95E00E94B8
:1015A000EA048C2F81701F928F938CEB95E09F93B0
:1015B0008F930E9483058DB79EB780960FB6F894DF
:1015C0009EBF0FBE8DBF8AEB95E00E94EA0483EABE
:1015D00095E00E94EA04C1FB882780F91F928F934F
:1015E00080EA95E09F938F930E9483058EE995E0B2
:1015F0000E94EA048CE895E00E94EA048D2F817035
:101600001F928F9389E895E09F938F930E948305A3
:1016100087E895E00E94EA0485E795E00E94EA04E5
:10162000D695D1701F92DF9382E795E09F938F93B9
:101630000E94830580E795E00E94EA048EE595E02C
:101640000E94EA04C2FB882780F91F928F938BE5E2
:1016500095E09F938F930E94830589E595E00E9412
:10166000EA0487E495E00E94EA04C3FB882780F936
:101670001F928F9384E495E09F938F930E9483053C
:1016800082E495E00E94EA0488E395E00E94EA047F
:10169000C4FB882780F91F928F9385E395E09F9381
:1016A0008F930E94830583E395E00E94EA0481E220
:1016B00095E00E94EA04C5FB882780F91F928F936A
:1016C0008EE195E09F938F930E9483058CE195E0D6
:1016D0000E94EA0480E095E00E94EA04C6FB8827A5
:1016E00080F91F928F938DEF94E09F938F930E94C8
:1016F00083058DB79EB780960FB6F8949EBF0FBE38
:101700008DBF8BEF94E00E94EA0483EF94E00E9487
:10171000EA04C7FBCC27C0F91F92CF9380EF94E077
:101720009F938F930E9483058EEE94E00E94EA04BB
:101730000E94DF1DC82F87ED94E00E94EA041F92EB
:10174000CF9382ED94E09F938F930E94830580ED69
:1017500094E00E94EA0486EC94E00E94EA048C2F54
:1017600081701F928F9383EC94E09F938F930E94DC
:10177000830581EC94E00E94EA0488EB94E00E94E7
:10178000EA04C695C695C6951F92CF9385EB94E063
:101790009F938F930E94830583EB94E00E94EA0459
:1017A0008DB79EB740960FB6F8949EBF0FBE8DBF03
:1017B00045C0803109F4A5C020F48E3009F48BC0F7
:1017C000F8C0863109F4B8C0893109F0F2C086EE5C
:1017D00092E00E94EA0481EA92E00E94EA048AE828
:1017E00092E00E94EA048DE592E00E94EA0482E31E
:1017F00092E084C08A32E1F060F4873209F4D5C007
:1018000028F48E3108F4D5C08D51D0C0893269F1E9
:10181000D0C0833448F48A3308F0C5C0853309F456
:10182000C4C0883369F0C5C0833409F4BEC0C1C0E8
:101830008DEE96E00E94EA040E945E1EC1E0BEC0EA
:1018400080E193E05BC080912902817F8E7F80934D
:10185000290285EF92E00E94EA0489EE96E00E9458
:10186000EA0481E080939501E9CF8DEC96E00E9437
:10187000EA040E94E905E2CF80912902C82FC095B1
:10188000C170C0FB80F980932902CC2329F081EC40
:1018900096E00E94EA0492C084EB96E00E94EA047B
:1018A00080912902897F877F80932902C7CF9091F9
:1018B000290291FBCC27C0F981E0C827892FC0FB02
:1018C00081F980932902CC2319F087EA96E029C098
:1018D00089E996E013C09091290292FBCC27C0F9C8
:1018E00081E0C827892FC0FB82F980932902CC238D
:1018F00019F08AE896E015C08AE796E00E94EA04AB
:101900009DCF9091290293FBCC27C0F981E0C82795
:10191000892FC0FB83F980932902CC2351F08EE6F6
:1019200096E00E94EA048091290281608093290256
:1019300045C081E696E0E2CF84E292E00E94EA04AC
:101940000E94B1111F928F938AE092E09F938F9330
:101950000E94830580910C011F928F9383EF91E089
:101960009F938F930E948305809137021F928F93DC
:1019700080EE91E09F938F930E9483050E944B1FFE
:101980009F938F937F936F9389EC91E09F938F93B5
:101990000E9483058DB79EB742960FB6F8949EBFFE
:1019A0000FBE8DBF4BCF895301C080E00E940C0A4F
:1019B00045CF8FE596E00E94EA04C0E08C2FDF91CE
:1019C000CF91089580E008950C94E20CCF93C82F36
:1019D00080919501882319F0813031F038C00E9440
:1019E000FD1C8232B1F504C00E94FD1C823261F4FC
:1019F0008C2F0E94E40C811104C08C2F0E942C0AB1
:101A000024C081E090E021C08C2F0E94E20C811163
:101A10001BC0C43189F018F4CB3029F010C0C93292
:101A200059F0C83361F485EF92E00E94EA0480EC3B
:101A300091E00E94EA0408C0109295010CC08EEB60
:101A400091E00E94EA0407C081E0817006C0109214
:101A5000950180E002C080E0F8CFCF9108950E9408
:101A6000AE1D811102C00E945E1E0E94DF1D809388
:101A70004C02282F26952695269530E024303105F6
:101A800024F08770886180934C0280914C0280FF23
:101A900004C086958695869501C080E00C94FB0E67
:101AA00020914C02822F869586958695482F50E08E
:101AB0004330510554F48F5F982F990F990F990F68
:101AC000822F8770892B80934C0280914C02816019
:101AD00080934C020E94E31D8091290280FF11C077
:101AE00080914C028695869586951F928F9380E70C
:101AF00097E09F938F930E9483050F900F900F9014
:101B00000F9080914C028695869586950C94FB0EDD
:101B100080914C02982F969596959695A1F0915E9E
:101B2000990F990F990F8770892B80934C02887FAA
:101B300091E009F490E080914C0290FB80F9809351
:101B40004C020E94E31D8091290280FF11C0809108
:101B50004C028695869586951F928F9388E597E02F
:101B60009F938F930E9483050F900F900F900F907B
:101B700080914C028695869586950C94FB0E8091FB
:101B80004C0280FD1FC0816080934C02813019F4AB
:101B900089E080934C0280914C020E94E31D809169
:101BA000290280FF08C080E397E09F938F930E94F3
:101BB00083050F900F9080914C02869586958695AF
:101BC0000C94FB0E089580914C0280FF14C08E7F10
:101BD00080934C020E94E31D8091290280FF08C07F
:101BE0008DE197E09F938F930E9483050F900F9054
:101BF00080E00C94FB0E0895CF93C0914C02C1700D
:101C00008091290280FF0CC01F92CF9382E497E05D
:101C10009F938F930E9483050F900F900F900F90CA
:101C2000CC2319F0CF910C94E30DCF910C94BF0D00
:101C300090914C02892F8695869586958F5F8F713E
:101C40009770843038F4880F880F880F892B809321
:101C50004C0202C090934C0280914C02887F91E02C
:101C600009F490E080914C0290FB80F980934C0243
:101C70000E94E31D8091290280FF11C080914C02D7
:101C80008695869586951F928F9389E097E09F931E
:101C90008F930E9483050F900F900F900F9080916B
:101CA0004C028695869586950C94FB0E843008F040
:101CB00083E090914C029770282F220F220F220F61
:101CC000922B90934C02987F21E009F420E09091B0
:101CD0004C0220FB90F990934C020C94FB0E0E9456
:101CE000560E80914C020C94E31D9C01FB018281F5
:101CF000882349F12E3BFCE53F07C9F040F42C3B1B
:101D0000ECE53E0769F02D3B3C4561F00895203C31
:101D10009CE5390791F070F0213C3C4589F008952D
:101D200083E001C080E00E946F0E80E008950E9471
:101D3000880DFBCF0E94500DF8CF0E94FC0DF5CF0F
:101D40000E94180EF2CF81E00895509A5898089595
:101D5000589A0895589808951F920F920FB60F92AF
:101D600011242F933F934F935F936F937F938F93A0
:101D70009F93AF93BF93EF93FF930E94AA0EFF919F
:101D8000EF91BF91AF919F918F917F916F915F91F3
:101D90004F913F912F910F900FBE0F901F9018956C
:101DA0001F920F920FB60F9211242F933F934F93D0
:101DB0005F936F937F938F939F93AF93BF93EF93B3
:101DC000FF9380918800909189008130914010F0BC
:101DD0000E94A80EFF91EF91BF91AF919F918F91BB
:101DE0007F916F915F914F913F912F910F900FBE17
:101DF0000F901F901895CF92DF92EF92FF92CF93A2
:101E0000C82F8430A8F4811114C08091880090916B
:101E10008900892B51F080916F008D7F80936F0036
:101E200080916F008E7F80936F000E94AA0E11C078
:101E3000C3E08091880090918900892B51F48091B2
:101E40006F00826080936F0080916F00816080934B
:101E50006F002C2F30E0AFEFBFEF0E948D2723E003
:101E600030E040E050E00E946527B42FA32F922F6E
:101E70008827492F5A2F6B2F7727CA014C3724E127
:101E8000520728F469E070E00E94512729C0DB0165
:101E9000CA018A50974DAF4FBF4F6627782F892FC1
:101EA0009A2F25EF38E241E050E00E946527690152
:101EB0007A01CA01B9010E9435279B01AC01C70113
:101EC000B6010E943527BB27A92F982F872F00978F
:101ED00021E0A207B10511F0BC0102C06FEF7FEF56
:101EE0007093890060938800CF91FF90EF90DF900E
:101EF000CF90089508950E94A50E82E080938000FF
:101F000089E1809381008FEF9FEF9093870080930A
:101F100086000C942F0D0F931F93CF93DF93C42F44
:101F2000D22FFC0182818823C9F0409398010E943E
:101F30003F1F909397018093960180E28C0F883029
:101F400008F057C0C77081E001C0880FCA95EAF752
:101F5000DF91CF911F910F910C94B3148091980150
:101F6000481330C080919601909197010E94571FAD
:101F7000883C910538F510E21D0FCD17B9F080E2CD
:101F80008C0F883040F4C77081E001C0880FCA957B
:101F9000EAF70E94BA14183028F581E09D2F977057
:101FA00001C0880F9A95EAF70E94B314802F0E940F
:101FB000AA141830F0F4D77081E001C0880FDA95C8
:101FC000EAF70AC080E28C0F883098F4C77081E08D
:101FD00001C0880FCA95EAF7DF91CF911F910F9149
:101FE0000C94BA14802FDF91CF911F910F910C9414
:101FF000AA14DF91CF911F910F9108950F939C0127
:10200000CB01243F4CE5340731F188F4293DFCE550
:102010003F07D9F02A3D4CE5340779F1283D3C458E
:10202000A9F506E221EE41EE68ED7CE52BC0263FE6
:10203000FCE53F07E1F0A8F0273F3C4539F507E212
:1020400025EE46EE67EF7CE51DC007E225EE45EE86
:1020500069ED7CE517C006E221EE40EE64EF7CE519
:1020600011C007E225EE44EE65EF7CE50BC006E209
:1020700021EE42EE66EF7CE505C008E221E045EE88
:102080006AED7CE50E948B0F80E008C0FC01828134
:10209000882319F01092980101C081E00F910895F2
:1020A000CF93DF93EC01FB018281882309F41FC1E8
:1020B000C230FCE5DF0708F41BC1C6319CE5D90737
:1020C00038F09E012B5F3C452930310508F010C1E6
:1020D0000E94C11D9093520280935102C031ECE5E1
:1020E000DE0709F4C3C008F041C0C8308CE5D8074A
:1020F00009F49AC0F0F4C430ECE5DE0709F487C0B7
:1021000068F4C2308CE5D80709F477C0C330DC45E9
:1021100009F0E3C080915102826076C0C630ECE5E0
:10212000DE0709F46EC008F07BC080915102886020
:102130006BC0CC308CE5D80709F485C068F4CA3090
:10214000ECE5DE0709F474C008F079C00E9431178D
:1021500080915102806858C0CE308CE5D80709F4D0
:1021600076C008F07FC0809151028BC0CC3FECE577
:10217000DE0709F44FC018F5C3318CE5D80709F420
:102180007DC078F4C131ECE5DE0709F473C0C231DB
:10219000DC4509F0A2C00E943117809151028F776F
:1021A00033C0C5318CE5D80709F472C008F486C085
:1021B000CB3FDC4509F091C0809152023EC0C11571
:1021C000FDE5DF0709F45FC058F4CE3F9CE5D90771
:1021D00009F444C008F43FC08091520282602DC0CF
:1021E000C230FDE5DF0709F475C008F45DC0C330F7
:1021F000DD4509F072C080E06EC0809151028160BF
:1022000003C08091510280618093510266C0809129
:10221000510211C0809152028260809352025DC0CF
:10222000809151028062F0CF809151028064ECCFA6
:102230008091510288608460E7CF8160EECF809109
:1022400051028E7FE1CF809151028D7FDDCF809151
:102250005102877FD9CF8091520218C080915202DB
:102260008D7FDBCF809151028F7ECECF8091510246
:102270008F7DCACF809151028F7BC6CF8091510252
:10228000877F8B7FC1CF809152028D7F8E7FC5CF9C
:102290008091510282FB222720F991E0922790FB46
:1022A00082F990FB83F9B0CF80915202982F9095DC
:1022B00091708E7F892B90FB81F9AFCF0E943117EF
:1022C0008091510287FB222720F991E0922790FB11
:1022D00087F99ACF81E00E94601E8091510290910F
:1022E00052020E94D21D0E94311780E001C081E09D
:1022F000DF91CF910895CF93DF9386319C4541F5CF
:10230000EB010E94FD1C982F8A81209100013091E1
:102310000101882379F09A7A81E009F480E08093C2
:102320009901911102C069E201C065E3C9010E94EF
:10233000A71E0AC080919901811102C069E201C003
:1023400065E3C9010E94A91E0E944B1D80E001C0E7
:1023500081E0DF91CF91089590939F0180939E013A
:102360000895E0919E01F0919F01309721F0019036
:10237000F081E02D099480E00895EF92FF920F9391
:102380001F93CF93DF93E0919E01F0919F013097CF
:10239000B1F18C010280F381E02D09958091290231
:1023A00082FF2DC080FF04C080E997E00E94EA040C
:1023B000E80118E08AE8E82E87E0F82E80912902EB
:1023C00080FF0BC088811F928F93FF92EF920E9433
:1023D00083050F900F900F900F90115021961111BF
:1023E000EDCF8091290280FF0AC088E897E0DF9155
:1023F000CF911F910F91FF90EF900C94EA04DF9121
:10240000CF911F910F91FF90EF90089520919C0123
:1024100030919D012817390771F090939D018093A9
:102420009C01E0919E01F0919F01309721F0068080
:10243000F781E02D0994089520919A0130919B0134
:102440002817390771F090939B0180939A01E091CE
:102450009E01F0919F01309721F00084F185E02DDD
:10246000099408950E944B1F6093AF017093B001CF
:102470008093B1019093B2016093AB017093AC0172
:102480008093AD019093AE01089585B7806885BFB4
:1024900085B7806885BF089581E008950C944C123B
:1024A00008950C9450120C9450120C9453120C94E6
:1024B00050120C9457120C9450120E94451284E74B
:1024C00091E20E94B01F0E945B120C9459120E946C
:1024D000361F0E940C090E94B51F0E942F0D0C94FC
:1024E0005512CF93C82F8091290282FF1EC080FF12
:1024F00004C089EA97E00E94EA048091290280FFE3
:102500000CC01F92CF9384EA97E09F938F930E9411
:1025100083050F900F900F900F908091290280FFFC
:1025200004C082EA97E00E94EA048C2FCF910C94B9
:1025300083066F927F928F929F92AF92BF92CF92BB
:10254000DF92EF92FF920F931F93CF93DF93CDB75C
:10255000DEB72A970FB6F894DEBF0FBECDBF0E943C
:1025600051120E9450120E943E0981110E943212A3
:1025700031EA832E31E0932E00E010E0C02E802F50
:102580000E9494085C01F401619071904F016826EB
:10259000792661147104B1F40F5F1F4F05301105E6
:1025A00069F78FEF89838A831B820E943F1F8160B6
:1025B000782F9D838C8349815A816B818D810E9404
:1025C00053133AC08091290281FD0E949D08D12CAD
:1025D000EE24E394F12CC3018E219F21892B29F154
:1025E0000E944E128823A9F0DE82CF82AE20BF2047
:1025F00081E0AB2809F480E088870E943F1F81605A
:10260000782F9A8789874E815F8168858A850E94A5
:102610005313000F111FF801EF55FE4F8081918178
:10262000E826F926F182E08207C0D394EE0CFF1C65
:10263000FCE0DF12D0CFB0CF0E947A0F0E94B11120
:102640009091A0018917D1F00E94B1118093A0014F
:102650002A960FB6F894DEBF0FBECDBFDF91CF91A3
:102660001F910F91FF90EF90DF90CF90BF90AF90B0
:102670009F908F907F906F900C9471122A960FB656
:10268000F894DEBF0FBECDBFDF91CF911F910F91A8
:10269000FF90EF90DF90CF90BF90AF909F908F9082
:1026A0007F906F900895DF92EF92FF920F931F93A8
:1026B000CF93DF93CDB7DEB72B970FB6F894DEBF7D
:1026C0000FBECDBFF42E052F162FE72ED82E611189
:1026D0000E941D1DFE01319686E0DF011D928A9544
:1026E000E9F77E2D4F2D502F612F8D2D9E810E9459
:1026F000EA192B960FB6F894DEBF0FBECDBFDF915F
:10270000CF911F910F91FF90EF90DF900895FC0102
:10271000808191810E94BE1C0895CF93882309F483
:10272000A1C0C82F8238C1F40E94B11181FD9AC0A6
:1027300069E380910001909101010E94A71E0E940F
:102740004B1D2FEF81EE94E0215080409040E1F747
:1027500000C0000069E319C0833801F50E94B1117F
:1027600080FD80C063E580910001909101010E948D
:10277000A71E0E944B1D2FEF81EE94E02150804058
:102780009040E1F700C0000063E580910001909166
:1027900001010E94A91ECF910C944B1D8438C1F4F5
:1027A0000E94B11182FD5EC067E4809100019091AA
:1027B00001010E94A71E0E944B1D2FEF81EE94E0A5
:1027C000215080409040E1F700C0000067E4DDCF79
:1027D0008CEF8C0F813AF8F48C2F0E94E60C81115B
:1027E00041C06C2F80910001909101010E94711EE7
:1027F000882349F06C2F80910001909101010E9483
:10280000A91E0E944B1D6C2F809100019091010127
:102810000E94A71EC0CF80E28C0F883048F4C7709A
:1028200081E001C0880FCA95EAF70E94001DB3CF6E
:10283000EBE5EC0FE33040F4F0E0E358FE4F80812D
:1028400090E0CF910C940612C85AC73158F4EC2F7F
:10285000F0E0EE0FFF1FE15BFE4F80819181CF9191
:102860000C941C12CF910895882309F45BC0682F43
:10287000823879F40E94B11181FF54C069E38091DC
:102880000001909101010E94A71E0E944B1D69E367
:1028900010C08338B1F40E94B11180FF43C063E5DA
:1028A00080910001909101010E94A71E0E944B1D82
:1028B00063E580910001909101010E94A91E0C9492
:1028C0004B1D843879F40E94B11182FF2BC067E45C
:1028D00080910001909101010E94A71E0E944B1D52
:1028E00067E4E7CF8CEF860F813A18F380E2860F1A
:1028F000883048F4677081E001C0880F6A95EAF774
:102900000E94061DDCCF8BE5860F833020F480E02B
:1029100090E00C940612685A673120F480E090E051
:102920000C941C1208951F93CF93DF93182FEB0183
:102930000E948D13209741F08FE99FE00197F1F7F6
:1029400000C000002197F6CF812FDF91CF911F911A
:102950000C943414893319F060E070E002C060E533
:1029600070E00C949314882321F00E94001D0C94B5
:102970004B1D0895882321F00E94061D0C944B1DC9
:102980000895CF92DF92EF92FF920F931F93CF9310
:10299000DF937C01062FC72FFC01D2811581129590
:1029A0001F700E94F61C882399F0DD2389F08C2F7C
:1029B000807F803421F080E2800F883048F082E010
:1029C0000E94951D0E94F61C91E0D82ED92601C0C8
:1029D000D12CCC2EC2948FE0C8228C2D90E0FC012B
:1029E000EA5AFF4F0C9487278C2F807FCF70882363
:1029F00011F0C295C07FDD2399F0CC2309F482C188
:102A000080E2800F883010F0011104C08C2F0E94EA
:102A1000001D03C08C2F0E94101D0E944B1D72C10F
:102A2000802F0E943414CC2309F491C180E2800FDE
:102A3000883010F0011104C08C2F0E94061D03C0C5
:102A40008C2F0E94161D0E944B1D81C18C2F807FF0
:102A5000CF70803211F0C295C07F002319F0013091
:102A6000C9F022C0DD2371F0112341F0113031F49F
:102A70000E94301D8C2B0E94381D69C10E94301DA0
:102A80008C2B1DC0112319F0113009F460C10E9474
:102A9000411D25C0DD2321F0163008F058C10EC0BD
:102AA000153008F054C11BC0DD2361F0112331F053
:102AB000F701858180FF26C18F7085838C2F0E944E
:102AC000B31445C1112359F0093309F02CC1FFEFAC
:102AD00027EE83E0F15020408040E1F722C18C2FA7
:102AE0000E94BA1434C18C2F86958695837019F094
:102AF000813061F02CC1DD2321F0802F9C2F937059
:102B000002C080E090E00E94061229C1DD2321F07E
:102B1000802F9C2F937002C080E090E00E941C12D6
:102B20001EC18C2F837009F045C0D11114C1402FF4
:102B3000429546954770440F440F602F6F70862F63
:102B400090E0A0E0B0E0042E04C0880F991FAA1FF7
:102B5000BB1F0A94D2F704FF10C00FE010E020E082
:102B600030E004C0000F111F221F331F4A95D2F717
:102B7000009510952095309503C000E010E0980175
:102B8000C695C695C370BC01CD01602B712B822BFD
:102B9000932BC23049F058F4C13019F00E943B1B0E
:102BA000DAC00E94291BD7C00E944D1BD4C00E94CE
:102BB000271BD1C0DD2319F08C2F817001C08695B1
:102BC000882309F4C8C0402F429546954770440FAA
:102BD000440F602F6F70862F90E0A0E0B0E0042ECD
:102BE00004C0880F991FAA1FBB1F0A94D2F704FFC5
:102BF00010C00FE010E020E030E004C0000F111F13
:102C0000221F331F4A95D2F70095109520953095D5
:102C100003C000E010E09801C695C695C370BC01E2
:102C2000CD01602B712B822B932BC23049F058F4CD
:102C3000C13019F00E94001C8EC00E94EE1B8BC098
:102C40000E94121C88C00E94611B85C0CF70DD23CA
:102C500039F08C2F0E94871B802F0E94B3147BC0F9
:102C6000802F0E94BA148C2F0E94A81B74C0023FB0
:102C700001F128F4003F41F0013FA1F03FC0033FC4
:102C8000F9F0043F39F13AC0DD2341F0153008F086
:102C90005EC08C2F8F710E94CD1B59C0163008F07A
:102CA00056C0F7CFDD2339F08C2F8F710E94871B20
:102CB0004EC0DD23C9F38C2F8F710E94A81B47C023
:102CC000DD2329F08C2F8F710E94721B40C00E945F
:102CD0006D1B3DC0DD2349F0CF718C2F0E94871BF7
:102CE00063E08C2F0E94801D32C081E00E94951D00
:102CF000123068F182E00E94951D29C0DD2331F079
:102D0000112391F2802F0E948D1321C0112399F27B
:102D1000093349F49FEFE7EEF3E09150E040F040D3
:102D2000E1F700C00000802F0E94341410C04C2F27
:102D30004F70602FC7010E948C060E94981A0FC026
:102D40004C2F4F70602FC7010E948F0608C088EF7C
:102D50008C0D843020F40E94B1110E948306DD2086
:102D6000C9F00E94F21C80FD15C0F70112820E947A
:102D7000EC1C0E94871BC7010E94EB160E94EC1CF2
:102D8000DF91CF911F910F91FF90EF90DF90CF9047
:102D90000C94A81BDF91CF911F910F91FF90EF90A2
:102DA000DF90CF9008950F931F93CF93DF93EC01A3
:102DB000688179818A810E94C91C8C010E94241C2F
:102DC0000E94151BB801CE010E94C114DF91CF9162
:102DD0001F910F910895CF93DF93EC019881898122
:102DE0002B813C81232B31F08F3F31F481E09F3FD9
:102DF00019F403C081E001C080E080FD19C0CE015C
:102E00000E94F80581110CC00E94F61C882381F0F5
:102E10008A81882369F082E0DF91CF910C94951D1F
:102E2000CE010E94D316CE01DF91CF910C94D10533
:102E3000DF91CF91089580E090E00E94061280E03B
:102E400090E00E941C120E941D1D0E942D1D0C94DA
:102E50004B1D80910001909101010E94AB1E0C94CA
:102E60001B170E940D1D0C942917E92FE295EF7096
:102E70004E2F50E0FA013297EE30F105B0F4EA59E6
:102E8000FF4F0C948727803F91F018F4883E68F438
:102E90000EC0843F51F40BC0883E48F0813F29F4B6
:102EA00006C093FB882780F9089580E0089581E0AB
:102EB00008950E94BE1C0E9435170895CF93DF939A
:102EC00000D000D01F92CDB7DEB70F900F900F90BB
:102ED0000F900F90DF91CF910895CF93DF9300D0A3
:102EE00000D000D0CDB7DEB726960FB6F894DEBF7F
:102EF0000FBECDBFDF91CF9108951F93CF93DF9386
:102F0000C091B40116E08091B501C81799F0D0E0E6
:102F10001C9FF0011D9FF00D1124EA54FE4F4081CB
:102F2000518162817381848195810E946D17219600
:102F3000C770E9CFDF91CF911F9108954091E601CD
:102F40005091E7016091E8017091E9018091EA01F7
:102F50009091EB010C946D170F931F93CF93DF9318
:102F60008091EB0182958F7009F05DC08091E8013E
:102F7000882309F458C08091B4011091B501609183
:102F8000E6017091E701C091E901D091EA0191E079
:102F90006F3F09F090E0292F06E0811709F443C044
:102FA000209721F07F3F21F030E003C031E001C0E5
:102FB000322F90E030FD34C0089FF001099FF00DE2
:102FC0001124DF01AA54BE4F11963C91119737137B
:102FD00027C03C91361324C012963C9112973111B0
:102FE0001FC013964D915C9114974C1B5D0B483C90
:102FF0005105B0F48091EB018F7080618093EB01FB
:10300000E554FE4F80818F708061808386EE91E071
:103010000E94EB16DF91CF911F910F910C947D17B9
:1030200001968770BACFDF91CF911F910F910895CC
:103030009F92AF92BF92CF92DF92EF92FF920F9347
:103040001F93CF93DF93CDB7DEB761970FB6F89498
:10305000DEBF0FBECDBF8C0185E0F801DE011D96FD
:1030600001900D928A95E1F7F80140815181E2804B
:103070009091E6016091E7012091E9013091EA0128
:103080002115310531F06F3F31F481E09F3F19F494
:1030900003C081E001C080E0F82FF1709F2E80FD19
:1030A00046C1F801A380B48086EEC82E81E0D82EF8
:1030B000F090E801F501E21BF30BFF2009F4DFC0FB
:1030C0008091EB01E83CF10508F09BC0282F207FA0
:1030D00009F052C0561313C0491311C0FE2CE11061
:1030E0000EC08F7080618093EB010E949E17C60115
:1030F0000E94EB168091EB01F801858358C1AB2843
:1031000031F05F3F31F481E04F3F19F403C081E0BB
:1031100001C080E080FD03C081E08E2502C080E018
:1031200090E0F82FF170FF2E80FF1CC08091B40159
:103130002091B50136E0821709F417C190E0389F5D
:10314000F001399FF00D1124EA54FE4F61815613AE
:1031500006C06081461303C06281E61203C0019677
:103160008770E9CFFE2CEE2009F421C18091EB019C
:1031700081608093EB015AC0561306C0491304C006
:10318000E11002C0F8019FC04D875E878D859E8546
:103190000E945917882379F1EE2069F12091EB0103
:1031A000822F82958F7090E0029774F08091E601F3
:1031B0009091E70198878F831986BB86AA862C8712
:1031C000CE0107960E94EB1686E0F801A6EEB1E06C
:1031D00001900D928A95E1F70E94AC170E949E170C
:1031E0000DC0561729F14D875E878D859E850E94FB
:1031F000591781112CC0C8010E94EB16FF24F394CB
:10320000D6C0282F207F69F77A2DB98AA88A6E2D1B
:1032100089890E945E1786EE91E00E94EB1686E097
:10322000F60111928A95E9F70E949E17F12CBFC012
:103230004913D9CFE110D7CFF8018583C8010E9487
:10324000EB1686E0F60111928A95E9F7B0C0EE2000
:1032500091F22091EB01822F82958F7090E002977E
:103260000CF4B2CF8091E6019091E7019A838983B3
:103270001B82BD82AC822E83CE010196A3CFE83C97
:10328000F10508F047C0FE2CEE2009F4B4CF561328
:1032900030C049132EC02091EB0120FD21C0822FA8
:1032A00082958F70482F50E041155105C9F0F80103
:1032B00025834F30510541F08F5F982F9295907F75
:1032C000822F8F70892B8583C8010E94EB1686E0C0
:1032D000F801A6EEB1E001900D928A95E1F742C0A7
:1032E00086E0F801A6EEB1E001900D928A95E1F733
:1032F0005EC04D875E878D859E850E94591781111E
:1033000063CF8091EB0181608093EB01C8010E9443
:10331000EB164DC07A2DB98AA88A6E2D89890E9434
:103320005E1786E0F60111928A95E9F71BC0EE2040
:1033300009F461CF4D875E878D859E850E94591760
:10334000F82E882309F457CF86E0F801A6EEB1E005
:1033500001900D928A95E1F786EE91E00E94871325
:103360000E94AC170E949E1722C04D875E878D85F4
:103370009E850E94BE1C292F22952F70223028F492
:103380009F7039F0811105C00BC0243028F49F7064
:1033900049F4805E883020F0C8010E94EB169F2C13
:1033A000F92C05C0F8019581907F99F7F9CF8F2D01
:1033B00061960FB6F894DEBF0FBECDBFDF91CF91FF
:1033C0001F910F91FF90EF90DF90CF90BF90AF9043
:1033D0009F9008951F93CF93DF93CDB7DEB72C97BF
:1033E0000FB6F894DEBF0FBECDBF4F8358876987F5
:1033F0007A878B879C87CE0107960E9418188823AE
:10340000D1F09F8188852A853B85232B31F08F3F22
:1034100031F481E09F3F19F403C081E001C080E0F6
:1034200080FD47C04F81588569857A858B859C854D
:103430000E946D173EC086E0FE013796DE011196B0
:1034400001900D928A95E1F7FF81E8856A857B8579
:103450006115710531F0EF3F31F481E0FF3F19F460
:1034600003C081E001C080E080FD23C02091B50150
:1034700030E0C9010196877099274091B40150E06E
:1034800084179507F1F1F983EA837D836C8396E0D5
:10349000929FD001939FB00D1124AA54BE4FFE01FC
:1034A000319601900D929A95E1F78093B5010E94B3
:1034B0007D1716E08091B4019091B501891771F1E3
:1034C000189FC00111248A549E4F0E941818882307
:1034D00029F1E091B4011E9FF0011124EA54FE4F3E
:1034E0004081518162817381848195810E946D1731
:1034F0008091B40190E00196877099278093B40180
:10350000D9CF0E9431171092B5011092B401E6EEA6
:10351000F1E086E0DF011D928A95E9F72C960FB65F
:10352000F894DEBF0FBECDBFDF91CF911F910895FC
:10353000EF92FF920F931F93CF93DF938C01892B10
:1035400009F46CC0F12CEE24E394E8012196F80113
:103550008491843740F4843008F051C0813081F088
:10356000823019F15BC0853709F444C0A8F19CE7AB
:10357000980F903708F052C08F770E94341441C0E2
:103580000E5F1F4FFE01849190E2980F983050F427
:103590008770FE2D01C0FF0F8A95EAF78F2F0E94DA
:1035A000201D14C00E948D132DC00E5F1F4FFE0101
:1035B000849190E2980F983060F48770FE2D01C0DE
:1035C000FF0F8A95EAF78F2F0E94261D0E944B1D40
:1035D00019C00E94341416C00E5F1F4FFE01C49123
:1035E000CC2381F08FE99FE00197F1F700C0000044
:1035F000C150F6CF0E5F1F4FFE01F49003C00E9432
:103600008D138E018F2D882309F49FCFEFE9FFE002
:103610003197F1F700C000008150F5CFDF91CF91D5
:103620001F910F91FF90EF900895089508950C94C5
:10363000161B0C94171B0E94191B609318027093A1
:10364000190280931A0290931B020C941B170C947E
:103650001B1B0F931F9300911802109119022091C8
:103660001A0230911B02602B712B822B932B1F911E
:103670000F910C941B1B0F931F9300911802109134
:10368000190220911A0230911B02602371238223B8
:1036900093231F910F910C941B1B0F931F93009169
:1036A00018021091190220911A0230911B02602712
:1036B0007127822793271F910F910C941B1B0C9449
:1036C000161B0E945F1B6093140270931502809377
:1036D0001602909317020C941B1760E070E0CB0168
:1036E0000C94611B0F931F9341E050E060E070E089
:1036F0008A019B0104C0000F111F221F331F8A95EE
:10370000D2F7C901B8011F910F910C94611B0F935F
:103710001F9341E050E060E070E004C0440F551F8B
:10372000661F771F8A95D2F7809114029091150237
:10373000A0911602B09117028A019B01082B192B48
:103740002A2B3B2BC901B8011F910F910C94611BCF
:103750000F931F9341E050E060E070E004C0440F1D
:10376000551F661F771F8A95D2F740955095609533
:1037700070958091140290911502A0911602B0915B
:1037800017028A019B01082319232A233B23C9011D
:10379000B8011F910F910C94611B0F931F9341E08F
:1037A00050E060E070E004C0440F551F661F771FB3
:1037B0008A95D2F78091140290911502A091160279
:1037C000B09117028A019B01082719272A273B2756
:1037D000C901B8011F910F910C94611B0F931F93A6
:1037E00000911402109115022091160230911702D7
:1037F000602B712B822B932B1F910F910C94611BCB
:103800000F931F930091140210911502209116023C
:103810003091170260237123822393231F910F910C
:103820000C94611B0F931F930091140210911502C9
:103830002091160230911702602771278227932763
:103840001F910F910C94611B08952CE0929F800DA5
:103850001124E82FE695E695E695877051E001C0C2
:10386000550F8A95EAF785E0E89FF0011124E451AD
:10387000FE4F20E030E070E04081CB01022E02C01C
:10388000969587950A94E2F7817081958427852320
:10389000842781932F5F3F4F2530310569F70895C5
:1038A0002CE0929F800D1124682F66956695669591
:1038B000982F977085E0689FB001112440E050E098
:1038C00080E0FB01E40FF51FE451FE4F208130E062
:1038D000092E02C0369527950A94E2F72170332706
:1038E000042E01C0220F0A94EAF7822B4F5F5F4F2C
:1038F0004530510531F70895BF92CF92DF92EF9294
:10390000FF920F931F93CF93DF938C01C09014020B
:10391000D0901502E0901602F090170280911802E4
:1039200090911902A0911A02B0911B02C82AD92ABB
:10393000EA2AFB2ACFE1D0E0D701C6010C2E04C051
:10394000B695A795979587950A94D2F780FD04C000
:10395000219790F7B12C07C0BC2EB8018C2F0E9484
:10396000AB060197A9F38B2DDF91CF911F910F919A
:10397000FF90EF90DF90CF90BF900895CF93DF93AB
:10398000EC010E947C1CBE010E94AB06DF91CF912E
:1039900008951F93CF93DF93EB019091B301992387
:1039A00021F0CB010E94BE1C13C0882349F0CB013B
:1039B0000E947C1C182F682FCE010E94251C04C079
:1039C000CB010E94501C182FBE01812F0E94AB0614
:1039D000DF91CF911F91089580911C028595859567
:1039E0008595089580911C028770089590911C021E
:1039F000977081E009F480E008958091280208958D
:103A000090912802892B80932802089580959091A7
:103A1000280289238093280208951092280208958D
:103A200090912702892B8093270208958095909189
:103A30002702892380932702089510922702089570
:103A400090912602892B809326020895809590916B
:103A50002602892380932602089510922602089553
:103A600080911D02089508950C94331D0C94341D0B
:103A700090911D02981721F080931D020C94361D21
:103A8000089580911D02882329F010921D0280E084
:103A90000C94361D0895E0910001F0910101809190
:103AA00028028083E0910001F091010190818091D2
:103AB0002702892B8083E0910001F0910101908120
:103AC00080912602892B808380911D02882381F0BA
:103AD000E0910001F09101019081892B8083809118
:103AE0000001909101010E94651E81110E94411DFB
:103AF00080910001909101010C94BD110C94331D33
:103B000098E0899F90011124262B20931C020E948B
:103B1000871B80911C028595859585950C947E1D4B
:103B200010921C0280E00C947E1D20911C02809556
:103B3000822380931C02982F977079F430E0482FED
:103B4000082E000C550B2417350739F085958595FF
:103B500085950E94A81B0C94901D089580E090E02C
:103B60000E94AF2721E08B3E9E4F09F020E0822F7C
:103B7000089582E090E00C94A72783E090E00C94F5
:103B8000A727CF9384E090E00E94A727C82F81E267
:103B900090E00E94A7272C2F30E0A901582BCA01E2
:103BA000CF910895CF93C92F682F84E090E00E94B1
:103BB000B5276C2F81E290E0CF910C94B52786E079
:103BC00090E00C94A727682F86E090E00C94B5272E
:103BD000AB01BC018FE090E00C94C727AB01BC01A6
:103BE00083E190E00C94C72760E070E0CB010C9477
:103BF000EE1D60E070E0CB010E94E81D0C94F41D06
:103C00006BEE7EEF80E090E00E94D32760E082E0E0
:103C100090E00E94B52760E083E090E00E94B52725
:103C2000109218021092190210921A0210921B029E
:103C300060E084E090E00E94B52760E081E290E0DF
:103C40000E94B52760E085E090E00E94B52760E023
:103C500086E090E00E94B5276FEF87E090E00E9439
:103C6000B52740E050E0BA0188E090E00E94C72705
:103C700060E08DE090E00E94B52740E050E0BA019E
:103C800088E190E00E94C72760E087E190E00E9411
:103C9000B52740E050E0BA018CE190E00E94C727D0
:103CA00060E080E290E00E94B52740E050E0BA0179
:103CB00088E190E00E94C7270C94F91D0C94001E27
:103CC000682F8EE090E00C94B527FC01329697E0C7
:103CD00080E0915029F021912223D9F38F5FF9CF11
:103CE0000895662349F0FC013296089621916217E7
:103CF00029F0E817F907D1F780E0089581E00895E9
:103D00009C01FC0132969FEF80E04191461789F0BB
:103D10009F3F19F4411101C0982F8F5F8630A9F79A
:103D20009F3F39F0F901E90FF11D97FDFA95628384
:103D3000089508959C012A5F3F4FFC01428146137C
:103D400001C01282019682179307B9F708950C9467
:103D5000801E0C949A1E029626E0FC0111922A9570
:103D6000E9F7089508950C94B21E0C94B21ECF93F7
:103D70000E94B51E0E943E090E94B31EC0E08C2F17
:103D80000E949408892B29F4CF5FC530C1F780E0E9
:103D900001C081E0CF9108950C94B21E0C94CC1E0A
:103DA00080915702843061F10E94CE1E80E00E9413
:103DB000FB0E80E00E94830610922A0220E488E134
:103DC00090E00FB6F894A895809360000FBE209302
:103DD000600083B7817F846083BF83B7816083BFC6
:103DE0007894889583B78E7F83BF0FB6F894A89593
:103DF00080916000886180936000109260000FBE27
:103E000008950C94B21E0E9431170E942F0D0E943B
:103E1000B1110E9483060C94011F1F920F920FB6DE
:103E20000F9211248F939F93AF93BF9380912A0297
:103E3000811113C080914D0290914E02A0914F02CA
:103E4000B09150024196A11DB11D80934D029093F7
:103E50004E02A0934F02B0935002BF91AF919F9139
:103E60008F910F900FBE0F901F90189582E084BD28
:103E700093E095BD9AEF97BD80936E0008952FB79C
:103E8000F89480914D0290914E02A0914F02B09112
:103E900050022FBF08952FB7F89460914D02709192
:103EA0004E0280914F02909150022FBF08959C01C5
:103EB0004FB7F89480914D0290914E02A0914F021D
:103EC000B09150024FBF821B930B089578941F92BC
:103ED0000F920FB60F9211248F939F93AF93BF93BE
:103EE00080914D0290914E02A0914F02B0915002EC
:103EF0000196A11DB11D80934D0290934E02A09397
:103F00004F02B0935002BF91AF919F918F910F904C
:103F10000FBE0F901F90189581E08093E00080E223
:103F20008093D8001092C9008FE19EE40197F1F7C9
:103F300000C0000087E090EBDC018093600290936A
:103F40006102A0936202B09363029CE088E10FB625
:103F5000F894A895809360000FBE90936000FFCF07
:103F6000909391018093900108950E94AE1D81115C
:103F700002C00E945E1E0E94B91D809329020E9409
:103F8000C11D90935202809351020E94BD1D682F63
:103F900070E080E090E00E94271B60911402709115
:103FA000150280911602909117020C945F1B80916C
:103FB000360208950895CF93DF9300D01F92CDB7B6
:103FC000DEB790915702943019F589837B836A8319
:103FD00082E08093E9008FEF9091E800815095FD99
:103FE00006C095ED9A95F1F700008111F5CF80910B
:103FF000E80085FF0DC040E050E063E070E0CE01D6
:1040000001960E9498228091E8008E778093E800C4
:104010000F900F900F90DF91CF910895BC0184E035
:104020000C94DB1FBC0183E00C94DB1FCF93DF9368
:1040300021E02093E9002FEF3091E800215035FD79
:1040400006C035ED3A95F1F700002111F5CF20912A
:10405000E80025FF14C0EC0140E050E068E070E0AB
:104060000E9498228091E8008E778093E80088E093
:10407000FE01AEE2B2E001900D928A95E1F7DF9188
:10408000CF91089581EE97E00E94EA048091560254
:10409000811109C00E9429240E9486248091E20097
:1040A00084608093E20008958DED97E00E94EA0419
:1040B00010925602089589ED97E00C94EA0485ED7C
:1040C00097E00C94EA0481ED97E00C94EA042091C7
:1040D0002C022F5F822F62E30E944527992319F05B
:1040E00020932C02089510922C0280912D02882397
:1040F00071F180915702843041F58091E9008F7011
:104100002091EC00922F917020FD90E8892B93E094
:104110009093E9009091EB0090FF14C09091EE0015
:1041200097FF10C09091E80095FF03C01092F10036
:10413000F9CF9091E80090FF05C09091E8009E773C
:104140009093E8008F708093E90010922D020895FB
:1041500042E061EC81E00E94A22342E261EC82E055
:104160000E94A22342E261EC83E00C94A22380919E
:104170005902833009F460C030F4813071F082302C
:1041800009F499C008958A3009F485C08B3009F488
:104190006BC0893009F0A7C020C080915802813AD5
:1041A00009F0A1C08091E800877F8093E8008091AA
:1041B0005C0290915D02892B21F468E08EE292E02E
:1041C00003C060E080E090E070E00E94E322809114
:1041D000E8008B778093E80008958091580281323F
:1041E00009F081C080915C0290915D02029708F015
:1041F0007AC08091E800877F8093E8008091E80092
:1042000082FD05C0809157028111F8CF6CC02091CA
:10421000F3008091F20090E0922B029729F48091B4
:10422000F1008B7F813021F48091F1008093360280
:104230008091E8008B7753C080915802813A09F051
:1042400052C080915C0290915D02892B09F04BC0B5
:104250008091E800877F8093E8008091E80080FFEC
:10426000FCCF80910C0136C0809158028132D9F583
:1042700080915C0290915D02892BA9F58091E80004
:10428000877F8093E8000E94D72380915A02809311
:104290000C010C94311780915802813221F58091E4
:1042A000E800877F8093E8000E94D72380915B021B
:1042B00080933702089580915802813AA1F4809149
:1042C000E800877F8093E8008091E80080FFFCCFC2
:1042D000809137028093F1008091E8008E7780937F
:1042E000E8000C94D72308959FB7F89410922D02FC
:1042F0009FBF90915702943009F057C09091E90008
:104300009F703091EC00232F217030FD20E8922B1C
:1043100023E02093E9002091EB0020FF43C020918F
:10432000EE0027FF3FC020912B02222321F0209195
:10433000E80025FF37C010922B0226E03091E800FC
:1043400035FD15C030915702343061F53091EB00E6
:1043500035FD28C0215021F481E080932B0222C03A
:10436000EFE9FFE03197F1F700C00000E7CF80935D
:10437000F1008091E80085FD0AC08091E80080FF8F
:10438000FCCF8091E8008E778093E80006C08FB75D
:10439000F89421E020932D028FBF9F709093E90045
:1043A00080E008959F709093E9008FEF089584B79F
:1043B000877F84BF0FB6F894A895809160008861CC
:1043C00080936000109260000FBE90E080E80FB60E
:1043D000F89480936100909361000FBE0E945D127B
:1043E0000E9429240E9486248091E20084608093A8
:1043F000E20078940E941A270E94671282E091E0FE
:104400000E94AC1180EC97E00E94EA048091570270
:104410008530C9F48CEB97E00E94EA048091570242
:10442000853079F40E94D01E809155028823B1F323
:104430000E94B71E882391F30E9482220E943117A6
:10444000EDCF0E94031F0E9499120E9451120E94F8
:104450005012DCCF0C942C22292F33272330310526
:10446000C9F060F42130310581F02230310509F0C6
:1044700041C08BE590E029E238E040C021323105AF
:10448000E1F02232310531F135C082E190E024E8DB
:1044900038E034C099278130910549F028F002971F
:1044A00049F5E5EEF7E005C0E5E2F8E002C0E3E03B
:1044B000F8E0849190E09F0121C063307105D0F451
:1044C000660F771FFB01E757FE4F2081318189E09E
:1044D00090E014C06330710568F4FB01EE0FFF1F1C
:1044E000ED57FE4F20813181FB01E058FE4F808166
:1044F00090E004C080E090E020E030E0FA013183F9
:104500002083089580E189BD82E189BD09B400FE60
:10451000FDCF8091D8008F7D8093D8008091E000FE
:1045200082608093E0008091E00081FDFCCF0895DF
:10453000CF92DF92EF92FF920F931F93CF93DF936F
:10454000EC018B017A010E94F623811133C0E11442
:10455000F10439F0F70180819181081B190BC80F14
:10456000D91FC12CD12C0115110519F18091E8003A
:1045700085FD16C08091E8008E778093E800E114F5
:10458000F10449F0F70180819181C80ED91ED182D2
:10459000C08285E00FC00E94F623882321F30AC061
:1045A00089918093F10001501109FFEFCF1ADF0AC2
:1045B000DACF80E0DF91CF911F910F91FF90EF90C4
:1045C000DF90CF90089520915E0230915F02261710
:1045D000370748F06115710539F42091E8002E770E
:1045E0002093E80001C0B901FC0120E061157105CC
:1045F00079F1809157028823F1F18530F1F18091B2
:10460000E80083FD3CC08091E80082FD2EC08091CF
:10461000E80080FFEBCF2091F3008091F20090E062
:10462000922B6115710551F08830910538F4219174
:104630002093F100615071090196F3CF21E00897B2
:1046400009F020E08091E8008E778093E800CECFDB
:104650002111CFCF0AC080915702882361F08530A5
:1046600061F08091E80083FD0AC08091E80082FF3C
:10467000F2CF80E0089582E0089583E0089581E01C
:10468000089520915E0230915F022617370748F0A7
:104690006115710539F42091E8002E772093E80028
:1046A00001C0B901FC0120E06115710591F1809113
:1046B0005702882309F440C0853009F43FC0809137
:1046C000E80083FD3DC08091E80082FD2FC080910D
:1046D000E80080FFE9CF2091F3008091F20090E0A4
:1046E000922B6115710559F08830910540F42491A1
:1046F0002093F1003196615071090196F2CF21E0CB
:10470000089709F020E08091E8008E778093E80018
:10471000CBCF2111CCCF0AC080915702882361F002
:10472000853061F08091E80083FD0AC08091E80047
:1047300082FFF2CF80E0089582E0089583E008953B
:1047400081E00895982F973068F59093E9009817C5
:1047500039F07091EC002091ED005091F00003C011
:10476000242F762F50E021FD02C09F5FECCF3091C7
:10477000EB003E7F3093EB003091ED003D7F3093B6
:10478000ED003091EB0031603093EB007093EC0062
:104790002093ED005093F0002091EE0027FDE5CF2F
:1047A00080E008958F708093E90081E00895809102
:1047B000580287FF11C08091E80082FD05C08091FA
:1047C00057028111F8CF11C08091E8008B770BC0A0
:1047D00080915702882349F08091E80080FFF8CF4C
:1047E0008091E8008E778093E80008952091E4009E
:1047F0003091E50095E64091EC00842F817040FFF8
:1048000023C08091E80080FD1DC08091570288235D
:1048100099F0853099F08091EB0085FD11C04091B1
:10482000E4005091E5002417350729F3915011F069
:104830009A01E1CF84E0089582E0089583E008952D
:1048400081E0089580E008954091E80042FFDDCFC7
:1048500008950E9497240E949F24E0EEF0E080815A
:1048600081608083E8EDF0E080818F77808319BCE0
:10487000A7EDB0E08C918E7F8C9380818F7E8083BA
:104880001092560208950F931F93CF93DF930E94C7
:1048900097240E949F24C8EDD0E088818F77888379
:1048A00088818068888388818F7D888319BC109275
:1048B000570210925302109255021092540200EEC9
:1048C00010E0F80180818B7F8083888181608883FC
:1048D00042E060E080E00E94A223E1EEF0E080810F
:1048E0008E7F8083E2EEF0E0808181608083808132
:1048F00088608083F80180818E7F808388818061D9
:104900008883DF91CF911F910F910895E8EDF0E03A
:1049100080818F7E8083E7EDF0E0808181608083FD
:1049200084E082BF81E0809356020C944324E8ED3A
:10493000F0E080818E7F80831092E20008951092D3
:10494000DA001092E10008951F920F920FB60F92B5
:1049500011242F933F934F935F936F937F938F9384
:104960009F93AF93BF93EF93FF938091E10082FFFA
:104970000BC08091E20082FF07C08091E1008B7F35
:104980008093E1000E9467208091DA0080FF1FC0C1
:104990008091D80080FF1BC08091DA008E7F8093C9
:1049A000DA008091D90080FF0DC080E189BD82E1ED
:1049B00089BD09B400FEFDCF81E0809357020E94BB
:1049C000422005C019BC109257020E9454208091C9
:1049D000E10080FF19C08091E20080FF15C0809146
:1049E000E2008E7F8093E2008091E20080618093FC
:1049F000E2008091D80080628093D80019BC85E0E5
:104A0000809357020E945F208091E10084FF30C0B4
:104A10008091E20084FF2CC080E189BD82E189BDE4
:104A200009B400FEFDCF8091D8008F7D8093D8001F
:104A30008091E1008F7E8093E1008091E2008F7E83
:104A40008093E2008091E20081608093E200809197
:104A50005302882311F084E007C08091E30087FDB2
:104A600002C081E001C083E0809357020E9463206E
:104A70008091E10083FF29C08091E20083FF25C07F
:104A80008091E100877F8093E10082E0809357026C
:104A9000109253028091E1008E7F8093E10080911B
:104AA000E2008E7F8093E2008091E200806180933B
:104AB000E20042E060E080E00E94A2238091F000EA
:104AC00088608093F0000E945B20FF91EF91BF917E
:104AD000AF919F918F917F916F915F914F913F9196
:104AE0002F910F900FBE0F901F9018951F920F924D
:104AF0000FB60F9211242F933F934F935F936F93B1
:104B00007F938F939F93AF93BF93CF93DF93EF9355
:104B1000FF93C091E900CF708091EC00D82FD17045
:104B200080FDD0E81092E9008091F000877F8093AB
:104B3000F00078940E94BA251092E9008091F0006C
:104B400088608093F000CD2BCF70C093E900FF9177
:104B5000EF91DF91CF91BF91AF919F918F917F9115
:104B60006F915F914F913F912F910F900FBE0F90DA
:104B70001F9018951F93CF93DF93CDB7DEB7AA97F9
:104B80000FB6F894DEBF0FBECDBFE8E5F2E080912E
:104B9000F100819322E0E036F207C9F70E94B720C6
:104BA0008091E80083FF2EC18091580290915902B4
:104BB000492F50E04A30510508F024C1FA01EC5861
:104BC000FF4F0C948727803821F0823809F01AC1F2
:104BD00008C08091540290915502992389F0826017
:104BE0000FC080915C028F70873008F00BC18093FA
:104BF000E9008091EB0085FB882780F91092E9009D
:104C00009091E800977F9093E8008093F1001092D4
:104C1000F100D1C0282F2D7F09F0F4C0882319F0AE
:104C2000823061F0EFC080915A02813009F0EAC011
:104C3000933009F080E0809355022EC080915A0293
:104C400081112AC080915C028F702FEF280F2630CF
:104C500008F0D8C08093E9002091EB0020FF1CC031
:104C6000933021F48091EB00806214C09091EB00AE
:104C700090619093EB0021E030E0A90102C0440F65
:104C8000551F8A95E2F74093EA001092EA0080915E
:104C9000EB0088608093EB001092E9008091E800BF
:104CA000877F8093E8000E94D723ACC08111AAC0FF
:104CB00010915A021F778091E3008078812B8093B6
:104CC000E3008091E800877F8093E8000E94D7236B
:104CD0008091E80080FFFCCF8091E30080688093A2
:104CE000E300111102C082E001C083E0809357020B
:104CF00089C08058823008F085C080915A02909116
:104D00005B028C3D53E0950779F583E08A838AE264
:104D100089834FB7F894DE01139620E03EE051E21C
:104D2000E32FF0E050935700E49120FF03C0E29599
:104D3000EF703F5FEF708E2F90E0EA3010F0C79673
:104D400001C0C0968D939D932F5F243149F74FBFCB
:104D50008091E800877F8093E8006AE270E0CE01EE
:104D600001960E94E32216C060915C0270915D0280
:104D7000AE014F5F5F4F0E942A22BC01892B09F4CC
:104D800041C09091E800977F9093E80089819A81D3
:104D90000E9441238091E8008B778093E80032C025
:104DA000803881F58091E800877F8093E8008091CA
:104DB00053028093F1008091E8008E7772CF8111C9
:104DC00021C080915A0290915B0299270297D4F4F6
:104DD0008091E800877F8093E80080915A02809359
:104DE00053020E94D72380915302811106C0809103
:104DF000E30087FD02C081E001C084E08093570298
:104E00000E94A8208091E80083FF0AC08091E800FA
:104E1000877F8093E8008091EB0080628093EB00B5
:104E2000AA960FB6F894DEBF0FBECDBFDF91CF912B
:104E30001F910895CF93809157028823A1F0C091CC
:104E4000E900CF709091EC00892F817090FD80E88F
:104E5000C82B1092E9008091E80083FD0E94BA25DA
:104E6000CF70C093E900CF910895DB018F939F939A
:104E70000E949C27BF91AF91A29F800D911DA39F7F
:104E8000900DB29F900D11240895991B79E004C0F4
:104E9000991F961708F0961B881F7A95C9F7809579
:104EA0000895AA1BBB1B51E107C0AA1FBB1FA61771
:104EB000B70710F0A61BB70B881F991F5A95A9F7C3
:104EC00080959095BC01CD010895A1E21A2EAA1BF0
:104ED000BB1BFD010DC0AA1FBB1FEE1FFF1FA217AA
:104EE000B307E407F50720F0A21BB30BE40BF50BA7
:104EF000661F771F881F991F1A9469F76095709530
:104F0000809590959B01AC01BD01CF010895EE0FF6
:104F1000FF1F0590F491E02D0994A29FB001B39F6B
:104F2000C001A39F700D811D1124911DB29F700DB2
:104F3000811D1124911D08950E948D27A59F900D1C
:104F4000B49F900DA49F800D911D11240895F9998F
:104F5000FECF92BD81BDF89A992780B50895A8E14A
:104F6000B0E042E050E00C94DB27262FF999FECF09
:104F700092BD81BDF89A019700B4021639F01FBAAC
:104F800020BD0FB6F894FA9AF99A0FBE08950396C9
:104F9000272F0E94B6270E94B527252F0E94B627EB
:104FA000242F0C94B6270196272F0E94B6270C9425
:104FB000B527DC01CB01FC01F999FECF06C0F2BD9B
:104FC000E1BDF89A319600B40D9241505040B8F7C7
:064FD0000895F894FFCFE4
:104FD6001E02D71F1620DA1F12200E2001E200E95A
:104FE60000EA00B500B600B700CD008301CC008A08
:104FF600019201940121022302240225022602279E
:10500600022A02B300B4006F007000818283F1F4BB
:1050160031323337919294969734C6F0F5F6F7E22B
:1050260000E900EA00B500B600B700CD008301CC68
:10503600008A0192019401210223022402250226FC
:105046000227022A02B300B4006F00700081828337
:10505600403222EA08B80896083B0854086D080052
:00000001FF
