:100000000C94F5030C942D040C942D040C942D04E5
:100010000C942D040C942D040C942D040C942D049C
:100020000C942D040C942D040C943C220C9410235D
:100030000C94811C0C942D040C942D040C942D0410
:100040000C942D040C9402160C942D040C942D0485
:100050000C9426160C94081D0C942D040C942D045D
:100060000C942D040C942D040C942D040C942D044C
:100070000C942D040C942D040C942D040C942D043C
:100080000C942D040C942D040C942D040C942D042C
:100090000C942D040C942D040C942D040C942D041C
:1000A0000C942D040C942D040C942D042900620052
:1000B00059005A005B005C005D005E005F0060005C
:1000C000610046002B0014001A00080015001700FC
:1000D0003A003B003C003D001300310036000400B4
:1000E0001600070009000A003E003F0040004100E2
:1000F00033003400E1001D001B000600190005005C
:10010000420043004400450038002800E000E300BE
:10011000E20037002C002C004C004C005000510035
:1001200052004F0044454255473A2064697361626A
:100130006C65642E0A0044454255473A20656E615D
:10014000626C65642E0A000A0025303258006C6526
:10015000645F7461736B3A20004F6E6573686F74EF
:100160003A206163746976653A2025640A000A00C2
:100170002530313662003A200025303258000A72AC
:100180002F632030313233343536373839414243EA
:100190004445460A006261636B6C6967687420734A
:1001A0007465703A2025750A006261636B6C69673B
:1001B00068742064697361626C650A006261636BD4
:1001C0006C6967687420656E61626C650A006261C3
:1001D000636B6C6967687420746F67676C653A203D
:1001E00025750A006261636B6C69676874206465D9
:1001F0006372656173653A2025750A006261636BFD
:100200006C6967687420696E6372656173653A2012
:1002100025750A003F00433E20004C25640A000A71
:10022000092D20537461747573202D0A686F7374DF
:100230005F6B6579626F6172645F6C6564732829B6
:100240003A20253032580A6B6579626F6172645FBB
:1002500070726F746F636F6C3A20253032580A6B7E
:100260006579626F6172645F69646C653A202530FC
:1002700032580A74696D65725F7265616433322841
:10028000293A202530386C580A002573000A092DB8
:1002900020436F6E736F6C65202D0A4553432F7199
:1002A0003A09717569740A000A092D204D61676960
:1002B00063202D0A443A094465627567204D6573D1
:1002C0007361676520546F67676C650A583A094D1A
:1002D0006174726978204465627567204D6F64654A
:1002E00020546F67676C65202D2053686F77206BF3
:1002F00065797072657373657320696E206D6174C2
:1003000072697820677269640A4B3A094B657962B1
:100310006F61726420446562756720546F67676C13
:1003200065202D2053686F77206B65797072657337
:1003300073207265706F72740A4D3A094465627574
:1003400067204D6F75736520546F67676C650A563B
:100350003A0956657273696F6E0A533A09537461AC
:100360007475730A433A0941637469766174652050
:10037000436F6E736F6C65204D6F64650A46312D57
:100380004631303A0953776974636820746F204CA2
:100390006179657220302D392028463130203D208A
:1003A0004C30290A302D393A095377697463682033
:1003B000746F204C6179657220302D390A475241A3
:1003C00056453A0953776974636820746F204C610D
:1003D00079657220302028616C7465726E61746575
:1003E000290A423A094A756D7020746F20426F6F76
:1003F000746C6F616465720A4553433A094A756DBE
:100400007020746F20426F6F746C6F61646572202E
:1004100028616C7465726E617465290A453A0950E9
:1004200072696E7420454550524F4D205365747467
:10043000696E67730A4241434B53504143453A0941
:10044000436C65617220454550524F4D0A00626110
:10045000636B6C696768745F636F6E6669672E7241
:1004600061773A20253032580A2E656E61626C65DC
:100470003A2025750A2E6C6576656C3A2025750A3A
:10048000006B65796D61705F636F6E6669672E7270
:1004900061773A20253032580A2E737761705F6396
:1004A0006F6E74726F6C5F636170736C6F636B3AC5
:1004B0002025750A2E636170736C6F636B5F746FB8
:1004C0005F636F6E74726F6C3A2025750A2E7377B6
:1004D00061705F6C63746C5F6C6775693A20257539
:1004E0000A2E737761705F7263746C5F72677569EF
:1004F0003A2025750A2E737761705F6C616C745FAA
:100500006C6775693A2025750A2E737761705F7282
:10051000616C745F726775693A2025750A2E6E6F7B
:100520005F6775693A2025750A2E737761705F677A
:10053000726176655F6573633A2025750A2E73775D
:1005400061705F6261636B736C6173685F6261634A
:100550006B73706163653A2025750A2E6E6B726F3E
:100560003A2025750A2E737761705F657363617039
:10057000655F636170736C6F636B3A2025750A0069
:1005800064656275675F636F6E6669672E72617717
:100590003A20253032580A2E656E61626C653A2029
:1005A00025750A2E6D61747269783A2025750A2EB8
:1005B0006B6579626F6172643A2025750A2E6D6FE2
:1005C0007573653A2025750A006565636F6E666907
:1005D000673A0A64656661756C745F6C617965720F
:1005E0003A2025750A003F000A6D6F7573653A2041
:1005F0006F66660A000A6D6F7573653A206F6E0A42
:10060000000A6B6579626F6172643A206F66660AF0
:10061000000A6B6579626F6172643A206F6E0A003E
:100620000A6D61747269783A206F66660A000A6D15
:1006300061747269783A206F6E0A000A64656275A7
:10064000673A206F66660A000A64656275673A2039
:100650006F6E0A000A0A4A756D70696E6720746FC2
:1006600020626F6F746C6F616465722E2E2E200095
:10067000433E2000436C656172696E6720454550BA
:10068000524F4D0A000A002530325820006B657920
:10069000626F6172645F7265706F72743A20005BA2
:1006A000735D005B575D005B535D005B525D005BFB
:1006B000445D005B435D000A034A004E0041004F69
:1006C00000000020034D00610070006C00650020F8
:1006D0000043006F006D0070007500740069006ECB
:1006E00000670000000403090409025B0003010025
:1006F000A0FA090400000103010100092111010011
:1007000001224000070581030800010904010001DE
:1007100003000000092111010001223200070582B7
:100720000320000109040200020300000009211156
:1007300001000122220007058303200001070503B1
:1007400003200001120100020000000837131760A7
:100750000100010200010631FF0974A101097515AC
:100760000026FF009520750881020976150026FFF6
:1007700000952075089102C005010980A10185033B
:1007800019012AB700150126B700950175108100DF
:10079000C0050C0901A101850419012AA002150157
:1007A00026A002950175108100C005010906A1016E
:1007B000050719E029E71500250195087501810253
:1007C0009501750881010507190029FF150026FF0D
:1007D000009506750881000508190129059505751C
:1007E000019102950175039101C011241FBECFEF45
:1007F000DAE0DEBFCDBF04B603FE18C080911D0352
:1008000090911E03A0911F03B09120038730904B5D
:10081000A740B04B59F410921D0310921E03109282
:100820001F0310922003E0E0F8E3099512E0A0E036
:10083000B1E0EEE9FBE402C005900D92A834B107E7
:10084000D9F723E0A8E4B2E001C01D92AD31B207B0
:10085000E1F70E946C140C94B7250C940000FF93F0
:10086000EF93E0914802F0914902309709F0099521
:10087000EF91FF910895FC018591803011F0EFDF39
:10088000FBCF0895FF27E0E230E247FF0CC041951F
:1008900097FF09C0EDE26095709580959095611D78
:1008A000711D811D911D27FF02C0219530E350E28B
:1008B000AA27660F771F881F991FAA1FA41710F079
:1008C000A41B63955A95A9F7AA3008F0A95FA05D0B
:1008D000AF93F395611571058105910541F7ED32EF
:1008E00011F4EF93F395F21718F43F93F395FBCFC0
:1008F0008F91B5DFFA95E1F70895E991F991859126
:10090000803021F0853219F0AADFF9CF089520E078
:10091000E89455915532C1F3503311F468945591D0
:100920005A3348F4505390F3220F022E220F220F15
:10093000200D250FF4CF0EF421958991999153360E
:1009400019F3533729F1533559F1BC0188279927F9
:10095000E8945C3621F489919991689455915436C4
:1009600039F446EF7EF077FF0DC08FEF9FEF0AC09E
:1009700055374AE039F0583540E121F0523642E02F
:1009800009F00895FF93EF937DDFEF91FF91B7CFCB
:10099000FF93EF93FC0181918030B9F360DFFBCFCF
:1009A000FF93EF9368DFF1CFDF93CF93CDB7DEB73F
:1009B0002596A3DFCF91DF91089581E0089581E02E
:1009C00008950E94DF04089508950E94E4040895A4
:1009D000A5E0B0E0EEEEF4E00C94372549835A83AD
:1009E00030914F0289819A81311119C0662399F0A3
:1009F000222389F00E94280B182F682F89819A8161
:100A00000E94040B69817A81812F0E94A81125968A
:100A1000E3E00C9453250E94160B182FF3CF0E948D
:100A2000280B69817A81F1CFFC01262F4081518109
:100A30006281738184810E94E804089581E00895B1
:100A4000CF93DF93EC0160E00E941405BE010E9489
:100A5000E504DF91CF9108950E94CD1208950E9480
:100A6000D112089508950E94CF090E9432052FEFF8
:100A700084E39CE0215080409040E1F700C00000FA
:100A800008950E9433050E942C1D08950E9433058D
:100A90000E94501D08950F931F93CF93DF938C01F5
:100AA00061E00E941405EC01B8010E94E10481118B
:100AB00006C080E0DF91CF911F910F910895B8019A
:100AC000CE010E94CB158823A1F3B801CE010E946C
:100AD0000D1B882371F3B801CE010E942A178823C9
:100AE00041F3B801CE010E947F1A882311F3F80167
:100AF00082818823D9F0CB35FDE5DF07A9F170F4B9
:100B0000C130ECE5DE07B1F0CF3DFCE5DF0721F1B8
:100B1000C115DC4559F40E944105CBCFCD35EDE53B
:100B2000DE07F9F020F1C83ADD45C1F0C8010E94A6
:100B3000DD04C0CF9091D402892F8E7F90FF816019
:100B40008093D40280FF05C086E391E00E943B04BD
:100B5000B0CF84E291E0FACF0E94EE0F0E944605EA
:100B6000A8CF0E94330FE2CF0E943D0FDFCF0E943B
:100B7000410FDCCF0E945D1C80E00E945B160E944A
:100B8000010608950E948D140E9405060E94621CB1
:100B90000895829590E09C01220F331F220F331F8E
:100BA0002C7C95958795959587958373282B30E0B8
:100BB000C901880F991F8A7A359527952575822B4B
:100BC0000895CF93DF93D92F0E94C905C82F8D2F89
:100BD0000E94C9059C2FDF91CF91089508950E942E
:100BE000EE05089581E008950E94F20508950895A4
:100BF000CF93C82F0E94EF058C2F0E94F405CF9150
:100C0000089580E00E94F80508950E94691B0E94E3
:100C1000F8050895CF930E94691BC82F80914A025E
:100C20008C1789F1C0934A020E94ED1C60934B021D
:100C300070934C0280934D0290934E028091D402A7
:100C400082FF1EC080FF1CC08EE491E00E943B0426
:100C50008091D40280FF14C01F92CF9389E491E069
:100C60009F938F930E94D4048091D4020F900F9091
:100C70000F900F9080FF04C087E491E00E943B0436
:100C80008C2F0E94F805CF910895ABE0B0E0EBE423
:100C9000F6E00C9438254F83588769877A878B87CD
:100CA00061110E946B0E1E821D8285E0FE01379647
:100CB000DE01119601900D928A95E1F78C819D815C
:100CC000892B61F449815A816B817C818D819E8160
:100CD0000E94940D2B96E2E00C94542589819A8110
:100CE00089238F3F79F3CE0101960E941E05811161
:100CF000E9CFF0CFFC01808191810E945A0B0895C9
:100D0000CF93C82F8823C9F08238C9F40E94691B89
:100D100081FD13C089E30E94230E0E948C0E2FEFE9
:100D200087EE93E0215080409040E1F700C0000042
:100D300089E30E942B0E0E948C0ECF910895833878
:100D4000A1F40E94691B80FDF8CF83E50E94230E69
:100D50000E948C0E2FEF81EE94E021508040904055
:100D6000E1F700C0000083E5E4CF8438A1F40E94DD
:100D7000691B82FDE2CF87E40E94230E0E948C0E45
:100D80002FEF81EE94E0215080409040E1F700C0C9
:100D9000000087E4CECF8CEF8C0F813AB8F48C2F13
:100DA0000E943C1A8111C9CF6C2F80910001909153
:100DB00001010E94F81B882329F08C2F0E942B0E22
:100DC0000E948C0E8C2F0E94230EB5CF80E28C0FD8
:100DD000883048F4C77081E001C0880FCA95EAF7EF
:100DE0000E944E0EA8CFEBE5EC0FE33040F4F0E0AC
:100DF000E35CFE4F808190E00E94BA1B9ECFC85AF0
:100E0000C73108F09ACFEC2FF0E0EE0FFF1FE15F43
:100E1000FE4F808191810E94D01B8FCF882309F4DF
:100E20004DC0823879F40E94691B81FF47C089E375
:100E30000E94230E0E948C0E89E30E942B0E0E94BA
:100E40008C0E0895833859F40E94691B80FF36C0C8
:100E500083E50E94230E0E948C0E83E5EECF84383A
:100E600059F40E94691B82FF29C087E40E94230E67
:100E70000E948C0E87E4E1CF9CEF980F913AE8F244
:100E800090E2980F983050F4877091E001C0990F6C
:100E90008A95EAF7892F0E94540ED1CF9BE5980FCF
:100EA000933028F490E080E00E94BA1B0895885A9D
:100EB000873120F490E080E00E94D01B08951F93BA
:100EC000CF93DF93182FEB010E948006209739F40F
:100ED000812F0E940E07DF91CF911F9108958FE916
:100EE0009FE00197F1F700C000002197EFCF70E07D
:100EF00060E0893311F460E570E00E945F070895B7
:100F0000882321F00E944E0E0E948C0E08958823A3
:100F100021F00E94540E0E948C0E0895B0E0A0E0D3
:100F2000E4E9F7E00C9431256C01D62FC72FFC01C2
:100F30001281F580F2949FE0F9220E94440EE82E7F
:100F40008823B9F0E12E1123A1F08C2F807F80340B
:100F500021F080E28D0F8830D0F08091F60282FF80
:100F600016C082E00E94EF0E0E94440E91E0E82E2F
:100F7000E926BC2EB2948FE0B822FBE0FB1508F402
:100F800068C0EB2DF0E0E754FA4D0C940825E12CF5
:100F9000F0CF0C2F0F70C07F11F00295007F11234E
:100FA00099F0002359F080E28D0F883010F0D111B4
:100FB00007C0802F0E944E0E0E948C0E8D2F41C0C4
:100FC000802F0E945E0EF8CF8D2F0E940E07002307
:100FD00009F43FC080E28D0F883010F0D11104C0B9
:100FE000802F0E94540E03C0802F0E94640E0E9426
:100FF0008C0E2FC00C2F0F70C07FC03211F00295E5
:10100000007FDD2381F0D13009F463C0112309F49E
:101010006DC0FF2009F463C0F601858180FFCECF4B
:101020008F7085835CC08091F60282FD33C01123EE
:1010300059F0002329F0802F0E944E0E0E948C0E42
:1010400080E00E94800605C080E00E940E0701112A
:10105000C7CFEB2DE850FF0B349720F40E94691B9B
:101060000E94F805EE2089F00E94400E80FD0DC020
:10107000F60112820E943A0E0E94620AC6010E9484
:1010800093090E943A0E0E94720ACDB7DEB7E9E0DA
:101090000C944D25112389F0F11006C00E946E0EAC
:1010A000802B0E948007D5CF21E0F212F7CF0E945B
:1010B0006E0E802B0E94750ECCCFF11006C00E94E0
:1010C000820E802F0E948707C4CF31E0F31609F209
:1010D000F6CF112331F085E08F1508F4BACF802FB9
:1010E000E0CF94E09F1508F4B4CFEBCFFF2049F395
:1010F000D93349F4FFEF27EE33E0F1502040304080
:10110000E1F700C000008D2F0E940E07A2CF8C2FA8
:1011100086958695837069F0813009F09ACF8D2F7E
:101120009C2F9370111102C090E080E00E94D01BB0
:1011300090CF8D2F9C2F9370111102C090E080E012
:101140000E94BA1B86CF8C2F8370A1F5111181CF1D
:101150004D2F429546954770440F440F2D2F2F7009
:1011600030E0042E02C0220F331F0A94E2F790E011
:1011700080E0D4FF09C08FE090E002C0880F991F83
:101180004A95E2F780959095C695C695C370822BD7
:10119000932BC23049F058F4C13019F00E94300A44
:1011A00058CF0E94270A55CF0E94390A52CF0E9479
:1011B000240A4FCF8695112311F08C2F817088233C
:1011C00009F447CF4D2F429546954770440F440F81
:1011D0002D2F2F7030E0042E02C0220F331F0A94EF
:1011E000E2F790E080E0D4FF09C08FE090E002C019
:1011F000880F991F4A95E2F780959095C695C695F8
:10120000C370822B932BC23049F058F4C13019F0CF
:101210000E949D0A1ECF0E94940A1BCF0E94A60A1C
:1012200018CF0E94480A15CFCF70112329F08C2FB8
:101230000E94620A8D2F35CF8D2F0E9487078C2F39
:101240000E94720A06CFD23F51F160F4D03FB9F04C
:10125000D13F81F0112309F449C0F110AFCE8C2F9A
:101260008F7121C0D33F11F1D43FA1F78091F602D5
:1012700082FD26C08C2F8F71112311F314C011230E
:1012800049F084E08F1508F4E4CE8C2F8F710E9412
:10129000840ADFCE95E09F1508F4DBCEF6CF8C2FC5
:1012A0008F711111CDCF0E94620AD3CE112329F084
:1012B0008C2F8F710E94560ACCCE0E94510AC9CE43
:1012C000112349F0CF718C2F0E94620A63E08C2FAA
:1012D0000E94D10EBECE81E00E94EF0EE1E0EF153C
:1012E00008F0B7CE82E00E94EF0EB3CEF11000CF2F
:1012F0008C2F8F71A5CF0F931F93CF93DF93EC01AA
:10130000688179818A810E94650B8C010E94AF0AF5
:101310000E94230AB801CE010E948E07DF91CF916F
:101320001F910F910895CF93DF93EC018B819C81E6
:10133000892B29F08881998189238F3F51F4DF918E
:10134000CF910895CE010E947B09CE010E94200515
:10135000F6CFCE010E944B058111F4CF0E94440EBE
:10136000882369F38A81882351F38091F60282FFF2
:10137000E6CF82E00E94EF0EE2CF90E080E00E9494
:10138000BA1B90E080E00E94D01B0E946B0E0E946E
:101390008C0E08950E94330E0E94BD0908950E948C
:1013A0005B0E0E94CA09089592959F70963091F045
:1013B00058F4925F9F70923058F4803F19F030F4E7
:1013C000883E30F481E008959A5FF4CF843FD1F3F2
:1013D00080E00895883EB0F3813FD1F7F3CFFC0160
:1013E00083819481892B29F08081918189238F3F8A
:1013F00011F480E00895808191810E945A0B0E942F
:10140000D4090895A5E0B0E0E8E0FAE00C943825AE
:101410002596E2E00C945425A6E0B0E0E2E1FAE083
:101420000C9438252696E2E00C94542508950E94E9
:10143000160A08950E94170A90937302809372020D
:101440000E94BD09089508950E941A0A08952091E6
:10145000720230917302822B932B0E941A0A089514
:101460002091720230917302822393230E941A0A00
:1014700008952091720230917302822793270E946F
:101480001A0A08950E94160A08950E94420A0895B1
:101490000E94450A90937102809370020E94BD09D8
:1014A000089590E080E00E94480A089521E030E02D
:1014B000A90102C0440F551F8A95E2F7CA010E9494
:1014C000480A089521E030E002C0220F331F8A95B8
:1014D000E2F78091700290917102822B932B0E940F
:1014E000480A089521E030E002C0220F331F8A9598
:1014F000E2F72095309580917002909171028223DD
:1015000093230E94480A089521E030E002C0220F90
:10151000331F8A95E2F780917002909171028227C1
:1015200093270E94480A0895209170023091710219
:10153000822B932B0E94480A0895209170023091CB
:101540007102822393230E94480A08952091700219
:1015500030917102822793270E94480A08950895C6
:10156000262F277091E001C0990F2A95EAF723E012
:10157000769567952A95E1F7660F771F660F771FB7
:10158000FA01E60FF71F50E040E0682F70E081910C
:10159000DF0111979B01042E02C0369527950A940E
:1015A000E2F7217021952827292328272C934F5FC4
:1015B0005F4F4430510559F70895A82FA77023E0D5
:1015C000969587952A95E1F7880F991F880F991F9F
:1015D000FB01E80FF91F50E040E080E0219130E08E
:1015E0000A2E02C0369527950A94E2F72170332718
:1015F000042E01C0220F0A94EAF7822B4F5F5F4F3F
:101600004430510559F70895262F953070F48C30E9
:1016100060F4682F70E08CE0989F600D711D1124BC
:1016200040E552E0822F0E94B00A0895292F95309C
:1016300068F48C3058F490E060E572E03CE0239F61
:10164000800D911D11240E94DD0A089580E0089507
:10165000B0E0A0E0EEE2FBE00C9431257C010091CB
:101660007002109171028091720290917302082BA6
:10167000192BCFE0D0E0CC24C394D12CBC2EC601D2
:101680000C2E02C0880F991F0A94E2F78023912341
:10169000892B49F4219790F7B12C8B2DCDB7DEB76C
:1016A000E9E00C944D25B7018C2F0E94C3110197DE
:1016B00089F3F3CFCF93DF93EC010E94280BBE0197
:1016C0000E94C311DF91CF9108951F93CF93DF93B1
:1016D000EB0190914F02992339F0CB010E945A0BF4
:1016E000DF91CF911F910895882369F0CB010E946B
:1016F000280B182F682FCE010E94040BBE01812FEA
:101700000E94C311EDCFCB010E94160B182FF6CF0C
:101710001F93CF93DF93C091740216E080917502FE
:101720008C1304C0DF91CF911F910895D0E01C9FCE
:10173000F0011D9FF00D1124EA58FD4F40815181A9
:1017400062817381848195810E940C0A2196C77001
:10175000E5CF4091A6025091A7026091A802709136
:10176000A9028091AA029091AB020E940C0A0895EE
:101770001F93CF93DF938091AB02807F09F049C024
:101780008091A802882309F444C080917402C0911A
:1017900075026091A6027091A702A091A902B09172
:1017A000AA02D62FD72316E0C81799F190E0109718
:1017B00011F0DF3F19F401968770F6CF189F900162
:1017C000199F300D1124F901EA58FD4F418147134B
:1017D000F2CF40814613EFCF42814111ECCF4381DC
:1017E00054814A1B5B0B483C510528F78091AB02A2
:1017F0008F7080618093AB02F901E558FD4F8081C5
:101800008F708061808386EA92E00E9493090E9433
:10181000880BDF91CF911F910895A1E1B0E0E3E142
:10182000FCE00C9430258C0185E0F801DE011D966A
:1018300001900D928A95E1F7F801E28086EAC82EC0
:1018400082E0D82E6091A9027091AA0261157105FB
:1018500009F44EC19091A6022091A702892F8223FC
:101860008F3F09F445C140815181A380B480F0903D
:10187000A802F501E61BF70BFF2009F4EAC08091EE
:10188000AB02382F307FE83CF10508F0A3C03111DE
:101890006DC0FE2C251316C0941314C0E11012C0A5
:1018A0008F7080618093AB020E94A90BC6010E94D9
:1018B00093098091AB02F80185838F2D6196EAE050
:1018C0000C944C25A114B10429F0842F85238F3F5B
:1018D00009F027C180E0F82FF170DF2E80FF3CC0B7
:1018E000809174022091750236E0821315C04D87F5
:1018F0005E878D859E850E945A0B292F22952F7019
:101900002230F0F0243018F59F70F1F0F801958145
:10191000907FD1F4D12C1EC090E0389FF001399F08
:10192000F00D1124EA58FD4F6181651306C06081F6
:10193000641303C06281E6120FC001968770D5CF91
:101940009F7011F0882331F3805E883018F3C8014E
:101950000E949309FD2CB1CFEE2009F4AECF809107
:10196000AB0281608093AB02F12CA7CF251306C098
:10197000941304C0F801EE2009F487C0C8010E9446
:10198000EF09882319F1EE2009F18091AB02803232
:1019900070F02091A6023091A70238872F83198614
:1019A000BB86AA868C87CE0107960E94930986E0A3
:1019B000F801A6EAB2E001900D928A95E1F70E9443
:1019C000B80B0E94A90BFF24F39477CFC8010E94A3
:1019D0009309F9CF311113C07A2DB98AA88A6E2DD7
:1019E00089890E94020A86EA92E00E94930986E0B1
:1019F000F60111928A95E9F70E94A90BB5CF25133C
:101A00000FC094130DC0E1100BC0F8018583C8010D
:101A10000E94930986E0F60111928A95E9F74DCF6D
:101A2000C8010E94EF09882389F2EE2079F28091A3
:101A3000AB02803208F4BBCF2091A6023091A702FE
:101A40003A8329831B82BD82AC828E83CE010196AC
:101A5000ACCFE83CF10508F03EC0FE2CEE2009F4C6
:101A6000B5CF25132AC0941328C08091AB0280FD06
:101A70001BC0982F907FC1F0F8018583903F31F013
:101A8000982F907F905F8F70892B8583C8010E946B
:101A9000930986E0F801A6EAB2E001900D928A95DA
:101AA000E1F70E94A90B09CF86E0F801A6EAB2E0AF
:101AB00001900D928A95E1F700CFC8010E94EF09CD
:101AC000811175CF8091AB0281608093AB02C80118
:101AD0000E949309F2CE7A2DB98AA88A6E2D89893F
:101AE0000E94020A86E0F60111928A95E9F7D9CFA1
:101AF000EE2009F46BCFC8010E94EF09F82E88236D
:101B000009F464CF86E0F801A6EAB2E001900D92F4
:101B10008A95E1F786EA92E00E947A060E94B80B65
:101B2000C0CF81E08E25D7CEACE0B0E0EAE9FDE0A1
:101B30000C9437254F83588769877A878B879C87D2
:101B4000CE0107960E940D0C882369F08A859B853B
:101B5000892B39F04F815885842F85238F3F09F0D9
:101B60006BC016E05FC086E0FE013796DE0111967D
:101B700001900D928A95E1F78A859B85892B89F3DF
:101B800088859F8189238F3F61F32091750230E022
:101B9000C901019687709927409174024817190668
:101BA00071F40E94CF09109275021092740286E0BF
:101BB000E6EAF2E0DF011D928A95E9F7D2CF96E0DE
:101BC000929FD001939FB00D1124AA58BD4FFE01E2
:101BD000319601900D929A95E1F7809375020E94DB
:101BE000880BBFCF819FC00111248A589D4F0E944E
:101BF0000D0C8823E9F0E09174021E9FF00111247E
:101C0000EA58FD4F408151816281738184819581C1
:101C10000E940C0A8091740290E0019687709927C7
:101C20008093740280917402909175028913DACFC7
:101C30002C96E3E00C94532569857A858B859C85E9
:101C40000E940C0A8ECF682F8091000190910101B3
:101C50000E942E1C0895682F80910001909101012F
:101C60000E94311C089580910001909101010E9411
:101C7000341C08958091B4028595859585950895C5
:101C80008091B402877008959091B402977081E0BA
:101C900009F480E008958091BF0208959091BF02F9
:101CA000892B8093BF02089580959091BF0298235D
:101CB0009093BF0208951092BF0208959091BE02C2
:101CC000892B8093BE02089580959091BE0298233F
:101CD0009093BE0208951092BE0208958091B502BD
:101CE000089508950E94710E08959091F60292FF52
:101CF00008C09091B502981721F08093B5020E9418
:101D0000720E08958091B502882329F01092B502D1
:101D100080E00E94720E0895CF93DF93E09100015E
:101D2000F09101018091BF028083E0910001F09168
:101D3000010180819091BE02892B80839091B50230
:101D4000992381F0E0910001F09101018081892BBC
:101D5000808380910001909101010E94E61B811116
:101D60000E94820EC0910001D091010148E050E034
:101D70006CEA72E0CE010E945F25892B59F088E061
:101D8000FE01ACEAB2E001900D928A95E1F7CE0136
:101D90000E94761BDF91CF91089508950E94CD0E89
:101DA00008959091F60292FF11C098E0899F9001EA
:101DB0001124622B6093B4020E94620A8091B402E3
:101DC0008595859585950E94CE0E08950E94620A9C
:101DD00008951092B40280E00E94CE0E0895909172
:101DE000B402809589238093B402282F277091F440
:101DF000282F082E000C330B9217130659F09091E0
:101E0000F60292FF07C08595859585950E94720A16
:101E10000E94E90E0895CF93C82F8091F60282FBAD
:101E2000992790F99C17E9F0C0FB82F98093F6029C
:101E30008091F5029091F6020E94680F82E00E9464
:101E4000EF0E8091D40280FF0CC01F92CF9389E5E2
:101E500091E09F938F930E94D4040F900F900F9066
:101E60000F90CF9108958091F60282FB882780F928
:101E700091E089270E940B0F089581E00E940B0FCB
:101E8000089580E00E940B0F089590E080E00E948A
:101E90007D2521E0883E9E4F09F020E0822F0895A5
:101EA00082E090E00E947525089583E090E00E9412
:101EB00075250895CF9384E090E00E947525C82F82
:101EC00082E290E00E947525982F8C2FCF91089583
:101ED000CF93C92F682F84E090E00E9483256C2F58
:101EE00082E290E00E948325CF910895AB01BC016E
:101EF0008FE090E00E9495250895AB01BC0183E13D
:101F000090E00E949525089560E070E0CB010E946A
:101F10007D0F089560E070E0CB010E94760F0E9473
:101F2000840F089568EE7EEF90E080E00E94A12586
:101F300060E082E090E00E94832560E083E090E032
:101F40000E948325109273021092720260E084E076
:101F500090E00E94832564E082E290E00E94832565
:101F600060E085E090E00E94832560E086E090E0FC
:101F70000E9483256FEF87E090E00E94832540E078
:101F800050E0BA0188E090E00E94952560E08DE085
:101F900090E00E94832540E050E0BA0188E190E0A3
:101FA0000E94952560E087E190E00E94832540E053
:101FB00050E0BA018CE190E00E94952570E060E06D
:101FC00080E290E00E94A12540E050E0BA0188E163
:101FD00090E00E9495250E948A0F08950E94920F1A
:101FE0000895682F8EE090E00E94832508950E9456
:101FF000ED1C6093D0027093D1028093D202909333
:10200000D3026093CC027093CD028093CE02909362
:10201000CF020895089508950E940B100895089521
:102020000E940F10089583E19FE10E945F1B0E94B0
:102030000A100E940C10089581E008950E941C105F
:102040000895089508950E9421100E942210089575
:102050000E94AE120E94F7050E94191708950E946F
:10206000D81C0E94CD130E9428100E948D140E943B
:1020700010100895AAE0B0E0E0E4F0E10C942D2502
:102080000E94E31322EC822E22E0922E640110E0E3
:10209000F601E190F1906F01812F0E94D4121F5F31
:1020A000153009F449C0E816F90691F38091D4027D
:1020B00081FD0E94DD120E941E10782E10E0812FFB
:1020C0000E94D4127C01F401A190B1904F018A15B5
:1020D0009B0561F100E0CC24C394D12CAE24BF2435
:1020E000C5018C219D21892BC1F07720B1F00E8391
:1020F0001F8321E0C7018C219D21892B09F420E059
:1021000028870E94E11C8160782F9A8789874E81F9
:102110005F8168858A850E9445060F5FCC0CDD1CB7
:102120000C30F1F6F4013297F182E0821F5F153036
:1021300031F60E94F70F22C0E816F90609F0B6CF73
:102140000E94E11C8C018091C0029091C10208178D
:102150001907A1F08FEF89838A831B820E94E11CFB
:102160008160782F9D838C8349815A816B818D8119
:102170000E9445061093C1020093C0020E941817E6
:102180000E940A062A96EDE00C944925CF93DF932E
:102190000E94C811EC01811522E59207E8F581152E
:1021A00031E5930708F0A3C0883E910510F5803E05
:1021B000910570F5883A910570F4853A910508F01B
:1021C00078C08130910521F1009711F1049700F555
:1021D000D0E0C0E01DC08F3B9105D0F7C85AD0E0D9
:1021E000CC0FDD1FC05CDE4F0990D881C02DD464B8
:1021F0000FC0811540E5940708F066C0C11580E462
:10220000D80708F05EC0CE019A9581159F4100F76E
:10221000CE01DF91CF910895811536E5930718F52A
:10222000811545E5940708F07BC0C11584E5D80702
:1022300008F071C09E01237033279C2F96959695C8
:10224000C115D34508F458C0C1E0D0E002C0CC0F9E
:10225000DD1F2A95E2F730E2939FC0011124C82BBD
:10226000D92BDA68D5CFC1158AE5D80778F4C1151E
:1022700029E5D20708F05EC0C11538E5D30708F498
:10228000A7CFDC2FCC27C06FD06AC2CFCE0190562B
:102290008115904208F09CCF8D2F8F710E946A1299
:1022A00090E0982F882788279F719C012C2BE901AB
:1022B0003FC0C55AD0E0C259DE4FC881D0E0D064DB
:1022C000A7CFDF70D06AA4CF8370992721E030E0D8
:1022D00002C0220F331F8A95E2F7C695C69580E2A9
:1022E000C89FE0011124C22BD32BDD6891CFD82FDA
:1022F000CC27C16FD06A8CCFC1E0D0E002C0CC0F38
:10230000DD1F2A95E2F720E2929FC0011124C82B1D
:10231000D92BDC687DCFDC2FCC27C46FD06A78CF77
:102320000E946A12C82FD0E0DC2FCC27CC27DF71A7
:10233000D0626ECF8C2F8F700E946A1234E0D695D7
:10234000C7953A95E1F7CF709C2FEC01D06960CF2B
:10235000972F7530A8F46C3098F470E02CE0929FC1
:10236000600D711D1124FB019CE3899FE00DF11D9F
:102370001124EE0FFF1FE455FF4F859194910895AE
:1023800080E090E008950E94A8110E94C610089570
:1023900082389105B9F1B0F48133910509F47DC01B
:1023A00048F48932910509F46DC08A32910509F427
:1023B0007BC008958533910509F45FC08933910589
:1023C00009F10895833E9105D9F138F4803E9105D5
:1023D00029F1823E910579F10895863E9105D9F162
:1023E000873E910509F43EC0843E910541F5209158
:1023F000F60221FF24C08091F50284FD19C087EE0A
:1024000090E008952091F502237009F05AC02091C0
:10241000F60223FF14C089E290E008952091F502AE
:1024200020FD38C03091F60230FF09C024FF43C0C0
:1024300090E080E008952091F50222FDF7CF089505
:102440002091F50222FD3AC03091F60230FD39C0EC
:1024500024FFF5CFEDCF2091F50223FFF0CF24FD2F
:10246000E7CFCDCF2091F50223FD2EC03091F602AB
:1024700031FFEECF84EE90E008952091F50225FF24
:10248000DECFC9CF2091F50225FD21C02091F602B3
:1024900023FFD5CF89E390E0D2CF2091F50226FF2C
:1024A000CECF8AE290E008952091F50226FFC7CFB3
:1024B00081E390E0089583EE90E0089582EE90E04D
:1024C000089580EE90E0089586EE90E0089585E30B
:1024D00090E008959091F50292FF06C0282F287190
:1024E0002830F9F4877F846093FF06C0282F287175
:1024F0002831F1F4877E84612091F60220FF06C026
:10250000382F38713830D9F4877F816021FF06C0B9
:10251000282F28712831D1F4877E816194FD877E30
:102520000895282F24712430F9F68B7F8860DCCF42
:10253000282F2471243101F78B7E8861DDCF382F5D
:102540003171313019F78E7F8860E0CF282F2171EB
:10255000213121F78E7E8861E1CF08950E94450FD9
:10256000811102C00E94EE0F0E94500F8093D4028E
:102570000E945A0F9093F6028093F5020E94AD12CA
:102580000E94550F90E00E94240A80917002909161
:1025900071020E94450A089508950E94CC12089580
:1025A00008950E94D0120895E82FF0E0EE0FFF1F6B
:1025B000EF5FFC4F808191810895B0E0A0E0E3EEF1
:1025C000F2E10C9432258EE791E00E943B0481E019
:1025D000E82E83E0F82ED0E0C0E099E7C92E91E024
:1025E000D92E00E711E0DF93CF93DF92CF920E94C4
:1025F000D40486E791E00E943B04F7018191919118
:102600007F010E94E1059F938F931F930F930E9478
:10261000D4048EE691E00E943B0421968DB79EB7CC
:1026200008960FB6F8949EBF0FBE8DBFC530D1057A
:10263000D1F6CDB7DEB7E8E00C944E2580EA8A9556
:10264000F1F7089500C008950E941E130895F894AC
:10265000E82FE295EF70F0E031A1282F2F7081E094
:1026600090E001C0880F2A95EAF7982F9095932360
:1026700091A392A1892B82A3789408950F931F931D
:10268000CF93DF93CDE7D1E089918F3F11F00E9486
:10269000271381E0C238D807B9F7C1E7D1E00DE7C9
:1026A00011E089918F3F11F00E9427130C171D072D
:1026B000C1F7DF91CF911F910F910895AF92BF9213
:1026C000DF92EF92FF920F931F93CF93DF938C01D2
:1026D000D62EC62FD0E0CE0183589E4F7C01FC0140
:1026E00020812F3F09F44CC0F894E22FE295EF705F
:1026F000F0E031A12F7081E090E001C0880F2A95B1
:10270000EAF7932F982B91A392A18095892382A316
:1027100078940E942213E1E7F1E041E050E0B12C0F
:10272000A12C21912F3FB1F1A22FA295AF70B0E063
:1027300090968C9190E02F7002C0959587952A9580
:10274000E2F780FD27C0CA01A82AB92A440F551F05
:1027500081E0ED37F80729F7F70180818F3F11F00D
:102760000E94271361E0A114B10409F460E08D2DEB
:102770000E942413CC0FDD1FC00FD11FB982A88285
:10278000DF91CF911F910F91FF90EF90DF90BF905D
:10279000AF90089590E080E0D7CF0E943E138AE08A
:1027A000E1E0F3E0DF01982F1D929A95E9F7E7EF5A
:1027B000F2E0DF011D928A95E9F785E00E941E1480
:1027C0000E942C050895AAE0B0E0E9EEF3E10C9434
:1027D00035258E010F5F1F4F8AE0F80111928A950F
:1027E000E9F7F12C6F2DC8010E945E13F394F5E018
:1027F000FF12F8CF4AE050E0B80187EF92E00E9464
:102800005F2521E0009709F420E0892B41F08AE060
:10281000F801A7EFB2E001900D928A95E1F745E04B
:1028200061E073E087EF92E00E941F14182F0E946E
:102830002F05812F2A96E5E00C9451250895CF921B
:10284000DF92EF92FF921F93CF93DF936C017B0196
:10285000C42F222349F081E08093D7020E94E11C1B
:102860009093D6028093D5021091D70211110AC01D
:1028700010E0812FDF91CF911F91FF90EF90DF90BB
:10288000CF9008958091D5029091D6020E94F91CB4
:10289000059770F3D0E0CC0FDD1FAE01B601C70184
:1028A0000E945F25892B41F0AE01B601C7010E944D
:1028B0006C251092D702DDCF10E0FBCF0E948F1F56
:1028C0000E942F100E949C1F08950E94A11F0E9429
:1028D0003A100E94BF1F08950E947A1C0E94751F23
:1028E0000E9413100E945E140E9465140E9423101F
:1028F000FBCF86E090E00E9475250895682F86E062
:1029000090E00E9483250895EBE0F3E080818470DD
:10291000896180830E947E1408950E94450F811171
:1029200004C00E94EE0F0E9484140E9479148093C8
:102930000B03803220F08770886180930B039091A5
:102940000B03892F817090FF04C0892F869586958F
:1029500086950E945B16089580910B03982F96959B
:1029600096959695933040F49F5F990F990F990F24
:102970008770892B80930B0380910B038160809378
:102980000B030E947E148091D40280FF11C08091BD
:102990000B038695869586951F928F938CEF91E019
:1029A0009F938F930E94D4040F900F900F900F90DD
:1029B00080910B038695869586950E945B160895F7
:1029C00080910B03982F987F79F0885080930B03A8
:1029D000887F91E009F490E080910B0390FB80F9EF
:1029E00080930B030E947E148091D40280FF11C05B
:1029F00080910B038695869586951F928F9384EE22
:102A000091E09F938F930E94D4040F900F900F90AA
:102A10000F9080910B038695869586950E945B1694
:102A2000089580910B0380FD1FC0816080930B038C
:102A3000813019F489E080930B0380910B030E948D
:102A40007E148091D40280FF08C08CEB91E09F93AC
:102A50008F930E94D4040F900F9080910B03869562
:102A6000869586950E945B16089580910B0380FFE2
:102A700014C08E7F80930B030E947E148091D40239
:102A800080FF08C089EA91E09F938F930E94D4044D
:102A90000F900F9080E00E945B160895CF93C09135
:102AA0000B03C1708091D40280FF0CC01F92CF93A2
:102AB0008EEC91E09F938F930E94D4040F900F901F
:102AC0000F900F90CC2321F00E943515CF910895DF
:102AD0000E941115FBCF90910B03892F8695869547
:102AE00086958F5F8F719770843088F5880F880F77
:102AF000880F892B80930B0380910B03887F91E0D3
:102B000009F490E080910B0390FB80F980930B0314
:102B10000E947E148091D40280FF11C080910B032B
:102B20008695869586951F928F9385E991E09F9370
:102B30008F930E94D4040F900F900F900F9080916C
:102B40000B038695869586950E945B160895909353
:102B50000B03D2CF843008F083E090910B03977081
:102B6000282F220F220F220F922B90930B03987F76
:102B700021E009F420E090910B0320FB90F9909361
:102B80000B030E945B1608950E94AA1580910B0307
:102B90000E947E1408959C01FB018281882349F1E3
:102BA0002E3BFCE53F07C9F040F42C3BECE53E072B
:102BB00069F02D3B3C4579F00895203C9CE53907B0
:102BC00091F070F0213C3C4589F0089583E00E942B
:102BD000C41580E0089580E0FACF0E94E014F9CF98
:102BE0000E94AC14F6CF0E944E15F3CF0E946B15D5
:102BF000F0CF81E00895509A58980895589A089512
:102C0000589808951F920F920FB60F9211242F9388
:102C10003F934F935F936F937F938F939F93AF9364
:102C2000BF93EF93FF930E940016FF91EF91BF9126
:102C3000AF919F918F917F916F915F914F913F9154
:102C40002F910F900FBE0F901F9018951F920F920B
:102C50000FB60F9211242F933F934F935F936F936F
:102C60007F938F939F93AF93BF93EF93FF932091A5
:102C700088003091890080918600909187006AEFEA
:102C800070E00E94D2246B5F7F4F6217730710F4CD
:102C90000E94FE15FF91EF91BF91AF919F918F918F
:102CA0007F916F915F914F913F912F910F900FBE48
:102CB0000F901F9018958F929F92AF92BF92EF92B4
:102CC000FF920F931F93CF93DF93C82F843008F0A8
:102CD00043C0811142C08091880090918900892B66
:102CE00051F080916F008D7F80936F0080916F0015
:102CF0008E7F80936F000E940016A0918600B09195
:102D000087002C2F30E00E940E2523E030E040E0C9
:102D100050E00E94E62489019A01809186009091FA
:102D200087006CE070E00E94D2246017710730F1D8
:102D3000C80169E070E00E94D2247093890060931A
:102D40008800DF91CF911F910F91FF90EF90BF907E
:102D5000AF909F908F900895C3E0809188009091EC
:102D60008900892B51F680916F00826080936F00FB
:102D700080916F00816080936F00BFCF809186004B
:102D800090918700E0908600F0908700E0918600A7
:102D9000F0918700C6E0D0E0BE010E94D224060F69
:102DA000171F211D311D4801590185E0880C991C10
:102DB000AA1CBB1C8A95D1F7C701BE010E94D22470
:102DC0009F0150E040E0260F371F411D511DC501F6
:102DD000B4010E94E62449015A01E0918600F09175
:102DE0008700CA01B9010E94B6249B01AC01DF0132
:102DF0000E941D259B01AC01C501B4010E94B624AF
:102E00002FE096958795779567952A95D1F700914C
:102E100086001091870030E020E00617170728078A
:102E2000390708F08ACF609186007091870085CFBE
:102E300008950E94FB1582E08093800089E18093D1
:102E400081008FEF9FEF90938700809386000E9410
:102E50008D140895CF93DF93EC01FB0182818823C9
:102E600009F464C1C430FDE5DF07E0F5CB3F9CE524
:102E7000D90730F49E0122503C4524313105D8F564
:102E80000E945A0F9093F6028093F502C231ECE54E
:102E9000DE0709F41FC108F06EC0C9308CE5D80701
:102EA00009F4F2C008F03FC0C530ECE5DE0709F4D4
:102EB000DBC058F5C3308CE5D80709F4CDC008F065
:102EC000CFC08091F5028160C230DC4509F4AEC00C
:102ED0008091F5029091F6020E94680F0E94CF093E
:102EE00080E009C0C63AEDE5DE0751F238F4C2369B
:102EF0009DE5D90729F2DF91CF9108959E012E5AC1
:102F00003D4523303105B8F7BBCF8091F502806293
:102F1000C730FCE5DF0709F489C008F4B1C080912F
:102F2000F502806483C0CD309CE5D90709F4BAC0AE
:102F300070F48091F5028E7FCB30FCE5DF0709F459
:102F400075C008F4A7C08091F5028D7F6FC0CF30A7
:102F50009CE5D90709F4B6C008F4A8C0C031FCE567
:102F6000DF0709F4B3C0C131DC4509F0B1CF80916E
:102F7000F5028F7B5BC0C1159DE5D90709F4B4C08C
:102F800098F5CB3FFCE5DF0709F472C0B8F4C43113
:102F90009CE5D90709F4B6C008F4A2C0C531DC45E8
:102FA00009F096CF8091F50282FB992790F921E0F4
:102FB000922790FB82F990FB83F938C0CD3F8CE5D6
:102FC000D80709F477C008F457C0CE3FECE5DE0718
:102FD00009F474C08091F6028360CF3FDC4509F0AC
:102FE00077CF8093F60274CFC2368DE5D80709F407
:102FF00096C068F4C230EDE5DE0709F48CC008F431
:1030000077C0C330DD4509F063CF80E085C0CE3A9C
:103010009DE5D907E9F068F49091F502892F8E7F3C
:1030200090FF8160C63ADD4509F052CF8093F502EA
:103030004FCFCF3A8DE5D80789F1C03BDD4509F088
:1030400047CF9091F602892F877F93FF8860C9CF81
:103050008091F6028860C5CF8091F5028260E6CF4C
:103060008091F5028460E2CF8091F5028860DECF26
:103070008091F6028160B5CF8091F6028260B1CF77
:103080008091F5028061D2CF0E94CF098091F50234
:103090008068CCCF8091F5028C60C8CF8091F60219
:1030A000877F9FCF8091F5028B7FC0CF8091F50203
:1030B000877FBCCF8091F6028E7F93CF8091F602FE
:1030C0008D7F8FCF8091F5028F7EB0CF8091F502FA
:1030D0008F7DACCF0E94CF098091F5028F77A6CF6C
:1030E0008091F502837FA2CF8091F6028C7F79CF09
:1030F0008091F602982F909591708E7F892B90FB8E
:1031000081F96FCF0E94CF099091F502892F97FB2B
:1031100087F980588BCF81E00E94F10FD9CE909132
:10312000F502892F8F7E94FF806180CF81E0E3CE0E
:10313000CF93C82F1F928F938AE192E09F938F9332
:103140000E94D40481E090E002C0880F991FCA95C4
:10315000E2F70E94240A0E94CF090F900F900F906F
:103160000F90CF910895EF92FF920F931F93CF93FB
:10317000DF938B3109F42CC108F0CCC08B3009F4FB
:10318000E8C008F09EC0863009F4F6C048F48530E7
:1031900009F4CEC086EE95E00E943B0480E0FCC0BE
:1031A000873009F4FEC08830A9F70E94550F1F929E
:1031B0008F9389EC95E09F938F930E94D4040E9493
:1031C000500F83FB992790F91F929F9382FB9927B9
:1031D00090F91F929F9381FB992790F91F929F93DB
:1031E000982F91701F929F931F928F9380E895E084
:1031F0009F938F930E94D4040E945A0F93FB22271F
:1032000020F91F922F9387FB222720F91F922F93DB
:1032100086FB222720F91F922F9385FB222720F976
:103220001F922F9384FB222720F91F922F9383FB59
:10323000222720F91F922F9382FB222720F91F9229
:103240002F9391FB222720F91F922F93292F217072
:103250001F922F9381FB222720F91F922F93282F53
:1032600021701F922F939F938F9381E894E09F93F7
:103270008F930E94D4048DB79EB78A960FB6F894A8
:103280009EBF0FBE8DBF0E947914982F969596957C
:1032900096951F929F93982F91701F929F931F92C4
:1032A0008F938EE494E09F938F930E94D4048DB704
:1032B0009EB708960FB6F8949EBF0FBE8DBF81E0F3
:1032C0006BC0803109F49CC080F48E3009F062CF6D
:1032D0009091D402892F8B7F92FF84608093D402D7
:1032E00082FF8BC081E196E07FC0863109F498C0EF
:1032F000893109F04FCF82E891E09F938F938AE85C
:1033000092E09F938F930E94D4040F900F900F90A0
:103310000F90D5CF8A3249F190F4873211F128F419
:103320008E3108F437CF8D511DC0893209F032CF6C
:1033300084E596E00E943B040E944105C0CF83349F
:1033400068F48A3308F091C0853359F0883309F066
:1033500021CF88EA92E00E943B04B1CF833409F088
:1033600019CF80E00E949818AACF84E796E00E94C7
:103370003B040E94EE0FA3CF8091D402807F809304
:10338000D4028DE892E00E943B0480E796E00E9420
:103390003B0481E08093D802CDB7DEB7E6E00C9421
:1033A00050259091D402892F8E7F90FF8160809369
:1033B000D40280FF03C088E496E0CDCF8BE396E093
:1033C0000E943B048091D402817F8093D40277CF06
:1033D0009091D402892F8D7F91FF82608093D402D7
:1033E00081FF08C08EE296E00E943B048091D402E7
:1033F0008160EBCF80E296E0AECF81E096E0ABCF8C
:103400009091D402892F877F93FF88608093D402A4
:1034100083FF03C085EF95E0E7CF88EE95E09BCF73
:103420000E94ED1C162F072FF82EE92ED091F402E2
:10343000C0910E010E94691BEF92FF920F931F93A0
:103440001F92DF931F92CF931F928F938FE192E091
:103450009F938F930E94D4048DB79EB70C960FB69E
:10346000F8949EBF0FBE8DBF2ACF89537BCF80E0DB
:1034700008950E94371A0895CF93C82F8091D802DB
:10348000882331F0813099F01092D80280E00DC08D
:103490000E944B0E8232D1F78C2F0E94371A811175
:1034A00019C08C2F0E94B3188170CF9108950E948B
:1034B0004B0E823289F38C2F0E94391A811119C068
:1034C000C431C9F050F4CB3061F084E192E00E9445
:1034D0003B0413C081E090E0E7CFC93261F0C8330C
:1034E000A1F78DE892E00E943B0486E192E00E9401
:1034F0003B0481E0D9CF1092D80280E0D5CFCF93A2
:10350000DF93EB0186319C4511F50E944B0E9A81A9
:10351000992399F08A7A91E009F490E09093D90286
:10352000811109C089E20E94230E0E948C0E80E066
:10353000DF91CF91089585E3F6CF8091D902811173
:1035400004C089E20E942B0EF0CF85E3FBCF81E01F
:10355000EFCF0F931F93CF93DF93C42FD22FFC0194
:1035600082818823C9F04093DC020E94E11C909381
:10357000DB028093DA0280E28C0F883040F4C7705F
:1035800081E001C0880FCA95EAF70E948007DF91A9
:10359000CF911F910F9108951091DC02141332C046
:1035A0008091DA029091DB020E94F91C883C91051F
:1035B00048F5C0E2CD0F1D17B9F080E2810F8830C9
:1035C00040F4177081E001C0880F1A95EAF70E9455
:1035D0008707C83048F481E09D2F977001C0880F9D
:1035E0009A95EAF70E948007802F0E947707C830DB
:1035F00070F6D77081E001C0880FDA95EAF70E9473
:103600008707C5CF80E28C0F883008F6C77081E04D
:1036100001C0880FCA95EAF7F2CF0F939C01CB0146
:10362000243F4CE5340759F1A8F4293DFCE53F0758
:1036300001F12A3D4CE53407D1F1283D3C4591F498
:1036400006E221EE41EE68ED7CE50E94A91A80E0D9
:103650000F910895263FFCE53F07E9F0B0F0273FC2
:103660003C45F9F0FC018281882339F11092DC029B
:10367000EFCF07E225EE45EE69ED7CE5E6CF06E209
:1036800021EE40EE64EF7CE5E0CF07E225EE44EE6C
:1036900065EF7CE5DACF06E221EE42EE66EF7CE5EF
:1036A000D4CF07E225EE46EE67EF7CE5CECF08E209
:1036B00021E045EE6AED7CE5C8CF81E0C9CF90936B
:1036C00049028093480208959093E2028093E102B8
:1036D0000895E091E102F091E202309729F0019023
:1036E000F081E02D0995089580E00895EF92FF9212
:1036F0000F931F93CF93DF938C01E091E102F09140
:10370000E202309791F10280F381E02D09958091DA
:10371000D40282FF2AC080FF04C08DE896E00E9498
:103720003B04D0E0C0E087E8E82E86E0F82E8091E8
:10373000D40280FF0EC0F801EC0FFD1F80811F92A4
:103740008F93FF92EF920E94D4040F900F900F90EE
:103750000F902196C830D10551F78091D40280FF97
:1037600004C085E896E00E943B04CDB7DEB7E6E0F2
:103770000C9450252091DF023091E0022817390780
:1037800071F09093E0028093DF02E091E102F0910A
:10379000E202309721F00680F781E02D0995089527
:1037A0002091DD023091DE022817390771F09093E5
:1037B000DE028093DD02E091E102F091E2023097B7
:1037C00021F00084F185E02D099508959C012E5F7C
:1037D0003F4FAC01485F5F4F80E02417350709F485
:1037E0000895F90191919F019923B9F38F5FF5CF66
:1037F000662349F0FC01329608962191261729F09C
:10380000E817F907D1F780E0089581E008959C0159
:10381000FC0132969FEF80E04191461751F09F3FA7
:1038200019F4411101C0982F8F5F8630A9F79F3F8F
:1038300009F40895290F311D97FD3A95F901628326
:103840000895FC01329608962191261303C0DF01EA
:1038500011971C92E817F907B9F708950E94071C01
:1038600008950E94211C0895029626E0FC01119201
:103870002A95E9F7089508950E943B1C0895811147
:1038800006C081E08093E3020E943C1C089582E020
:10389000F9CF83E08093E3020E943C1C08950E94CC
:1038A0003F1C089581E08093E3020E943C1C089530
:1038B0000E94521C0895089508950E945C1C08956A
:1038C000089508950E945B1C0895CF930E94601C88
:1038D0000E94E3130E94611CC0E08C2F0E94D4124E
:1038E000892B31F4CF5FC530C1F780E0CF910895C7
:1038F00081E0FCCF85B7806885BF85B7806885BFCC
:1039000008951F921FB61F9211248F939F93AF9318
:10391000BF938091E402811113C080910C039091B8
:103920000D03A0910E03B0910F034196A11DB11D8F
:1039300080930C0390930D03A0930E03B0930F0399
:10394000BF91AF919F918F911F901FBE1F901895AF
:1039500080911403843031F10E94BA051092E40280
:1039600088E190E020E40FB6F894A8958093600079
:103970000FBE2093600083B7817F846083BF83B7CD
:10398000816083BF7894889583B78E7F83BF0FB69D
:10399000F894A895809160008861809360001092EF
:1039A00060000FBE08950E94CF090E94C2050895CD
:1039B00082E084BD93E095BD9AEF97BD80936E0041
:1039C00008952FB7F89480910C0390910D03A09166
:1039D0000E03B0910F032FBF08952FB7F894609195
:1039E0000C0370910D0380910E0390910F032FBF74
:1039F00008959C014FB7F89480910C0390910D03AA
:103A0000A0910E03B0910F034FBF821B930B08953B
:103A100078941F921FB61F9211248F939F93AF9398
:103A2000BF9380910C0390910D03A0910E03B09170
:103A30000F030196A11DB11D80930C0390930D03FC
:103A4000A0930E03B0930F03BF91AF919F918F91FD
:103A50001F901FBE1F90189581E08093E00080E2C8
:103A60008093D8001092C9008FE19EE40197F1F78E
:103A700000C0000087E090EBDC0180931D03909371
:103A80001E03A0931F03B093200388E19CE00FB6B0
:103A9000F894A895809360000FBE90936000FFCFCC
:103AA00088E19CE00FB6F894A895809360000FBE63
:103AB00090936000FFCF8091F30208950895CF9313
:103AC000DF93EC0181E08093E9008FEF9091E800B3
:103AD000815095FD06C095ED9A95F1F70000811192
:103AE000F5CF8091E80085FF14C050E040E068E029
:103AF00070E0CE010E9430208091E8008E778093A4
:103B0000E80088E0FE01ABEEB2E001900D928A95EC
:103B1000E1F7DF91CF9108958093E7027093E90276
:103B20006093E80280911403843001F582E0809371
:103B3000E9008FEF9091E800815095FD06C095ED6A
:103B40009A95F1F700008111F5CF8091E80085FF8B
:103B50000DC050E040E063E070E087EE92E00E942C
:103B600030208091E8008E778093E8000895BC01B2
:103B700084E00E948C1D0895BC0183E00E948C1D8E
:103B80000895089583EB96E00E943B04809113030F
:103B9000811109C00E94C0210E941D228091E20073
:103BA00084608093E20008958FEA96E00E943B04CF
:103BB0001092130308958BEA96E00E943B040E9442
:103BC000521C089587EA96E00E943B04609110031E
:103BD00081E0611101C080E00E94491C089583EAE0
:103BE00096E00E943B049091140381E0943009F028
:103BF00080E0609110030E944F1C08952091E6021E
:103C00002F5F822F62E30E94C624992319F020932C
:103C1000E60208951092E6028091EA028823F1F00C
:103C2000809114038430C1F49091E9009F70209139
:103C3000EC00822F817020FD80E8892B93E0909327
:103C4000E9009091EB0090FF04C09091EE0097FD89
:103C500008C08F708093E9001092EA0208951092D4
:103C6000F1009091E80095FDFACF9091E80090FF67
:103C7000F0CF9091E8009E779093E800EACF42E081
:103C800061EC81E00E943C2142E261EC82E00E9412
:103C90003C2142E261EC83E00E943C2190911403BC
:103CA00081E0943009F080E0609110030E943F1C95
:103CB000089580911603833009F461C030F4813097
:103CC000D1F1823009F49EC008958A3009F48AC087
:103CD0008B3009F46FC0893009F050C08091150312
:103CE000813209F04BC08091190390911A03029719
:103CF00008F044C08091E800877F8093E8008091BD
:103D0000E80082FF37C09091F3008091F2000297A3
:103D100031F48091F100813011F0863021F48091EE
:103D2000F1008093F3028091E8008B778093E800A4
:103D30000E94702123C080911503813AF9F480918B
:103D4000E800877F8093E8008091190390911A031F
:103D5000892B61F468E08BEE92E070E00E947F2096
:103D60008091E8008B778093E800089560E090E010
:103D700080E0F3CF809114038111C1CF0895809129
:103D80001503813AD9F78091190390911A03892B71
:103D9000A9F78091E800877F8093E8008091E80090
:103DA00080FFFCCF80910E018093F1008091E800AC
:103DB0008E77BCCF80911503813201F78091190372
:103DC00090911A03892BD1F68091E800877F809328
:103DD000E8000E9470218091170380930E010E94D9
:103DE000CF09089580911503813241F68091E80052
:103DF000877F8093E8000E94702180911803809350
:103E0000F402089580911503813A09F0B7CF8091AB
:103E1000E800877F8093E8008091E80080FFFCCF76
:103E20008091F402C1CF9FB7F8941092EA029FBF2D
:103E300090911403943009F048C02091E9002F704C
:103E40003091EC00932F917030FD90E8922B23E09D
:103E50002093E9002091EB0020FF34C02091EE0078
:103E600027FF30C02091E502222321F02091E800B5
:103E700025FF28C01092E50226E03091E80035FFCA
:103E800014C08093F1008091E80085FD27C08091E7
:103E9000E80080FFFCCF8091E8008E778093E800F7
:103EA0009F709093E90080E00895309114033430BE
:103EB00049F43091EB0035FD05C0215041F481E01B
:103EC0008093E5029F709093E9008FEF0895EFE9EA
:103ED000FFE03197F1F700C00000CFCF8FB7F89423
:103EE00021E02093EA028FBFDBCF84B7877F84BFB6
:103EF0000FB6F894A8958091600088618093600067
:103F0000109260000FBE80E890E00FB6F8948093A6
:103F10006100909361000FBE0E94581C08950E949A
:103F2000C0210E941D22E2EEF0E080818460808347
:103F300078940E949B24089582E091E00E94641B83
:103F4000089580911403853051F48FE996E00E9422
:103F50003B0480911403853019F00E94D31C08950E
:103F60000E94A81C80911203882399F30E94651C6B
:103F7000882379F30E941A200E94CF09EACF08957E
:103F80000E94C31F0895292F33272330310521F1C3
:103F900068F42130310509F443C02230310509F4B9
:103FA00044C090E080E030E020E026C021323105BE
:103FB00051F122323105A9F76330710590F7FB0109
:103FC000EE0FFF1FE55CFD4F20813181685C7D4F66
:103FD000FB01808190E010C099278130910581F02C
:103FE000009729F00297E9F6E7EBF6E002C0E5EE6C
:103FF000F6E0849190E09F01FA01318320830895D7
:10400000E3ECF6E0F6CF6330710558F6660F771FE4
:10401000FB01EF5BFD4F2081318189E090E0ECCF27
:1040200082E190E024E437E0E7CF8BE590E029EEF1
:1040300036E0E2CF80E189BD82E189BD09B400FEAE
:10404000FDCF8091D8008F7D8093D8008091E000D3
:1040500082608093E0008091E00081FDFCCF0895B4
:10406000AF92BF92CF92DF92FF920F931F93CF93A5
:10407000DF936C01EB018A010E948F21F82E8111E0
:1040800023C00115110539F0F80180819181C81B09
:10409000D90BC80ED91EB12CA12C2097A9F0809164
:1040A000E80085FD22C08091E8008E778093E800CB
:1040B00001151105A1F0F80180819181A80EB91EAA
:1040C000B182A08285E0F82E8F2DDF91CF911F91D4
:1040D0000F91FF90DF90CF90BF90AF9008950E9416
:1040E0008F218823D1F2F82EEFCFF60181916F0155
:1040F0008093F1002197FFEFAF1ABF0ACECFFC01EA
:1041000080911B0390911C0386179707A0F06115FF
:10411000710529F49091E8009E779093E80090E073
:104120006115710551F4911108C08091E80082FF7A
:1041300034C080E00895BC01F2CF8091140388233D
:10414000C1F18530C1F18091E80083FD30C08091DC
:10415000E80082FDEACF8091E80080FFE1CF809106
:10416000F3002091F200382F6115710519F0283005
:10417000310558F091E02830310509F090E02091A8
:10418000E8002E772093E800CBCF81918093F10057
:10419000615071092F5F3F4FE7CF8091140388234F
:1041A00041F0853041F08091E80083FFBECF81E08F
:1041B000089582E0089583E00895FC0180911B0337
:1041C00090911C0386179707A0F06115710529F4DB
:1041D0008091E8008E778093E80090E0611571058A
:1041E00051F4911108C08091E80082FF35C080E051
:1041F0000895BC01F2CF809114038823C9F1853062
:10420000C9F18091E80083FD31C08091E80082FD12
:10421000EACF8091E80080FFE1CF8091F300209108
:10422000F200382F6115710519F02830310558F06A
:1042300091E02830310509F090E08091E8008E7718
:104240008093E800CBCF84918093F1003196615048
:1042500071092F5F3F4FE6CF80911403882341F00F
:10426000853041F08091E80083FFBDCF81E0089563
:1042700082E0089583E00895982F973028F08F709A
:104280008093E90081E008959093E900242F762F30
:1042900050E0981731F07091EC002091ED005091B2
:1042A000F00021FD02C09F5FE8CF3091EB003E7F20
:1042B0003093EB003091ED003D7F3093ED00309175
:1042C000EB0031603093EB007093EC002093ED0035
:1042D0005093F0002091EE0027FDE5CF80E0089597
:1042E0008091150387FF13C08091E80082FF06C00C
:1042F0008091E8008B778093E80004C080911403DC
:104300008111F2CF0895809114038823D9F380910D
:10431000E80080FFF8CF8091E8008E77ECCF209105
:10432000E4003091E50095E6A9012091EC00822F90
:10433000817020FF06C08091E80080FF06C080E009
:1043400008952091E80022FD1AC08091140388236B
:1043500089F0853089F08091EB0085FD0FC02091B8
:10436000E4003091E50042175307F9F29150E1F66D
:1043700084E0089582E0089583E0089581E008953F
:104380000E942F220E943722E0EEF0E080818160BF
:104390008083E8EDF0E080818F77808319BCA7ED02
:1043A000B0E08C918E7F8C9380818F7E8083109281
:1043B000130308950F931F93CF93DF930E942F222F
:1043C0000E943722C8EDD0E088818F77888388816A
:1043D0008068888388818F7D888319BC109214033C
:1043E00010921003109212031092110300EE10E0CD
:1043F000F80180818B7F808388818160888342E09F
:1044000060E080E00E943C21E1EEF0E080818E7F60
:104410008083E2EEF0E0808181608083808188602B
:104420008083F80180818E7F80838881806188838A
:10443000DF91CF911F910F910895E8EDF0E0808119
:104440008F7E8083E7EDF0E080818160808384E06F
:1044500082BF81E0809313030E94DA210895E8ED82
:10446000F0E080818E7F80831092E20008951092A8
:10447000DA001092E10008951F920F920FB60F928A
:1044800011242F933F934F935F936F937F938F9359
:104490009F93AF93BF93EF93FF938091E10082FFCF
:1044A0000BC08091E20082FF07C08091E1008B7F0A
:1044B0008093E1000E94FE1D8091DA0080FF19C008
:1044C0008091D80080FF15C08091DA008E7F8093A4
:1044D000DA008091D90080FF96C080E189BD82E139
:1044E00089BD09B400FEFDCF81E0809314030E94D2
:1044F000C21D8091E10080FF19C08091E20080FF21
:1045000015C08091E2008E7F8093E2008091E200EE
:1045100080618093E2008091D80080628093D8000F
:1045200019BC85E0809314030E94E21D8091E10094
:1045300084FF2BC08091E20084FF27C080E189BD09
:1045400082E189BD89B5982F917080FFFBCF809162
:10455000D8008F7D8093D8008091E1008F7E80937A
:10456000E1008091E2008F7E8093E2008091E20082
:1045700081608093E20080911003882309F449C090
:1045800084E0809314030E94EF1D8091E10083FF7B
:1045900029C08091E20083FF25C08091E100877FE0
:1045A0008093E10082E080931403109210038091C5
:1045B000E1008E7F8093E1008091E2008E7F809306
:1045C000E2008091E20080618093E20042E060E0DE
:1045D00080E00E943C218091F00088608093F00090
:1045E0000E94DB1DFF91EF91BF91AF919F918F9141
:1045F0007F916F915F914F913F912F910F900FBEDF
:104600000F901F90189519BC109214030E94D41D8E
:1046100070CF8091E30087FD93E090931403B3CFB4
:104620001F920F920FB60F9211242F933F934F9327
:104630005F936F937F938F939F93AF93BF93CF932A
:10464000DF93EF93FF93D091E900DF708091EC004E
:10465000C82FC17080FDC0E81092E9008091F00081
:10466000877F8093F00078940E9454231092E90091
:104670008091F00088608093F000CD2BCF70C093C4
:10468000E900FF91EF91DF91CF91BF91AF919F91A1
:104690008F917F916F915F914F913F912F910F90EB
:1046A0000FBE0F901F901895AAE2B0E0EAE5F3E282
:1046B0000C94372585E193E02091F100FC012193D2
:1046C000CF01F3E08D319F07B9F70E94591E809109
:1046D000E80083FF1EC180911503909116039A3064
:1046E00008F017C1E92FF0E0EB53FA4D0C940825C0
:1046F000803899F0823809F00CC1809119038F70CD
:10470000873008F006C18093E9008091EB0085FBBB
:10471000882780F91092E90006C0809111039091DA
:104720001203911182609091E800977F9093E800C6
:104730008093F1001092F1008091E8008E77E5C03F
:10474000882309F4D3C0823009F0E3C080911703B5
:104750008111D6C0809119038F702FEF280F26305A
:1047600008F0D7C08093E9002091EB0020FFC8C07B
:10477000933031F48091EB0080628093EB00C0C0F5
:104780009091EB0090619093EB0021E030E001C04C
:10479000220F8A95EAF72093EA001092EA008091AE
:1047A000EB008860EACF8111B4C0109117031F7726
:1047B0008091E3008078812B8093E3008091E80072
:1047C000877F8093E8000E9470218091E80080FF3D
:1047D000FCCF8091E30080688093E30082E01111B8
:1047E00083E08093140395C08058823008F091C014
:1047F00080911703909118038C3D23E09207A1F557
:1048000083E08A838AE289834FB7F894DE011396A6
:1048100020E03EE051E2E32FF0E050935700E491B6
:1048200020FF03C0E295EF703F5FEF708E2F90E0A6
:10483000EA30C0F0C7968D939D932F5F243159F7CE
:104840004FBF8091E800877F8093E8006AE270E0C4
:10485000CE0101960E947F208091E8008B778093A3
:10486000E80057C0C096E7CF6091190370911A0312
:10487000AE014F5F5F4F0E94C01FBC01892B09F43E
:1048800048C09091E800977F9093E80089819A81D1
:104890000E94DD20E1CF8038E1F58091E800877F3C
:1048A0008093E800809110038093F10045CF81113F
:1048B00030C090911703923060F58091E800877FB7
:1048C0008093E800909310030E9470218091100360
:1048D000882311F084E005C08091E30087FDFACFC2
:1048E00081E0809314030E943F1E13C08091170340
:1048F000813079F481E0933009F080E080931203F5
:104900001092E9008091E800877F8093E8000E9480
:1049100070218091E80083FF0AC08091E800877FC2
:104920008093E8008091EB0080628093EB00AA9670
:10493000E3E00C945325CF93809114038823A1F0D6
:10494000C091E900CF709091EC00892F817090FDAB
:1049500080E8C82B1092E9008091E80083FD0E9456
:104960005423CF70C093E900CF910895DB018F935A
:104970009F930E941D25BF91AF91A29F800D911D15
:10498000A39F900DB29F900D11240895991B79E07B
:1049900004C0991F961708F0961B881F7A95C9F7CF
:1049A00080950895AA1BBB1B51E107C0AA1FBB1F1E
:1049B000A617B70710F0A61BB70B881F991F5A95AB
:1049C000A9F780959095BC01CD010895A1E21A2E1A
:1049D000AA1BBB1BFD010DC0AA1FBB1FEE1FFF1FA3
:1049E000A217B307E407F50720F0A21BB30BE40BF3
:1049F000F50B661F771F881F991F1A9469F760953A
:104A00007095809590959B01AC01BD01CF010895F3
:104A1000EE0FFF1F0590F491E02D0994A29FB001C5
:104A2000B39FC001A39F700D811D1124911DB29FE2
:104A3000700D811D1124911D08950E940E25A59FC2
:104A4000900DB49F900DA49F800D911D1124089589
:104A50002F923F924F925F926F927F928F929F928E
:104A6000AF92BF92CF92DF92EF92FF920F931F937C
:104A7000CF93DF93CDB7DEB7CA1BDB0B0FB6F8942D
:104A8000DEBF0FBECDBF09942A88398848885F846D
:104A90006E847D848C849B84AA84B984C884DF80DE
:104AA000EE80FD800C811B81AA81B981CE0FD11DC2
:104AB0000FB6F894DEBF0FBECDBFED010895FB0128
:104AC000DC0104C08D910190801921F441505040C7
:104AD000C8F7881B990B0895FB01DC0102C0019007
:104AE0000D9241505040D8F70895F999FECF92BDEC
:104AF00081BDF89A992780B50895A8E1B0E042E019
:104B000050E00C94A925262FF999FECF92BD81BDC6
:104B1000F89A019700B4021639F01FBA20BD0FB6FB
:104B2000F894FA9AF99A0FBE08950396272F0E94D7
:104B300084250E948325252F0E948425242F0C94F0
:104B400084250196272F0E9484250C948325DC015F
:104B5000CB01FC01F999FECF06C0F2BDE1BDF89A88
:104B6000319600B40D9241505040B8F70895F89432
:104B7000FFCFC907C907FA07FA07870829082908D4
:104B80002908A3081409230923097823A0238924C9
:0E4B9000A0238924D323F42389244B24572403
:104B9E00B6025B1D5F1DC11DBC1DB71D5E1D01E272
:104BAE0000E900EA00B500B600B700CD008301CCE5
:104BBE00008A019201940121022302240225022679
:104BCE000227022A02B300B4006F007000818283B4
:104BDE00E200E900EA00B500B600B700CD0083019F
:104BEE00CC008A01920194012102230224022502A3
:104BFE00260227022A02B300B4006F0070008182E1
:104C0E0083F1F431323337919294969734C6F0F59E
:104C1E00F6F70A092D2056657273696F6E202D0AFC
:104C2E005649443A20307831333337284D61706C11
:104C3E006520436F6D707574696E67292050494405
:104C4E003A20307836303137284A4E414F29205697
:104C5E0045523A203078303030310A4255494C4472
:104C6E003A202028536570203131203230323229DB
:104C7E000A4F5054494F4E533A204C554641204509
:104C8E00585452414B455920434F4E534F4C45209B
:104C9E00434F4D4D414E4420343039360A4743433D
:104CAE003A20382E332E30204156522D4C49424355
:104CBE003A20322E302E30204156525F4152434818
:104CCE003A20617672350A00403222AA07780756DA
:084CDE0007FB0614072D070077
:00000001FF
