:100000000C9484020C94CB020C94CB020C94CB0283
:100010000C94CB020C94CB020C94CB020C94CB022C
:100020000C94CB020C94CB020C94511F0C94232003
:100030000C9470190C94CB020C94CB020C94CB0250
:100040000C94CB020C94CB020C94CB020C94CB02FC
:100050000C94CB020C94E4190C94CB020C94CB02BC
:100060000C94CB020C94CB020C94CB020C94CB02DC
:100070000C94CB020C94CB020C94CB020C94CB02CC
:100080000C94CB020C94CB020C94CB020C94CB02BC
:100090000C94CB020C94CB020C94CB020C94CB02AC
:1000A0000C94CB020C94CB020C94CB020F031203E2
:1000B0008D031D03250331038D038D038D037B0306
:1000C0007E03340337033C034A0358035B035F0397
:1000D0006D03AC0FAC0FDE0FDE0F2B106911691131
:1000E00069114B10E810F910F910591169116911D3
:1000F0006211E711E711F911F911F011F911F91174
:10010000F911E711E711F511F911F911F511902025
:10011000B720A921B720A92103212621A9217C21CB
:100120008B2129001E001F00200021002200230037
:1001300024002500260027002D002E0000002A00A4
:100140002B0014001A000800150017001C001800EE
:100150000C00120013002F003000310000003900A5
:1001600004001600070009000A000B000D000E0035
:100170000F0033003400000028000000E100000000
:100180001D001B00060019000500110010003600BC
:1001900037003800520000000000E000E300E200F9
:1001A0000000000000002C000000000000000151D1
:1001B000500051004F00000000003A003B003C009E
:1001C0003D003E003F00400041004200430044002B
:1001D000450000004C000000AC00AB00AE00000089
:1001E000000000000000000000000000000000000F
:1001F000000000000000AA00A900A8000000000004
:1002000000000000000000000000000000000000EE
:1002100000000000000000000000000000000000DE
:1002200000000000000000000000000000000000CE
:1002300000000000000000000000000000000000BE
:1002400000000000010000000000000000000000AD
:100250000000000000002A2B280000000000000021
:1002600000000000000000000029000000002C1E1B
:100270003420212224342627252E362D3738271ED8
:100280001F202122232425263333362E37381F04FE
:1002900005060708090A0B0C0D0E0F101112131496
:1002A00015161718191A1B1C1D2F3130232D350454
:1002B00005060708090A0B0C0D0E0F101112131476
:1002C00015161718191A1B1C1D2F3130354C00003C
:1002D000000000000000000000000000000000001E
:1002E000000000000000000000000000000000000E
:1002F00000000000000000000000000000000000FE
:1003000000000000000000000000000000000000ED
:1003100000000000000000000000000000000000DD
:1003200000000000000000000000000000000000CD
:1003300000000000000000000000000000000000BD
:1003400000000000000000000000000000000000AD
:10035000000000000000000000000000000000009D
:10036000000000000000000000000000000000018C
:100370000101010101000101010100000000000074
:100380000000000000000000010001000101010167
:10039000010101010101010101010101010101014D
:1003A0000101010101010101010000000101000042
:1003B000000000000000000000000000000000003D
:1003C0000000000000000000000101010100040322
:1003D00030000000100350006C00610069006E00E6
:1003E00036003000000016034D006100610072000D
:1003F000740065006E00770075007400000004034F
:10040000090409025B00030100A0FA0904000001CD
:1004100003010100092111010001224000070581AB
:100420000308000A09040200010300000009211169
:100430000100012236000705840320000A09040197
:10044000000203000000092111010001222200071F
:10045000058203200001070503032000011201109B
:1004600001000000080547600101000102030106C8
:1004700060FF0961A1010962150026FF0095207542
:100480000881020963150026FF0095207508910276
:10049000C005010980A10185031A81002A83001685
:1004A0000100260300950175108100C0050C0901AB
:1004B000A10185041A01002A9C02160100269C0253
:1004C000950175108100C005010906A101050719F4
:1004D000E029E71500250195087501810295017550
:1004E0000881010507190029FF150026FF00950660
:1004F0007508810005081901290595057501910206
:10050000950175039101C00011241FBECFEFDAE001
:10051000DEBFCDBF04B603FE27C08091FC019091E1
:10052000FD01A091FE01B091FF018730904BA740E3
:10053000B04BD1F41092FC011092FD011092FE011B
:100540001092FF0114BE84B7877F84BF0FB6F89462
:10055000A89580916000886180936000109260008F
:100560000FBEE0E0F8E3099511E0A0E0B1E0EEE4B1
:10057000F4E402C005900D92A033B107D9F721E051
:10058000A0E3B1E001C01D92AC3FB207E1F70E94C9
:10059000FC1B0C9425220C94000082E290E00E9447
:1005A000EB218F31954451F484E290E00E94E321E5
:1005B00091E0883009F090E0892F01C080E08170DF
:1005C0000895CF93C82F811103C06FEF7FEF02C052
:1005D0006FE175E482E290E00E940F22C11102C037
:1005E0006FEF01C068E084E290E0CF910C94F121BC
:1005F00080E00E94E1020C943C181F93CF93DF939C
:10060000EC01162FE8818E2F90E0FC013197E33149
:10061000F10508F082C0EA5AFF4F0C94DD211982DF
:1006200088E028C08981813009F077C00E94AE1926
:100630009A838B837C836D8372C04B816A818981AD
:100640000E94E20A9C838D836AC02C8130E0322FA5
:1006500022278D81282B4B816A8189810E94FB0A88
:100660005EC00E94170B5BC00E94B10B26C00E94A7
:10067000B30B99838A8353C06B8170E0898190E0CA
:10068000982F88272A81AE014C5F5F4F822B0E94F2
:10069000B60B45C06B8170E0898190E0982F882768
:1006A0002A81AE014C5F5F4F822B0E94DB0B37C06B
:1006B0000E94060C34C00E94CF0A898330C06B812F
:1006C00070E0898190E0982F88272A81AE014C5FE5
:1006D0005F4F822B0E94560B22C06B8170E0898194
:1006E00090E0982F88272A81AE014C5F5F4F822BC4
:1006F0000E947A0B14C00E94F80211C0CE010E9421
:10070000EC1A2FEF81EE94E0215080409040E1F709
:1007100000C000000E940A1A02C08FEF8883612F78
:10072000CE01DF91CF911F910C94EC1A0E94CD0263
:10073000811107C00E94170B0E94060C81E00C94E7
:10074000E10208950E94FD098FE19EE40197F1F70F
:1007500000C000008FE19EE40197F1F700C00000A7
:100760000E94FD0980E00E94A80980FF04C00E9449
:10077000F8020C940A1A08950E94A2030E9496039C
:100780000C94A6090C94A709FB0122818031FFE596
:100790009F0731F081313FE5930781F482E001C08A
:1007A00081E0222319F00E94131602C00E94341621
:1007B00043E062E081E00E943C050EC0222351F03C
:1007C0009C0122513F452031310520F482510E9485
:1007D000160C02C00C943E0480E008959C013F502A
:1007E0002F3F310509F058F49C013327A9014153EB
:1007F00051094230510518F4C901986F0895FC0160
:10080000EE0FFF1FE253FC4F859194910895CF9313
:10081000DF93EC018FEC860F823040F58A818823CC
:10082000E1F0613311F082E001C081E00E94131613
:100830009D81892F807F69F090FD0BC092959F70FC
:10084000892F90E0039794F083E0DF91CF910C948F
:1008500059168D818F708D8309C0613311F082E04C
:1008600001C081E0DF91CF910C943416DF91CF91DC
:10087000089508950895089581E0089581E0089508
:100880001F93CF93DF9300D000D01F92CDB7DEB778
:1008900049835A8320915C0189819A81211112C078
:1008A000662349F00E940C17182F682F89819A81BE
:1008B0000E94B11603C00E94E016182F69817A8148
:1008C000812F04C00E940C1769817A810F900F90CC
:1008D0000F900F900F90DF91CF911F910C94A40B6C
:1008E000FC01408151816281738184810C944004B8
:1008F0001F93CF93DF93282F30E0F901E25BFD4F88
:100900001491F901E25BFC4FE491C1E0E11101C0F7
:10091000C0E0F901E253FD4F2491D1E0211101C063
:10092000D0E0CC2319F081EE0E946A0EDD2319F08D
:1009300086EE0E946A0E812F0E94590FDD2319F066
:1009400086EE0E942D0FCC2331F081EEDF91CF9106
:100950001F910C942D0FDF91CF911F910895FF925D
:100960000F931F93CF93DF93EC01F62E888188239A
:1009700031F18E010F5F1F4F813031F4C9818C2F0F
:100980000E946A0E8C2F0AC0823029F489810E944D
:100990006A0EE80108C0833021F489810E942D0F7E
:1009A000F8CF0E94780421968F2D8823F9F2EFE981
:1009B000FFE03197F1F700C000008150F6CFDF91E2
:1009C000CF911F910F91FF90089560E00C94AF04B8
:1009D0008F929F92AF92BF92CF92DF92EF92FF924F
:1009E0000F931F936B017C0181E090E0A0E0B0E0E9
:1009F0004C015D0104C0880C991CAA1CBB1C4A95C3
:100A0000D2F7AC01BD0104C0440F551F661F771F0C
:100A10002A95D2F7482959296A297B2904C0880FC9
:100A2000991FAA1FBB1F0A95D2F78A019B010C21AF
:100A30001D212E213F21041715072607370739F4FA
:100A4000BC01CD016C297D298E299F290AC0809582
:100A50009095A095B095BC01CD016C217D218E2192
:100A60009F211F910F91FF90EF90DF90CF90BF904B
:100A7000AF909F908F9008950F93382F262F6091FD
:100A8000C7017091C8018091C9019091CA01042FDA
:100A9000432F0E94E8040F910C94ED150E94421818
:100AA000811102C00E94E2180C94BC030C94C20392
:100AB0000C94390408950E94D7110E945A052FEF13
:100AC00084E39CE0215080409040E1F700C00000AA
:100AD0000C940A1A0F931F93CF93DF938C010E94FB
:100AE0007004EC01B8010E94C403882309F499C181
:100AF000B801CE010E94D30C882309F492C1C631FB
:100B0000FCE5DF0739F50E948C17282FF801828158
:100B10004091000150910101882379F02A7A91E0F7
:100B200009F490E090933001911102C069E201C094
:100B300065E3CA010E9416190AC080913001811133
:100B400002C069E201C065E3CA010E9418190E944F
:100B5000D81767C1C7318CE5D80708F037C1C13055
:100B6000ECE5DE0771F4F8018281882309F459C1AC
:100B70008091DC01982F909590FB80F98093DC01A7
:100B800050C1C230FCE5DF0708F40FC1F8018281D3
:100B9000882309F40DC10E944218811102C00E94ED
:100BA000E2180E9455189093EE018093ED01CF302A
:100BB000FCE5DF0709F4CDC008F042C0C830ECE521
:100BC000DE0709F4A8C0F0F4C4308CE5D80709F4B6
:100BD00090C068F4C230FCE5DF0709F486C0C3307A
:100BE000DC4509F0D9C08091ED018260D3C0C630E8
:100BF000ECE5DE0709F487C008F089C08091ED01BB
:100C00008860C8C0CB308CE5D80709F493C068F47D
:100C1000C930FCE5DF0709F482C0CA30DC4509F0C1
:100C2000BBC08091ED0188607EC0CD30ECE5DE0771
:100C300009F484C008F085C08091ED018D7FAAC0C1
:100C4000CA3F8CE5D80709F457C050F5C231FCE51E
:100C5000DF0709F486C068F4C031ECE5DE0709F46B
:100C60007CC0C131DC4509F097C08091ED018F7BDC
:100C700091C0C4318CE5D80709F483C008F475C06D
:100C8000C531DC4509F088C08091ED0182FB222747
:100C900020F991E0922790FB82F990FB83F97AC0CA
:100CA000CD3F8CE5D80709F450C058F4CB3FFCE5A4
:100CB000DF0729F1CC3FDC4509F06EC08091EE01E1
:100CC0005CC0CF3FECE5DE0709F454C070F1C115FC
:100CD000DD4509F061C08091EE01982F90959170EB
:100CE0008E7F892B90FB81F949C08091ED01816055
:100CF00051C08091ED0117C08091EE0119C0809123
:100D0000EE0182603BC08091ED01806143C0809123
:100D1000ED0180623FC08091ED0180643BC0809115
:100D2000ED01806837C0846035C08091EE0182603B
:100D3000816024C08091ED018E7F2CC08091ED01F7
:100D400017C08091ED01877F25C08091EE018D7FD6
:100D500015C08091ED018F7E1DC08091ED018F7DCA
:100D600019C08091ED018F7715C08091ED01877FCB
:100D70008B7F10C08091EE018D7F8E7F8093EE017E
:100D80000BC08091ED0187FB222720F991E092278B
:100D900090FB87F98093ED018091ED019091EE0138
:100DA0000E9466180E94D7113CC0C115DC4539F07D
:100DB000C801DF91CF911F910F910C943C04F80171
:100DC0008281882371F10E945B052BC0CE3DECE54A
:100DD000DE0739F4F8018281882319F10E94E218B4
:100DE00020C0CF3DFCE5DF07A8F4CC3D8CE5D8075B
:100DF00031F4F80182818823A1F080E008C0CD3D64
:100E0000DC45B1F6F8018281882359F082E00E9426
:100E1000C91C07C0CE018A5F9C45079708F4B6CE6F
:100E2000C7CF80E0DF91CF911F910F91089580E0AF
:100E300090E00895CF93DF930E94A40B0E94CF0807
:100E4000EC01811520E59207F0F5811530E4930758
:100E500008F024C1883E910500F5803E910508F018
:100E60009AC1883A910570F4853A910508F09FC0BF
:100E70008130910509F48FC108F440C1049708F04E
:100E80008AC13CC18F3B910508F49CC0803C910510
:100E900008F434C1805C9109F4C0811540E29407E4
:100EA00058F4C11581E0D80708F075C1C03FD105DD
:100EB00008F424C1D0656FC1811520E3920708F0C2
:100EC000E4C09F70DEC0811535E5930708F044C08B
:100ED000811544E5940708F0F8C0C11582E5D807EC
:100EE00008F5C11521E5D20708F0DBC08C2F83700F
:100EF00021E030E002C0220F331F8A95E2F73C6800
:100F0000CE0174E0969587957A95E1F78370382B3A
:100F1000CF70C695C69580E2C89FE0011124C22B10
:100F2000D32B39C12C2F26952695CE018370992776
:100F3000C115D34508F0BAC040E2249F90011124A6
:100F4000C1E0D0E002C0CC0FDD1F8A95E2F72C2B68
:100F50003D2BE901DC681FC1811549E59407A0F428
:100F6000C11588E5D80708F0B5C0C11526E5D20738
:100F700008F0C4C08C2F0E9463098F71C82FD0E085
:100F8000DC2FCC27D06207C181153AE5930708F41E
:100F9000A6C090568115904208F0B0C08D2F8F7179
:100FA0000E946309DD27D0628F71D82BF4C0853A87
:100FB000910509F4A6C0863A910509F0A5C0C2E8DA
:100FC000D0E4E9C0883A910509F4A1C0893A9105B5
:100FD00009F4A0C08A3A910509F49FC08B3A9105A3
:100FE00009F49EC08C3A910509F49DC08B3B910594
:100FF00009F49CC08C3B910509F49BC08D3A910586
:1010000009F49AC0803B910509F499C08E3A910584
:1010100009F498C08F3A910509F497C0813B910576
:1010200009F496C0823B910509F495C0833B910574
:1010300009F494C0843B910509F493C0853B910564
:1010400009F492C0863B910509F491C0873B910554
:1010500009F490C0883B910509F48FC0893B910544
:1010600009F48EC08D3B910509F48DC08E3B91052E
:1010700009F48CC08A3B910509F48BC0C0E0D4E42C
:101080008AC00E94EE03EC0186C09927D3FF03C0FB
:10109000EC01D86C80C0EC01D06C7DC0DF70D06AF0
:1010A0007AC0DC2FCC27C16FD06A75C040E2249F84
:1010B00090011124C1E0D0E002C0CC0FDD1F8A9561
:1010C000E2F7C22BD32BDA6866C0D82FCC27C46FC7
:1010D000D06A61C0DC2FCC27C06FD06A5CC08F7033
:1010E0000E94630994E0D695C7959A95E1F7CF7071
:1010F000D0E0DC2FCC27D069C82B4DC0C0E0D0E0B9
:101100004AC0C1E8D0E447C0C3E8D0E444C0C2EE5E
:10111000D4E441C0C9EED4E43EC0CAEED4E43BC03E
:10112000C5EBD4E438C0C6EBD4E435C0C3EBD4E49B
:1011300032C0C4EBD4E42FC0C7EBD4E42CC0CCEC59
:10114000D4E429C0CDECD4E426C0C3E8D5E423C060
:10115000CAE8D5E420C0C2E9D5E41DC0C4E9D5E49D
:101160001AC0C1E2D6E417C0C3E2D6E414C0C4E298
:10117000D6E411C0C5E2D6E40EC0C6E2D6E40BC088
:10118000C7E2D6E408C0CFE6D4E405C0C0E7D4E4A3
:1011900002C0CAE2D6E4CE01DF91CF910895823831
:1011A000910569F1B0F48133910509F46DC048F4FB
:1011B0008932910509F463C08A32910509F469C046
:1011C00008958533910509F455C089339105B9F027
:1011D0000895833E910569F138F4803E9105B1F0A0
:1011E000823E910509F10895863E9105A9F1873E59
:1011F0009105B9F1843E910509F064C023C02091A6
:10120000ED0120FD4FC021FD4DC008958091ED01FD
:1012100080FD44C08091EE0180FF44C08091ED01CB
:1012200084FD42C083EE4DC08091ED0182FF38C045
:10123000F5CF8091ED0182FD33C08091EE0180FDFC
:1012400031C0ECCF8091EE0181FF32C08091ED0181
:1012500084FD2AC087EE35C08091ED0183FF26C052
:10126000F5CF8091ED0183FD21C08091EE0181FDDC
:101270001FC0ECCF8091ED0185FD1CC01DC0809189
:10128000ED0185FD19C016C08091ED0186FD16C0E7
:1012900017C08091ED0186FD13C010C089E311C015
:1012A00082EE0FC080EE0DC080E00BC086EE09C05C
:1012B00084EE07C089E205C085E303C08AE201C06D
:1012C00081E390E008959091ED0192FF0DC0282FE9
:1012D0002871283019F4877F846006C0282F247174
:1012E000243011F48B7F886093FF0DC0282F287164
:1012F000283119F4877E846106C0282F2471243197
:1013000011F48B7E88612091EE0120FF0DC0382FF3
:101310003871383019F4877F816006C0382F3171F9
:10132000313011F48E7F886021FF0DC0282F287185
:10133000283119F4877E816106C0282F217121315F
:1013400011F48E7E886194FD877E08950895089536
:10135000E82FF0E0EE0FFF1FEF5CFE4F80819181E0
:1013600008950895ACE1B1E041E050E025E02A0F96
:101370008D91E82FE295EF70F0E031A18F70BA0106
:1013800002C0660F771F8A95E2F7CB01962F9095E2
:10139000932391A392A1892B82A32A13E9CFADE0D5
:1013A000B1E041E050E02FE02A0F8D91E82FE29567
:1013B000EF70F0E031A18F70BA0102C0660F771FA5
:1013C0008A95E2F7CB01962F9095932391A392A152
:1013D000892B82A32A13E9CFEBE3F1E0A1E3B1E08B
:1013E000119211921D921D9271E0E534F707C1F739
:1013F00085E00E94940A0C944E055F926F927F9252
:101400008F929F92AF92BF92CF92DF92EF92FF9214
:101410000F931F93CF93DF930CE111E0ABE3B1E0A7
:10142000612CEE24E394F12C5D018D909C9011973A
:1014300011961C921E92E80189918E01E82FE29587
:10144000EF70F0E091A18F70A70101C0440F8A9561
:10145000EAF7892F842B81A382A1542E50948521F1
:1014600082A3D0EADA95F1F78DE0C82E81E0D82E7C
:1014700080E090E0E60179906E01272D22952F7093
:1014800030E0E90168A12D913C91119770E0D72DD2
:10149000DF7002C075956795DA95E2F760FD08C0C8
:1014A000B701082E02C0660F771F0A94E2F702C048
:1014B00060E070E0262B372B11963C932E9301961B
:1014C0008F309105B9F681A1D52DD823D1A382A162
:1014D000482B42A3129681E0F501208131818216CA
:1014E000930609F480E0682AF1E0A534BF0709F00B
:1014F0009BCF262D45E061E371E08BE391E00E94F4
:10150000950A0E945605862DDF91CF911F910F916C
:10151000FF90EF90DF90CF90BF90AF909F908F9013
:101520007F906F905F9008950895FF920F931F939F
:10153000CF93DF93F82E092F162FD72FC42F2223F6
:1015400049F081E0809347010E94A21990934601DF
:1015500080934501809147018823D9F0809145010E
:10156000909146010E94BA19069798F0EF2DF02F3E
:10157000A12FBD2F80E090E04C2F50E084179507FD
:1015800034F4219131912D933D930196F7CF109230
:101590004701DF91CF911F910F91FF90089584E053
:1015A000089550E0440F551F2EE1629F400D511DDC
:1015B00011249A0166E9869F200D311D1124C9016D
:1015C000859608950F931F93CF93DF930E94D10ABE
:1015D0008C010E94E321C82FD0E0DC2FCC27C8016A
:1015E00001960E94E3219E01282BC901DF91CF9132
:1015F0001F910F9108950F931F93CF93DF9300D006
:10160000CDB7DEB72A8339830E94D10A8C01398194
:10161000632F0E94F1212A81622FC80101960F9049
:101620000F90DF91CF911F910F910C94F121AF9208
:10163000BF92CF92DF92EF92FF920F931F93CF93BF
:10164000DF93A12CE12CF12CB12C00E010E0C0E0E4
:10165000D0E06801CE0CDF1CFE01EE0FFF1FEC0D89
:10166000FD1DEE5DFE4F259134914C2F6B2D8A2D83
:101670000E94FB0A2196CF30D10571F7025E1F4F01
:10168000B39485E0B812E3CF86E9E80EF11CA39489
:1016900084E0A812D9CFDF91CF911F910F91FF90D5
:1016A000EF90DF90CF90BF90AF900895EF92FF92B0
:1016B0000F931F93CF93DF93EA017A01E60EF71E93
:1016C0008C01C8018596CE15DF0569F0083522E04A
:1016D000120720F40E94E321888301C0188221961A
:1016E0000F5F1F4FEECFDF91CF911F910F91FF90B2
:1016F000EF900895CF92DF92EF92FF920F931F9396
:10170000CF93DF937C016A018C01060F171FEC0158
:10171000CE018596C017D10771F0C83522E0D207F7
:1017200040F4FE01EE19FF09EC0DFD1D60810E94E1
:10173000F1212196EDCFDF91CF911F910F91FF9075
:10174000EF90DF90CF900895462F843038F47530B5
:1017500028F46F3018F4672F0C94E20A80E090E0D0
:10176000089580E1089583E891E00895EF92FF9253
:101770000F931F93CF93DF93EA017A01E60EF71ED2
:101780008C01C80183589D4FCE15DF0569F00338E1
:1017900021E0120720F40E94E321888301C018820F
:1017A00021960F5F1F4FEDCFDF91CF911F910F91CA
:1017B000FF90EF900895CF92DF92EF92FF920F93F8
:1017C0001F93CF93DF937C016A018C01060F171FD3
:1017D000EC01CE0183589D4FC017D10771F0C3387B
:1017E00021E0D20740F4FE01EE19FF09EC0DFD1DCA
:1017F00060810E94F1212196ECCFDF91CF911F9162
:101800000F91FF90EF90DF90CF900895CF93DF93EB
:10181000CDE7D2E060E0CE010E94F1212196C11512
:1018200084E0D807B9F7DF91CF910895EF92FF9246
:101830000F931F93CF93DF9300D01F92CDB7DEB7E6
:10184000F82E8FE08F15C0F18FEF93E00E94E32117
:10185000811132C00DE712E0FF2069F0011584E02C
:10186000180751F1C8010E94E321811101C0FA94C7
:101870000F5F1F4FF1CF19821A821B8278018FEF01
:10188000E81AF80AC8010E94E32189831A82882392
:1018900099F09FEF980F933048F40E5F1F4FC701E8
:1018A0000E94E3218A83882339F07801CE010196D2
:1018B0000E94E5048701E2CF0F900F900F90DF9117
:1018C000CF911F910F91FF90EF9008950F931F9369
:1018D000CF93DF93C62FD42F022FFC018281882360
:1018E000C9F060934A010E94A21990934901809324
:1018F000480180E28C0F883008F050C0C77081E04A
:1019000001C0880FCA95EAF7DF91CF911F910F911F
:101910000C946C0F10914A01161330C0809148014D
:10192000909149010E94BA19883C910538F5C0E2AE
:10193000CD0F1D17B9F080E2810F883040F4177089
:1019400081E001C0880F1A95EAF70E94730FC83032
:1019500048F481E09D2F977001C0880F9A95EAF7AF
:101960000E946C0F802F0E94590FC830B8F4D770B6
:1019700081E001C0880FDA95EAF70AC080E28C0F97
:10198000883060F4C77081E001C0880FCA95EAF71B
:10199000DF91CF911F910F910C94730FDF91CF9135
:1019A0001F910F9108959C01CB01233F4CE5340713
:1019B000F9F078F4283DFCE53F07B9F0293D4CE506
:1019C000340711F1273D3C4531F526E241EE61EE49
:1019D0001EC0253FFCE53F0799F070F0263F3C45CF
:1019E000D1F427E245EE66EE12C027E245EE0EC0C6
:1019F00026E241EE60EE0BC027E245EE64EE07C042
:101A000026E241EE62EE03C028E241E065EE0E946C
:101A1000660C80E00895FC018281882319F0109201
:101A20004A01089581E008959093500180934F01F9
:101A30000895E0914F01F0915001309721F001900D
:101A4000F081E02D099480E00895E0914F01F0913C
:101A50005001309721F00280F381E02D0994089520
:101A600020914D0130914E018217930771F09093B0
:101A70004E0180934D01E0914F01F091500130975C
:101A800021F00680F781E02D0994089520914B0103
:101A900030914C018217930771F090934C01809321
:101AA0004B01E0914F01F0915001309721F00084FB
:101AB000F185E02D0994089585B7806885BF85B7C5
:101AC000806885BF0895089508950C94640D089565
:101AD0000C94670D0E945C0D0E94630D0C94650DC3
:101AE00081E008950E9499190E94B2090E942E1A5D
:101AF0000C94680D4F925F927F928F929F92AF925B
:101B0000BF92CF92DF92EF92FF920F931F93CF93EA
:101B1000DF93CDB7DEB72A970FB6F894DEBF0FBEBE
:101B2000CDBF0E94FD090E94700D811111C08FEF81
:101B300089838A831B820E94A2198160782F9D83EA
:101B40008C8349815A816B818D810E94360E57C0EA
:101B500092E5C92E91E0D92E00E010E0AA24A394CA
:101B6000B12C702E802F0E94A8094C01F6014190E3
:101B700051906F01482659264114510431F40F5FEA
:101B80001F4F0530110569F7D2CF8091DC0181FD2F
:101B90000E94B10920E030E07501022E02C0EE0C77
:101BA000FF1C0A94E2F7C70184219521892B09F1D2
:101BB0002E837F828E209F2091E0892809F490E077
:101BC00098870E94A2198160782F9A8789874E8111
:101BD0005F8168858A850E94360E000F111FF8010B
:101BE000EE5AFE4F80819181E826F926F182E0824B
:101BF00006C02F5F3F4F2F30310571F6C0CF1091D7
:101C000051010E94190D1817D9F00E94190D8093E7
:101C100051012A960FB6F894DEBF0FBECDBFDF91FB
:101C2000CF911F910F91FF90EF90DF90CF90BF90D9
:101C3000AF909F908F907F905F904F900C9458053D
:101C40002A960FB6F894DEBF0FBECDBFDF91CF91BD
:101C50001F910F91FF90EF90DF90CF90BF90AF90CA
:101C60009F908F907F905F904F900895CF93DF93D8
:101C7000CDB7DEB72B970FB6F894DEBF0FBECDBF42
:101C80004F83588769877A878B87DE01119686E0B4
:101C9000FD0111928A95E9F785E0FE0137960190E2
:101CA0000D928A95E1F749815A816B817C818D8102
:101CB0009E810E9481142B960FB6F894DEBF0FBE52
:101CC000CDBFDF91CF910895FC01808191810E9469
:101CD0004D170895882309F4BFC0682F8CEF860F35
:101CE000813A38F480910001909101010E94161907
:101CF0000CC080E2860F883050F4677081E001C02C
:101D0000880F6A95EAF70E948F170C94D8178BE515
:101D1000860F833070F4653A29F0663A31F083E833
:101D200090E005C081E890E002C082E890E00C9469
:101D3000300D88E5860F873108F08EC0683A09F4C7
:101D400045C0693A09F445C06A3A09F445C06B3A9E
:101D500009F445C06C3A09F445C06B3B09F445C031
:101D60006C3B09F445C06D3A09F445C0603B09F489
:101D700045C06E3A09F445C06F3A09F445C0613B6D
:101D800009F445C0623B09F445C0633B09F445C012
:101D9000643B09F445C0653B09F445C0663B09F462
:101DA00045C0673B09F445C0683B09F445C0693B41
:101DB00009F445C06D3B09F445C06E3B09F445C0CC
:101DC0006A3B09F445C080E090E044C082EE90E0B8
:101DD00041C089EE90E03EC08AEE90E03BC085EBCA
:101DE00090E038C086EB90E035C083EB90E032C0E5
:101DF00084EB90E02FC087EB90E02CC08CEC90E05F
:101E000029C08DEC90E026C083E891E023C08AE8E9
:101E100091E020C082E991E01DC084E991E01AC000
:101E200081E292E017C083E292E014C084E292E083
:101E300011C085E292E00EC086E292E00BC087E21C
:101E400092E008C08FE690E005C080E790E002C015
:101E50008AE292E00C94460D0895882349F1682F98
:101E60008CEF860F813A38F4809100019091010146
:101E70000E9418190CC080E2860F883050F46770F9
:101E800081E001C0880F6A95EAF70E9495170C94CB
:101E9000D8178BE5860F833020F480E090E00C9417
:101EA000300D685A673120F480E090E00C94460DC4
:101EB0000895CF93C82F0E946A0EC93349F42FEFBB
:101EC00087EE93E0215080409040E1F700C0000091
:101ED0008C2FCF910C942D0F882321F00E948F1707
:101EE0000C94D8170895882321F00E9495170C941C
:101EF000D8170895BF92CF92DF92EF92FF920F937F
:101F00001F93CF93DF937C01062FC72FFC01158110
:101F100012951F70D281D1110E94AC170E948517B3
:101F2000882379F0DD2369F080E2800F883048F063
:101F300082E00E9423180E94851791E0B82EB926EE
:101F400001C0B12CCC2EC2948FE0C822D12CF60156
:101F5000E759FF4F0C94DD218C2F807FCF708823B1
:101F600011F0C295C07FDD2399F0CC2309F48CC118
:101F700080E2800F883010F0011104C08C2F0E9485
:101F80008F1703C08C2F0E949F170E94D8177CC107
:101F9000802F0E942D0FCC2309F49BC180E2800F7B
:101FA000883010F0011104C08C2F0E94951703C0D7
:101FB0008C2F0E94A5170E94D8178BC18C2F807F71
:101FC000CF70803211F0C295C07F002319F001302C
:101FD000C9F022C0DD2371F0112341F0113031F43A
:101FE0000E94BF178C2B0E94C51773C10E94BF1798
:101FF0008C2B1DC0112319F0113009F46AC10E9405
:10200000CE1725C0DD2321F0163008F062C10EC0C6
:10201000153008F05EC11BC0DD2361F0112331F0E3
:10202000F701858180FF30C18F7085838C2F0E94DE
:102030006C0F4FC1112359F0093309F036C1FFEF7E
:1020400027EE83E0F15020408040E1F72CC18C2F37
:102050000E94730F3EC18C2F86958695837090E009
:10206000009719F0019761F034C1DD2321F0802F32
:102070009C2F937002C080E090E00E94300D34C12C
:10208000DD2321F0802F9C2F937002C080E090E030
:102090000E94460D29C18C2F837009F049C0D111CF
:1020A0001FC1402F429546954770440F440F602F43
:1020B0006F70862F90E0A0E0B0E0042E04C0880F7F
:1020C000991FAA1FBB1F0A94D2F704FF10C00FE08C
:1020D00010E020E030E004C0000F111F221F331F6A
:1020E0004A95D2F7009510952095309503C000E0F1
:1020F00010E09801C695C695C370D0E0BC01CD0133
:10210000602B712B822B932BC230D10559F0C33039
:10211000D10559F0219719F00E94C615E1C00E941F
:10212000B415DEC00E94D815DBC00E94B215D8C01D
:10213000DD2319F08C2F817001C08695882309F466
:10214000CFC0402F429546954770440F440F602FF3
:102150006F70862F90E0A0E0B0E0042E04C0880FDE
:10216000991FAA1FBB1F0A94D2F704FF10C00FE0EB
:1021700010E020E030E004C0000F111F221F331FC9
:102180004A95D2F7009510952095309503C000E050
:1021900010E09801C695C695C370D0E0BC01CD0192
:1021A000602B712B822B932BC230D10559F0C33099
:1021B000D10559F0219719F00E948C1691C00E9408
:1021C0007A168EC00E949E168BC00E94ED1588C0A4
:1021D000CF70DD2339F08C2F0E941316802F0E94C0
:1021E0006C0F7EC0802F0E94730F8C2F0E943416BC
:1021F00077C0023F01F128F4003F41F0013FA1F018
:102200003FC0033FF9F0043F39F13AC0DD2341F00C
:10221000153008F05EC08C2F8F710E94591659C07E
:10222000163008F056C0F7CFDD2339F08C2F8F71B0
:102230000E9413164EC0DD23C9F38C2F8F710E94AC
:10224000341647C0DD2329F08C2F8F710E94FE15B4
:1022500040C00E94F9153DC0DD2349F0CF718C2F9D
:102260000E94131663E08C2F0E940E1832C081E08A
:102270000E942318123068F182E00E94231829C0BE
:10228000DD2331F0112391F2802F0E946A0E21C0CC
:10229000112399F2093349F49FEFE7EEF3E09150EF
:1022A000E040F040E1F700C00000802F0E942D0FB9
:1022B00010C04C2F4F70602FC7010E9417070E945B
:1022C000251512C04C2F4F70602FC7010E940704C4
:1022D0000BC028E0C21AD10884E0C816D10420F44B
:1022E0000E94190D0E945805BB20D1F00E94811751
:1022F00080FD16C0F70112820E947B170E94131600
:10230000C7010E949A110E947B17DF91CF911F9104
:102310000F91FF90EF90DF90CF90BF900C94341608
:10232000DF91CF911F910F91FF90EF90DF90CF90B1
:10233000BF9008950F931F93CF93DF93EC01888193
:1023400099812B813C81232BB9F09F3F11F48F3F62
:1023500099F0CE010E946A05882371F06881798125
:102360008A810E9458178C010E94B0160E94B115F4
:10237000B801CE010E947A0FDF91CF911F910F918A
:1023800008950E94AC170E94BC170E94D81780E0E5
:1023900090E00E94300D80E090E00C94460D80911A
:1023A0000001909101010E941A190C94C1110E9420
:1023B0009C170C94CF11E92FE295EF70F0E0329763
:1023C000EE30F105B0F4E758FF4F0C94DD21803F6B
:1023D00091F018F4883E68F40EC0843F51F40BC0AD
:1023E000883E48F0813F29F406C093FB882780F996
:1023F000089580E0089581E008950E944D170E949D
:10240000DB110895CF93DF9300D000D01F92CDB79A
:10241000DEB70F900F900F900F900F90DF91CF913C
:102420000895CF93DF9300D000D000D0CDB7DEB7B2
:1024300026960FB6F894DEBF0FBECDBFDF91CF91C9
:1024400008951F93CF93DF93C0915D0116E08091B3
:102450005E01C81799F0D0E01C9FF0011D9FF00DA0
:102460001124E15AFE4F4081518162817381848140
:1024700095810E9411122196C770E9CFDF91CF910B
:102480001F91089540918F015091900160919101A9
:102490007091920180919301909194010C9411128A
:1024A0008091940182958F7009F054C080919101C0
:1024B000882309F44FC080915D01A0915E01609175
:1024C0008F01709190014091920150919301B6E07B
:1024D0008A1709F43FC090E041155105C1F17F3FD3
:1024E00011F46F3FA1F1B89FF001B99FF00D1124D5
:1024F000E15AFE4F218172132AC02081621327C046
:102500002281211124C0238134812417350710F43E
:1025100021503109241B350B283C3105C0F4209192
:1025200094012F7020612093940126E0289FF001F0
:10253000299FF00D1124EC59FE4F80818F7080612E
:1025400080838FE891E00E949A110C9421120196E9
:102550008770BECF0895CF92DF92EF92FF920F93D4
:102560001F93CF93DF93CDB7DEB762970FB6F89482
:10257000DEBF0FBECDBF8C0185E0F801DE011D96E8
:1025800001900D928A95E1F7D8014C9111965C91DA
:10259000119712966C9112971396CD90DC90149728
:1025A00030918F01709190018091920190919301EF
:1025B000009709F46BC17F3F19F43F3F09F466C1EE
:1025C000E0909101EE2009F4C0C020919401C8165A
:1025D000D90628F0F601E81BF90BCF0104C080955D
:1025E00090958C0D9D1DFF24F394883C910578F007
:1025F000F12C207F09F0C6C07C2DD98AC88A898930
:102600000E9402128FE891E00E949A11B1C0822FBD
:10261000807F09F046C0751314C0341312C06111D5
:1026200010C02F702061209394010E9442128FE805
:1026300091E00E949A1180919401D80115968C9393
:102640002EC0CD2819F15F3F11F44F3FF9F0F62E5F
:1026500061111CC080915D0120915E0136E08217FE
:1026600009F45AC090E0389FF001399FF00D112411
:10267000E15AFE4F7181571306C07081471303C0A2
:102680007281711103C001968770E9CFF62E66231F
:1026900009F427C180919401816080939401F12C09
:1026A00020C1751308C0341306C0611104C08091A5
:1026B0009401D801C3C04D875E878D859E856A8B46
:1026C0000E94FD116A898823E1F16623D1F12091EE
:1026D0009401822F82958F7090E0029774F0809120
:1026E0008F019091900198878F831986DB86CA8627
:1026F0002C87CE0107960E949A1186E0F801AFE878
:10270000B1E001900D928A95E1F70E9450120E946B
:102710004212FF24F394E5C04D875E878D859E8528
:102720000E944D17292F22952F7030E0223031055D
:102730000CF0CBC09F7009F0C5C0805E883008F4F3
:10274000D0C0C8010E949A11E4CFC816D90608F477
:1027500053C0F601E81BF90BCF01883C910508F442
:1027600050C0F12C7C2DD98AC88A89890E94021216
:10277000EFE8F1E086E0DF011D928A95E9F70E941B
:102780004212AFC0751314C0341312C0611110C0CF
:1027900080919401F8018583C8010E949A1186E016
:1027A000EFE8F1E0DF011D928A95E9F7FE2C99C070
:1027B0004D875E878D859E856A8B0E94FD116A8993
:1027C000882309F4BECF662309F4BBCF209194017E
:1027D000822F82958F7090E002970CF48ECF8091BB
:1027E0008F01909190019A8389831B82DD82CC8234
:1027F0002E83CE0101967FCF809590958C0D9D1DE7
:10280000ACCFF62E662309F49CCF75132EC034137B
:102810002CC02091940120FD1FC0822F82958F70C3
:10282000D9F0D80115962C9315978F3049F08F5F0A
:10283000982F9295907F822F8F70892B15968C936D
:10284000C8010E949A1186E0F801AFE8B1E001905A
:102850000D928A95E1F793CF86E0F801AFE8B1E0F9
:1028600001900D928A95E1F73CC04D875E878D857A
:102870009E850E94FD11811140CF8091940181605D
:1028800080939401C8010E949A112BC0662309F419
:1028900058CF4D875E878D859E850E94FD11F82E4D
:1028A000882309F44ECF86E0F801AFE8B1E001904B
:1028B0000D928A95E1F78FE891E00E94640E0E94E4
:1028C00050125DCF811139CF0CC0243031050CF08E
:1028D00038CF9F7009F431CFF8019581907F09F0CE
:1028E0002CCF8F2D62960FB6F894DEBF0FBECDBFF2
:1028F000DF91CF911F910F91FF90EF90DF90CF90DC
:1029000008951F93CF93DF93CDB7DEB72C970FB603
:10291000F894DEBF0FBECDBF4F83588769877A8793
:102920008B879C87CE0107960E94AB12882369F0A3
:102930008F8198852A853B85232BF1F19F3F09F0F4
:1029400063C08F3F09F060C037C086E0FE01379654
:10295000DE01119601900D928A95E1F76F817885DD
:10296000EA85FB85309741F17F3F11F46F3F21F1FC
:1029700020915E0130E0C90101968770992740914E
:102980005D0150E08417950709F447C069837A8395
:10299000FD83EC8396E0929FD001939FB00D1124AC
:1029A000A15ABE4FFE01319601900D929A95E1F722
:1029B00080935E010E94211216E080915D0190914A
:1029C0005E018917C1F1189FC0011124815A9E4FE1
:1029D0000E94AB12882379F1E0915D011E9FF00106
:1029E0001124E15AFE4F40815181628173818481BB
:1029F00095810E94111280915D0190E0019687708F
:102A0000992780935D01D9CF4F81588569857A8553
:102A10008B859C850E941112CFCF0E94D7111092F6
:102A20005E0110925D01EFE8F1E086E0DF011D92AA
:102A30008A95E9F7C1CF2C960FB6F894DEBF0FBE8A
:102A4000CDBFDF91CF911F910895EF92FF920F9329
:102A50001F93CF93DF938C01892B09F46CC0F12C69
:102A6000EE24E394E8012196F8018491843740F440
:102A7000843008F051C0813081F0823019F15BC0A0
:102A8000853709F444C0A8F19CE7980F903708F007
:102A900052C08F770E942D0F41C00E5F1F4FFE0165
:102AA000C49180E28C0F883048F4C7708E2D01C02D
:102AB000880FCA95EAF70E94AF1714C08C2F0E94A6
:102AC0006A0E2DC00E5F1F4FFE01C49180E28C0F75
:102AD000883058F4C7708E2D01C0880FCA95EAF768
:102AE0000E94B5170E94D8171AC08C2F0E942D0F74
:102AF00016C00E5F1F4FFE01C491CC2381F08FE9F9
:102B00009FE00197F1F700C00000C150F6CF0E5FC3
:102B10001F4FFE01F49003C00E946A0E8E018F2D9C
:102B2000882309F49FCFEFE9FFE03197F1F700C068
:102B300000008150F5CFDF91CF911F910F91FF9051
:102B4000EF90089508950C94A2150E94A315609328
:102B5000CB017093CC018093CD019093CE010C9466
:102B6000C11108950C94A5150F931F930091CB01EB
:102B70001091CC012091CD013091CE01602B712BB1
:102B8000822B932B1F910F910C94A5150F931F93DC
:102B90000091CB011091CC012091CD013091CE015B
:102BA00060237123822393231F910F910C94A51509
:102BB0000F931F930091CB011091CC012091CD0177
:102BC0003091CE0160277127822793271F910F91A3
:102BD0000C94A51508950C94EA150E94EB156093CA
:102BE000C7017093C8018093C9019093CA010C94E6
:102BF000C11160E070E0CB010C94ED150F931F93B1
:102C000041E050E060E070E08A019B0104C0000FE9
:102C1000111F221F331F8A95D2F7C901B8011F91D6
:102C20000F910C94ED150F931F9341E050E060E07D
:102C300070E004C0440F551F661F771F8A95D2F7B6
:102C40008091C7019091C801A091C901B091CA01BA
:102C50008A019B01082B192B2A2B3B2BC901B80198
:102C60001F910F910C94ED150F931F9341E050E0CD
:102C700060E070E004C0440F551F661F771F8A95FF
:102C8000D2F740955095609570958091C7019091CD
:102C9000C801A091C901B091CA018A019B01082312
:102CA00019232A233B23C901B8011F910F910C94CA
:102CB000ED150F931F9341E050E060E070E004C019
:102CC000440F551F661F771F8A95D2F78091C70161
:102CD0009091C801A091C901B091CA018A019B01DC
:102CE000082719272A273B27C901B8011F910F91EF
:102CF0000C94ED150F931F930091C7011091C8011B
:102D00002091C9013091CA01602B712B822B932B2A
:102D10001F910F910C94ED150F931F930091C70114
:102D20001091C8012091C9013091CA01602371231B
:102D3000822393231F910F910C94ED150F931F93F2
:102D40000091C7011091C8012091C9013091CA01B9
:102D500060277127822793271F910F910C94ED15FF
:102D600008952FE0929F800D1124A82FA695A69577
:102D7000A695877051E001C0550F8A95EAF785E066
:102D8000A89FD001112420E030E070E0F901EA0FA3
:102D9000FB1FEB56FE4F4081CB01022E02C09695E1
:102DA00087950A94E2F78170992781958427852376
:102DB000842780832F5F3F4F2530310539F70895F1
:102DC0002FE0929F800D1124682F66956695669579
:102DD000982F977085E0689FB001112440E050E083
:102DE00080E0FA01E60FF71FEB56FE4F208130E03E
:102DF000092E02C0369527950A94E2F721703327F1
:102E0000042E01C0220F0A94EAF7822B4F5F5F4F16
:102E10004530510531F70895BF92CF92DF92EF927E
:102E2000FF920F931F93CF93DF938C01C090CB0140
:102E3000D090CC01E090CD01F090CE018091C701FF
:102E40009091C801A091C901B091CA01C82AD92A9C
:102E5000EA2AFB2ACFE1D0E0D701C6010C2E04C03C
:102E6000B695A795979587950A94D2F780FF07C0E6
:102E7000BC2EB8018C2F0E941A07019719F42197D4
:102E800058F7B12C8B2DDF91CF911F910F91FF90AF
:102E9000EF90DF90CF90BF900895CF93DF93EC0138
:102EA0000E940C17BE010E941A07DF91CF9108956E
:102EB0001F93CF93DF93EB0190915C01992321F055
:102EC000CB010E944D1713C0882349F0CB010E940B
:102ED0000C17182F682FCE010E94B11604C0CB0129
:102EE0000E94E016182FBE01812F0E941A07DF9161
:102EF000CF911F9108958091CF01859585958595F6
:102F000008958091CF01877008959091CF019770B7
:102F100081E009F480E008958091DB0108959091AB
:102F2000DB01892B8093DB01089580959091DB0173
:102F300089238093DB0108951092DB01089590911D
:102F4000DA01892B8093DA01089580959091DA0156
:102F500089238093DA0108951092DA0108959091FF
:102F6000D901892B8093D901089580959091D90139
:102F700089238093D90108951092D90108958091F1
:102F8000D001089508950C94C2179091D00198171C
:102F900021F08093D0010C94C31708958091D00143
:102FA000882329F01092D00180E00C94C317089573
:102FB000E0910001F09101018091DB018083E091BB
:102FC0000001F091010190818091DA01892B8083C9
:102FD000E0910001F091010190818091D901892B4C
:102FE00080838091D001882381F0E0910001F091ED
:102FF00001019081892B80838091000190910101D2
:103000000E94E41881110E94CE17809100019091D6
:1030100001010C94250D08950C940B1898E0899FDC
:1030200090011124262B2093CF010E94131680912A
:10303000CF018595859585950C940C181092CF013C
:1030400080E00C940C182091CF018095822380930E
:10305000CF01982F977079F430E0482F082E000C9C
:10306000550B2417350739F08595859585950E9470
:1030700034160C941E1808956FEF7FEF80E090E0F7
:103080000C940F2280E090E00E94EB2121E08C3E26
:103090009E4F09F020E0822F089582E090E00C948A
:1030A000E32183E090E00C94E321CF9384E090E06F
:1030B0000E94E321C82F81E290E00E94E3212C2F9F
:1030C00030E0A901582BCA01CF910895CF93C92FA1
:1030D000682F84E090E00E94F1216C2F81E290E063
:1030E000CF910C94F121AB01BC018FE090E00C94E6
:1030F0000322AB01BC0183E190E00C94032260E069
:1031000070E0CB010C94791860E070E0CB010E9474
:1031100073180C947F186CEE7EEF80E090E00E94B4
:103120000F2260E082E090E00E94F12160E083E005
:1031300090E00E94F1211092CB011092CC011092EC
:10314000CD011092CE0160E084E090E00E94F12178
:1031500060E081E290E00E94F12160E085E090E093
:103160000E94F12160E086E090E00E94F1216FEF83
:1031700087E090E00E94F12140E050E0BA0188E051
:1031800090E00E94032260E08DE090E00E94F12137
:1031900040E050E0BA0188E190E00E94032260E044
:1031A00087E190E00E94F12140E050E0BA018CE11B
:1031B00090E00E94032260E080E290E00E94F12112
:1031C0000C9484180C948B18FC01329697E080E0E4
:1031D000915029F021912223D9F38F5FF9CF0895DF
:1031E0009C01FC0132969FEF80E04191461789F0E7
:1031F0009F3F19F4411101C0982F8F5F8630A9F7C6
:103200009F3F39F0F901E90FF11D97FDFA956283AF
:1032100008950895FC01329608962081261301C076
:1032200010823196E817F907C1F708950C94F01849
:103230000C940A19029626E0FC0111922A95E9F7EE
:1032400008950E943A048091F301843049F110926C
:10325000DD0120E488E190E00FB6F894A895809312
:1032600060000FBE2093600080E00E9458050E941D
:103270003A0483B7817F846083BF83B7816083BF53
:103280007894889583B78E7F83BF0FB6F894A895FE
:1032900080916000886180936000109260000FBE92
:1032A000089508950895CF930E9451190E94FD0931
:1032B0000E945219C0E08C2F0E94A809892B29F482
:1032C000CF5FC530C1F780E001C081E0CF910895A4
:1032D0000E94D7110E94190D0E9458050C943B04BE
:1032E0001F920F920FB60F9211248F939F93AF935B
:1032F000BF938091DD01811113C08091E90190910C
:10330000EA01A091EB01B091EC014196A11DB11D24
:103310008093E9019093EA01A093EB01B093EC0153
:10332000BF91AF919F918F910F900FBE0F901F9003
:10333000189582E084BD93E095BD9AEF97BD809388
:103340006E0008952FB7F8948091E9019091EA01F9
:10335000A091EB01B091EC012FBF08952FB7F89425
:103360006091E9017091EA018091EB019091EC018B
:103370002FBF0895CF92DF92EF92FF920F931F938A
:103380002FB7F8944091E9015091EA016091EB0167
:103390007091EC012FBF6A017B01EE24FF248C01A8
:1033A00020E030E0C016D106E206F30610F44150EA
:1033B00051099A01281B390BC9011F910F91FF90E8
:1033C000EF90DF90CF90089578941F920F920FB6F0
:1033D0000F9211248F939F93AF93BF938091E90134
:1033E0009091EA01A091EB01B091EC010196A11D31
:1033F000B11D8093E9019093EA01A093EB01B09392
:10340000EC01BF91AF919F918F910F900FBE0F90E4
:103410001F90189581E08093E00080E28093D800AF
:103420001092C9008FE19EE40197F1F700C00000FF
:1034300087E090EBDC018093FC019093FD01A09369
:10344000FE01B093FF019CE088E10FB6F894A895C7
:10345000809360000FBE90936000FFCF0E944218DF
:10346000811102C00E94E2180E944D188093DC0175
:103470000E9455189093EE018093ED010E9451181F
:10348000682F70E080E090E00C94B2158091E60126
:10349000089508950F931F93CF93DF9300D01F9249
:1034A000CDB7DEB78C010E94D91C823011F0843078
:1034B00019F594E099831B830A839093E9008FEFB9
:1034C0009091E800815095FD06C095ED9A95F1F731
:1034D00000008111F5CF8091E80085FF0DC040E02C
:1034E00050E063E070E0CE0101960E94F61C8091EE
:1034F000E8008E778093E8000F900F900F90DF9197
:10350000CF911F910F910895CF93DF9300D01F9219
:10351000CDB7DEB72091F301243029F533E03983AC
:10352000805891099B838A832093E9008FEF9091C3
:10353000E800815095FD06C095ED9A95F1F70000E1
:103540008111F5CF8091E80085FF0DC040E050E08B
:1035500063E070E0CE0101960E94F61C8091E800C5
:103560008E778093E8000F900F900F90DF91CF91AE
:103570000895CF93DF93EC010E94D91C823011F0A3
:10358000843039F581E08093E9008FEF9091E80075
:10359000815095FD06C095ED9A95F1F700008111D7
:1035A000F5CF8091E80085FF14C040E050E068E06E
:1035B00070E0CE010E94F61C8091E8008E77809327
:1035C000E80088E0FE01AEEDB1E001900D928A9531
:1035D000E1F7DF91CF910895CF93603219F52091F3
:1035E000F3012430F9F4C091E900CF703091EC0080
:1035F000232F217030FD20E8C22B22E02093E90028
:103600002091E80020FF0BC040E050E060E270E055
:103610000E94F61C8091E8008E778093E800CF70BE
:10362000C093E900CF9108958091F201811109C002
:103630000E94D61E0E94331F8091E2008460809316
:10364000E20008951092F2010895089508950C94EF
:10365000681942E061EC81E00E94501E42E261EC98
:1036600084E00E94501E42E261EC82E00E94501E03
:1036700042E260EC83E00C94501E8091F5018330AF
:1036800009F462C030F4813071F0823009F49BC0DB
:1036900008958A3009F487C08B3009F46DC08930F1
:1036A00009F0A9C020C08091F401813A09F0A3C0BB
:1036B0008091E800877F8093E8008091F8019091E5
:1036C000F901892B21F468E08EED91E003C060E000
:1036D00080E090E070E00E948C1D8091E8008B7784
:1036E0008093E80008958091F401813209F083C04D
:1036F0008091F8019091F901009719F0029709F073
:103700007AC08091E800877F8093E8008091E8008C
:1037100082FD05C08091F3018111F8CF6CC020912A
:10372000F3008091F20090E0922B029729F48091AF
:10373000F1008B7F813021F48091F1008093E601CC
:103740008091E8008B7753C08091F401813A09F0B1
:1037500052C08091F8019091F901892B09F04BC07A
:103760008091E800877F8093E8008091E80080FFE7
:10377000FCCF80910C0136C08091F4018132D9F5E3
:103780008091F8019091F901892BA9F58091E800C9
:10379000877F8093E8000E94851E8091F6018093C8
:1037A0000C010C94D7118091F401813221F58091A4
:1037B000E800877F8093E8000E94851E8091F701D2
:1037C0008093E70108958091F401813AA1F48091FA
:1037D000E800877F8093E8008091E80080FFFCCFBD
:1037E0008091E7018093F1008091E8008E778093CB
:1037F000E8000C94851E08951F93CF93DF93CDB7F7
:10380000DEB7A0970FB6F894DEBF0FBECDBF84B76A
:10381000877F84BF0FB6F894A89580916000886177
:1038200080936000109260000FBE80E8809361007A
:10383000109261000E946A0D0E94D61E0E94331FE2
:103840008091E20084608093E20078940E94C2211B
:103850000E94720D82E091E00E94140D13E08091AD
:10386000F301853069F40E9421198091F1018823C8
:10387000B1F30E945319882391F30E94E01CEFCF0B
:103880000E947A0D8091F301843049F71093E9008A
:103890008091E80082FFE3CF8091E80085FF0AC0B5
:1038A00040E050E060E270E0CE0101960E94411DD0
:1038B00091E001C090E08091E8008B778093E80070
:1038C000992369F260E2CE0101960E94FD02C7CF02
:1038D0000C946A1C292F332723303105C9F064F476
:1038E0002130310581F02230310509F049C08BE5E6
:1038F00090E022E034E048C02132310521F122324B
:10390000310571F13DC082E190E02DE534E03CC02D
:1039100099278130910571F02CF4892B89F5EEEF10
:10392000F3E00DC08230910541F0039749F5EEECCC
:10393000F3E005C0E6EEF3E002C0E4EDF3E08491CD
:1039400090E09F0121C063307105D0F4660F771FAE
:10395000FB01E65DFE4F2081318189E090E014C0DB
:103960006330710568F4FB01EE0FFF1FEC5DFE4F45
:1039700020813181FB01EF5DFE4F808190E004C02A
:1039800080E090E020E030E0FA0131832083089568
:103990000895CF93C82F0E94C81CC093E801CF910F
:1039A00008958091F301843011F081E0089582E060
:1039B00008958091E801811102C00C94D11C0895F2
:1039C00080E189BD82E189BD09B400FEFDCF80910F
:1039D000D8008F7D8093D8008091E0008260809332
:1039E000E0008091E00081FDFCCF0895CF92DF924E
:1039F000EF92FF920F931F93CF93DF93EC018B0114
:103A00006A010E94A41E811133C0C114D10439F08F
:103A1000F60180819181081B190BC80FD91FE12C79
:103A2000F12C0115110519F18091E80085FD16C0F2
:103A30008091E8008E778093E800C114D10449F0AA
:103A4000F60180819181E80EF91EF182E08285E025
:103A50000FC00E94A41E882321F30AC0899180937D
:103A6000F10001501109FFEFEF1AFF0ADACF80E0F1
:103A7000DF91CF911F910F91FF90EF90DF90CF904A
:103A80000895CF92DF92EF92FF920F931F93CF93FF
:103A9000DF93EC018B016A010E94A41E811133C0E7
:103AA000C114D10439F0F60180819181081B190BF2
:103AB000C80FD91FE12CF12C0115110519F18091C6
:103AC000E80085FD16C08091E8008B778093E800C0
:103AD000C114D10449F0F60180819181E80EF91EEC
:103AE000F182E08285E00FC00E94A41E882321F3AA
:103AF0000AC08091F100899301501109FFEFEF1A7C
:103B0000FF0ADACF80E0DF91CF911F910F91FF90F4
:103B1000EF90DF90CF9008952091FA013091FB0152
:103B20002617370748F06115710539F42091E80030
:103B30002E772093E80001C0B90140E061157105BE
:103B4000A9F12091F301222309F443C0253009F49F
:103B500042C02091E80023FD40C02091E80022FDF2
:103B600032C02091E80020FFE9CF4091F30020917E
:103B7000F20030E0342BFC01CF016115710559F0E2
:103B80002830310540F481918093F1006150710932
:103B90002F5F3F4FF1CF41E02830310509F040E081
:103BA0002091E8002E772093E800C8CF4111C9CFBB
:103BB0000AC08091F301882361F0853061F0809123
:103BC000E80083FD0AC08091E80082FFF2CF80E028
:103BD000089582E0089583E0089581E0089520919A
:103BE000FA013091FB012617370748F0611571057E
:103BF00039F42091E8002E772093E80001C0B90144
:103C0000FC0120E06115710591F18091F301882399
:103C100009F440C0853009F43FC08091E80083FD7D
:103C20003DC08091E80082FD2FC08091E80080FFB8
:103C3000E9CF2091F3008091F20090E0922B611582
:103C4000710559F08830910540F424912093F100DA
:103C50003196615071090196F2CF21E0089709F081
:103C600020E08091E8008E778093E800CBCF21118F
:103C7000CCCF0AC08091F301882361F0853061F0D8
:103C80008091E80083FD0AC08091E80082FFF2CFB6
:103C900080E0089582E0089583E0089581E008952A
:103CA000982F973058F59093E900981739F0709154
:103CB000EC002091ED005091F00003C0242F762FEE
:103CC00050E021FF19C03091EB003E7F3093EB00B4
:103CD0003091ED003D7F3093ED003091EB0031608D
:103CE0003093EB007093EC002093ED005093F000C4
:103CF0002091EE0027FF07C09F5FD3CF8F70809386
:103D0000E90081E0089580E008958091F40187FF43
:103D100011C08091E80082FD05C08091F3018111FE
:103D2000F8CF11C08091E8008B770BC08091F30130
:103D3000882349F08091E80080FFF8CF8091E80067
:103D40008E778093E80008952091E4003091E5009B
:103D500095E64091EC00842F817040FF22C0809155
:103D6000E80080FD1CC08091F301882391F085302C
:103D700091F08091EB0085FD10C04091E4005091DE
:103D8000E5004217530729F39A01915011F784E097
:103D9000089582E0089583E0089581E0089580E029
:103DA00008954091E80042FFDECF08950E94441F2D
:103DB0000E944C1FE0EEF0E0808181608083E8ED9E
:103DC000F0E080818F77808319BCA7EDB0E08C9103
:103DD0008E7F8C9380818F7E80831092F201089574
:103DE0000F931F93CF93DF930E94441F0E944C1F99
:103DF000C8EDD0E088818F77888388818068888348
:103E000088818F7D888319BC1092F3011092EF0195
:103E10001092F1011092F00100EE10E0F8018081A3
:103E20008B7F808388818160888342E060E080E0CE
:103E30000E94501EE1EEF0E080818E7F8083E2EEF2
:103E4000F0E0808181608083808188608083F801D8
:103E500080818E7F8083888180618883DF91CF918C
:103E60001F910F910895E8EDF0E080818F7E8083AF
:103E7000E7EDF0E080818160808384E082BF81E0B3
:103E80008093F2010C94F01EE8EDF0E080818E7FCB
:103E900080831092E20008951092DA001092E100FF
:103EA00008951F920F920FB60F9211242F933F93F4
:103EB0004F935F936F937F938F939F93AF93BF9332
:103EC000EF93FF938091E10082FF0BC08091E200AD
:103ED00082FF07C08091E1008B7F8093E1000E9408
:103EE000C1218091DA0080FF1FC08091D80080FF3F
:103EF0001BC08091DA008E7F8093DA008091D90018
:103F000080FF0DC080E189BD82E189BD09B400FE5A
:103F1000FDCF81E08093F3010E94141B05C019BC02
:103F20001092F3010E94221B8091E10080FF19C0D2
:103F30008091E20080FF15C08091E2008E7F809327
:103F4000E2008091E20080618093E2008091D800DD
:103F500080628093D80019BC85E08093F3010E94B1
:103F6000261B8091E10084FF30C08091E20084FF35
:103F70002CC080E189BD82E189BD09B400FEFDCF7E
:103F80008091D8008F7D8093D8008091E1008F7E52
:103F90008093E1008091E2008F7E8093E200809127
:103FA000E20081608093E2008091EF01882311F0AC
:103FB00084E007C08091E30087FD02C081E001C07A
:103FC00083E08093F3010E94271B8091E10083FF2F
:103FD00029C08091E20083FF25C08091E100877FA6
:103FE0008093E10082E08093F3011092EF018091D1
:103FF000E1008E7F8093E1008091E2008E7F8093CC
:10400000E2008091E20080618093E20042E060E0A3
:1040100080E00E94501E8091F00088608093F00044
:104020000E94251BFF91EF91BF91AF919F918F91BE
:104030007F916F915F914F913F912F910F900FBEA4
:104040000F901F9018951F920F920FB60F92112488
:104050002F933F934F935F936F937F938F939F9390
:10406000AF93BF93CF93DF93EF93FF93C091E9009A
:10407000CF708091EC00D82FD17080FDD0E81092E5
:10408000E9008091F000877F8093F00078940E948F
:1040900067201092E9008091F00088608093F00022
:1040A000CD2BCF70C093E900FF91EF91DF91CF91BD
:1040B000BF91AF919F918F917F916F915F914F9140
:1040C0003F912F910F900FBE0F901F9018951F9347
:1040D000CF93DF93CDB7DEB7AA970FB6F894DEBFC4
:1040E0000FBECDBFE4EFF1E088E08E0F9091F100BC
:1040F00091938E13FBCF0E943D1B8091E80083FFBC
:1041000028C18091F4019091F501492F50E04A3087
:10411000510508F01EC1FA01E957FF4F0C94DD214B
:10412000803821F0823809F014C108C08091F00174
:104130009091F101992389F082600FC08091F8017C
:104140008F70873008F005C18093E9008091EB0003
:1041500085FB882780F91092E9009091E800977F0D
:104160009093E8008093F1001092F100D0C0282FC6
:104170002D7F09F0EEC0882319F0823061F0E9C08C
:104180008091F601813009F0E4C0933009F080E0BD
:104190008093F1012EC08091F60181112AC0809197
:1041A000F8018F702FEF280F263008F0D2C08093CF
:1041B000E9002091EB0020FF1CC0933021F4809196
:1041C000EB00806214C09091EB0090619093EB0043
:1041D00021E030E0A90102C0440F551F8A95E2F7A3
:1041E0004093EA001092EA008091EB00886080938F
:1041F000EB001092E9008091E800877F8093E8004F
:104200000E94851EA6C08111A4C01091F6011F77DF
:104210008091E3008078812B8093E3008091E80017
:10422000877F8093E8000E94851E8091E80080FFD0
:10423000FCCF8091E30080688093E300111102C0FD
:1042400082E001C083E08093F30183C08058823014
:1042500008F07FC08091F6019091F7018C3D53E00A
:10426000950779F583E08A838AE289834FB7F894CA
:10427000DE01139620E03EE051E2E32FF0E05093A0
:104280005700E49120FF03C0E295EF703F5FEF70AD
:104290008E2F90E0EA3010F0C79601C0C0968D9343
:1042A0009D932F5F243149F74FBF8091E800877FAE
:1042B0008093E8006AE270E0CE0101960E948C1DB6
:1042C00015C06091F8017091F901AE014F5F5F4F29
:1042D0000E94681CBC01892BE1F19091E800977F56
:1042E0009093E80089819A810E94EF1D8091E800F7
:1042F0008B778093E8002DC0803859F58091E800D5
:10430000877F8093E8008091EF018093F100809196
:10431000E8008E7773CF81111CC09091F601923026
:10432000C0F48091E800877F8093E8009093EF01CC
:104330000E94851E8091EF01811106C08091E300EB
:1043400087FD02C081E001C084E08093F3010E94F8
:10435000291B8091E80083FF0AC08091E800877FD5
:104360008093E8008091EB0080628093EB00AA9636
:104370000FB6F894DEBF0FBECDBFDF91CF911F9176
:1043800008950895CF938091F3018823A1F0C091FF
:10439000E900CF709091EC00892F817090FD80E84A
:1043A000C82B1092E9008091E80083FD0E946720ED
:1043B000CF70C093E900CF910895EE0FFF1F0590D5
:1043C000F491E02D0994F999FECF92BD81BDF89A40
:1043D000992780B50895A8E1B0E042E050E00C9440
:1043E0001722262FF999FECF92BD81BDF89A019729
:1043F00000B4021639F01FBA20BD0FB6F894FA9A2D
:10440000F99A0FBE08950396272F0E94F2210E9469
:10441000F121252F0E94F221242F0C94F2210196E4
:10442000272F0E94F2210C94F121DC01CB01FC0129
:10443000F999FECF06C0F2BDE1BDF89A319600B4FD
:0E4440000D9241505040B8F70895F894FFCF08
:10444E00D101461AB91A491A841A4A1A0192919040
:10445E00939535F0366667F1F4F5F6F73497969442
:10446E00C6402236C7046F049104140446042D047A
:00000001FF
