:100000000C9438050C947F050C947F050C947F05A7
:100010000C947F050C947F050C947F050C947F0550
:100020000C947F050C947F050C9467260C9439275B
:100030000C94441D0C947F050C947F050C947F0553
:100040000C947F050C94E80D0C947F050C947F05AF
:100050000C940D0E0C94B81D0C947F050C947F0528
:100060000C947F050C947F050C947F050C947F0500
:100070000C947F050C947F050C947F050C947F05F0
:100080000C947F050C947F050C947F050C947F05E0
:100090000C947F050C947F050C947F050C947F05D0
:1000A0000C947F050C947F050C947F051313131398
:1000B000451345139213F514F514F514B2134F14A8
:1000C00060146014C114CA14F514EE14731573157A
:1000D000851585157C15851585158515731573157D
:1000E0008115851585158115A627CD27BF28CD2714
:1000F000BF2819283C28BF289228A12829001E00C3
:100100001F002000210022002300240025002600DB
:1001100027002A002B0014001A0008001500170001
:100120001C0018000C0012001300310039000400FC
:100130001600070009000A000B000D000E000F005A
:1001400033003400E1001D001B000600190005000B
:10015000110010003600370038002800E000E300EE
:100160006500E20002512C002C00015150005200A9
:1001700051004F00000000000000000000000000DF
:10018000000000000000000000000000000000006F
:10019000000000000000000000000000000000005F
:1001A000000000000000000000000000000000004F
:1001B0000000000000000000000000000000BF5C24
:1001C000BE5CBD5CC15C00000000000000000000DF
:1001D000000000000000000000000000000000001F
:1001E000000001000000000000000000165C00009C
:1001F00000000000000000000000000000002D00D2
:100200002E004C003A003B003C003D003E003F0009
:10021000400041004200430044004500000000004F
:1002200000000000000000000000000000000000CE
:1002300000000000E10000000000000000000000DD
:1002400000000000000000000000000000000000AE
:10025000000000000100000000000000000000009D
:100260000000000044454255473A206469736162CA
:100270006C65642E0A0044454255473A20656E611C
:10028000626C65642E0A000A002530313662003A3D
:10029000200025303258000A722F6320303132336B
:1002A0003435363738394142434445460A006261A5
:1002B000636B6C6967687420737465703A20257588
:1002C0000A006261636B6C696768742064697361BA
:1002D000626C650A006261636B6C696768742065B3
:1002E0006E61626C650A006261636B6C6967687459
:1002F00020746F67676C653A2025750A0062616338
:100300006B6C696768742064656372656173653AD4
:100310002025750A006261636B6C696768742069E7
:100320006E6372656173653A2025750A000A0025BF
:1003300030325820006B6579626F6172645F72655C
:10034000706F72743A20000A0025303258006B65D5
:1003500079626F6172645F7365745F6C65643A2083
:10036000003F00433E20004C25640A0074696D651F
:10037000725F72656164333228293A202530346C0B
:10038000580A006B6579626F6172645F69646C65BD
:100390003A2025580A006B6579626F6172645F705C
:1003A000726F746F636F6C3A2025580A00686F7320
:1003B000745F6B6579626F6172645F6C65647328EA
:1003C000293A2025580A000A092D205374617475B2
:1003D00073202D0A004743433A20342E392E322011
:1003E0004156522D4C4942433A20312E382E30731B
:1003F000766E204156525F415243483A20617672F0
:10040000350A004F5054494F4E533A204C554641FF
:100410002045585452414B455920434F4E534F4C61
:100420004520434F4D4D414E4420343039360A006B
:100430004255494C443A2022302E372E39372D313F
:100440002D676439636636632D646972747922207E
:100450002830393A34353A34392044656320203223
:100460002032303139290A005649443A2030783157
:10047000333337284D61706C6520436F6D70757430
:10048000696E6729205049443A2030783630313738
:10049000284A4E414F204B6579626F617264292072
:1004A0005645523A203078303030310A00444553B6
:1004B000433A2041206E6F2D6672696C6C73206F19
:1004C0007274686F6C696E656172206B6579626FBA
:1004D0006172640A000A092D2056657273696F6E95
:1004E000202D0A000A092D20436F6E736F6C652062
:1004F0002D0A4553432F713A09717569740A000A30
:10050000092D204D61676963202D0A443A0944652D
:10051000627567204D65737361676520546F676707
:100520006C650A583A094D617472697820446562B5
:100530007567204D6F646520546F67676C65202D6B
:100540002053686F77206B6579707265737365737C
:1005500020696E206D617472697820677269640A1F
:100560004B3A094B6579626F61726420446562752C
:100570006720546F67676C65202D2053686F772064
:100580006B65797072657373207265706F72740A2F
:100590004D3A094465627567204D6F757365205447
:1005A0006F67676C650A563A0956657273696F6EB4
:1005B0000A533A095374617475730A433A094163E3
:1005C00074697661746520436F6E736F6C65204D3E
:1005D0006F64650A46312D4631303A0953776974A4
:1005E000636820746F204C6179657220302D39204A
:1005F00028463130203D204C30290A302D393A0927
:1006000053776974636820746F204C617965722038
:10061000302D390A47524156453A09537769746378
:100620006820746F204C6179657220302028616CDD
:100630007465726E617465290A423A094A756D7073
:1006400020746F20426F6F746C6F616465720A452D
:1006500053433A094A756D7020746F20426F6F746E
:100660006C6F616465722028616C7465726E617470
:1006700065290A453A095072696E74204545505201
:100680004F4D2053657474696E67730A425350412D
:1006900043453A09436C65617220454550524F4DC0
:1006A0000A000A002575002E6C6576656C3A2000FC
:1006B0000A002575002E656E61626C653A20000A9D
:1006C0000025303258006261636B6C696768745F43
:1006D000636F6E6669672E7261773A20000A0025A3
:1006E00075002E6E6B726F3A20000A002575002E81
:1006F000737761705F6261636B736C6173685F6273
:1007000061636B73706163653A20000A00257500B0
:100710002E737761705F67726176655F6573633AA8
:1007200020000A002575002E6E6F5F6775693A20FC
:10073000000A002575002E737761705F72616C741A
:100740005F726775693A20000A002575002E73777D
:1007500061705F6C616C745F6C6775693A20000A48
:10076000002575002E737761705F7263746C5F7221
:100770006775693A20000A002575002E737761704D
:100780005F6C63746C5F6C6775693A20000A0025C2
:1007900075002E636170736C6F636B5F746F5F6362
:1007A0006F6E74726F6C3A20000A002575002E730C
:1007B0007761705F636F6E74726F6C5F636170738B
:1007C0006C6F636B3A20000A0025303258006B656D
:1007D000796D61705F636F6E6669672E7261773ADB
:1007E00020000A002575002E6D6F7573653A200094
:1007F0000A002575002E6B6579626F6172643A207C
:10080000000A002575002E6D61747269783A200027
:100810000A002575002E656E61626C653A20000A3B
:1008200000253032580064656275675F636F6E66DD
:1008300069672E7261773A20000A002575006465A9
:100840006661756C745F6C617965723A20003F0077
:100850000A6D6F7573653A206F66660A000A6D6FE0
:100860007573653A206F6E0A000A6B6579626F6175
:1008700072643A206F66660A000A6B6579626F617E
:1008800072643A206F6E0A000A6D61747269783A78
:10089000206F66660A000A6D61747269783A206F8B
:1008A0006E0A000A64656275673A206F66660A0020
:1008B0000A64656275673A206F6E0A000A0A4A7513
:1008C0006D70696E6720746F20626F6F746C6F61FA
:1008D0006465722E2E2E2000433E2000436C65611D
:1008E00072696E6720454550524F4D0A0065656339
:1008F0006F6E6669673A0A005B735D004B657962EB
:100900006F6172642073746172742E0A005B575DAC
:10091000005B535D005B525D005B445D005B435DCB
:10092000000403300000001C034A004E0041004F49
:100930000020004B006500790062006F00610072CA
:10094000006400000020034D00610070006C006531
:1009500000200043006F006D007000750074006996
:10096000006E00670000000403090409025B000335
:100970000100A0FA0904000001030101000921118E
:100980000100012240000705810308000A09040153
:1009900000010300000009211101000122360007B7
:1009A00005820320000A0904020002030000000976
:1009B0002111010001222200070583032000010705
:1009C0000503032000011201100100000008371385
:1009D00017600100010203010631FF0974A101093A
:1009E00075150026FF00952075088102097615000F
:1009F00026FF00952075089102C005010980A1011C
:100A000085031A81002A8300160100260300950140
:100A100075108100C0050C0901A10185041A0100AF
:100A20002A9C02160100269C02950175108100C0C7
:100A300005010906A101050719E029E715002501AF
:100A40009508750181029501750881010507190056
:100A500029FF150026FF0095067508810005081975
:100A6000012905950575019102950175039101C054
:100A700011241FBECFEFDAE0DEBFCDBF04B603FE08
:100A800027C08091F7019091F801A091F901B091F0
:100A9000FA018730904BA740B04BD1F41092F70188
:100AA0001092F8011092F9011092FA0114BE84B765
:100AB000877F84BF0FB6F894A89580916000886105
:100AC00080936000109260000FBEE0E0F8E30995AB
:100AD00011E0A0E0B1E0E0E5F3E502C005900D9281
:100AE000AE32B107D9F721E0AEE2B1E001C01D920C
:100AF000A73FB207E1F70E948B230C94A6290C9420
:100B00000000FF93EF93E0912E01F0912F013097B9
:100B100009F00995EF91FF910895FC0185918030CE
:100B200011F0EFDFFBCF0895FF27E0E230E247FF4F
:100B30000CC0419597FF09C0EDE2609570958095D6
:100B40009095611D711D811D911D27FF02C021958A
:100B500030E350E2AA27660F771F881F991FAA1F4C
:100B6000A41710F0A41B63955A95A9F7AA3008F0B2
:100B7000A95FA05DAF93F39561157105810591059E
:100B800041F7ED3211F4EF93F395F21718F43F9318
:100B9000F395FBCF8F91B5DFFA95E1F70895E991D1
:100BA000F9918591803021F0853219F0AADFF9CFD3
:100BB000089520E0E89455915532C1F3503311F473
:100BC000689455915A3348F4505390F3220F022EF3
:100BD000220F220F200D250FF4CF0EF421958991BD
:100BE0009991533619F3533729F1533559F1BC0113
:100BF00088279927E8945C3621F489919991689423
:100C00005591543639F446EF7EF077FF0DC08FEFE3
:100C10009FEF0AC055374AE039F0583540E121F0DE
:100C2000523642E009F00895FF93EF937DDFEF9194
:100C3000FF91B7CFFF93EF93FC0181918030B9F31F
:100C400060DFFBCFFF93EF9368DFF1CFDF93CF93AC
:100C5000CDB7DEB72596A3DFCF91DF91089581E070
:100C6000089581E008950C9431061F93CF93DF938C
:100C700000D000D01F92CDB7DEB749835A832091B0
:100C80005C0189819A81211112C0662349F00E947A
:100C9000981A182F682F89819A810E943D1A03C0E3
:100CA0000E946C1A182F69817A81812F04C00E94DA
:100CB000981A69817A810F900F900F900F900F9082
:100CC000DF91CF911F910C943C08FC014081518130
:100CD0006281738184810C9435060E94FD1B811111
:100CE00002C00E94A61C0E94B40E0C940F0B0E941E
:100CF000B30E0C94120B08950C947B0681E00895BA
:100D00000C947E06CF93C82F0E947C068C2F0E94E5
:100D10008006CF91089508950E9463150E948B0666
:100D20002FEF84E39CE0215080409040E1F700C029
:100D300000000C94DE1D0F931F93CF93DF938C0163
:100D40000E946506EC01B8010E9433068823C9F0B1
:100D5000B801CE010E94330F882399F0F8018281F7
:100D6000882309F44EC1C1308CE5D80761F0CE3D2F
:100D7000ECE5DE07E9F0C115FCE5DF07E1F40E94D0
:100D80008C06C0E06FC18091D201C82FC095C170A0
:100D9000C0FB80F98093D201CC2329F086E792E052
:100DA0000E948D05EECF84E692E00E948D055AC127
:100DB0000E94A61CE6CFC6318CE5D80709F424C1F1
:100DC00030F4C230FCE5DF0708F445C106C0CE01AF
:100DD0008A5F9C45099708F03EC10E94FD1B811166
:100DE00002C00E94A61C0E94101C9093E9018093EF
:100DF000E801C0318CE5D80709F4C3C008F041C050
:100E0000C830FCE5DF0709F49AC0F0F4C430ECE523
:100E1000DE0709F487C068F4C2308CE5D80709F40E
:100E200077C0C330DC4509F0E3C08091E8018260FF
:100E300076C0C630FCE5DF0709F46EC008F07BC061
:100E40008091E80188606BC0CC30ECE5DE0709F4E6
:100E500085C068F4CA308CE5D80709F474C008F07E
:100E600079C00E9463158091E801806858C0CE3037
:100E7000FCE5DF0709F476C008F07FC08091E80147
:100E80008BC0CB3FECE5DE0709F44FC018F5C3314A
:100E90008CE5D80709F47DC078F4C131FCE5DF07A3
:100EA00009F473C0C231DC4509F0A2C00E94631589
:100EB0008091E8018F7733C0C531ECE5DE0709F496
:100EC00072C008F486C0CA3FDC4509F091C0809129
:100ED000E9013EC0CF3FECE5DE0709F45FC058F4FE
:100EE000CD3F8CE5D80709F444C008F43FC0809199
:100EF000E90182602DC0C130FDE5DF0709F475C04E
:100F000008F45DC0C230DD4509F072C080E06EC0FB
:100F10008091E801816003C08091E8018061809345
:100F2000E80166C08091E80111C08091E90182600A
:100F30008093E9015DC08091E8018062F0CF8091EB
:100F4000E8018064ECCF8091E80188608460E7CF9D
:100F50008160EECF8091E8018E7FE1CF8091E80142
:100F60008D7FDDCF8091E801877FD9CF8091E90126
:100F700018C08091E9018D7FDBCF8091E8018F7EE1
:100F8000CECF8091E8018F7DCACF8091E8018F7B21
:100F9000C6CF8091E801877F8B7FC1CF8091E90127
:100FA0008D7F8E7FC5CF8091E80182FB222720F9BB
:100FB00091E0922790FB82F990FB83F9B0CF80916A
:100FC000E901982F909591708E7F892B90FB81F984
:100FD000AFCF0E9463158091E80187FB222720F99B
:100FE00091E0922790FB87F99ACF81E00E94A81C9C
:100FF0008091E8019091E9010E94211C0E946315F3
:10100000C0CEC631DC4539F50E94181B282FF801E7
:1010100082814091000150910101882379F02A7A60
:1010200091E009F490E090933001911102C069E2DF
:1010300001C065E3CA010E94DF1C0AC08091300133
:10104000811102C069E201C065E3CA010E94E11C8E
:101050000E94641B96CEC801DF91CF911F910F9122
:101060000C942F068C2FDF91CF911F910F91089533
:1010700080E090E0089508959CE0799FF0011124AC
:101080009CE3899FE00DF11D1124E60FF11DEE0F89
:10109000FF1FE450FF4F859194910895880F991F89
:1010A000FC01E957FD4F859194910895CF93DF930B
:1010B0000E943C080E94370AEC01811522E5920744
:1010C00008F046C0811531E5930708F052C1883E0B
:1010D000910500F5803E910508F0C5C1883A91055B
:1010E00070F4853A910508F0B1C08130910509F49A
:1010F000BAC108F46BC1049708F0B5C167C18F3B52
:10110000910508F4AEC0803C910508F45FC1805C95
:10111000910906C1811540E4940790F4C11580E35C
:10112000D80708F001C1C11521E0D20708F44EC16B
:10113000C11530E2D30708F496C1CE019F70F0C00C
:10114000811540E5940708F0F9C0DF70D06A8BC1C3
:10115000C11589E5D807B8F5C11528E5D20708F00B
:1011600021C1C11534E5D307D0F42C2F269526953F
:10117000CE0183709927C115D34508F0FFC040E226
:10118000249F90011124C1E0D0E002C0CC0FDD1FEC
:101190008A95E2F72C2B3D2BE901DC6864C1C1156F
:1011A00085E5D80708F4F9C0C11526E5D20708F08F
:1011B0000DC18C2F0E94CB0A8F71C82FD0E0DC2F7D
:1011C000CC27D06250C1CD3B3CE5D30709F4F5C034
:1011D000E0F4CB3B8CE5D80709F4E9C008F0EAC09D
:1011E000C1153AE5D30708F0F1C08C2F8F700E942B
:1011F000CB0A94E0D695C7959A95E1F7CF70D0E0E9
:10120000DC2FCC27D069C82B2EC1C03C4CE5D407BD
:1012100009F4D9C060F4CE3B2CE5D20709F4D0C064
:10122000CF3BDC4509F0D2C0C0E0D2ED1CC1CE01FD
:1012300090568115904208F0C9C08D2F8F710E9481
:10124000CB0ADD27D0628F71D82B0DC1853A91056D
:1012500009F4BFC0863A910509F0BEC0C2E8D0E4E7
:1012600002C1883A910509F4BAC0893A910509F496
:10127000B9C08A3A910509F4B8C08B3A910509F4CE
:10128000B7C08C3A910509F4B6C08B3B910509F4BF
:10129000B5C08C3B910509F4B4C08D3A910509F4B1
:1012A000B3C0803B910509F4B2C08E3A910509F4B0
:1012B000B1C08F3A910509F4B0C0813B910509F4A2
:1012C000AFC0823B910509F4AEC0833B910509F4A0
:1012D000ADC0843B910509F4ACC0853B910509F490
:1012E000ABC0863B910509F4AAC0873B910509F480
:1012F000A9C0883B910509F4A8C0893B910509F470
:10130000A7C08D3B910509F4A6C08E3B910509F459
:10131000A5C08A3B910509F4A4C0C0E0D4E4A3C0F1
:101320000E944E08EC019FC0CE019927D3FF03C055
:10133000EC01D86C98C0EC01D06C95C0837021E0B2
:1013400030E002C0220F331F8A95E2F73C68CE01DD
:1013500074E0969587957A95E1F78370382BCF7076
:10136000C695C69580E2C89FE0011124C22BD32BFD
:101370007AC0D82FCC27C16FD06A75C040E2249FB5
:1013800090011124C1E0D0E002C0CC0FDD1F8A958E
:10139000E2F7C22BD32BDA6866C0DC2FCC27C46FF0
:1013A000D06A61C0DC2FCC27C06FD06A5CC0C0E0BF
:1013B000D4ED59C0C0E0D5ED56C0C0E0D1ED53C06A
:1013C000C0E0D0ED50C0C0E0D3ED4DC0C0E0D0E0F3
:1013D0004AC0C1E8D0E447C0C3E8D0E444C0C2EE8C
:1013E000D4E441C0C9EED4E43EC0CAEED4E43BC06C
:1013F000C5EBD4E438C0C6EBD4E435C0C3EBD4E4C9
:1014000032C0C4EBD4E42FC0C7EBD4E42CC0CCEC86
:10141000D4E429C0CDECD4E426C0C3E8D5E423C08D
:10142000CAE8D5E420C0C2E9D5E41DC0C4E9D5E4CA
:101430001AC0C1E2D6E417C0C3E2D6E414C0C4E2C5
:10144000D6E411C0C5E2D6E40EC0C6E2D6E40BC0B5
:10145000C7E2D6E408C0CFE6D4E405C0C0E7D4E4D0
:1014600002C0CAE2D6E4CE01DF91CF91089582385E
:10147000910569F1B0F48133910509F46DC048F428
:101480008932910509F463C08A32910509F469C073
:1014900008958533910509F455C089339105B9F054
:1014A0000895833E910569F138F4803E9105B1F0CD
:1014B000823E910509F10895863E9105A9F1873E86
:1014C0009105B9F1843E910509F064C023C02091D3
:1014D000E80120FD4FC021FD4DC008958091E80135
:1014E00080FD44C08091E90180FF44C08091E80103
:1014F00084FD42C083EE4DC08091E80182FF38C078
:10150000F5CF8091E80182FD33C08091E90180FD33
:1015100031C0ECCF8091E90181FF32C08091E801B8
:1015200084FD2AC087EE35C08091E80183FF26C084
:10153000F5CF8091E80183FD21C08091E90181FD13
:101540001FC0ECCF8091E80185FD1CC01DC08091BB
:10155000E80185FD19C016C08091E80186FD16C01E
:1015600017C08091E80186FD13C010C089E311C047
:1015700082EE0FC080EE0DC080E00BC086EE09C089
:1015800084EE07C089E205C085E303C08AE201C09A
:1015900081E390E008959091E80192FF0DC0282F1B
:1015A0002871283019F4877F846006C0282F2471A1
:1015B000243011F48B7F886093FF0DC0282F287191
:1015C000283119F4877E846106C0282F24712431C4
:1015D00011F48B7E88612091E90120FF0DC0382F26
:1015E0003871383019F4877F816006C0382F317127
:1015F000313011F48E7F886021FF0DC0282F2871B3
:10160000283119F4877E816106C0282F217121318C
:1016100011F48E7E886194FD877E089508950C9460
:101620000E0B08950C94110BE82FF0E0EE0FFF1F46
:10163000EF5CFE4F808191810895CF92DF92EF920F
:10164000FF920F931F93CF93DF9387E992E00E945D
:101650008D0581E3E82E81E0F82EC0E0D0E092E92C
:10166000C92E92E0D92E09E812E0DF93CF93DF92E2
:10167000CF920E9426068FE892E00E948D05F70126
:10168000819191917F010E94E31B9F938F931F9300
:101690000F930E94260687E892E00E948D0521960E
:1016A0008DB79EB708960FB6F8949EBF0FBE8DBF3C
:1016B000C530D105D1F6DF91CF911F910F91FF90E9
:1016C000EF90DF90CF900895A9E1B1E041E050E0C4
:1016D00025E02A0F8D91E82FE295EF70F0E031A11F
:1016E0008F70BA0102C0660F771F8A95E2F7CB01AF
:1016F000962F9095932391A392A1892B82A32A13CD
:10170000E9CFADE0B1E041E050E02CE02A0F8D914F
:10171000E82FE295EF70F0E031A18F70BA0102C0BE
:10172000660F771F8A95E2F7CB01962F909593234A
:1017300091A392A1892B82A32A13E9CFEBE3F1E0D5
:10174000A1E3B1E0119211921D921D9271E0E53476
:10175000F707C1F785E00E94460C0C946D065F9276
:101760006F927F928F929F92AF92BF92CF92DF92B1
:10177000EF92FF920F931F93CF93DF9309E111E054
:10178000ABE3B1E0612CEE24E394F12C5D018D908C
:101790009C90119711961C921E92E80189918E01DE
:1017A000E82FE295EF70F0E091A18F70A70101C0E2
:1017B000440F8A95EAF7892F842B81A382A1542EA6
:1017C0005094852182A3D0EADA95F1F78DE0C82EF6
:1017D00081E0D82E80E090E0E60179906E01272D1F
:1017E00022952F7030E0E90168A12D913C9111976D
:1017F00070E0D72DDF7002C075956795DA95E2F736
:1018000060FD08C0B701082E02C0660F771F0A945A
:10181000E2F702C060E070E0262B372B11963C9374
:101820002E9301968C309105B9F681A1D52DD82340
:10183000D1A382A1482B42A3129681E0F501208119
:1018400031818216930609F480E0682AF1E0A5341C
:10185000BF0709F09BCF262D45E061E371E08BE3E4
:1018600091E00E94470C0E947706862DDF91CF9170
:101870001F910F91FF90EF90DF90CF90BF90AF90AE
:101880009F908F907F906F905F9008950895FF9242
:101890000F931F93CF93DF93F82E092F162FD72F77
:1018A000C42F222349F081E0809347010E94761DD6
:1018B0009093460180934501809147018823D9F098
:1018C00080914501909146010E948E1D069798F0E7
:1018D000EF2DF02FA12FBD2F80E090E04C2F50E096
:1018E0008417950734F4219131912D933D930196FE
:1018F000F7CF10924701DF91CF911F910F91FF9089
:1019000008950E94FD1B811102C00E94A61C0E9426
:101910002E1C8093E301282F26952695269530E0EE
:101920002430310524F0877088618093E301809131
:10193000E30180FF04C086958695869501C080E00E
:101940000C94390E2091E301822F86958695869519
:10195000482F50E04330510554F48F5F982F990F72
:10196000990F990F822F8770892B8093E3018091C3
:10197000E30181608093E3010E94321C8091D201D7
:1019800080FF11C08091E3018695869586951F9210
:101990008F9385E193E09F938F930E9426060F908B
:1019A0000F900F900F908091E30186958695869514
:1019B0000C94390E8091E301982F96959695969503
:1019C000A1F0915E990F990F990F8770892B8093E1
:1019D000E301887F91E009F490E08091E30190FBBE
:1019E00080F98093E3010E94321C8091D20180FF34
:1019F00011C08091E3018695869586951F928F93FD
:101A00008DEF92E09F938F930E9426060F900F9088
:101A10000F900F908091E3018695869586950C94A2
:101A2000390E8091E30180FD1FC081608093E30146
:101A3000813019F489E08093E3018091E3010E94F1
:101A4000321C8091D20180FF08C085ED92E09F9307
:101A50008F930E9426060F900F908091E301869548
:101A6000869586950C94390E08958091E30180FF48
:101A700014C08E7F8093E3010E94321C8091D201BA
:101A800080FF08C082EC92E09F938F930E9426060D
:101A90000F900F9080E00C94390E0895CF93C09171
:101AA000E301C1708091D20180FF0CC01F92CF93DF
:101AB00087EE92E09F938F930E9426060F900F90DF
:101AC0000F900F90CC2319F0CF910C94350DCF913E
:101AD0000C94110D9091E301892F8695869586953A
:101AE0008F5F8F719770843038F4880F880F880F5C
:101AF000892B8093E30102C09093E3018091E3017D
:101B0000887F91E009F490E08091E30190FB80F9F7
:101B10008093E3010E94321C8091D20180FF11C0AA
:101B20008091E3018695869586951F928F938EEA24
:101B300092E09F938F930E9426060F900F900F9034
:101B40000F908091E3018695869586950C94390EC9
:101B5000843008F083E0880F880F880F9091E301AC
:101B60009770892B8093E301887F91E009F490E0DE
:101B70008091E30190FB80F98093E3010E94321C85
:101B80008091E3018695869586950C94390EE82F11
:101B9000E295EF70F0E032A1282F2F7081E090E005
:101BA00001C0880F2A95EAF78095832382A30895C0
:101BB000E82FE295EF70F0E032A1282F2F7081E03E
:101BC00090E001C0880F2A95EAF7832B82A308953D
:101BD0001F920F920FB60F9211242F933F934F93A2
:101BE0005F936F937F938F939F93AF93BF93EF9385
:101BF000FF9380E90E94D80DFF91EF91BF91AF91C3
:101C00009F918F917F916F915F914F913F912F9114
:101C10000F900FBE0F901F9018951F920F920FB646
:101C20000F9211242F933F934F935F936F937F9362
:101C30008F939F93AF93BF93EF93FF93809188000F
:101C4000909189008130914018F080E90E94C70D81
:101C5000FF91EF91BF91AF919F918F917F916F9184
:101C60005F914F913F912F910F900FBE0F901F905A
:101C70001895CF92DF92EF92FF92CF93C82F8430C6
:101C8000B0F4811115C08091880090918900892B52
:101C9000F9F080916F008D7F80936F0080916F00CD
:101CA0008E7F80936F0080E90E94D80D11C0C3E041
:101CB0008091880090918900892B51F480916F0068
:101CC000826080936F0080916F00816080936F00CD
:101CD0002C2F30E0AFEFBFEF0E944A2923E030E025
:101CE00040E050E00E9422292C3784E1380741056A
:101CF000510530F4C90169E070E00E940E2929C045
:101D0000DA01C9018A50974DAF4FBF4F6627782F30
:101D1000892F9A2F25EF38E241E050E00E942229D6
:101D200069017A01CA01B9010E94F2289B01AC0144
:101D3000C701B6010E94F228BB27A92F982F872F31
:101D4000009721E0A207B10511F0BC0102C06FEFBE
:101D50007FEF7093890060938800CF91FF90EF90A0
:101D6000DF90CF9008950895509A80E90E94C70DA2
:101D700082E08093800089E1809381008FEF9FEF64
:101D800090938700809386000C94810C0F931F938F
:101D9000CF93DF93C62FD42F022FFC01828188239B
:101DA000C9F060934A010E94761D90934901809387
:101DB000480180E28C0F883008F050C0C77081E085
:101DC00001C0880FCA95EAF7DF91CF911F910F915B
:101DD0000C94D31210914A01161330C0809148011F
:101DE000909149010E948E1D883C910538F5C0E212
:101DF000CD0F1D17B9F080E2810F883040F41770C5
:101E000081E001C0880F1A95EAF70E94DA12C83003
:101E100048F481E09D2F977001C0880F9A95EAF7EA
:101E20000E94D312802F0E94C012C830B8F4D7701D
:101E300081E001C0880FDA95EAF70AC080E28C0FD2
:101E4000883060F4C77081E001C0880FCA95EAF756
:101E5000DF91CF911F910F910C94DA12DF91CF9106
:101E60001F910F9108959C01CB01233F4CE534074E
:101E7000F9F078F4283DFCE53F07B9F0293D4CE541
:101E8000340711F1273D3C4531F526E241EE61EE84
:101E90001EC0253FFCE53F0799F070F0263F3C450A
:101EA000D1F427E245EE66EE12C027E245EE0EC001
:101EB00026E241EE60EE0BC027E245EE64EE07C07D
:101EC00026E241EE62EE03C028E241E065EE0E94A8
:101ED000C60E80E00895FC018281882319F01092DB
:101EE0004A01089581E008959093500180934F0135
:101EF0000895E0914F01F0915001309721F0019049
:101F0000F081E02D099480E00895EF92FF920F9305
:101F10001F93CF93DF93E0914F01F09150013097E1
:101F2000B1F18C010280F381E02D09958091D201FD
:101F300082FF2DC080FF04C085E393E00E948D05E1
:101F4000E80118E08FE2E82E83E0F82E8091D201BC
:101F500080FF0BC088811F928F93FF92EF920E94A7
:101F600026060F900F900F900F901150219611118F
:101F7000EDCF8091D20180FF0AC08DE293E0DF9126
:101F8000CF911F910F91FF90EF900C948D05DF91F1
:101F9000CF911F910F91FF90EF90089520914D01E7
:101FA00030914E018217930771F090934E01809308
:101FB0004D01E0914F01F0915001309721F00680E2
:101FC000F781E02D0994089520914B0130914C0147
:101FD0008217930771F090934C0180934B01E0912D
:101FE0004F01F0915001309721F00084F185E02DF0
:101FF0000994089585B7806885BF85B7806885BFD7
:102000000895089508950C94021008950C940510F5
:102010000E94FA0F0E9401100C94031081E00895B1
:102020000E946D1D0E94640B0E94021E0E94810C82
:102030000C940610CF93C82F8091D20182FF1EC04E
:1020400080FF04C08EE493E00E948D058091D20150
:1020500080FF0CC01F92CF9389E493E09F938F93EE
:102060000E9426060F900F900F900F908091D20142
:1020700080FF04C087E493E00E948D058C2FCF91F0
:102080000C9482064F925F927F928F929F92AF92B2
:10209000BF92CF92DF92EF92FF920F931F93CF9355
:1020A000DF93CDB7DEB72A970FB6F894DEBF0FBE29
:1020B000CDBF0E94AF0B0E940E10811111C08FEF97
:1020C00089838A831B820E94761D8160782F9D837D
:1020D0008C8349815A816B818D810E94FE1057C08B
:1020E00092E5C92E91E0D92E00E010E0AA24A39435
:1020F000B12C702E802F0E94140B4C01F6014190E0
:1021000051906F01482659264114510431F40F5F54
:102110001F4F0530110569F7D2CF8091D20181FDA3
:102120000E941D0B20E030E07501022E02C0EE0C73
:10213000FF1C0A94E2F7C70184219521892B09F13C
:102140002E837F828E209F2091E0892809F490E0E1
:1021500098870E94761D8160782F9A8789874E81A3
:102160005F8168858A850E94FE10000F111FF801AB
:10217000EE5AFE4F80819181E826F926F182E082B5
:1021800006C02F5F3F4F2C30310571F6C0CF109144
:1021900051010E94790F1817D9F00E94790F80938E
:1021A00051012A960FB6F894DEBF0FBECDBFDF9166
:1021B000CF911F910F91FF90EF90DF90CF90BF9044
:1021C000AF909F908F907F905F904F900C941A10DB
:1021D0002A960FB6F894DEBF0FBECDBFDF91CF9128
:1021E0001F910F91FF90EF90DF90CF90BF90AF9035
:1021F0009F908F907F905F904F900895CF93DF9343
:10220000CDB7DEB72B970FB6F894DEBF0FBECDBFAC
:102210004F83588769877A878B87DE01119686E01E
:10222000FD0111928A95E9F785E0FE01379601904C
:102230000D928A95E1F749815A816B817C818D816C
:102240009E810E940D182B960FB6F894DEBF0FBE2C
:10225000CDBFDF91CF910895FC01808191810E94D3
:10226000D91A0895CF93DF931F92CDB7DEB7882395
:1022700009F423C1682F8238C1F40E94790F81FDCF
:102280001CC169E380910001909101010E94DF1C53
:102290000E94641B2FEF81EE94E02150804090401B
:1022A000E1F700C0000069E319C0833811F50E940E
:1022B000790F80FD02C163E58091000190910101D9
:1022C0000E94DF1C0E94641B2FEF81EE94E02150DE
:1022D00080409040E1F700C0000063E5809100017C
:1022E000909101010E94E11C0F90DF91CF910C941D
:1022F000641B8438C1F40E94790F82FDDEC067E45C
:1023000080910001909101010E94DF1C0E94641BDA
:102310002FEF81EE94E0215080409040E1F700C023
:10232000000067E4DBCF8CEF860F813A70F4862FD4
:1023300069830E94032169818111BFC080910001DE
:10234000909101010E94DF1CCFCF80E2860F883080
:1023500048F4677081E001C0880F6A95EAF70E942F
:102360001B1BC2CF8BE5860F833088F4653A29F0BA
:10237000663A31F083E890E005C081E890E002C061
:1023800082E890E00F90DF91CF910C94CE0F88E51A
:10239000860F873108F091C0683A09F445C0693A60
:1023A00009F445C06A3A09F445C06B3A09F445C0DE
:1023B0006C3A09F445C06B3B09F445C06C3B09F429
:1023C00045C06D3A09F445C0603B09F445C06E3A1A
:1023D00009F445C06F3A09F445C0613B09F445C0B2
:1023E000623B09F445C0633B09F445C0643B09F412
:1023F00045C0653B09F445C0663B09F445C0673BF1
:1024000009F445C0683B09F445C0693B09F445C07F
:102410006D3B09F445C06E3B09F445C06A3B09F4C5
:1024200045C080E090E044C082EE90E041C089EE7B
:1024300090E03EC08AEE90E03BC085EB90E038C073
:1024400086EB90E035C083EB90E032C084EB90E007
:102450002FC087EB90E02CC08CEC90E029C08DEC75
:1024600090E026C083E891E023C08AE891E020C094
:1024700082E991E01DC084E991E01AC081E292E016
:1024800017C083E292E014C084E292E011C085E2BA
:1024900092E00EC086E292E00BC087E292E008C0B4
:1024A0008FE690E005C080E790E002C08AE292E00B
:1024B0000F90DF91CF910C94E40F0F90DF91CF91AB
:1024C0000895882309F45BC0682F823879F40E944C
:1024D000790F81FF54C069E380910001909101015F
:1024E0000E94DF1C0E94641B69E310C08338B1F4B2
:1024F0000E94790F80FF43C063E5809100019091B5
:1025000001010E94DF1C0E94641B63E580910001B1
:10251000909101010E94E11C0C94641B843879F4B1
:102520000E94790F82FF2BC067E480910001909197
:1025300001010E94DF1C0E94641B67E4E7CF8CEF5F
:10254000860F813A18F380E2860F883048F467706E
:1025500081E001C0880F6A95EAF70E94211BDCCF59
:102560008BE5860F833020F480E090E00C94CE0F52
:10257000685A673120F480E090E00C94E40F0895ED
:10258000CF93C82F0E943211C93349F42FEF87EE41
:1025900093E0215080409040E1F700C000008C2F74
:1025A000CF910C946112882321F00E941B1B0C9484
:1025B000641B0895882321F00E94211B0C94641B46
:1025C0000895BF92CF92DF92EF92FF920F931F93E5
:1025D000CF93DF937C01062FC72FFC011581129545
:1025E0001F70D281D1110E94381B0E94111B8823B9
:1025F00079F0DD2369F080E2800F883048F082E0D6
:102600000E94AF1B0E94111B91E0B82EB92601C099
:10261000B12CCC2EC2948FE0C822D12CF601EA5AFC
:10262000FF4F0C9444298C2F807FCF70882311F0AA
:10263000C295C07FDD2399F0CC2309F48DC180E2DF
:10264000800F883010F0011104C08C2F0E941B1BDA
:1026500003C08C2F0E942B1B0E94641B7DC1802F06
:102660000E946112CC2309F4C0C180E2800F88303F
:1026700010F0011104C08C2F0E94211B03C08C2F6D
:102680000E94311B0E94641BB0C18C2F807FCF70D1
:10269000803211F0C295C07F002319F00130C9F0DB
:1026A00022C0DD2371F0112341F0113031F40E947A
:1026B0004B1B8C2B0E94511B98C10E944B1B8C2BD7
:1026C0001DC0112319F0113009F48FC10E945A1B4B
:1026D00025C0DD2321F0163008F087C10EC015306B
:1026E00008F083C11BC0DD2361F0112331F0F70135
:1026F000858180FF31C18F7085838C2F0E94D3121A
:1027000074C1112359F0093309F037C1FFEF27EEE7
:1027100083E0F15020408040E1F72DC18C2F0E94D2
:10272000DA1263C18C2F86958695837090E00097AE
:1027300019F0019761F059C1DD2321F0802F9C2F02
:10274000937002C080E090E00E94CE0F59C1DD235B
:1027500021F0802F9C2F937002C080E090E00E94B7
:10276000E40F4EC18C2F837009F049C0D11144C1D0
:10277000402F429546954770440F440F602F6F706D
:10278000862F90E0A0E0B0E0042E04C0880F991FCF
:10279000AA1FBB1F0A94D2F704FF10C00FE010E07D
:1027A00020E030E004C0000F111F221F331F4A95A4
:1027B000D2F7009510952095309503C000E010E009
:1027C0009801C695C695C370D0E0BC01CD01602BC1
:1027D000712B822B932BC230D10559F0C330D10518
:1027E00059F0219719F00E94521906C10E94401910
:1027F00003C10E94641900C10E943E19FDC0DD237F
:1028000019F08C2F817001C08695882309F4F4C0DB
:10281000402F429546954770440F440F602F6F70CC
:10282000862F90E0A0E0B0E0042E04C0880F991F2E
:10283000AA1FBB1F0A94D2F704FF10C00FE010E0DC
:1028400020E030E004C0000F111F221F331F4A9503
:10285000D2F7009510952095309503C000E010E068
:102860009801C695C695C370D0E0BC01CD01602B20
:10287000712B822B932BC230D10559F0C330D10577
:1028800059F0219719F00E94181AB6C00E94061A32
:10289000B3C00E942A1AB0C00E947919ADC0CF708F
:1028A000DD2339F08C2F0E949F19802F0E94D312B4
:1028B000A3C0802F0E94DA128C2F0E94C0199CC0E6
:1028C000023F01F128F4003F41F0013FA1F040C078
:1028D000033FF9F0043F39F13BC0DD2341F01530EF
:1028E00008F083C08C2F8F710E94E5197EC01630CE
:1028F00008F07BC0F7CFDD2339F08C2F8F710E9459
:102900009F1973C0DD23C9F38C2F8F710E94C019EA
:102910006CC0DD2329F08C2F8F710E948A1965C04D
:102920000E94851962C0DD2349F0CF718C2F0E946F
:102930009F1963E08C2F0E949A1B57C081E00E9470
:10294000AF1B123008F451C082E00E94AF1B4DC093
:10295000DD2331F0112389F2802F0E94321145C00E
:10296000112391F2093349F49FEFE7EEF3E0915020
:10297000E040F040E1F700C00000802F0E946112AB
:1029800034C04C2F4F70602FC7010E9438080E943E
:10299000B11836C0D11134C0CF70D0E0C230D105EB
:1029A00099F03CF4209769F02197F9F40E94DA0C31
:1029B00027C0C430D10571F054F02597B1F480E000
:1029C0000AC00E94A20C1CC00E944E0D19C00E9499
:1029D0006A0D16C083E00E94A80D12C04C2F4F70E4
:1029E000602FC7010E943B080BC028E0C21AD10823
:1029F00084E0C816D10420F40E94790F0E94820658
:102A0000BB20D1F00E940D1B80FD16C0F701128281
:102A10000E94071B0E949F19C7010E9426150E9451
:102A2000071BDF91CF911F910F91FF90EF90DF90E7
:102A3000CF90BF900C94C019DF91CF911F910F914F
:102A4000FF90EF90DF90CF90BF9008950F931F936A
:102A5000CF93DF93EC01888199812B813C81232BDB
:102A6000B9F09F3F11F48F3F99F0CE010E949B0671
:102A7000882371F0688179818A810E94E41A8C012F
:102A80000E943C1A0E943D19B801CE010E94E11239
:102A9000DF91CF911F910F9108950E94381B0E94E2
:102AA000481B0E94641B80E090E00E94CE0F80E0F3
:102AB00090E00C94E40F80910001909101010E943C
:102AC000E31C0C944D150E94281B0C945B15E92FF8
:102AD000E295EF70F0E03297EE30F105B0F4EA598C
:102AE000FF4F0C944429803F91F018F4883E68F41D
:102AF0000EC0843F51F40BC0883E48F0813F29F45A
:102B000006C093FB882780F9089580E0089581E04E
:102B100008950E94D91A0E9467150895CF93DF93F4
:102B200000D000D01F92CDB7DEB70F900F900F905E
:102B30000F900F90DF91CF910895CF93DF9300D046
:102B400000D000D0CDB7DEB726960FB6F894DEBF22
:102B50000FBECDBFDF91CF9108951F93CF93DF9329
:102B6000C0915D0116E080915E01C81799F0D0E038
:102B70001C9FF0011D9FF00D1124E15AFE4F408172
:102B8000518162817381848195810E949D15219676
:102B9000C770E9CFDF91CF911F91089540918F01C8
:102BA00050919001609191017091920180919301F7
:102BB000909194010C949D158091940182958F7051
:102BC00009F054C080919101882309F44FC080918D
:102BD0005D01A0915E0160918F0170919001409123
:102BE000920150919301B6E08A1709F43FC090E03A
:102BF00041155105C1F17F3F11F46F3FA1F1B89F1D
:102C0000F001B99FF00D1124E15AFE4F218172139A
:102C10002AC02081621327C02281211124C0238170
:102C200034812417350710F421503109241B350B4A
:102C3000283C3105C0F4209194012F70206120932D
:102C4000940126E0289FF001299FF00D1124EC59F2
:102C5000FE4F80818F70806180838FE891E00E94B9
:102C600026150C94AD1501968770BECF0895CF92AE
:102C7000DF92EF92FF920F931F93CF93DF93CDB725
:102C8000DEB762970FB6F894DEBF0FBECDBF8C01E2
:102C900085E0F801DE011D9601900D928A95E1F71D
:102CA000D8014C9111965C91119712966C911297E4
:102CB0001396CD90DC90149730918F017091900114
:102CC0008091920190919301009709F46BC17F3F2D
:102CD00019F43F3F09F466C1E0909101EE2009F438
:102CE000C0C020919401C816D90628F0F601E81B4F
:102CF000F90BCF0104C0809590958C0D9D1DFF248C
:102D0000F394883C910578F0F12C207F09F0C6C03F
:102D10007C2DD98AC88A89890E948E158FE891E016
:102D20000E942615B1C0822F807F09F046C075131E
:102D300014C0341312C0611110C02F702061209391
:102D400094010E94CE158FE891E00E942615809193
:102D50009401D80115968C932EC0CD2819F15F3FB0
:102D600011F44F3FF9F0F62E61111CC080915D0106
:102D700020915E0136E0821709F45AC090E0389F36
:102D8000F001399FF00D1124E15AFE4F7181571364
:102D900006C07081471303C07281711103C0019690
:102DA0008770E9CFF62E662309F427C1809194013C
:102DB000816080939401F12C20C1751308C03413F5
:102DC00006C0611104C080919401D801C3C04D8731
:102DD0005E878D859E856A8B0E9489156A89882306
:102DE000E1F16623D1F120919401822F82958F70B9
:102DF00090E0029774F080918F01909190019887F4
:102E00008F831986DB86CA862C87CE0107960E949F
:102E1000261586E0F801AFE8B1E001900D928A95A1
:102E2000E1F70E94DC150E94CE15FF24F394E5C063
:102E30004D875E878D859E850E94D91A292F229500
:102E40002F7030E0223031050CF0CBC09F7009F0BC
:102E5000C5C0805E883008F4D0C0C8010E94261525
:102E6000E4CFC816D90608F453C0F601E81BF90BE5
:102E7000CF01883C910508F450C0F12C7C2DD98AF3
:102E8000C88A89890E948E15EFE8F1E086E0DF01AB
:102E90001D928A95E9F70E94CE15AFC0751314C034
:102EA000341312C0611110C080919401F801858320
:102EB000C8010E94261586E0EFE8F1E0DF011D92CF
:102EC0008A95E9F7FE2C99C04D875E878D859E8592
:102ED0006A8B0E9489156A89882309F4BECF66230C
:102EE00009F4BBCF20919401822F82958F7090E0DE
:102EF00002970CF48ECF80918F01909190019A836C
:102F000089831B82DD82CC822E83CE0101967FCF06
:102F1000809590958C0D9D1DACCFF62E662309F4FF
:102F20009CCF75132EC034132CC02091940120FD2A
:102F30001FC0822F82958F70D9F0D80115962C93DF
:102F400015978F3049F08F5F982F9295907F822F41
:102F50008F70892B15968C93C8010E94261586E0E8
:102F6000F801AFE8B1E001900D928A95E1F793CFB7
:102F700086E0F801AFE8B1E001900D928A95E1F7A3
:102F80003CC04D875E878D859E850E948915811185
:102F900040CF80919401816080939401C8010E9488
:102FA00026152BC0662309F458CF4D875E878D8583
:102FB0009E850E948915F82E882309F44ECF86E05D
:102FC000F801AFE8B1E001900D928A95E1F78FE842
:102FD00091E00E942C110E94DC155DCF811139CF48
:102FE0000CC0243031050CF038CF9F7009F431CF7C
:102FF000F8019581907F09F02CCF8F2D62960FB646
:10300000F894DEBF0FBECDBFDF91CF911F910F911E
:10301000FF90EF90DF90CF9008951F93CF93DF93B1
:10302000CDB7DEB72C970FB6F894DEBF0FBECDBF7D
:103030004F83588769877A878B879C87CE0107964D
:103040000E943716882369F08F8198852A853B85F1
:10305000232BF1F19F3F09F063C08F3F09F060C05F
:1030600037C086E0FE013796DE01119601900D9281
:103070008A95E1F76F817885EA85FB85309741F184
:103080007F3F11F46F3F21F120915E0130E0C901D3
:1030900001968770992740915D0150E0841795074C
:1030A00009F447C069837A83FD83EC8396E0929F9D
:1030B000D001939FB00D1124A15ABE4FFE0131964D
:1030C00001900D929A95E1F780935E010E94AD15F3
:1030D00016E080915D0190915E018917C1F1189F02
:1030E000C0011124815A9E4F0E943716882379F11E
:1030F000E0915D011E9FF0011124E15AFE4F4081D5
:10310000518162817381848195810E949D15809196
:103110005D0190E001968770992780935D01D9CF7A
:103120004F81588569857A858B859C850E949D1580
:10313000CFCF0E94631510925E0110925D01EFE8FF
:10314000F1E086E0DF011D928A95E9F7C1CF2C9668
:103150000FB6F894DEBF0FBECDBFDF91CF911F91A8
:103160000895EF92FF920F931F93CF93DF938C01FB
:10317000892B09F46CC0F12CEE24E394E80121962C
:10318000F8018491843740F4843008F051C08130D4
:1031900081F0823019F15BC0853709F444C0A8F191
:1031A0009CE7980F903708F052C08F770E94611209
:1031B00041C00E5F1F4FFE01C49180E28C0F88302A
:1031C00048F4C7708E2D01C0880FCA95EAF70E9497
:1031D0003B1B14C08C2F0E9432112DC00E5F1F4F5D
:1031E000FE01C49180E28C0F883058F4C7708E2D98
:1031F00001C0880FCA95EAF70E94411B0E94641B18
:103200001AC08C2F0E94611216C00E5F1F4FFE0164
:10321000C491CC2381F08FE99FE00197F1F700C0C2
:103220000000C150F6CF0E5F1F4FFE01F49003C0A7
:103230000E9432118E018F2D882309F49FCFEFE970
:10324000FFE03197F1F700C000008150F5CFDF912A
:10325000CF911F910F91FF90EF90089508950C94D6
:103260002E190E942F196093C1017093C20180939F
:10327000C3019093C4010C944D1508950C94311919
:103280000F931F930091C1011091C2012091C301BE
:103290003091C401602B712B822B932B1F910F91C6
:1032A0000C9431190F931F930091C1011091C20129
:1032B0002091C3013091C4016023712382239323A1
:1032C0001F910F910C9431190F931F930091C1011D
:1032D0001091C2012091C3013091C4016027712770
:1032E000822793271F910F910C94311908950C9404
:1032F00076190E9477196093BD017093BE01809387
:10330000BF019093C0010C944D1560E070E0CB01BB
:103310000C9479190F931F9341E050E060E070E046
:103320008A019B0104C0000F111F221F331F8A95C1
:10333000D2F7C901B8011F910F910C9479190F931D
:103340001F9341E050E060E070E004C0440F551F5F
:10335000661F771F8A95D2F78091BD019091BE01BB
:10336000A091BF01B091C0018A019B01082B192BCC
:103370002A2B3B2BC901B8011F910F910C9479198D
:103380000F931F9341E050E060E070E004C0440FF1
:10339000551F661F771F8A95D2F740955095609507
:1033A00070958091BD019091BE01A091BF01B09137
:1033B000C0018A019B01082319232A233B23C90149
:1033C000B8011F910F910C9479190F931F9341E04D
:1033D00050E060E070E004C0440F551F661F771F87
:1033E0008A95D2F78091BD019091BE01A091BF0155
:1033F000B091C0018A019B01082719272A273B2782
:10340000C901B8011F910F910C9479190F931F9363
:103410000091BD011091BE012091BF013091C0010A
:10342000602B712B822B932B1F910F910C94791988
:103430000F931F930091BD011091BE012091BF0118
:103440003091C00160237123822393231F910F9138
:103450000C9479190F931F930091BD011091BE0137
:103460002091BF013091C0016027712782279327E7
:103470001F910F910C94791908952CE0929F800D63
:103480001124A82FA695A695A695877051E001C096
:10349000550F8A95EAF785E0A89FD001112420E016
:1034A00030E070E0F901EA0FFB1FEB56FE4F408160
:1034B000CB01022E02C0969587950A94E2F781709F
:1034C0009927819584278523842780832F5F3F4F09
:1034D0002530310539F708952CE0929F800D112495
:1034E000682F669566956695982F977085E0689F1A
:1034F000B001112440E050E080E0FA01E60FF71F30
:10350000EB56FE4F208130E0092E02C036952795FC
:103510000A94E2F721703327042E01C0220F0A9487
:10352000EAF7822B4F5F5F4F4530510531F7089521
:10353000BF92CF92DF92EF92FF920F931F93CF93A0
:10354000DF938C01C090C101D090C201E090C30113
:10355000F090C4018091BD019091BE01A091BF0186
:10356000B091C001C82AD92AEA2AFB2ACFE1D0E0CB
:10357000D701C6010C2E04C0B695A79597958795DF
:103580000A94D2F780FF07C0BC2EB8018C2F0E948E
:103590005608019719F4219758F7B12C8B2DDF911C
:1035A000CF911F910F91FF90EF90DF90CF90BF9040
:1035B0000895CF93DF93EC010E94981ABE010E94F8
:1035C0005608DF91CF9108951F93CF93DF93EB01BE
:1035D00090915C01992321F0CB010E94D91A13C06C
:1035E000882349F0CB010E94981A182F682FCE012A
:1035F0000E943D1A04C0CB010E946C1A182FBE0114
:10360000812F0E945608DF91CF911F9108958091DC
:10361000C50185958595859508958091C50187702B
:1036200008959091C501977081E009F480E00895B4
:103630008091D10108959091D101892B8093D1017E
:10364000089580959091D10189238093D1010895A7
:103650001092D10108959091D001892B8093D001CF
:10366000089580959091D00189238093D001089589
:103670001092D00108959091CF01892B8093CF01B2
:10368000089580959091CF0189238093CF0108956B
:103690001092CF0108958091C601089508950C9469
:1036A0004E1B9091C601981721F08093C6010C948F
:1036B0004F1B08958091C601882329F01092C601FE
:1036C00080E00C944F1B0895E0910001F0910101FE
:1036D0008091D1018083E0910001F09101019081FE
:1036E0008091D001892B8083E0910001F09101014C
:1036F00090818091CF01892B80838091C60188239E
:1037000081F0E0910001F09101019081892B80838B
:1037100080910001909101010E94AD1C81110E94D5
:103720005A1B80910001909101010C94850F08951E
:103730000C94971B98E0899F90011124262B2093CD
:10374000C5010E949F198091C50185958595859534
:103750000C94981B1092C50180E00C94981B20914A
:10376000C501809582238093C501982F977079F4C5
:1037700030E0482F082E000C550B2417350739F080
:103780008595859585950E94C0190C94AA1B08956E
:1037900090932F0180932E0108958295982F9C7C01
:1037A000392F36953695282F237344E0249FC00186
:1037B0001124932F982B292F2A7A2695892F8575E6
:1037C000880F822B08951F93CF93DF931F92CDB75D
:1037D000DEB799830E94CD1B182F9981892F0E94F3
:1037E000CD1B212F30E0322F2227A901482BCA01FF
:1037F0000F90DF91CF911F91089580E090E00E949B
:103800006C2921E08C3E9E4F09F020E0822F089524
:1038100082E090E00C94642983E090E00C946429A9
:10382000CF9384E090E00E946429C82F81E290E069
:103830000E9464292C2F30E0A901582BCA01CF9196
:103840000895CF93C92F682F84E090E00E947229D9
:103850006C2F81E290E0CF910C94722986E090E089
:103860000C946429682F86E090E00C947229AB01D7
:10387000BC018FE090E00C948429AB01BC0183E192
:1038800090E00C94842960E070E0CB010C943D1C26
:1038900060E070E0CB010E94371C0C94431C6CEE7E
:1038A0007EEF80E090E00E94902960E082E090E06E
:1038B0000E94722960E083E090E00E9472291092D9
:1038C000C1011092C2011092C3011092C40160E0C4
:1038D00084E090E00E94722960E081E290E00E9422
:1038E000722960E085E090E00E94722960E086E045
:1038F00090E00E9472296FEF87E090E00E947229A9
:1039000040E050E0BA0188E090E00E94842960E045
:103910008DE090E00E94722940E050E0BA0188E119
:1039200090E00E94842960E087E190E00E94722983
:1039300040E050E0BA018CE190E00E94842960E010
:1039400080E290E00E9472290C94481C0C944F1C59
:10395000682F8EE090E00C947229FC01329697E07B
:1039600080E0915029F021912223D9F38F5FF9CF84
:1039700008959C01FC0132969FEF80E0419146172B
:1039800089F09F3F19F4411101C0982F8F5F863055
:10399000A9F79F3F39F0F901E90FF11D97FDFA955D
:1039A000628308950895FC013296089620812613BB
:1039B00001C010823196E817F907C1F708950C94F9
:1039C000B91C0C94D31C029626E0FC0111922A9596
:1039D000E9F7089508950C94EA1C0E94EB1C80916D
:1039E000EE01843061F11092D30120E488E190E08F
:1039F0000FB6F894A895809360000FBE20936000E6
:103A000080E00E94390E80E00E9482060E94EB1C3A
:103A100083B7817F846083BF83B7816083BF7894DD
:103A2000889583B78E7F83BF0FB6F894A895809151
:103A30006000886180936000109260000FBE08955E
:103A400008950895CF930E94201D0E94AF0B0E94FD
:103A5000211DC0E08C2F0E94140B892B29F4CF5F0D
:103A6000C530C1F780E001C081E0CF91089508958D
:103A70000C94371D0E9463150E94810C0E94790FDF
:103A80000E9482060C94381D1F920F920FB60F925F
:103A900011248F939F93AF93BF938091D301811192
:103AA00013C08091E4019091E501A091E601B091ED
:103AB000E7014196A11DB11D8093E4019093E501BA
:103AC000A093E601B093E701BF91AF919F918F91D1
:103AD0000F900FBE0F901F90189582E084BD93E069
:103AE00095BD9AEF97BD80936E0008952FB7F89417
:103AF0008091E4019091E501A091E601B091E70188
:103B00002FBF08952FB7F8946091E4017091E501FB
:103B10008091E6019091E7012FBF0895CF92DF9247
:103B2000EF92FF920F931F932FB7F8944091E40107
:103B30005091E5016091E6017091E7012FBF6A01A4
:103B40007B01EE24FF248C0120E030E0C016D1067A
:103B5000E206F30610F4415051099A01281B390B73
:103B6000C9011F910F91FF90EF90DF90CF900895C2
:103B700078941F920F920FB60F9211248F939F93F8
:103B8000AF93BF938091E4019091E501A091E6018C
:103B9000B091E7010196A11DB11D8093E4019093BE
:103BA000E501A093E601B093E701BF91AF919F912A
:103BB0008F910F900FBE0F901F90189581E080930A
:103BC000E00080E28093D8001092C9008FE19EE46B
:103BD0000197F1F700C0000087E090EBDC018093D3
:103BE000F7019093F801A093F901B093FA019CE0DA
:103BF00088E10FB6F894A895809360000FBE90936B
:103C00006000FFCF0E94FD1B811102C00E94A61C14
:103C10000E94081C8093D2010E94101C9093E9011D
:103C20008093E8010E940C1C682F70E080E090E017
:103C30000C943E19CF93C82F1F928F9387E693E081
:103C40009F938F930E94260681E090E0A0E0B0E071
:103C5000BC01CD0104C0660F771F881F991FCA954C
:103C6000D2F70E943E190F900F900F900F90CF91B6
:103C70000C946315CF93DF938B3109F435C208F0B0
:103C8000CBC18B3009F4EEC108F0A1C1863009F434
:103C9000ECC120F4853009F4FAC1A8C2873009F4D8
:103CA00008C2883009F0A2C28DEE98E00E948D050E
:103CB0008EE398E00E948D050E940C1C1F928F934A
:103CC0008BE398E09F938F930E94260689E398E008
:103CD0000E948D050E94081CC82F86E298E00E9471
:103CE0008D051F92CF9381E298E09F938F930E945E
:103CF00026068FE198E00E948D0585E198E00E94FC
:103D00008D058C2F81701F928F9382E198E09F9395
:103D10008F930E94260680E198E00E948D0586E040
:103D200098E00E948D05C1FB882780F91F928F9330
:103D300083E098E09F938F930E94260681E098E0AD
:103D40000E948D0585EF97E00E948D05C2FB8827B4
:103D500080F91F928F9382EF97E09F938F930E9439
:103D6000260680EF97E00E948D0587EE97E00E947F
:103D70008D05C3FBCC27C0F91F92CF9384EE97E04B
:103D80009F938F930E94260682EE97E00E948D05F6
:103D90000E94101CEC018EEC97E00E948D05DF93D1
:103DA000CF9389EC97E09F938F930E94260687EC30
:103DB00097E00E948D058EEA97E00E948D058C2F7A
:103DC00081701F928F938BEA97E09F938F930E944D
:103DD00026068DB79EB780960FB6F8949EBF0FBE8D
:103DE0008DBF89EA97E00E948D0582E997E00E94E5
:103DF0008D05C1FB882780F91F928F938FE897E08C
:103E00009F938F930E9426068DE897E00E948D0570
:103E10008BE797E00E948D058D2F81701F928F9305
:103E200088E797E09F938F930E94260686E797E0A6
:103E30000E948D0584E697E00E948D05D695D1708D
:103E40001F92DF9381E697E09F938F930E9426064F
:103E50008FE597E00E948D058DE497E00E948D0527
:103E6000C2FB882780F91F928F938AE497E09F9383
:103E70008F930E94260688E497E00E948D0586E3D2
:103E800097E00E948D05C3FB882780F91F928F93CE
:103E900083E397E09F938F930E94260681E397E048
:103EA0000E948D0587E297E00E948D05C4FB88275C
:103EB00080F91F928F9384E297E09F938F930E94E3
:103EC000260682E297E00E948D0580E197E00E943D
:103ED0008D05C5FB882780F91F928F938DE097E0B1
:103EE0009F938F930E9426068BE097E00E948D059A
:103EF0008FEE96E00E948D05C6FB882780F91F9201
:103F00008F938CEE96E09F938F930E9426068DB739
:103F10009EB780960FB6F8949EBF0FBE8DBF8AEEF7
:103F200096E00E948D0582EE96E00E948D05C7FB0B
:103F3000CC27C0F91F92CF938FED96E09F938F937C
:103F40000E9426068DED96E00E948D050E942E1C93
:103F5000C82F86EC96E00E948D051F92CF9381ECCE
:103F600096E09F938F930E9426068FEB96E00E9427
:103F70008D0585EB96E00E948D058C2F81701F9238
:103F80008F9382EB96E09F938F930E94260680EB9F
:103F900096E00E948D0587EA96E00E948D05C69501
:103FA000C695C6951F92CF9384EA96E09F938F9310
:103FB0000E94260682EA96E00E948D058DB79EB784
:103FC00040960FB6F8949EBF0FBE8DBF49C080319A
:103FD00009F4B4C020F48E3009F49AC007C18631C8
:103FE00009F4C7C0893109F001C185ED94E00E9450
:103FF0008D058DEA94E00E948D0588E694E00E948C
:104000008D0580E394E00E948D0583E094E00E949A
:104010008D0585ED93E08FC08A32E1F060F4873240
:1040200009F4E0C028F48E3108F4E0C08D51DBC003
:10403000893269F1DBC0833448F48A3308F0D0C098
:10404000853309F4CFC0883369F0D0C0833409F4D4
:10405000C9C0CCC08CED98E00E948D050E94A61CC2
:10406000C1E0C9C08FEF94E066C08091D201817F2A
:104070008E7F8093D20184EE94E00E948D0588EDBE
:1040800098E00E948D0581E08093D401E9CF0E94E1
:1040900063158CEB98E00E948D059FEF23ED80E384
:1040A000915020408040E1F700C000000E94DE1DDA
:1040B000D7CF8091D201C82FC095C170C0FB80F9C5
:1040C0008093D201CC2329F080EB98E00E948D05EB
:1040D00092C083EA98E00E948D058091D201897F89
:1040E000877F8093D201BCCF9091D20191FBCC27E6
:1040F000C0F981E0C827892FC0FB81F98093D201E4
:10410000CC2319F086E998E029C088E898E013C02C
:104110009091D20192FBCC27C0F981E0C827892F6A
:10412000C0FB82F98093D201CC2319F089E798E093
:1041300015C089E698E00E948D0592CF9091D2013A
:1041400093FBCC27C0F981E0C827892FC0FB83F9F6
:104150008093D201CC2351F08DE598E00E948D052B
:104160008091D20181608093D20145C080E598E0C2
:10417000E2CF87EC93E00E948D050E94790F1F9299
:104180008F938DEA93E09F938F930E9426068091F0
:104190000C011F928F9386E993E09F938F930E9467
:1041A00026068091E1011F928F9383E893E09F930D
:1041B0008F930E9426060E94821D9F938F937F9368
:1041C0006F938CE693E09F938F930E9426068DB7A2
:1041D0009EB742960FB6F8949EBF0FBE8DBF40CFDC
:1041E000895301C080E00E941A1E3ACF8EE498E005
:1041F0000E948D05C0E08C2FDF91CF91089580E063
:10420000089580E00895CF93C82F8091D40188232A
:1042100019F0813031F038C00E94181B8232B1F59C
:1042200004C00E94181B823261F48C2F0E94FF2070
:10423000811104C08C2F0E943A1E24C081E090E0BE
:1042400021C08C2F0E94012181111BC0C43189F033
:1042500018F4CB3029F010C0C93259F0C83361F4DA
:1042600084EE94E00E948D0583E693E00E948D0524
:1042700008C01092D4010CC081E693E00E948D0525
:1042800007C081E0817006C01092D40180E002C0B6
:1042900080E0F8CFCF9108958091E00108950895CE
:1042A0009FB7F8941092D7019FBF9091EE01943080
:1042B00009F057C09091E9009F703091EC00232FD6
:1042C000217030FD20E8922B23E02093E90020911B
:1042D000EB0020FF43C02091EE0027FF3FC020915C
:1042E000D501222321F02091E80025FF37C010924C
:1042F000D50126E03091E80035FD15C03091EE0182
:10430000343061F53091EB0035FD28C0215021F4A7
:1043100081E08093D50122C0EFE9FFE03197F1F70A
:1043200000C00000E7CF8093F1008091E80085FD98
:104330000AC08091E80080FFFCCF8091E8008E7772
:104340008093E80006C08FB7F89421E02093D7014E
:104350008FBF9F709093E90080E008959F709093C5
:10436000E9008FEF08950F931F93CF93DF9300D051
:104370001F92CDB7DEB78C010E943A24823011F033
:10438000843021F584E089831B830A8382E0809353
:10439000E9008FEF9091E800815095FD06C095ED02
:1043A0009A95F1F700008111F5CF8091E80085FF23
:1043B0000DC040E050E063E070E0CE0101960E9445
:1043C00057248091E8008E778093E8000F900F903B
:1043D0000F90DF91CF911F910F910895CF93DF93AD
:1043E00000D01F92CDB7DEB72091EE01243031F519
:1043F00023E02983805891099B838A8382E08093FC
:10440000E9008FEF9091E800815095FD06C095ED91
:104410009A95F1F700008111F5CF8091E80085FFB2
:104420000DC040E050E063E070E0CE0101960E94D4
:1044300057248091E8008E778093E8000F900F90CA
:104440000F90DF91CF910895CF93DF93EC010E94FD
:104450003A24823011F0843039F581E08093E9000C
:104460008FEF9091E800815095FD06C095ED9A95EB
:10447000F1F700008111F5CF8091E80085FF14C0AD
:1044800040E050E068E070E0CE010E945724809147
:10449000E8008E778093E80088E0FE01A8EDB1E0A7
:1044A00001900D928A95E1F7DF91CF9108958DE10A
:1044B00099E00E948D058091ED01811109C00E9453
:1044C000EC250E9449268091E20084608093E200FE
:1044D000089589E199E00E948D051092ED010895FB
:1044E00085E199E00C948D0581E199E00C948D05AE
:1044F0008DE099E00E948D050C943A1D2091D60123
:104500002F5F822F62E30E940229992319F02093E2
:10451000D60108951092D6018091D701882371F1B8
:104520008091EE01843041F58091E9008F702091F7
:10453000EC00922F917020FD90E8892B93E09093EE
:10454000E9009091EB0090FF14C09091EE0097FF6E
:1045500010C09091E80095FF03C01092F100F9CFD0
:104560009091E80090FF05C09091E8009E779093AD
:10457000E8008F708093E9001092D701089542E01F
:1045800061EC81E00E94662542E261EC82E00E94DB
:10459000662542E261EC83E00C9466258091F0018F
:1045A000833009F460C030F4813071F0823009F456
:1045B00099C008958A3009F485C08B3009F46BC026
:1045C000893009F0A7C020C08091EF01813A09F03D
:1045D000A1C08091E800877F8093E8008091F3017B
:1045E0009091F401892B21F468E088ED91E003C0FB
:1045F00060E080E090E070E00E94A2248091E800FA
:104600008B778093E80008958091EF01813209F063
:1046100081C08091F3019091F401029708F07AC073
:104620008091E800877F8093E8008091E80082FD18
:1046300005C08091EE018111F8CF6CC02091F3008C
:104640008091F20090E0922B029729F48091F10082
:104650008B7F813021F48091F1008093E001809183
:10466000E8008B7753C08091EF01813A09F052C086
:104670008091F3019091F401892B09F04BC0809156
:10468000E800877F8093E8008091E80080FFFCCFFE
:1046900080910C0136C08091EF018132D9F5809173
:1046A000F3019091F401892BA9F58091E800877FAF
:1046B0008093E8000E949B258091F10180930C017A
:1046C0000C9463158091EF01813221F58091E8000F
:1046D000877F8093E8000E949B258091F201809360
:1046E000E10108958091EF01813AA1F48091E80001
:1046F000877F8093E8008091E80080FFFCCF809165
:10470000E1018093F1008091E8008E778093E800CA
:104710000C949B25089584B7877F84BF0FB6F894C7
:10472000A89580916000886180936000109260007D
:104730000FBE80E880936100109261000E94081013
:104740000E94EC250E9449268091E20084608093BB
:10475000E20080E591E20E94C81B78940E94D7286D
:104760000E94101082E091E00E94740F8CEF98E09C
:104770000E948D058091EE01853089F488EF98E0E4
:104780000E948D050E94ED1C8091EC01882391F31D
:104790000E94221D882371F30E944124EBCF0E94C6
:1047A0004210E8CF0C94D423292F3327233031052E
:1047B000C9F064F42130310581F02230310509F06F
:1047C00049C08BE590E02BE639E048C02132310545
:1047D00021F12232310571F13DC082E190E026ECF9
:1047E00039E03CC099278130910571F02CF4892B78
:1047F00089F5E7E6F9E00DC08230910541F00397B5
:1048000049F5E1E2F9E005C0E5E4F9E002C0E7E2DC
:10481000F9E0849190E09F0121C063307105D0F4EC
:10482000660F771FFB01E95DFE4F2081318189E032
:1048300090E014C06330710568F4FB01EE0FFF1FB8
:10484000EF5DFE4F20813181FB01E25EFE4F8081F2
:1048500090E004C080E090E020E030E0FA01318395
:10486000208308958091EE01843011F081E0089555
:1048700082E008958091E201811102C00C943224FB
:10488000089580E189BD82E189BD09B400FEFDCFB4
:104890008091D8008F7D8093D8008091E000826065
:1048A0008093E0008091E00081FDFCCF0895CF92DD
:1048B000DF92EF92FF920F931F93CF93DF93EC0160
:1048C0008B016A010E94BA25811133C0C114D10441
:1048D00039F0F60180819181081B190BC80FD91F8F
:1048E000E12CF12C0115110519F18091E80085FDED
:1048F00016C08091E8008E778093E800C114D1043F
:1049000049F0F60180819181E80EF91EF182E08282
:1049100085E00FC00E94BA25882321F30AC089913F
:104920008093F10001501109FFEFEF1AFF0ADACF6F
:1049300080E0DF91CF911F910F91FF90EF90DF907A
:10494000CF9008952091F5013091F6012617370791
:1049500048F06115710539F42091E8002E77209315
:10496000E80001C0B90140E061157105A9F120918D
:10497000EE01222309F443C0253009F442C02091FE
:10498000E80023FD40C02091E80022FD32C02091C4
:10499000E80020FFE9CF4091F3002091F20030E0E1
:1049A000342BFC01CF016115710559F02830310518
:1049B00040F481918093F100615071092F5F3F4F66
:1049C000F1CF41E02830310509F040E02091E800C6
:1049D0002E772093E800C8CF4111C9CF0AC080913B
:1049E000EE01882361F0853061F08091E80083FD5D
:1049F0000AC08091E80082FFF2CF80E0089582E053
:104A0000089583E0089581E008952091F5013091A3
:104A1000F6012617370748F06115710539F4209122
:104A2000E8002E772093E80001C0B901FC0120E0E6
:104A30006115710591F18091EE01882309F440C060
:104A4000853009F43FC08091E80083FD3DC080912E
:104A5000E80082FD2FC08091E80080FFE9CF20911F
:104A6000F3008091F20090E0922B6115710559F0EE
:104A70008830910540F424912093F10031966150E3
:104A800071090196F2CF21E0089709F020E08091AA
:104A9000E8008E778093E800CBCF2111CCCF0AC0FD
:104AA0008091EE01882361F0853061F08091E8000B
:104AB00083FD0AC08091E80082FFF2CF80E0089574
:104AC00082E0089583E0089581E00895982F97305B
:104AD00058F59093E900981739F07091EC00209107
:104AE000ED005091F00003C0242F762F50E021FFFD
:104AF00019C03091EB003E7F3093EB003091ED0018
:104B00003D7F3093ED003091EB0031603093EB004E
:104B10007093EC002093ED005093F0002091EE0094
:104B200027FF07C09F5FD3CF8F708093E90081E09C
:104B3000089580E008958091EF0187FF11C0809172
:104B4000E80082FD05C08091EE018111F8CF11C00F
:104B50008091E8008B770BC08091EE01882349F0AB
:104B60008091E80080FFF8CF8091E8008E778093F5
:104B7000E80008952091E4003091E50095E6409129
:104B8000EC00842F817040FF22C08091E80080FDFE
:104B90001CC08091EE01882391F0853091F08091C6
:104BA000EB0085FD10C04091E4005091E5004217F4
:104BB000530729F39A01915011F784E0089582E098
:104BC000089583E0089581E0089580E0089540917C
:104BD000E80042FFDECF08950E945A260E94622616
:104BE000E0EEF0E0808181608083E8EDF0E080819C
:104BF0008F77808319BCA7EDB0E08C918E7F8C936A
:104C000080818F7E80831092ED0108950F931F9312
:104C1000CF93DF930E945A260E946226C8EDD0E00F
:104C200088818F77888388818068888388818F7D59
:104C3000888319BC1092EE011092EA011092EC01E7
:104C40001092EB0100EE10E0F80180818B7F8083F1
:104C500088818160888342E060E080E00E94662570
:104C6000E1EEF0E080818E7F8083E2EEF0E08081F3
:104C700081608083808188608083F80180818E7F5D
:104C80008083888180618883DF91CF911F910F910C
:104C90000895E8EDF0E080818F7E8083E7EDF0E01D
:104CA00080818160808384E082BF81E08093ED0118
:104CB0000C940626E8EDF0E080818E7F80831092D0
:104CC000E20008951092DA001092E10008951F9218
:104CD0000F920FB60F9211242F933F934F935F9330
:104CE0006F937F938F939F93AF93BF93EF93FF93B4
:104CF0008091E10082FF0BC08091E20082FF07C03B
:104D00008091E1008B7F8093E1000E947E22809160
:104D1000DA0080FF1FC08091D80080FF1BC0809107
:104D2000DA008E7F8093DA008091D90080FF0DC079
:104D300080E189BD82E189BD09B400FEFDCF81E03B
:104D40008093EE010E94572205C019BC1092EE011B
:104D50000E9469228091E10080FF19C08091E200E9
:104D600080FF15C08091E2008E7F8093E2008091E9
:104D7000E20080618093E2008091D800806280939D
:104D8000D80019BC85E08093EE010E9474228091C6
:104D9000E10084FF30C08091E20084FF2CC080E1FC
:104DA00089BD82E189BD09B400FEFDCF8091D800A4
:104DB0008F7D8093D8008091E1008F7E8093E10009
:104DC0008091E2008F7E8093E2008091E20081601A
:104DD0008093E2008091EA01882311F084E007C00B
:104DE0008091E30087FD02C081E001C083E08093F1
:104DF000EE010E9478228091E10083FF29C080911A
:104E0000E20083FF25C08091E100877F8093E1006D
:104E100082E08093EE011092EA018091E1008E7FA2
:104E20008093E1008091E2008E7F8093E200809188
:104E3000E20080618093E20042E060E080E00E9456
:104E400066258091F00088608093F0000E947022B7
:104E5000FF91EF91BF91AF919F918F917F916F9152
:104E60005F914F913F912F910F900FBE0F901F9028
:104E700018951F920F920FB60F9211242F933F9304
:104E80004F935F936F937F938F939F93AF93BF9352
:104E9000CF93DF93EF93FF93C091E900CF708091A0
:104EA000EC00D82FD17080FDD0E81092E9008091FD
:104EB000F000877F8093F00078940E947D27109205
:104EC000E9008091F00088608093F000CD2BCF70D6
:104ED000C093E900FF91EF91DF91CF91BF91AF9126
:104EE0009F918F917F916F915F914F913F912F9102
:104EF0000F900FBE0F901F9018951F93CF93DF93C5
:104F0000CDB7DEB7AA970FB6F894DEBF0FBECDBF00
:104F1000EFEEF1E088E08E0F9091F10091938E1307
:104F2000FBCF0E94CE228091E80083FF28C18091B0
:104F3000EF019091F001492F50E04A30510508F0FF
:104F40001EC1FA01EC58FF4F0C944429803821F01F
:104F5000823809F014C108C08091EB019091EC01F6
:104F6000992389F082600FC08091F3018F708730A0
:104F700008F005C18093E9008091EB0085FB88274C
:104F800080F91092E9009091E800977F9093E800F3
:104F90008093F1001092F100D0C0282F2D7F09F0EE
:104FA000EEC0882319F0823061F0E9C08091F101F0
:104FB000813009F0E4C0933009F080E08093EC0187
:104FC0002EC08091F10181112AC08091F3018F7070
:104FD0002FEF280F263008F0D2C08093E9002091EF
:104FE000EB0020FF1CC0933021F48091EB00806225
:104FF00014C09091EB0090619093EB0021E030E0C1
:10500000A90102C0440F551F8A95E2F74093EA00B8
:105010001092EA008091EB0088608093EB00109280
:10502000E9008091E800877F8093E8000E949B253B
:10503000A6C08111A4C01091F1011F778091E300F7
:105040008078812B8093E3008091E800877F8093B4
:10505000E8000E949B258091E80080FFFCCF8091B2
:10506000E30080688093E300111102C082E001C078
:1050700083E08093EE0183C08058823008F07FC0C7
:105080008091F1019091F2018C3D53E0950779F503
:1050900083E08A838AE289834FB7F894DE0113960E
:1050A00020E03EE051E2E32FF0E050935700E4911E
:1050B00020FF03C0E295EF703F5FEF708E2F90E00E
:1050C000EA3010F0C79601C0C0968D939D932F5F74
:1050D000243149F74FBF8091E800877F8093E80033
:1050E0006AE270E0CE0101960E94A22415C0609190
:1050F000F3017091F401AE014F5F5F4F0E94D22324
:10510000BC01892BE1F19091E800977F9093E80032
:1051100089819A810E9405258091E8008B77809390
:10512000E8002DC0803859F58091E800877F809392
:10513000E8008091EA018093F1008091E8008E7789
:1051400073CF81111CC09091F1019230C0F4809115
:10515000E800877F8093E8009093EA010E949B25F6
:105160008091EA01811106C08091E30087FD02C0B1
:1051700081E001C084E08093EE010E94BF22809113
:10518000E80083FF0AC08091E800877F8093E800F1
:105190008091EB0080628093EB00AA960FB6F894A2
:1051A000DEBF0FBECDBFDF91CF911F910895CF938A
:1051B0008091EE018823A1F0C091E900CF70909119
:1051C000EC00892F817090FD80E8C82B1092E900D7
:1051D0008091E80083FD0E947D27CF70C093E90095
:1051E000CF910895DB018F939F930E945929BF911E
:1051F000AF91A29F800D911DA39F900DB29F900D26
:1052000011240895991B79E004C0991F961708F09E
:10521000961B881F7A95C9F780950895AA1BBB1B1A
:1052200051E107C0AA1FBB1FA617B70710F0A61BA6
:10523000B70B881F991F5A95A9F780959095BC01C7
:10524000CD010895A1E21A2EAA1BBB1BFD010DC0C2
:10525000AA1FBB1FEE1FFF1FA217B307E407F50726
:1052600020F0A21BB30BE40BF50B661F771F881F02
:10527000991F1A9469F760957095809590959B0198
:10528000AC01BD01CF010895EE0FFF1F0590F49111
:10529000E02D0994A29FB001B39FC001A39F700DA0
:1052A000811D1124911DB29F700D811D1124911D2E
:1052B00008950E944A29A59F900DB49F900DA49F28
:1052C000800D911D11240895F999FECF92BD81BDE5
:1052D000F89A992780B50895A8E1B0E042E050E03F
:1052E0000C949829262FF999FECF92BD81BDF89A8A
:1052F000019700B4021639F01FBA20BD0FB6F8941A
:10530000FA9AF99A0FBE08950396272F0E947329DF
:105310000E947229252F0E947329242F0C9473292F
:105320000196272F0E9473290C947229DC01CB016E
:10533000FC01F999FECF06C0F2BDE1BDF89A3196A5
:1053400000B40D9241505040B8F70895F894FFCF43
:10535000C7014C2124224F21EE21B32101F1F43168
:10536000323337919294969734C6F0F5F6F740367B
:0E53700022300AFA09D8097D099609AF090012
:00000001FF
