:100000000C94EF050C9436060C9436060C943606C8
:100010000C9436060C9436060C9436060C94360670
:100020000C9436060C9436060C9449290C941B2A21
:100030000C94461B0C9436060C9436060C9436062B
:100040000C9436060C9436060C9436060C94360640
:100050000C9436060C94BA1B0C9436060C94360697
:100060000C9436060C9436060C9436060C94360620
:100070000C9436060C9436060C9436060C94360610
:100080000C9436060C9436060C9436060C94360600
:100090000C9436060C9436060C9436060C943606F0
:1000A0000C9436060C9436060C9436062111211158
:1000B00053115311A011C0112013201302129F12CB
:1000C000B012B0121013201320131913A213A2138D
:1000D000B413B413AB13B413B413B413A213A21315
:1000E000B013B413B413B013882AAF2AA12BAF2ACC
:1000F000A12BFB2A1E2BA12B742B832B3D04AB00C1
:10010000A900AA002900AC0044454255473A2064A2
:10011000697361626C65642E0A0044454255473A32
:1001200020656E61626C65642E0A000A0025303815
:1001300062003A200025303258000A722F632030C6
:10014000313233343536370A000A00253032582030
:10015000006B6579626F6172645F7265706F727453
:100160003A20000A0025303258006B6579626F61D1
:1001700072645F7365745F6C65643A2000290A00DD
:100180002575002F002575005D28002564002000DE
:10019000256400200025640020002564007C0025E3
:1001A000303258006D6F7573656B6579205B6274D2
:1001B0006E7C782079207620685D287265702F61CA
:1001C000636C293A205B006D6B5F776865656C5FD7
:1001D00074696D655F746F5F6D6178203D20256483
:1001E0000A006D6B5F776865656C5F6D61785F7342
:1001F00070656564203D2025640A006D6B5F74693D
:100200006D655F746F5F6D6178203D2025640A0025
:100210006D6B5F6D61785F7370656564203D20254F
:10022000640A006D6B5F696E74657276616C203D67
:100230002025640A006D6B5F64656C6179203D2048
:1002400025640A006D6B5F776865656C5F74696D26
:10025000655F746F5F6D6178203D2025640A006DD5
:100260006B5F776865656C5F6D61785F73706565FE
:1002700064203D2025640A006D6B5F74696D655FC5
:10028000746F5F6D6178203D2025640A006D6B5F9F
:100290006D61785F7370656564203D2025640A0098
:1002A0006D6B5F696E74657276616C203D202564AC
:1002B0000A006D6B5F64656C6179203D2025640ADE
:1002C000000A00257500363A20776865656C5F7412
:1002D000696D655F746F5F6D61783A20000A002573
:1002E0007500353A20776865656C5F6D61785F737E
:1002F000706565643A20000A00257500343A207460
:10030000696D655F746F5F6D61783A20000A002542
:100310007500333A206D61785F73706565643A20CB
:10032000000A00257500323A20696E7465727661A4
:100330006C286D73293A20000A00257500313A2097
:1003400064656C6179282A31306D73293A20000A7E
:10035000092D2056616C756573202D0A004D3E00F5
:100360004D25643E20003F0073657420646566611E
:10037000756C740A00433E200077686572652064DE
:10038000656C74613A20637572736F723D25642CDD
:1003900020776865656C3D25640A5365652068743F
:1003A00074703A2F2F656E2E77696B69706564697A
:1003B000612E6F72672F77696B692F4D6F7573654B
:1003C0005F6B6579730A000A092D204D6F7573659F
:1003D0006B6579202D0A4553432F713A0971756970
:1003E000740A313A0964656C6179282A31306D7379
:1003F000290A323A09696E74657276616C286D73E8
:10040000290A333A096D61785F73706565640A344F
:100410003A0974696D655F746F5F6D61780A353A8A
:1004200009776865656C5F6D61785F737065656499
:100430000A363A09776865656C5F74696D655F7443
:100440006F5F6D61780A0A703A097072696E742084
:1004500076616C7565730A643A0973657420646526
:100460006661756C74730A75703A092B310A646F92
:10047000776E3A092D310A706775703A092B313061
:100480000A7067646F776E3A092D31300A0A73700B
:10049000656564203D2064656C7461202A206D616F
:1004A000785F7370656564202A20287265706561C5
:1004B00074202F2074696D655F746F5F6D6178299A
:1004C0000A003F004D3E2000433E20004C25640AB8
:1004D0000074696D65725F72656164333228293A10
:1004E000202530346C580A006B6579626F61726444
:1004F0005F69646C653A2025580A006B6579626F04
:100500006172645F70726F746F636F6C3A2025580C
:100510000A00686F73745F6B6579626F6172645F04
:100520006C65647328293A2025580A000A092D2091
:10053000537461747573202D0A004743433A203485
:100540002E392E32204156522D4C4942433A203109
:100550002E382E3073766E204156525F41524348FA
:100560003A20617672350A004F5054494F4E533A43
:10057000204C554641204D4F5553454B455920453C
:10058000585452414B455920434F4E534F4C4520F0
:10059000434F4D4D414E4420343039360A004255C8
:1005A000494C443A2022302E372E34392D362D67CF
:1005B0003430646536352D646972747922202831AF
:1005C000353A32333A3435204F6374203236203294
:1005D000303139290A005649443A20307846454599
:1005E00044284672616E6B6C696E20486172646962
:1005F0006E6729205049443A203078303030302816
:100600007064786B626329205645523A2030783006
:100610003030310A00444553433A2041206375731A
:10062000746F6D206B6579626F6172640A000A09EC
:100630002D2056657273696F6E202D0A000A092DF0
:1006400020436F6E736F6C65202D0A4553432F71E5
:100650003A09717569740A6D3A096D6F7573656B46
:1006600065790A000A092D204D61676963202D0A0A
:10067000443A094465627567204D65737361676527
:1006800020546F67676C650A583A094D6174726946
:1006900078204465627567204D6F646520546F67EC
:1006A000676C65202D2053686F77206B65797072B9
:1006B000657373657320696E206D6174726978204B
:1006C000677269640A4B3A094B6579626F617264BB
:1006D00020446562756720546F67676C65202D2024
:1006E00053686F77206B65797072657373207265DC
:1006F000706F72740A4D3A094465627567204D6FD8
:1007000075736520546F67676C650A563A095665BC
:100710007273696F6E0A533A095374617475730A80
:10072000433A09416374697661746520436F6E735F
:100730006F6C65204D6F64650A46312D4631303A45
:100740000953776974636820746F204C617965720E
:1007500020302D392028463130203D204C30290AC8
:10076000302D393A0953776974636820746F204CCF
:100770006179657220302D390A47524156453A0950
:1007800053776974636820746F204C6179657220B7
:10079000302028616C7465726E617465290A423A72
:1007A000094A756D7020746F20426F6F746C6F61B1
:1007B0006465720A4553433A094A756D7020746F37
:1007C00020426F6F746C6F616465722028616C7475
:1007D00065726E617465290A453A095072696E74D2
:1007E00020454550524F4D2053657474696E6773B0
:1007F0000A4253504143453A09436C6561722045B2
:100800004550524F4D0A000A002575002E6E6B723E
:100810006F3A20000A002575002E737761705F62C1
:1008200061636B736C6173685F6261636B7370614A
:1008300063653A20000A002575002E737761705FAA
:1008400067726176655F6573633A20000A002575FB
:10085000002E6E6F5F6775693A20000A00257500EB
:100860002E737761705F72616C745F726775693A3D
:1008700020000A002575002E737761705F6C616C33
:10088000745F6C6775693A20000A002575002E7345
:100890007761705F7263746C5F726775693A20008C
:1008A0000A002575002E737761705F6C63746C5F4E
:1008B0006C6775693A20000A002575002E63617027
:1008C000736C6F636B5F746F5F636F6E74726F6C6A
:1008D0003A20000A002575002E737761705F636F00
:1008E0006E74726F6C5F636170736C6F636B3A20D0
:1008F000000A0025303258006B65796D61705F63C6
:100900006F6E6669672E7261773A20000A0025755E
:10091000002E6D6F7573653A20000A002575002E54
:100920006B6579626F6172643A20000A0025750078
:100930002E6D61747269783A20000A002575002EC8
:10094000656E61626C653A20000A002530325800FD
:1009500064656275675F636F6E6669672E72617743
:100960003A20000A0025750064656661756C745F45
:100970006C617965723A20003F000A6D6F7573658E
:100980003A206F66660A000A6D6F7573653A206FCC
:100990006E0A000A6B6579626F6172643A206F6655
:1009A000660A000A6B6579626F6172643A206F6E45
:1009B0000A000A6D61747269783A206F66660A00EF
:1009C0000A6D61747269783A206F6E0A000A646574
:1009D0006275673A206F66660A000A646562756729
:1009E0003A206F6E0A000A0A4A756D70696E6720B8
:1009F000746F20626F6F746C6F616465722E2E2E3F
:100A00002000433E2000436C656172696E6720459B
:100A10004550524F4D0A006565636F6E6669673ACF
:100A20000A005B735D004B6579626F6172642073CD
:100A3000746172742E0A005B575D005B535D005B4E
:100A4000525D005B445D005B435D000403300000C9
:100A5000000E037000640078006B00620063000009
:100A60000022034600720061006E006B006C00699A
:100A7000006E002000480061007200640069006E92
:100A800000670000000403090409025B0003010081
:100A9000A0FA09040000010301010009211101006D
:100AA000012240000705810308000A090401000132
:100AB00003000000092111010001228500070582C1
:100AC0000320000A090402000203000000092111AA
:100AD000010001222200070583032000010705030E
:100AE000032000011201100100000008EDFE0000CB
:100AF0000100010203010631FF0974A10109751506
:100B00000026FF009520750881020976150026FF52
:100B100000952075089102C005010902A101850216
:100B20000901A100050919012905150025019505EF
:100B300075018102950175038101050109300931B3
:100B40001581257F95027508810609381581257F55
:100B5000950175088106050C0A38021581257F95D7
:100B60000175088106C0C005010980A10185031A2D
:100B700081002A830016010026030095017510816B
:100B800000C0050C0901A10185041A01002A9C027C
:100B9000160100269C02950175108100C00501090F
:100BA00006A101050719E029E7150025019508753B
:100BB0000181029501750881010507190029FF15BA
:100BC0000026FF0095067508810005081901290512
:100BD000950575019102950175039101C0001124DD
:100BE0001FBECFEFDAE0DEBFCDBF04B603FE27C0E5
:100BF0008091CD019091CE01A091CF01B091D00113
:100C00008730904BA740B04BD1F41092CD01109299
:100C1000CE011092CF011092D00114BE84B7877F0D
:100C200084BF0FB6F894A895809160008861809386
:100C30006000109260000FBEE0E0F8E3099511E05B
:100C4000A0E0B1E0E4EAF8E502C005900D92A0331F
:100C5000B107D9F721E0A0E3B1E001C01D92AD3C9E
:100C6000B207E1F70E9464260C94502C0C9400000B
:100C7000FF93EF93E0913001F0913101309709F04B
:100C80000995EF91FF910895FC018591803011F055
:100C9000EFDFFBCF0895FF27E0E230E247FF0CC013
:100CA000419597FF09C0EDE260957095809590950C
:100CB000611D711D811D911D27FF02C0219530E32B
:100CC00050E2AA27660F771F881F991FAA1FA41733
:100CD00010F0A41B63955A95A9F7AA3008F0A95FF4
:100CE000A05DAF93F395611571058105910541F7FD
:100CF000ED3211F4EF93F395F21718F43F93F39557
:100D0000FBCF8F91B5DFFA95E1F70895E991F9915D
:100D10008591803021F0853219F0AADFF9CF08954E
:100D200020E0E89455915532C1F3503311F46894A2
:100D300055915A3348F4505390F3220F022E220F4C
:100D4000220F200D250FF4CF0EF421958991999152
:100D5000533619F3533729F1533559F1BC0188271C
:100D60009927E8945C3621F489919991689455917A
:100D7000543639F446EF7EF077FF0DC08FEF9FEFCA
:100D80000AC055374AE039F0583540E121F0523673
:100D900042E009F00895FF93EF937DDFEF91FF911B
:100DA000B7CFFF93EF93FC0181918030B9F360DFFF
:100DB000FBCFFF93EF9368DFF1CFDF93CF93CDB7F6
:100DC000DEB72596A3DFCF91DF91089581E00895E6
:100DD00081E008950C94E8061F93CF93DF9300D031
:100DE00000D01F92CDB7DEB749835A8320914901C5
:100DF00089819A81211112C0662349F00E94C3188B
:100E0000182F682F89819A810E946C1803C00E9454
:100E10009918182F69817A81812F04C00E94C31804
:100E200069817A810F900F900F900F900F90DF9152
:100E3000CF911F910C940B09FC014081518162817B
:100E4000738184810C94EC060E940E1A811102C0F9
:100E50000E94AE1A0C94B30B0C94B60B08950C942C
:100E60002E070C942F0708950E9492130E943307B7
:100E70002FEF84E39CE0215080409040E1F700C0D8
:100E800000000C94E01B0F931F93CF93DF938C0112
:100E90000E941C07EC01B8010E94EA06882309F4AD
:100EA000AFC1B801CE010E94410D882309F4A8C149
:100EB000C631FCE5DF0739F50E944319282FF801F8
:100EC00082814091000150910101882379F02A7AB2
:100ED00091E009F490E090933201911102C069E22F
:100EE00001C065E3CA010E94E71A0AC0809132017D
:100EF000811102C069E201C065E3CA010E94E91ADA
:100F00000E948F197DC1C7318CE5D80708F04DC10B
:100F1000C130ECE5DE07D1F4F801C281CC2309F43D
:100F200070C180919C01C82FC095C170C0FB80F931
:100F300080939C01CC2329F08AE191E00E94440631
:100F40005FC188E091E00E9444065BC1C230FCE5CD
:100F5000DF0708F419C1F8018281882309F417C159
:100F60000E940E1A811102C00E94AE1A0E94211A1C
:100F70009093BF018093BE01C031FCE5DF0709F407
:100F8000C3C008F041C0C830ECE5DE0709F49AC0E0
:100F9000F0F4C4308CE5D80709F487C068F4C23097
:100FA000FCE5DF0709F477C0C330DC4509F0E3C096
:100FB0008091BE01826076C0C630ECE5DE0709F4A0
:100FC0006EC008F07BC08091BE0188606BC0CC30E1
:100FD0008CE5D80709F485C068F4CA30FCE5DF0762
:100FE00009F474C008F079C00E9492138091BE0188
:100FF000806858C0CE30ECE5DE0709F476C008F012
:101000007FC08091BE018BC0CB3F8CE5D80709F42F
:101010004FC018F5C331FCE5DF0709F47DC078F453
:10102000C131ECE5DE0709F473C0C231DC4509F0DB
:10103000A2C00E9492138091BE018F7733C0C53148
:101040008CE5D80709F472C008F486C0CA3FDC45B5
:1010500009F091C08091BF013EC0CF3F8CE5D80719
:1010600009F45FC058F4CD3FFCE5DF0709F444C044
:1010700008F43FC08091BF0182602DC0C130EDE512
:10108000DE0709F475C008F45DC0C230DD4509F023
:1010900072C080E06EC08091BE01816003C080910B
:1010A000BE0180618093BE0166C08091BE0111C007
:1010B0008091BF0182608093BF015DC08091BE01BD
:1010C0008062F0CF8091BE018064ECCF8091BE0140
:1010D00088608460E7CF8160EECF8091BE018E7F13
:1010E000E1CF8091BE018D7FDDCF8091BE01877FF2
:1010F000D9CF8091BF0118C08091BF018D7FDBCF18
:101100008091BE018F7ECECF8091BE018F7DCACFF0
:101110008091BE018F7BC6CF8091BE01877F8B7F80
:10112000C1CF8091BF018D7F8E7FC5CF8091BE01E1
:1011300082FB222720F991E0922790FB82F990FB15
:1011400083F9B0CF8091BF01982F909591708E7FD9
:10115000892B90FB81F9AFCF0E9492138091BE0141
:1011600087FB222720F991E0922790FB87F99ACFFD
:1011700081E00E94B01A8091BE019091BF010E944F
:10118000321A0E9492133CC0C115DC4539F0C801E7
:10119000DF91CF911F910F910C94E606F801C28167
:1011A000CC2379F10E9434072BC0CE3DECE5DE075D
:1011B00039F4F801C281CC2321F10E94AE1A20C07B
:1011C000CF3DFCE5DF07A8F4CC3D8CE5D80731F432
:1011D000F801C281CC23A9F080E008C0CD3DDC45F8
:1011E000B1F6F801C281CC2361F082E00E940C27A5
:1011F00007C0CE018A5F9C45099708F4ACCEC7CFE3
:10120000C0E08C2FDF91CF911F910F91089580E066
:1012100090E00895089590E0FC01EE0FFF1FE80FA5
:10122000F91FE70FF11DEE0FFF1FE60FF11DEE0F87
:10123000FF1FE450FF4F859194910895880F991FE7
:10124000FC01E55DFE4F859194910895CF93DF9366
:101250000E940B090E94DB0AEC01811520E5920730
:10126000F0F5811530E4930708F024C1883E91051C
:1012700000F5803E910508F09AC1883A910570F416
:10128000853A910508F09FC08130910509F48FC11E
:1012900008F440C1049708F08AC13CC18F3B910516
:1012A00008F49CC0803C910508F434C1805C91092D
:1012B000F4C0811540E2940758F4C11581E0D807C5
:1012C00008F075C1C03FD10508F424C1D0656FC1D5
:1012D000811520E3920708F0E4C09F70DEC08115FD
:1012E00035E5930708F044C0811544E5940708F0FC
:1012F000F8C0C11582E5D80708F5C11521E5D20768
:1013000008F0DBC08C2F837021E030E002C0220F98
:10131000331F8A95E2F73C68CE0174E09695879575
:101320007A95E1F78370382BCF70C695C69580E229
:10133000C89FE0011124C22BD32B39C12C2F269535
:101340002695CE0183709927C115D34508F0BAC000
:1013500040E2249F90011124C1E0D0E002C0CC0FF4
:10136000DD1F8A95E2F72C2B3D2BE901DC681FC1BC
:10137000811549E59407A0F4C11588E5D80708F060
:10138000B5C0C11526E5D20708F0C4C08C2F0E9455
:101390006F0B8F71C82FD0E0DC2FCC27D06207C134
:1013A00081153AE5930708F4A6C09056811590423E
:1013B00008F0B0C08D2F8F710E946F0BDD27D062B7
:1013C0008F71D82BF4C0853A910509F4A6C0863AEE
:1013D000910509F0A5C0C2E8D0E4E9C0883A9105BA
:1013E00009F4A1C0893A910509F4A0C08A3A91058F
:1013F00009F49FC08B3A910509F49EC08C3A91057F
:1014000009F49DC08B3B910509F49CC08C3B910570
:1014100009F49BC08D3A910509F49AC0803B91056F
:1014200009F499C08E3A910509F498C08F3A910554
:1014300009F497C0813B910509F496C0823B910560
:1014400009F495C0833B910509F494C0843B910550
:1014500009F493C0853B910509F492C0863B910540
:1014600009F491C0873B910509F490C0883B910530
:1014700009F48FC0893B910509F48EC08D3B91051D
:1014800009F48DC08E3B910509F48CC08A3B91050F
:1014900009F48BC0C0E0D4E48AC00E941E09EC01AC
:1014A00086C09927D3FF03C0EC01D86C80C0EC0143
:1014B000D06C7DC0DF70D06A7AC0DC2FCC27C16FC2
:1014C000D06A75C040E2249F90011124C1E0D0E0B1
:1014D00002C0CC0FDD1F8A95E2F7C22BD32BDA684E
:1014E00066C0D82FCC27C46FD06A61C0DC2FCC2750
:1014F000C06FD06A5CC08F700E946F0B94E0D6956D
:10150000C7959A95E1F7CF70D0E0DC2FCC27D06952
:10151000C82B4DC0C0E0D0E04AC0C1E8D0E447C00D
:10152000C3E8D0E444C0C2EED4E441C0C9EED4E480
:101530003EC0CAEED4E43BC0C5EBD4E438C0C6EB31
:10154000D4E435C0C3EBD4E432C0C4EBD4E42FC040
:10155000C7EBD4E42CC0CCECD4E429C0CDECD4E46B
:1015600026C0C3E8D5E423C0CAE8D5E420C0C2E958
:10157000D5E41DC0C4E9D5E41AC0C1E2D6E417C061
:10158000C3E2D6E414C0C4E2D6E411C0C5E2D6E496
:101590000EC0C6E2D6E40BC0C7E2D6E408C0CFE670
:1015A000D4E405C0C0E7D4E402C0CAE2D6E4CE0168
:1015B000DF91CF9108958238910569F1B0F48133BC
:1015C000910509F46DC048F48932910509F463C0AE
:1015D0008A32910509F469C008958533910509F4AB
:1015E00055C089339105B9F00895833E910569F19D
:1015F00038F4803E9105B1F0823E910509F10895DD
:10160000863E9105A9F1873E9105B9F1843E910589
:1016100009F064C023C02091BE0120FD4FC021FD10
:101620004DC008958091BE0180FD44C08091BF01EE
:1016300080FF44C08091BE0184FD42C083EE4DC056
:101640008091BE0182FF38C0F5CF8091BE0182FD3E
:1016500033C08091BF0180FD31C0ECCF8091BF01CC
:1016600081FF32C08091BE0184FD2AC087EE35C063
:101670008091BE0183FF26C0F5CF8091BE0183FD1E
:1016800021C08091BF0181FD1FC0ECCF8091BE01C0
:1016900085FD1CC01DC08091BE0185FD19C016C00E
:1016A0008091BE0186FD16C017C08091BE0186FDE7
:1016B00013C010C089E311C082EE0FC080EE0DC0D0
:1016C00080E00BC086EE09C084EE07C089E205C049
:1016D00085E303C08AE201C081E390E00895909120
:1016E000BE0192FF0DC0282F2871283019F4877F82
:1016F000846006C0282F2471243011F48B7F886009
:1017000093FF0DC0282F2871283119F4877E84613A
:1017100006C0282F2471243111F48B7E886120911A
:10172000BF0120FF0DC0382F3871383019F4877F82
:10173000816006C0382F3171313011F48E7F88609E
:1017400021FF0DC0282F2871283119F4877E81616F
:1017500006C0282F2171213111F48E7E886194FDFD
:10176000877E089508950C94B20B08950C94B50BE0
:10177000E82FF0E0ED5CFE4F80810895CF92DF927C
:10178000EF92FF920F931F93CF93DF938AE391E041
:101790000E94440683E3E82E81E0F82EC0E0D0E00A
:1017A00095E3C92E91E0D92E0DE211E0DF93CF939E
:1017B000DF92CF920E94DD0682E391E00E94440610
:1017C000F70181917F010E94F8191F928F931F9357
:1017D0000F930E94DD068BE291E00E944406219661
:1017E0008DB79EB708960FB6F8949EBF0FBE8DBFFB
:1017F000C330D105D9F6DF91CF911F910F91FF90A2
:10180000EF90DF90CF900895A3E1B1E041E050E088
:1018100023E02A0F8D91E82FE295EF70F0E031A1DF
:101820008F70BA0102C0660F771F8A95E2F7CB016D
:10183000962F9095932391A392A1892B82A32A138B
:10184000E9CF5198599A6E98769A10923601109273
:101850003301109237011092340110923801109226
:10186000350183E00E949D0C0C942407BF92CF9217
:10187000DF92EF92FF920F931F93CF93DF9363E179
:1018800071E0A6E3B1E0C0E0EE24E394F12CD3E0F4
:10189000DA0F6D01BC901C92FB018191BF01E82F12
:1018A000E295EF70F0E091A18F70A70101C0440FA5
:1018B0008A95EAF7892F842B81A392A1842F8095A2
:1018C000982392A390EA9A95F1F799B191FB00279A
:1018D00000F910E0980191E02927922F91703C9136
:1018E000932B9C93669902C022E001C020E0922BCA
:1018F0009D9391A1892381A382A1482B42A381E0DA
:10190000F6019081B91201C080E0C82BDA13C1CF73
:101910002C2F43E063E371E086E391E00E949E0C8C
:101920000E942C078C2FDF91CF911F910F91FF9078
:10193000EF90DF90CF90BF9008950895FF920F939E
:101940001F93CF93DF938C01F62ED72FC42F222322
:1019500049F081E080933B010E94781B90933A010B
:101960008093390180913B018823C1F08091390136
:1019700090913A010E94901B069780F0EF2DFD2F69
:10198000D8014C2F50E0CD01801B910B8417950797
:101990001CF48D918193F7CF10923B01DF91CF9191
:1019A0001F910F91FF9008950F931F93CF93DF9393
:1019B000C62FD42F022FFC0182818823C9F06093A7
:1019C0003E010E94781B90933D0180933C0180E290
:1019D0008C0F883008F050C0C77081E001C0880FBC
:1019E000CA95EAF7DF91CF911F910F910C94E11006
:1019F00010913E01161330C080913C0190913D0141
:101A00000E94901B883C910538F5C0E2CD0F1D1750
:101A1000B9F080E2810F883040F4177081E001C096
:101A2000880F1A95EAF70E94E810C83048F481E060
:101A30009D2F977001C0880F9A95EAF70E94E110D8
:101A4000802F0E94CE10C830B8F4D77081E001C05A
:101A5000880FDA95EAF70AC080E28C0F883060F4CC
:101A6000C77081E001C0880FCA95EAF7DF91CF9176
:101A70001F910F910C94E810DF91CF911F910F915E
:101A800008959C01CB01233F4CE53407F9F078F42D
:101A9000283DFCE53F07B9F0293D4CE5340711F13D
:101AA000273D3C4531F526E241EE61EE1EC0253F63
:101AB000FCE53F0799F070F0263F3C45D1F427E262
:101AC00045EE66EE12C027E245EE0EC026E241EE7C
:101AD00060EE0BC027E245EE64EE07C026E241EE61
:101AE00062EE03C028E241E065EE0E94D40C80E083
:101AF0000895FC018281882319F010923E01089517
:101B000081E0089590934401809343010895E0910A
:101B10004301F0914401309721F00190F081E02DD4
:101B2000099480E00895EF92FF920F931F93CF9353
:101B3000DF93E0914301F09144013097B1F18C01C2
:101B40000280F381E02D099580919C0182FF2DC0D8
:101B500080FF04C081E591E00E944406E80118E09E
:101B60008BE4E82E81E0F82E80919C0180FF0BC071
:101B700088811F928F93FF92EF920E94DD060F9053
:101B80000F900F900F90115021961111EDCF809171
:101B90009C0180FF0AC089E491E0DF91CF911F9101
:101BA0000F91FF90EF900C944406DF91CF911F911D
:101BB0000F91FF90EF900895E0914301F09144015F
:101BC000309739F022E0DC012C930480F581E02D80
:101BD00009940895209141013091420182179307A1
:101BE00071F09093420180934101E0914301F091A3
:101BF0004401309721F00680F781E02D0994089583
:101C000020913F01309140018217930771F090932A
:101C1000400180933F01E0914301F09144013097EE
:101C200021F00084F185E02D0994089585B780683E
:101C300085BF85B7806885BF0895089508950C9481
:101C40001E0E08950C94210E0E94160E0E941D0E69
:101C50000C941F0E81E008950E946F1B0E94040CDB
:101C60000E94041C0C94220ECF93C82F80919C01DB
:101C700082FF1EC080FF04C08AE691E00E944406F5
:101C800080919C0180FF0CC01F92CF9385E691E06C
:101C90009F938F930E94DD060F900F900F900F90EF
:101CA00080919C0180FF04C083E691E00E9444067D
:101CB0008C2FCF910C943107CF92DF92EF92FF924D
:101CC0000F931F93CF93DF93CDB7DEB72B970FB64C
:101CD000F894DEBF0FBECDBF0E94360C0E942A0EC4
:101CE000811111C08FEF89838A831B820E94781B28
:101CF0008160782F9D838C8349815A816B818D818E
:101D00000E94F90E4BC086E4C82E81E0D82E00E078
:101D100010E0E02E802F0E94B80BF601F1906F01C9
:101D2000F826A9F190919C0191FF04C08B870E9435
:101D3000BE0B8B85F0FC05C0F1FE29C091E021E0CF
:101D400002C090E020E02E83EF8221E030E07901B4
:101D500002C0EE0CFF1C9A95E2F790E08E219F21C5
:101D6000892B09F420E028870E94781B8160782F56
:101D70009A8789874E815F8168858A850E94F90EDE
:101D8000F801EA5BFE4F8081E826E08207C00F5F22
:101D90001F4F0330110509F0BCCFA4CF0E94181EBD
:101DA000109145010E94870D1817A1F00E94870D20
:101DB000809345012B960FB6F894DEBF0FBECDBFC2
:101DC000DF91CF911F910F91FF90EF90DF90CF9017
:101DD0000C94340E2B960FB6F894DEBF0FBECDBF19
:101DE000DF91CF911F910F91FF90EF90DF90CF90F7
:101DF0000895CF93DF93CDB7DEB72B970FB6F89446
:101E0000DEBF0FBECDBF4F83588769877A878B8728
:101E1000DE01119686E0FD0111928A95E9F785E0D1
:101E2000FE01379601900D928A95E1F749815A811A
:101E30006B817C818D819E810E943C162B960FB612
:101E4000F894DEBF0FBECDBFDF91CF910895FC01A6
:101E5000808191810E9404190895CF93DF931F928E
:101E6000CDB7DEB7882309F42DC1682F8238C1F4BD
:101E70000E94870D81FD26C169E380910001909148
:101E800001010E94E71A0E948F192FEF81EE94E062
:101E9000215080409040E1F700C0000069E319C084
:101EA000833811F50E94870D80FD0CC163E5809198
:101EB0000001909101010E94E71A0E948F192FEFF3
:101EC00081EE94E0215080409040E1F700C0000096
:101ED00063E580910001909101010E94E91A0F9041
:101EE000DF91CF910C948F198438C1F40E94870D33
:101EF00082FDE8C067E480910001909101010E9499
:101F0000E71A0E948F192FEF81EE94E02150804054
:101F10009040E1F700C0000067E4DBCF8CEF860F54
:101F2000813A70F4862F69830E94AF226981811102
:101F3000C9C080910001909101010E94E71ACFCFA2
:101F400080E2860F883048F4677081E001C0880F16
:101F50006A95EAF70E944619C2CF8BE5860F833057
:101F600088F4653A29F0663A31F083E890E005C0DC
:101F700081E890E002C082E890E00F90DF91CF917D
:101F80000C94EA0D88E5860F873108F091C0683A15
:101F900009F445C0693A09F445C06A3A09F445C0F4
:101FA0006B3A09F445C06C3A09F445C06B3B09F43F
:101FB00045C06C3B09F445C06D3A09F445C0603B2F
:101FC00009F445C06E3A09F445C06F3A09F445C0BA
:101FD000613B09F445C0623B09F445C0633B09F429
:101FE00045C0643B09F445C0653B09F445C0663B08
:101FF00009F445C0673B09F445C0683B09F445C096
:10200000693B09F445C06D3B09F445C06E3B09F4DA
:1020100045C06A3B09F445C080E090E044C082EED0
:1020200090E041C089EE90E03EC08AEE90E03BC077
:1020300085EB90E038C086EB90E035C083EB90E014
:1020400032C084EB90E02FC087EB90E02CC08CEC8A
:1020500090E029C08DEC90E026C083E891E023C099
:102060008AE891E020C082E991E01DC084E991E016
:102070001AC081E292E017C083E292E014C084E2C9
:1020800092E011C085E292E00EC086E292E00BC0C1
:1020900087E292E008C08FE690E005C080E790E01C
:1020A00002C08AE292E00F90DF91CF910C94000E73
:1020B000603F40F0862F0E949E1C0F90DF91CF91D1
:1020C0000C948B1D0F90DF91CF910895882309F414
:1020D00064C0823879F40E94870D81FF5EC069E395
:1020E00080910001909101010E94E71A0E948F19CE
:1020F00069E310C08338B1F40E94870D80FF4DC0A2
:1021000063E580910001909101010E94E71A0E940D
:102110008F1963E580910001909101010E94E91AF5
:102120000C948F19843879F40E94870D82FF35C092
:1021300067E480910001909101010E94E71A0E94DA
:102140008F1967E4E7CF9CEF980F913A10F4682F4E
:10215000E1CF90E2980F983050F4877091E001C081
:10216000990F8A95EAF7892F0E944C19D9CF9BE5E0
:10217000980F933020F480E090E00C94EA0D98E5FD
:10218000980F973120F480E090E00C94000E803F8F
:1021900020F00E94061D0C948B1D0895CF93C82F2C
:1021A0000E942D0FC93349F42FEF87EE93E02150A1
:1021B00080409040E1F700C000008C2FCF910C943C
:1021C0006610882321F00E9446190C948F190895F7
:1021D000882321F00E944C190C948F190895BF9206
:1021E000CF92DF92EF92FF920F931F93CF93DF93E3
:1021F0007C01062FC72FFC01158112951F70D2811B
:10220000D1110E9463190E943C19882379F0DD23C3
:1022100069F080E2800F883048F082E00E94DA198D
:102220000E943C1991E0B82EB92601C0B12CCC2EE9
:10223000C2948FE0C822D12CF601EA5AFF4F0C94C9
:10224000F42B8C2F807FCF70882311F0C295C07F34
:10225000DD2399F0CC2309F4CEC180E2800F8830D1
:1022600010F0011104C08C2F0E94461903C08C2F5E
:102270000E9456190E948F19BEC1802F0E946610BD
:10228000CC2309F4DDC180E2800F883010F0011109
:1022900004C08C2F0E944C1903C08C2F0E945C1923
:1022A0000E948F19CDC18C2F807FCF70803211F0AA
:1022B000C295C07F002319F00130C9F022C0DD2390
:1022C00071F0112341F0113031F40E9476198C2BFA
:1022D0000E947C19B5C10E9476198C2B1DC0112358
:1022E00019F0113009F4ACC10E94851925C0DD2315
:1022F00021F0163008F0A4C10EC0153008F0A0C1BE
:102300001BC0DD2361F0112331F0F701858180FFCF
:1023100072C18F7085838C2F0E94E11091C11123AF
:1023200059F0093309F078C1FFEF27EE83E0F1504F
:1023300020408040E1F76EC18C2F0E94E81080C1E0
:102340008C2F86958695837090E0009719F0019701
:1023500061F076C1DD2321F0802F9C2F937002C0A5
:1023600080E090E00E94EA0D76C1DD2321F0802F0D
:102370009C2F937002C080E090E00E94000E6BC121
:10238000DD23F9F0053F51F0063F71F0043FA9F459
:102390008091B8019091B90181600BC08091B80122
:1023A0009091B901826005C08091B8019091B90106
:1023B00084609093B9018093B801802F0E949E1C85
:1023C0001EC0053F51F0063F71F0043FA9F4809113
:1023D000B8019091B9018E7F0BC08091B8019091A6
:1023E000B9018D7F05C08091B8019091B9018B7FB3
:1023F0009093B9018093B801802F0E94061D0E941E
:102400008B1D29C18C2F837009F049C0D1111FC1C8
:10241000402F429546954770440F440F602F6F70D0
:10242000862F90E0A0E0B0E0042E04C0880F991F32
:10243000AA1FBB1F0A94D2F704FF10C00FE010E0E0
:1024400020E030E004C0000F111F221F331F4A9507
:10245000D2F7009510952095309503C000E010E06C
:102460009801C695C695C370D0E0BC01CD01602B24
:10247000712B822B932BC230D10559F0C330D1057B
:1024800059F0219719F00E948117E1C00E946F173F
:10249000DEC00E949317DBC00E946D17D8C0DD23F9
:1024A00019F08C2F817001C08695882309F4CFC064
:1024B000402F429546954770440F440F602F6F7030
:1024C000862F90E0A0E0B0E0042E04C0880F991F92
:1024D000AA1FBB1F0A94D2F704FF10C00FE010E040
:1024E00020E030E004C0000F111F221F331F4A9567
:1024F000D2F7009510952095309503C000E010E0CC
:102500009801C695C695C370D0E0BC01CD01602B83
:10251000712B822B932BC230D10559F0C330D105DA
:1025200059F0219719F00E94471891C00E94351860
:102530008EC00E9459188BC00E94A81788C0CF7007
:10254000DD2339F08C2F0E94CE17802F0E94E110DE
:102550007EC0802F0E94E8108C2F0E94EF1777C05A
:10256000023F01F128F4003F41F0013FA1F03FC0DC
:10257000033FF9F0043F39F13AC0DD2341F0153053
:1025800008F05EC08C2F8F710E94141859C016304D
:1025900008F056C0F7CFDD2339F08C2F8F710E94E1
:1025A000CE174EC0DD23C9F38C2F8F710E94EF1719
:1025B00047C0DD2329F08C2F8F710E94B91740C0CE
:1025C0000E94B4173DC0DD2349F0CF718C2F0E94CB
:1025D000CE1763E08C2F0E94C51932C081E00E94A3
:1025E000DA19123068F182E00E94DA1929C0DD237D
:1025F00031F0112391F2802F0E942D0F21C0112361
:1026000099F2093349F49FEFE7EEF3E09150E0408F
:10261000F040E1F700C00000802F0E94661010C05B
:102620004C2F4F70602FC7010E9407090E94E016CF
:1026300012C04C2F4F70602FC7010E940A090BC0B7
:1026400028E0C21AD10884E0C816D10420F40E9400
:10265000870D0E943107BB20D1F00E94381980FD00
:1026600016C0F70112820E9432190E94CE17C701CC
:102670000E9451130E943219DF91CF911F910F9147
:10268000FF90EF90DF90CF90BF900C94EF17DF9109
:10269000CF911F910F91FF90EF90DF90CF90BF905F
:1026A00008950F931F93CF93DF93EC018881998155
:1026B0002B813C81232BB9F09F3F11F48F3F99F080
:1026C000CE010E944307882371F0688179818A8155
:1026D0000E940F198C010E946B180E946C17B801A0
:1026E000CE010E94EF10DF91CF911F910F910895BD
:1026F0000E9463190E9473190E948F190E94B31ED1
:102700000E948B1D80E090E00E94EA0D80E090E046
:102710000C94000E80910001909101010E94EB1A2F
:102720000C9478130E9453190C948A13E92FE295A4
:10273000EF70F0E03297EE30F105B0F4EA59FF4F58
:102740000C94F42B803F91F018F4883E68F40EC08E
:10275000843F51F40BC0883E48F0813F29F406C005
:1027600093FB882780F9089580E0089581E008951B
:102770000E9404190E9496130895CF93DF9300D00E
:1027800000D01F92CDB7DEB70F900F900F900F9033
:102790000F90DF91CF910895CF93DF9300D000D0B9
:1027A00000D0CDB7DEB726960FB6F894DEBF0FBEC9
:1027B000CDBFDF91CF9108951F93CF93DF93C09149
:1027C0004A0116E080914B01C81799F0D0E01C9F98
:1027D000F0011D9FF00D1124E45BFE4F40815181FB
:1027E00062817381848195810E94CC132196C77088
:1027F000E9CFDF91CF911F91089540917C015091D5
:102800007D0160917E0170917F01809180019091A6
:1028100081010C94CC138091810182958F7009F015
:1028200054C080917E01882309F44FC080914A01F1
:10283000A0914B0160917C0170917D0140917F01DD
:1028400050918001B6E08A1709F43FC090E041152D
:102850005105C1F17F3F11F46F3FA1F1B89FF00125
:10286000B99FF00D1124E45BFE4F218172132AC041
:102870002081621327C02281211124C02381348149
:102880002417350710F421503109241B350B283C3F
:102890003105C0F4209181012F70206120938101C6
:1028A00026E0289FF001299FF00D1124EF5AFE4FDA
:1028B00080818F70806180838CE791E00E9451134A
:1028C0000C94DC1301968770BECF0895CF92DF92EF
:1028D000EF92FF920F931F93CF93DF93CDB7DEB7A5
:1028E00062970FB6F894DEBF0FBECDBF8C0185E0B6
:1028F000F801DE011D9601900D928A95E1F7D8014D
:102900004C9111965C91119712966C9112971396B7
:10291000CD90DC90149730917C0170917D01809175
:102920007F0190918001009709F46BC17F3F19F4FA
:102930003F3F09F466C1E0907E01EE2009F4C0C07B
:1029400020918101C816D90628F0F601E81BF90B81
:10295000CF0104C0809590958C0D9D1DFF24F394AC
:10296000883C910578F0F12C207F09F0C6C07C2DC1
:10297000D98AC88A89890E94BD138CE791E00E9498
:102980005113B1C0822F807F09F046C0751314C067
:10299000341312C0611110C02F7020612093810187
:1029A0000E94FD138CE791E00E94511380918101F8
:1029B000D80115968C932EC0CD2819F15F3F11F4E4
:1029C0004F3FF9F0F62E61111CC080914A01209111
:1029D0004B0136E0821709F45AC090E0389FF001AD
:1029E000399FF00D1124E45BFE4F7181571306C02F
:1029F0007081471303C07281711103C00196877003
:102A0000E9CFF62E662309F427C180918101816008
:102A100080938101F12C20C1751308C0341306C0C6
:102A2000611104C080918101D801C3C04D875E87C8
:102A30008D859E856A8B0E94B8136A898823E1F18F
:102A40006623D1F120918101822F82958F7090E0D1
:102A5000029774F080917C0190917D0198878F831B
:102A60001986DB86CA862C87CE0107960E945113F1
:102A700086E0F801ACE7B1E001900D928A95E1F7AC
:102A80000E940B140E94FD13FF24F394E5C04D87B0
:102A90005E878D859E850E940419292F22952F70AF
:102AA00030E0223031050CF0CBC09F7009F0C5C07A
:102AB000805E883008F4D0C0C8010E945113E4CF72
:102AC000C816D90608F453C0F601E81BF90BCF016C
:102AD000883C910508F450C0F12C7C2DD98AC88A15
:102AE00089890E94BD13ECE7F1E086E0DF011D92C9
:102AF0008A95E9F70E94FD13AFC0751314C0341313
:102B000012C0611110C080918101F8018583C80154
:102B10000E94511386E0ECE7F1E0DF011D928A95F7
:102B2000E9F7FE2C99C04D875E878D859E856A8B5F
:102B30000E94B8136A89882309F4BECF662309F47A
:102B4000BBCF20918101822F82958F7090E00297F8
:102B50000CF48ECF80917C0190917D019A838983C2
:102B60001B82DD82CC822E83CE0101967FCF8095A1
:102B700090958C0D9D1DACCFF62E662309F49CCF4D
:102B800075132EC034132CC02091810120FD1FC06D
:102B9000822F82958F70D9F0D80115962C931597B6
:102BA0008F3049F08F5F982F9295907F822F8F7092
:102BB000892B15968C93C8010E94511386E0F80169
:102BC000ACE7B1E001900D928A95E1F793CF86E0F2
:102BD000F801ACE7B1E001900D928A95E1F73CC0B5
:102BE0004D875E878D859E850E94B813811140CFE9
:102BF00080918101816080938101C8010E945113FD
:102C00002BC0662309F458CF4D875E878D859E853E
:102C10000E94B813F82E882309F44ECF86E0F801FD
:102C2000ACE7B1E001900D928A95E1F78CE791E075
:102C30000E94270F0E940B145DCF811139CF0CC069
:102C4000243031050CF038CF9F7009F431CFF801F2
:102C50009581907F09F02CCF8F2D62960FB6F89456
:102C6000DEBF0FBECDBFDF91CF911F910F91FF90BF
:102C7000EF90DF90CF9008951F93CF93DF93CDB760
:102C8000DEB72C970FB6F894DEBF0FBECDBF4F83D3
:102C9000588769877A878B879C87CE0107960E9421
:102CA0006614882369F08F8198852A853B85232BBC
:102CB000F1F19F3F09F063C08F3F09F060C037C05A
:102CC00086E0FE013796DE01119601900D928A95FD
:102CD000E1F76F817885EA85FB85309741F17F3F89
:102CE00011F46F3F21F120914B0130E0C9010196B1
:102CF0008770992740914A0150E08417950709F49D
:102D000047C069837A83FD83EC8396E0929FD0016C
:102D1000939FB00D1124A45BBE4FFE01319601902C
:102D20000D929A95E1F780934B010E94DC1316E017
:102D300080914A0190914B018917C1F1189FC00100
:102D40001124845B9E4F0E946614882379F1E091E0
:102D50004A011E9FF0011124E45BFE4F4081518126
:102D600062817381848195810E94CC1380914A0194
:102D700090E001968770992780934A01D9CF4F81BF
:102D8000588569857A858B859C850E94CC13CFCF29
:102D90000E94921310924B0110924A01ECE7F1E06D
:102DA00086E0DF011D928A95E9F7C1CF2C960FB618
:102DB000F894DEBF0FBECDBFDF91CF911F91089574
:102DC000EF92FF920F931F93CF93DF938C01892B88
:102DD00009F46CC0F12CEE24E394E8012196F8018B
:102DE0008491843740F4843008F051C0813081F000
:102DF000823019F15BC0853709F444C0A8F19CE723
:102E0000980F903708F052C08F770E94661041C02B
:102E10000E5F1F4FFE01C49180E28C0F883048F492
:102E2000C7708E2D01C0880FCA95EAF70E946619F7
:102E300014C08C2F0E942D0F2DC00E5F1F4FFE015E
:102E4000C49180E28C0F883058F4C7708E2D01C079
:102E5000880FCA95EAF70E946C190E948F191AC050
:102E60008C2F0E94661016C00E5F1F4FFE01C4918A
:102E7000CC2381F08FE99FE00197F1F700C00000BB
:102E8000C150F6CF0E5F1F4FFE01F49003C00E94A9
:102E90002D0F8E018F2D882309F49FCFEFE9FFE0DE
:102EA0003197F1F700C000008150F5CFDF91CF914D
:102EB0001F910F91FF90EF90089508950C945D1766
:102EC0000E945E1760938B0170938C0180938D013B
:102ED00090938E010C94781308950C9460170F93BF
:102EE0001F9300918B0110918C0120918D013091E5
:102EF0008E01602B712B822B932B1F910F910C94C1
:102F000060170F931F9300918B0110918C012091FA
:102F10008D0130918E0160237123822393231F91B1
:102F20000F910C9460170F931F9300918B011091D8
:102F30008C0120918D0130918E01602771278227AD
:102F400093271F910F910C94601708950C94A51767
:102F50000E94A6176093870170938801809389016E
:102F600090938A010C94781360E070E0CB010C948C
:102F7000A8170F931F9341E050E060E070E08A01D2
:102F80009B0104C0000F111F221F331F8A95D2F727
:102F9000C901B8011F910F910C94A8170F931F93AB
:102FA00041E050E060E070E004C0440F551F661F30
:102FB000771F8A95D2F78091870190918801A0911F
:102FC0008901B0918A018A019B01082B192B2A2BB8
:102FD0003B2BC901B8011F910F910C94A8170F93B7
:102FE0001F9341E050E060E070E004C0440F551FC3
:102FF000661F771F8A95D2F740955095609570951A
:103000008091870190918801A0918901B0918A01F6
:103010008A019B01082319232A233B23C901B801F4
:103020001F910F910C94A8170F931F9341E050E04C
:1030300060E070E004C0440F551F661F771F8A953B
:10304000D2F78091870190918801A0918901B09178
:103050008A018A019B01082719272A273B27C901D2
:10306000B8011F910F910C94A8170F931F93009113
:103070008701109188012091890130918A01602B8C
:10308000712B822B932B1F910F910C94A8170F93E8
:103090001F9300918701109188012091890130913F
:1030A0008A0160237123822393231F910F910C9433
:1030B000A8170F931F930091870110918801209109
:1030C000890130918A0160277127822793271F91F8
:1030D0000F910C94A8170895990F890FA82FA69502
:1030E000A695A695877051E001C0550F8A95EAF71D
:1030F00085E0A89FD001112420E030E070E0F901C4
:10310000EA0FFB1FEE57FE4F4081CB01022E02C09B
:10311000969587950A94E2F781709927819584277F
:103120008523842780832F5F3F4F2530310539F772
:103130000895990F890F682F669566956695982F63
:10314000977085E0689FB001112440E050E080E076
:10315000FA01E60FF71FEE57FE4F208130E0092EEF
:1031600002C0369527950A94E2F721703327042E82
:1031700001C0220F0A94EAF7822B4F5F5F4F453060
:10318000510531F70895BF92CF92DF92EF92FF92EF
:103190000F931F93CF93DF938C01C0908B01D0903E
:1031A0008C01E0908D01F0908E01809187019091CB
:1031B0008801A0918901B0918A01C82AD92AEA2AF6
:1031C000FB2ACFE1D0E0D701C6010C2E04C0B69592
:1031D000A795979587950A94D2F780FF07C0BC2ED4
:1031E000B8018C2F0E942609019719F4219758F7EE
:1031F000B12C8B2DDF91CF911F910F91FF90EF900C
:10320000DF90CF90BF900895CF93DF93EC010E94A1
:10321000C318BE010E942609DF91CF9108951F9324
:10322000CF93DF93EB0190914901992321F0CB01DA
:103230000E94041913C0882349F0CB010E94C318CF
:10324000182F682FCE010E946C1804C0CB010E9479
:103250009918182FBE01812F0E942609DF91CF9166
:103260001F91089580918F01859585958595089585
:1032700080918F018770089590918F01977081E000
:1032800009F480E0089580919B01089590919B013D
:10329000892B80939B010895809590919B018923B0
:1032A00080939B01089510929B01089590919A013B
:1032B000892B80939A010895809590919A01892392
:1032C00080939A01089510929A010895909199011E
:1032D000892B809399010895809590919901892374
:1032E0008093990108951092990108958091900119
:1032F000089508950C94791990919001981721F0F0
:10330000809390010C947A190895809190018823FC
:1033100029F01092900180E00C947A190895E091C0
:103320000001F091010180919B018083E0910001F7
:10333000F0910101908180919A01892B8083E09125
:103340000001F0910101908180919901892B808386
:1033500080919001882381F0E0910001F0910101BA
:103360009081892B808380910001909101010E94BE
:10337000B51A81110E948519809100019091010177
:103380000C94930D08950C94C21998E0899F9001B4
:103390001124262B20938F010E94CE1780918F013C
:1033A0008595859585950C94C31910928F0180E0C1
:1033B0000C94C31920918F018095822380938F01F3
:1033C000982F977079F430E0482F082E000C550B99
:1033D0002417350739F08595859585950E94EF1757
:1033E0000C94D5190895909331018093300108957C
:1033F0008295982F9C7C392F36953695282F2373EC
:1034000044E0249FC0011124932F982B292F2A7A5E
:103410002695892F8575880F822B089580E090E08E
:103420000E94162C21E08C3E9E4F09F020E0822F56
:10343000089582E090E00C940E2C83E090E00C94D0
:103440000E2CCF9384E090E00E940E2CC82F81E2D6
:1034500090E00E940E2C2C2F30E0A901582BCA01BD
:10346000CF910895CF93C92F682F84E090E00E94F8
:103470001C2C6C2F81E290E0CF910C941C2CAB01A2
:10348000BC018FE090E00C942E2CAB01BC0183E1D9
:1034900090E00C942E2C60E070E0CB010C94451A67
:1034A00060E070E0CB010E943F1A0C944B1A6CEE66
:1034B0007EEF80E090E00E943A2C60E082E090E0B5
:1034C0000E941C2C60E083E090E00E941C2C109273
:1034D0008B0110928C0110928D0110928E0160E090
:1034E00084E090E00E941C2C60E081E290E00E9469
:1034F0001C2C60E085E090E00E941C2C60E086E0DF
:1035000090E00E941C2C6FEF87E090E00E941C2C42
:1035100040E050E0BA0188E090E00E942E2C60E08C
:103520008DE090E00E941C2C40E050E0BA0188E160
:1035300090E00E942E2C60E087E190E00E941C2C1D
:1035400040E050E0BA018CE190E00E942E2C60E057
:1035500080E290E00E941C2C0C94501A0C94571A94
:10356000682F8EE090E00C941C2CFC01329697E0C2
:1035700080E0915029F021912223D9F38F5FF9CF78
:1035800008959C01FC0132969FEF80E0419146171F
:1035900089F09F3F19F4411101C0982F8F5F863049
:1035A000A9F79F3F39F0F901E90FF11D97FDFA9551
:1035B000628308950895FC013296089620812613AF
:1035C00001C010823196E817F907C1F708950C94ED
:1035D000C11A0C94DB1A029626E0FC0111922A957E
:1035E000E9F7089508950C94F21A0E94F31A809155
:1035F000C401843049F110929D0120E488E190E0FB
:103600000FB6F894A895809360000FBE20936000D9
:1036100080E00E9431070E94F31A83B7817F8460A3
:1036200083BF83B7816083BF7894889583B78E7F8B
:1036300083BF0FB6F894A89580916000886180934D
:103640006000109260000FBE089508950895CF9312
:103650000E94251B0E94360C0E94261BC0E08C2F66
:103660000E94B80B811104C0CF5FC330C1F701C005
:1036700081E0CF91089508950C943B1B0E94921312
:103680000E94870D0E9431070C943C1B1F920F92E1
:103690000FB60F9211248F939F93AF93BF93809196
:1036A0009D01811113C08091BA019091BB01A0913D
:1036B000BC01B091BD014196A11DB11D8093BA011D
:1036C0009093BB01A093BC01B093BD01BF91AF919A
:1036D0009F918F910F900FBE0F901F90189582E0D1
:1036E00084BD93E095BD9AEF97BD80936E000895D9
:1036F0002FB7F8948091BA019091BB01A091BC01C1
:10370000B091BD012FBF08952FB7F8946091BA0111
:103710007091BB018091BC019091BD012FBF0895B4
:10372000CF92DF92EF92FF920F931F932FB7F894EF
:103730004091BA015091BB016091BC017091BD01F3
:103740002FBF6A017B01EE24FF248C0120E030E0D2
:10375000C016D106E206F30610F4415051099A0151
:10376000281B390BC9011F910F91FF90EF90DF903B
:10377000CF90089578941F920F920FB60F92112454
:103780008F939F93AF93BF938091BA019091BB01A8
:10379000A091BC01B091BD010196A11DB11D809306
:1037A000BA019093BB01A093BC01B093BD01BF913E
:1037B000AF919F918F910F900FBE0F901F90189512
:1037C00081E08093E00080E28093D8001092C900ED
:1037D0008FE19EE40197F1F700C0000087E090EBD5
:1037E000DC018093CD019093CE01A093CF01B093E3
:1037F000D0019CE088E10FB6F894A8958093600012
:103800000FBE90936000FFCF0E940E1A811102C07C
:103810000E94AE1A0E94191A80939C010E94211ADC
:103820009093BF018093BE010E941D1A682F70E023
:1038300080E090E00C946D178091A10180FF0BC097
:103840006091050185E0689FB00111247595679529
:10385000759567952BC081FF09C06091050185E0D2
:10386000689FB00111247595679520C082FF07C03D
:103870006091050185E0689FB001112417C0909107
:10388000A0019923D1F060910401961788F7209147
:10389000050185E0289F90011124929FA001939F2C
:1038A000500D112470E0CA010E94E02B60387105B0
:1038B00040F46115710539F002C065E070E0862FB3
:1038C00008958FE7089581E008958091A10180FF18
:1038D00008C06091030170E07595679575956795CF
:1038E00021C081FF06C06091030170E07595679566
:1038F00019C082FF04C06091030170E010C0909174
:10390000A0019923C1F0609102019617A0F7809160
:103910000301899FC001112470E00E94E02B6038F0
:10392000710528F46115710521F0862F08958FE740
:10393000089581E0089561E070E0F4CF803F21F4C4
:103940000E941C1C819504C0813F29F40E941C1C0C
:103950008093A5010895823F21F40E941C1C81954B
:1039600004C0833F29F40E941C1C8093A401089585
:10397000893F19F40E94651C05C08A3F31F40E94FA
:10398000651C81958093A60108958B3F21F40E94C8
:10399000651C819504C08C3F29F40E94651C8093AE
:1039A000A7010895843F21F48091A301816017C08D
:1039B000853F21F48091A301826011C0863F21F4EC
:1039C0008091A30184600BC0873F21F48091A30103
:1039D000886005C0883F31F48091A30180618093A5
:1039E000A30108958D3F21F48091A10181600BC056
:1039F0008E3F21F48091A101826005C08F3F29F4A0
:103A00008091A10184608093A1010895803F39F4E1
:103A10008091A50187FF6CC01092A50169C0813F0C
:103A200029F48091A5011816BCF362C09091A401FD
:103A3000823F29F497FF5CC01092A40159C0833FD4
:103A400019F41916CCF354C0893F41F48091A601B2
:103A500018160CF04DC01092A6014AC08A3F29F4F6
:103A60008091A60187FF44C0F6CF8B3F39F4809147
:103A7000A70187FF3DC01092A7013AC08C3F29F4EF
:103A80008091A7011816BCF333C0843F21F48091C4
:103A9000A3018E7F17C0853F21F48091A3018D7F04
:103AA00011C0863F21F48091A3018B7F0BC0873F1B
:103AB00021F48091A301877F05C0883F31F4809174
:103AC000A3018F7E8093A30113C08D3F21F48091C9
:103AD000A1018E7F0BC08E3F21F48091A1018D7FCB
:103AE00005C08F3F29F48091A1018B7F8093A101B4
:103AF0008091A40181110EC08091A50181110AC09D
:103B00008091A601811106C08091A701811102C098
:103B10001092A001089580919C0183FF7EC084EAE9
:103B200091E00E9444068091A3011F928F938FE938
:103B300091E09F938F930E94DD068DE991E00E94B2
:103B400044068091A401282F082E000C330B3F93CC
:103B50008F938AE991E09F938F930E94DD0688E915
:103B600091E00E9444068091A501282F082E000CA8
:103B7000330B3F938F9385E991E09F938F930E943E
:103B8000DD0683E991E00E9444068091A601282F7A
:103B9000082E000C330B3F938F9380E991E09F93A5
:103BA0008F930E94DD068EE891E00E94440680918A
:103BB000A701282F082E000C330B3F938F938BE81F
:103BC00091E09F938F930E94DD0688E891E00E9428
:103BD00044068091A0011F928F9385E891E09F9306
:103BE0008F930E94DD0683E891E00E944406809155
:103BF000A1011F928F9380E891E09F938F930E9481
:103C0000DD068DE791E00E9444068DB79EB74C9685
:103C10000FB6F8949EBF0FBE8DBF82EA91E00E945E
:103C2000DC0D0E94781B90939F0180939E01089564
:103C30001F93CF93DF9380919E0190919F010E94EB
:103C4000901BAC019091A001992321F020910601D5
:103C500030E006C0209107018AE0289F90011124DE
:103C60004217530708F47BC08091A401C091A501BD
:103C7000D091A6011091A701811107C0C1116BC09D
:103C8000D11169C0111167C06AC09F3F19F09F5FD1
:103C90009093A001181624F40E941C1C8093A40188
:103CA0008091A40187FF05C00E941C1C8195809310
:103CB000A4011C1624F40E941C1C8093A501809171
:103CC000A50187FF05C00E941C1C81958093A5015A
:103CD0003091A4013323E1F02091A5012223C1F00A
:103CE00045EB3403C0011124892F990F990B0097DC
:103CF00009F481E08093A40135EB2303C001112472
:103D0000892F990F990B009709F481E08093A50101
:103D10001D1624F40E94651C8093A6018091A601C3
:103D200087FF05C00E94651C81958093A60111162E
:103D300024F40E94651C8093A7018091A70187FF4E
:103D400005C00E94651C81958093A701DF91CF91EA
:103D50001F910C948B1D9F3F09F099CFA1CFDF914C
:103D6000CF911F910895E2EAF1E086E0DF011D9214
:103D70008A95E9F71092A0011092A101089587ECAD
:103D800093E00E9444061F9281E08F931F9285E08A
:103D90008F9389E793E09F938F930E94DD060F90A6
:103DA0000F900F900F900F900F9008958330E9F1CE
:103DB00028F4813061F0823009F10895853009F4EA
:103DC00062C008F449C0863009F474C00895809137
:103DD0000701262F30E0280F311D2F3F310524F435
:103DE000680F6093070103C08FEF809307018091F4
:103DF00007011F928F9382EB92E072C080910601BF
:103E0000262F30E0280F311D2F3F310524F4680F95
:103E10006093060103C08FEF809306018091060135
:103E20001F928F9380EA92E05BC080910501262F5C
:103E300030E0280F311D2F3F310524F4680F6093C7
:103E4000050103C08FEF80930501809105011F924A
:103E50008F938DE892E044C080910401262F30E0DA
:103E6000280F311D2F3F310524F4680F60930401A2
:103E700003C08FEF80930401809104011F928F9300
:103E800088E792E02DC080910301262F30E0280FB3
:103E9000311D2F3F310524F4680F6093030103C0E7
:103EA0008FEF80930301809103011F928F938FE521
:103EB00092E016C080910201262F30E0280F311DBC
:103EC0002F3F310524F4680F6093020103C08FEF88
:103ED00080930201809102011F928F9384E492E00B
:103EE0009F938F930E94DD060F900F900F900F907D
:103EF0000895833081F128F4813059F08230D1F077
:103F00000895853009F449C0B8F1863009F456C0E7
:103F1000089580910701681720F4861B809307019C
:103F200002C010920701809107011F928F9385E3D1
:103F300092E054C080910601681720F4861B80939C
:103F4000060102C010920601809106011F928F9314
:103F500083E292E043C080910501681720F4861B3C
:103F60008093050102C010920501809105011F9206
:103F70008F9380E192E032C080910401681720F4B1
:103F8000861B8093040102C01092040180910401F9
:103F90001F928F938BEF91E021C0809103016817EE
:103FA00020F4861B8093030102C0109203018091CC
:103FB00003011F928F9382EE91E010C08091020165
:103FC000681720F4861B8093020102C01092020140
:103FD000809102011F928F9387EC91E09F938F93C2
:103FE0000E94DD060F900F900F900F900895CF93D1
:103FF000C82F1F928F938CEC94E09F938F930E9415
:10400000DD0681E090E0A0E0B0E0BC01CD0104C09D
:10401000660F771F881F991FCA95D2F70E946D17E8
:104020000F900F900F900F90CF910C949213CF930D
:10403000DF938B3109F4F9C108F08FC18B3009F49B
:10404000B2C108F065C1863009F4B0C120F48530F2
:1040500009F4BEC16CC2873009F4CCC1883009F0C4
:1040600066C287E19AE00E94440688E699E00E94D1
:1040700044060E941D1A1F928F9385E699E09F9334
:104080008F930E94DD0683E699E00E9444060E9419
:10409000191AC82F80E599E00E9444061F92CF9319
:1040A0008BE499E09F938F930E94DD0689E499E069
:1040B0000E9444068FE399E00E9444068C2F817091
:1040C0001F928F938CE399E09F938F930E94DD065C
:1040D0008AE399E00E94440680E399E00E94440646
:1040E000C1FB882780F91F928F938DE299E09F93FF
:1040F0008F930E94DD068BE299E00E9444068FE1D7
:1041000099E00E944406C2FB882780F91F928F9392
:104110008CE199E09F938F930E94DD068AE199E0FC
:104120000E94440681E199E00E944406C3FBCC272B
:10413000C0F91F92CF938EE099E09F938F930E94D6
:10414000DD068CE099E00E9444060E94211AEC01F1
:1041500088EF98E00E944406DF93CF9383EF98E0C6
:104160009F938F930E94DD0681EF98E00E944406A2
:1041700088ED98E00E9444068C2F81701F928F93E7
:1041800085ED98E09F938F930E94DD068DB79EB7D3
:1041900080960FB6F8949EBF0FBE8DBF83ED98E05A
:1041A0000E9444068CEB98E00E944406C1FB8827DD
:1041B00080F91F928F9389EB98E09F938F930E94D1
:1041C000DD0687EB98E00E94440685EA98E00E94AD
:1041D00044068D2F81701F928F9382EA98E09F93FF
:1041E0008F930E94DD0680EA98E00E9444068EE8E4
:1041F00098E00E944406D695D1701F92DF938BE819
:1042000098E09F938F930E94DD0689E898E00E94D2
:10421000440687E798E00E944406C2FB882780F99D
:104220001F928F9384E798E09F938F930E94DD06FF
:1042300082E798E00E94440680E698E00E944406E7
:10424000C3FB882780F91F928F938DE598E09F9399
:104250008F930E94DD068BE598E00E94440681E57D
:1042600098E00E944406C4FB882780F91F928F9330
:104270008EE498E09F938F930E94DD068CE498E093
:104280000E9444068AE398E00E944406C5FB882702
:1042900080F91F928F9387E398E09F938F930E94FA
:1042A000DD0685E398E00E94440689E198E00E94DB
:1042B0004406C6FB882780F91F928F9386E198E019
:1042C0009F938F930E94DD068DB79EB780960FB6A1
:1042D000F8949EBF0FBE8DBF84E198E00E94440613
:1042E0008CE098E00E944406C7FBCC27C0F91F92DF
:1042F000CF9389E098E09F938F930E94DD0687E03B
:1043000098E00E9444060F900F900F900F9049C0C4
:10431000803109F4B4C020F48E3009F49AC007C18A
:10432000863109F4C7C0893109F001C18EE296E0F7
:104330000E94440685E196E00E94440686ED95E0E1
:104340000E9444068EE995E00E94440688E695E0C6
:104350000E9444068AE395E08FC08A32E1F060F45F
:10436000873209F4E0C028F48E3108F4E0C08D51A2
:10437000DBC0893269F1DBC0833448F48A3308F04A
:10438000D0C0853309F4CFC0883369F0D0C08334FE
:1043900009F4C9C0CCC086E09AE00E9444060E949D
:1043A000AE1AC1E0C9C084E696E066C080919C0167
:1043B000817F8E7F80939C018DE396E00E9444066E
:1043C00082E09AE00E94440681E08093A901E9CF4F
:1043D0000E94921386EE99E00E9444069FEF23ED1F
:1043E00080E3915020408040E1F700C000000E942F
:1043F000E01BD7CF80919C01C82FC095C170C0FB36
:1044000080F980939C01CC2329F08AED99E00E94E9
:10441000440692C08DEC99E00E94440680919C0174
:10442000897F877F80939C01BCCF90919C0191FBF9
:10443000CC27C0F981E0C827892FC0FB81F9809380
:104440009C01CC2319F080EC99E029C082EB99E023
:1044500013C090919C0192FBCC27C0F981E0C82742
:10446000892FC0FB82F980939C01CC2319F083EA49
:1044700099E015C083E999E00E94440692CF90919B
:104480009C0193FBCC27C0F981E0C827892FC0FB92
:1044900083F980939C01CC2351F087E899E00E9436
:1044A000440680919C01816080939C0145C08AE70D
:1044B00099E0E2CF8CE295E00E9444060E94870DCD
:1044C0001F928F9382E195E09F938F930E94DD0668
:1044D000809112011F928F938BEF94E09F938F93A3
:1044E0000E94DD068091B6011F928F9388EE94E0C2
:1044F0009F938F930E94DD060E94841B9F938F934E
:104500007F936F9381ED94E09F938F930E94DD06DC
:104510008DB79EB742960FB6F8949EBF0FBE8DBF63
:1045200040CF895301C080E00E94F71F3ACF88E74F
:1045300099E00E944406C0E08C2FDF91CF9108954E
:1045400080E0089580E008958E518A3030F4E82F9D
:10455000F0E0EA5EFE4F8081089580E00895CF93F9
:10456000C82F8091A901813059F020F0823009F4E0
:1045700045C039C10E944319823209F036C104C0D6
:104580000E944319823261F48C2F0E94A022811173
:1045900004C08C2F0E9417202FC081E090E02CC017
:1045A0008C2F0E94A222811126C0C431E1F070F448
:1045B000CB3081F0C031D1F40E94BF1E84EC94E076
:1045C0000E94440682E08093A90115C0C93259F0C7
:1045D000C83361F48DE396E00E94440688EC94E0D1
:1045E0000E94440608C01092A90101C182EC94E027
:1045F0000E944406FCC081E08170FBC0C43228F5F3
:10460000CE3108F0C1C0CB30A1F1D0F4C73009F0F1
:10461000D0C08EE18093070182E3809306018AE097
:104620008093050184E18093040188E08093030175
:1046300088E28093020188E693E00E944406BCC0B1
:10464000C33149F1C431C1F0B4C0CB3409F4A6C0C0
:1046500028F4C93289F0C83361F0ABC0C13509F420
:104660009BC0C23509F496C0CE3409F0A2C06AE0FE
:104670009BC00E94BF1EA0C08091A801882319F092
:104680001092A80199C085E793E00E94440681E05A
:104690008093A901AEC08FE493E00E9444068DE3AD
:1046A00093E00E944406809107011F928F938AE352
:1046B00093E09F938F930E94DD0688E393E00E942E
:1046C000440686E293E00E944406809106011F9210
:1046D0008F9383E293E09F938F930E94DD0681E2A4
:1046E00093E00E94440682E193E00E944406809198
:1046F00005011F928F938FE093E09F938F930E9409
:10470000DD068DE093E00E9444068CEF92E00E946B
:104710004406809104011F928F9389EF92E09F934A
:104720008F930E94DD0687EF92E00E94440682EE9E
:1047300092E00E944406809103011F928F938FEDB7
:1047400092E09F938F930E94DD068DED92E00E9490
:10475000440686EC92E00E944406809102011F927A
:104760008F9383EC92E09F938F930E94DD0681EC00
:1047700092E00E9444068DB79EB748960FB6F89413
:104780009EBF0FBE8DBF18C08C2F0E94A4228093A5
:10479000A80112C061E003C061E006C06AE0809138
:1047A000A8010E94D61E08C08091A8010E94791F0E
:1047B00003C086E693E013C08091A801882369F0C6
:1047C0001F928F9380E693E09F938F930E94DD0664
:1047D0000F900F900F900F9004C08DE593E00E9412
:1047E000440681E006C01092A90180E002C080E08A
:1047F00003CFCF9108958091B50108959FB7F894A4
:104800001092AC019FBF9091C401943009F057C041
:104810009091E9009F703091EC00232F217030FDC2
:1048200020E8922B23E02093E9002091EB0020FF69
:1048300043C02091EE0027FF3FC02091AA01222310
:1048400021F02091E80025FF37C01092AA0126E050
:104850003091E80035FD15C03091C401343061F568
:104860003091EB0035FD28C0215021F481E0809388
:10487000AA0122C0EFE9FFE03197F1F700C0000084
:10488000E7CF8093F1008091E80085FD0AC0809118
:10489000E80080FFFCCF8091E8008E778093E800ED
:1048A00006C08FB7F89421E02093AC018FBF9F70B2
:1048B0009093E90080E008959F709093E9008FEF56
:1048C00008950F931F93CF93DF9300D01F92CDB71E
:1048D000DEB78C010E941C27823011F0843021F554
:1048E00084E089831B830A8382E08093E9008FEF51
:1048F0009091E800815095FD06C095ED9A95F1F7ED
:1049000000008111F5CF8091E80085FF0DC040E0E7
:1049100050E063E070E0CE0101960E94392780915B
:10492000E8008E778093E8000F900F900F90DF9152
:10493000CF911F910F910895CF93DF9300D01F92D5
:10494000CDB7DEB72091C401243031F523E02983AF
:10495000805891099B838A8382E08093E9008FEFDE
:104960009091E800815095FD06C095ED9A95F1F77C
:1049700000008111F5CF8091E80085FF0DC040E077
:1049800050E063E070E0CE0101960E9439278091EB
:10499000E8008E778093E8000F900F900F90DF91E2
:1049A000CF910895CF93DF93EC010E941C278230B2
:1049B00011F08430F9F482E08093E9009FEF809158
:1049C000E800915085FD06C085ED8A95F1F700005D
:1049D0009111F5CF8091E80085FF0CC040E050E0D8
:1049E00066E070E0CE010E9439278091E8008E7762
:1049F0008093E800DF91CF910895CF93DF93EC018E
:104A00000E941C27823011F0843039F581E08093B8
:104A1000E9008FEF9091E800815095FD06C095ED7B
:104A20009A95F1F700008111F5CF8091E80085FF9C
:104A300014C040E050E068E070E0CE010E943927E9
:104A40008091E8008E778093E80088E0FE01ADEA6F
:104A5000B1E001900D928A95E1F7DF91CF91089531
:104A600087E49AE00E9444068091C301811109C045
:104A70000E94CE280E942B298091E20084608093BE
:104A8000E200089583E49AE00E9444061092C30174
:104A900008958FE39AE00C9444068BE39AE00C941B
:104AA000440687E39AE00E9444060C943E1B209142
:104AB000AB012F5F822F62E30E94D42B992319F060
:104AC0002093AB0108951092AB018091AC01882333
:104AD00071F18091C401843041F58091E9008F70BB
:104AE0002091EC00922F917020FD90E8892B93E0AB
:104AF0009093E9009091EB0090FF14C09091EE002C
:104B000097FF10C09091E80095FF03C01092F1004C
:104B1000F9CF9091E80090FF05C09091E8009E7752
:104B20009093E8008F708093E9001092AC01089593
:104B300042E061EC81E00E94482842E261EC82E0C0
:104B40000E94482842E261EC83E00C94482880915E
:104B5000C601833009F460C030F4813071F08230D6
:104B600009F499C008958A3009F485C08B3009F49E
:104B70006BC0893009F0A7C020C08091C501813A7F
:104B800009F0A1C08091E800877F8093E8008091C0
:104B9000C9019091CA01892B21F468E08DEA91E066
:104BA00003C060E080E090E070E00E948427809184
:104BB000E8008B778093E80008958091C5018132E9
:104BC00009F081C08091C9019091CA01029708F053
:104BD0007AC08091E800877F8093E8008091E800A8
:104BE00082FD05C08091C4018111F8CF6CC0209175
:104BF000F3008091F20090E0922B029729F48091CB
:104C0000F1008B7F813021F48091F1008093B50118
:104C10008091E8008B7753C08091C501813A09F0FB
:104C200052C08091C9019091CA01892B09F04BC0F3
:104C30008091E800877F8093E8008091E80080FF02
:104C4000FCCF8091120136C08091C5018132D9F527
:104C50008091C9019091CA01892BA9F58091E80042
:104C6000877F8093E8000E947D288091C701809310
:104C700012010C9492138091C501813221F580912B
:104C8000E800877F8093E8000E947D288091C8011A
:104C90008093B60108958091C501813AA1F4809175
:104CA000E800877F8093E8008091E80080FFFCCFD8
:104CB0008091B6018093F1008091E8008E77809317
:104CC000E8000C947D28089584B7877F84BF0FB6D1
:104CD000F894A8958091600088618093600010929C
:104CE00060000FBE80E880936100109261000E9416
:104CF000240E0E94CE280E942B298091E20084601D
:104D00008093E2008EEF93E20E94F31978940E9460
:104D1000B92B0E942C0E88E091E00E94820D86E261
:104D20009AE00E9444068091C401853089F482E2B1
:104D30009AE00E9444060E94F51A8091C2018823DD
:104D400091F30E94271B882371F30E942327EBCF46
:104D50000E945C0EE8CF0C94AD26292F3327233018
:104D60003105C9F064F42130310581F0223031057C
:104D700009F049C08BE590E029E83AE048C02132CB
:104D8000310521F12232310571F13DC082E190E01F
:104D900024EE3AE03CC099278130910571F02CF463
:104DA000892B89F5E5E8FAE00DC08230910541F0E4
:104DB000039749F5EBE4FAE005C0E1E6FAE002C04A
:104DC000E1E5FAE0849190E09F0121C06330710534
:104DD000D0F4660F771FFB01E75DFE4F2081318124
:104DE00089E090E014C06330710568F4FB01EE0FB8
:104DF000FF1FED5DFE4F20813181FB01E05EFE4F24
:104E0000808190E004C080E090E020E030E0FA0192
:104E10003183208308950895CF93C82F0E940B27D4
:104E2000C093B701CF9108958091C401843011F0EF
:104E300081E0089582E008958091B701811102C058
:104E40000C941427089580E189BD82E189BD09B4DD
:104E500000FEFDCF8091D8008F7D8093D800809197
:104E6000E00082608093E0008091E00081FDFCCF53
:104E70000895CF92DF92EF92FF920F931F93CF93FB
:104E8000DF93EC018B016A010E949C28811133C0E1
:104E9000C114D10439F0F60180819181081B190BEE
:104EA000C80FD91FE12CF12C0115110519F18091C2
:104EB000E80085FD16C08091E8008E778093E800B9
:104EC000C114D10449F0F60180819181E80EF91EE8
:104ED000F182E08285E00FC00E949C28882321F3A4
:104EE0000AC089918093F10001501109FFEFEF1A78
:104EF000FF0ADACF80E0DF91CF911F910F91FF90F1
:104F0000EF90DF90CF9008952091CB013091CC01AC
:104F10002617370748F06115710539F42091E8002C
:104F20002E772093E80001C0B90140E061157105BA
:104F3000A9F12091C401222309F443C0253009F4CA
:104F400042C02091E80023FD40C02091E80022FDEE
:104F500032C02091E80020FFE9CF4091F30020917A
:104F6000F20030E0342BFC01CF016115710559F0DE
:104F70002830310540F481918093F100615071092E
:104F80002F5F3F4FF1CF41E02830310509F040E07D
:104F90002091E8002E772093E800C8CF4111C9CFB7
:104FA0000AC08091C401882361F0853061F080914E
:104FB000E80083FD0AC08091E80082FFF2CF80E024
:104FC000089582E0089583E0089581E00895209196
:104FD000CB013091CC012617370748F061157105D8
:104FE00039F42091E8002E772093E80001C0B90140
:104FF000FC0120E06115710591F18091C4018823C5
:1050000009F440C0853009F43FC08091E80083FD79
:105010003DC08091E80082FD2FC08091E80080FFB4
:10502000E9CF2091F3008091F20090E0922B61157E
:10503000710559F08830910540F424912093F100D6
:105040003196615071090196F2CF21E0089709F07D
:1050500020E08091E8008E778093E800CBCF21118B
:10506000CCCF0AC08091C401882361F0853061F003
:105070008091E80083FD0AC08091E80082FFF2CFB2
:1050800080E0089582E0089583E0089581E0089526
:10509000982F973058F59093E900981739F0709150
:1050A000EC002091ED005091F00003C0242F762FEA
:1050B00050E021FF19C03091EB003E7F3093EB00B0
:1050C0003091ED003D7F3093ED003091EB00316089
:1050D0003093EB007093EC002093ED005093F000C0
:1050E0002091EE0027FF07C09F5FD3CF8F70809382
:1050F000E90081E0089580E008958091C50187FF6F
:1051000011C08091E80082FD05C08091C401811129
:10511000F8CF11C08091E8008B770BC08091C4015B
:10512000882349F08091E80080FFF8CF8091E80063
:105130008E778093E80008952091E4003091E50097
:1051400095E64091EC00842F817040FF22C0809151
:10515000E80080FD1CC08091C401882391F0853057
:1051600091F08091EB0085FD10C04091E4005091DA
:10517000E5004217530729F39A01915011F784E093
:10518000089582E0089583E0089581E0089580E025
:1051900008954091E80042FFDECF08950E943C2927
:1051A0000E944429E0EEF0E0808181608083E8ED98
:1051B000F0E080818F77808319BCA7EDB0E08C91FF
:1051C0008E7F8C9380818F7E80831092C30108959F
:1051D0000F931F93CF93DF930E943C290E94442991
:1051E000C8EDD0E088818F77888388818068888344
:1051F00088818F7D888319BC1092C4011092C001F0
:105200001092C2011092C10100EE10E0F8018081FD
:105210008B7F808388818160888342E060E080E0CA
:105220000E944828E1EEF0E080818E7F8083E2EEEC
:10523000F0E0808181608083808188608083F801D4
:1052400080818E7F8083888180618883DF91CF9188
:105250001F910F910895E8EDF0E080818F7E8083AB
:10526000E7EDF0E080818160808384E082BF81E0AF
:105270008093C3010C94E828E8EDF0E080818E7FF4
:1052800080831092E20008951092DA001092E100FB
:1052900008951F920F920FB60F9211242F933F93F0
:1052A0004F935F936F937F938F939F93AF93BF932E
:1052B000EF93FF938091E10082FF0BC08091E200A9
:1052C00082FF07C08091E1008B7F8093E1000E9404
:1052D00057258091DA0080FF1FC08091D80080FFA1
:1052E0001BC08091DA008E7F8093DA008091D90014
:1052F00080FF0DC080E189BD82E189BD09B400FE57
:10530000FDCF81E08093C4010E94302505C019BC07
:105310001092C4010E9442258091E10080FF19C0D3
:105320008091E20080FF15C08091E2008E7F809323
:10533000E2008091E20080618093E2008091D800D9
:1053400080628093D80019BC85E08093C4010E94DC
:105350004D258091E10084FF30C08091E20084FF00
:105360002CC080E189BD82E189BD09B400FEFDCF7A
:105370008091D8008F7D8093D8008091E1008F7E4E
:105380008093E1008091E2008F7E8093E200809123
:10539000E20081608093E2008091C001882311F0D7
:1053A00084E007C08091E30087FD02C081E001C076
:1053B00083E08093C4010E9451258091E10083FF26
:1053C00029C08091E20083FF25C08091E100877FA2
:1053D0008093E10082E08093C4011092C00180912B
:1053E000E1008E7F8093E1008091E2008E7F8093C8
:1053F000E2008091E20080618093E20042E060E0A0
:1054000080E00E9448288091F00088608093F0003E
:105410000E944925FF91EF91BF91AF919F918F918C
:105420007F916F915F914F913F912F910F900FBEA0
:105430000F901F9018951F920F920FB60F92112484
:105440002F933F934F935F936F937F938F939F938C
:10545000AF93BF93CF93DF93EF93FF93C091E90096
:10546000CF708091EC00D82FD17080FDD0E81092E1
:10547000E9008091F000877F8093F00078940E948B
:105480005F2A1092E9008091F00088608093F0001C
:10549000CD2BCF70C093E900FF91EF91DF91CF91B9
:1054A000BF91AF919F918F917F916F915F914F913C
:1054B0003F912F910F900FBE0F901F9018951F9343
:1054C000CF93DF93CDB7DEB7AA970FB6F894DEBFC0
:1054D0000FBECDBFE5ECF1E088E08E0F9091F100BA
:1054E00091938E13FBCF0E94A7258091E80083FF44
:1054F00028C18091C5019091C601492F50E04A30E2
:10550000510508F01EC1FA01EC58FF4F0C94F42B22
:10551000803821F0823809F014C108C08091C1019F
:105520009091C201992389F082600FC08091C901D6
:105530008F70873008F005C18093E9008091EB00FF
:1055400085FB882780F91092E9009091E800977F09
:105550009093E8008093F1001092F100D0C0282FC2
:105560002D7F09F0EEC0882319F0823061F0E9C088
:105570008091C701813009F0E4C0933009F080E0E8
:105580008093C2012EC08091C70181112AC08091F1
:10559000C9018F702FEF280F263008F0D2C08093FA
:1055A000E9002091EB0020FF1CC0933021F4809192
:1055B000EB00806214C09091EB0090619093EB003F
:1055C00021E030E0A90102C0440F551F8A95E2F79F
:1055D0004093EA001092EA008091EB00886080938B
:1055E000EB001092E9008091E800877F8093E8004B
:1055F0000E947D28A6C08111A4C01091C7011F7709
:105600008091E3008078812B8093E3008091E80013
:10561000877F8093E8000E947D288091E80080FFCA
:10562000FCCF8091E30080688093E300111102C0F9
:1056300082E001C083E08093C40183C0805882303F
:1056400008F07FC08091C7019091C8018C3D53E064
:10565000950779F583E08A838AE289834FB7F894C6
:10566000DE01139620E03EE051E2E32FF0E050939C
:105670005700E49120FF03C0E295EF703F5FEF70A9
:105680008E2F90E0EA3010F0C79601C0C0968D933F
:105690009D932F5F243149F74FBF8091E800877FAA
:1056A0008093E8006AE270E0CE0101960E948427B0
:1056B00015C06091C9017091CA01AE014F5F5F4F83
:1056C0000E94AB26BC01892BE1F19091E800977F05
:1056D0009093E80089819A810E94E7278091E800F1
:1056E0008B778093E8002DC0803859F58091E800D1
:1056F000877F8093E8008091C0018093F1008091C2
:10570000E8008E7773CF81111CC09091C701923051
:10571000C0F48091E800877F8093E8009093C001F7
:105720000E947D288091C001811106C08091E30014
:1057300087FD02C081E001C084E08093C4010E9423
:1057400098258091E80083FF0AC08091E800877F58
:105750008093E8008091EB0080628093EB00AA9632
:105760000FB6F894DEBF0FBECDBFDF91CF911F9172
:105770000895CF938091C4018823A1F0C091E900DE
:10578000CF709091EC00892F817090FD80E8C82B3C
:105790001092E9008091E80083FD0E945F2ACF709B
:1057A000C093E900CF910895991B79E004C0991F37
:1057B000961708F0961B881F7A95C9F7809508956B
:1057C00097FB072E16F4009407D077FD09D00E94AE
:1057D000FA2B07FC05D03EF4909581959F4F0895D4
:1057E000709561957F4F0895EE0FFF1F0590F4911E
:1057F000E02D0994AA1BBB1B51E107C0AA1FBB1FC8
:10580000A617B70710F0A61BB70B881F991F5A954C
:10581000A9F780959095BC01CD010895F999FECF27
:1058200092BD81BDF89A992780B50895A8E1B0E0AE
:1058300042E050E00C94422C262FF999FECF92BD05
:1058400081BDF89A019700B4021639F01FBA20BD45
:105850000FB6F894FA9AF99A0FBE08950396272F77
:105860000E941D2C0E941C2C252F0E941D2C242FD1
:105870000C941D2C0196272F0E941D2C0C941C2C7F
:10588000DC01CB01FC01F999FECF06C0F2BDE1BD00
:10589000F89A319600B40D9241505040B8F70895EF
:0458A000F894FFCFAA
:1058A40091012808140A321EFB23FD24D2249C24CF
:1058B400612401F736F40102030405060708090010
:1058C4004085229D0B180BF60A9B0AB40ACD0A00E8
:00000001FF
