:100000000C941C010C9463010C9463010C94630127
:100010000C9463010C9463010C9463010C946301D0
:100020000C9463010C9463010C948B120C94C71113
:100030000C94650B0C9463010C9463010C946301A4
:100040000C9463010C9463010C9463010C946301A0
:100050000C9463010C94F30A0C9463010C946301F7
:100060000C9463010C9463010C9463010C94630180
:100070000C9463010C9463010C9463010C94630170
:100080000C9463010C9463010C9463010C94630160
:100090000C9463010C9463010C9463010C94630150
:1000A0000C9463010C9463010C946301D60FFD0F53
:1000B0009F11FD0F9F11451068109F11631176115C
:1000C0007D167D1690169016861690169016901630
:1000D0007D167D168B16901690168B16AA00A90019
:1000E000AC00AB0029003D0405010902A101850215
:1000F0000901A1000509190129051500250195052A
:1001000075018102950175038101050109300931ED
:100110001581257F95027508810609381581257F8F
:10012000950175088106050C0A38021581257F9511
:100130000175088106C0C005010980A10185031A67
:1001400081002A83001601002603009501751081A5
:1001500000C0050C0901A10185041A01002A9C02B6
:10016000160100269C02950175108100C005010949
:1001700006A101050719E029E71500250195087575
:100180000181029501750881010507190029FF15F4
:100190000026FF009506750881000508190129054C
:1001A000950575019102950175039101C009023B06
:1001B00000020100A0FA0904000001030101000986
:1001C00021110100012240000705810308000A09EE
:1001D0000401000103000000092111010001228532
:1001E000000705820320000A120110010000000828
:1001F000EDFE0000010001020301040330000000D5
:100200000E037000640078006B0062006300000061
:1002100022034600720061006E006B006C006900F2
:100220006E002000480061007200640069006E00EA
:10023000670000000403090411241FBECFEFDAE0B9
:10024000DEBFCDBF04B603FE27C080919E01909112
:100250009F01A091A001B091A1018730904BA740D0
:10026000B04BD1F410929E0110929F011092A00108
:100270001092A10114BE84B7877F84BF0FB6F89493
:10028000A895809160008861809360001092600062
:100290000FBEE0E0F8E3099511E0A0E0B1E0E6EF81
:1002A000F3E302C005900D92AE30B107D9F721E01B
:1002B000AEE0B1E001C01D92AE39B207E1F70E9495
:1002C00055140C94F9190C940000609142018CE0D3
:1002D00090E00C9497190F931F93CF93DF93C62F41
:1002E000D42F122FFC0182818823C9F0609315015D
:1002F0000E94430B90930F0180930E0180E28C0FBC
:10030000883008F057C0C77081E001C0880FCA95D7
:10031000EAF7DF91CF911F910F910C946C198091A6
:100320001501681330C080910E0190910F010E9459
:10033000190B883C910538F500E20D0FCD17B9F087
:1003400080E28C0F883040F4C77081E001C0880FD4
:10035000CA95EAF70E946119083028F581E09D2FBF
:10036000977001C0880F9A95EAF70E946C19812F47
:100370000E9476190830F0F4D77081E001C0880F30
:10038000DA95EAF70AC080E28C0F883098F4C770DB
:1003900081E001C0880FCA95EAF7DF91CF911F91E4
:1003A0000F910C946119812FDF91CF911F910F91C3
:1003B0000C947619DF91CF911F910F9108951F939F
:1003C000CF93DF93CDB7DEB767970FB6F894DEBF54
:1003D0000FBECDBF4B8B5C8B6D8B7E8B8F8B86E086
:1003E0009E01235F3F4FD901E82F1D92EA95E9F75F
:1003F00095E0FE017396D90101900D929A95E1F76F
:10040000F901DE01179601900D928A95E1F7CE0170
:1004100007960E94561781113EC086E0FE0137966E
:10042000DE01119601900D928A95E1F7FF81E88532
:100430006A857B856115710531F0EF3F31F481E00C
:10044000FF3F19F403C081E001C080E080FD23C0BC
:1004500020916C0130E0C901019687709927409185
:100460009D0150E08417950779F1F983EA837D8334
:100470006C8396E0929FD001939FB00D1124A359F5
:10048000BE4FFE01319601900D929A95E1F780934F
:100490006C010E94E41616E080919D0190916C0120
:1004A0008917F9F0189FC001112483599E4F0E94AB
:1004B00056178823B1F080919D0190E001968770D6
:1004C000992780939D01E8CF0E94411910926C01F9
:1004D00010929D01E6E6F1E086E0DF011D928A952B
:1004E000E9F767960FB6F894DEBF0FBECDBFDF9178
:1004F000CF911F9108952091120130911301281777
:10050000390771F09093130180931201E0914C012F
:10051000F0914D01309721F00084F185E02D099490
:10052000089520911001309111012817390771F0B9
:100530009093110180931001E0914C01F0914D01D5
:10054000309721F00680F781E02D09940895E0911D
:100550004C01F0914D01309721F00190F081E02D98
:10056000099480E00895882309F463C0823869F40F
:100570000E94A70281FF5DC069E38AE191E00E94C9
:10058000970B0E942B0C69E30EC0833891F40E94F4
:10059000A70280FF4EC063E58AE191E00E94970BBD
:1005A0000E942B0C63E58AE191E00E948A0B0C9477
:1005B0002B0C843869F40E94A70282FF3AC067E4DA
:1005C0008AE191E00E94970B0E942B0C67E4EBCF2D
:1005D0009CEF980F913A10F4682FE5CF90E2980FB6
:1005E000983088F4877021E030E0A90102C0440F00
:1005F000551F8A95E2F7CA018095909124018923BD
:1006000080932401D4CF9BE5980F933020F480E0B1
:1006100090E00C94910298E5980F973120F480E0D7
:1006200090E00C947B02803F20F00E94C4090C945F
:100630004F0B0895882309F416C18238B1F40E9443
:10064000A70281FD10C169E38AE191E00E94970B46
:100650000E942B0C2FEF41EE54E0215040405040BF
:10066000E1F700C0000069E317C08338D9F40E94A5
:10067000A70280FDF8C063E58AE191E00E94970B34
:100680000E942B0C8FEF91EE24E08150904020408F
:10069000E1F700C0000063E58AE191E00E948A0B67
:1006A0000C942B0C8438B1F40E94A70282FDDBC0AD
:1006B00067E48AE191E00E94970B0E942B0C4FEFB8
:1006C00051EE84E0415050408040E1F700C000000E
:1006D00067E4E2CF9CEF980F913A30F4682F8AE1FB
:1006E00091E00E94970BDCCF90E2980F983080F455
:1006F000877021E030E0A90102C0440F551F8A95A0
:10070000E2F7CA0190912401892B80932401C8CF7C
:100710009BE5980F933070F4853A29F0863A31F0D2
:1007200083E890E005C081E890E002C082E890E0B4
:100730000C94910298E5980F973108F08EC0883A92
:1007400009F445C0893A09F445C08A3A09F445C01C
:100750008B3A09F445C08C3A09F445C08B3B09F447
:1007600045C08C3B09F445C08D3A09F445C0803B37
:1007700009F445C08E3A09F445C08F3A09F445C0E2
:10078000813B09F445C0823B09F445C0833B09F431
:1007900045C0843B09F445C0853B09F445C0863B10
:1007A00009F445C0873B09F445C0883B09F445C0BE
:1007B000893B09F445C08D3B09F445C08E3B09F4E3
:1007C00045C08A3B09F445C080E090E044C082EE19
:1007D00090E041C089EE90E03EC08AEE90E03BC0E0
:1007E00085EB90E038C086EB90E035C083EB90E07D
:1007F00032C084EB90E02FC087EB90E02CC08CECF3
:1008000090E029C08DEC90E026C083E891E023C001
:100810008AE891E020C082E991E01DC084E991E07E
:100820001AC081E292E017C083E292E014C084E231
:1008300092E011C085E292E00EC086E292E00BC029
:1008400087E292E008C08FE690E005C080E790E084
:1008500002C08AE292E00C947B02803F20F00E946A
:100860008B0A0C944F0B08956F927F928F929F92F8
:10087000AF92BF92CF92DF92EF92FF920F931F93AE
:10088000CF93DF9300D000D01F92CDB7DEB77C01AD
:10089000BB24B39452E0A52E63E0762E74E0672E5D
:1008A000F7011081018183819481892B31F00F3F01
:1008B00031F481E01F3F19F403C081E001C080E002
:1008C00080FD39C485E0F701DE01119601900D929B
:1008D0008A95E1F789819A810E94941690E0FC0143
:1008E000EE0FFF1FE80FF91FE00FF11DEE0FFF1FC6
:1008F000E10FF11DEE0FFF1FE452FF4F0591149120
:10090000F7018281882329F1033EFCE51F07D1F01E
:1009100058F4013E4CE5140791F0023E8CE51807AF
:10092000C1F4B092420113C0043E9CE5190769F07E
:10093000053EECE51E0769F46092420108C0109282
:10094000420105C0A092420102C0709242010E9481
:10095000650117FF71C0F7018281882309F46CC01B
:10096000809124018093140110922401809142010E
:10097000813071F048F08230C1F08430E1F486EECD
:100980000E94761988E115C082EE0E941A0313C0F6
:1009900083E00E94571988E10E941A0388E10E94AF
:1009A000B30283E00E944C1906C082EE0E941A0333
:1009B00087E50E9476198FE39CE90197F1F700C063
:1009C00000004801E89497F88CE0C82ED12CC401AF
:1009D0000C2C02C0969587950A94E2F7282F2F7069
:1009E00041F0822F90E02A3010F44D9604C0069713
:1009F00002C087E290E00E94761994E0C91AD108FB
:100A0000ECEFCE16EFEFDE0611F780914201813058
:100A100039F040F0823031F0843051F488E206C081
:100A20008CE204C082EE0E94B30202C00E947619DA
:100A30008091140180932401033FFCE51F07B9F165
:100A400080F4083D4CE51407C9F0093D8CE5180712
:100A5000D1F1073D9CE51907C9F526E241EE61EEAB
:100A600010C0053FECE51E0751F128F1063F2CE5CB
:100A7000120761F527E245EE66EE03C027E245EE78
:100A800065EEC7010F900F900F900F900F90DF91C0
:100A9000CF911F910F91FF90EF90DF90CF90BF907B
:100AA000AF909F908F907F906F900C946B0126E297
:100AB00041EE60EEE6CF27E245EE64EEE2CF26E2BD
:100AC00041EE62EEDECF28E241E0DACFF70182812B
:100AD0008111109215010631FCE51F07A1F588234D
:100AE00091F0809124018A7A91E009F490E090934A
:100AF0001601882311F065E301C069E28AE191E003
:100B00000E94970B0BC080911601882311F065E3BA
:100B100001C069E28AE191E00E948A0B0F900F9078
:100B20000F900F900F90DF91CF911F910F91FF9039
:100B3000EF90DF90CF90BF90AF909F908F907F907D
:100B40006F900C942B0C07312CE5120708F080C134
:100B500001304CE5140761F4882309F4ECC280915C
:100B60006101982F909590FB80F980936101E3C219
:100B700002309CE5190708F435C1882309F4A3C1A4
:100B800080E090E00E9491198C3E9E4F11F00E94EF
:100B9000C20B0E94B10B90934B0180934A0100312C
:100BA000FCE51F0709F4C3C008F041C008304CE55C
:100BB000140709F49AC0F0F404309CE5190709F40D
:100BC00087C068F40230FCE51F0709F477C00330E2
:100BD0001C4509F0E5C080914A01826076C006306C
:100BE0004CE5140709F46EC008F07BC080914A01FF
:100BF00088606BC00C309CE5190709F485C068F467
:100C00000A30FCE51F0709F474C008F079C00E949F
:100C1000411980914A01806858C00E304CE5140794
:100C200009F476C008F07FC080914A018BC00B3F69
:100C30009CE5190709F44FC018F50331FCE51F07BF
:100C400009F47DC078F401314CE5140709F473C050
:100C500002311C4509F0A4C00E94411980914A014B
:100C60008F7733C005319CE5190709F472C008F489
:100C700086C00A3F1C4509F093C080914B013EC0DD
:100C80000F3F2CE5120709F45FC058F40D3F8CE5C7
:100C9000180709F444C008F43FC080914B018260FA
:100CA0002DC00130EDE51E0709F475C008F45DC0E4
:100CB00002301D4509F074C060E06EC080914A01A9
:100CC000816003C080914A01806180934A0168C0BD
:100CD00080914A0111C080914B01826080934B0149
:100CE0005FC080914A018062F0CF80914A018064A8
:100CF000ECCF80914A0188608460E7CF8160EECFBD
:100D000080914A018E7FE1CF80914A018D7FDDCFB6
:100D100080914A01877FD9CF80914B0118C0809183
:100D20004B018D7FDBCF80914A018F7ECECF8091AA
:100D30004A018F7DCACF80914A018F7BC6CF8091B7
:100D40004A01877F8B7FC1CF80914B018D7F8E7F42
:100D5000C5CF80914A0182FB222720F991E092279A
:100D600090FB82F990FB83F9B0CF80914B01982FD3
:100D7000909591708E7F892B90FB81F9AFCF0E9467
:100D8000411980914A0187FB222720F991E092279F
:100D900090FB87F99ACF61E08EE090E00E9497196E
:100DA00060914A0110914B0184E090E00E949719F4
:100DB000612F81E290E00E9497190F900F900F90A1
:100DC0000F900F90DF91CF911F910F91FF90EF90B7
:100DD000DF90CF90BF90AF909F908F907F906F905B
:100DE0000C94411901151C4509F06DC0882309F4C4
:100DF000A2C10E944119FFEF24E34CE0F1502040D2
:100E00004040E1F700C0000081E08093E00080E214
:100E10008093D8001092C9008FE19EE40197F1F70A
:100E200000C0000087E090EBDC0180939E0190936E
:100E30009F01A093A001B093A1019CE088E10FB6AF
:100E4000F894A895809360000FBE90936000FFCF48
:100E50000E3DFCE51F07C1F4882309F46CC10F9017
:100E60000F900F900F900F90DF91CF911F910F91E6
:100E7000FF90EF90DF90CF90BF90AF909F908F90BA
:100E80007F906F900C94C20B0F3D2CE51207A0F4DD
:100E90000C3D4CE5140731F4882309F44CC1109241
:100EA000650149C10D3D1C4571F4882309F443C116
:100EB00082E0809365013FC198012A5F3C4529305B
:100EC000310508F45ACEF701808191810E94580CB7
:100ED000D82EC82EF7013581232F22952F708281BD
:100EE00081111092230140911701542F5770D9F0AE
:100EF0008823C9F050E25D0D5830A8F0642F6D7F53
:100F000060931701542F557049F450E0062E000CE1
:100F1000770B4617570711F01092170140911701F0
:100F2000477001E009F000E0492F42954F704430CE
:100F300038F4592F507F192F1F70423040F03FC0B6
:100F4000443009F490C0453009F0ECC0A8C05523E6
:100F500011F01295107F8823B9F0112309F46AC0AB
:100F600080E28D0D883010F0C11006C090912401F0
:100F7000192B1093240105C090912301192B109374
:100F800023010E942B0C56C08D2D0E94B302112309
:100F900009F4C8C080E28D0D1095883010F0C110A2
:100FA00006C09091240119231093240105C090914B
:100FB00023011923109323010E942B0CB3C050323C
:100FC00011F01295107F9D2DCC2021F041E0C41628
:100FD000D1F026C0882379F080912501222349F0A1
:100FE000213039F4182B181709F49CC010932501EF
:100FF00099C0812B0EC0222319F0213009F492C030
:101000000E94250C2CC0882339F0263008F08AC0B5
:10101000812F0E946C1986C0253008F083C01FC044
:10102000882361F02223A1F330FF04C03F70F70151
:101030003583EECF8D2D0E941A0374C0222379F0E0
:10104000993349F4FFEF27EE43E0F1502040404050
:10105000E1F700C000008D2D0E94B30263C0812F14
:101060000E9461195FC0292F26952695237019F0DB
:10107000213059F057C0882319F08D2D937002C08C
:1010800080E090E00E9491024DC0882319F08D2DE0
:10109000937002C080E090E00E947B0243C08823EE
:1010A00001F18D2D853F51F0863F71F0843FA9F409
:1010B000809118019091190181600BC080911801F5
:1010C00090911901826005C08091180190911901D9
:1010D000846090931901809318018D2D0E948B0AD2
:1010E0001FC08D2D853F51F0863F71F0843FA9F4DC
:1010F00080911801909119018E7F0BC08091180189
:10110000909119018D7F05C080911801909119016E
:101110008B7F90931901809318018D2D0E94C40933
:101120000E944F0B002339F08091170180FD03C00E
:10113000F7011282B5CB0F900F900F900F900F9088
:10114000DF91CF911F910F91FF90EF90DF90CF90A3
:10115000BF90AF909F908F907F906F9008959091E7
:101160004A0192FF0DC0282F2871283019F4877F7B
:10117000846006C0282F2471243011F48B7F88608E
:1011800093FF0DC0282F2871283119F4877E8461C0
:1011900006C0282F2471243111F48B7E88612091A0
:1011A0004B0120FF0DC0382F3871383019F4877F7C
:1011B000816006C0382F3171313011F48E7F886024
:1011C00021FF0DC0282F2871283119F4877E8161F5
:1011D00006C0282F2171213111F48E7E886194FD83
:1011E000877E089580912D010895CF93DF9300D0DD
:1011F0001F92CDB7DEB720913801243031F523E0BE
:101200002983805891099B838A8382E08093E90037
:101210008FEF9091E800815095FD06C095ED9A956D
:10122000F1F700008111F5CF8091E80085FF0DC036
:1012300040E050E063E070E0CE0101960E94C60EEF
:101240008091E8008E778093E8000F900F900F90C8
:10125000DF91CF9108950F931F93CF93DF9300D029
:101260001F92CDB7DEB78C010E944914823011F075
:10127000843021F584E089831B830A8382E0809394
:10128000E9008FEF9091E800815095FD06C095ED43
:101290009A95F1F700008111F5CF8091E80085FF64
:1012A0000DC040E050E063E070E0CE0101960E9486
:1012B000C60E8091E8008E778093E8000F900F9023
:1012C0000F90DF91CF911F910F910895CF93DF93EE
:1012D000EC010E944914823011F08430F9F482E06C
:1012E0008093E9008FEF9091E800815095FD06C052
:1012F00095ED9A95F1F700008111F5CF8091E80006
:1013000085FF0CC040E050E066E070E0CE010E9436
:10131000C60E8091E8008E778093E800DF91CF9130
:101320000895CF93DF93EC010E944914823011F0AD
:10133000843039F581E08093E9008FEF9091E800E7
:10134000815095FD06C095ED9A95F1F70000811149
:10135000F5CF8091E80085FF14C040E050E068E0E0
:1013600070E0CE010E94C60E8091E8008E778093D7
:10137000E80088E0FE01AEE2B1E001900D928A95AE
:10138000E1F7DF91CF910895803F39F480915A01C0
:1013900087FF6CC010925A0169C0813F29F4809187
:1013A0005A011816BCF362C090915901823F29F48A
:1013B00097FF5CC01092590159C0833F19F4191668
:1013C000CCF354C0893F41F480915B0118160CF0B6
:1013D0004DC010925B014AC08A3F29F480915B01A5
:1013E00087FF44C0F6CF8B3F39F480915C0187FFC3
:1013F0003DC010925C013AC08C3F29F480915C01A1
:101400001816BCF333C0843F21F4809158018E7FBD
:1014100017C0853F21F4809158018D7F11C0863F10
:1014200021F4809158018B7F0BC0873F21F480917C
:101430005801877F05C0883F31F4809158018F7E25
:101440008093580113C08D3F21F480912A018E7F33
:101450000BC08E3F21F480912A018D7F05C08F3F04
:1014600029F480912A018B7F80932A018091590170
:1014700081110EC080915A0181110AC080915B01D7
:10148000811106C080915C01811102C010925D0142
:10149000089580912A0180FD16C081FD16C082FD4D
:1014A00018C080915D01882391F0883290F428E083
:1014B000829FC001112468E270E00E94CB19862F40
:1014C000672B29F007C082E0089584E0089581E049
:1014D000089588E0089580912A0180FD14C081FD5F
:1014E00014C082FD16C080915D01882381F0843193
:1014F00080F422E3829FC001112464E170E00E9425
:10150000CB19862F08958CE0089589E1089585E030
:10151000089582E30895803F21F40E946B0A81952B
:1015200004C0813F29F40E946B0A80935A010895F8
:10153000823F21F40E946B0A819504C0833F29F405
:101540000E946B0A809359010895893F19F40E9403
:10155000490A05C08A3F31F40E94490A8195809367
:101560005B0108958B3F21F40E94490A819504C0D4
:101570008C3F29F40E94490A80935C010895843FBE
:1015800021F480915801816017C0853F21F480913A
:101590005801826011C0863F21F480915801846017
:1015A0000BC0873F21F480915801886005C0883FB7
:1015B00031F48091580180618093580108958D3FE6
:1015C00021F480912A0181600BC08E3F21F480912B
:1015D0002A01826005C08F3F29F480912A0184602E
:1015E00080932A01089578941F920F920FB60F925C
:1015F00011248F939F93AF93BF9380912601909175
:101600002701A0912801B09129010196A11DB11DCA
:101610008093260190932701A0932801B09329017C
:10162000BF91AF919F918F910F900FBE0F901F9020
:101630001895CF92DF92EF92FF920F931F932FB7DF
:10164000F8944091260150912701609128017091F2
:1016500029012FBF6A017B01EE24FF248C0120E0C9
:1016600030E0C016D106E206F30610F441505109ED
:101670009A01281B390BC9011F910F91FF90EF9020
:10168000DF90CF9008952FB7F89480912601909124
:101690002701A0912801B09129012FBF0895E09161
:1016A0004C01F0914D01309749F082E08093570151
:1016B0000480F581E02D87E591E009950E94430BB8
:1016C00090935F0180935E0108951F920F920FB671
:1016D0000F9211248F939F93AF93BF938091260114
:1016E00090912701A0912801B09129014196A11D57
:1016F000B11D8093260190932701A0932801B093F8
:101700002901BF91AF919F918F910F900FBE0F90C4
:101710001F9018959C012A5F3F4FFC0142814613A0
:1017200001C01282019682179307B9F708959C01B0
:10173000FC0132969FEF80E04191461789F09F3F70
:1017400019F4411101C0982F8F5F8630A9F79F3F90
:1017500039F0F901E90FF11D97FDFA9562830895BB
:101760000895CF9384E090E00E948919C82F81E208
:1017700090E00E9489192C2F30E0A901582BCA0152
:10178000CF9108956CEE7EEF80E090E00E94B51955
:1017900060E082E090E00E94971960E083E090E0D2
:1017A0000E94971910924601109247011092480129
:1017B0001092490160E084E090E00E94971960E097
:1017C00081E290E00E94971960E085E090E00E943D
:1017D000971960E086E090E00E9497196FEF87E02C
:1017E00090E00E94971940E050E0BA0188E090E054
:1017F0000E94A91960E08DE090E00E94971940E0F6
:1018000050E0BA0188E190E00E94A91960E087E108
:1018100090E00E94971940E050E0BA018CE190E01E
:101820000E94A91960E080E290E00E94971940E0D0
:1018300050E0BA018FE090E00E94A91940E050E02A
:10184000BA0183E190E00C94A919809125018111DE
:101850001092250108959091240180912301892BF4
:1018600020912201982F922B90931A0180912501AB
:10187000882389F0892B80931A01ECE1F1E097E04D
:1018800080E0915029F021912223D9F38F5FF9CF85
:1018900081110E94250CE0914C01F0914D0130978F
:1018A00031F00280F381E02D8AE191E009940895FE
:1018B000CF93DF93EC010E94941690E0FC01EE0FB1
:1018C000FF1FE80FF91FED0FF11DEE0FFF1FEC0FCB
:1018D000F11DEE0FFF1FE452FF4FC591D491CE01D1
:1018E000C238D10569F1B0F4C133D10509F475C02E
:1018F00048F4C932D10509F469C0CA32D10509F4E6
:1019000073C079C0C533D10509F459C0C933D105B5
:10191000B9F071C0C33ED10571F138F4C03ED105B4
:10192000B1F0C23ED10511F166C0C63ED105B9F194
:10193000C73ED105C9F1C43ED10509F05CC024C041
:1019400020914A0120FD1AC221FD18C21CC220911B
:101950004A0120FD0DC220914B0120FF14C280914D
:101960004A0184FDB7C183EE90E00DC220914A0187
:1019700022FF09C2F4CF80914A0182FDFCC180910F
:101980004B0180FDFBC1EBCF20914B0121FFFBC13F
:1019900080914A0184FD9EC187EE90E0F4C12091C0
:1019A0004A0123FFF0C1F4CF80914A0183FDE9C1D0
:1019B00080914B0181FFECCF84EE90E0E4C1209157
:1019C0004A0125FFE0C189E290E0DDC120914A0192
:1019D00025FFD9C185E390E0D6C120914A0126FFB9
:1019E000D2C18AE290E0CFC120914A0126FFCBC14B
:1019F00081E390E0C8C1C11520E5D20708F049C0D5
:101A0000C11530E4D30708F030C1C83ED10520F538
:101A1000C03ED10508F0B7C1C83AD10570F4C53A47
:101A2000D10508F0ADC0C130D10509F4ACC108F44E
:101A300051C1249708F44EC1A6C1CF3BD10508F48B
:101A4000AAC0C03CD10508F445C1CE01880F991F3A
:101A5000FC01E859F040FEC0C11540E2D40760F433
:101A6000C11521E0D20708F08EC1C03FD10508F4AE
:101A700031C1CE01906587C1C11530E3D30708F0AD
:101A8000ECC0CE019F70FC01EE0FFF1FE851FF4F2D
:101A9000E1C0C11545E5D40708F045C0C11584E58E
:101AA000D80708F0FAC0C11522E5D20718F5C1150C
:101AB00031E5D30708F0DDC0CE0174E09695879537
:101AC0007A95E1F7282F23703C2F337081E090E066
:101AD00002C0880F991F3A95E2F79C68922BEC2F71
:101AE000EF70E695E69530E2E39FF00111248E2B2E
:101AF0009F2B49C1AE01437055272C2F2695269563
:101B0000C115D34508F0BAC081E090E002C0880F4B
:101B1000991F4A95E2F740E2249F90011124822BFD
:101B2000932B9C6830C1C11529E5D20798F4C115E3
:101B300038E5D30708F0B6C0C11546E5D40708F06C
:101B4000C9C08C2F0E94AF088F7190E0982F882712
:101B5000906219C1C1158AE5D80708F4A8C0CE0162
:101B600090568115904208F0B5C08D2F8F710E945C
:101B7000AF08FE01FF27F0628F719F01382BA8C0CC
:101B8000C53AD10509F4A9C0C63AD10509F0A8C0E3
:101B900082E890E4F8C0C83AD10509F4A4C0C93A73
:101BA000D10509F4A3C0CA3AD10509F4A2C0CB3AC1
:101BB000D10509F4A1C0CC3AD10509F4A0C0CB3BB2
:101BC000D10509F49FC0CC3BD10509F49EC0CD3AA4
:101BD000D10509F49DC0C03BD10509F49CC0CE3AA3
:101BE000D10509F49BC0CF3AD10509F49AC0C13B95
:101BF000D10509F499C0C23BD10509F498C0C33B93
:101C0000D10509F497C0C43BD10509F496C0C53B82
:101C1000D10509F495C0C63BD10509F494C0C73B72
:101C2000D10509F493C0C83BD10509F492C0C93B62
:101C3000D10509F491C0CD3BD10509F490C0CE3B4C
:101C4000D10509F48FC0CA3BD10509F48EC080E0EC
:101C500094E499C08591949196C0CE019927D3FFC1
:101C600002C0986C90C0906C8EC0CE019F70906A3C
:101C70008AC09C2F8827816F906A85C081E090E0A0
:101C800002C0880F991F4A95E2F740E2249F900115
:101C90001124822B932B9A6876C09C2F8827846FFF
:101CA000906A71C09C2F8827806F906A6CC08C2FBF
:101CB0008F700E94AF08FE0194E0F695E7959A9523
:101CC000E1F7EF70F0E0FE2FEE27F0699F01282B7F
:101CD000C90159C080E090E056C081E890E453C04B
:101CE00083E890E450C082EE94E44DC089EE94E421
:101CF0004AC08AEE94E447C085EB94E444C086EB86
:101D000094E441C083EB94E43EC084EB94E43BC094
:101D100087EB94E438C08CEC94E435C08DEC94E40B
:101D200032C083E895E42FC08AE895E42CC082E9AC
:101D300095E429C084E995E426C081E296E423C0B5
:101D400083E296E420C084E296E41DC085E296E436
:101D50001AC086E296E417C087E296E414C08FE6C4
:101D600094E411C080E794E40EC08AE296E40BC0CC
:101D700089E390E008C082EE90E005C080EE90E03C
:101D800002C086EE90E0DF91CF910895EF92FF922E
:101D90000F931F93CF93DF937C018B010E946413F9
:101DA000811119C0E70101151105A1F08091E8002A
:101DB00085FD0AC08091E8008E778093E8000E943C
:101DC0006413882381F307C089918093F100015047
:101DD0001109E9CF80E0DF91CF911F910F91FF9022
:101DE000EF9008951F93CF93DF93CDB7DEB7AA97F7
:101DF0000FB6F894DEBF0FBECDBFEAE3F1E08091ED
:101E0000F100819321E0E234F207C9F780913B01B0
:101E1000833009F460C030F4813071F0823009F40D
:101E20009AC0B1C08A3009F486C08B3009F46BC007
:101E3000893009F0A8C020C080913A01813A09F0A8
:101E4000A2C08091E800877F8093E80080913E01E6
:101E500090913F01892B21F468E08EE291E003C06C
:101E600060E080E090E070E00E94EB138091E80079
:101E70008B778093E80087C080913A01813209F026
:101E800082C080913E0190913F01029708F07BC093
:101E90008091E800877F8093E8008091E80082FDD0
:101EA00005C0809138018111F8CF6DC02091F300F9
:101EB0008091F20090E0922B029729F48091F1003A
:101EC0008B7F813021F48091F10080932D018091EE
:101ED000E8008B7754C080913A01813A09F053C0F1
:101EE00080913E0190913F01892B09F04CC0809177
:101EF000E800877F8093E8008091E80080FFFCCFB6
:101F00008091000137C080913A018132E1F58091E2
:101F10003E0190913F01892BB1F58091E800877FC8
:101F20008093E8000E94971380913C018093000108
:101F30000E94411928C080913A01813221F5809197
:101F4000E800877F8093E8000E94971380913D010D
:101F500080932C0118C080913A01813AA1F48091BC
:101F6000E800877F8093E8008091E80080FFFCCF45
:101F700080912C018093F1008091E8008E7780930E
:101F8000E8000E9497138091E80083FFD8C18091F8
:101F90003A0190913B01492F50E04A30510508F039
:101FA000CEC1FA01EA5AFF4F0C94DF19803821F0B4
:101FB000823809F0C4C108C0809136019091370180
:101FC000992389F082600FC080913E018F70873025
:101FD00008F0B5C18093E9008091EB0085FB88276C
:101FE00080F91092E9009091E800977F9093E800C3
:101FF0008093F1001092F10071C1282F2D7F09F01C
:102000009EC1882319F0823061F099C180913C0112
:10201000813009F094C1933009F080E0809337015A
:102020002EC080913C0181112AC080913E018F70A9
:102030002FEF280F263008F082C18093E90020910D
:10204000EB0020FF1CC0933021F48091EB008062F4
:1020500014C09091EB0090619093EB0021E030E090
:10206000A90102C0440F551F8A95E2F74093EA0088
:102070001092EA008091EB0088608093EB00109250
:10208000E9008091E800877F2CC1811158C110912F
:102090003C011F778091E3008078812B8093E300DF
:1020A0008091E800877F8093E8000E9497138091D9
:1020B000E80080FFFCCF8091E30080688093E3001C
:1020C000111102C082E001C083E08093380137C162
:1020D0008058823008F033C180913C0190913D01DD
:1020E0008C3D53E0950779F583E08A838AE2898302
:1020F0004FB7F894DE01139620E03EE051E2E32F63
:10210000F0E050935700E49120FF03C0E295EF7098
:102110003F5FEF708E2F90E0EA3010F0C79601C05D
:10212000C0968D939D932F5F243149F74FBF8091C7
:10213000E800877F8093E8006AE270E0CE010196B4
:102140000E94EB13BAC040913E0150913F01292FEC
:10215000332723303105B1F068F42130310509F41B
:10216000FDC02230310509F0EAC08BE390E0EDEAD2
:10217000F1E050C02132310581F12232310509F4FC
:1021800039C0DDC0992781309105B9F070F08230F7
:102190009105D9F0039709F0D2C0EAEFF1E0E4919C
:1021A0008E2F90E0EAEFF1E032C0E4E3F2E0E49158
:1021B0008E2F90E0E4E3F2E02AC0E0E1F2E0E49167
:1021C0008E2F90E0E0E1F2E022C0E0E0F2E0E49166
:1021D0008E2F90E0E0E0F2E01AC04115510509F4BD
:1021E000C2C04130510509F0AAC089E090E0E8ED95
:1021F000F1E010C04115510509F4BAC04130510554
:1022000009F09DC085E890E0E8EEF0E003C000979B
:1022100009F495C02091E800277F2093E8002091E1
:102220004001309141018217930708F49C0140E07E
:102230002115310589F180913801882309F43DC0C9
:102240008530D9F18091E80083FD37C08091E800A6
:1022500082FD2FC08091E80080FFEACF4091F3001B
:102260008091F20090E0942B2115310559F08830CF
:10227000910540F444914093F10031962150310989
:102280000196F2CF41E0089709F040E08091E80024
:102290008E778093E800CCCF4111CDCF0AC08091DA
:1022A0003801882351F0853041F08091E80083FDAA
:1022B00004C08091E80082FFF2CF8091E8008B7724
:1022C0008093E8003CC08038D1F58091E800877F9A
:1022D0008093E800809139018093F1008091E800BB
:1022E0008E778093E8000E94971329C0811127C040
:1022F00080913C0190913D019927029704F58091CE
:10230000E800877F8093E80010913C011093390129
:102310000E949713111106C08091E30087FD02C04F
:1023200081E001C084E08093380142E061EC81E00B
:102330000E94B61342E261EC82E00E94B6138091E3
:10234000E80083FF1AC08091E800877F8093E8004F
:102350008091EB0080628093EB000FC082E190E0FF
:10236000E8EEF1E057CF89E090E0EFEBF1E052CFFB
:1023700080E490E0EDE6F1E04DCFAA960FB6F89438
:10238000DEBF0FBECDBFDF91CF911F9108951F9289
:102390000F920FB60F9211242F933F934F935F9399
:1023A0006F937F938F939F93AF93BF93CF93DF935D
:1023B000EF93FF93C091E900CF708091EC00D82F8C
:1023C000D17080FDD0E81092E9008091F000877F05
:1023D0008093F00078940E94F20E1092E9008091B0
:1023E000F00088608093F000CD2BCF70C093E9009F
:1023F000FF91EF91DF91CF91BF91AF919F918F911D
:102400007F916F915F914F913F912F910F900FBEF0
:102410000F901F901895E8EDF0E080818E7F80830B
:102420001092E2001092DA001092E100A0EEB0E00B
:102430008C9181608C9380818F77808319BCA7ED0C
:10244000B0E08C918E7F8C9380818F7E8083109200
:102450002B010895CF92DF92EF92FF920F931F937B
:10246000CF93DF93C8EDD0E088818F7E8883E7ED3E
:10247000F0E080818160808384E082BF81E080938E
:102480002B0188818E7F888302EE10E0F801108294
:102490001092DA0081EEC82ED12CF60110828881CC
:1024A0008F77888388818068888388818F7D8883FF
:1024B00019BC109238011092390110923701109214
:1024C000360190EEE92EF12CF70180818B7F80831D
:1024D00088818160888342E060E080E00E94B613DA
:1024E000F60180818E7F8083F80180818160808306
:1024F000808188608083F70180818E7F80838881DE
:1025000080618883DF91CF911F910F91FF90EF90B1
:10251000DF90CF9008951F920F920FB60F92112463
:102520002F933F934F935F936F937F938F939F93DB
:10253000AF93BF93EF93FF938091E10082FF09C0B7
:102540008091E20082FF05C08091E1008B7F809343
:10255000E1008091DA0080FF2AC08091D80080FFDE
:1025600026C08091DA008E7F8093DA008091D900B6
:1025700080FF18C080E189BD82E189BD09B400FEF9
:10258000FDCF81E08093380180912B0181110FC034
:102590000E940B120E942A128091E20084608093B4
:1025A000E20005C019BC1092380110922B018091F5
:1025B000E10080FF17C08091E20080FF13C080918E
:1025C000E2008E7F8093E2008091E2008061809340
:1025D000E2008091D80080628093D80019BC85E029
:1025E000809338018091E10084FF32C08091E20045
:1025F00084FF2EC080E189BD82E189BD09B400FE5F
:10260000FDCF8091D8008F7D8093D8008091E1002C
:102610008F7E8093E1008091E2008F7E8093E200C4
:102620008091E20081608093E200809139018823EB
:1026300011F084E007C08091E30087FD02C081E0D3
:1026400001C083E0809338010E9441190E94A702D3
:102650008091E10083FF27C08091E20083FF23C0C7
:102660008091E100877F8093E10082E080933801D0
:10267000109239018091E1008E7F8093E10080917A
:10268000E2008E7F8093E2008091E200806180937F
:10269000E20042E060E080E00E94B6138091F0002A
:1026A00088608093F000FF91EF91BF91AF919F916F
:1026B0008F917F916F915F914F913F912F910F90EB
:1026C0000FBE0F901F9018952091E4003091E50007
:1026D00095E64091EC00842F817040FF23C08091EB
:1026E000E80080FD1DC080913801882399F0853075
:1026F00099F08091EB0085FD11C04091E40050916C
:10270000E5002417350729F3915011F09A01E1CF24
:1027100084E0089582E0089583E0089581E00895BB
:1027200080E008954091E80042FFDDCF0895809158
:102730003A0187FF11C08091E80082FD05C08091B9
:1027400038018111F8CF11C08091E8008B770BC060
:1027500080913801882349F08091E80080FFF8CF0C
:102760008091E8008E778093E8000895982F973045
:1027700068F59093E900981739F07091EC0020917A
:10278000ED005091F00003C0242F762F50E021FD82
:1027900002C09F5FECCF3091EB003E7F3093EB00A7
:1027A0003091ED003D7F3093ED003091EB003160D2
:1027B0003093EB007093EC002093ED005093F00009
:1027C0002091EE0027FDE5CF80E008958F70809383
:1027D000E90081E0089520914001309141012617E0
:1027E000370748F06115710539F42091E8002E771C
:1027F0002093E80001C0B901FC0120E061157105DA
:1028000079F1809138018823F1F18530F1F18091DF
:10281000E80083FD3CC08091E80082FD2EC08091DD
:10282000E80080FFEBCF2091F3008091F20090E070
:10283000922B6115710551F08830910538F4219182
:102840002093F100615071090196F3CF21E00897C0
:1028500009F020E08091E8008E778093E800CECFE9
:102860002111CFCF0AC080913801882361F08530D3
:1028700061F08091E80083FD0AC08091E80082FF4A
:10288000F2CF80E0089582E0089583E0089581E02A
:10289000089580916501811107C0809138018430CD
:1028A00011F081E0089582E00895CF93DF93CDB7D2
:1028B000DEB72A970FB6F894DEBF0FBECDBF84B740
:1028C000877F84BF0FB6F894A895809160008861D7
:1028D00080936000109260000FBE80E880936100DA
:1028E0001092610085B7806885BF85B7806885BF15
:1028F0000E940B120E942A128091E2008460809351
:10290000E2007894809138018823A1F01091E900C9
:102910001F709091EC00892F817090FD80E8182B3A
:102920001092E9008091E80083FD0E94F20E1F7072
:102930001093E90082E084BD93E095BD9AEF97BDC6
:1029400080936E00ABE0B1E041E050E08D91E82F64
:10295000E295EF70F0E021A18F70BA0102C0660F1E
:10296000771F8A95E2F7CB01962F9095922391A33A
:1029700092A1892B82A371E0AE30B70739F7519845
:10298000599A6E98769A10925101109254011092B1
:10299000520110925501109253011092560180E09D
:1029A00090E00E9491198C3E9E4F11F00E94C20B44
:1029B0008CE090E00E94891990E0A0E0B0E0809364
:1029C000420190934301A0934401B093450180E0FC
:1029D00090E00E9491198C3E9E4F11F00E94C20B14
:1029E00082E090E00E948919809361010E94B10BFE
:1029F00090934B0180934A0183E090E00E948919F3
:102A000090E0A0E0B0E08093460190934701A0934E
:102A10004801B09349010E94261981E091E090930A
:102A20004D0180934C01CC24C394D12C99249394D0
:102A300088248A94A1E5B1E04BE051E000E0BD01BB
:102A4000BC901C92FA018191AF01E82FE295EF70E2
:102A5000F0E021A18F70760102C0EE0CFF1C8A9578
:102A6000E2F7C7012E2921A322A1AE2CA0942A218E
:102A700022A310EA1A95F1F729B121FBEE24E0F820
:102A8000F12C970111E0212721703C91232B2C93ED
:102A9000669902C032E001C030E0322B3D9391A133
:102AA0001A2D192311A392A1892B82A381E0FB0186
:102AB00090819B1101C080E0082BF1E0A435BF0795
:102AC00009F0BDCF002341F0909250010E94430BCA
:102AD00090934F0180934E01809150018823B1F073
:102AE00080914E0190914F010E94190B049770F054
:102AF000809151018093540180915201809355013E
:102B0000809153018093560110925001A4E5B1E0E9
:102B1000E2E6F1E000E010E0302F8D9191919827EE
:102B200061F190FD05C091FF28C091E021E002C055
:102B300090E020E029833A83560102C0AA0CBB1C16
:102B40009A95E2F790E08A219B2121E0892B09F4F4
:102B500020E02B830E94430B8160782F9D838C8320
:102B600049815A816B818D810E94DF01F801EE5904
:102B7000FE4F8081A826A08214C00F5F1F4F033034
:102B8000110551F68E828F8218860E94430B816058
:102B9000782F9A8789874E815F8168858A850E9410
:102BA000DF0180915E0190915F010E94190BAC01E1
:102BB00090915D01911103C02CE231E002C022E34B
:102BC00030E04217530708F476C080915901109104
:102BD0005A0181110BC011117AC020915B012111A2
:102BE00076C020915C01211172C065C09F3F19F031
:102BF0009F5F90935D01181624F40E946B0A8093E6
:102C000059018091590187FF05C00E946B0A819587
:102C100080935901111624F40E946B0A80935A0183
:102C200080915A0187FF05C00E946B0A81958093AD
:102C30005A01309159013323D1F020915A012223B6
:102C4000B1F015EB3103C0011124992319F09093D1
:102C5000590102C09092590135EB2303C0011124A0
:102C6000992319F090935A0102C090925A018091D1
:102C70005B01181624F40E94490A80935B0180913D
:102C80005B0187FF05C00E94490A819580935B0123
:102C900080915C01181624F40E94490A80935C011B
:102CA00080915C0187FF05C00E94490A819580934D
:102CB0005C010E944F0B0E94A7029091600189174E
:102CC00009F4B8CE0E94A70280936001B3CE9F3F63
:102CD00009F08ECF9FCF0E94580C292F2F70E92F1B
:102CE000E295EF704E2F50E0FA013297EE30F10589
:102CF000B8F4E05AFF4F0C94DF19803F99F018F4B4
:102D0000883E70F40FC0843F59F40CC0883E50F0E8
:102D1000813F31F407C0822F869586958695089568
:102D200080E0089581E008950F931F93409146013C
:102D3000509147016091480170914901CB01AA2748
:102D4000BB270097A105B10521F0AC01BD0180E1D1
:102D500001C080E0052F162F272F332701151105FD
:102D60002105310519F0885FB901A8018A019B018D
:102D7000F4E03695279517950795FA95D1F7011543
:102D800011052105310519F08C5FB901A8018A01EF
:102D90009B01E2E03695279517950795EA95D1F7BF
:102DA000011511052105310519F08E5FB901A80142
:102DB0007695679557954795452B462B472B09F0F8
:102DC0008F5F1F910F91089580919D0190916C01EB
:102DD000891719F08F5F8770FBCF0895CF9380918B
:102DE0006B0182958F7009F05FC080916801882324
:102DF00009F45AC080919D01B0916C0170916601F7
:102E0000A09167014091690150916A0191E07F3F73
:102E100009F090E0692FC6E08B1709F445C0411511
:102E2000510521F0AF3F21F020E003C021E001C0B7
:102E3000262F90E020FD35C0C89FF001C99FF00DFE
:102E40001124E359FE4F21812A132BC0208127131F
:102E500028C02281211125C0238134812417350700
:102E600010F421503109241B350B283C3105C8F4DE
:102E700020916B012F70206120936B0126E0289F29
:102E8000F001299FF00D1124EE58FE4F80818F70C4
:102E90008061808386E691E00E943404CF910C9497
:102EA000E41601968770B8CFCF910895AF92BF9284
:102EB000CF92DF92EF92FF920F931F93CF93DF9306
:102EC000CDB7DEB761970FB6F894DEBF0FBECDBFAA
:102ED0008C0185E0F801DE011D9601900D928A9526
:102EE000E1F7D8013C9111962C9111971296EC9034
:102EF00050916601609167018091690190916A012A
:102F0000009731F06F3F31F441E05F3F19F403C0A7
:102F100041E001C040E0B42FB170BB2E40FD43C181
:102F2000F801C380D480A0906801AA2009F4E2C00F
:102F300040916B01C816D90628F0D601A81BB90B21
:102F4000CD0104C0809590958C0D9D1DFF24F394B8
:102F5000883C910548F0F12C407F09F090C086E64E
:102F600091E00E94340417C1842F807F09F052C081
:102F7000621312C0531310C0FE2CE1100DC04F702D
:102F8000406140936B0186E691E00E943404809199
:102F90006B01F801858348C1CD2831F02F3F31F412
:102FA00081E03F3F19F403C081E001C080E080FD73
:102FB00003C081E08E2502C080E090E0F82FF17020
:102FC000FF2E80FF1CC080919D0140916C0156E056
:102FD000841709F406C190E0589FF001599FF00D45
:102FE0001124E359FE4F6181261306C06081361318
:102FF00003C06281E61203C001968770E9CFFE2C00
:10300000EE2009F411C180916B01816080936B0106
:10301000F12C0AC1621308C0531306C0E11004C0AA
:1030200080916B01F80199C03D872E878D859E8523
:103030000E946B16882369F1EE2059F120916B01F3
:10304000822F82958F7090E0029774F080916601D4
:103050009091670198878F831986DB86CA862C87B3
:10306000CE0107960E94340486E0F801A6E6B1E09E
:1030700001900D928A95E1F70E94EE160DC062173D
:1030800071F03D872E878D859E850E946B1681117C
:103090001AC0C8010E943404FF24F394C5C053131E
:1030A000F0CFE110EECF80916B01F8018583C8016C
:1030B0000E94340486E0E6E6F1E0DF011D928A9585
:1030C000E9F7FA2CB1C0EE2021F320916B01822F99
:1030D00082958F7090E002973CF28091660190910A
:1030E00067019A8389831B82DD82CC822E83CE0185
:1030F0000196B8CFC816D90638F0C81AD90AB8EC64
:10310000CB16D10450F007C0809590958C0D9D1D75
:10311000883C910510F0F12C3EC0FE2CEE2009F405
:10312000B8CF621327C0531325C020916B0120FD37
:1031300018C0822F82958F70482F50E0411551059D
:1031400081F0F80125834F30510541F08F5F982FB2
:103150009295907F822F8F70892B8583C8010E9462
:10316000340486E0F801A6E6B1E001900D928A955C
:10317000E1F75AC03D872E878D859E850E946B168C
:10318000811172CF80916B01816080936B01C801C6
:103190000E94340449C0E6E6F1E086E0DF011D92BA
:1031A0008A95E9F741C0EE2009F473CF3D872E8759
:1031B0008D859E850E946B16F82E882309F469CFB1
:1031C00086E0F801A6E6B1E001900D928A95E1F75C
:1031D00080916601909167010E94580C0E94EE1642
:1031E00023C03D872E878D859E850E94580C292FF0
:1031F00022952F70223028F49F7039F0811105C07C
:103200000BC0243028F49F7049F4805E883020F091
:10321000C8010E943404BF2CFB2C06C0D8011596AF
:103220009C91907F91F7F8CF8F2D61960FB6F8940F
:10323000DEBF0FBECDBFDF91CF911F910F91FF90E9
:10324000EF90DF90CF90BF90AF9008951092230140
:10325000109222010E942B0CE7E5F1E086E0DF01ED
:103260001D928A95E9F710925D0110922A010E9441
:103270004F0B80E090E00E94910280E090E00C947F
:103280007B021092240186E0ECE1F1E0DF011D9267
:103290008A95E9F70C942619882341F0809590913E
:1032A00023018923809323010C942B0C08958823F8
:1032B00039F090912301892B809323010C942B0CDE
:1032C0000895882341F0809590912401892380936B
:1032D00024010C942B0C0895882339F0909124013B
:1032E000892B809324010C942B0C0895CF93C82F25
:1032F0000E941A03C93349F42FEF87EE93E021505F
:1033000080409040E1F700C000008C2FCF910C94DA
:10331000B302F999FECF92BD81BDF89A992780B585
:103320000895A8E1B0E042E050E00C94BD19262FCA
:10333000F999FECF92BD81BDF89A019700B40216AB
:1033400039F01FBA20BD0FB6F894FA9AF99A0FBE59
:1033500008950396272F0E9498190E949719252FE8
:103360000E949819242F0C9498190196272F0E94D7
:1033700098190C949719DC01CB01FC01F999FECF47
:1033800006C0F2BDE1BDF89A319600B40D924150ED
:103390005040B8F7089597FB072E16F4009407D015
:1033A00077FD09D00E94E51907FC05D03EF4909501
:1033B00081959F4F0895709561957F4F0895EE0F09
:1033C000FF1F0590F491E02D0994AA1BBB1B51E14E
:1033D00007C0AA1FBB1FA617B70710F0A61BB70B85
:1033E000881F991F5A95A9F780959095BC01CD012A
:0633F0000895F894FFCFE0
:0E33F60001F20891096609F5082B09F736F473
:00000001FF
