:100000000C94F5000C943C010C943C010C943C01C4
:100010000C943C010C943C010C943C010C943C016C
:100020000C943C010C943C010C9421120C945D1135
:100030000C947F080C943C010C943C010C943C0102
:100040000C943C010C943C010C943C010C943C013C
:100050000C943C010C94F9150C943C010C943C015B
:100060000C943C010C943C010C943C010C943C011C
:100070000C943C010C943C010C943C010C943C010C
:100080000C943C010C943C010C943C010C943C01FC
:100090000C943C010C943C010C943C010C943C01EC
:1000A0000C943C010C943C010C943C019101910195
:1000B000A401A4019A01A401A401A4019101910148
:1000C0009F01A401A4019F016C0F930F3511930FA1
:1000D0003511DB0FFE0F3511F9100C11AA00A90024
:1000E000AC00AB0029003D0405010980A101850396
:1000F0001A81002A8300160100260300950175105D
:100100008100C0050C0901A10185041A01002A9C87
:1001100002160100269C02950175108100C00501A0
:100120000906A101050719E029E715002501950831
:10013000750181029501750881010507190029FFE4
:10014000150026FF0095067508810005081901298C
:1001500005950575019102950175039101C009028C
:100160003B00020100A0FA090400000103010100A4
:100170000921110100012240000705810308000A3E
:1001800009040100010300000009211101000122FE
:1001900036000705820320000A120110010000004A
:1001A00008EDFE000001000102030104033000001D
:1001B000000E037000640078006B006200630000B2
:1001C0000022034600720061006E006B006C006943
:1001D000006E002000480061007200640069006E3B
:1001E0000067000000040309040011241FBECFEFC4
:1001F000DAE0DEBFCDBF04B603FE27C080918C01DC
:1002000090918D01A0918E01B0918F018730904B1C
:10021000A740B04BD1F410928C0110928D01109236
:100220008E0110928F0114BE84B7877F84BF0FB6F2
:10023000F894A89580916000886180936000109286
:1002400060000FBEE0E0F8E3099511E0A0E0B1E046
:10025000E6E2FDE202C005900D92AE30B107D9F79B
:1002600021E0AEE0B1E001C01D92AC38B207E1F789
:100270000E9490140C9491160C940000209115018A
:10028000309116012817390771F090931601809369
:100290001501E0918101F0918201309721F00084F5
:1002A000F185E02D099408952091130130911401F6
:1002B0002817390771F09093140180931301E0918E
:1002C0008101F0918201309721F00680F781E02DC5
:1002D00009940895882341F0809590915C018923C9
:1002E00080935C010C9443090895882339F0909120
:1002F0005C01892B80935C010C94430908950E9452
:10030000AA09292F2F70E92FE295EF704E2F50E0A8
:10031000FA013297EE30F105B8F4EA5AFF4F0C9427
:100320008B16803F99F018F4883E70F40FC0843F1C
:1003300059F40CC0883E50F0813F31F407C0822F41
:10034000869586958695089580E0089581E00895C4
:1003500010925A01109259010E94430980E090E0E6
:100360000E94540180E090E00C943E0186E0EBE1B5
:10037000F1E0DF011D928A95E9F70C94A8011F9323
:10038000CF93DF93CDB7DEB767970FB6F894DEBF94
:100390000FBECDBF4B8B5C8B6D8B7E8B8F8B86E0C6
:1003A0009E01235F3F4FD901E82F1D92EA95E9F79F
:1003B00095E0FE017396D90101900D929A95E1F7AF
:1003C000F901DE01179601900D928A95E1F7CE01B1
:1003D00007960E948A0C81113EC086E0FE01379686
:1003E000DE01119601900D928A95E1F7FF81E88573
:1003F0006A857B856115710531F0EF3F31F481E04D
:10040000FF3F19F403C081E001C080E080FD23C0FC
:100410002091270130E0C90101968770992740910A
:10042000580150E08417950779F1F983EA837D83B9
:100430006C8396E0929FD001939FB00D1124A85D2C
:10044000BE4FFE01319601900D929A95E1F780938F
:1004500027010E94180C16E0809158019091270105
:10046000891709F1189FC0011124885D9E4F0E94D1
:100470008A0C8823C1F08091580190E00196877022
:10048000992780935801E8CF10925C010E94B60131
:100490001092270110925801E1E2F1E086E0DF01BD
:1004A0001D928A95E9F767960FB6F894DEBF0FBEE6
:1004B000CDBFDF91CF911F910895E0918101F0911F
:1004C0008201309721F00190F081E02D099480E0C5
:1004D0000895882309F458C0682F823869F40E946F
:1004E0005D0281FF51C069E389E191E00E94B50896
:1004F0000E94430969E30EC0833891F40E945D02B3
:1005000080FF42C063E589E191E00E94B5080E9446
:10051000430963E589E191E00E94A8080C9443092E
:10052000843869F40E945D0282FF2EC067E489E18D
:1005300091E00E94B5080E94430967E4EBCF8CEF7D
:10054000860F813A38F380E2860F883070F4677046
:1005500081E090E001C0880F6A95EAF7809590915C
:100560005C01892380935C01D9CF8BE5860F8330B2
:1005700020F480E090E00C945401685A673120F434
:1005800080E090E00C943E010895882309F40DC1A9
:10059000682F8238B1F40E945D0281FD06C169E3D3
:1005A00089E191E00E94B5080E9443092FEF81EE96
:1005B00094E0215080409040E1F700C0000069E3E2
:1005C00017C08338D9F40E945D0280FDEEC063E558
:1005D00089E191E00E94B5080E9443092FEF81EE66
:1005E00094E0215080409040E1F700C0000063E5B6
:1005F00089E191E00E94A8080C9443098438B1F481
:100600000E945D0282FDD1C067E489E191E00E9411
:10061000B5080E9443092FEF81EE94E021508040FD
:100620009040E1F700C0000067E4E2CF8CEF860F56
:10063000813A28F489E191E00E94B508DDCF80E29B
:10064000860F883068F4677081E090E001C0880F01
:100650006A95EAF790915C01892B80935C01CCCF7D
:100660008BE5860F833070F4653A29F0663A31F0F5
:1006700083E890E005C081E890E002C082E890E065
:100680000C94540188E5860F873108F08EC0683AD3
:1006900009F445C0693A09F445C06A3A09F445C00D
:1006A0006B3A09F445C06C3A09F445C06B3B09F458
:1006B00045C06C3B09F445C06D3A09F445C0603B48
:1006C00009F445C06E3A09F445C06F3A09F445C0D3
:1006D000613B09F445C0623B09F445C0633B09F442
:1006E00045C0643B09F445C0653B09F445C0663B21
:1006F00009F445C0673B09F445C0683B09F445C0AF
:10070000693B09F445C06D3B09F445C06E3B09F4F3
:1007100045C06A3B09F445C080E090E044C082EEE9
:1007200090E041C089EE90E03EC08AEE90E03BC090
:1007300085EB90E038C086EB90E035C083EB90E02D
:1007400032C084EB90E02FC087EB90E02CC08CECA3
:1007500090E029C08DEC90E026C083E891E023C0B2
:100760008AE891E020C082E991E01DC084E991E02F
:100770001AC081E292E017C083E292E014C084E2E2
:1007800092E011C085E292E00EC086E292E00BC0DA
:1007900087E292E008C08FE690E005C080E790E035
:1007A00002C08AE292E00C943E0108950F931F93D9
:1007B000CF93DF93C62FD42F122FFC018281882381
:1007C000C9F0609317010E947308909312018093FF
:1007D000110180E28C0F883008F05EC0C77081E0A4
:1007E00001C0880FCA95EAF7DF91CF911F910F9151
:1007F0000C9475018091170168133EC0809111011E
:10080000909112010E941F16883C9105A8F500E204
:100810000D0FCD17B9F080E28C0F883040F4C7700F
:1008200081E001C0880FCA95EAF70E946A0108308A
:1008300048F481E09D2F977001C0880F9A95EAF7E0
:100840000E947501812F0E94C502193349F4FFEF00
:1008500027EE83E0F15020408040E1F700C0000027
:10086000812F0E9469020830B8F4D77081E001C07E
:10087000880FDA95EAF70AC080E28C0F883060F4BE
:10088000C77081E001C0880FCA95EAF7DF91CF9168
:100890001F910F910C946A01DF91CF911F910F91DD
:1008A0000895DF92EF92FF920F931F93CF93DF9300
:1008B00000D000D01F92CDB7DEB7FC0110810181BE
:1008C00083819481892B31F00F3F31F491E01F3FF8
:1008D00019F403C091E001C090E090FD30C37F01A6
:1008E00085E0DE01119601900D928A95E1F78981EC
:1008F0009A810E945A0990E0FC01EE0FFF1FE80F59
:10090000F91FE00FF11DEE0FFF1FE10FF11DEE0FBC
:10091000FF1FE452FF4F05911491033F2CE512078E
:1009200081F180F4083D8CE51807C9F0093D9CE58C
:10093000190799F1073DECE51E0791F526E241EE16
:1009400061EE10C0053FFCE51F0719F1F0F0063F0E
:100950005CE5150729F527E245EE66EE03C027E2C0
:1009600045EE65EEC7010F900F900F900F900F901E
:10097000DF91CF911F910F91FF90EF90DF900C943A
:10098000D60326E241EE60EEEDCF27E245EE64EEBF
:10099000E9CF26E241EE62EEE5CF28E241E0E1CF89
:1009A000F7018281882309F45DC010921701063196
:1009B000FCE51F0709F4B1C208F03CC001305CE55A
:1009C000150709F459C108F075C101151C4509F056
:1009D00055C010925C010E94B6018FEF94E3ECE0E9
:1009E00081509040E040E1F700C0000081E080933A
:1009F000E00080E28093D8001092C9008FE19EE46D
:100A00000197F1F700C0000087E090EBDC018093D4
:100A10008C0190938D01A0938E01B0938F019CE087
:100A200088E10FB6F894A895809360000FBE90936C
:100A3000600017C00E3DECE51E0709F426C150F416
:100A40000C3D2CE5120709F42EC10D3D1C4509F49F
:100A50002DC114C0C8018A5F9C45099708F42AC1BA
:100A60000DC0FFCF0631FCE51F0709F44AC208F0AC
:100A7000FCC01C550230110508F461C2F7018081E9
:100A800091810E94AA09082FD82EF7013581432FA2
:100A900042954F702281211110925A01892F82951F
:100AA0008F70843038F4592F507F192F1F70823087
:100AB00028F046C0843009F4A6C041C2552311F085
:100AC0001295107F2223B9F0112309F455C080E25A
:100AD000800F883010F0D11006C080915C01182B77
:100AE00010935C0105C080915A01182B10935A0194
:100AF0000E94430941C0802F0E946902112309F41A
:100B00001EC2005E1095083010F0D11006C0809112
:100B10005C01182310935C0105C080915A011823D1
:100B200010935A010F900F900F900F900F90DF913C
:100B3000CF911F910F91FF90EF90DF900C9443099C
:100B4000812F503211F08295807FF1E0DF120AC0D0
:100B5000222321F0463008F0F2C11DC0453008F0D4
:100B6000EEC143C0222329F14423A9F030FF04C081
:100B70003F70F70135830FC0802F0F900F900F90BB
:100B80000F900F90DF91CF911F910F91FF90EF90F9
:100B9000DF900C94C5020F900F900F900F900F9064
:100BA000DF91CF911F910F91FF90EF90DF900C9408
:100BB00075014423D1F0093349F4FFEF27EE53E0E8
:100BC000F15020405040E1F700C00000802F0F900E
:100BD0000F900F900F900F90DF91CF911F910F9179
:100BE000FF90EF90DF900C9469020F900F900F90A0
:100BF0000F900F90DF91CF911F910F91FF90EF9089
:100C0000DF900C946A01892F86958695837019F080
:100C10008130B1F094C1222319F0802F937002C06B
:100C200080E090E00F900F900F900F900F90DF9169
:100C3000CF911F910F91FF90EF90DF900C94540192
:100C4000222319F0802F937002C080E090E00F9073
:100C50000F900F900F900F90DF91CF911F910F91F8
:100C6000FF90EF90DF900C943E010C5D1C4503302B
:100C7000110508F464C102CF80918801982F9095E6
:100C800090FB80F9809388015AC10F900F900F90CC
:100C90000F900F90DF91CF911F910F91FF90EF90E8
:100CA000DF900C94E0081092770149C182E08093B4
:100CB000770145C180E090E00E9451168C3E9E4F26
:100CC00011F00E94E0080E94CF0890938001809369
:100CD0007F0100319CE5190709F4BFC008F03FC04F
:100CE0000830FCE51F0709F496C0F0F404305CE519
:100CF000150709F483C068F402309CE5190709F46C
:100D000073C003301C4509F0DFC080917F01826011
:100D100072C00630FCE51F0709F46AC008F077C00E
:100D200080917F01886067C00C305CE5150709F48D
:100D300081C058F40A309CE5190709F470C008F026
:100D400075C080917F01806856C00E30FCE51F079A
:100D500009F474C008F07DC080917F0189C00B3F09
:100D60005CE5150709F44DC008F503319CE519074A
:100D700009F47BC068F40131FCE51F0709F471C078
:100D800002311C4509F0A0C080917F018F7733C0EC
:100D900005315CE5150709F472C008F486C00A3F06
:100DA0001C4509F091C0809180013EC00F3FECE5E9
:100DB0001E0709F45FC058F40D3F2CE5120709F433
:100DC00044C008F43FC08091800182602DC0013092
:100DD0008DE5180709F473C008F45DC002301D45A5
:100DE00009F072C060E06CC080917F01816003C037
:100DF00080917F01806180937F0166C080917F0137
:100E000011C0809180018260809380015DC08091DB
:100E10007F018062F0CF80917F018064ECCF809170
:100E20007F0188608460E7CF8160EECF80917F0191
:100E30008E7FE1CF80917F018D7FDDCF80917F011B
:100E4000877FD9CF8091800118C0809180018D7FEC
:100E5000DBCF80917F018F7ECECF80917F018F7D10
:100E6000CACF80917F018F7BC6CF80917F01877F22
:100E70008B7FC1CF809180018D7F8E7FC5CF809188
:100E80007F0182FB222720F991E0922790FB82F9D3
:100E900090FB83F9B0CF80918001982F909591704D
:100EA0008E7F892B90FB81F9AFCF80917F0187FBEB
:100EB000222720F991E0922790FB87F99CCF61E0EF
:100EC0008EE090E00E94571660917F0110918001A2
:100ED00084E090E00E945716612F81E290E00E942A
:100EE000571610925C010F900F900F900F900F907B
:100EF000DF91CF911F910F91FF90EF90DF900C94B5
:100F0000B60180911801811106C069E289E191E082
:100F10000E94A80807CE65E3F9CF80915C018A7A28
:100F200091E009F490E090931801811106C069E204
:100F300089E191E00E94B508F5CD65E3F9CF0F9006
:100F40000F900F900F900F90DF91CF911F910F9105
:100F5000FF90EF90DF900895BF92CF92DF92EF92D3
:100F6000FF920F931F93CF93DF934BE051E0A8E7DD
:100F7000B1E0C0E001E010E07D01BC901C92FA01FC
:100F80008191AF01E82FE295EF70F0E021A18F7021
:100F9000B80102C0660F771F8A95E2F7CB01262BB6
:100FA00021A332A1262F2095322332A370EA7A950D
:100FB000F1F739B131FB662760F970E06B0131E080
:100FC000C3263C2D3170DC90D32FDD29DC9366994C
:100FD00002C032E001C030E03D2B3D9391A12923B6
:100FE00021A392A1892B82A381E0F70190819B111B
:100FF00001C080E0C82BF1E0AB37BF0709F0BCCFE0
:10100000CC2349F081E0809310010E9473089093F3
:101010000F0180930E01809110018823B1F080911F
:101020000E0190910F010E941F16039770F080919E
:10103000780180938401809179018093850180916A
:101040007A0180938601109210018C2FDF91CF914D
:101050001F910F91FF90EF90DF90CF90BF90089578
:1010600090917F0192FF0DC0282F2871283019F42C
:10107000877F846006C0282F2471243011F48B7F71
:10108000886093FF0DC0282F2871283119F4877EBE
:10109000846106C0282F2471243111F48B7E88616D
:1010A0002091800120FF0DC0382F3871383019F49D
:1010B000877F816006C0382F3171313011F48E7F07
:1010C000886021FF0DC0282F2871283119F4877EF0
:1010D000816106C0282F2171213111F48E7E886133
:1010E00094FD877E08952FB7F894809173019091B5
:1010F0007401A0917501B09176012FBF08951F92E0
:101100000F920FB60F9211248F939F93AF93BF93BB
:1011100080918301811113C08091730190917401BA
:10112000A0917501B09176014196A11DB11D8093EA
:10113000730190937401A0937501B0937601BF91F0
:10114000AF919F918F910F900FBE0F901F901895A8
:101150009C012A5F3F4FFC014281461301C012826D
:10116000019682179307B9F708959C01FC01329606
:101170009FEF80E04191461789F09F3F19F441119C
:1011800001C0982F8F5F8630A9F79F3F39F0F90192
:10119000E90FF11D97FDFA95628308950895CF93A5
:1011A00084E090E00E944916C82F81E290E00E94FE
:1011B00049162C2F30E0A901582BCA01CF91089570
:1011C0006CEE7EEF80E090E00E94751660E082E0B9
:1011D00090E00E94571660E083E090E00E9457166E
:1011E00010927B0110927C0110927D0110927E0181
:1011F00060E084E090E00E94571660E081E290E0B9
:101200000E94571660E085E090E00E94571660E06B
:1012100086E090E00E9457166FEF87E090E00E9412
:10122000571640E050E0BA0188E090E00E9469164D
:1012300060E08DE090E00E94571640E050E0BA0177
:1012400088E190E00E94691660E087E190E00E94EA
:10125000571640E050E0BA018CE190E00E94691618
:1012600060E080E290E00E94571640E050E0BA0152
:101270008FE090E00E94691640E050E0BA0183E1FF
:1012800090E00C94691690915C0180915A01892B31
:1012900090915901892B80931901E0918101F0917E
:1012A0008201309731F00280F381E02D89E191E0F5
:1012B000099408950F931F9340917B0150917C01F5
:1012C00060917D0170917E01CB01AA27BB27009719
:1012D000A105B10521F0AC01BD0180E101C080E0B4
:1012E000052F162F272F332701151105210531054D
:1012F00019F0885FB901A8018A019B01F4E03695D5
:10130000279517950795FA95D1F701151105210530
:10131000310519F08C5FB901A8018A019B01E2E057
:101320003695279517950795EA95D1F7011511057B
:101330002105310519F08E5FB901A80176956795F1
:1013400057954795452B462B472B09F08F5F1F91EB
:101350000F910895CF93DF93EC010E945A0990E01A
:10136000FC01EE0FFF1FE80FF91FED0FF11DEE0F4F
:10137000FF1FEC0FF11DEE0FFF1FE452FF4FC59151
:10138000D491CE01C238D10569F1B0F4C133D10591
:1013900009F475C048F4C932D10509F469C0CA32EC
:1013A000D10509F473C079C0C533D10509F459C01A
:1013B000C933D105B9F071C0C33ED10571F138F41C
:1013C000C03ED105B1F0C23ED10511F166C0C63EA6
:1013D000D105B9F1C73ED105C9F1C43ED10509F027
:1013E0005CC024C020917F0120FD1AC221FD18C2DB
:1013F0001CC220917F0120FD0DC22091800120FFA1
:1014000014C280917F0184FDB7C183EE90E00DC2CC
:1014100020917F0122FF09C2F4CF80917F0182FDDC
:10142000FCC18091800180FDFBC1EBCF2091800148
:1014300021FFFBC180917F0184FD9EC187EE90E07A
:10144000F4C120917F0123FFF0C1F4CF80917F018F
:1014500083FDE9C18091800181FFECCF84EE90E0B3
:10146000E4C120917F0125FFE0C189E290E0DDC168
:1014700020917F0125FFD9C185E390E0D6C120915D
:101480007F0126FFD2C18AE290E0CFC120917F0187
:1014900026FFCBC181E390E0C8C1C11520E5D2078A
:1014A00008F049C0C11530E4D30708F030C1C83E88
:1014B000D10520F5C03ED10508F0B7C1C83AD10525
:1014C00070F4C53AD10508F0ADC0C130D10509F4BA
:1014D000ACC108F451C1249708F44EC1A6C1CF3B5A
:1014E000D10508F4AAC0C03CD10508F445C1CE011D
:1014F000880F991FFC01E859F040FEC0C11540E279
:10150000D40760F4C11521E0D20708F08EC1C03FB6
:10151000D10508F431C1CE01906587C1C11530E312
:10152000D30708F0ECC0CE019F70FC01EE0FFF1F47
:10153000E851FF4FE1C0C11545E5D40708F045C0AB
:10154000C11584E5D80708F0FAC0C11522E5D20715
:1015500018F5C11531E5D30708F0DDC0CE0174E000
:10156000969587957A95E1F7282F23703C2F337055
:1015700081E090E002C0880F991F3A95E2F79C68DD
:10158000922BEC2FEF70E695E69530E2E39FF001A9
:1015900011248E2B9F2B49C1AE01437055272C2F50
:1015A00026952695C115D34508F0BAC081E090E094
:1015B00002C0880F991F4A95E2F740E2249F9001EC
:1015C0001124822B932B9C6830C1C11529E5D207C9
:1015D00098F4C11538E5D30708F0B6C0C11546E543
:1015E000D40708F0C9C08C2F0E9430088F7190E09A
:1015F000982F8827906219C1C1158AE5D80708F489
:10160000A8C0CE0190568115904208F0B5C08D2F2C
:101610008F710E943008FE01FF27F0628F719F01D9
:10162000382BA8C0C53AD10509F4A9C0C63AD105DE
:1016300009F0A8C082E890E4F8C0C83AD10509F4DE
:10164000A4C0C93AD10509F4A3C0CA3AD10509F426
:10165000A2C0CB3AD10509F4A1C0CC3AD10509F416
:10166000A0C0CB3BD10509F49FC0CC3BD10509F408
:101670009EC0CD3AD10509F49DC0C03BD10509F407
:101680009CC0CE3AD10509F49BC0CF3AD10509F4EC
:101690009AC0C13BD10509F499C0C23BD10509F4F8
:1016A00098C0C33BD10509F497C0C43BD10509F4E8
:1016B00096C0C53BD10509F495C0C63BD10509F4D8
:1016C00094C0C73BD10509F493C0C83BD10509F4C8
:1016D00092C0C93BD10509F491C0CD3BD10509F4B5
:1016E00090C0CE3BD10509F48FC0CA3BD10509F4A7
:1016F0008EC080E094E499C08591949196C0CE010B
:101700009927D3FF02C0986C90C0906C8EC0CE0118
:101710009F70906A8AC09C2F8827816F906A85C0CD
:1017200081E090E002C0880F991F4A95E2F740E2FD
:10173000249F90011124822B932B9A6876C09C2FB2
:101740008827846F906A71C09C2F8827806F906A69
:101750006CC08C2F8F700E943008FE0194E0F695CB
:10176000E7959A95E1F7EF70F0E0FE2FEE27F0692C
:101770009F01282BC90159C080E090E056C081E844
:1017800090E453C083E890E450C082EE94E44DC0EE
:1017900089EE94E44AC08AEE94E447C085EB94E471
:1017A00044C086EB94E441C083EB94E43EC084EBF8
:1017B00094E43BC087EB94E438C08CEC94E435C0EF
:1017C0008DEC94E432C083E895E42FC08AE895E478
:1017D0002CC082E995E429C084E995E426C081E221
:1017E00096E423C083E296E420C084E296E41DC020
:1017F00085E296E41AC086E296E417C087E296E492
:1018000014C08FE694E411C080E794E40EC08AE22D
:1018100096E40BC089E390E008C082EE90E005C03A
:1018200080EE90E002C086EE90E0DF91CF910895C7
:101830008091580190912701891719F08F5F877067
:10184000FBCF0895CF938091260182958F7009F088
:101850005FC080912301882309F45AC08091580108
:10186000B091270170912101A091220140912401A2
:101870005091250191E07F3F09F090E0692FC6E08B
:101880008B1709F445C04115510521F0AF3F21F0F8
:1018900020E003C021E001C0262F90E020FD35C0EC
:1018A000C89FF001C99FF00D1124E85DFE4F218112
:1018B0002A132BC02081271328C02281211125C083
:1018C000238134812417350710F421503109241B5A
:1018D000350B283C3105C8F4209126012F7020617A
:1018E0002093260126E0289FF001299FF00D112466
:1018F000E35DFE4F80818F708061808381E291E0A3
:101900000E945104CF910C94180C01968770B8CFA7
:10191000CF910895AF92BF92CF92DF92EF92FF9254
:101920000F931F93CF93DF93CDB7DEB761970FB6B9
:10193000F894DEBF0FBECDBF8C0185E0F801DE015B
:101940001D9601900D928A95E1F7D8013C91119670
:101950002C9111971296EC905091210160912201E7
:101960008091240190912501009731F06F3F31F46F
:1019700041E05F3F19F403C041E001C040E0B42FF3
:10198000B170BB2E40FD43C1F801C380D480A0904C
:101990002301AA2009F4E2C040912601C816D90605
:1019A00028F0D601A81BB90BCD0104C080959095F5
:1019B0008C0D9D1DFF24F394883C910548F0F12C7B
:1019C000407F09F090C081E291E00E94510417C16C
:1019D000842F807F09F052C0621312C0531310C0CD
:1019E000FE2CE1100DC04F7040614093260181E252
:1019F00091E00E94510480912601F801858348C13D
:101A0000CD2831F02F3F31F481E03F3F19F403C07E
:101A100081E001C080E080FD03C081E08E2502C02E
:101A200080E090E0F82FF170FF2E80FF1CC08091C5
:101A300058014091270156E0841709F406C190E04F
:101A4000589FF001599FF00D1124E85DFE4F618110
:101A5000261306C06081361303C06281E61203C0FC
:101A600001968770E9CFFE2CEE2009F411C1809118
:101A70002601816080932601F12C0AC1621308C0FF
:101A8000531306C0E11004C080912601F80199C0EB
:101A90003D872E878D859E850E947F01882369F171
:101AA000EE2059F120912601822F82958F7090E0CF
:101AB000029774F0809121019091220198878F8381
:101AC0001986DB86CA862C87CE0107960E945104B0
:101AD00086E0F801A1E2B1E001900D928A95E1F76C
:101AE0000E94220C0DC0621771F03D872E878D85F4
:101AF0009E850E947F0181111AC0C8010E94510475
:101B0000FF24F394C5C05313F0CFE110EECF8091C2
:101B10002601F8018583C8010E94510486E0E1E2B4
:101B2000F1E0DF011D928A95E9F7FA2CB1C0EE20B1
:101B300021F320912601822F82958F7090E00297E9
:101B40003CF280912101909122019A8389831B822A
:101B5000DD82CC822E83CE010196B8CFC816D9067D
:101B600038F0C81AD90AB8ECCB16D10450F007C027
:101B7000809590958C0D9D1D883C910510F0F12C61
:101B80003EC0FE2CEE2009F4B8CF621327C05313D9
:101B900025C02091260120FD18C0822F82958F70CC
:101BA000482F50E04115510581F0F80125834F3051
:101BB000510541F08F5F982F9295907F822F8F7003
:101BC000892B8583C8010E94510486E0F801A1E2B7
:101BD000B1E001900D928A95E1F75AC03D872E87BA
:101BE0008D859E850E947F01811172CF8091260193
:101BF000816080932601C8010E94510449C0E1E23E
:101C0000F1E086E0DF011D928A95E9F741C0EE2000
:101C100009F473CF3D872E878D859E850E947F01B5
:101C2000F82E882309F469CF86E0F801A1E2B1E03B
:101C300001900D928A95E1F7809121019091220106
:101C40000E94AA090E94220C23C03D872E878D8501
:101C50009E850E94AA09292F22952F70223028F4F0
:101C60009F7039F0811105C00BC0243028F49F709B
:101C700049F4805E883020F0C8010E945104BF2CD6
:101C8000FB2C06C0D80115969C91907F91F7F8CF58
:101C90008F2D61960FB6F894DEBF0FBECDBFDF91DA
:101CA000CF911F910F91FF90EF90DF90CF90BF9059
:101CB000AF900895EF92FF920F931F93CF93DF930E
:101CC0007C018B010E94AB13811119C0E701011542
:101CD0001105A1F08091E80085FD0AC08091E8001F
:101CE0008E778093E8000E94AB13882381F307C0AE
:101CF00089918093F10001501109E9CF80E0DF91D3
:101D0000CF911F910F91FF90EF9008951F93CF9364
:101D1000DF93CDB7DEB7AA970FB6F894DEBF0FBE3C
:101D2000CDBFEBE6F1E08091F100819321E0E33754
:101D3000F207C9F780916C01833009F460C030F478
:101D4000813071F0823009F49CC0B3C08A3009F44C
:101D500088C08B3009F46BC0893009F0AAC020C05C
:101D600080916B01813A09F0A4C08091E800877FDF
:101D70008093E80080916F0190917001892B21F48C
:101D800068E08FE591E003C060E080E090E070E003
:101D90000E9432148091E8008B778093E80089C01C
:101DA00080916B01813209F084C080916F01909124
:101DB0007001029708F07DC08091E800877F8093D2
:101DC000E8008091E80082FD05C0809169018111E1
:101DD000F8CF6FC02091F3008091F20090E0922B39
:101DE000029729F48091F1008B7F813021F480915A
:101DF000F10080935E018091E8008B7756C080915E
:101E00006B01813A09F055C080916F01909170018A
:101E1000892B09F04EC08091E800877F8093E8000D
:101E20008091E80080FFFCCF8091000139C0809153
:101E30006B018132F1F580916F0190917001892BD6
:101E4000C1F58091E800877F8093E8000E94DE134F
:101E500080916D018093000110925C010E94B60197
:101E600028C080916B01813221F58091E800877F45
:101E70008093E8000E94DE1380916E0180935D01E3
:101E800018C080916B01813AA1F48091E800877FAE
:101E90008093E8008091E80080FFFCCF80915D0195
:101EA0008093F1008091E8008E778093E8000E9493
:101EB000DE138091E80083FFD8C180916B0190917F
:101EC0006C01492F50E04A30510508F0CEC1FA01AB
:101ED000EC59FF4F0C948B16803821F0823809F0B2
:101EE000C4C108C08091670190916801992389F06D
:101EF00082600FC080916F018F70873008F0B5C18C
:101F00008093E9008091EB0085FB882780F910928F
:101F1000E9009091E800977F9093E8008093F100AA
:101F20001092F10071C1282F2D7F09F09EC18823E6
:101F300019F0823061F099C180916D01813009F012
:101F400094C1933009F080E0809368012EC08091A5
:101F50006D0181112AC080916F018F702FEF280FC2
:101F6000263008F082C18093E9002091EB0020FF29
:101F70001CC0933021F48091EB00806214C09091DA
:101F8000EB0090619093EB0021E030E0A90102C0EA
:101F9000440F551F8A95E2F74093EA001092EA0039
:101FA0008091EB0088608093EB001092E9008091B3
:101FB000E800877F2CC1811158C110916D011F77F6
:101FC0008091E3008078812B8093E3008091E8008A
:101FD000877F8093E8000E94DE138091E80080FFF5
:101FE000FCCF8091E30080688093E300111102C070
:101FF00082E001C083E08093690137C1805882305C
:1020000008F033C180916D0190916E018C3D53E0D9
:10201000950779F583E08A838AE289834FB7F8943C
:10202000DE01139620E03EE051E2E32FF0E0509312
:102030005700E49120FF03C0E295EF703F5FEF701F
:102040008E2F90E0EA3010F0C79601C0C0968D93B5
:102050009D932F5F243149F74FBF8091E800877F20
:102060008093E8006AE270E0CE0101960E9432148B
:10207000BAC040916F0150917001292F332723304E
:102080003105B1F068F42130310509F4FDC022308A
:10209000310509F0EAC08BE390E0EEE5F1E050C0D5
:1020A0002132310581F12232310509F439C0DDC018
:1020B000992781309105B9F070F082309105D9F0FF
:1020C000039709F0D2C0EBEAF1E0E4918E2F90E0A3
:1020D000EBEAF1E032C0E5EEF1E0E4918E2F90E022
:1020E000E5EEF1E02AC0E1ECF1E0E4918E2F90E022
:1020F000E1ECF1E022C0E1EBF1E0E4918E2F90E021
:10210000E1EBF1E01AC04115510509F4C2C04130BC
:10211000510509F0AAC089E090E0E9E8F1E010C0BB
:102120004115510509F4BAC04130510509F09DC06F
:1021300086E390E0E8EEF0E003C0009709F495C074
:102140002091E800277F2093E800209171013091D1
:1021500072018217930708F49C0140E021153105B4
:1021600089F180916901882309F43DC08530D9F156
:102170008091E80083FD37C08091E80082FD2FC088
:102180008091E80080FFEACF4091F3008091F20057
:1021900090E0942B2115310559F08830910540F4D9
:1021A00044914093F1003196215031090196F2CFCC
:1021B00041E0089709F040E08091E8008E77809335
:1021C000E800CCCF4111CDCF0AC0809169018823AE
:1021D00051F0853041F08091E80083FD04C080918A
:1021E000E80082FFF2CF8091E8008B778093E800CF
:1021F0003CC08038D1F58091E800877F8093E8006B
:1022000080916A018093F1008091E8008E7780933D
:10221000E8000E94DE1329C0811127C080916D0162
:1022200090916E019927029704F58091E800877FCD
:102230008093E80010916D0110936A010E94DE13F3
:10224000111106C08091E30087FD02C081E001C04A
:1022500084E08093690142E061EC81E00E94FD131B
:1022600042E261EC82E00E94FD138091E80083FF6E
:102270001AC08091E800877F8093E8008091EB008E
:1022800080628093EB000FC082E190E0E9E9F1E029
:1022900057CF89E090E0E0E7F1E052CF80E490E0B2
:1022A000EEE1F1E04DCFAA960FB6F894DEBF0FBE77
:1022B000CDBFDF91CF911F9108951F920F920FB65E
:1022C0000F9211242F933F934F935F936F937F93BC
:1022D0008F939F93AF93BF93CF93DF93EF93FF932E
:1022E000C091E900CF708091EC00D82FD17080FDB3
:1022F000D0E81092E9008091F000877F8093F00091
:1023000078940E94860E1092E9008091F000886017
:102310008093F000CD2BCF70C093E900FF91EF9137
:10232000DF91CF91BF91AF919F918F917F916F91ED
:102330005F914F913F912F910F900FBE0F901F9083
:102340001895E8EDF0E080818E7F80831092E200A6
:102350001092DA001092E100A0EEB0E08C91816062
:102360008C9380818F77808319BCA7EDB0E08C912E
:102370008E7F8C9380818F7E808310925B01089585
:10238000CF92DF92EF92FF920F931F93CF93DF9341
:10239000C8EDD0E088818F7E8883E7EDF0E0808112
:1023A0008160808384E082BF81E080935B018881CB
:1023B0008E7F888302EE10E0F80110821092DA001E
:1023C00081EEC82ED12CF601108288818F77888308
:1023D00088818068888388818F7D888319BC10926A
:1023E000690110926A01109268011092670190EEE3
:1023F000E92EF12CF70180818B7F808388818160B9
:10240000888342E060E080E00E94FD13F601808155
:102410008E7F8083F80180818160808380818860E5
:102420008083F70180818E7F8083888180618883AB
:10243000DF91CF911F910F91FF90EF90DF90CF90A0
:1024400008951F920F920FB60F9211242F933F936E
:102450004F935F936F937F938F939F93AF93BF93AC
:10246000EF93FF938091E10082FF09C08091E20029
:1024700082FF05C08091E1008B7F8093E100809115
:10248000DA0080FF2AC08091D80080FF26C08091AA
:10249000DA008E7F8093DA008091D90080FF18C027
:1024A00080E189BD82E189BD09B400FEFDCF81E0F4
:1024B0008093690180915B0181110FC00E94A1117D
:1024C0000E94C0118091E20084608093E20005C008
:1024D00019BC1092690110925B018091E10080FFAC
:1024E00017C08091E20080FF13C08091E2008E7FD0
:1024F0008093E2008091E20080618093E20080910D
:10250000D80080628093D80019BC85E0809369016F
:102510008091E10084FF34C08091E20084FF30C0EC
:1025200080E189BD82E189BD09B400FEFDCF8091C3
:10253000D8008F7D8093D8008091E1008F7E8093BA
:10254000E1008091E2008F7E8093E2008091E200C2
:1025500081608093E20080916A01882311F084E019
:1025600007C08091E30087FD02C081E001C083E0E5
:102570008093690110925C010E94B6010E945D0285
:102580008091E10083FF27C08091E20083FF23C098
:102590008091E100877F8093E10082E08093690170
:1025A00010926A018091E1008E7F8093E10080911A
:1025B000E2008E7F8093E2008091E2008061809350
:1025C000E20042E060E080E00E94FD138091F000B4
:1025D00088608093F000FF91EF91BF91AF919F9140
:1025E0008F917F916F915F914F913F912F910F90BC
:1025F0000FBE0F901F901895089580915E01089569
:10260000CF93DF9300D01F92CDB7DEB79C0190919E
:102610007701911105C080916901843049F504C0AA
:10262000923011F0943021F584E089833B832A8332
:1026300082E08093E9008FEF9091E800815095FD52
:1026400006C095ED9A95F1F700008111F5CF8091C4
:10265000E80085FF0DC040E050E063E070E0CE018F
:1026600001960E945A0E8091E8008E778093E800D0
:102670000F900F900F90DF91CF910895CF93DF933C
:1026800000D01F92CDB7DEB720916901243031F51B
:1026900023E02983805891099B838A8382E0809379
:1026A000E9008FEF9091E800815095FD06C095ED0F
:1026B0009A95F1F700008111F5CF8091E80085FF30
:1026C0000DC040E050E063E070E0CE0101960E9452
:1026D0005A0E8091E8008E778093E8000F900F905B
:1026E0000F90DF91CF910895CF93DF9320917701E1
:1026F000211103C02091690102C0223011F0243061
:1027000039F521E02093E9002FEF3091E8002150C6
:1027100035FD06C035ED3A95F1F700002111F5CFF2
:102720002091E80025FF14C0EC0140E050E068E093
:1027300070E00E945A0E8091E8008E778093E80046
:1027400088E0FE01AFE5B1E001900D928A95E1F7D6
:10275000DF91CF9108952091E4003091E50095E656
:102760004091EC00842F817040FF23C08091E800ED
:1027700080FD1DC080916901882399F0853099F012
:102780008091EB0085FD11C04091E4005091E5007F
:102790002417350729F3915011F09A01E1CF84E015
:1027A000089582E0089583E0089581E0089580E02F
:1027B00008954091E80042FFDDCF089580916B01BC
:1027C00087FF11C08091E80082FD05C080916901FA
:1027D0008111F8CF11C08091E8008B770BC08091F8
:1027E0006901882349F08091E80080FFF8CF80914B
:1027F000E8008E778093E8000895982F973068F569
:102800009093E900981739F07091EC002091ED0059
:102810005091F00003C0242F762F50E021FD02C01C
:102820009F5FECCF3091EB003E7F3093EB00309117
:10283000ED003D7F3093ED003091EB00316030933F
:10284000EB007093EC002093ED005093F00020918A
:10285000EE0027FDE5CF80E008958F708093E900BA
:1028600081E0089520917101309172012617370798
:1028700048F06115710539F42091E8002E77209316
:10288000E80001C0B901FC0120E06115710579F192
:10289000809169018823F1F18530F1F18091E800A0
:1028A00083FD3CC08091E80082FD2EC08091E8004D
:1028B00080FFEBCF2091F3008091F20090E0922B0B
:1028C0006115710551F08830910538F421912093FC
:1028D000F100615071090196F3CF21E0089709F0EA
:1028E00020E08091E8008E778093E800CECF211120
:1028F000CFCF0AC080916901882361F0853061F0F3
:102900008091E80083FD0AC08091E80082FFF2CF49
:1029100080E0089582E0089583E0089581E00895BD
:10292000CF93DF93CDB7DEB72A970FB6F894DEBF0B
:102930000FBECDBF84B7877F84BF0FB6F894A8952C
:1029400080916000886180936000109260000FBEEB
:1029500080E8809361001092610085B7806885BF30
:1029600085B7806885BF0E94A1110E94C011809127
:10297000E20084608093E20078948091690188236A
:10298000A1F01091E9001F709091EC00892F8170E7
:1029900090FD80E8182B1092E9008091E80083FDFB
:1029A0000E94860E1F701093E90082E084BD93E0C0
:1029B00095BD9AEF97BD80936E00ABE0B1E04EE01D
:1029C00051E061E070E08D91E82FE295EF70F0E06A
:1029D00021A18F708B0102C0000F111F8A95E2F7B1
:1029E000C801902F9095922391A392A1892B82A345
:1029F0004A175B0741F75198599A6E98769A109248
:102A00007801109284011092790110928501109240
:102A10007A011092860180E090E00E9451168C3E6F
:102A20009E4F11F00E94E00880E090E00E94511655
:102A30008C3E9E4F11F00E94E00882E090E00E94E0
:102A40004916809388010E94CF089093800180935B
:102A50007F0183E090E00E94491690E0A0E0B0E0A2
:102A600080937B0190937C01A0937D01B0937E01C4
:102A70000E94A80181E091E09093820180938101FE
:102A800099249A94CC24C394D12C90E1792E22E1FC
:102A9000822E38E1A32EB12C40E4642E809169018E
:102AA000853009F039C080916901843009F11092B4
:102AB00083010FB6F894A895A09260000FBE6092B3
:102AC000600083B7817F846083BF83B7816083BFE9
:102AD0007894889583B78E7F83BF0FB6F894A895B6
:102AE00080916000886180936000109260000FBE4A
:102AF00080916801882391F20E94AC078091840143
:102B0000811163C08091850181115FC08091860130
:102B1000882309F4C3CF59C00E94AC07E4E8F1E070
:102B2000A9E8B1E000E010E0302F81919D91982755
:102B300061F190FD05C091FF28C091E021E002C045
:102B400090E020E029833A83760102C0EE0CFF1C5E
:102B50009A95E2F790E08E219F2121E0892B09F4DC
:102B600020E02B830E9473088160782F9D838C83E3
:102B700049815A816B818D810E94BF01F801E7571D
:102B8000FE4F8081E826E08214C00F5F1F4F0330A4
:102B9000110551F69E829F8218860E9473088160FB
:102BA000782F9A8789874E815F8168858A850E9400
:102BB000BF010E945D0290918701891709F46ECFD1
:102BC0000E945D028093870169CF79BC89BC09B4FA
:102BD00000FEFDCF8091D8008F7D8093D80080913A
:102BE000E00082608093E0008091E00081FDFCCFF6
:102BF00055CF78941F920F920FB60F9211248F9396
:102C00009F93AF93BF938091730190917401A091B2
:102C10007501B09176010196A11DB11D80937301DC
:102C200090937401A0937501B0937601BF91AF9119
:102C30009F918F910F900FBE0F901F901895CF927C
:102C4000DF92EF92FF920F931F932FB7F89440916A
:102C500073015091740160917501709176012FBFDD
:102C60006A017B01EE24FF248C0120E030E0C016D5
:102C7000D106E206F30610F4415051099A01281BCF
:102C8000390BC9011F910F91FF90EF90DF90CF900A
:102C90000895F999FECF92BD81BDF89A992780B524
:102CA0000895A8E1B0E042E050E00C947D16262F94
:102CB000F999FECF92BD81BDF89A019700B4021632
:102CC00039F01FBA20BD0FB6F894FA9AF99A0FBEE0
:102CD00008950396272F0E9458160E945716252FF5
:102CE0000E945816242F0C9458160196272F0E94E4
:102CF00058160C945716DC01CB01FC01F999FECF54
:102D000006C0F2BDE1BDF89A319600B40D92415073
:102D10005040B8F70895EE0FFF1F0590F491E02D95
:062D20000994F894FFCFB6
:0E2D260001FD127413FC123E130013F736F475
:00000001FF
