:100000000C9401010C9448010C9448010C94480193
:100010000C9448010C9448010C9448010C9448013C
:100020000C9448010C9448010C94DA0E0C94160EB2
:100030000C94C10F0C9448010C9448010C94480195
:100040000C9448010C9448010C9448010C9448010C
:100050000C9448010C9403170C9448010C9448012B
:100060000C9448010C9448010C9448010C944801EC
:100070000C9448010C9448010C9448010C944801DC
:100080000C9448010C9448010C9448010C944801CC
:100090000C9448010C9448010C9448010C944801BC
:1000A0000C9448010C9448010C944801D006D006E9
:1000B0000A070A075D0700090009000979075708C0
:1000C00068086808250C4C0CEE0D4C0CEE0D940CD9
:1000D000B70CEE0DB20DC50D6517651778177817BB
:1000E0006E177817781778176517651773177817CD
:1000F00078177317AA00A900AC00AB0029003D04D3
:1001000005010980A10185031A81002A83001601D7
:1001100000260300950175108100C0050C0901A19E
:100120000185041A01002A9C02160100269C0295F2
:100130000175108100C005010906A101050719E03C
:1001400029E71500250195087501810295017508BB
:1001500081010507190029FF150026FF0095067586
:100160000881000508190129059505750191029579
:100170000175039101C009023B00020100A0FA09C8
:1001800004000001030101000921110100012240C6
:10019000000705810308000A0904010001030000AB
:1001A0000009211101000122360007058203200009
:1001B0000A1201100100000008EDFE00000100011C
:1001C0000203010403300000000E03700064007895
:1001D000006B0062006300000022034600720061B1
:1001E000006E006B006C0069006E0020004800612A
:1001F000007200640069006E0067000000040309DB
:10020000040011241FBECFEFDAE0DEBFCDBF04B67D
:1002100003FE27C08091970190919801A0919901C8
:10022000B0919A018730904BA740B04BD1F4109217
:100230009701109298011092990110929A0114BEA0
:1002400084B7877F84BF0FB6F894A895809160002B
:10025000886180936000109260000FBEE0E0F8E3D8
:10026000099511E0A0E0B1E0EEEBF2E302C00590E9
:100270000D92AE30B107D9F721E0AEE0B1E001C098
:100280001D92A739B207E1F70E94A1150C945D19E0
:100290000C94000090918A0192FF0DC0282F2871C4
:1002A000283019F4877F846006C0282F24712430F9
:1002B00011F48B7F886093FF0DC0282F287128319F
:1002C00019F4877E846106C0282F2471243111F42B
:1002D0008B7E886120918B0120FF0DC0382F3871F3
:1002E000383019F4877F816006C0382F3171313082
:1002F00011F48E7F886021FF0DC0282F28712831CE
:1003000019F4877E816106C0282F2171213111F4F3
:100310008E7E886194FD877E08950F931F93CF93FF
:10032000DF93C62FD42F122FFC0182818823C9F0BE
:10033000609317010E94B50F9093120180931101F1
:1003400080E28C0F883008F05EC0C77081E001C089
:10035000880FCA95EAF7DF91CF911F910F910C9406
:100360009E178091170168133EC0809111019091F2
:1003700012010E942917883C9105A8F500E20D0F93
:10038000CD17B9F080E28C0F883040F4C77081E05F
:1003900001C0880FCA95EAF70E949317083048F405
:1003A00081E09D2F977001C0880F9A95EAF70E940F
:1003B0009E17812F0E940418193349F4FFEF27EE8E
:1003C00083E0F15020408040E1F700C00000812F21
:1003D0000E94A8170830B8F4D77081E001C0880FD8
:1003E000DA95EAF70AC080E28C0F883060F4C770B3
:1003F00081E001C0880FCA95EAF7DF91CF911F9184
:100400000F910C949317DF91CF911F910F91089545
:100410001F93CF93DF93CDB7DEB767970FB6F894EE
:10042000DEBF0FBECDBF4B8B5C8B6D8B7E8B8F8BFE
:1004300086E09E01235F3F4FD901E82F1D92EA9588
:10044000E9F795E0FE017396D90101900D929A9516
:10045000E1F7F901DE01179601900D928A95E1F717
:10046000CE0107960E943D1281113EC086E0FE013A
:100470003796DE01119601900D928A95E1F7FF8182
:10048000E8856A857B856115710531F0EF3F31F4B0
:1004900081E0FF3F19F403C081E001C080E080FDEE
:1004A00023C020913F0130E0C90101968770992750
:1004B0004091700150E08417950779F1F983EA8340
:1004C0007D836C8396E0929FD001939FB00D1124A1
:1004D000A05CBE4FFE01319601900D929A95E1F716
:1004E00080933F010E94CB1116E0809170019091A2
:1004F0003F01891709F1189FC0011124805C9E4FAC
:100500000E943D128823C1F08091700190E0019615
:100510008770992780937001E8CF10921A010E948A
:100520008A1710923F0110927001E9E3F1E086E032
:10053000DF011D928A95E9F767960FB6F894DEBF42
:100540000FBECDBFDF91CF911F910895209115016E
:10055000309116012817390771F090931601809396
:100560001501E0918C01F0918D01309721F000840C
:10057000F185E02D09940895209113013091140123
:100580002817390771F09093140180931301E091BB
:100590008C01F0918D01309721F00680F781E02DDC
:1005A00009940895E0918C01F0918D01309721F02C
:1005B0000190F081E02D099480E00895BF92CF92E0
:1005C000DF92EF92FF920F931F93CF93DF934BE055
:1005D00051E0A7E8B1E0C0E001E010E07D01BC908F
:1005E0001C92FA018191AF01E82FE295EF70F0E0E3
:1005F00021A18F70B80102C0660F771F8A95E2F7BC
:10060000CB01262B21A332A1262F2095322332A302
:1006100070EA7A95F1F739B131FB662760F970E03D
:100620006B0131E0C3263C2D3170DC90D32FDD29E6
:10063000DC93669902C032E001C030E03D2B3D936F
:1006400091A1292321A392A1892B82A381E0F70103
:1006500090819B1101C080E0C82BF1E0AA38BF0750
:1006600009F0BCCFCC2349F081E0809310010E94B7
:10067000B50F90930F0180930E0180911001882394
:10068000B1F080910E0190910F010E9429170697F9
:1006900070F08091870180938F0180918801809311
:1006A00090018091890180939101109210018C2F0B
:1006B000DF91CF911F910F91FF90EF90DF90CF903E
:1006C000BF900895CF93DF9390E0FC01EE0FFF1FE2
:1006D000E80FF91FE70FF11DEE0FFF1FE60FF11DE9
:1006E000EE0FFF1FEC50FF4FC591D491CE01C238E1
:1006F000D10569F1B0F4C133D10509F475C048F4EE
:10070000C932D10509F469C0CA32D10509F473C0F0
:1007100079C0C533D10509F459C0C933D105B9F041
:1007200071C0C33ED10571F138F4C03ED105B1F0BE
:10073000C23ED10511F166C0C63ED105B9F1C73E32
:10074000D105C9F1C43ED10509F05CC024C0209197
:100750008A0120FD1AC221FD18C21CC220918A0103
:1007600020FD0DC220918B0120FF14C280918A01CF
:1007700084FDB7C183EE90E00DC220918A0122FF73
:1007800009C2F4CF80918A0182FDFCC180918B0166
:1007900080FDFBC1EBCF20918B0121FFFBC180913C
:1007A0008A0184FD9EC187EE90E0F4C120918A0108
:1007B00023FFF0C1F4CF80918A0183FDE9C18091CC
:1007C0008B0181FFECCF84EE90E0E4C120918A019F
:1007D00025FFE0C189E290E0DDC120918A0125FF7B
:1007E000D9C185E390E0D6C120918A0126FFD2C10C
:1007F0008AE290E0CFC120918A0126FFCBC181E33C
:1008000090E0C8C1C11520E5D20708F049C0C11564
:1008100030E4D30708F030C1C83ED10520F5C03E12
:10082000D10508F0B7C1C83AD10570F4C53AD10571
:1008300008F0ADC0C130D10509F4ACC108F451C114
:10084000249708F44EC1A6C1CF3BD10508F4AAC035
:10085000C03CD10508F445C1CE01880F991FFC01A9
:10086000EC58F040FEC0C11540E2D40760F4C11559
:1008700021E0D20708F08EC1C03FD10508F431C194
:10088000CE01906587C1C11530E3D30708F0ECC0F5
:10089000CE019F70FC01EE0FFF1FEC50FF4FE1C037
:1008A000C11545E5D40708F045C0C11584E5D80752
:1008B00008F0FAC0C11522E5D20718F5C11531E5D7
:1008C000D30708F0DDC0CE0174E0969587957A9540
:1008D000E1F7282F23703C2F337081E090E002C0B5
:1008E000880F991F3A95E2F79C68922BEC2FEF70D6
:1008F000E695E69530E2E39FF00111248E2B9F2BC5
:1009000049C1AE01437055272C2F26952695C11558
:10091000D34508F0BAC081E090E002C0880F991F6B
:100920004A95E2F740E2249F90011124822B932BF9
:100930009C6830C1C11529E5D20798F4C11538E586
:10094000D30708F0B6C0C11546E5D40708F0C9C002
:100950008C2F0E944A018F7190E0982F8827906217
:1009600019C1C1158AE5D80708F4A8C0CE01905670
:100970008115904208F0B5C08D2F8F710E944A01F9
:10098000FE01FF27F0628F719F01382BA8C0C53A86
:10099000D10509F4A9C0C63AD10509F0A8C082E87A
:1009A00090E4F8C0C83AD10509F4A4C0C93AD10509
:1009B00009F4A3C0CA3AD10509F4A2C0CB3AD105C3
:1009C00009F4A1C0CC3AD10509F4A0C0CB3BD105B4
:1009D00009F49FC0CC3BD10509F49EC0CD3AD105A6
:1009E00009F49DC0C03BD10509F49CC0CE3AD105A5
:1009F00009F49BC0CF3AD10509F49AC0C13BD10597
:100A000009F499C0C23BD10509F498C0C33BD10594
:100A100009F497C0C43BD10509F496C0C53BD10584
:100A200009F495C0C63BD10509F494C0C73BD10574
:100A300009F493C0C83BD10509F492C0C93BD10564
:100A400009F491C0CD3BD10509F490C0CE3BD1054E
:100A500009F48FC0CA3BD10509F48EC080E094E44C
:100A600099C08591949196C0CE019927D3FF02C079
:100A7000986C90C0906C8EC0CE019F70906A8AC0B6
:100A80009C2F8827816F906A85C081E090E002C02A
:100A9000880F991F4A95E2F740E2249F90011124A4
:100AA000822B932B9A6876C09C2F8827846F906A3C
:100AB00071C09C2F8827806F906A6CC08C2F8F70BC
:100AC0000E944A01FE0194E0F695E7959A95E1F7B8
:100AD000EF70F0E0FE2FEE27F0699F01282BC9018F
:100AE00059C080E090E056C081E890E453C083E8AC
:100AF00090E450C082EE94E44DC089EE94E44AC084
:100B00008AEE94E447C085EB94E444C086EB94E419
:100B100041C083EB94E43EC084EB94E43BC087EB9C
:100B200094E438C08CEC94E435C08DEC94E432C08D
:100B300083E895E42FC08AE895E42CC082E995E427
:100B400029C084E995E426C081E296E423C083E2CB
:100B500096E420C084E296E41DC085E296E41AC0C3
:100B600086E296E417C087E296E414C08FE694E428
:100B700011C080E794E40EC08AE296E40BC089E3DA
:100B800090E008C082EE90E005C080EE90E002C0E8
:100B900086EE90E0DF91CF9108958F929F92AF9271
:100BA000BF92CF92DF92EF92FF920F931F93CF935A
:100BB000DF9300D000D01F92CDB7DEB7FC010081DB
:100BC000D18083819481892B39F01FEFD11206C027
:100BD00091E00F3F19F403C091E001C090E090FD57
:100BE00010C57F0185E0DE01119601900D928A9576
:100BF000E1F7F701228189819A81222349F00E943D
:100C0000B810182F682F89819A810E942F1103C074
:100C10000E940511182F812F90E0FC01EE0FFF1F9D
:100C2000E80FF91FED0DF11DEE0FFF1FE00FF11D95
:100C3000EE0FFF1FEC50FF4F05911491033FFCE5B1
:100C40001F07A9F180F4083D3CE51307C9F0093DF1
:100C50008CE51807C1F1073D9CE51907B9F526E2B7
:100C600041EE61EE10C0053FECE51E0741F118F1C1
:100C7000063F2CE5120751F527E245EE66EE03C06C
:100C800027E245EE65EEC7010F900F900F900F9091
:100C90000F90DF91CF911F910F91FF90EF90DF9018
:100CA000CF90BF90AF909F908F900C948D0126E2D3
:100CB00041EE60EEE8CF27E245EE64EEE4CF26E2B7
:100CC00041EE62EEE0CF28E241E0DCCFF701828125
:100CD000882309F4C4C2109217010631FCE51F07EE
:100CE00009F45FC458F401303CE5130709F402C36A
:100CF00008F023C301151C45B1F4CBC20E3DECE551
:100D00001E0709F400C348F40C3D2CE5120709F452
:100D10000DC30D3D1C4539F40CC3C8018A5F9C45C9
:100D2000099708F40AC3F70100811181C8010E94E4
:100D3000B810D82E682FC8010E942F11B8018D2D30
:100D40000E9462038C01982EF701A580A2949FE077
:100D5000A922D280D11010927C0180917A018770F3
:100D600079F0DD2069F080E2800F883048F082E081
:100D70000E94871180917A018770CC24C3948111DD
:100D8000C12CB12EB2948FE0B8228B2D90E08C3024
:100D9000910508F035C2FC01EA5AFF4F0C9457192F
:100DA000812F807F1F70882311F01295107FDD2026
:100DB000B9F0112309F40FC280E2800F883010F0DF
:100DC000911006C080911A01182B10931A0105C0CA
:100DD00080917C01182B10937C010E948B10FBC129
:100DE000802F0E94A817112309F40AC2005E1095F3
:100DF000083010F0911006C080911A01182310934A
:100E00001A0105C080917C01182310937C010E9477
:100E10008B10F6C1812F807F1F70803211F01295E8
:100E2000107F992021F0F1E09F16E1F02AC0DD202B
:100E300081F080917D01AA2051F001E0A01207C04D
:100E4000182B181709F4DCC110937D01D9C1812B2F
:100E500010C0AA2021F021E0A21609F4D1C10E94FD
:100E6000851027C0DD2041F035E03A1508F4C8C1EF
:100E7000812F0E949E17C4C184E08A1508F4C0C166
:100E800018C0DD2049F0AA2099F3F701858180FF81
:100E9000A2C18F708583ECCFAA2059F0093309F0E5
:100EA000ACC1FFEF17EE23E0F15010402040E1F716
:100EB000A2C1812F0E949317A3C1812F8695869589
:100EC000837019F0813059F09BC1DD2019F0C80101
:100ED000937002C080E090E00E94BC0297C1DD20C8
:100EE00019F0C801937002C080E090E00E94A60251
:100EF0008DC1812F837009F069C0D11085C1902FF9
:100F0000929596959770990F990F802F8F70882ED4
:100F1000912CA12CB12C092E04C0880C991CAA1C60
:100F2000BB1C0A94D2F704FF12C04FE050E060E00F
:100F300070E004C0440F551F661F771F9A95D2F7C3
:100F4000DB01CA0180959095A095B09503C080E023
:100F500090E0DC0116951695412F4370423019F14F
:100F6000C8F400917E0110917F01209180013091A1
:100F70008101413059F088299929AA29BB29BC014E
:100F8000CD0160237123822393230AC0802A912AF2
:100F9000A22AB32ABC01CD01682979298A299B2973
:100FA0000E94C11131C188299929AA29BB29009120
:100FB0007E0110917F012091800130918101BC015F
:100FC000CD016027712782279327EACFDD2019F012
:100FD000812F817001C08695882309F415C1902F57
:100FE000929596959770990F990F802F8F70882EF4
:100FF000912CA12CB12C092E04C0880C991CAA1C80
:10100000BB1C0A94D2F704FF12C04FE050E060E02E
:1010100070E004C0440F551F661F771F9A95D2F7E2
:10102000DB01CA0180959095A095B09503C080E042
:1010300090E0DC0116951695412F43704230D9F0AF
:1010400068F5009176011091770120917801309137
:101050007901413059F088299929AA29BB29BC0175
:10106000CD0160237123822393231EC0802A912AFD
:10107000A22AB32A13C088299929AA29BB29009139
:101080007601109177012091780130917901BC01AE
:10109000CD01602771278227932706C0BC01CD01AF
:1010A000682979298A299B290E945811ADC01F708F
:1010B000DD2039F0812F0E94A011802F0E949E1701
:1010C000A3C0802F0E949317812F0E9462119CC0A1
:1010D000802F32EF931609F440C0391538F090EFA5
:1010E000991661F0E1EF9E1699F170C0F3EF9F162B
:1010F000D9F124EF921609F44EC068C0DD2019F131
:1011000034E03A1508F47CC01F7181E090E0A0E063
:10111000B0E0AC01BD0104C0440F551F661F771F2E
:101120001A95D2F78091760190917701A09178017C
:10113000B09179018A019B01082719272A273B27AB
:10114000C901B80125C025E02A1508F459C0DCCF33
:10115000DD2029F0812F8F712CC0DD20D9F3812F64
:101160008F710E9462114CC0DD2079F01F7181E007
:1011700090E0A0E0B0E0BC01CD0104C0660F771F95
:10118000881F991F1A95D2F703C060E070E0CB0169
:101190000E94581135C0DD2079F01F71812F0E9407
:1011A000A01138E0139FC0011124836080937A015D
:1011B000812F0E94A01124C081E00E94871181E04C
:1011C0008A15F0F482E00E9487111AC0DD2039F000
:1011D000AA2009F4BFCF802F0E94041811C0AA20B2
:1011E00009F4BDCF893349F49FEFE7EEF3E0915066
:1011F000E040F040E1F700C00000802F0E94A817F7
:1012000088EF8B0D843010F40E94D202CC2009F4B8
:10121000F8C180917A0180FDF4C1F70112828595B1
:10122000859585950E94A011C7010E94CD058091EA
:101230007A018595859585950F900F900F900F9069
:101240000F90DF91CF911F910F91FF90EF90DF9062
:10125000CF90BF90AF909F908F900C946211063109
:10126000FCE51F0709F4ADC150F401153CE5130777
:1012700008F48FC102301C4508F08BC1C2C10C3D7F
:101280009CE5190708F485C10F3D1C4508F081C194
:10129000B8C110921A010E948A17FFEF04E31CE004
:1012A000F15000401040E1F700C0000081E0809361
:1012B000E00080E28093D8001092C9008FE19EE4A4
:1012C0000197F1F700C0000087E090EBDC0180930C
:1012D000970190939801A0939901B0939A019CE093
:1012E00088E10FB6F894A895809360000FBE9093A4
:1012F0006000FFCF80919301982F909590FB80F92B
:10130000809393017EC10F900F900F900F900F90DC
:10131000DF91CF911F910F91FF90EF90DF90CF90D1
:10132000BF90AF909F908F900C94221010928601E6
:1013300068C182E08093860164C180E090E00E94F1
:101340001D198C3E9E4F11F00E9422100E94111018
:1013500090938B0180938A0100318CE5180709F482
:10136000BFC008F03FC00830ECE51E0709F496C086
:10137000F0F404302CE5120709F483C068F402305D
:101380008CE5180709F473C003301C4509F0DFC071
:1013900080918A01826072C00630ECE51E0709F474
:1013A0006AC008F077C080918A01886067C00C30FD
:1013B0002CE5120709F481C058F40A308CE51807AF
:1013C00009F470C008F075C080918A01806856C029
:1013D0000E30ECE51E0709F474C008F07DC0809162
:1013E0008A0189C00B3F2CE5120709F44DC008F5AE
:1013F00003318CE5180709F47BC068F40131ECE592
:101400001E0709F471C002311C4509F0A0C080918B
:101410008A018F7733C005312CE5120709F472C0B9
:1014200008F486C00A3F1C4509F091C080918B01E9
:101430003EC00F3F9CE5190709F45FC058F40D3F0B
:10144000FCE51F0709F444C008F43FC080918B01FC
:1014500082602DC001303DE5130709F473C008F424
:101460005DC002301D4509F072C060E06CC0809123
:101470008A01816003C080918A01806180938A0122
:1014800066C080918A0111C080918B018260809337
:101490008B015DC080918A018062F0CF80918A01CA
:1014A0008064ECCF80918A0188608460E7CF81609E
:1014B000EECF80918A018E7FE1CF80918A018D7F6E
:1014C000DDCF80918A01877FD9CF80918B0118C0B1
:1014D00080918B018D7FDBCF80918A018F7ECECF73
:1014E00080918A018F7DCACF80918A018F7BC6CF80
:1014F00080918A01877F8B7FC1CF80918B018D7F07
:101500008E7FC5CF80918A0182FB222720F991E04E
:10151000922790FB82F990FB83F9B0CF80918B01E9
:10152000982F909591708E7F892B90FB81F9AFCF8A
:1015300080918A0187FB222720F991E0922790FB76
:1015400087F99CCF61E08EE090E00E9423196091C2
:101550008A0110918B0184E090E00E942319612F91
:1015600081E290E00E94231910921A010F900F90CF
:101570000F900F900F90DF91CF911F910F91FF90DF
:10158000EF90DF90CF90BF90AF909F908F900C9492
:101590008A17F70100811181C8010E940511D82E18
:1015A000CDCB80911A018A7A91E009F490E0909372
:1015B0001801811122C069E281E391E00E94F70FD6
:1015C00009C08091180181111AC069E281E391E09C
:1015D0000E94EA0F0F900F900F900F900F90DF91E5
:1015E000CF911F910F91FF90EF90DF90CF90BF9020
:1015F000AF909F908F900C948B1065E3DDCF65E3E7
:10160000E5CF0F900F900F900F900F90DF91CF913B
:101610001F910F91FF90EF90DF90CF90BF90AF9010
:101620009F908F900895EF92FF920F931F93CF9307
:10163000DF937C018B010E94BC14811119C0E7016A
:1016400001151105A1F08091E80085FD0AC0809187
:10165000E8008E778093E8000E94BC14882381F311
:1016600007C089918093F10001501109E9CF80E012
:10167000DF91CF911F910F91FF90EF9008951F93ED
:10168000CF93DF93CDB7DEB7AA970FB6F894DEBF3E
:101690000FBECDBFE9E2F1E08091F100819321E03E
:1016A000E133F207C9F780912A01833009F460C061
:1016B00030F4813071F0823009F49CC0B3C08A30BC
:1016C00009F488C08B3009F46BC0893009F0AAC0D6
:1016D00020C080912901813A09F0A4C08091E800DE
:1016E000877F8093E80080912D0190912E01892BB6
:1016F00021F468E08DE191E003C060E080E090E0DB
:1017000070E00E9443158091E8008B778093E80099
:1017100089C080912901813209F084C080912D0116
:1017200090912E01029708F07DC08091E800877F9C
:101730008093E8008091E80082FD05C08091270138
:101740008111F8CF6FC02091F3008091F20090E0FA
:10175000922B029729F48091F1008B7F813021F444
:101760008091F10080931C018091E8008B7756C036
:1017700080912901813A09F055C080912D01909105
:101780002E01892B09F04EC08091E800877F80935D
:10179000E8008091E80080FFFCCF8091000139C013
:1017A000809129018132F1F580912D0190912E01D6
:1017B000892BC1F58091E800877F8093E8000E9423
:1017C000EF1480912B018093000110921A010E9466
:1017D0008A1728C080912901813221F58091E80083
:1017E000877F8093E8000E94EF1480912C01809302
:1017F0001B0118C080912901813AA1F48091E80071
:10180000877F8093E8008091E80080FFFCCF809183
:101810001B018093F1008091E8008E778093E800AF
:101820000E94EF148091E80083FFD8C180912901C4
:1018300090912A01492F50E04A30510508F0CEC15D
:10184000FA01EE59FF4F0C945719803821F0823875
:1018500009F0C4C108C08091250190912601992307
:1018600089F082600FC080912D018F70873008F061
:10187000B5C18093E9008091EB0085FB882780F952
:101880001092E9009091E800977F9093E800809390
:10189000F1001092F10071C1282F2D7F09F09EC137
:1018A000882319F0823061F099C180912B01813039
:1018B00009F094C1933009F080E0809326012EC096
:1018C00080912B0181112AC080912D018F702FEF03
:1018D000280F263008F082C18093E9002091EB00A8
:1018E00020FF1CC0933021F48091EB00806214C073
:1018F0009091EB0090619093EB0021E030E0A90122
:1019000002C0440F551F8A95E2F74093EA001092F7
:10191000EA008091EB0088608093EB001092E90070
:101920008091E800877F2CC1811158C110912B0153
:101930001F778091E3008078812B8093E300809172
:10194000E800877F8093E8000E94EF148091E80010
:1019500080FFFCCF8091E30080688093E300111149
:1019600002C082E001C083E08093270137C1805824
:10197000823008F033C180912B0190912C018C3D75
:1019800053E0950779F583E08A838AE289834FB72C
:10199000F894DE01139620E03EE051E2E32FF0E000
:1019A00050935700E49120FF03C0E295EF703F5F32
:1019B000EF708E2F90E0EA3010F0C79601C0C0960D
:1019C0008D939D932F5F243149F74FBF8091E8009D
:1019D000877F8093E8006AE270E0CE0101960E9462
:1019E0004315BAC040912D0150912E01292F332764
:1019F00023303105B1F068F42130310509F4FDC020
:101A00002230310509F0EAC08BE390E0E6E7F1E02F
:101A100050C02132310581F12232310509F439C03B
:101A2000DDC0992781309105B9F070F082309105C1
:101A3000D9F0039709F0D2C0E3ECF1E0E4918E2FE6
:101A400090E0E3ECF1E032C0EDEFF1E0E4918E2FB5
:101A500090E0EDEFF1E02AC0E9EDF1E0E4918E2FA6
:101A600090E0E9EDF1E022C0E9ECF1E0E4918E2FA5
:101A700090E0E9ECF1E01AC04115510509F4C2C04B
:101A80004130510509F0AAC089E090E0E1EAF1E0B7
:101A900010C04115510509F4BAC04130510509F093
:101AA0009DC086E390E0E0E0F1E003C0009709F418
:101AB00095C02091E800277F2093E80020912F0116
:101AC000309130018217930708F49C0140E0211502
:101AD000310589F180912701882309F43DC08530C3
:101AE000D9F18091E80083FD37C08091E80082FD44
:101AF0002FC08091E80080FFEACF4091F3008091F1
:101B0000F20090E0942B2115310559F088309105B1
:101B100040F444914093F1003196215031090196EF
:101B2000F2CF41E0089709F040E08091E8008E771D
:101B30008093E800CCCF4111CDCF0AC0809127011E
:101B4000882351F0853041F08091E80083FD04C086
:101B50008091E80082FFF2CF8091E8008B7780933C
:101B6000E8003CC08038D1F58091E800877F809301
:101B7000E800809128018093F1008091E8008E7741
:101B80008093E8000E94EF1429C0811127C0809142
:101B90002B0190912C019927029704F58091E80080
:101BA000877F8093E80010912B01109328010E94F9
:101BB000EF14111106C08091E30087FD02C081E09F
:101BC00001C084E08093270142E061EC81E00E9443
:101BD0000E1542E261EC82E00E940E158091E80051
:101BE00083FF1AC08091E800877F8093E80080918E
:101BF000EB0080628093EB000FC082E190E0E1EBAC
:101C0000F1E057CF89E090E0E8E8F1E052CF80E4DE
:101C100090E0E6E3F1E04DCFAA960FB6F894DEBF70
:101C20000FBECDBFDF91CF911F9108951F920F92EC
:101C30000FB60F9211242F933F934F935F936F939F
:101C40007F938F939F93AF93BF93CF93DF93EF9344
:101C5000FF93C091E900CF708091EC00D82FD17034
:101C600080FDD0E81092E9008091F000877F80939A
:101C7000F00078940E943F0B1092E9008091F000F0
:101C800088608093F000CD2BCF70C093E900FF9166
:101C9000EF91DF91CF91BF91AF919F918F917F9104
:101CA0006F915F914F913F912F910F900FBE0F90C9
:101CB0001F901895E8EDF0E080818E7F8083109270
:101CC000E2001092DA001092E100A0EEB0E08C91F8
:101CD00081608C9380818F77808319BCA7EDB0E001
:101CE0008C918E7F8C9380818F7E808310921901DE
:101CF0000895CF92DF92EF92FF920F931F93CF93AD
:101D0000DF93C8EDD0E088818F7E8883E7EDF0E037
:101D100080818160808384E082BF81E080931901AB
:101D200088818E7F888302EE10E0F8011082109285
:101D3000DA0081EEC82ED12CF601108288818F77CF
:101D4000888388818068888388818F7D888319BC97
:101D5000109227011092280110922601109225015D
:101D600090EEE92EF12CF70180818B7F80838881B2
:101D70008160888342E060E080E00E940E15F601F9
:101D800080818E7F8083F801808181608083808163
:101D900088608083F70180818E7F80838881806165
:101DA0008883DF91CF911F910F91FF90EF90DF908B
:101DB000CF9008951F920F920FB60F9211242F9378
:101DC0003F934F935F936F937F938F939F93AF93C3
:101DD000BF93EF93FF938091E10082FF09C0809150
:101DE000E20082FF05C08091E1008B7F8093E100DB
:101DF0008091DA0080FF2AC08091D80080FF26C041
:101E00008091DA008E7F8093DA008091D90080FF84
:101E100018C080E189BD82E189BD09B400FEFDCF13
:101E200081E0809327018091190181110FC00E94E8
:101E30005A0E0E94790E8091E20084608093E20045
:101E400005C019BC10922701109219018091E10080
:101E500080FF17C08091E20080FF13C08091E200F4
:101E60008E7F8093E2008091E20080618093E200A7
:101E70008091D80080628093D80019BC85E080935F
:101E800027018091E10084FF34C08091E20084FF4B
:101E900030C080E189BD82E189BD09B400FEFDCF7B
:101EA0008091D8008F7D8093D8008091E1008F7E53
:101EB0008093E1008091E2008F7E8093E200809128
:101EC000E20081608093E20080912801882311F074
:101ED00084E007C08091E30087FD02C081E001C07B
:101EE00083E08093270110921A010E948A170E94B2
:101EF000D2028091E10083FF27C08091E20083FF3E
:101F000023C08091E100877F8093E10082E080938D
:101F10002701109228018091E1008E7F8093E100DB
:101F20008091E2008E7F8093E2008091E2008061E8
:101F30008093E20042E060E080E00E940E15809114
:101F4000F00088608093F000FF91EF91BF91AF9116
:101F50009F918F917F916F915F914F913F912F91C1
:101F60000F900FBE0F901F9018952FB7F894809187
:101F7000820190918301A0918401B09185012FBFCE
:101F800008951F920F920FB60F9211248F939F9373
:101F9000AF93BF9380918E01811113C08091820114
:101FA00090918301A0918401B09185014196A11D7A
:101FB000B11D8093820190938301A0938401B0931B
:101FC0008501BF91AF919F918F910F900FBE0F90A0
:101FD0001F9018959C012A5F3F4FFC0142814613D8
:101FE00001C01282019682179307B9F708959C01E8
:101FF000FC0132969FEF80E04191461789F09F3FA8
:1020000019F4411101C0982F8F5F8630A9F79F3FC7
:1020100039F0F901E90FF11D97FDFA9562830895F2
:102020000895CF9384E090E00E941519C82F81E2B3
:1020300090E00E9415192C2F30E0A901582BCA01FD
:10204000CF9108956CEE7EEF80E090E00E94411900
:1020500060E082E090E00E94231960E083E090E07D
:102060000E94231910927E0110927F01109280012C
:102070001092810160E084E090E00E94231960E00A
:1020800081E290E00E94231960E085E090E00E94E8
:10209000231960E086E090E00E9423196FEF87E04B
:1020A00090E00E94231940E050E0BA0188E090E0FF
:1020B0000E94351960E08DE090E00E94231940E015
:1020C00050E0BA0188E190E00E94351960E087E1B4
:1020D00090E00E94231940E050E0BA018CE190E0CA
:1020E0000E94351960E080E290E00E94231940E0F0
:1020F00050E0BA018FE090E00E94351940E050E0D6
:10210000BA0183E190E00C94351980917D01811131
:1021100010927D01089590911A0180917C01892B84
:1021200020917B01982F922B9093310180917D011A
:10213000882389F0892B80933101E3E3F1E097E074
:1021400080E0915029F021912223D9F38F5FF9CFBC
:1021500081110E948510E0918C01F0918D013097E2
:1021600031F00280F381E02D81E391E0099408953C
:10217000BF92CF92DF92EF92FF920F931F93CF9374
:10218000DF938C01C0907601D0907701E0907801C8
:10219000F090790180917E0190917F01A091800162
:1021A000B0918101C82AD92AEA2AFB2ACFE1D0E0DE
:1021B000D701C6010C2E04C0B695A79597958795B3
:1021C0000A94D2F780FD04C0219790F7B12C07C084
:1021D000BC2EB8018C2F0E9462030197A9F38B2DAE
:1021E000DF91CF911F910F91FF90EF90DF90CF90F3
:1021F000BF900895CF93DF93EC010E94B810BE0109
:102200000E946203DF91CF910895990F890F682F83
:10221000669566956695982F977085E0689FB001E2
:10222000112440E050E080E0FB01E40FF51FEF587F
:10223000FE4F208130E0092E02C0369527950A9482
:10224000E2F721703327042E01C0220F0A94EAF727
:10225000822B4F5F5F4F4530510531F70895990F3D
:10226000890FE82FE695E695E695877051E001C065
:10227000550F8A95EAF785E0E89FF0011124EF58A1
:10228000FE4F20E030E070E04081CB01022E02C022
:10229000969587950A94E2F7817081958427852326
:1022A000842781932F5F3F4F2530310569F70895CB
:1022B0006093760170937701809378019093790110
:1022C0000C947C170F931F9341E050E060E070E0A6
:1022D00004C0440F551F661F771F8A95D2F740959B
:1022E0005095609570958091760190917701A091BD
:1022F0007801B09179018A019B01082319232A23CF
:102300003B23C901B8011F910F910C9458112091E2
:102310007A018095822380937A01982F977079F4BF
:1023200030E0482F082E000C550B2417350739F0E4
:102330008595859585950E94621110927A01089580
:102340000F931F9341E050E060E070E004C0440F41
:10235000551F661F771F8A95D2F78091760190915D
:102360007701A0917801B09179018A019B01082B36
:10237000192B2A2B3B2BC901B8011F910F910C94EB
:10238000581160937E0170937F0180938001909338
:1023900081010C947C178091700190913F01891705
:1023A00019F08F5F8770FBCF0895CF9380913E0126
:1023B00082958F7009F05FC080913B01882309F4FA
:1023C0005AC080917001B0913F0170913901A09184
:1023D0003A0140913C0150913D0191E07F3F09F06D
:1023E00090E0692FC6E08B1709F445C041155105EF
:1023F00021F0AF3F21F020E003C021E001C0262FF3
:1024000090E020FD35C0C89FF001C99FF00D112458
:10241000E05CFE4F21812A132BC02081271328C0A6
:102420002281211125C0238134812417350710F41E
:1024300021503109241B350B283C3105C8F420916B
:102440003E012F70206120933E0126E0289FF0017D
:10245000299FF00D1124EB5BFE4F80818F7080610E
:10246000808389E391E00E94CD05CF910C94CB113C
:1024700001968770B8CFCF910895AF92BF92CF9257
:10248000DF92EF92FF920F931F93CF93DF93CDB71D
:10249000DEB761970FB6F894DEBF0FBECDBF8C01DB
:1024A00085E0F801DE011D9601900D928A95E1F715
:1024B000D8013C9111962C9111971296EC90509165
:1024C000390160913A0180913C0190913D01009762
:1024D00031F06F3F31F441E05F3F19F403C041E058
:1024E00001C040E0B42FB170BB2E40FD43C1F801E4
:1024F000C380D480A0903B01AA2009F4E2C040919F
:102500003E01C816D90628F0D601A81BB90BCD018B
:1025100004C0809590958C0D9D1DFF24F394883CFC
:10252000910548F0F12C407F09F090C089E391E0DB
:102530000E94CD0517C1842F807F09F052C062131D
:1025400012C0531310C0FE2CE1100DC04F7040613B
:1025500040933E0189E391E00E94CD0580913E01C8
:10256000F801858348C1CD2831F02F3F31F481E057
:102570003F3F19F403C081E001C080E080FD03C04B
:1025800081E08E2502C080E090E0F82FF170FF2EF0
:1025900080FF1CC08091700140913F0156E084177C
:1025A00009F406C190E0589FF001599FF00D1124E5
:1025B000E05CFE4F6181261306C06081361303C0C4
:1025C0006281E61203C001968770E9CFFE2CEE20EF
:1025D00009F411C180913E01816080933E01F12C8C
:1025E0000AC1621308C0531306C0E11004C08091F1
:1025F0003E01F80199C03D872E878D859E850E94FA
:102600005317882369F1EE2059F120913E01822F62
:1026100082958F7090E0029774F0809139019091CB
:102620003A0198878F831986DB86CA862C87CE016C
:1026300007960E94CD0586E0F801A9E3B1E001907C
:102640000D928A95E1F70E94D5110DC0621771F0C5
:102650003D872E878D859E850E94531781111AC054
:10266000C8010E94CD05FF24F394C5C05313F0CFD9
:10267000E110EECF80913E01F8018583C8010E94F0
:10268000CD0586E0E9E3F1E0DF011D928A95E9F7E7
:10269000FA2CB1C0EE2021F320913E01822F8295C9
:1026A0008F7090E002973CF28091390190913A014D
:1026B0009A8389831B82DD82CC822E83CE01019690
:1026C000B8CFC816D90638F0C81AD90AB8ECCB1654
:1026D000D10450F007C0809590958C0D9D1D883CCD
:1026E000910510F0F12C3EC0FE2CEE2009F4B8CF7D
:1026F000621327C0531325C020913E0120FD18C04E
:10270000822F82958F70482F50E04115510581F03E
:10271000F80125834F30510541F08F5F982F929536
:10272000907F822F8F70892B8583C8010E94CD05F1
:1027300086E0F801A9E3B1E001900D928A95E1F7F6
:102740005AC03D872E878D859E850E945317811123
:1027500072CF80913E01816080933E01C8010E944A
:10276000CD0549C0E9E3F1E086E0DF011D928A95DD
:10277000E9F741C0EE2009F473CF3D872E878D85A0
:102780009E850E945317F82E882309F469CF86E0AE
:10279000F801A9E3B1E001900D928A95E1F78091EB
:1027A000390190913A010E94FA100E94D51123C07C
:1027B0003D872E878D859E850E94FA10292F2295B0
:1027C0002F70223028F49F7039F0811105C00BC0A2
:1027D000243028F49F7049F4805E883020F0C801CE
:1027E0000E94CD05BF2CFB2C06C0D80115969C91EC
:1027F000907F91F7F8CF8F2D61960FB6F894DEBFDA
:102800000FBECDBFDF91CF911F910F91FF90EF9041
:10281000DF90CF90BF90AF900895089580911C01F4
:102820000895CF93DF9300D01F92CDB7DEB79C0100
:1028300090918601911105C080912701843049F55E
:1028400004C0923011F0943021F584E089833B83F9
:102850002A8382E08093E9008FEF9091E800815015
:1028600095FD06C095ED9A95F1F700008111F5CF21
:102870008091E80085FF0DC040E050E063E070E02B
:10288000CE0101960E94130B8091E8008E77809311
:10289000E8000F900F900F90DF91CF910895CF93A4
:1028A000DF9300D01F92CDB7DEB7209127012430EF
:1028B00031F523E02983805891099B838A8382E044
:1028C0008093E9008FEF9091E800815095FD06C05C
:1028D00095ED9A95F1F700008111F5CF8091E80010
:1028E00085FF0DC040E050E063E070E0CE0101964E
:1028F0000E94130B8091E8008E778093E8000F9080
:102900000F900F90DF91CF910895CF93DF93209197
:102910008601211103C02091270102C0223011F04D
:10292000243039F521E02093E9002FEF3091E800C1
:10293000215035FD06C035ED3A95F1F70000211123
:10294000F5CF2091E80025FF14C0EC0140E050E0F5
:1029500068E070E00E94130B8091E8008E7780930E
:10296000E80088E0FE01ADE1B1E001900D928A95AA
:10297000E1F7DF91CF9108952091E4003091E500D7
:1029800095E64091EC00842F817040FF23C0809138
:10299000E80080FD1DC080912701882399F08530D3
:1029A00099F08091EB0085FD11C04091E4005091B9
:1029B000E5002417350729F3915011F09A01E1CF72
:1029C00084E0089582E0089583E0089581E0089509
:1029D00080E008954091E80042FFDDCF08958091A6
:1029E000290187FF11C08091E80082FD05C0809118
:1029F00027018111F8CF11C08091E8008B770BC0BF
:102A000080912701882349F08091E80080FFF8CF6A
:102A10008091E8008E778093E8000895982F973092
:102A200068F59093E900981739F07091EC002091C7
:102A3000ED005091F00003C0242F762F50E021FDCF
:102A400002C09F5FECCF3091EB003E7F3093EB00F4
:102A50003091ED003D7F3093ED003091EB0031601F
:102A60003093EB007093EC002093ED005093F00056
:102A70002091EE0027FDE5CF80E008958F708093D0
:102A8000E90081E0089520912F013091300126174F
:102A9000370748F06115710539F42091E8002E7769
:102AA0002093E80001C0B901FC0120E06115710527
:102AB00079F1809127018823F1F18530F1F180913E
:102AC000E80083FD3CC08091E80082FD2EC080912B
:102AD000E80080FFEBCF2091F3008091F20090E0BE
:102AE000922B6115710551F08830910538F42191D0
:102AF0002093F100615071090196F3CF21E008970E
:102B000009F020E08091E8008E778093E800CECF36
:102B10002111CFCF0AC080912701882361F0853031
:102B200061F08091E80083FD0AC08091E80082FF97
:102B3000F2CF80E0089582E0089583E0089581E077
:102B40000895CF93DF93CDB7DEB72A970FB6F894E9
:102B5000DEBF0FBECDBF84B7877F84BF0FB6F894AA
:102B6000A895809160008861809360001092600059
:102B70000FBE80E8809361001092610085B7806885
:102B800085BF85B7806885BF0E945A0E0E94790E66
:102B90008091E20084608093E20078948091270124
:102BA0008823A1F01091E9001F709091EC00892F0B
:102BB000817090FD80E8182B1092E9008091E80068
:102BC00083FD0E943F0B1F701093E90082E084BDDB
:102BD00093E095BD9AEF97BD80936E00ABE0B1E0B6
:102BE0004EE051E061E070E08D91E82FE295EF70EA
:102BF000F0E021A18F708B0102C0000F111F8A9598
:102C0000E2F7C801902F9095922391A392A1892B6E
:102C100082A34A175B0741F75198599A6E98769AA2
:102C20001092870110928F011092880110929001EA
:102C3000109289011092910180E090E00E941D198C
:102C40008C3E9E4F11F00E94221080E090E00E9486
:102C50001D198C3E9E4F11F00E94221082E090E0E0
:102C60000E941519809393010E94111090938B017B
:102C700080938A0183E090E00E941519682F70E02C
:102C800080E090E00E94C11181E091E090938D017D
:102C900080938C0199249A94CC24C394D12C90E1F4
:102CA000792E22E1822E38E1A32EB12C40E4642E4D
:102CB00080912701853009F039C080912701843047
:102CC00009F110928E010FB6F894A895A0926000B9
:102CD0000FBE6092600083B7817F846083BF83B73B
:102CE000816083BF7894889583B78E7F83BF0FB64A
:102CF000F894A8958091600088618093600010929C
:102D000060000FBE80912601882391F20E94DE02AE
:102D100080918F01811163C08091900181115FC00A
:102D200080919101882309F4C3CF59C00E94DE022B
:102D3000EFE8F1E0A4E9B1E000E010E0302F81918C
:102D40009D91982761F190FD05C091FF28C091E009
:102D500021E002C090E020E029833A83760102C09E
:102D6000EE0CFF1C9A95E2F790E08E219F2121E066
:102D7000892B09F420E02B830E94B50F8160782F06
:102D80009D838C8349815A816B818D810E940802C9
:102D9000F801EC56FE4F8081E826E08214C00F5FF8
:102DA0001F4F0330110551F69E829F8218860E94A4
:102DB000B50F8160782F9A8789874E815F816885FA
:102DC0008A850E9408020E94D2029091920189177E
:102DD00009F46ECF0E94D2028093920169CF79BC30
:102DE00089BC09B400FEFDCF8091D8008F7D80930F
:102DF000D8008091E00082608093E0008091E00044
:102E000081FDFCCF55CF78941F920F920FB60F9291
:102E100011248F939F93AF93BF93809182019091E0
:102E20008301A0918401B09185010196A11DB11D7E
:102E30008093820190938301A0938401B0938501D4
:102E4000BF91AF919F918F910F900FBE0F901F90E8
:102E50001895CF92DF92EF92FF920F931F932FB7A7
:102E6000F8944091820150918301609184017091A6
:102E700085012FBF6A017B01EE24FF248C0120E035
:102E800030E0C016D106E206F30610F441505109B5
:102E90009A01281B390BC9011F910F91FF90EF90E8
:102EA000DF90CF9008950E94FA10292F2F70E92FFC
:102EB000E295EF704E2F50E0FA013297EE30F105B7
:102EC000B8F4E459FF4F0C945719803F99F018F467
:102ED000883E70F40FC0843F59F40CC0883E50F017
:102EE000813F31F407C0822F869586958695089597
:102EF00080E0089581E0089510927C0110927B019A
:102F00000E948B1080E090E00E94BC0280E090E084
:102F10000C94A60286E0E3E3F1E0DF011D928A95BE
:102F2000E9F70C947C17882341F0809590911A0161
:102F3000892380931A010C948B100895882339F00B
:102F400090911A01892B80931A010C948B1008958B
:102F5000882309F458C0682F823869F40E94D2028D
:102F600081FF51C069E381E391E00E94F70F0E9465
:102F70008B1069E30EC0833891F40E94D20280FF67
:102F800042C063E581E391E00E94F70F0E948B103D
:102F900063E581E391E00E94EA0F0C948B10843882
:102FA00069F40E94D20282FF2EC067E481E391E0BF
:102FB0000E94F70F0E948B1067E4EBCF8CEF860F17
:102FC000813A38F380E2860F883070F4677081E0D0
:102FD00090E001C0880F6A95EAF7809590911A01F8
:102FE000892380931A01D9CF8BE5860F833020F493
:102FF00080E090E00C94BC02685A673120F480E0D5
:1030000090E00C94A6020895882309F40DC1682F5E
:103010008238B1F40E94D20281FD06C169E381E3E6
:1030200091E00E94F70F0E948B102FEF81EE94E049
:10303000215080409040E1F700C0000069E317C0D4
:103040008338D9F40E94D20280FDEEC063E581E3AB
:1030500091E00E94F70F0E948B102FEF81EE94E019
:10306000215080409040E1F700C0000063E581E31B
:1030700091E00E94EA0F0C948B108438B1F40E9406
:10308000D20282FDD1C067E481E391E00E94F70F94
:103090000E948B102FEF81EE94E0215080409040F1
:1030A000E1F700C0000067E4E2CF8CEF860F813AC1
:1030B00028F481E391E00E94F70FDDCF80E2860FD4
:1030C000883068F4677081E090E001C0880F6A95ED
:1030D000EAF790911A01892B80931A01CCCF8BE5E6
:1030E000860F833070F4653A29F0663A31F083E850
:1030F00090E005C081E890E002C082E890E00C9486
:10310000BC0288E5860F873108F08EC0683A09F462
:1031100045C0693A09F445C06A3A09F445C06B3ABA
:1031200009F445C06C3A09F445C06B3B09F445C04D
:103130006C3B09F445C06D3A09F445C0603B09F4A5
:1031400045C06E3A09F445C06F3A09F445C0613B89
:1031500009F445C0623B09F445C0633B09F445C02E
:10316000643B09F445C0653B09F445C0663B09F47E
:1031700045C0673B09F445C0683B09F445C0693B5D
:1031800009F445C06D3B09F445C06E3B09F445C0E8
:103190006A3B09F445C080E090E044C082EE90E0D4
:1031A00041C089EE90E03EC08AEE90E03BC085EBE6
:1031B00090E038C086EB90E035C083EB90E032C001
:1031C00084EB90E02FC087EB90E02CC08CEC90E07B
:1031D00029C08DEC90E026C083E891E023C08AE806
:1031E00091E020C082E991E01DC084E991E01AC01D
:1031F00081E292E017C083E292E014C084E292E0A0
:1032000011C085E292E00EC086E292E00BC087E238
:1032100092E008C08FE690E005C080E790E002C031
:103220008AE292E00C94A6020895F999FECF92BD2D
:1032300081BDF89A992780B50895A8E1B0E042E0F1
:1032400050E00C944919262FF999FECF92BD81BD0B
:10325000F89A019700B4021639F01FBA20BD0FB6D4
:10326000F894FA9AF99A0FBE08950396272F0E94B0
:1032700024190E942319252F0E942419242F0C940D
:1032800024190196272F0E9424190C942319DC017C
:10329000CB01FC01F999FECF06C0F2BDE1BDF89A61
:1032A000319600B40D9241505040B8F70895EE0F9A
:0E32B000FF1F0590F491E02D0994F894FFCFD4
:0E32BE00010E1485140D144F141114F736F47C
:00000001FF
