:100000000C94A5020C94DD020C94DD020C94DD022C
:100010000C94DD020C94DD020C94DD020C94DD02E4
:100020000C94DD020C94DD020C94DD020C945D2630
:100030000C940E270C949F210C94DD020C94DD028D
:100040000C94DD020C94DD020C94DD020C9426224B
:100050000C94DD020C94DD020C94DD020C94DD02A4
:100060000C94DD020C94DD020C94DD020C94DD0294
:100070000C94DD0229001E001F0020002100220038
:10008000230024002500260027002A002B0014004E
:100090001A000800150017001C0018000C001200C0
:1000A000130031004A0004001600070009000A008E
:1000B0000B000D000E000F0033003400E1001D00A6
:1000C0001B00060019000500110010003600370063
:1000D00038002800E000E3000000E2002C000000EF
:1000E00000002C0021520000E600E4003500000072
:1000F00000000000000000000000000000002D00D3
:100100002E004C003A003B003C003D003E003F000A
:100110004000410042004300440045000000000050
:1001200000000000000000000000000000000000CF
:100130004A004B00E1005000520051004F00000007
:1001400000000000000000004D004E00E000E30051
:100150000000E200000000000000000001000000BC
:10016000E600E4001E0F0500047F3F1F64321464A4
:100170003214783C1E1E140A052223252628292A1B
:100180002C2D2F3032333536383A3B3D3E404243FA
:100190004547494A4C4E5051535557595A5C5E6039
:1001A00062646668696B6D6F71737577797B7D7F4B
:1001B00081838587898A8C8E90929496989A9C9E4A
:1001C0009FA1A3A5A7A8AAACAEAFB1B3B4B6B8B966
:1001D000BBBCBEBFC1C2C3C5C6C7C9CACBCCCDCECE
:1001E000D0D1D2D2D3D4D5D6D7D7D8D9D9DADADBB1
:1001F000DBDBDCDCDCDCDCDDDDDDDDDCDCDCDCDC3D
:10020000DBDBDBDADAD9D9D8D7D7D6D5D4D3D2D27B
:10021000D1D0CECDCCCBCAC9C7C6C5C3C2C1BFBE63
:10022000BCBBB9B8B6B4B3B1AFAEACAAA8A7A5A3CE
:10023000A19F9E9C9A98969492908E8C8A8987858D
:1002400083817F7D7B79777573716F6D6B6968666C
:100250006462605E5C5A5957555351504E4C4A493E
:1002600047454342403E3D3B3A3836353332302FE6
:100270002D2C2A292826252322FFAA7F554000015C
:100280000101010101010101020202020202020256
:100290000203030303030303030404040404040428
:1002A00005050505050606060606070707070708EC
:1002B000080808090909090A0A0A0B0B0B0C0C0C9F
:1002C0000D0D0D0E0E0E0F0F0F1010111111121239
:1002D00013131414151516161717181819191A1AB6
:1002E0001B1B1C1D1D1E1E1F202021222223242417
:1002F000252626272829292A2B2C2D2D2E2F303153
:100300003232333435363738393A3B3C3D3E3F4064
:100310004142434445464748494A4C4D4E4F50514F
:100320005354555658595A5B5D5E5F616264656609
:1003300068696B6C6D6F7072737577787A7B7D7E90
:100340008082838587888A8C8E8F91939596989AE0
:100350009C9EA0A2A3A5A7A9ABADAFB1B3B5B7BAF8
:10036000BCBEC0C2C4C6C9CBCDCFD1D4D6D8DBDDCC
:10037000DFE2E4E7E9EBEEF0F3F5F8FAFDFF000069
:100380000000000000002A2B2800000000000000F0
:1003900000000000000000000029000000002C1EEA
:1003A0003420212224342627252E362D3738271EA7
:1003B0001F202122232425263333362E37381F04CD
:1003C00005060708090A0B0C0D0E0F101112131465
:1003D00015161718191A1B1C1D2F3130232D350423
:1003E00005060708090A0B0C0D0E0F101112131445
:1003F00015161718191A1B1C1D2F3130354C00000B
:1004000000000000000000000000000000000000EC
:1004100000000000000000000000000000000000DC
:1004200000007E0F00D4FFFFFFC7000000780C0320
:1004300051005500410052004B0000000A034E00DD
:1004400061007300700000000403090409023B000E
:10045000020100A0FA0904000001030101000921C2
:10046000110100012244000705810308000109046D
:1004700001000103000000092111010001226D00AB
:10048000070582032000011201000200000008702D
:1004900070405301000102000105010980A101859E
:1004A0000319012AB700150126B7009501751081BF
:1004B00000C0050C0901A101850419012AA002153B
:1004C0000126A002950175108100C005010906A151
:1004D000018506050719E029E7150025019508752E
:1004E0000181020507190029EF1500250195F07516
:1004F00001810205081901290595057501910295EB
:100500000175039101C005010906A101050719E064
:1005100029E71500250195087501810295017508E7
:1005200081010507190029FF150026FF00950675B2
:100530000881000508190129051500250195057593
:10054000019102950175039101C011241FBECFEFE7
:10055000D4E0DEBFCDBF04B603FE18C080918F0388
:1005600090919003A0919103B09192038730904BAA
:10057000A740B04B59F410928F0310929003109241
:10058000910310929203E0E0F8E3099511E0A0E0F6
:10059000B1E0E8EAF6E502C005900D92A03EB10791
:1005A000D9F723E0A0EEB1E001C01D92AF38B20749
:1005B000E1F70E944E130C94B72A0C940000282FE8
:1005C0008230E0F46530D0F44C30C0F4862F90E0F7
:1005D0006CE070E00E94BE28FC01E40FF11D822F48
:1005E00090E06CE370E00E94BE28E80FF91FEE0F68
:1005F000FF1FEC58FF4F85919491089581E090E0A2
:1006000008950E94DF0208959C013A9521153F410B
:1006100050F5FC01EE27F170BC0166277270AC0149
:10062000442754709C012227387094FF0EC080E14B
:10063000EF2B09F480E0672B09F08062452B09F06D
:100640008064232B89F08068089581E0EF2B09F402
:1006500080E0672B09F08260452B09F08460232B32
:1006600019F08860089580E00895CF93DF93EB013F
:100670000E940403FE010995DF91CF910895CF9365
:10068000DF93EC01805E9109089720F067E278E043
:10069000209711F46EEE75E0CE010E9435038C2F89
:1006A0000E94EE04DF91CF910895CF93DF93EC0188
:1006B0000E947C05CE01805E9109089720F06EE2D1
:1006C00078E0209711F465EF75E0CE010E943503C4
:1006D000DF91CF9108950F931F93CF93DF938C01F8
:1006E000EB010E943F03209741F4C8010E9455038B
:1006F000DF91CF911F910F9108958FE99FE00197AE
:10070000F1F700C000002197EECF70E060E0893380
:10071000910511F460E570E00E946B03089581E09B
:1007200008950E948F03089581E008950E948F0329
:1007300008950E949603089508950E949C030895C9
:10074000A6E0B0E0E6EAF3E00C94612949835A831D
:100750009E833091E70189819A8131111AC03E81CF
:10076000332399F0222389F00E949B09182F682FC8
:1007700089819A810E94720969817A81812F0E9400
:10078000AF102696E3E00C947D290E948709182F6C
:10079000F3CF0E949B0969817A81F1CFFC01262F5A
:1007A0004081518162817381848195810E94A0037F
:1007B0000895CF93DF93EC0161E00E94CE03BE0168
:1007C0000E949103DF91CF910895CF93DF93EC01C5
:1007D00060E00E94CE03BE010E949D03DF91CF9195
:1007E000089508950E9447080E94F1032FEF84E3C3
:1007F0009CE0215080409040E1F700C00000089547
:100800000E94F2030E944A2208950E94F2030E946D
:100810006E2208950F931F93CF93DF938C0161E0B5
:100820000E94CE03EC01B8010E949903811106C019
:1008300080E0DF91CF911F910F910895B801CE0113
:100840000E945E1B8823A1F3B801CE010E94E01F25
:10085000882371F3B801CE010E94CE1C882341F396
:10086000B801CE010E94521F882311F3B801CE01B6
:100870000E94B11A8823E1F2F8018581882361F092
:10088000C330FCE7DF07E9F058F4C115ECE7DE07F9
:10089000A9F0C130DC47B9F0C8010E949403C9CF68
:1008A000CB358CE7D807A9F0CC35ECE7DE0771F043
:1008B000CA35DC4789F70E94DA0DEECF0E940004AA
:1008C000B7CF0E94E20D0E940504B2CF0E94D00D66
:1008D000E3CF0E94DE0DE0CF0E9481210E949304AD
:1008E00008950E9497040E9486210895089581E04A
:1008F00008950895CF93DF93D82F0E947704C82FCF
:10090000882319F08D2F0E9479048C2FDF91CF91CD
:1009100008950895CF93C82F0E9476048C2F0E94CB
:100920007A04CF91089580E00E948A0408950E947D
:1009300029200E948A040895CF930E942920C82F5D
:100940008091E2018C1779F0C093E2010E940B22A2
:100950006093E3017093E4018093E5019093E601D5
:100960008C2F0E948A04CF910895ADE0B0E0EBEBAC
:10097000F4E00C946229488759876A877B878C87C3
:100980009D8791110E94080D1F8286E0FE01389616
:10099000DE01119601900D928A95E1F78D8181110A
:1009A0000DC029813A814B815C816D817E818F816F
:1009B0000E94330C2D96E2E00C947E29CE01019624
:1009C0000E94D9038111EDCFF5CFFC0124812130A4
:1009D00021F4808191810E94CD090895CF93C82F81
:1009E0008823C9F08238C9F40E94362081FD13C0E3
:1009F00089E30E94BD0C0E94410D2FEF87EE93E02A
:100A0000215080409040E1F700C0000089E30E943F
:100A1000C50C0E94410DCF9108958338A1F40E9426
:100A2000362080FDF8CF83E50E94BD0C0E94410D69
:100A30002FEF81EE94E0215080409040E1F700C01C
:100A4000000083E5E4CF8438A1F40E94362082FDC3
:100A5000E2CF87E40E94BD0C0E94410D2FEF81EE92
:100A600094E0215080409040E1F700C0000087E40E
:100A7000CECF8CEF8C0F813AB8F48C2F0E941B1FC5
:100A80008111C9CF6C2F80910401909105010E94C2
:100A9000B120882329F08C2F0E94C50C0E94410DA3
:100AA0008C2F0E94BD0CB5CF80E28C0F883048F4AB
:100AB000C77081E001C0880FCA95EAF70E94E80C70
:100AC000A8CFEBE5EC0FE33040F4F0E0E85AFE4F3E
:100AD000808190E00E9453209ECFC85ACB3108F00D
:100AE0009ACFEC2FF0E0EE0FFF1FEE5DFE4F8081FE
:100AF00091810E9478208FCF882309F44DC08238DD
:100B000079F40E94362081FF47C089E30E94BD0C22
:100B10000E94410D89E30E94C50C0E94410D089579
:100B2000833859F40E94362080FF36C083E50E9446
:100B3000BD0C0E94410D83E5EECF843859F40E942C
:100B4000362082FF29C087E40E94BD0C0E94410D1F
:100B500087E4E1CF9CEF980F913AE8F290E2980F8A
:100B6000983050F4877091E001C0990F8A95EAF7A8
:100B7000892F0E94EE0CD1CF9BE5980F933028F47B
:100B800090E080E00E9453200895885A8B3120F431
:100B900090E080E00E94782008951F93CF93DF9328
:100BA000182FEB010E94EE04209739F4812F0E9448
:100BB0007C05DF91CF911F9108958FE99FE0019708
:100BC000F1F700C000002197EFCF70E060E08933BB
:100BD00011F460E570E00E94CD050895882321F0AE
:100BE0000E94E80C0E94410D0895882321F00E9484
:100BF000EE0C0E94410D0895B0E0A0E0E2E0F6E0C6
:100C00000C945B296C01D62FC72FFC01158106813E
:100C100002950F700E94DE0CE82E8823E9F0E12E89
:100C20001123D1F08C2F807F803451F080E28D0F22
:100C30008830F8F0011104C08C2F807E8032C9F01A
:100C40008091340382FF15C082E00E94A40D0E94AF
:100C5000DE0C91E0E82EE926BC2EB2949FE0B9228A
:100C6000FBE0FB15B8F1EB2DF0E0E754F54D0C94EB
:100C70004C29E12CF1CF0C2F0F70C07F11F00295A1
:100C8000007F112399F0002359F080E28D0F883006
:100C900010F0D11107C0802F0E94E80C0E94410D76
:100CA0008D2F5AC0802F0E94FB0CF8CF8D2F0E94F1
:100CB0007C05002379F080E28D0F883010F0D1118F
:100CC00004C0802F0E94EE0C03C0802F0E94010DF3
:100CD0000E94410DEB2DE850FF0B349720F40E9449
:100CE00029200E948A04EE2089F00E94DA0C80FDFF
:100CF0000DC0F60115820E94D40C0E94D008C601D6
:100D00000E9404080E94D40C0E94E008CDB7DEB710
:100D1000E9E00C9477292C2F2F70F22EC07FC0327F
:100D200019F0F29480EFF822DD2341F0D130D1F1B7
:100D3000112309F444C00023F1F0B2CF80913403B1
:100D400082FD15C0112359F0FF2029F08F2D0E943C
:100D5000E80C0E94410D80E00E94EE04BBCF80E0D1
:100D60000E947C05FF2009F4B5CF8F2DABCF112356
:100D700069F0011104C08F2D0E94EE05ABCF013048
:100D800009F0A8CF8F2D0E941F0DA4CF0111A2CF73
:100D90008F2D0E94F5058F2D0E942B0D8F2D0E9407
:100DA0000F0D98CF112321F0063008F093CFE3CF39
:100DB000053008F08FCF8F2D0E94F5058BCF0023D3
:100DC000D1F3D93349F43FEF87EE93E031508040BF
:100DD0009040E1F700C000008D2F0E947C057ACF83
:100DE0008C2F86958695837069F0813009F072CFDB
:100DF0008D2F9C2F9370111102C080E090E00E9413
:100E0000782068CF8D2F9C2F9370111102C080E045
:100E100090E00E9453205ECF8C2F8370A1F51111BA
:100E200059CF4D2F429546954770440F440F2D2FB3
:100E30002F7030E0042E02C0220F331F0A94E2F715
:100E400090E080E0D4FF09C08FE090E002C0880FFE
:100E5000991F4A95E2F780959095C695C695C370FF
:100E6000822B932BC23049F058F4C13019F00E9404
:100E7000A00830CF0E9497082DCF0E94A9082ACF42
:100E80000E94940827CF8695112311F08C2F817032
:100E9000882309F41FCF4D2F429546954770440F84
:100EA000440F2D2F2F7030E0042E02C0220F331F6D
:100EB0000A94E2F790E080E0D4FF09C08FE090E070
:100EC00002C0880F991F4A95E2F780959095C695C4
:100ED000C695C370822B932BC23049F058F4C130B1
:100EE00019F00E940B09F6CE0E940209F3CE0E946F
:100EF0001409F0CE0E94B808EDCECF70112329F06E
:100F00008C2F0E94D0088D2F37CF8D2F0E94F50592
:100F10008C2F0E94E008DECED23F41F160F4D03F3A
:100F2000B9F0D13F81F0112309F446C00111B8CEC8
:100F30008C2F8F711FC0D33F01F1D43FA1F7809157
:100F4000340382FD24C08C2F8F71112311F312C042
:100F5000112341F0053008F0BDCE8C2F8F710E9417
:100F6000F208B8CE063008F0B5CEF7CF8C2F8F71CF
:100F70001111CFCF0E94D008ADCE112329F08C2FB4
:100F80008F710E94C408A6CE0E94BF08A3CE112371
:100F900049F0CF718C2F0E94D00863E08C2F0E9403
:100FA000860D98CE81E00E94A40D023008F492CE06
:100FB00082E00E94A40D8ECE002359F0D93309F0AF
:100FC0000BCFEFEFF7EE23E0E150F0402040E1F7E8
:100FD00001CF8C2F8F719DCF0F931F93CF93DF93F2
:100FE000EC01688179818D810E94D8098C010E9471
:100FF0001D090E949308B801CE010E94FC05DF91F3
:10100000CF911F910F910895CF93DF93EC018C81C5
:10101000882399F0CE010E940A04811111C00E9418
:10102000DE0C882351F08D81882339F080913403C0
:1010300082FF03C082E00E94A40DDF91CF9108954A
:10104000CE010E94EC07CE010E94E503F6CF882373
:1010500021F00E94FB0C0E94410D0895882321F08D
:101060000E94010D0E94410D089590E080E00E94D1
:10107000532090E080E00E9478200E94080D0E949A
:10108000410D08950E94CD0C0E94350808950E94DC
:10109000F80C0E944208089592959F70963091F046
:1010A00058F4925F9F70923058F4803F19F030F4FA
:1010B000883E30F481E008959A5FF4CF843FD1F305
:1010C00080E00895883EB0F3813FD1F7F3CFFC0173
:1010D0002481222339F0808191810E94CD090E94D0
:1010E0004C08089580E00895A6E0B0E0EAE7F8E053
:1010F0000C9462292696E2E00C947E29A7E0B0E0E9
:10110000E4E8F8E00C9462292796E2E00C947E294A
:1011100008950E94880808950E94890890930B0200
:1011200080930A02089508950E948C0808952091E2
:101130000A0230910B02822B932B0E948C08089597
:1011400020910A0230910B02822393230E948C0883
:10115000089520910A0230910B02822793270E9462
:101160008C0808950E94880808950E94B208089586
:101170000E94B5089093090280930802089590E0B8
:1011800080E00E94B808089521E030E0A90102C083
:10119000440F551F8A95E2F7CA010E94B8080895C6
:1011A00021E030E002C0220F331F8A95E2F78091E0
:1011B000080290910902822B932B0E94B80808958F
:1011C00021E030E002C0220F331F8A95E2F720951C
:1011D00030958091080290910902822393230E9406
:1011E000B808089521E030E002C0220F331F8A952D
:1011F000E2F78091080290910902822793270E94CA
:10120000B80808952091080230910902822B932B8F
:101210000E94B808089520910802309109028223A3
:1012200093230E94B8080895209108023091090282
:10123000822793270E94B80808950895262F2770C3
:1012400091E001C0990F2A95EAF723E0769567951A
:101250002A95E1F7660F771F660F771FFA01E60FF1
:10126000F71F50E040E0682F70E08191DF01119797
:101270009B01042E02C0369527950A94E2F721704F
:1012800021952827292328272C934F5F5F4F44302F
:10129000510559F70895A82FA77023E096958795D3
:1012A0002A95E1F7880F991F880F991FFB01E80F16
:1012B000F91F50E040E080E0219130E00A2E02C0AA
:1012C000369527950A94E2F721703327042E01C042
:1012D000220F0A94EAF7822B4F5F5F4F443051058B
:1012E00059F70895282F362F953080F48C3070F4FC
:1012F000892F90E06CE070E00E94BE28BC01620F74
:10130000711D48EE51E0832F0E941E090895282F79
:10131000953078F48C3068F4892F90E06CE070E0C0
:101320000E94BE2868EE71E0820F911D0E944B0959
:10133000089580E00895B0E0A0E0E1EAF9E00C94BF
:101340005B297C01009108021091090280910A0238
:1013500090910B02082B192BCFE0D0E0CC24C39442
:10136000D12CBC2EC6010C2E02C0880F991F0A94E6
:10137000E2F780239123892B49F4219790F7B12C30
:101380008B2DCDB7DEB7E9E00C947729B7018C2F10
:101390000E94BB10019789F3F3CFCF93DF93EC0149
:1013A0000E949B09BE010E94BB10DF91CF9108955E
:1013B0001F93CF93DF93EB019091E701992339F0CD
:1013C000CB010E94CD09DF91CF911F910895882311
:1013D00069F0CB010E949B09182F682FCE010E9453
:1013E0007209BE01812F0E94BB10EDCFCB010E947C
:1013F0008709182FF6CFCF93DF93C0910C0280910D
:101400000D028C1303C0DF91CF910895D0E0CE017F
:1014100067E070E00E94BE28FC01E25FFD4F208182
:101420003181428153816481758186810E947E0869
:101430002196C770E4CF2091460230914702409137
:1014400048025091490260914A0270914B0280918A
:101450004C020E947E080895CF93DF9380914C0246
:10146000807F09F04FC080914B02882309F44AC065
:1014700020910C0240910D02A0914702B0914602CA
:10148000C0914802D09149024217E1F130E0C90110
:1014900067E070E00E94BE28825F9D4FFC0184815E
:1014A000882399F1C90167E070E00E94BE28FC0121
:1014B000E25FFD4F81818A1328C080818B1325C094
:1014C0008581811122C0828193818C1B9D0B883C78
:1014D0009105D8F480914C028F70806180934C020A
:1014E000C90167E070E00E94BE28FC01EC5EFD4F80
:1014F00090819F709061908386E492E00E9404083E
:101500000E94FB09DF91CF9108952F5F3F4F277015
:10151000BBCFA82FB62F20910C0240910D022413AF
:1015200002C080E0089530E0C90167E070E00E94E9
:10153000BE28FC01E25FFD4F8181B81306C08081A7
:10154000A81303C085818111EDCF2F5F3F4F277016
:10155000E6CFA4E1B0E0EFEAFAE00C9458298C0160
:1015600086E0F801DE011F9601900D928A95E1F761
:10157000F8018481E58096E4A92E92E0B92E90913D
:101580004A0291111FC08823D1F0EE20A9F0C801B2
:101590000E946708F82E882379F087E0F801D501CA
:1015A00001900D928A95E1F7C5010E94E5040E9421
:1015B0002C0A0E941B0A5FC0C8010E940408FF2475
:1015C000F39459C0C080D18082809380F0904B0208
:1015D0002091480230914902A401421B530BFF2085
:1015E00009F4F9C0483C510508F0A7C0882309F464
:1015F00042C09091470280914C02282F207F09F031
:101600005CC09D1116C090914602C91212C0E11033
:101610004EC08F70806180934C020E941B0A86E44A
:1016200092E00E94040880914C02F8018683F12C1C
:1016300022C0E1103CC06D2D8C2D0E94890A6D2DB9
:101640008C2D0E94890AE82E8111F1CFCF86D88A8D
:101650008F8598890E94CD09292F22952F702430DB
:1016600078F49F702230A8F09923B9F0F8019681A0
:10167000907F99F4FE2C8F2D6496ECE00C947429E5
:101680002A5F2F70223068F0C8010E940408EF2CF6
:10169000F1CF992311F0882369F3805E883050F3ED
:1016A000F3CF803F38F3815F833070F7E3CF8091D1
:1016B0004C02816080934C02BACF9D1113C090916F
:1016C0004602C9120FC0E1100DC08683C8010E94F6
:1016D000040887E0F801A6E4B2E001900D928A9533
:1016E000E1F767CFC8010E946708882309F464CF37
:1016F000EE2009F461CF80914C02803288F0209175
:10170000460230914702398728879B868A869091C6
:101710004A029C871D868E87CE0108960E94040887
:1017200087E0F801A6E4B2E001900D928A95E1F716
:101730000E942C0A0E941B0A42CF90914C02292F32
:10174000207FA1F4682D9A8A898AA6017A899E2D24
:101750000E94740886E492E00E94040887E0F50184
:1017600011928A95E9F70E941B0A61CF882309F438
:1017700082CF809147028D1110C080914602C8121D
:101780000CC0E1100AC09683C8010E94040887E0DB
:10179000F50111928A95E9F76ECFC8010E9467089A
:1017A000882309F409CFEE2009F406CF80914C027A
:1017B000803208F4B5CF20914602309147023A8337
:1017C00029839C828B8290914A029D831E828F8303
:1017D000CE010196A3CF483C5105B8F5882309F402
:1017E000EECEFE2CEE2009F4E7CE809147028D115B
:1017F0001EC080914602C8121AC080914C0280FD22
:101800000DC0982F907F51F08683903F09F45ECFF2
:10181000982F907F905F8F70892B57CF87E0F801CA
:10182000A6E4B2E001900D928A95E1F724CFC801B9
:101830000E946708811174CF80914C02816080936F
:101840004C02C8010E94040816CF682D9A8A898A22
:10185000A6017A899E2D0E94740887E0F5011192F5
:101860008A95E9F7A6CEAEE0B0E0E9E3FCE00C949F
:101870006229288739874A875B876C877D878E87AF
:10188000CE0108960E94A90A8823A9F06C856623D8
:1018900041F0288539854A855B857D858E850E9446
:1018A0007E0880910C0290910D0289133EC02E9605
:1018B000E2E00C947E2987E0FE013896DE01119665
:1018C00001900D928A95E1F78C85882351F38091E0
:1018D0000D0290E09C012F5F3F4F2770332740910E
:1018E0000C024217130699F067E070E00E94BE28D0
:1018F000DC01A25FBD4F97E0FE01319601900D9291
:101900009A95E1F720930D020E94FB09CACF0E942D
:10191000470810920D0210920C0287E0E6E4F2E014
:10192000DF011D928A95E9F7BCCF90E067E070E097
:101930000E94BE28825F9D4F0E94A90A882309F455
:10194000B6CF80910C0290E067E070E00E94BE2864
:10195000FC01E25FFD4F208131814281538164812E
:10196000758186810E947E0880910C0290E001962C
:101970008770992780930C0294CF682F809104017F
:10198000909105010E9431210895682F80910401F2
:10199000909105010E943F2108958091040190914A
:1019A00005010E944D21089580916D0286958695CE
:1019B0008695089580916D028770089590916D02CB
:1019C000977081E009F480E0089580919102089574
:1019D00090919102892B8093910208958095909126
:1019E0009102982390939102089580939102089513
:1019F00010929102089590919002892B8093900209
:101A00000895809590919002982390939002089564
:101A100010929002089508950E940B0D08959091E0
:101A20006E02292F282331F08095892380936E023E
:101A30000E940C0D089508950E941B0D0895909129
:101A40006F02292F2823281729F0982B90936F02D3
:101A50000E941C0D089590916F02292F282331F0C8
:101A60008095892380936F020E941C0D08958091B8
:101A70006F02882329F010926F0280E00E941C0DF3
:101A80000895CF93DF93E0910401F09105018091D7
:101A900091028083E0910401F09105018081909191
:101AA0009002892B808390916F02992381F0E091BD
:101AB0000401F09105018081892B808380910401CC
:101AC000909105010E949D2081110E94370DC091C7
:101AD0000401D091050140E250E06DE472E0CE01D6
:101AE0000E942A2A892B59F080E2FE01ADE4B2E07F
:101AF00001900D928A95E1F7CE010E943920DF9185
:101B0000CF91089508950E94820D08959091340315
:101B100092FF11C0982F990F990F990F962B9093C0
:101B20006D020E94D00880916D02869586958695FB
:101B30000E94830D08950E94D008089510926D02AE
:101B400080E00E94830D089590916D028095892315
:101B500080936D02282F277069F4891759F09091AE
:101B6000340392FF07C08695869586950E94E0080B
:101B70000E949E0D08959091340392FB222720F934
:101B8000281769F080FB92F9909334038091330316
:101B9000909134030E94030E82E00E94A40D0895E8
:101BA0008091340382FB882780F991E089270E9485
:101BB000BB0D089581E00E94BB0D089580E00E9456
:101BC000BB0D08956FEF7FEF90E080E00E94822AC6
:101BD000089590E080E00E944E2A21E0863E9E4FCC
:101BE00009F020E0822F089582E090E00E94402AD0
:101BF000089583E090E00E94402A089584E090E0F8
:101C00000E944E2A0895BC0184E090E00E94822A3E
:101C10000895AB01BC018FE090E00E94762A089500
:101C2000AB01BC0183E190E00E94762A089560E058
:101C300070E0CB010E94100E089560E070E0CB01CF
:101C40000E94090E0E94170E0895A8E0B0E0EBE292
:101C5000FEE00C94622966EE7EEF90E080E00E9448
:101C6000822A60E082E090E00E94642A60E083E0E3
:101C700090E00E94642A10920B0210920A0260E027
:101C800074E184E090E00E94822A60E086E090E0C7
:101C90000E94642A6FEF87E090E00E94642A40E08F
:101CA00050E0BA0188E090E00E94762A60E084E289
:101CB00090E00E94642A60E087E190E00E94642A3C
:101CC00060E08CE090E00E94642A60E08DE090E0AB
:101CD0000E94642A19821A821B821C821D821E8223
:101CE0001F82188648E050E068E170E0CE0101965E
:101CF0000E94542A40E050E0BA0180E290E00E9445
:101D0000762A0E941D0E2896E2E00C947E290E94FD
:101D1000250E0895682F8EE090E00E94642A0895B1
:101D2000A6E0B0E0E6E9FEE00C9460290E94FF2105
:101D30008C0180919202909193028017910781F01B
:101D400019821A820E94FF21682F49815A81792FB6
:101D500080E090E00E94B5041093930200939202F9
:101D60002696E4E00C947C290E940B226093A60244
:101D70007093A7028093A8029093A9026093A20295
:101D80007093A3028093A4029093A50208950E94E9
:101D90000B226093A6027093A7028093A8029093EF
:101DA000A90260939E0270939F028093A002909379
:101DB000A1020895089508950E94DA0E08950895E5
:101DC0000E94DF0E089581EB91E10E945B130E9457
:101DD000DB0E0E94DC0E089581E008950E94EC0E57
:101DE00008950E94EC0E0895089508950E94F40E3F
:101DF0000E94F50E08950E94D0110E9489040E944D
:101E0000AE1B08950E94F6210E942F1E0E94AF1261
:101E10000E94FB0E0E94B5190E94E00E0895A6E0F4
:101E2000B0E0E5E1FFE00C9456290E94EE0E81112E
:101E30000FC00E94900E0E94F8190E944C1E811142
:101E40000E94C70E0E949C042696EEE00C94722914
:101E50000E94C51224E9822E22E0922E640110E035
:101E6000F601E190F1906F01812F0E94F6111F5F42
:101E7000153009F44BC0E816F90691F38091AA02D7
:101E800081FD0E94FF110E94F10E782E10E0662461
:101E90006394812F0E94F6117C01F401A190B1900E
:101EA0004F018A159B0561F100E0CC24C394D12C2D
:101EB000AE24BF24C5018C219D21892BC1F0772040
:101EC000B1F009831A830E94FF219C838B836D826A
:101ED00021E0C7018C219D21892B09F420E0498153
:101EE0005A816B817C818D81922F0E94B5040F5F96
:101EF000CC0CDD1C0C30F1F6F4013297F182E0825B
:101F00001F5F153031F60E94B40E95CFE816F90622
:101F100009F0B4CF8ECF1F93CF93DF930E94C010F0
:101F2000EC01C11580E5D807F0F5C11580E4D807AC
:101F300008F09EC0C03ED10520F5CD3CD10508F08B
:101F400084C0C83AD10578F4C53AD10508F075C007
:101F5000C130D10519F1209709F1C430D105F0F451
:101F6000D0E0C0E01BC0C33CD105D0F7C85AD0E0D8
:101F7000CC0FDD1FC55ADE4F0990D881C02DD46427
:101F80000DC0C11580E2D80708F0D7C0C11581E0A7
:101F9000D80708F05CC0C83ED10510F7CE01DF912C
:101FA000CF911F910895C03682E5D80728F5C03437
:101FB00082E5D80708F06DC0C03282E5D80708F086
:101FC00061C0C11582E5D80708F49DC02C2F269565
:101FD000269530E085E0220F331F8A95E1F78C2F9C
:101FE0008370C1E0D0E002C0CC0FDD1F8A95E2F71C
:101FF000C22BD32BDD68D2CFC03A82E5D80760F47C
:10200000C03882E5D80708F45BC0CF71D0E0DC2F80
:10201000CC27C46FD06AC2CFC03C82E5D80708F491
:1020200066C0C03E82E5D80708F09ACFDC2FCC27E7
:10203000CC27DF71C06FD06AB1CFC55AD0E0CF5680
:10204000DE4FC881D0E0D064A9CFD065A7CF8D2F57
:102050000E946211182FCE0199270E94C010C12F33
:10206000D0E0DC2FCC27CC27DF71C82BD92B96CF23
:10207000CE0199270E94C010CC27DF70C82BD92B26
:10208000D06A8CCFCF71D0E0DC2FCC27C16FD06A63
:1020900085CF2C2F26952695277030E0B5E0220FAE
:1020A000331FBA95E1F78C2F8370C1E0D0E002C0F6
:1020B000CC0FDD1F8A95E2F7C22BD32BDC686ECFE5
:1020C0002C2F26952695277030E0A5E0220F331F90
:1020D000AA95E1F78C2F8370C1E0D0E002C0CC0F4D
:1020E000DD1F8A95E2F7C22BD32BDA6857CF8C2FEE
:1020F0008F710E946211C82FD0E0DC2FCC27CC2733
:10210000DF71D0624BCF8C2F8F710E94621155E02E
:10211000D695C7955A95E1F7CF70D0E0DC2FCC2744
:10212000282F30E084FF05C044E0220F331F4A957A
:10213000E1F7C22BD32BD06931CF8D2F8F710E9445
:102140006211182FCE0199270E94C010C12FD0E034
:10215000DC2FCC27CC27DF71C82BD92BD2CF462F31
:10216000753030F46C3020F4672F0E94010308951D
:1021700090E080E008950E94AF100E948B0F0895B8
:1021800082389105B9F1B0F48133910509F47DC02D
:1021900048F48932910509F46DC08A32910509F439
:1021A0007BC008958533910509F45FC0893391059B
:1021B00009F10895833E9105D9F138F4803E9105E7
:1021C00029F1823E910579F10895863E9105D9F174
:1021D000873E910509F43EC0843E910541F520916A
:1021E000340321FF24C08091330384FD19C087EE9E
:1021F00090E0089520913303237009F05AC0209194
:10220000340323FF14C089E290E008952091330342
:1022100020FD38C03091340330FF09C024FF43C093
:1022200090E080E008952091330322FDF7CF0895D8
:102230002091330322FD3AC03091340330FD39C080
:1022400024FFF5CFEDCF2091330323FFF0CF24FD02
:10225000E7CFCDCF2091330323FD2EC0309134033F
:1022600031FFEECF84EE90E008952091330325FFF7
:10227000DECFC9CF2091330325FD21C02091340347
:1022800023FFD5CF89E390E0D2CF2091330326FFFF
:10229000CECF8AE290E008952091330326FFC7CF86
:1022A00081E390E0089583EE90E0089582EE90E05F
:1022B000089580EE90E0089586EE90E0089585E31D
:1022C00090E008959091330392FF10C041E0282FD1
:1022D0002471243009F040E031E0282F28712830A3
:1022E00009F030E0431711F02CE0822793FF10C073
:1022F00041E0282F2471243109F040E031E0282FFB
:102300002871283109F030E0431711F02CE08227C2
:102310003091340330FF10C051E0282F217121305B
:1023200009F050E041E0282F2871283009F040E002
:10233000541711F029E0822731FF10C041E0282F07
:102340002171213109F040E031E0282F2871283136
:1023500009F030E0431711F029E0822794FD877ED1
:10236000089580E008950E94E20D08950E94C5122C
:102370002FEF86E791E0215080409040E1F700C0C8
:1023800000000E94C51280E00E94F61180FF04C088
:102390000E94B3110E944A2208950E94B611089526
:1023A0000E94E90D811102C00E94870E0E94F40D67
:1023B0008093AA020E94FE0D90933403809333030E
:1023C0000E94CD110E94F90D90E00E949408809126
:1023D0000802909109020E94B508089508950E948C
:1023E000EE11089508950E94F2110895E82FF0E08B
:1023F000EE0FFF1FE15CFC4F8081918108950895ED
:1024000080EA8A95F1F7089500C008950E940012AD
:102410000895F894E82FE295EF70F0E031A1282FAD
:102420002F7081E090E001C0880F2A95EAF7982F7D
:102430009095932391A392A1892B82A378940895D8
:102440000F931F93CF93DF93C0EAD1E089918F3F21
:1024500011F00E94091281E0C53AD807B9F7C4E922
:10246000D1E000EA11E089918F3F11F00E9409123A
:102470000C171D07C1F7DF91CF911F910F910895A0
:10248000AF92BF92DF92EF92FF920F931F93CF9381
:10249000DF938C01D62EC62FD0E0CE0180569E4F02
:1024A0007C01FC0120812F3F09F44CC0F894E22FFD
:1024B000E295EF70F0E031A12F7081E090E001C073
:1024C000880F2A95EAF7932F982B91A392A18095D4
:1024D000892382A378940E940412E4E9F1E041E0A8
:1024E00050E0B12CA12C21912F3FB1F1A22FA29548
:1024F000AF70B0E090968C9190E02F7002C09595EF
:1025000087952A95E2F780FD27C0CA01A82AB92A33
:10251000440F551F81E0E03AF80729F7F701808161
:102520008F3F11F00E94091261E0A114B10409F477
:1025300060E08D2D0E940612CC0FDD1FC00FD11F51
:10254000B982A882DF91CF911F910F91FF90EF90F8
:10255000DF90BF90AF90089590E080E0D7CF0E94C9
:1025600020128AE0EFE3F3E0DF01982F1D929A95A5
:10257000E9F7E5E3F3E0DF011D928A95E9F785E0ED
:102580000E9400130E94EF110895AAE0B0E0EBEC66
:10259000F2E10C945F298E010F5F1F4F8AE0F80172
:1025A00011928A95E9F7F12C6F2DC8010E94401213
:1025B000F394F5E0FF12F8CF4AE050E0B80185E36C
:1025C00093E00E942A2A21E0009709F420E0892B59
:1025D00041F08AE0F801A5E3B3E001900D928A95FD
:1025E000E1F745E06FE373E085E393E00E940113B8
:1025F000182F0E94F311812F2A96E5E00C947B2975
:102600000895CF92DF92EF92FF921F93CF93DF93C3
:102610006C017B01C42F222349F081E08093AD023D
:102620000E94FF219093AC028093AB021091AD0207
:1026300011110AC010E0812FDF91CF911F91FF90FF
:10264000EF90DF90CF9008958091AB029091AC0213
:102650000E941722059770F3D0E0CC0FDD1FAE016A
:10266000B601C7010E942A2A892B41F0AE01B601AA
:10267000C7010E94372A1092AD02DDCF10E0FBCFD8
:102680000E94CA230E94020F0E94D72308950E942D
:10269000DC230E940F0F0E94F62308950E949E21C2
:1026A0000E94B0230E94E30E0E9440130E94471331
:1026B0000E94F60EFBCF9093E1018093E001089514
:1026C000EF92FF920F931F93CF93DF93982F711187
:1026D0000FC0442329F0E82FF0E0E258FD4F949119
:1026E000692F792F892FCDB7DEB7E6E00C947A29D0
:1026F000262F30E0C72FD0E0E82FF0E0442321F070
:10270000E258FD4FE491F0E0C90166E070E00E94FC
:10271000BE280FEF10E0B8010E940229DB01220F52
:10272000331FCB0165E570E00E94BE28281B390BE2
:10273000E22EEE0CE20EC8018C1B9D0BBF010E9425
:10274000BE28292FF12CC701BE010E94BE28492FA7
:1027500050E0C801841B950BBF010E94BE28392F91
:10276000C8018E199F09BE010E94BE28492F50E062
:10277000C801841B950BBF010E94BE28892F7E2FA4
:10278000A230B10589F038F4109759F0119781F013
:10279000922F232F06C0A430B10569F080F0169760
:1027A000B9F7692F822F9FCF9E2F722F282FF9CF35
:1027B0009E2F732FF6CF922F2E2F782FF2CF722FBE
:1027C0002E2F932FEECF41E00E94601308950895BD
:1027D0000E94E3130895CF93DF93762FE901682FCA
:1027E000842F0E94E813798368838A83DF91CF91D5
:1027F000089580914903982F9E7F29F4817082600B
:102800008093490308958635E8F381708465F8CF95
:10281000B0E0A0E0EEE0F4E10C945C2988E090E008
:102820000E94482A6B017C0184E290E00E94402AC9
:10283000282F30E040E050E060E070E080E090E081
:1028400000E20E948929B22FA32FF42FE52FD62F63
:10285000C72F97018601BC29A12BFE295E2F532B80
:102860002B2F3A2F4F2F6D2F7C2FCDB7DEB7E8E0FF
:102870000C947829B0E0A0E0E0E4F4E10C9458294D
:1028800049015A016B017C010E94F9138401A401E2
:102890006A2D7B2D88E090E00E94762A94014A2DD3
:1028A0005B2DB601C70100E20E94A429622F84E2D9
:1028B00090E00E94642ACDB7DEB7ECE00C94742956
:1028C000E9E4F3E083E0808311828FEF82838383E6
:1028D0001482758123E030E04FEF5FEF60E0868186
:1028E00097810E943A1408958091490380FF02C0A5
:1028F0008695089580E0089590914D03933018F4E3
:102900009F5F90934D03882391F02091490330916C
:102910004A0340914B0350914C0360914D037091D9
:102920004E0380914F03909150030E943A140895F2
:1029300081E00E947C14089590914D03992319F031
:10294000915090934D03882391F020914903309149
:102950004A0340914B0350914C0360914D03709199
:102960004E0380914F03909150030E943A140895B2
:1029700081E00E949C14089570E00E94231B08953A
:1029800030910A018091490380FF0DC080910901B7
:1029900090E063E070E00E94BE28632F8F5A9C4F46
:1029A0000E94BC14089520910B0140910C01822FCC
:1029B00090E063E070E00E94BE28FC01EF5AFC4FFB
:1029C000241720F71182108212822F5F3396F8CFDE
:1029D000A82FB62F8091490380FF11C020910B01D1
:1029E00030910C01822F90E063E070E00E94BE28DD
:1029F000FC01EF5AFC4F231718F00E94C0140895F1
:102A0000A183B08342832F5F3396F5CFA3E0B0E07C
:102A1000ECE0F5E10C9462299091490390FF0AC023
:102A20009E012F5F3F4F0E94EB134B8169818A818A
:102A30000E94E8142396E2E00C947E29CF93DF9362
:102A4000EC01EC81F0E0E758FE4F4491E9E4F3E05B
:102A5000628181810E9406158C818F5F8C83DF915A
:102A6000CF910895CF93DF93EC01E9E4F3E0438144
:102A700062818C810E9406158C818F5F8C83DF912F
:102A8000CF910895A3E0B0E0E8E4F5E10C9460296B
:102A90008C018091AE0281110AC09E012F5F3F4FD1
:102AA0004FEF6FEF0E94EB138A818093AE02F80123
:102AB0006481613069F08091AE0240E0662361F08C
:102AC00040E0623011F44091AE0280E060E004C06A
:102AD0006091AE0240E080E00E94E814F801848139
:102AE00090E0019663E070E00E94162984832396AB
:102AF000E4E00C947C29A3E0B0E0E1E8F5E10C947B
:102B00005A29F82ED62EE42EC22E9091490390FF1A
:102B10002EC0E92FE695AE2FB0E0AB55BE4F8C919D
:102B20008093FE029E7F923031F59E012F5F3F4FD2
:102B30008F2D0E94EB134B8169818A810E94E814DA
:102B4000F0924A03D0924B03E0924C03CC2079F0F0
:102B50002091490360914D0370914E033F2D4D2DFF
:102B60005E2D80914F03909150030E943A1423965A
:102B7000EAE00C947629823019F4E0904C03E0CF1F
:102B8000863019F4F0904A03DBCF8930D9F38931CC
:102B9000B9F6E9518E2F8170B82EE695F0E0E7582E
:102BA000FD4FE491A12C0E2F10E040910D01A416D1
:102BB00018F00E94C014C4CF2A2D30E0C901B8011A
:102BC0000E94BE28642F70E00E940229EF2DB110F0
:102BD00014C0E60F80910B01820F932F911D63E0CB
:102BE00070E00E94BE289C012F5A3C4F4E2D6D2D47
:102BF0008E2F0E94EB13A394D8CFE61BEBCFE9E412
:102C0000F3E09181282F438162818CE0890F0E943B
:102C10007B15089581E00E94FF150895E9E4F3E033
:102C20009181282F4381628184EF890F0E947B1557
:102C3000089581E00E940E160895E9E4F3E06281B0
:102C40002CE0620F08F46FEF282F438181810E94EE
:102C50007B15089581E00E941D160895E9E4F3E0D4
:102C600062812CE0621B08F460E0282F438181819F
:102C70000E947B15089581E00E942E160895E9E4D4
:102C8000F3E043812CE0420F08F44FEF282F6281DC
:102C900081810E947B15089581E00E943F1608956E
:102CA000E9E4F3E043812CE0421B08F440E0282FE4
:102CB000628181810E947B15089581E00E945016F7
:102CC000089520E00E947B150895EF92FF921F93D4
:102CD000CF93DF93EC0110E0EE24EA94F12C3091D5
:102CE0000D01131770F00E94C0149A818C8190FF1F
:102CF00027C08F5F8C83DF91CF911F91FF90EF9062
:102D0000089580910B01810F9927991F63E070E06E
:102D10000E94BE28FC01EF5AFC4F632F70E0C701F0
:102D20000E941629812F0E94B5289C819F01409105
:102D30004C0360914B03890F0E94EB131F5FCFCFB1
:102D40008150D8CFB0E0A0E0E8EAF6E10C945A292F
:102D5000FC018281DFEF80FFD1E0C0E03EE0A32EE6
:102D600080910D01C81798F00E94C0148091B002A4
:102D7000D13009F04EC0811102C080910D01815007
:102D80008093B002CDB7DEB7EAE00C94762980914B
:102D90000B01CC2ED12C8C0D9D2D911D63E070E08C
:102DA0000E94BE288F5A9C4F7C01FC011182108228
:102DB000128204E010E0B12C8091B0028B0D8F30B4
:102DC00014F16A2D0E94F428892F082E000C990B0B
:102DD000C816D90691F480914C0390E0B8010E9486
:102DE000BE2895958795959587959701482F609171
:102DF0004B0380914A030E94EB13BD0E0150110951
:102E0000D9F6CF5FADCF87FFE0CF90910D01890F4D
:102E1000DCCF90E0019660910D0170E00E941629D0
:102E2000AFCFCF9320910B0130910C01822F90E016
:102E300063E070E00E94BE28FC01EF5AFC4F2317AC
:102E400020F1C0E060910D01C61728F10E94C01466
:102E5000209107018091AF02820F8093AF02909181
:102E60000801920F90930801191654F4082E000CD3
:102E7000990B40910D014150550B841795071CF09B
:102E8000219520930701CF9108951182108212821B
:102E90002F5F3396D4CFEC2FF0E070E0CF010E948B
:102EA000162990910B01890F90E02091AF02022E1C
:102EB000000C330B63E070E00E94BE28E217F307BA
:102EC000ACF020910801022E000C330B2E173F07A7
:102ED0006CF09C012F5A3C4F40914C0360914B0386
:102EE00080914A030E94EB13CF5FACCFFC01EF5AF5
:102EF000FC4F118210821282F7CFB0E0A0E0E3E82D
:102F0000F7E10C9454298C01FC01C481CC2ED12C06
:102F1000F12CE12CA7019601C701B6010E94CF2830
:102F2000A70196010E94CF282B013C0130E2C32E5D
:102F3000D12CCC1AD1080D2C000CEE08FF0825E589
:102F400030E040E050E00E94CF284B015C01A70137
:102F50009601C701B6010E94CF28A70196010E94E1
:102F6000CF289B01AC01240D351D461D571DC50101
:102F7000B4010E942A29D22F822F90E02A3240F5F4
:102F800063E070E00E94BE2897FD019695958795B5
:102F9000C82FC095F12C85E5E82EED1A80910D0122
:102FA000F816E8F00E94C014F801948181E099239A
:102FB00019F0903219F48FEF809306018091060189
:102FC000890FF8018483CDB7DEB7E0E10C94702956
:102FD00025E530E0A901481B590BCA01D1CFEE2DE0
:102FE000F1FCED2F80910B018F0D9927991F63E064
:102FF00070E00E94BE289C012F5A3C4F4C2F6091DC
:103000004B038E2F0E94EB13F394C8CF0F931F93A3
:10301000CF93DF938C01D0E0C0E030910D013C17DD
:103020001D0609F074F40E94C014F801848190E038
:103030000196817099278483DF91CF911F910F9121
:10304000089580910B018C0F9D2F911D63E070E01E
:103050000E94BE28AC014F5A5C4FF80194816091E8
:103060004B0380914A0336953C171D0651F04CF0F6
:10307000992349F09A0140914C030E94EB13219649
:10308000CCCF9923B9F39A0140E0F7CFB0E0A0E0AC
:10309000ECE4F8E10C945629FC017280648081E034
:1030A0008483E9E7F1E08490E8EFF1E0E491C091F6
:1030B0004C03C695C158D0E0CC0FDD1FCD2EDD24CA
:1030C000912CAA24AA94B12CE8190E2F10E080911B
:1030D0000D01981638F00E94C014CDB7DEB7EEE0AF
:1030E0000C947229E92CF12C82E0871570F0C7014D
:1030F00065E070E00E94BE28FC01EF54FD4F809116
:103100004A03808380914B038183C70165E070E0AF
:103110000E94BE28611020C0FC01EF54FD4F1382B5
:10312000128280910B018E0D9F2D911D63E070E046
:103130000E94BE289C012F5A3C4FC70165E070E0F9
:103140000E94BE28FC01EF54FD4F428161818081C5
:103150000E94EB139394BBCFEC01CF54DD4F8B81D6
:10316000882321F181508B8390E06FEF70E00E9403
:10317000BE286C8170E00E940229FB01FF27E758FE
:10318000FE4FE491E8198E2F90E06FEF70E00E94FF
:10319000BE28B8010E94022920914C0330E0862FFE
:1031A00090E0B9010E94BE289A83BBCF0E940D2AED
:1031B000B5010E9416298C159D050CF0B2CFE2E0F6
:1031C000E71588F40E940D2AB5010E94162988830C
:1031D0000E940D2A20914B032695622F70E00E94D9
:1031E0001629280F2983C70165E070E00E94BE28D8
:1031F0008F549D4FFC01128220914C03293C60F0BA
:1032000028ECC70165E070E00E94BE28FC01EF5485
:10321000FD4F2483238385CF243198F724E1F1CF18
:10322000E9E4F3E020812E7F2083318142815381C4
:1032300064817581868197810E943A141092FF0201
:103240000E94C014089560914903669570E04BE0B8
:1032500050E08EE091E00E941D2A892B19F481E054
:103260008093FF020E94FF219093F8028093F7025F
:1032700008959091490390FF33C09170811131C03E
:10328000926090934903662391F020914903309115
:103290004A0340914B0350914C0360914D03709150
:1032A0004E0380914F03909150030E943A14609115
:1032B0004903669570E04BE050E08EE091E00E949B
:1032C0001D2A892BA9F01092FF0281E08093FA0257
:1032D00040914C0360914B0380914A030E94611618
:1032E00008958B3210F09465CCCF880F982BC9CFFE
:1032F0000E942319EACF682F90914903969581E0A7
:10330000890F8B3208F081E00E943919089581E01D
:103310000E947B190895682F9091490396958FEF2D
:10332000890F09F48AE20E943919089581E00E9408
:103330008B19089561E00E9439190895E9E4F3E0DA
:1033400080818160808386950E949A19089580917A
:10335000490380FF03C00E94101908950E949E191E
:10336000089560E00E94391908958091FD0281114D
:103370003EC00E94E90D811104C00E94870E0E9488
:1033800060140E9408142093490330934A03409329
:103390004B0350934C0360934D0370934E03809303
:1033A0004F03909350032E7FA1F40E9460140E945B
:1033B00008142093490330934A0340934B035093DE
:1033C0004C0360934D0370934E0380934F0390938F
:1033D00050030E94F9131092FF028091490380FF6D
:1033E00003C086950E94B11981E08093FD02089583
:1033F0000F931F93CF93DF938091FF028823B9F13E
:103400008091FE02E0914903E695E81BE093F90202
:10341000823091F5F0E0EB58FE4FE491CE2FD0E0F2
:103420000EE115E18091FA02882361F01092FA0210
:103430000E94FF219093F8028093F7021092FC0201
:103440001092FB020E94FF21E091F702F091F80236
:103450008E1B9F0B8F3F9F4750F4EC0FFD1FF09387
:10346000F802E093F70287EF92E0F8010995DF9107
:10347000CF911F910F910895863049F4F0E0EE58F6
:10348000FE4FE491CE2FD0E002E315E1CBCF89309F
:1034900051F4E695F0E0E159FE4FE491CE2FD0E0F3
:1034A00005E616E1BFCF8F3051F4E695F0E0E45920
:1034B000FE4FE491CE2FD0E002EA16E1B3CF853182
:1034C00049F4F0E0E759FE4FE491CE2FD0E001E15E
:1034D00017E1A8CFC8E2D0E00DE717E1883109F481
:1034E000A1CF833239F4E7E6F1E0C591D49102E44B
:1034F00015E198CFC4EFD1E006E018E1843209F479
:1035000091CFC0EDD7E007EE13E1853209F08ACF05
:103510008E2F63E00E94E828E92FF0E0EC59FE4F7F
:10352000E491CE2FD0E006E418E17CCFFA018111BE
:1035300001C0FB0109950895CF93DF93C82FD62FC3
:103540000E9474148C1748F00E9474148D1728F48C
:103550000E948719DF91CF9108958C2F0E949A19AC
:10356000F9CF1F93CF93DF93EC01FB01158111116C
:1035700010C00E94E50C8272FE01E052F847E5316E
:10358000F10508F05EC0EB53F54D0C944C290E94F8
:10359000A719812FDF91CF911F91089546E959E135
:1035A00067E879E10E94961AF4CF47E859E166E9A5
:1035B00079E1F8CF49E156E16AE076E1F3CF4AE0FC
:1035C00056E169E176E1EECF4BE356E16AE276E15E
:1035D000E9CF4AE256E16BE376E1E4CF4DE556E10F
:1035E0006CE476E1DFCF4CE456E16DE576E1DACFCD
:1035F00048EB54E168E974E1D5CF48E954E168EB60
:1036000074E1D0CF81E00E949A19C3CF65E082E0D7
:103610000E949C1ABECF68E086E0FACF6EE089E097
:10362000F7CF64E18FE0F4CF67E185E1F1CF88E186
:10363000EACF62E289E1ECCF83E2E5CF6AE285E29C
:10364000E7CF11E0A6CF9C01CB01509A4BB14E7F42
:10365000EBB1E160FFB7F89463E070E00E94BE2830
:10366000820F931F8217930741F4FFBF8FE594E009
:103670000197F1F700C000000895D9015D919D0107
:1036800068E0EBB9000000C057FF4BB9550F0000D0
:1036900000C000C000C04BB900C06A9591F7E2CFEE
:1036A000FB012581222341F097FF06C09F77BC01D3
:1036B00090E080E00E94861C81E008950F931F93A4
:1036C000CF93DF93EC018B01FB018581882389F087
:1036D0000E94E50C8272FE01E053FC47E830F105E0
:1036E00040F4E652F54D0C944C29882369F00E9471
:1036F000C61BB801CE010E94501BDF91CF911F91D4
:103700000F910895882399F30E94C51BF2CF80E0A2
:103710000E94B71BEECF81E0FBCF82E0F9CF83E0C0
:10372000F7CF84E0F5CF85E0F3CF90917C03923022
:1037300071F48A3050F490E009966AE070E00E94DB
:103740001629875A0E94E50508958650FBCF0E94EE
:10375000071E089508950E94AA1B08958CE090E02A
:103760000E94402A80937C030E94AB1B0895CF9354
:10377000C82F80937C03682F8CE090E00E94642A1D
:103780008C2F0E94AB1BCF910895089508950E943D
:10379000362080937B0390917C03913029F481FF44
:1037A00003C089E30E94E5050E94E50C80937D0338
:1037B0000E94F80C0E94080D80917C03823021F158
:1037C00058F48823C1F08130D1F08FE39CE9019750
:1037D000F1F700C000000895843051F18530A9F759
:1037E0008BE191E00E94850385E290E00E948503D1
:1037F00088E290E006C082EE0E94EE04E6CF88E107
:1038000093E00E948503E1CF80917B0380FD03C09C
:1038100083E50E94E50582EE0E94EE048FE39CE9B9
:103820000197F1F700C0000087E50E94E505CDCFC4
:1038300086EE0E94E50588E1F8CF80917C03823016
:1038400011F148F4882381F0813091F080917D035B
:103850000E94F50C08958430F9F08530B9F788E2BC
:1038600090E00E948503F2CF82EE0E947C05EECFAD
:103870008CE20E94E50580917B0381FFE7CF89E31D
:103880000E94E505E3CF82EE0E947C0580917B03D8
:1038900080FDDCCF83E5F4CF88E2F2CFB0E0A0E09A
:1038A000E4E5FCE10C945C296B017C01D0917C0384
:1038B00007E010E021E0C801880F991F880F991FC9
:1038C000B701A60104C076956795579547958A95E7
:1038D000D2F7C42FCF70222339F0D43051F4CA303C
:1038E00040F080E00E94951B8C2F0E94951B20E0E9
:1038F00005C0C111F9CF04301105B4F3015011090D
:10390000D0F6CDB7DEB7E8E00C947829CF92DF92FD
:10391000EF92FF926B017C01C114D10481E1E806B2
:10392000F104A0F5C114D10481E0E806F10420F00F
:1039300080917C03823051F10E94C71BC114D104D5
:1039400081E0E806F10438F180917C03811123C005
:1039500081E0E81AF108C701B6012AE0969587953B
:10396000779567952A95D1F778528F4F9F4F0E9490
:103970004E1C83E0D822EE24FF24C701B601745206
:103980008F4F9F4F0E944E1C0E941D1CFF90EF9076
:10399000DF90CF900895C701B601F4CFCF93DF93A6
:1039A000EC01FB018581882309F4D2C09E013057C8
:1039B0002332310508F0B2C00E94FE0D909334030B
:1039C00080933303FE01E150F047E232F10520F429
:1039D000EE51F54D0C944C29809133038160809316
:1039E000330393C0809134038860809334038DC087
:1039F000809133038260F3CF809133038460EFCFF3
:103A0000809133038860EBCF809134038160EDCFE8
:103A1000809134038260E9CF809133038061DFCFEE
:103A2000809133038062DBCF809133038064D7CFF2
:103A30000E944708809133038068D1CF809133037F
:103A40008C60CDCF809134038360CFCF80913303DE
:103A50008E7FC5CF80913403877FC7CF809133039A
:103A60008D7FBDCF809133038B7FB9CF809133039E
:103A7000877FB5CF809134038E7FB7CF8091340399
:103A80008D7FB3CF809133038F7EA9CF8091330395
:103A90008F7DA5CF809133038F7BA1CF0E944708F4
:103AA000809133038F779BCF80913303837F97CFB0
:103AB000809134038C7F99CF8091330382FB9927C7
:103AC00090F921E0922790FB82F990FB83F987CF50
:103AD00080913403982F909591708E7F892B90FB65
:103AE00081F983CF90913303892F8F7B96FF806478
:103AF00076CF0E94470890913303892F97FB87F96F
:103B000080586DCF81E00E948A0E8091330390919E
:103B100034030E94030E0E94470880E0DF91CF919A
:103B2000089580E0F0CF90913303892F8F7E94FF2A
:103B3000806155CF90913303892F8E7F90FF8160F4
:103B40004ECF90913403892F877F93FF88604DCFAC
:103B500081E0E4CFB0E0A0E0E0EBFDE10C945D2972
:103B6000E82FF0E0E258FC4FD490282F26952695B8
:103B7000269530E0F901E25EFB4F0491877010E07A
:103B8000082E02C0159507950A94E2F701701127D7
:103B9000F901E25FFB4FE490F12C082E02C0F5948E
:103BA000E7940A94E2F791E0E922FF24F901E25058
:103BB000FC4FC491D0E002C0D595C7958A95E2F735
:103BC000C170DD270115110519F081EE0E94EE0488
:103BD000E114F10419F086EE0E94EE048D2D0E948E
:103BE000E505E114F10419F086EE0E947C0501154B
:103BF000110519F081EE0E947C05CD2B19F08CE2A5
:103C00000E94E505CDB7DEB7E7E00C947929982F3F
:103C10009F709A50963020F0805D0E94AA1D0895F2
:103C2000895AFBCF8FE891E00197F1F700C00000BF
:103C3000089581E00895CF93DF93D62F0E94191E37
:103C4000C82F882341F06AE070E089EAD11101C0F1
:103C50008AEA0E94CD058C2FDF91CF91089581E0F3
:103C6000809301032098289A5198599A0E94121E15
:103C70002091010343E053E0FA018E2F841B821749
:103C800008F0089583B18170499904C090E0892BB0
:103C90008193F3CF92E0FBCFB0E0A0E0E2E5FEE15C
:103CA0000C945C29F12CE12C84E0C82ED12C80915D
:103CB0000103F81630F08E2DCDB7DEB7E8E00C9496
:103CC00078290F2D10E0E3B1E170499940C080E000
:103CD0008E2BD801AD5FBC4FEC919E2F937098173F
:103CE000A1F1EE0FEE0FE82BEC93EF70F0E0E05354
:103CF000FE4FE801CE5FDC4F80819881890F888379
:103D000020E084305CF0F801E050FD4F80818F5F4F
:103D1000808360E08F2D0E941B1E21E088818D3FF3
:103D20005CF4F801E050FD4F80818150808361E0B8
:103D30008F2D0E941B1E21E08881082E000C990BFC
:103D4000B6010E9416298883E22AF394B0CF82E05C
:103D5000BFCFEBEFE80FEF3308F066C0F0E0EC5FA9
:103D6000F44D0C944C290E94870E81E008958091B7
:103D7000AA02807F8093AA0281E0809304030895C1
:103D80000E940004F2CF9091AA02892F8E7F90FFAB
:103D900081608093AA0280FDE8CF817F8093AA0290
:103DA000E4CF9091AA02892F8D7F91FF826080934A
:103DB000AA0281FFDACF8091AA028160EFCF9091B1
:103DC000AA02892F8B7F92FF84608093AA0282FDD2
:103DD000F2CFCBCF9091AA02892F877F93FF886083
:103DE0008093AA0283FDE7CFC0CF0E94470890913D
:103DF0003303892F97FB87F9805880933303B5CF1E
:103E000081E090E00E9494080E944708AECF895359
:103E100021E030E0A90102C0440F551F8A95E2F766
:103E2000CA01F0CF8D51F4CF80E0089580E008956D
:103E30000E94161F0895CF93C82F809104038823F2
:103E400031F0813099F01092040380E00DC00E949F
:103E5000E50C8232D1F78C2F0E94161F811116C0FB
:103E60008C2F0E94A91E8170CF9108950E94E50CAD
:103E7000823289F38C2F0E94181F811105C0C43132
:103E800071F038F4CB3079F781E0EDCF81E090E04C
:103E9000EACFC93221F0C833B9F380E0E4CF109201
:103EA0000403FBCFCF93DF93EB0186319C4711F5E1
:103EB0000E94E50C9D81992399F08A7A91E009F49A
:103EC00090E090930503811109C089E20E94BD0C26
:103ED0000E94410D80E0DF91CF91089585E3F6CFF8
:103EE00080910503811104C089E20E94C50CF0CFC6
:103EF00085E3FBCF81E0EFCF0F931F93CF93DF9349
:103F0000C42FD22FFC0185818823C9F04093080378
:103F10000E94FF21909307038093060380E28C0F99
:103F2000883040F4C77081E001C0880FCA95EAF775
:103F30000E94EE05DF91CF911F910F91089510918E
:103F40000803141332C080910603909107030E9466
:103F50001722883C910548F5C0E2CD0F1D17B9F036
:103F600080E2810F883040F4177081E001C0880F33
:103F70001A95EAF70E94F505C83048F481E09D2FB4
:103F8000977001C0880F9A95EAF70E94EE05802F7E
:103F90000E94E505C83070F6D77081E001C0880F37
:103FA000DA95EAF70E94F505C5CF80E28C0F8830DC
:103FB00008F6C77081E001C0880FCA95EAF7F2CF12
:103FC0000F93DB0188519C4787309105A0F5FC01D8
:103FD000ED5BF44D0C944C2906E221EE41EE6AE1D2
:103FE0007CE7CD010E947C1F80E00F91089507E2DD
:103FF00025EE45EE6BE17CE7F4CF06E221EE40EEE4
:1040000068E17CE7EECF07E225EE44EE69E17CE76C
:10401000E8CF06E221EE42EE6CE17CE7E2CF07E278
:1040200025EE46EE6DE17CE7DCCF08E221E045EECF
:104030006EE17CE7D6CF15968C91882319F010920B
:104040000803D3CF81E0D1CF90930E0380930D036B
:104050000895E0910D03F0910E03309729F001903F
:10406000F081E02D0995089580E008950E942920AF
:104070000895E0910D03F0910E03309799F020918F
:104080002101222359F02091330327FF07C0DC01CF
:104090002C9111962C93119726E02C930280F3819A
:1040A000E02D09950895A3E0B0E0E9E5F0E20C9475
:1040B000622920910B0330910C0328173907A1F0D6
:1040C00090930C0380930B03E0910D03F0910E038A
:1040D000309751F023E029839B838A830680F78100
:1040E000E02DCE01019609952396E2E00C947E29FD
:1040F000A3E0B0E0EEE7F0E20C946229209109031E
:1041000030910A0328173907A1F090930A0380938E
:104110000903E0910D03F0910E03309751F024E074
:1041200029839B838A830680F781E02DCE01019647
:1041300009952396E2E00C947E29FC013296809149
:104140002101882321F0809133039EE187FF96E0CF
:1041500080E0915008F4089521912223D1F38F5FDC
:10416000F8CF662301F1209121012223F1F0209163
:10417000330327FF1AC0462F4695469546954E3184
:1041800090F4677021E030E002C0220F331F6A957F
:10419000E2F7840F911DFC01828190E028233923EE
:1041A00081E0232B69F480E00895FC0132960896A3
:1041B0002191261721F0E817F907D1F7F4CF81E014
:1041C00008959C01FC0132969FEF80E041914617D3
:1041D00051F09F3F19F4411101C0982F8F5F863035
:1041E000A9F79F3F09F40895290F311D97FD3A95CE
:1041F000F90162830895FC013296089621912613F5
:1042000003C0DF0111971C92E817F907B9F7089569
:10421000E62FE695E695E695EE3168F4E80FF92F7E
:10422000F11D677021E030E001C0220F6A95EAF7C6
:104230008281822B82830895E62FE695E695E695A6
:10424000EE3170F4E80FF92FF11D677021E030E0D6
:1042500001C0220F6A95EAF72095828128232283E4
:10426000089520912101222339F02091330327FF63
:1042700003C00E94082108950E94E1200895209122
:104280002101222339F02091330327FF03C00E942C
:104290001C2108950E94FB200895FC013296809114
:1042A0002101882351F08091330387FF06C08EE1FE
:1042B000DF011D928A95E9F7089586E0F9CF089508
:1042C0000E945F210895811106C081E080930F0351
:1042D0000E946021089582E0F9CF83E080930F036C
:1042E0000E94602108950E946321089581E08093D7
:1042F0000F030E94602108950E9476210895089579
:1043000008950E9480210895089508950E947F21B4
:104310000895CF930E9484210E94C5120E94852196
:10432000C0E08C2F0E94F611892B31F4CF5FC5308D
:10433000C1F780E0CF91089581E0FCCF08951F92EE
:104340001FB61F9211248F939F93AF93BF938091B9
:104350001003811113C080917E0390917F03A0917F
:104360008003B09181034196A11DB11D80937E030E
:1043700090937F03A0938003B0938103BF91AF918B
:104380009F918F911F901FBE1F901895809186035B
:10439000843031F10E946C041092100388E190E0A7
:1043A00020E40FB6F894A895809360000FBE209388
:1043B000600083B7817F846083BF83B7816083BFE0
:1043C0007894889583B78E7F83BF0FB6F894A895AD
:1043D00080916000886180936000109260000FBE41
:1043E00008950E9447080E947104089582E084BDE8
:1043F00093E095BD9AEF97BD80936E0008952FB717
:10440000F89480917E0390917F03A0918003B091F6
:1044100081032FBF08952FB7F89460917E037091A8
:104420007F0380918003909181032FBF08959C01A9
:104430004FB7F89480917E0390917F03A091800301
:10444000B09181034FBF821B930B089578941F9204
:104450001FB61F9211248F939F93AF93BF938091A8
:104460007E0390917F03A0918003B0918103019618
:10447000A11DB11D80937E0390937F03A0938003C1
:10448000B0938103BF91AF919F918F911F901FBEF9
:104490001F90189581E08093E00080E28093D8001F
:1044A0001092C9008FE19EE40197F1F700C000006F
:1044B00087E090EBDC0180938F0390939003A093AF
:1044C0009103B093920388E19CE00FB6F894A8950D
:1044D000809360000FBE90936000FFCF88E19CE066
:1044E0000FB6F894A895809360000FBE909360007B
:1044F000FFCF80913103089508959B01BA019091F7
:1045000086039430E9F48F708093E9009FEF8091E7
:10451000E800915085FD06C085ED8A95F1F7000011
:104520009111F5CF8091E80085FF0AC050E040E08E
:10453000C9010E946D248091E8008E778093E80085
:10454000089543E050E0BC0182E00E947D2208957E
:10455000CF93DF93EC0180912101811111C048E0DC
:1045600050E0BE0181E00E947D2280E2FE01A1E1D7
:10457000B3E001900D928A95E1F7DF91CF91089514
:104580008091330387FF05C040E282E050E0BE0126
:10459000EACF48E081E0FACF0E9476210895609149
:1045A000820381E0611101C080E00E946D210895C5
:1045B0009091860381E0943009F080E0609182035D
:1045C0000E947321089542E061EC81E00E9475250C
:1045D00042E261EC82E00E9475259091860381E0C1
:1045E000943009F080E0609182030E946321089575
:1045F00080918803833009F45FC030F48130C1F1C9
:10460000823009F49CC008958A3009F488C08B3048
:1046100009F46DC0893009F04EC080918703813262
:1046200009F049C080918B0390918C03029708F0A8
:1046300042C08091E800877F8093E8008091E80085
:1046400082FF35C08091F200823031F48091F10018
:10465000813011F0863021F48091F1008093310394
:104660008091E8008B778093E8000E94A92523C001
:1046700080918703813AF9F48091E800877F8093E5
:10468000E80080918B0390918C03892B61F460E2A8
:1046900081E193E070E00E94BC248091E8008B7778
:1046A0008093E800089560E090E080E0F3CF80918F
:1046B00086038111C3CF089580918703813AD9F78A
:1046C00080918B0390918C03892BA9F78091E8004E
:1046D000877F8093E8008091E80080FFFCCF809185
:1046E00021018093F1008091E8008E77BCCF80910A
:1046F0008703813201F780918B0390918C03892B82
:10470000D1F68091E800877F8093E8000E94A92578
:1047100080918903809321010E9447080895809128
:104720008703813241F68091E800877F8093E8001B
:104730000E94A92580918A03809332030895809175
:104740008703813A09F0B7CF8091E800877F809393
:10475000E8008091E80080FFFCCF80913203C1CF58
:1047600084B7877F84BF0FB6F894A89580916000C6
:10477000886180936000109260000FBE80E890E036
:104780000FB6F89480936100909361000FBE0E9471
:104790007C2108950E94F9250E944C26E2EEF0E06B
:1047A00080818460808378940E949A28089589E1AA
:1047B00091E00E942420089580918603853031F491
:1047C00080918603853019F00E94F12108950E949E
:1047D000C62180918403882399F30E94892188232C
:1047E00079F30E9457240E944708EACF08959A015E
:1047F00040918D0350918E030E94FF230895492F0D
:1048000055274330510519F168F44130510509F439
:1048100044C04230510509F445C090E080E050E0CA
:1048200040E025C04132510549F142325105A9F716
:1048300084E490E046E055E061157105C1F08DE635
:1048400090E049E954E06130710589F0E6CF99279D
:104850008130910581F0009729F00297F1F6EEE2A0
:10486000F4E002C0E8E4F4E0849190E0AF01F901E3
:10487000518340830895ECE3F4E0F6CF89E090E0C3
:104880004EE554E06115710591F389E090E047E74A
:1048900054E06130710559F3C0CF82E190E047E800
:1048A00054E0E5CF8BE390E04CE454E0E0CF84E0CB
:1048B00089BD86E089BD09B400FEFDCF8091D80096
:1048C0008F7D8093D8008091E00082608093E0002B
:1048D0008091E00081FDFCCF0895AF92BF92CF920E
:1048E000DF92FF920F931F93CF93DF936C01EB0145
:1048F0008A010E94C825F82E811123C001151105D7
:1049000039F0F80180819181C81BD90BC80ED91EDE
:10491000B12CA12C2097A9F08091E80085FD22C040
:104920008091E8008E778093E80001151105A1F0D1
:10493000F80180819181A80EB91EB182A08285E024
:10494000F82E8F2DDF91CF911F910F91FF90DF9067
:10495000CF90BF90AF9008950E94C8258823D1F2D0
:10496000F82EEFCFF60181916F018093F10021972E
:10497000FFEFAF1ABF0ACECFFC0180918D0390915B
:104980008E0386179707A0F06115710529F49091A1
:10499000E8009E779093E80090E06115710551F46E
:1049A000911108C08091E80082FF32C080E0089534
:1049B000BC01F2CF809186038823B1F18530B1F13B
:1049C0008091E80083FD2EC08091E80082FDEACF4F
:1049D0008091E80080FFE1CF2091F20030E0611586
:1049E000710519F02830310558F091E02830310573
:1049F00009F090E02091E8002E772093E800CDCFD9
:104A000081918093F100615071092F5F3F4FE7CF93
:104A100080918603882341F0853041F08091E80041
:104A200083FFC0CF81E0089582E0089583E0089578
:104A3000FC0180918D0390918E0386179707A0F05B
:104A40006115710529F48091E8008E778093E80064
:104A500090E06115710551F4911108C08091E80052
:104A600082FF33C080E00895BC01F2CF80918603BD
:104A70008823B9F18530B9F18091E80083FD2FC01A
:104A80008091E80082FDEACF8091E80080FFE1CFCD
:104A90002091F20030E06115710519F028303105E0
:104AA00058F091E02830310509F090E08091E8005D
:104AB0008E778093E800CDCF84918093F10031967A
:104AC000615071092F5F3F4FE6CF809186038823A5
:104AD00041F0853041F08091E80083FFBFCF81E055
:104AE000089582E0089583E00895982F953028F086
:104AF0008F708093E90081E008959093E900242F5E
:104B0000762F50E0981731F07091EC002091ED0075
:104B10005091F00021FD02C09F5FE8CF3091EB0083
:104B20003E7F3093EB003091ED003D7F3093ED0000
:104B30003091EB0031603093EB007093EC002093E8
:104B4000ED005093F0002091EE0027FDE5CF80E0CE
:104B500008958091870387FF13C08091E80082FF4A
:104B600006C08091E8008B778093E80004C08091B4
:104B700086038111F2CF0895809186038823D9F3AB
:104B80008091E80080FFF8CF8091E8008E77ECCF2D
:104B90002091E4003091E50095E6A9012091EC0018
:104BA000822F817020FF06C08091E80080FF06C040
:104BB00080E008952091E80022FD1AC080918603CC
:104BC000882389F0853089F08091EB0085FD0FC046
:104BD0002091E4003091E50042175307F9F291501B
:104BE000E1F684E0089582E0089583E0089581E08D
:104BF00008950E9457260E945A26E0EEF0E0808138
:104C000081608083E8EDF0E080818F77808319BC3C
:104C1000E3E6F0E08081816080831092850308954F
:104C20000E9457260E945A268091D8008F77809341
:104C3000D8008091D80080688093D8008091D800F7
:104C40008F7D8093D80084E089BD86E089BD09B45A
:104C500000FEFDCF1092860310928203109284030F
:104C60001092830342E060E080E00E94752580910D
:104C7000E1008E7F8093E1008091E200816080936B
:104C8000E2008091E20088608093E2008091E00081
:104C90008E7F8093E0000895E3E6F0E080818E7FD0
:104CA000808381E0809385030E94102608951092EE
:104CB000E20008951092E10008951F920F920FB63E
:104CC0000F9211242F933F934F935F936F937F9392
:104CD0008F939F93AF93BF93EF93FF938091E100E6
:104CE00082FF0BC08091E20082FF07C08091E1004B
:104CF0008B7F8093E1000E9499288091E10080FFE2
:104D000019C08091E20080FF15C08091E2008E7F83
:104D10008093E2008091E20080618093E2008091C4
:104D2000D80080628093D80019BC85E08093860308
:104D30000E94CF228091E10084FF2BC08091E2008D
:104D400084FF27C084E089BD86E089BD89B5982F9E
:104D5000917080FFFBCF8091D8008F7D8093D80029
:104D60008091E1008F7E8093E1008091E2008F7E50
:104D70008093E2008091E20081608093E200809164
:104D80008203882309F443C084E0809386030E9451
:104D9000D8228091E10083FF29C08091E20083FF47
:104DA00025C08091E100877F8093E10082E08093BD
:104DB0008603109282038091E1008E7F8093E10050
:104DC0008091E2008E7F8093E2008091E20080611A
:104DD0008093E20042E060E080E00E9475258091CF
:104DE000F00088608093F0000E94CC22FF91EF9148
:104DF000BF91AF919F918F917F916F915F914F91F3
:104E00003F912F910F900FBE0F901F90189580919A
:104E1000E30087FD93E090938603B9CF1F920F9232
:104E20000FB60F9211242F933F934F935F936F937D
:104E30007F938F939F93AF93BF93CF93DF93EF9322
:104E4000FF93D091E900DF708091EC00C82FC17012
:104E500080FDC0E81092E9008091F000877F809388
:104E6000F00078940E9452271092E9008091F0009F
:104E700088608093F000CD2BCF70C093E900FF9144
:104E8000EF91DF91CF91BF91AF919F918F917F91E2
:104E90006F915F914F913F912F910F900FBE0F90A7
:104EA0001F901895AAE2B0E0E8E5F7E20C946129BA
:104EB00087E893E02091F100FC012193CF01F3E01A
:104EC0008F389F07B9F70E94F8228091E80083FF8E
:104ED0001EC180918703909188039A3008F017C112
:104EE000E92FF0E0E65BF44D0C944C29803899F002
:104EF000823809F00CC180918B038F70853008F0E7
:104F000006C18093E9008091EB0085FB882780F93A
:104F10001092E90006C0809183039091840391115F
:104F200082609091E800977F9093E8008093F10071
:104F30001092F1008091E8008E77E5C0882309F493
:104F4000D3C0823009F0E3C0809189038111D6C0BB
:104F500080918B038F702FEF280F243008F0D7C07B
:104F60008093E9002091EB0020FFC8C0933031F41A
:104F70008091EB0080628093EB00C0C09091EB00C9
:104F800090619093EB0021E030E001C0220F8A9500
:104F9000EAF72093EA001092EA008091EB00886023
:104FA000EACF8111B4C0109189031F778091E3008B
:104FB0008078812B8093E3008091E800877F809345
:104FC000E8000E94A9258091E80080FFFCCF809135
:104FD000E30080688093E30082E0111183E0809316
:104FE000860395C08058823008F091C08091890373
:104FF00090918A038C3D23E09207A1F583E08A8398
:105000008AE289834FB7F894DE01139620E03EE0F0
:1050100051E2E32FF0E050935700E49120FF03C0EA
:10502000E295EF703F5FEF708E2F90E0EA30C0F0B6
:10503000C7968D939D932F5F243159F74FBF809171
:10504000E800877F8093E8006AE270E0CE01019675
:105050000E94BC248091E8008B778093E80057C0C1
:10506000C096E7CF60918B0370918C03AE014F5FC8
:105070005F4F0E94F723BC01892B09F448C090912F
:10508000E800977F9093E80089819A810E94182513
:10509000E1CF8038E1F58091E800877F8093E800D8
:1050A000809182038093F10045CF811130C09091AF
:1050B0008903923060F58091E800877F8093E80053
:1050C000909382030E94A92580918203882311F086
:1050D00084E005C08091E30087FDFACF81E08093F2
:1050E00086030E94E32213C080918903813079F402
:1050F00081E0933009F080E0809384031092E9000E
:105100008091E800877F8093E8000E94A925809124
:10511000E80083FF0AC08091E800877F8093E80061
:105120008091EB0080628093EB00AA96E3E00C9400
:105130007D290895CF93809186038823A1F0C091A3
:10514000E900CF709091EC00892F817090FD80E88C
:10515000C82B1092E9008091E80083FD0E9452273D
:10516000CF70C093E900CF910895002480FD060E12
:10517000660F11F08695D1F7802D089500245527EC
:1051800004C0080E591F880F991F009729F07695C3
:105190006795B8F37105B9F7802D952F0895EE271F
:1051A000FF27AA27BB2708C0A20FB31FE41FF51FC4
:1051B000220F331F441F551F969587957795679546
:1051C00098F37040A9F7009799F7BD01CF010895B2
:1051D000991B79E004C0991F961708F0961B881F49
:1051E0007A95C9F78095089587FB082E062687FDD6
:1051F000819567FD61950E94E8280EF4919507FC62
:1052000081950895AA1BBB1B51E107C0AA1FBB1FB4
:10521000A617B70710F0A61BB70B881F991F5A9542
:10522000A9F780959095BC01CD01089597FB072EB5
:1052300016F4009407D077FD09D00E94022907FCDC
:1052400005D03EF4909581959F4F08957095619596
:105250007F4F0895A1E21A2EAA1BBB1BFD010DC0B2
:10526000AA1FBB1FEE1FFF1FA217B307E407F50716
:1052700020F0A21BB30BE40BF50B661F771F881FF2
:10528000991F1A9469F760957095809590959B0188
:10529000AC01BD01CF010895EE0FFF1F0590F49101
:1052A000E02D09942F923F924F925F926F927F92DE
:1052B0008F929F92AF92BF92CF92DF92EF92FF9226
:1052C0000F931F93CF93DF93CDB7DEB7CA1BDB0BD2
:1052D0000FB6F894DEBF0FBECDBF09942A88398877
:1052E00048885F846E847D848C849B84AA84B9847E
:1052F000C884DF80EE80FD800C811B81AA81B9818A
:10530000CE0FD11D0FB6F894DEBF0FBECDBFED019D
:105310000895002E083090F0982F872F762F652F54
:10532000542F432F322F22270850F4CF220F331F40
:10533000441F551F661F771F881F991F0A95B2F7D4
:10534000002D089597FD1094002E083098F0085015
:10535000232F342F452F562F672F782F892F912DEC
:10536000F4CF1594979587957795679557954795B9
:10537000379527950A95AAF71124002D08958F9245
:105380009F92AF92BF92CF92DF92EF92FF92CF9314
:10539000DF93EC01688179818A819B8161157105B8
:1053A0008105910521F464E279ED8BE597E02DE12B
:1053B00033EF41E050E00E94982A49015A0127EA60
:1053C00031E440E050E00E94CF286B017C012CEEDC
:1053D00034EF4FEF5FEFC501B4010E94CF28DC012D
:1053E000CB018C0D9D1DAE1DBF1DB7FF03C00197E6
:1053F000A109B04888839983AA83BB839F77DF91F3
:10540000CF91FF90EF90DF90CF90BF90AF909F90A3
:105410008F9008950E94BF29089580E091E00E9436
:10542000BF290895B0E0A0E08093000190930101AE
:10543000A0930201B09303010895FC014150504034
:1054400030F001900616D1F73197CF0108958827E3
:1054500099270895FB01DC0104C08D91019080190A
:1054600021F441505040C8F7881B990B0895FB0167
:10547000DC0102C001900D9241505040D8F70895D0
:10548000F999FECF92BD81BDF89A992780B508950C
:10549000A6E1B0E044E050E00C948A2AA8E1B0E034
:1054A00042E050E00C948A2ADC01A40FB51F415061
:1054B000504048F0CB01840F951F2E910E94652A21
:1054C00041505040D0F70895262FF999FECF92BD54
:1054D00081BDF89A019700B4021639F01FBA20BDB9
:1054E0000FB6F894FA9AF99A0FBE08950396272FEB
:1054F0000E94652A0E94642A252F0E94652A242F73
:105500000C94652A0196272F0E94652A0C94642A20
:10551000DC01CB01FC01F999FECF06C0F2BDE1BD73
:10552000F89A319600B40D9241505040B8F7089562
:10553000052E97FB1EF400940E94AF2A57FD07D05A
:105540000E942A2907FC03D04EF40C94AF2A5095F0
:105550004095309521953F4F4F4F5F4F089590955F
:105560008095709561957F4F8F4F9F4F0895F89468
:10557000FFCF3B063B068B068B06F0066A066A06E3
:105580006A060C077D078C078C07C71ACE1AD51A36
:10559000DA1ADF1AE41AE91AEE1AF31AF81AFD1ADF
:1055A000021B061B0B1B0E1B111B141B171B191BAD
:1055B0001C1B1E1B751B821B871B8B1B8D1B8F1BB4
:1055C000911B931B261D9A1D2E1DF81CFC1C321DC1
:1055D000001D361D421D0C1D931D101D461D141D62
:1055E0004A1D721D181D4E1D791D1E1D541D5C1D6A
:1055F000041D3A1D081D3E1D221D581D681D821DDB
:10560000911DF21C2A1DA11DC01EB71EC31EB51E72
:10561000141F141FB51E141F141FDF1E141FEA1EB3
:10562000F51E141F141F141F141FB51E141F141F62
:10563000B51E141FD11E141F141F121F121F121F7C
:10564000121F121F121F121F121F121F001F141FE2
:10565000C01EB31E141F141F141F141F141F141F69
:10566000141F141F141F141F001F141F141FB51E16
:10567000141F071F071F071F071F071F071F071FED
:10568000071F071F001FFD1F0320EC1FF71F092026
:105690000F20152076279E2787289E278728D12729
:0856A000F2278728492855284C
:1056A800010000007002010102000E000E0E011937
:1056B8001A1B1C1D1E1F2021227922A8227C22A130
:1056C8002201E200E900EA00B500B600B700CD000B
:1056D8008301CC008A019201940121022302240251
:1056E8002502260227022A02B300B4006F007000C8
:1056F8009F01CB019F02A002818283E200E900EAB8
:1057080000B500B600B700CD008301CC008A019235
:105718000194012102230224022502260227022ADB
:1057280002B300B4006F0070009F01CB019F02A07C
:10573800028182833435363362329692939495315E
:105748006564666737000102020202060606090957
:10575800090909090F0F0F0F0F0F1515151819193A
:105768001919191919191919232425252525252544
:1057780000FF0100010000FFFF0000010001FF0021
:00000001FF
