:100000000C94F7020C942F030C942F030C942F03E1
:100010000C942F030C942F030C942F030C942F0398
:100020000C942F030C942F030C942F030C94EF25A6
:100030000C949E260C941F210C942F030C942F03D8
:100040000C942F030C942F030C942F030C94A721D2
:100050000C942F030C942F030C942F030C942F0358
:100060000C942F030C942F030C942F030C942F0348
:100070000C942F03C906C906F506F5065D07880826
:10008000880888087B07140825082508401E361EA6
:10009000431E8B1E8F1E8F1E8B1E8F1E8F1E641E77
:1000A0008F1E6E1E781E8F1E8F1E8F1E8F1E8B1E24
:1000B0008F1E8F1E8B1E8F1E511E8F1E8F1E881E21
:1000C000881E881E881E881E881E881E881E881E00
:1000D0008D1E8F1E401E331E8F1E8F1E8F1E8F1E65
:1000E0008F1E8F1E8F1E8F1E8F1E8F1E8D1E8F1EAA
:1000F0008F1E8B1E8F1E861E861E861E861E861EC9
:10010000861E861E861E861E8D1E0B2732272A28D7
:1001100032272A287E27A1272A28F8270728165CB5
:100120001E001F00200021002200230024002500C3
:10013000260027002A002B0014001A0008001500D2
:1001400017001C0018000C00120013003100000002
:1001500004001600070009000A000B000D000E0045
:100160000F0033003400E1001D001B0006001900E1
:100170000500110010003600370038002800E000AC
:10018000E300000000002C00000000002C00000034
:100190000000E2000151000000000000000000002B
:1001A00000000000000000002D002E004C003A006E
:1001B0003B003C003D003E003F004000410042004B
:1001C000430044004500C35CC45CC65CC85CCA5CB8
:1001D000CC5C000000000000000000000000E10016
:1001E000C55CC75CC95CCB5CCD5C00000000500006
:1001F000520051004F00E000E3000000000000004A
:1002000000000000000000000000E200010000000B
:100210000000000000002A2B280000000000000061
:1002200000000000000000000029000000002C1E5B
:100230003420212224342627252E362D3738271E18
:100240001F202122232425263333362E37381F043E
:1002500005060708090A0B0C0D0E0F1011121314D6
:1002600015161718191A1B1C1D2F3130232D350494
:1002700005060708090A0B0C0D0E0F1011121314B6
:1002800015161718191A1B1C1D2F3130354C00007C
:10029000000000000000000000000000000000005E
:1002A000000000000000000000000000000000004E
:1002B00000007E0F00D4FFFFFFC70000007800049D
:1002C0007F3F1F643214643214783C1E1E140A05EA
:1002D0002223252628292A2C2D2F30323335363853
:1002E0003A3B3D3E4042434547494A4C4E505153AC
:1002F0005557595A5C5E6062646668696B6D6F71D0
:10030000737577797B7D7F81838587898A8C8E90D1
:10031000929496989A9C9E9FA1A3A5A7A8AAACAEDA
:10032000AFB1B3B4B6B8B9BBBCBEBFC1C2C3C5C61A
:10033000C7C9CACBCCCDCED0D1D2D2D3D4D5D6D7C3
:10034000D7D8D9D9DADADBDBDBDCDCDCDCDCDDDD01
:10035000DDDDDCDCDCDCDCDBDBDBDADAD9D9D8D7F1
:10036000D7D6D5D4D3D2D2D1D0CECDCCCBCAC9C793
:10037000C6C5C3C2C1BFBEBCBBB9B8B6B4B3B1AFCA
:10038000AEACAAA8A7A5A3A19F9E9C9A989694926A
:10039000908E8C8A89878583817F7D7B7977757341
:1003A000716F6D6B6968666462605E5C5A5957551F
:1003B0005351504E4C4A4947454342403E3D3B3ADB
:1003C0003836353332302F2D2C2A29282625232262
:1003D000FFAA7F5540000101010101010101010255
:1003E00002020202020202020303030303030303E5
:1003F00004040404040404050505050506060606B0
:1004000006070707070708080808090909090A0A6B
:100410000A0B0B0B0C0C0C0D0D0D0E0E0E0F0F0F0F
:10042000101011111112121313141415151616179A
:1004300017181819191A1A1B1B1C1D1D1E1E1F2008
:1004400020212222232424252626272829292A2B55
:100450002C2D2D2E2F30313232333435363738397A
:100460003A3B3C3D3E3F4041424344454647484974
:100470004A4C4D4E4F50515354555658595A5B5D46
:100480005E5F616264656668696B6C6D6F707273E4
:100490007577787A7B7D7E8082838587888A8C8E4B
:1004A0008F91939596989A9C9EA0A2A3A5A7A9AB7D
:1004B000ADAFB1B3B5B7BABCBEC0C2C4C6C9CBCD6F
:1004C000CFD1D4D6D8DBDDDFE2E4E7E9EBEEF0F321
:1004D000F5F8FAFDFF0C0351005500410052004BA6
:1004E0000000000A034E0061007300700000000469
:1004F00003090409023B00020100A0FA09040000FC
:10050000010301010009211101000122400007053A
:100510008103080001090401000103000000092112
:1005200011010001226D0007058203200001120164
:100530000002000000087070405301000102000139
:1005400005010980A101850319012AB700150126BB
:10055000B700950175108100C0050C0901A1018546
:100560000419012AA002150126A002950175108127
:1005700000C005010906A1018506050719E029E764
:10058000150025019508750181020507190029EF5D
:100590001500250195F0750181020508190129054D
:1005A000950575019102950175039101C005010939
:1005B00006A101050719E029E71500250195087531
:1005C0000181029501750881010507190029FF15B0
:1005D0000026FF0095067508810005081901290508
:1005E000950575019102950175039101C0001124D3
:1005F0001FBECFEFD4E0DEBFCDBF04B603FE18C0F0
:1006000080911D0390911E03A0911F03B0912003C0
:100610008730904BA740B04B59F410921D031092B5
:100620001E0310921F0310922003E0E0F8E30995E7
:1006300011E0A0E0B1E0EEEBF2E502C005900D9212
:10064000AC3BB107D9F723E0ACEBB1E001C01D92A0
:10065000AD31B207E1F70E949B140C945D290C9414
:1006600000009C013A9521153F4130F5BC016627F9
:100670007270AC01442754709C012227387094FF9B
:100680000FC090FF02C080E101C080E0672B09F03D
:100690008062452B09F08064232B79F080680895EF
:1006A000892F8170672B09F08260452B09F08460E7
:1006B000232B19F08860089580E00895CF93DF938D
:1006C000EB010E943103FE01DF91CF910994CF939A
:1006D000DF93EC01805E9109089710F0209719F4E0
:1006E00060E876E002C060E079E0CE010E945E033F
:1006F0008C2FDF91CF910C945A05CF93DF93EC01AF
:100700000E940106CE01805E9109089710F02097A3
:1007100019F467E876E002C067E079E0CE01DF9186
:10072000CF910C945E03CF93DF93EC010E9467039B
:10073000C933D10549F42FEF87EE93E02150804073
:100740009040E1F700C00000CE01DF91CF910C9402
:100750007D0381E0089581E008950C94AB03089532
:100760000C94AF031F93CF93DF9300D000D01F9260
:10077000CDB7DEB749835A836B833091BF0189813E
:100780009A81311114C0662359F0222349F00E9446
:10079000D80A182F682F89819A810E94780A03C08D
:1007A0000E94A90A182F69817A81812F04C00E94B2
:1007B000D80A69817A810F900F900F900F900F9057
:1007C000DF91CF911F910C94FE11FC01262F4081E7
:1007D00051816281738184810C94B20381E0089518
:1007E000CF93DF93EC0160E00E94E503BE01DF914F
:1007F000CF910C94B0030C944C130C9448130895AF
:100800000E9422090E94FF032FEF84E39CE0215005
:1008100080409040E1F700C000000C94CD210F9380
:100820001F93CF93DF938C0161E00E94E503EC01FD
:10083000B8010E94AD03882309F44BC0B801CE0172
:100840000E94AA1C882309F444C0B801CE010E946A
:10085000751F8823F1F1B801CE010E94C81C8823BE
:10086000C1F1B801CE010E94D11E882391F1B801D7
:10087000CE010E94E41A882361F1F8018281882365
:1008800009F1CB358DE5D807C1F050F4C115FCE571
:10089000DF0781F0CF3DDC45A9F40E940E1019C09E
:1008A000CC35EDE5DE0761F0CD35DD4559F40E942C
:1008B000510F08C00E9400040CC00E945A0F02C0D1
:1008C0000E945D0FC801DF91CF911F910F910C9491
:1008D000A90380E0DF91CF911F910F9108950E94AD
:1008E00001210C94F8040E94FB040C940721DF9270
:1008F000EF92FF920F931F93CF93DF93E82FF0E0D7
:10090000E25FFD4FD490282F26952695269530E05E
:10091000F901E255FD4F0491877010E0082E02C0E6
:10092000159507950A94E2F701701127F901E2562F
:10093000FD4FE490F12C082E02C0F594E7940A9440
:10094000E2F791E0E922FF24F901E257FD4FC4915B
:10095000D0E002C0D595C7958A95E2F7C170DD2732
:100960000115110519F081EE0E945A05E114F104F8
:1009700019F086EE0E945A058D2D0E947706EF2809
:1009800019F086EE0E940106012B19F081EE0E94FB
:100990000106CD2B51F08CE2DF91CF911F910F9189
:1009A000FF90EF90DF900C947706DF91CF911F912D
:1009B0000F91FF90EF90DF900895982F9F709A50BD
:1009C000963010F0805D01C0895A0C947704089528
:1009D0000C94E70481E008950C94EA040895CF9301
:1009E000C82F0E94E8048C2F0E94EC04CF91089538
:1009F00080E00C94EF040E94D11F0C94EF040E943D
:100A0000D11F9091BE01891721F08093BE010C94F3
:100A1000EF040895CF93DF93CDB7DEB72B970FB6D2
:100A2000F894DEBF0FBECDBF4F83588769877A87A2
:100A30008B8761110E949D0E9E012F5F3F4F86E0C4
:100A4000F90111928A95E9F785E0FE013796D901FF
:100A500001900D928A95E1F789819A814C815D819F
:100A6000452B31F09F3F31F491E08F3F19F403C0E3
:100A700091E001C090E090FF09C049815A816B81EB
:100A80007C818D819E810E94B60D05C0C9010E94A6
:100A9000EE038111F2CF2B960FB6F894DEBF0FBE96
:100AA000CDBFDF91CF910895FC01808191810E949B
:100AB0001A0B0895CF93882309F4A1C0C82F823858
:100AC000C1F40E94D11F81FD9AC069E380910201A7
:100AD000909103010E94BC200E94BF0E2FEF81EE77
:100AE00094E0215080409040E1F700C0000069E3AD
:100AF00019C0833801F50E94D11F80FD80C063E5D5
:100B000080910201909103010E94BC200E94BF0EBF
:100B10002FEF81EE94E0215080409040E1F700C03B
:100B2000000063E580910201909103010E94C720BB
:100B3000CF910C94BF0E8438C1F40E94D11F82FD66
:100B40005EC067E480910201909103010E94BC2085
:100B50000E94BF0E2FEF81EE94E021508040904024
:100B6000E1F700C0000067E4DDCF8CEF8C0F813A25
:100B7000F8F48C2F0E94951E811141C06C2F80913A
:100B80000201909103010E943C20882349F06C2FC0
:100B900080910201909103010E94C7200E94BF0E24
:100BA0006C2F80910201909103010E94BC20C0CF64
:100BB00080E28C0F883048F4C77081E001C0880F54
:100BC000CA95EAF70E947D0EB3CFEBE5EC0FE33058
:100BD00040F4F0E0EE5AFE4F808190E0CF910C940B
:100BE000FA1FC85AC73158F4EC2FF0E0EE0FFF1F80
:100BF000EC5DFE4F80819181CF910C941020CF91BC
:100C00000895882309F45BC0682F823879F40E9424
:100C1000D11F81FF54C069E38091020190910301CB
:100C20000E94BC200E94BF0E69E310C08338B1F45B
:100C30000E94D11F80FF43C063E580910201909123
:100C400003010E94BC200E94BF0E63E58091020157
:100C5000909103010E94C7200C94BF0E843879F450
:100C60000E94D11F82FF2BC067E480910201909106
:100C700003010E94BC200E94BF0E67E4E7CF8CEF07
:100C8000860F813A18F380E2860F883048F4677047
:100C900081E001C0880F6A95EAF70E94830EDCCFDD
:100CA0008BE5860F833020F480E090E00C94FA1FEF
:100CB000685A673120F480E090E00C941020089589
:100CC0001F93CF93DF93182FEB010E945A052097B3
:100CD00041F08FE99FE00197F1F700C000002197F4
:100CE000F6CF812FDF91CF911F910C9401068933AC
:100CF00019F060E070E002C060E570E00C946006FE
:100D0000882321F00E947D0E0C94BF0E0895882345
:100D100021F00E94830E0C94BF0E0895CF92DF92B3
:100D2000EF92FF920F931F93CF93DF937C01D62F07
:100D3000C72FFC011281058102950F700E94730E6E
:100D40008823B9F01123A9F08C2F807F803421F003
:100D500080E28D0F883068F08091C10282FD09C069
:100D600082E00E941F0F0E94730E91E0D82ED926B8
:100D700001C0D12CCC2EC2948FE0C8228C2D90E0E3
:100D80008C30910508F0C4C1FC01E65CFF4F0C9467
:100D9000E9288C2F807FCF70882311F0C295C07F07
:100DA000112399F0CC2309F49FC180E28D0F883084
:100DB00010F0D11104C08C2F0E947D0E03C08C2F27
:100DC0000E94900E0E94BF0E8FC18D2F0E940106BF
:100DD000CC2309F49DC180E28D0F883038F1DD23EA
:100DE00029F18C2F0E94960E24C08C2F807FCF700B
:100DF000803211F0C295C07FDD2319F0D130A1F10E
:100E00003DC08091C10282FF17C0112349F0CC235D
:100E100029F08C2F0E947D0E0E94BF0E80E065C1DC
:100E200080E00E940106CC2309F472C18C2F0E943D
:100E3000830E0E94BF0E6CC1112371F0002341F09C
:100E4000013031F40E94A00E8C2B0E94A80E60C1CC
:100E50000E94A00E8C2B1DC0002319F0013009F454
:100E600057C10E94B50E25C0112321F0063008F0AD
:100E70004FC10EC0053008F04BC11BC0112361F0FB
:100E8000002331F0F701858180FF2EC18F708583AB
:100E90008C2F0E9480063CC1002359F0D93309F001
:100EA00034C1FFEF07EE13E0F15000401040E1F7CE
:100EB0002AC18C2F0E9487062BC18C2F8695869580
:100EC000837019F0813061F023C1112321F08D2F3F
:100ED0009C2F937002C080E090E00E94FA1F20C116
:100EE000112321F08D2F9C2F937002C080E090E0A1
:100EF0000E94102015C18C2F837009F047C011117A
:100F00000BC12D2F229526952770220F220F6D2FB2
:100F10006F70862F90E0A0E0B0E0022E04C0880F32
:100F2000991FAA1FBB1F0A94D2F7D4FF10C04FE02D
:100F300050E060E070E004C0440F551F661F771F4B
:100F40002A95D2F7409550956095709503C040E082
:100F500050E0BA01C695C695C3708A019B01082B63
:100F6000192B2A2B3B2BC901B801C23049F058F488
:100F7000C13019F00E948E09CFC00E947C09CCC0FC
:100F80000E94A009C9C00E947A09C6C0112319F0A5
:100F90008C2F817001C08695882309F4BDC02D2F48
:100FA000229526952770220F220F6D2F6F70862FA6
:100FB00090E0A0E0B0E0022E04C0880F991FAA1FA5
:100FC000BB1F0A94D2F7D4FF10C04FE050E060E09E
:100FD00070E004C0440F551F661F771F2A95D2F793
:100FE000409550956095709503C040E050E0BA017F
:100FF000C695C695C3708A019B01082B192B2A2B15
:101000003B2BC901B801C23049F058F4C13019F086
:101010000E94530A81C00E94410A7EC00E94650A54
:101020007BC00E94B40978C0CF70112339F08C2F97
:101030000E94DA098D2F0E9480066EC08D2F0E94BB
:1010400087068C2F0E94FB0967C0D23F21F128F44C
:10105000D03F41F0D13FC1F043C0D33F19F1D43F5D
:1010600079F03EC0112341F0053008F051C08C2FBB
:101070008F710E94200A4CC0063008F049C0F7CF9B
:101080008091C10282FF18C0112339F08C2F8F711B
:101090000E94DA093DC01123C9F38C2F8F710E9481
:1010A000FB0936C0112329F08C2F8F710E94C509CE
:1010B0002FC00E94C0092CC0112349F0CF718C2F82
:1010C0000E94DA0963E08C2F0E94040F21C081E0A6
:1010D0000E941F0F0230E0F082E00E941F0F18C034
:1010E000112331F0002391F28D2F0E945A0510C078
:1010F000002399F2D93349F41FEF27EE33E0115062
:1011000020403040E1F700C000008D2F0E94010612
:1011100088EF8C0D843020F40E94D11F0E94EF04D0
:10112000DD20C9F00E946F0E80FD15C0F70112820C
:101130000E94690E0E94DA09C7010E94CC080E9431
:10114000690EDF91CF911F910F91FF90EF90DF908B
:10115000CF900C94FB09DF91CF911F910F91FF90DD
:10116000EF90DF90CF9008950F931F93CF93DF936D
:10117000EC01688179818A810E94250B8C010E9493
:10118000770A0E946809B801CE010E948E06DF919D
:10119000CF911F910F910895CF93DF93EC01988128
:1011A00089812B813C81232B31F08F3F31F481E009
:1011B0009F3F19F403C081E001C080E080FD1DC0A5
:1011C000CE010E940F04811110C00E94730E88236B
:1011D000A1F08A81882389F08091C10282FD0DC02F
:1011E00082E0DF91CF910C941F0FCE010E94B408D2
:1011F000CE01DF91CF910C94F003DF91CF91089550
:10120000882321F00E94900E0C94BF0E089588232D
:1012100021F00E94960E0C94BF0E089580E090E09D
:101220000E94FA1F80E090E00E9410200E949D0E14
:101230000C94BF0E80910201909103010E94D22074
:101240000C940E090E948D0E0C941A0992959F70B1
:10125000963079F010F4925001C09A50923068F4B0
:10126000803F69F018F4883E40F409C0843F29F4B7
:1012700006C0883E20F0813F11F080E0089581E0B3
:101280000895FC01808191810E941A0B0E94260919
:101290000895CF93DF9300D000D01F92CDB7DEB773
:1012A0000F900F900F900F900F90DF91CF910895B6
:1012B000CF93DF9300D000D000D0CDB7DEB7269615
:1012C0000FB6F894DEBF0FBECDBFDF91CF9108956A
:1012D000089508950C9469090C946A090E946C0998
:1012E0006093EC017093ED018093EE019093EF0118
:1012F0000C940E090C946E090F931F930091EC014E
:101300001091ED012091EE013091EF01602B712BD6
:10131000822B932B1F910F910C946E090F931F93A7
:101320000091EC011091ED012091EE013091EF015F
:1013300060237123822393231F910F910C946E09D4
:101340000F931F930091EC011091ED012091EE019C
:101350003091EF0160277127822793271F910F910A
:101360000C946E090C9469090E94B2096093E8011B
:101370007093E9018093EA019093EB010C940E09BC
:1013800060E070E0CB010C94B4090F931F9341E02F
:1013900050E060E070E08A019B0104C0000F111F63
:1013A000221F331F8A95D2F7C901B8011F910F91EF
:1013B0000C94B4090F931F9341E050E060E070E09B
:1013C00004C0440F551F661F771F8A95D2F780917E
:1013D000E8019091E901A091EA01B091EB018A0145
:1013E0009B01082B192B2A2B3B2BC901B8011F91FC
:1013F0000F910C94B4090F931F9341E050E060E00B
:1014000070E004C0440F551F661F771F8A95D2F7FE
:1014100040955095609570958091E8019091E90113
:10142000A091EA01B091EB018A019B0108231923E5
:101430002A233B23C901B8011F910F910C94B409D1
:101440000F931F9341E050E060E070E004C0440F50
:10145000551F661F771F8A95D2F78091E8019091FA
:10146000E901A091EA01B091EB018A019B010827F3
:1014700019272A273B27C901B8011F910F910C9406
:10148000B4090F931F930091E8011091E901209195
:10149000EA013091EB01602B712B822B932B1F9172
:1014A0000F910C94B4090F931F930091E8011091D0
:1014B000E9012091EA013091EB016023712382233D
:1014C00093231F910F910C94B4090F931F930091D4
:1014D000E8011091E9012091EA013091EB016027C8
:1014E0007127822793271F910F910C94B4090895B7
:1014F000282F362F892F6CE00E945E28820F982FAC
:101500009770A1E001C0AA0F9A95EAF78695869593
:10151000869590E065E070E00E946728FC01E05449
:10152000FE4F40E050E0632F70E090819B01042E5D
:1015300002C0369527950A94E2F721702195292754
:101540002A23292721934F5F5F4F4530510569F7C3
:101550000895282F892F6CE00E945E28820FA82F03
:10156000A77086958695869590E065E070E00E946C
:101570006728BC0140E050E080E0FB01E40FF51F6C
:10158000E054FE4F208130E00A2E02C036952795A8
:101590000A94E2F721703327042E01C0220F0A9427
:1015A000EAF7822B4F5F5F4F4530510531F70895C1
:1015B000BF92CF92DF92EF92FF920F931F93CF9340
:1015C000DF938C01C090E801D090E901E090EA013E
:1015D000F090EB018091EC019091ED01A091EE0172
:1015E000B091EF01C82AD92AEA2AFB2ACFE1D0E03C
:1015F000D701C6010C2E04C0B695A795979587957F
:101600000A94D2F780FD04C0219790F7B12C07C04F
:10161000BC2EB8018C2F0E9419120197A9F38B2DB3
:10162000DF91CF911F910F91FF90EF90DF90CF90BE
:10163000BF900895CF93DF93EC010E94D80ABE01BA
:101640000E941912DF91CF9108951F93CF93DF93DA
:10165000EB019091BF01992321F0CB010E941A0B5D
:1016600013C0882349F0CB010E94D80A182F682F95
:10167000CE010E94780A04C0CB010E94A90A182F4B
:10168000BE01812F0E941912DF91CF911F91089501
:10169000CF93DF93C091F0018091F101C817A1F0C1
:1016A000D0E0CE0166E070E00E946728FC01EE50B9
:1016B000FE4F4081518162817381848195810E94B6
:1016C00058092196C770E8CFDF91CF9108954091D6
:1016D0002202509123026091240270912502809190
:1016E0002602909127020C945809FF920F931F93A2
:1016F000CF93DF938091270282958F7009F062C0AB
:1017000080912402882309F45DC02091F001F090BB
:10171000F1011091220200912302A0912502B091C3
:10172000260281E01F3F09F080E0C0910001D091C6
:101730000101482F2F1509F445C0109721F00F3FE4
:1017400021F080E003C081E001C0842F30E080FD03
:1017500035C0C90166E070E00E946728FC01EE50C8
:10176000FE4F818180132AC08081811327C082812E
:10177000811124C0838194818A1B9B0B8C179D0748
:10178000E8F4809127028F70806180932702C9015D
:1017900066E070E00E946728FC01E950FE4F9081EE
:1017A0009F709061908382E292E00E94CC08DF916A
:1017B000CF911F910F91FF900C94480B2F5F3F4FDB
:1017C0002770B8CFDF91CF911F910F91FF900895AF
:1017D0009F92AF92BF92CF92DF92EF92FF920F93C0
:1017E0001F93CF93DF93CDB7DEB761970FB6F89411
:1017F000DEBF0FBECDBF8C0185E0F801DE011D9676
:1018000001900D928A95E1F7F801E2809091220211
:1018100030912302609125027091260261157105B5
:1018200031F03F3F31F481E09F3F19F403C081E084
:1018300001C080E0F82FF1709F2E80FD47C1F801B4
:1018400040812181A380B48082E2C82E82E0D82E1C
:10185000F0902402F501E61BF70B609100017091F6
:101860000101FF2009F4DCC080912702582F507F2E
:10187000E617F70708F096C0511155C0231313C09F
:10188000491311C0FE2CE1100EC08F70806180934F
:1018900027020E94670BC6010E94CC088091270294
:1018A000F801858350C1AB2831F02F3F31F481E03E
:1018B0004F3F19F403C081E001C080E080FD03C008
:1018C00081E08E2502C080E090E0F82FF170FF2EBD
:1018D00080FF1FC0E091F0013091F101E31709F49E
:1018E00010C1F0E0CF0166E070E00E946728DC01E3
:1018F000AE50BE4F11968C911197281307C08C9152
:10190000481304C012968C91E81203C03196E77018
:10191000E5CFFE2CEE2009F416C1809127028160EC
:101920008093270254C0231306C0491304C0E1105A
:1019300002C0F80199C0C8010E944109882361F1E1
:10194000EE2051F120912702822F82958F7090E036
:10195000029774F0809122029091230298878F83DE
:101960001986BB86AA862C87CE0107960E94CC08D2
:1019700086E0F801A2E2B2E001900D928A95E1F7CB
:101980000E94750B0E94670B0AC0231711F1C80152
:101990000E94410981112CC0C8010E94CC08FF247B
:1019A000F394D1C05111F1CF7A2DB98AA88A522F60
:1019B0006E2D89890E94490982E292E00E94CC083A
:1019C00086E0F60111928A95E9F70E94670BF12CE7
:1019D000BAC04913DCCFE110DACFF8018583C80122
:1019E0000E94CC0886E0F60111928A95E9F7ABC017
:1019F000EE2091F220912702822F82958F7090E045
:101A000002970CF4B5CF80912202909123029A8321
:101A100089831B82BD82AC822E83CE010196A6CF24
:101A2000E617F70708F044C0FE2CEE2009F4B4CF07
:101A3000231330C049132EC02091270220FD21C05E
:101A4000822F82958F70482F50E041155105C9F0C3
:101A5000F80125834F30510541F08F5F982F929503
:101A6000907F822F8F70892B8583C8010E94CC08BC
:101A700086E0F801A2E2B2E001900D928A95E1F7CA
:101A80003DC086E0F801A2E2B2E001900D928A9595
:101A9000E1F759C0C8010E944109811169CF8091C5
:101AA0002702816080932702C8010E94CC084BC0A6
:101AB0007A2DB98AA88A522F6E2D89890E944909E8
:101AC00086E0F60111928A95E9F718C0EE2009F434
:101AD00063CFC8010E944109F82E882309F45CCF26
:101AE00086E0F801A2E2B2E001900D928A95E1F75A
:101AF00082E292E00E9454050E94750B0E94670BDF
:101B000022C04D872E878D859E850E941A0B292F16
:101B100022952F70223028F49F7039F0811105C072
:101B20000BC0243028F49F7049F4805E883020F088
:101B3000C8010E94CC089F2CF92C05C0F8019581A2
:101B4000907F99F7F9CF8F2D61960FB6F894DEBF8D
:101B50000FBECDBFDF91CF911F910F91FF90EF90FE
:101B6000DF90CF90BF90AF909F900895CF93DF9379
:101B7000CDB7DEB72C970FB6F894DEBF0FBECDBF42
:101B80004F83588769877A878B879C87CE01079612
:101B90000E94E80B8823D1F09F8188852A853B85A8
:101BA000232B31F08F3F31F481E09F3F19F403C0C4
:101BB00081E001C080E080FD6FC04F81588569855C
:101BC0007A858B859C850E94580966C086E0FE0157
:101BD0003796DE01119601900D928A95E1F7FF810B
:101BE000E8856A857B856115710531F0EF3F31F439
:101BF00081E0FF3F19F403C081E001C080E080FD77
:101C00004BC08091F10190E09C012F5F3F4F277006
:101C100033274091F00150E02417350709F443C001
:101C2000F983EA837D836C8366E070E00E94672815
:101C3000DC01AE50BE4F96E0FE01319601900D9250
:101C40009A95E1F72093F1010E94480B25C090E09E
:101C500066E070E00E9467288E509E4F0E94E80B5D
:101C6000882371F18091F00190E066E070E00E94BD
:101C70006728FC01EE50FE4F4081518162817381E3
:101C8000848195810E9458098091F00190E001962D
:101C9000877099278093F0018091F0019091F10174
:101CA0008913D5CF0DC00E9422091092F101109224
:101CB000F001E2E2F2E086E0DF011D928A95E9F7A9
:101CC0002C960FB6F894DEBF0FBECDBFDF91CF913B
:101CD0000895809148028595859585950895809110
:101CE00048028770089590914802977081E009F446
:101CF00080E0089580916B02089590916B02892B8A
:101D000080936B020895809590916B028923809354
:101D10006B02089580936B02089510926B020895F0
:101D200090916A02892B80936A0208958095909120
:101D30006A02892380936A02089510926A020895C4
:101D400080914902089508950C94A30E0C94A40E5A
:101D50009091C10292FD08C090914902981721F01C
:101D6000809349020C94A60E08958091490288231D
:101D700029F01092490280E00C94A60E0895CF93AA
:101D8000DF93E0910201F091030180916B02808367
:101D9000E0910201F0910301908180916A02892B08
:101DA000808380914902882381F0E0910201F091C3
:101DB00003019081892B808380910201909103011E
:101DC0000E94262081110E94B50EC0910201D0917F
:101DD000030140E250E068E272E0CE010E9408296F
:101DE000892B69F080E2FE01A8E2B2E001900D9239
:101DF0008A95E1F7CE01DF91CF910C94E01FDF913E
:101E0000CF9108950C94A30E9091C10292FD10C041
:101E1000982F990F990F990F692B609348020E9490
:101E2000DA09809148028595859585950C94020F75
:101E30000C94DA091092480280E00C94020F209171
:101E400048028095822380934802982F977099F4D6
:101E500030E0482F082E000C550B2417350759F099
:101E60009091C10292FD07C08595859585950E9448
:101E7000FB090C941A0F08959091C10292FB22273E
:101E800020F9281769F080FB92F99093C1028091A4
:101E9000C0029091C1020E948A0F82E00C941F0F31
:101EA00008958091C10282FB882780F991E08927FB
:101EB0000C943C0F81E00C943C0F80E00C943C0FA0
:101EC0006FEF7FEF80E090E00C94472980E090E096
:101ED0000E94232921E0893E9E4F09F020E0822FB5
:101EE000089582E090E00C94152983E090E00C9432
:101EF0001529CF9384E090E00E941529C82F82E233
:101F000090E00E9415292C2F30E0A901582BCA011E
:101F1000CF910895CF93C92F682F84E090E00E945D
:101F200029296C2F82E290E0CF910C942929AB01F2
:101F3000BC018FE090E00C943B29AB01BC0183E134
:101F400090E00C943B2960E070E0CB010C949D0F75
:101F500060E070E0CB010E94970F0C94A30F69EE34
:101F60007EEF80E090E00E94472960E082E090E010
:101F70000E94292960E083E090E00E9429291092C4
:101F8000EC011092ED011092EE011092EF0160E071
:101F900084E090E00E94292960E082E290E00E94C3
:101FA000292960E085E090E00E94292960E086E030
:101FB00090E00E9429296FEF87E090E00E94292994
:101FC00040E050E0BA0188E090E00E943B2960E0E8
:101FD0008DE090E00E94292940E050E0BA0188E1BC
:101FE00090E00E943B2960E087E190E00E9429296F
:101FF00040E050E0BA018CE190E00E943B2960E0B3
:1020000070E080E290E00E94472940E050E0BA0191
:1020100088E190E00E943B290C94A80F0C94AF0F2C
:10202000682F8EE090E00C9429290E948C21609307
:102030007A0270937B0280937C0290937D0260937E
:1020400076027093770280937802909379020895D4
:1020500081E008950C94281008950C942C100C9491
:102060002C100C942F100C942C100C9433100C94F6
:102070002C1085EF92E10E94C71F0E9437100C942C
:1020800035100E942D100C942C100E940F130E94EA
:10209000EE040C94061C0E9477210E94F4130E9407
:1020A00045100E94031A0C9431105F926F927F9238
:1020B0008F929F92AF92BF92CF92DF92EF92FF9258
:1020C0000F931F93CF93DF93CDB7DEB72A970FB649
:1020D000F894DEBF0FBECDBF0E940914C82E811137
:1020E0000E9415103CE6832E32E0932E00E010E0B3
:1020F000502E802F0E9433135C01F4016190719087
:102100004F016826792661147104B1F40F5F1F4FE7
:102110000530110569F78FEF89838A831B820E943E
:1021200080218160782F9D838C8349815A816B81C6
:102130008D810E940A053AC080917E0281FD0E9435
:102140003C13D12CEE24E394F12CC3018E219F216A
:10215000892B29F10E942A108823A9F0DE825F8250
:10216000AE20BF2081E0AB2809F480E088870E9480
:1021700080218160782F9A8789874E815F81688569
:102180008A850E940A05000F111FF801E459FD4FCE
:1021900080819181E826F926F182E08207C0D394FC
:1021A000EE0CFF1CFCE0DF12D0CFB0CF81E0C110FD
:1021B00001C080E02A960FB6F894DEBF0FBECDBFF7
:1021C000DF91CF911F910F91FF90EF90DF90CF9013
:1021D000BF90AF909F908F907F906F905F90089589
:1021E0000E9455100E94361A0C94FF04CF93DF937F
:1021F0000E941E12EC01811522E59207E8F5811577
:1022000031E5930708F0BBC0883E910528F5803E74
:10221000910508F0EFC0883A910570F4853A910570
:1022200008F07CC08130910509F475C008F4DFC066
:10223000049708F0DFC0DBC08F3B910508F0D7C0E2
:10224000C85AD0E0CC0FDD1FCB5ADE4F0990D881A1
:10225000C02DCE019464CFC0811540E5940708F0ED
:102260006BC0811550E4950708F062C09A958115FE
:102270009F4108F4BFC0BBC0811536E5930738F510
:10228000811545E5940708F098C0811554E5950738
:1022900008F08DC09C012370332786958695C11563
:1022A000D34508F072C0C1E0D0E002C0CC0FDD1F02
:1022B0002A95E2F7282F30E0C90175E0880F991FB1
:1022C0007A95E1F7C82BD92BCE019C6894C0811573
:1022D0002AE5920780F4811539E5930708F076C066
:1022E000811548E5940708F482C0D82FCC27CE0189
:1022F000806F906A80C090568115904208F077C038
:102300008D2F8F710E94B212DD27D0628F71AE01C6
:10231000582BCA0170C081E090E06DC0C55AD0E072
:10232000CD57DE4F8881C82FD0E0CE01906463C0C6
:10233000DF70CE01906A5FC0F4E096958795FA95BC
:10234000E1F7282F23703C2F337081E090E002C02A
:10235000880F991F3A95E2F79C68AC01522B9C2F8D
:102360009F7096959695892F90E0EC01A5E0CC0F93
:10237000DD1FAA95E1F7CA018C2B9D2B3CC0D82FFD
:10238000CC27CE01816F906A36C0C1E0D0E002C098
:10239000CC0FDD1F2A95E2F790E065E0880F991FCA
:1023A0006A95E1F7C82BD92BCE019A6824C0D82FA3
:1023B000CC27CE01846F906A1EC00E94B2128F712A
:1023C00090E0D82FCC27CE01906215C08F700E946C
:1023D000B21294E0D695C7959A95E1F7CF70D0E008
:1023E000DC2FCC27D0699E01282BC90104C080E0D6
:1023F00090E001C0CE01DF91CF910895382F262FB4
:10240000872F90E06CE070E00E946728FC01832F2A
:1024100090E06CE370E00E9467288E0F9F1FFC0124
:10242000E20FF11DEE0FFF1FE25EFE4F85919491CA
:1024300008950E94FE110E94F610089582389105B9
:1024400069F1B0F48133910509F46DC048F4893223
:10245000910509F463C08A32910509F469C00895B1
:102460008533910509F455C089339105B9F0089574
:10247000833E910569F138F4803E9105B1F0823ECA
:10248000910509F10895863E9105A9F1873E9105D0
:10249000B9F1843E910509F064C023C02091C002C7
:1024A00020FD4FC021FD4DC008958091C00280FDE8
:1024B00044C08091C10280FF44C08091C00284FD6D
:1024C00042C083EE4DC08091C00282FF38C0F5CF7C
:1024D0008091C00282FD33C08091C10280FD31C075
:1024E000ECCF8091C10281FF32C08091C00284FD97
:1024F0002AC087EE35C08091C00283FF26C0F5CF89
:102500008091C00283FD21C08091C10281FD1FC066
:10251000ECCF8091C00285FD1CC01DC08091C0021F
:1025200085FD19C016C08091C00286FD16C017C077
:102530008091C00286FD13C010C089E311C082EEF5
:102540000FC080EE0DC080E00BC086EE09C084EEA7
:1025500007C089E205C085E303C08AE201C081E3C8
:1025600090E008959091C00292FF0DC0282F28712D
:10257000283019F4877F846006C0282F2471243006
:1025800011F48B7F886093FF0DC0282F28712831AC
:1025900019F4877E846106C0282F2471243111F438
:1025A0008B7E88612091C10220FF0DC0382F3871C9
:1025B000383019F4877F816006C0382F317131308F
:1025C00011F48E7F886021FF0DC0282F28712831DB
:1025D00019F4877E816106C0282F2171213111F401
:1025E0008E7E886194FD877E089580E008950C9426
:1025F000600F0E9409148FE39CE90197F1F700C076
:1026000000000E94091480E00E94331380FF04C080
:102610000E94F7120C94CD2108950C94F9120E9497
:10262000660F811102C00E940E100E94710F8093EC
:102630007E020E94790F9093C1028093C0020E9493
:102640000D130E94750F682F70E080E090E00E94EB
:102650007A096091E8017091E9018091EA01909115
:10266000EB010C94B209E82FF0E0EE0FFF1FE453EA
:10267000FD4F808191810895089580EA8A95F1F750
:10268000089500C008950C943D1308950C944513CB
:102690000C9446130C9445130C944A13F894E82FA9
:1026A000E295EF70F0E031A1282F2F7081E090E0EB
:1026B00001C0880F2A95EAF7982F9095932391A34C
:1026C00092A1892B82A3789408950F931F93CF939F
:1026D000DF93C2E9D1E089918F3F11F00E944E1340
:1026E00081E0C739D807B9F7C6E8D1E002E911E0BF
:1026F00089918F3F11F00E944E130C171D07C1F7EF
:10270000DF91CF911F910F910895BF92CF92DF92E9
:10271000EF92FF920F931F93CF93DF938C01C62FFD
:10272000D0E0CE018E569E4F6C01FC0190819F3F00
:1027300009F450C0B62EF894E92FE295EF70F0E05E
:1027400081A19F7021E030E001C0220F9A95EAF745
:10275000822B81A382A12095282322A378940E9412
:102760004113E6E8F1E042E951E021E030E0E12CFC
:10277000F12C61916F3F89F0A62FA295AF70B0E068
:1027800090968C9190E06F7002C0959587956A95B0
:10279000E2F780FD02C0C90102C080E090E0E82AB3
:1027A000F92A220F331F4E175F0719F7F6018081B0
:1027B0008F3F11F00E944E1361E0E114F10409F41F
:1027C00060E08B2D0E944313CC0FDD1FC00FD11F83
:1027D000F982E882DF91CF911F910F91FF90EF90E6
:1027E000DF90CF90BF9008950E9465138AE0ECECD3
:1027F000F2E0DF01982F1D929A95E9F7E2ECF2E002
:10280000DF011D928A95E9F785E00E9454140C942B
:10281000FB03FF920F931F93CF93DF93CDB7DEB7E8
:102820002A970FB6F894DEBF0FBECDBF8E010F5FA3
:102830001F4F8AE0F80111928A95E9F7F12C6F2D6C
:10284000C8010E948513F394F5E0FF12F8CF4AE027
:1028500050E0B80182EC92E00E940829FF24F39432
:10286000009709F4F12C892B41F08AE0F801A2ECE1
:10287000B2E001900D928A95E1F72F2D45E06CECC6
:1028800072E082EC92E00E9455140E94FD038F2DAD
:102890002A960FB6F894DEBF0FBECDBFDF91CF9161
:1028A0001F910F91FF9008950895FF920F931F932A
:1028B000CF93DF93F82E092F162FD72FC42F222363
:1028C00049F081E0809381020E94802190938002F0
:1028D00080937F02809181028823D9F080917F02CA
:1028E000909180020E949821059798F0EF2DF02F8B
:1028F000A12FBD2F80E090E04C2F50E0841795076A
:1029000034F4219131912D933D930196F7CF10929C
:102910008102DF91CF911F910F91FF9008950E9446
:1029200065230E944B100C9471230E9475230E9412
:10293000F0100C948F230E941E210E944C230E94B1
:1029400039100E948F140E9495140E944110FBCFF1
:10295000EF92FF920F931F93CF93DF93E82F7111A4
:102960000AC0442321F0F0E0EB52FC4FE4916E2FBB
:102970007E2F8E2F6CC0C62FD0E0072F10E0282F9F
:1029800030E0442329F0F901EB52FC4F249130E070
:10299000CE0166E070E00E946728EE24EA94F12CF4
:1029A000B7010E949F28DB01CC0FDD1FCB016BEA32
:1029B0007FEF0E9467288C0F9D1FC82FCC0FC80F78
:1029C000C701801B910BB9010E946728E92F492F8D
:1029D000D0E0CE01B8010E946728692F70E0C701DE
:1029E000861B970BB9010E946728F92FC7018C1B22
:1029F0009D0BB8010E946728692F70E0C701861BF4
:102A0000970BB9010E946728A230B10591F038F404
:102A1000109759F01197C1F48E2F7F2F0CC0A4305E
:102A2000B10579F050F0169779F4722F842FE92FC1
:102A30000DC0892F7E2FE22F09C0822F7E2FEF2F0E
:102A400005C0822F792F02C0722F8F2F6E2FDF913A
:102A5000CF911F910F91FF90EF90089541E00E9458
:102A6000A814089508950E942E150895CF93DF931A
:102A7000762FE901682F842F0E94331579836883AC
:102A80008A83DF91CF9108958091D602282F2695D1
:102A900030E02115310519F48170826005C02532BE
:102AA000310524F0817088648093D602089588E00F
:102AB00090E00C941D29CF92DF92EF92FF926B0170
:102AC0007C010E944415B701A60188E090E0FF90C8
:102AD000EF90DF90CF900C943B29E6EDF2E083E09D
:102AE000808311828FEF828383831482608171815E
:102AF000828193810C945B158091D60280FF02C085
:102B00008695089580E008959091DA02933018F444
:102B10009F5F9093DA02882351F06091D602709102
:102B2000D7028091D8029091D9020C945B15089538
:102B300081E00C9484159091DA02992319F0915058
:102B40009093DA02882351F06091D6027091D702F7
:102B50008091D8029091D9020C945B15089581E080
:102B60000C949B1570E00C94B31B3091080180917C
:102B7000D60280FF0CC08091070190E063E070E016
:102B80000E946728632F85529D4F0C94B2152091A7
:102B9000090140910A01241770F7822F90E063E049
:102BA00070E00E946728FC01E552FD4F11821082FF
:102BB00012822F5FF0CFA82FB62F8091D60280FF10
:102BC00016C02091090130910A01231770F4822F59
:102BD00090E063E070E00E946728FC01E552FD4F41
:102BE000A183B08342832F5FF0CF0C94B515089575
:102BF000CF93DF9300D01F92CDB7DEB79091D6026E
:102C000090FF0AC09E012F5F3F4F0E9436154B81F7
:102C100069818A810E94DB150F900F900F90DF91E0
:102C2000CF910895CF93DF93EC01EC81F0E0E05376
:102C3000FD4F4491E6EDF2E0628181810E94F8153A
:102C40008C818F5F8C83DF91CF910895CF93DF9339
:102C5000EC01E6EDF2E0438162818C810E94F8157F
:102C60008C818F5F8C83DF91CF9108950F931F9399
:102C7000CF93DF9300D01F92CDB7DEB78C01809148
:102C8000820281110AC09E012F5F3F4F4FEF6FEF0D
:102C90000E9436158A8180938202F80184818130F6
:102CA00051F028F0823061F4409182020AC0809194
:102CB000820240E007C06091820240E080E003C0F1
:102CC00040E080E060E00E94DB15F801848190E044
:102CD000019663E070E00E94B32884830F900F9008
:102CE0000F90DF91CF911F910F910895AF92BF92F6
:102CF000CF92DF92EF92FF920F931F93CF93DF93C8
:102D000000D01F92CDB7DEB7182FF62E042FE22E7B
:102D10009091D60290FF6EC0E92FE695AE2FB0E0FD
:102D2000A956BE4F8C9180938C029E7F923061F4A5
:102D30009E012F5F3F4F812F0E9436154B81698185
:102D40008A810E94DB1544C0823019F40091D902B7
:102D50003FC0863019F41091D7023AC08930D9F3B8
:102D60008931B1F5E9514E2F4170D42EE695F0E04E
:102D7000E053FC4FA590B490C12CBB2440910B01B3
:102D8000C41620F52C2D30E0C501B9010E9467283A
:102D9000642F70E00E949F28E12FD11002C0E60F3F
:102DA00001C0E61B80910901A901480F511DCA010C
:102DB00063E070E00E9467289C0125523D4F402F40
:102DC0006F2D8E2F0E943615C394D8CF0E94B51553
:102DD0001093D702F092D8020093D902EE2051F05E
:102DE0006091D6027091D7028091D8029091D90259
:102DF0000E945B150F900F900F90DF91CF911F9164
:102E00000F91FF90EF90DF90CF90BF90AF9008951B
:102E1000E6EDF2E09181282F438162818CE0890FF9
:102E20000C94761681E00C940817E6EDF2E091819F
:102E3000282F4381628184EF890F0C94761681E0FC
:102E40000C941517E6EDF2E062812CE0620F08F4B5
:102E50006FEF282F438181810C94761681E00C94CA
:102E60002217E6EDF2E062812CE0621B08F460E0DC
:102E7000282F438181810C94761681E00C943117C0
:102E8000E6EDF2E043812CE0420F08F44FEF282FEB
:102E9000628181810C94761681E00C944017E6EDF6
:102EA000F2E043812CE0421B08F440E0282F6281CD
:102EB00081810C94761681E00C944F1720E00C94DD
:102EC0007616EF92FF921F93CF93DF93EC0110E001
:102ED000EE24EA94F12C30910B01131700F52091A8
:102EE0000901812F90E0820F911D63E070E00E9444
:102EF0006728FC01E552FD4F632F70E0C7010E9477
:102F0000B328812F0E945E289C819F014091D902A5
:102F10006091D802890F0E9436151F5FDCCF0E9496
:102F2000B5159A818C8190FF02C08F5F01C08150DE
:102F30008C83DF91CF911F91FF90EF900895AF9216
:102F4000BF92CF92DF92EF92FF920F931F93CF9396
:102F5000DF93FC01828180FF02C0DFEF01C0D1E07E
:102F6000C0E03EE0A32E80910B01C81708F043C0DB
:102F700080910901CC2ED12C9601280F311DC90159
:102F800063E070E00E94672885529D4F7C01FC0140
:102F900011821082128204E010E0B12C8091840230
:102FA0008B0D8F302CF06A2D0E949128892F05C03F
:102FB00087FF03C090910B01890F082E000C990B1D
:102FC000C816D90691F48091D90290E0B8010E9408
:102FD000672895958795959587959701482F6091D6
:102FE000D8028091D7020E943615BD0E01501109FA
:102FF000A9F6CF5FB8CF0E94B51580918402D13079
:1030000031F4811102C080910B01815007C090E022
:10301000019660910B0170E00E94B32880938402B6
:10302000DF91CF911F910F91FF90EF90DF90CF90A4
:10303000BF90AF900895CF932091090130910A017C
:10304000231770F4822F90E063E070E00E946728FD
:10305000FC01E552FD4F1182108212822F5FF0CFEA
:10306000C0E060910B01C61790F5EC2FF0E070E026
:10307000CF010E94B32890910901890F209183020A
:10308000022E000C330B90E063E070E00E94672892
:10309000E217F307A4F020910601022E000C330B77
:1030A0002E173F0764F09C0125523D4F4091D902F5
:1030B0006091D8028091D7020E94361506C0FC01AB
:1030C000E552FD4F118210821282CF5FCACF0E945B
:1030D000B5152091050180918302820F80938302B0
:1030E00090910601920F9093060119165CF4082E38
:1030F000000C990B40910B0150E04150510984178D
:1031000095071CF0219520930501CF9108954F92CA
:103110005F926F927F928F929F92AF92BF92CF9267
:10312000DF92EF92FF920F931F93CF93DF938C0167
:10313000FC01C481CC2ED12CE12CF12CA7019601ED
:10314000C701B6010E947828A70196010E9478283D
:103150004B015C0180E290E06C01CC1AD1080D2C8F
:10316000000CEE08FF0825E530E040E050E0C50126
:10317000B4010E9478282B013C01A7019601C701E8
:10318000B6010E947828A70196010E9478289B0129
:10319000AC01280D391D4A1D5B1DC301B2010E94FF
:1031A000C728D22F822F90E02A3230F025E530E078
:1031B000A901481B590BCA0163E070E00E9467280F
:1031C00097FD019695958795C82FC095F12C85E5BB
:1031D000E82EED1A80910B01F816D0F4F1FC02C034
:1031E000EE2D01C0ED2F209109018F2D90E0820F6F
:1031F000911D63E070E00E9467289C0125523D4FBD
:103200004C2F6091D8028E2F0E943615F394E2CF96
:103210000E94B515F8018481811102C091E003C0BC
:10322000803219F49FEF9093040190910401890F6B
:10323000F8018483DF91CF911F910F91FF90EF9060
:10324000DF90CF90BF90AF909F908F907F906F90C6
:103250005F904F9008950F931F93CF93DF93EC01EE
:1032600000E010E040910B01842F90E0081719074F
:103270002CF5809109019801280F311DC90163E0E7
:1032800070E00E9467289C0125523D4F469550E012
:103290008C81041715071CF4882331F002C08111BA
:1032A00003C04091D90201C040E06091D8028091F2
:1032B000D7020E9436150F5F1F4FD4CF0E94B5155D
:1032C0008C8190E00196817099278C83DF91CF915A
:1032D0001F910F910895E6EDF2E080818E7F80834B
:1032E00060817181828193810E945B1510928D02B1
:1032F0002FEF80E792E0215080409040E1F700C03E
:1033000000000C94B5156091D602669570E04BE014
:1033100050E08CE091E00E94FB28892B19F481E0B9
:1033200080938D020E948021909386028093850273
:1033300008959091D60290FF35C09170811102C01E
:10334000926006C0853210F0986402C0880F982BF6
:103350009093D602662351F06091D6027091D70205
:103360008091D8029091D9020E945B156091D6029B
:10337000669570E04BE050E08CE091E00E94FB2805
:10338000892B19F010928D0202C00E94831981E0EE
:10339000809388024091D9026091D8028091D7022F
:1033A0000C945E170895682F9091D602969581E04F
:1033B000890F853208F081E00C94991981E00C9412
:1033C000D319682F9091D60296958FEF890F09F443
:1033D00084E20C94991981E00C94E11961E00C9459
:1033E0009919E6EDF2E080818160808386950C94E6
:1033F000EE198091D60280FD0C946B190C94F11992
:1034000060E00C94991980918B0281112EC00E946A
:10341000660F811104C00E940E100E946D150E945B
:1034200057156093D6027093D7028093D802909379
:10343000D9026E7F61F40E946D150E94571560934A
:10344000D6027093D7028093D8029093D9020E943B
:10345000441510928D028091D60280FF03C086959C
:103460000E94001A81E080938B0208950F931F93AE
:10347000CF93DF9380918D02882309F485C08091DA
:103480008C02E091D602E695E81BE0938702823039
:1034900049F4F0E0E453FD4FE491CE2FD0E002E197
:1034A00016E149C0863049F4F0E0E753FD4FE4915E
:1034B000CE2FD0E006E216E13EC0893051F4E69509
:1034C000F0E0EA53FD4FE491CE2FD0E001E617E1A2
:1034D00032C08F3051F4E695F0E0ED53FD4FE491AA
:1034E000CE2FD0E00FE917E126C0853149F4F0E096
:1034F000E054FD4FE491CE2FD0E00BE118E11BC06A
:10350000883181F0833239F4EEEBF2E0C591D49149
:1035100006E316E110C0843251F4C4EFD1E00BE2AF
:1035200019E109C0C8E2D0E007E818E104C0C0ED25
:10353000D7E002E315E180918802882361F01092C0
:1035400088020E94802190938602809385021092C7
:103550008A02109289020E948021E0918502F091F6
:1035600086028E1B9F0B8F3F9F4770F4EC0FFD1F51
:10357000F0938602E093850285E892E0F801DF91FE
:10358000CF911F910F910994DF91CF911F910F91CE
:103590000895882311F0FA0101C0FB010994CF932B
:1035A000DF93C82FD62F0E947C158C1740F00E9405
:1035B0007C158D1720F4DF91CF910C94DE198C2FA0
:1035C000DF91CF910C94EE191F93CF93DF93FB0102
:1035D00012811111C3C0EC010E947A0E8272CD3C9F
:1035E000FCE5DF0709F49AC0A8F5C73CECE5DE0767
:1035F00009F476C0A8F4C43C9CE5D90709F45FC07F
:1036000028F4C33CDC4509F457C054C0C53C9CE5D4
:10361000D90709F459C0C63CDC4509F45CC04AC06E
:10362000CA3CFCE5DF0709F46AC050F4C83CECE58D
:10363000DE0709F45AC0C93CDC4509F45BC03AC056
:10364000CB3C9CE5D90709F45FC0CC3CDC4509F4D0
:1036500060C030C0C23DFCE5DF0709F46FC088F4EC
:10366000CF3C9CE5D90709F460C008F45CC0C03DBC
:10367000FCE5DF0709F45CC0C13DDC4509F45BC033
:1036800019C0C53D9CE5D90709F460C050F4C33D9D
:10369000FCE5DF0709F455C0C43DDC4509F454C01E
:1036A00009C0C63D9CE5D90709F455C0CE35DD45B6
:1036B00009F454C011E052C00E94F9194FC04BEEFA
:1036C00059E16EED79E104C04EED59E16BEE79E11F
:1036D0000E94C91A43C04FE157E162E177E1F8CF98
:1036E00042E157E16FE177E1F3CF4DE357E16EE25D
:1036F00077E1EECF4EE257E16DE377E1E9CF4BE5BD
:1037000057E16CE477E1E4CF4CE457E16BE577E116
:10371000DFCF4FEA55E168E975E1DACF48E955E1D5
:103720006FEA75E1D5CF81E017C065E082E010C097
:1037300068E086E00DC06EE089E00AC064E18FE0D9
:1037400007C067E185E104C088E106C062E289E163
:103750000E94CF1A03C083E20E94EE19812FDF91ED
:10376000CF911F910895509A2BB12E7F3BB13160BC
:103770004FB7F894FC01CB0163E070E00E9467282A
:103780008E0F9F1FE817F90789F0519168E03BB948
:10379000000000C057FF2BB9550F000000C000C04B
:1037A00000C02BB900C06A9591F7ECCF4FBF8FE5F1
:1037B00094E00197F1F700C000000895CF93DF93E4
:1037C00097FF0DC0FB012281222349F0EC010E94EA
:1037D0001C1CCE019F770E948F1C0E94691C81E0F7
:1037E000DF91CF91089590910603923069F48A3069
:1037F00040F490E009966AE070E00E94B328875A8E
:1038000001C086500C9477060C94DD048CE090E0A7
:103810000E94152990E0A0E0B0E080930603909309
:103820000703A0930803B09309030895609106036A
:103830008CE090E00C9429290E94DD1F8695817010
:1038400080930B030E94DD1F81708093050380919C
:103850000603813039F480910B03882319F089E342
:103860000E9477060E947A0E80930A030E948D0EB2
:1038700080910603813071F048F0823081F084300D
:1038800009F586EE0E94770688E11AC082EE0E9452
:103890005A0518C088E193E00E94930313C08091F9
:1038A0000503811103C083E50E94770682EE0E9422
:1038B0005A058FE39CE90197F1F700C0000087E506
:1038C0000E9477068FE39CE90197F1F700C00000A2
:1038D000089580910603813059F030F0823089F0EC
:1038E0008430C9F488E215C082EE0E94010613C03C
:1038F0008CE20E94770680910B03882361F089E3B4
:1039000008C082EE0E94010680910503811103C068
:1039100083E50E94770680910A030C948A0E0F9328
:103920001F93CF93DF938C01CCE0D0E0C8010C2E25
:1039300002C0969587950A94E2F78F700E94F31B58
:103940002497CC3F8FEFD80789F7DF91CF911F9154
:103950000F9108950F931F93CF93DF93EC018B0189
:10396000FB018281882361F00E947A0ECE01825E83
:103970009C458530910520F4809306030E94161C17
:10398000B801CE01DF91CF911F910F910C94DE1BF6
:10399000CF93DF93EC01FB018281882309F43CC1C2
:1039A000C430FDE5DF0760F4CB3F9CE5D90788F420
:1039B0009E0122503C452431310508F02EC109C03A
:1039C000C236EDE5DE0729F0C63AFDE5DF0709F06E
:1039D00024C10E94790F9093C1028093C002C1312B
:1039E0008CE5D80709F4C6C008F042C0C930ECE540
:1039F000DE0709F49BC000F5C5308CE5D80709F453
:103A000085C078F4C330ECE5DE0709F478C008F02F
:103A10007AC0C230DC4509F0F5C08091C0028160F7
:103A2000EFC0C7309CE5D90709F478C008F07AC028
:103A30008091C0028061E4C0CD30FCE5DF0709F46D
:103A400087C058F4CB309CE5D90709F479C008F059
:103A50007BC08091C00288606FC0CF30FCE5DF077B
:103A600009F480C008F082C08091C002877FC8C07E
:103A7000CE3F9CE5D90709F471C000F5C531FCE5DE
:103A8000DF0709F485C068F4C3319CE5D90709F460
:103A900075C008F095C00E9422098091C0028F77FE
:103AA000AFC0CC3FFCE5DF07A9F108F054C0CB3F25
:103AB000DC4509F0A7C08091C10240C0C230EDE5ED
:103AC000DE0709F489C058F4C1158DE5D80709F45B
:103AD0005AC008F069C08091C10282602FC0C2360E
:103AE000EDE5DE0709F47CC0C63AFDE5DF0709F421
:103AF00081C0C330DD4509F085C080E06EC0809193
:103B0000C00282607DC08091C00216C08091C00258
:103B1000886076C08091C10282604FC08091C002EF
:103B200080626EC08091C00280646AC00E942209D7
:103B30008091C002806864C0846062C081603DC0C2
:103B40008091C0028E7F5CC08091C0028D7F58C082
:103B50008091C00216C08091C10218C08091C1023C
:103B60008D7F2BC08091C0028F7E4AC08091C002A1
:103B70008F7D46C08091C0028F7B42C08091C00281
:103B8000877F8B7F3DC08091C1028D7F8E7F15C066
:103B90008091C00282FB222720F991E0922790FBBE
:103BA00082F990FB83F92CC08091C102982F9095E7
:103BB00091708E7F892B90FB81F98093C10222C086
:103BC0000E9422098091C00287FB222720F991E000
:103BD000922790FB87F914C081E00E94101012C058
:103BE0008091C00284FB222720F991E0922790FB6C
:103BF00084F906C08091C002982F909590FB80F9BF
:103C00008093C0028091C0029091C1020E948A0FED
:103C10000E94220980E001C081E0DF91CF910895E8
:103C20000F931F9341E050E060E070E08A019B0138
:103C300004C0000F111F221F331F8A95D2F7C9013C
:103C4000B8010E947A091F910F910C942209482F04
:103C500050E0FA013597EF33F10508F060C0EA5BF8
:103C6000FF4F0C94E9280E940E1055C080917E02EF
:103C7000817F8E7F80937E0281E080938E02089503
:103C80000E94000448C080917E02982F9095917008
:103C900090FB80F980937E0291113DC0897F877FE0
:103CA00010C080917E0281FB222720F991E09227AB
:103CB00090FB81F980937E02992369F180917E02C5
:103CC000816080937E0227C080917E0282FB222742
:103CD00020F991E0922790FB82F9ECCF80917E024F
:103CE00083FB222720F991E0922790FB83F9E2CF12
:103CF0000E9422098091C00287FB222720F991E0CF
:103D0000922790FB87F98093C00205C0895301C0B8
:103D10008D510E94101E81E0089580E0FACF80E06E
:103D2000089580E008950C94911ECF93C82F809140
:103D30008E02882319F0813031F02BC00E947A0E58
:103D4000823249F504C00E947A0E823261F48C2FCF
:103D50000E94931E811104C08C2F0E94271E17C041
:103D600081E090E014C08C2F0E94911E81110EC042
:103D7000C43149F018F4CB3049F00FC0C93219F002
:103D8000C83321F00AC010928E0207C081E0817012
:103D900006C010928E0280E002C080E0F8CFCF9182
:103DA0000895CF93DF9386319C4541F5EB010E9446
:103DB0007A0E982F8A812091020130910301882385
:103DC00079F09A7A81E009F480E080938F02911172
:103DD00002C069E201C065E3C9010E94BC200AC0BB
:103DE00080918F02811102C069E201C065E3C901BF
:103DF0000E94C7200E94BF0E80E001C081E0DF91D9
:103E0000CF9108950F931F93CF93DF93C42FD22F99
:103E1000FC0182818823C9F0409392020E94802194
:103E2000909391028093900280E28C0F883008F08A
:103E300057C0C77081E001C0880FCA95EAF7DF91CB
:103E4000CF911F910F910C9480068091920248139C
:103E500030C080919002909191020E949821883CFC
:103E6000910538F510E21D0FCD17B9F080E28C0FE7
:103E7000883040F4C77081E001C0880FCA95EAF726
:103E80000E948706183028F581E09D2F977001C0A9
:103E9000880F9A95EAF70E948006802F0E94770685
:103EA0001830F0F4D77081E001C0880FDA95EAF796
:103EB0000AC080E28C0F883098F4C77081E001C09E
:103EC000880FCA95EAF7DF91CF911F910F910C945B
:103ED0008706802FDF91CF911F910F910C94770669
:103EE000DF91CF911F910F9108950F939C01CB010A
:103EF000243F4CE5340731F188F4293DFCE53F07C8
:103F0000D9F02A3D4CE5340779F1283D3C45A9F527
:103F100006E221EE41EE68ED7CE52BC0263FFCE594
:103F20003F07E1F0A8F0273F3C4539F507E225EED1
:103F300046EE67EF7CE51DC007E225EE45EE69ED34
:103F40007CE517C006E221EE40EE64EF7CE511C08F
:103F500007E225EE44EE65EF7CE50BC006E221EEBC
:103F600042EE66EF7CE505C008E221E045EE6AED31
:103F70007CE50E94021F80E008C0FC01828188234A
:103F800019F01092920201C081E00F910895909370
:103F9000BD018093BC01089590939802809397028D
:103FA0000895E0919702F0919802309721F00190E6
:103FB000F081E02D099480E008950E94D11F0895BA
:103FC000E0919702F0919802309799F020912301A7
:103FD000222359F02091C00227FF07C0DC012C9159
:103FE00011962C93119726E02C930280F381E02DFB
:103FF0000994089520919502309196022817390767
:1040000071F09093960280939502E0919702F0915F
:104010009802309721F00680F781E02D09940895E9
:1040200020919302309194022817390771F09093F0
:10403000940280939302E0919702F0919802309756
:1040400021F00084F185E02D09940895FC01329659
:1040500080912301882331F08091C00287FF02C044
:104060009EE101C096E080E0915028F0219122234A
:10407000D9F38F5FF9CF0895662351F12091230181
:104080002223E9F02091C00227FF19C0462F469550
:10409000469546954E31E0F4677021E030E002C06D
:1040A000220F331F6A95E2F7FC01E40FF11D8281B4
:1040B00090E02823392381E0232B69F409C0FC0117
:1040C000329608962191621729F0E817F907D1F77F
:1040D00080E0089581E008959C01FC0132969FEFF5
:1040E00080E04191461789F09F3F19F4411101C0CA
:1040F000982F8F5F8630A9F79F3F39F0F901E90FBC
:10410000F11D97FDFA956283089508959C012A5F39
:104110003F4FFC014281461301C012820196821773
:104120009307B9F70895262F2695269526952E31C3
:1041300068F4FC01E20FF11D677021E030E001C07E
:10414000220F6A95EAF78281282B22830895262F71
:104150002695269526952E3170F4FC01E20FF11D6F
:10416000677021E030E001C0220F6A95EAF72095E0
:10417000828128232283089520912301222329F07C
:104180002091C00227FD0C9493200C946C20209168
:104190002301222329F02091C00227FD0C94A7209F
:1041A0000C94862020912301FC013296222331F0C9
:1041B0008091C00287FF02C08EE101C086E0DF016E
:1041C0001D928A95E9F7089508950C94E42083E000
:1041D000809399020C94E520811102C081E001C016
:1041E00082E0809399020C94E5200C94EC2081E00D
:1041F000809399020C94E5200C94F72008950C9478
:10420000FE200C94FF200C94FE200C94FE200C94B5
:10421000FE20CF930E9405210E9409140E940321D1
:10422000C0E08C2F0E943313892B29F4CF5FC53057
:10423000C1F780E001C081E0CF91089508951F92F9
:104240000F920FB60F9211248F939F93AF93BF934A
:1042500080919A02811113C080910C0390910D03FB
:10426000A0910E03B0910F034196A11DB11D809343
:104270000C0390930D03A0930E03B0930F03BF9113
:10428000AF919F918F910F900FBE0F901F90189537
:1042900080911403843031F10E946F0410929A02CD
:1042A00020E488E190E00FB6F894A8958093600030
:1042B0000FBE2093600083B7817F846083BF83B784
:1042C000816083BF7894889583B78E7F83BF0FB654
:1042D000F894A895809160008861809360001092A6
:1042E00060000FBE08950E9422090C94730482E0BE
:1042F00084BD93E095BD9AEF97BD80936E000895BD
:104300002FB7F89480910C0390910D03A0910E03A8
:10431000B0910F032FBF08952FB7F89460910C034D
:1043200070910D0380910E0390910F032FBF08959C
:104330009C014FB7F89480910C0390910D03A091CC
:104340000E03B0910F034FBF821B930B0895789417
:104350001F920F920FB60F9211248F939F93AF93DA
:10436000BF9380910C0390910D03A0910E03B09127
:104370000F030196A11DB11D80930C0390930D03B3
:10438000A0930E03B0930F03BF91AF919F918F91B4
:104390000F900FBE0F901F90189581E08093E00062
:1043A00080E28093D8001092C9008FE19EE40197CB
:1043B000F1F700C0000087E090EBDC0180931D0363
:1043C00090931E03A0931F03B09320039CE088E109
:1043D0000FB6F894A895809360000FBE909360008C
:1043E000FFCF8091BE0208950895CF93DF9320916F
:1043F0002301222339F02091C00227FF03C060E28D
:1044000022E002C068E021E02093E9002FEF309124
:10441000E800215035FD06C035ED3A95F1F7000072
:104420002111F5CF2091E80025FF1DC0EC018091FE
:104430002301811105C040E050E068E070E003C056
:1044400070E040E050E0CE010E9401248091E8003D
:104450008E778093E80080E2FE01AEE9B2E0019041
:104460000D928A95E1F7DF91CF91089580939B0299
:1044700070939D0260939C0280911403843001F537
:1044800082E08093E9008FEF9091E800815095FDE4
:1044900006C095ED9A95F1F700008111F5CF809156
:1044A000E80085FF0DC040E050E063E070E08BE97C
:1044B00092E00E9401248091E8008E778093E800CA
:1044C0000895BC0184E00C943622BC0183E00C9476
:1044D000362208950C94FC206091100381E0611154
:1044E00001C080E00C94E7209091140381E09430A7
:1044F00009F080E0609110030C94EC2042E061EC44
:1045000081E00E94052542E261EC82E00E940525DF
:104510009091140381E0943009F080E060911003E1
:104520000C94F52080911603833009F45DC030F4BB
:10453000813071F0823009F496C008958A3009F410
:1045400082C08B3009F468C0893009F0A4C020C053
:1045500080911503813A09F09EC08091E800877F21
:104560008093E8008091190390911A03892B21F41C
:1045700060E28EE992E003C060E080E090E070E0ED
:104580000E944C248091E8008B778093E800089586
:1045900080911503813209F07EC0809119039091BA
:1045A0001A03029708F077C08091E800877F809314
:1045B000E8008091E80082FD05C08091140381111C
:1045C000F8CF69C08091F200823031F48091F1001F
:1045D000813011F0863021F48091F1008093BE0289
:1045E0008091E8008B7753C080911503813A09F0E0
:1045F00052C08091190390911A03892B09F04BC086
:104600008091E800877F8093E8008091E80080FF38
:10461000FCCF8091230136C0809115038132D9F5FA
:104620008091190390911A03892BA9F58091E800D4
:10463000877F8093E8000E943A258091170380933A
:1046400023010C94220980911503813221F5809178
:10465000E800877F8093E8000E943A258091180344
:104660008093BF02089580911503813AA1F480914F
:10467000E800877F8093E8008091E80080FFFCCF0E
:104680008091BF028093F1008091E8008E77809343
:10469000E8000C943A25089584B7877F84BF0FB64D
:1046A000F894A895809160008861809360001092D2
:1046B00060000FBE90E080E80FB6F8948093610030
:1046C000909361000FBE0C94F7200E948C250E94ED
:1046D000DF25E2EEF0E080818460808378940C94A2
:1046E000432887E191E00C94CC1F8091140385301E
:1046F000A9F480911403853079F40E9448218091B7
:1047000012038823B1F30E940921882391F30E94A8
:10471000EB230E942209EDCF0C9473210895089594
:104720000C949223292F332723303105C9F060F4EC
:104730002130310581F02230310509F044C08BE38E
:1047400090E023EF34E043C021323105E1F0223222
:10475000310549F138C082E190E02EE235E037C002
:1047600099278130910549F028F0029761F5E5ED30
:10477000F4E005C0EFEEF4E002C0E3EEF4E0849173
:1047800090E09F0124C06115710541F06130710511
:10479000D1F489E090E02EE135E019C089E090E0A5
:1047A00025E035E014C06115710541F061307105F7
:1047B00051F48DE690E020E435E009C080E490E01B
:1047C0002DEA35E004C080E090E020E030E0FA011E
:1047D00031832083089584E089BD86E089BD09B4D2
:1047E00000FEFDCF8091D8008F7D8093D80080910E
:1047F000E00082608093E0008091E00081FDFCCFCA
:104800000895CF92DF92EF92FF920F931F93CF9371
:10481000DF93EC018B017A010E945925811133C08D
:10482000E114F10439F0F70180819181081B190B23
:10483000C80FD91FC12CD12C0115110519F1809178
:10484000E80085FD16C08091E8008E778093E8002F
:10485000E114F10449F0F70180819181C80ED91E5D
:10486000D182C08285E00FC00E945925882321F3A0
:104870000AC089918093F10001501109FFEFCF1A0E
:10488000DF0ADACF80E0DF91CF911F910F91FF9087
:10489000EF90DF90CF90089520911B0330911C037F
:1048A0002617370748F06115710539F42091E800A3
:1048B0002E772093E80001C0B901FC0120E06115CA
:1048C000710561F1809114038823D9F18530D9F104
:1048D0008091E80083FD39C08091E80082FD2BC003
:1048E0008091E80080FFEBCF8091F20090E06115AD
:1048F000710551F08830910538F421912093F10031
:10490000615071090196F3CF21E0089709F020E08A
:104910008091E8008E778093E800D1CF2111D2CF2B
:104920000AC080911403882361F0853061F0809182
:10493000E80083FD0AC08091E80082FFF2CF80E0AA
:10494000089582E0089583E0089581E0089520911C
:104950001B0330911C032617370748F061157105BA
:1049600039F42091E8002E772093E80001C0B901C6
:10497000FC0120E06115710579F180911403882311
:1049800009F43DC0853009F43CC08091E80083FD06
:104990003AC08091E80082FD2CC08091E80080FF41
:1049A000E9CF8091F20090E06115710559F08830EF
:1049B000910540F424912093F100319661507109E2
:1049C0000196F2CF21E0089709F020E08091E800FD
:1049D0008E778093E800CECF2111CFCF0AC080918F
:1049E0001403882361F0853061F08091E80083FD35
:1049F0000AC08091E80082FFF2CF80E0089582E053
:104A0000089583E0089581E00895982F953068F522
:104A10009093E900981739F07091EC002091ED0027
:104A20005091F00003C0242F762F50E021FD02C0EA
:104A30009F5FECCF3091EB003E7F3093EB003091E5
:104A4000ED003D7F3093ED003091EB00316030930D
:104A5000EB007093EC002093ED005093F000209158
:104A6000EE0027FDE5CF80E008958F708093E90088
:104A700081E008958091150387FF11C08091E800BF
:104A800082FD05C0809114038111F8CF11C080917F
:104A9000E8008B770BC080911403882349F0809144
:104AA000E80080FFF8CF8091E8008E778093E800DF
:104AB00008952091E4003091E50095E64091EC00E6
:104AC000842F817040FF23C08091E80080FD1DC0CD
:104AD00080911403882399F0853099F08091EB0040
:104AE00085FD11C04091E4005091E5002417350781
:104AF00029F3915011F09A01E1CF84E0089582E00A
:104B0000089583E0089581E0089580E0089540913C
:104B1000E80042FFDDCF08950E94E9250E94EC25C0
:104B2000E0EEF0E0808181608083E8EDF0E080815C
:104B30008F77808319BCE3E6F0E080818160808319
:104B40001092130308950E94E9250E94EC2580919C
:104B5000D8008F778093D8008091D80080688093A8
:104B6000D8008091D8008F7D8093D80084E089BDE3
:104B700086E089BD09B400FEFDCF109214031092A7
:104B80001003109212031092110342E060E080E0E3
:104B90000E9405258091E1008E7F8093E100809145
:104BA000E20081608093E2008091E200886080935F
:104BB000E2008091E0008E7F8093E0000895E3E6BC
:104BC000F0E080818E7F808381E0809313030C94DA
:104BD000A3251092E20008951092E10008951F921B
:104BE0000F920FB60F9211242F933F934F935F9321
:104BF0006F937F938F939F93AF93BF93EF93FF93A5
:104C00008091E10082FF0BC08091E20082FF07C02B
:104C10008091E1008B7F8093E1000E944228809187
:104C2000E10080FF19C08091E20080FF15C08091F3
:104C3000E2008E7F8093E2008091E20080618093A9
:104C4000E2008091D80080628093D80019BC85E092
:104C5000809314030E946C228091E10084FF30C095
:104C60008091E20084FF2CC084E089BD86E089BD8C
:104C700009B400FEFDCF8091D8008F7D8093D800CD
:104C80008091E1008F7E8093E1008091E2008F7E31
:104C90008093E2008091E20081608093E200809145
:104CA0001003882311F084E007C08091E30087FDA2
:104CB00002C081E001C083E0809314030E9474224B
:104CC0008091E10083FF29C08091E20083FF25C02D
:104CD0008091E100877F8093E10082E0809314035C
:104CE000109210038091E1008E7F8093E10080910B
:104CF000E2008E7F8093E2008091E20080618093E9
:104D0000E20042E060E080E00E9405258091F00032
:104D100088608093F0000E946A22FF91EF91BF911A
:104D2000AF919F918F917F916F915F914F913F9143
:104D30002F910F900FBE0F901F9018951F920F92FA
:104D40000FB60F9211242F933F934F935F936F935E
:104D50007F938F939F93AF93BF93CF93DF93EF9303
:104D6000FF93C091E900CF708091EC00D82FD170F3
:104D700080FDD0E81092E9008091F000877F809359
:104D8000F00078940E94E2261092E9008091F000F1
:104D900088608093F000CD2BCF70C093E900FF9125
:104DA000EF91DF91CF91BF91AF919F918F917F91C3
:104DB0006F915F914F913F912F910F900FBE0F9088
:104DC0001F9018951F93CF93DF93CDB7DEB7AA97A7
:104DD0000FB6F894DEBF0FBECDBFE5E1F3E08091E2
:104DE000F100819323E0ED31F207C9F70E9492228E
:104DF0008091E80083FF2EC18091150390911603E6
:104E0000492F50E04A30510508F024C1FA01EB5710
:104E1000FF4F0C94E928803821F0823809F01AC13C
:104E200008C08091110390911203992389F0826048
:104E30000FC0809119038F70853008F00BC18093EB
:104E4000E9008091EB0085FB882780F91092E9004A
:104E50009091E800977F9093E8008093F100109282
:104E6000F100D1C0282F2D7F09F0F4C0882319F05C
:104E7000823061F0EFC080911703813009F0EAC001
:104E8000933009F080E0809312032EC080911703C5
:104E900081112AC0809119038F702FEF280F2430C1
:104EA00008F0D8C08093E9002091EB0020FF1CC0DF
:104EB000933021F48091EB00806214C09091EB005C
:104EC00090619093EB0021E030E0A90102C0440F13
:104ED000551F8A95E2F74093EA001092EA0080910C
:104EE000EB0088608093EB001092E9008091E8006D
:104EF000877F8093E8000E943A25ACC08111AAC048
:104F0000109117031F778091E3008078812B8093A5
:104F1000E3008091E800877F8093E8000E943A25B3
:104F20008091E80080FFFCCF8091E300806880934F
:104F3000E300111102C082E001C083E080931403FA
:104F400089C08058823008F085C080911703909105
:104F500018038C3D53E0950779F583E08A838AE254
:104F600089834FB7F894DE01139620E03EE051E2CA
:104F7000E32FF0E050935700E49120FF03C0E29547
:104F8000EF703F5FEF708E2F90E0EA3010F0C79621
:104F900001C0C0968D939D932F5F243149F74FBF79
:104FA0008091E800877F8093E8006AE270E0CE019C
:104FB00001960E944C2416C06091190370911A0347
:104FC000AE014F5F5F4F0E949023BC01892B09F413
:104FD00041C09091E800977F9093E80089819A8181
:104FE0000E94A7248091E8008B778093E80032C06C
:104FF000803881F58091E800877F8093E800809178
:1050000010038093F1008091E8008E7772CF8111B8
:1050100021C0809117039091180399270297D4F427
:105020008091E800877F8093E80080911703809348
:1050300010030E943A2580911003811106C08091CF
:10504000E30087FD02C081E001C084E08093140387
:105050000E947E228091E80083FF0AC08091E800D0
:10506000877F8093E8008091EB0080628093EB0063
:10507000AA960FB6F894DEBF0FBECDBFDF91CF91D9
:105080001F9108950895CF93809114038823A1F070
:10509000C091E900CF709091EC00892F817090FD54
:1050A00080E8C82B1092E9008091E80083FD0E94FF
:1050B000E226CF70C093E900CF910895002480FDCF
:1050C000060E660F11F08695D1F7802D0895002405
:1050D000552704C0080E591F880F991F009729F003
:1050E00076956795B8F37105B9F7802D952F0895DA
:1050F000EE27FF27AA27BB2708C0A20FB31FE41F74
:10510000F51F220F331F441F551F969587957795DE
:10511000679598F37040A9F7009799F7BD01CF0103
:10512000089587FB082E062687FD819567FD61950A
:105130000E94EF280EF4919507FC81950895AA1B13
:10514000BB1B51E107C0AA1FBB1FA617B70710F072
:10515000A61BB70B881F991F5A95A9F780959095A4
:10516000BC01CD01089597FB072E16F4009407D0DB
:1051700077FD09D00E949F2807FC05D03EF490954A
:1051800081959F4F0895709561957F4F0895A1E295
:105190001A2EAA1BBB1BFD010DC0AA1FBB1FEE1FB1
:1051A000FF1FA217B307E407F50720F0A21BB30BFC
:1051B000E40BF50B661F771F881F991F1A9469F778
:1051C00060957095809590959B01AC01BD01CF01D4
:1051D0000895EE0FFF1F0590F491E02D0994991B9F
:1051E00079E004C0991F961708F0961B881F7A95DE
:1051F000C9F780950895FC014150504030F001906E
:105200000616D1F73197CF01089588279927089579
:10521000FB01DC0104C08D910190801921F4415003
:105220005040C8F7881B990B0895F999FECF92BD9D
:1052300081BDF89A992780B50895A6E1B0E044E0D1
:1052400050E00C944F29A8E1B0E042E050E00C940B
:105250004F29262FF999FECF92BD81BDF89A01976B
:1052600000B4021639F01FBA20BD0FB6F894FA9AAE
:10527000F99A0FBE08950396272F0E942A290E94AB
:105280002929252F0E942A29242F0C942A290196A6
:10529000272F0E942A290C942929DC01CB01FC012B
:1052A000F999FECF06C0F2BDE1BDF89A319600B47F
:0E52B0000D9241505040B8F70895F894FFCF8A
:1052BE00C8004A02010102000E000E0E01191A1B4F
:1052CE001C1D1E1F202122F121F52169226522615C
:1052DE0022F42101E200E900EA00B500B600B700B1
:1052EE00CD008301CC008A01920194012102230298
:1052FE0024022502260227022A02B300B4006F0000
:10530E007000818283E200E900EA00B500B600B7C2
:10531E0000CD008301CC008A019201940121022369
:10532E000224022502260227022A02B300B4006FCD
:10533E0000700081828334353633623296929394B4
:10534E0095316564666737000102020202060606A1
:10535E000909090909090F0F0F0F0F0F1515151858
:0C536E00191919191919191919192324F2
:00000001FF
