:100000000C948A010C94D1010C94D1010C94D1016F
:100010000C94D1010C94D1010C94D1010C94D10118
:100020000C94D1010C94D1010C94AB150C94E714F1
:100030000C94790D0C94D1010C94D1010C94D10144
:100040000C94D1010C94D1010C94D1010C94D101E8
:100050000C94D1010C94B1190C94D1010C94D101E0
:100060000C94D1010C94D1010C94D1010C94D101C8
:100070000C94D1010C94D1010C94D1010C94D101B8
:100080000C94D1010C94D1010C94D1010C94D101A8
:100090000C94D1010C94D1010C94D1010C94D10198
:1000A0000C94D1010C94D1010C94D1015904590440
:1000B0006C046C0462046C046C046C0459045904F0
:1000C00067046C046C046704E708E7082209220946
:1000D0005A0B5A0B5A0B5A0B4D09310A430A430A61
:1000E0005A0BBA0AF6121D13BF141D13BF14651361
:1000F0008813BF1483149614165C1E001F00200082
:1001000021002200230024002500260027002D00C6
:100110002E004C002A002B00000014001A000800DA
:10012000150017001C0018000C00120013002F000F
:1001300030003100390000000400160007000900FB
:100140000A000B000D000E000F00330034002800E1
:100150000000E10000001D001B0006001900050062
:100160001100100036003700380000005200015125
:10017000E000E3000000E200000000002C000000AE
:100180000000000000005000000051004F0001007E
:100190003A003B003C003D003E003F004000410073
:1001A000420043004400450001000100010000003E
:1001B000000000000000000000000000000000003F
:1001C000000000000000000000000100000000002E
:1001D000000000000000000000000000000000001F
:1001E000000000000100000001000000BF5CBE5CD8
:1001F000BD5CC15C000000000000000000000000C9
:1002000000000100010001000100000001000000E9
:1002100000000000000000000000000001000000DD
:100220000100010005010906A1018505050719E086
:1002300029E71500250195087501810205071900B8
:1002400029EF1500250195F07501810205081901B6
:100250002905950575019102950175039101C00568
:10026000010906A101050719E029E71500250195F7
:10027000087501810295017508810105071900299A
:10028000FF150026FF009506750881000508190175
:100290002905950575019102950175039101C00924
:1002A000023B00020100A0FA090400000103010161
:1002B0000009211101000122400007058103080007
:1002C0000A090401000103000000092111010001D5
:1002D000223B000705820320000A120110010000E2
:1002E0000008EDFE6022010001020301040330005A
:1002F00000000A0344005A003600300000001003DA
:100300004B0042004400460061006E007300000094
:100310000403090411241FBECFEFDAE0DEBFCDBF16
:1003200004B603FE27C08091190290911A02A09191
:100330001B02B0911C028730904BA740B04BD1F408
:100340001092190210921A0210921B0210921C02B3
:1003500014BE84B7877F84BF0FB6F894A8958091A8
:100360006000886180936000109260000FBEE0E042
:10037000F8E3099511E0A0E0B1E0E2E0F5E302C0A6
:1003800005900D92A032B107D9F722E0A0E2B1E0CA
:1003900001C01D92A931B207E1F70E94BF170C946A
:1003A0007F1A0C9400002091240130912501281718
:1003B000390771F09093250180932401E091F401B5
:1003C000F091F501309721F00084F185E02D09943A
:1003D000089520912201309123012817390771F0E7
:1003E0009093230180932201E091F401F091F501B3
:1003F000309721F00680F781E02D09940895CF927F
:10040000DF92EF92FF92863030F4811105C0909117
:1004100080009F7D04C085E0909180009062909361
:100420008000282F30E0AFEFBFEF0E94651A25E073
:1004300030E040E050E00E943D1AC9012C3764E1F1
:10044000360728F469E070E00E94291A29C0DA0111
:10045000C9018A50974DAF4FBF4F6627782F892F1C
:100460009A2F25EF38E241E050E00E943D1A6901E1
:100470007A01CA01B9010E94191A9B01AC01C70196
:10048000B6010E94191ABB27A92F982F872F009712
:1004900021E0A207B10511F0BC0102C06FEF7FEFB0
:1004A00070938B0060938A00FF90EF90DF90CF9065
:1004B00008959091F20192FF0DC0282F28712830E5
:1004C00019F4877F846006C0282F2471243011F42A
:1004D0008B7F886093FF0DC0282F2871283119F475
:1004E000877E846106C0282F2471243111F48B7E0D
:1004F00088612091F30120FF0DC0382F387138300A
:1005000019F4877F816006C0382F3171313011F4C2
:100510008E7F886021FF0DC0282F2871283119F4A3
:10052000877E816106C0282F2171213111F48E7ED2
:10053000886194FD877E0895882341F0809590918D
:10054000B90189238093B9010C947A0E0895882308
:1005500039F09091B901892B8093B9010C947A0EEE
:100560000895882379F19CEF980F913A30F4682F21
:1005700089E291E00E949E0D14C090E2980F98309D
:1005800090F4877021E030E0A90102C0440F551FAC
:100590008A95E2F7CA0180959091B90189238093E9
:1005A000B9010C947A0E9BE5980F933020F480E00B
:1005B00090E00C94E901885A873120F480E090E0C3
:1005C0000C94D3010895882309F4C4C09CEF980FBC
:1005D000913A30F4682F89E291E00E94C60D13C071
:1005E00090E2980F983088F4877021E030E0A901FC
:1005F00002C0440F551F8A95E2F7CA019091B901D4
:10060000892B8093B9010C947A0E9BE5980F933057
:1006100070F4853A29F0863A31F083E890E005C01D
:1006200081E890E002C082E890E00C94E90198E54E
:10063000980F973108F08EC0883A09F445C0893A7E
:1006400009F445C08A3A09F445C08B3A09F445C01B
:100650008C3A09F445C08B3B09F445C08C3B09F446
:1006600045C08D3A09F445C0803B09F445C08E3A37
:1006700009F445C08F3A09F445C0813B09F445C0EF
:10068000823B09F445C0833B09F445C0843B09F42F
:1006900045C0853B09F445C0863B09F445C0873B0E
:1006A00009F445C0883B09F445C0893B09F445C0BD
:1006B0008D3B09F445C08E3B09F445C08A3B09F4E3
:1006C00045C080E090E044C082EE90E041C089EEF9
:1006D00090E03EC08AEE90E03BC085EB90E038C0F1
:1006E00086EB90E035C083EB90E032C084EB90E085
:1006F0002FC087EB90E02CC08CEC90E029C08DECF3
:1007000090E026C083E891E023C08AE891E020C011
:1007100082E991E01DC084E991E01AC081E292E093
:1007200017C083E292E014C084E292E011C085E237
:1007300092E00EC086E292E00BC087E292E008C031
:100740008FE690E005C080E790E002C08AE292E088
:100750000C94D3010895863008F085E0880F880F47
:10076000880F909128019770892B80932801887FAA
:1007700091E009F490E06091280190FB60F96093AA
:10078000280186E090E00E94E51980912801869575
:10079000869586950C94FF010F931F93CF93DF935B
:1007A000C62FD42F122FFC0182818823C9F06093B9
:1007B00026010E946D0D909321018093200180E21B
:1007C0008C0F883008F05EC0C77081E001C0880FD0
:1007D000CA95EAF7DF91CF911F910F910C94A70270
:1007E0008091260168133EC08091200190912101E3
:1007F0000E94430D883C9105A8F500E20D0FCD172E
:10080000B9F080E28C0F883040F4C77081E001C0FD
:10081000880FCA95EAF70E949C02083048F481E0EC
:100820009D2F977001C0880F9A95EAF70E94A70242
:10083000812F0E94E302193349F4FFEF27EE83E092
:10084000F15020408040E1F700C00000812F0E945D
:10085000B1020830B8F4D77081E001C0880FDA9592
:10086000EAF70AC080E28C0F883060F4C77081E03C
:1008700001C0880FCA95EAF7DF91CF911F910F91C0
:100880000C949C02DF91CF911F910F9108950E94CB
:10089000E00E292F2F70E92FE295EF704E2F50E0D8
:1008A000FA013297EE30F105B8F4EA5AFF4F0C9492
:1008B0005F1A803F99F018F4883E70F40FC0843FAF
:1008C00059F40CC0883E50F0813F31F407C0822FAC
:1008D000869586958695089580E0089581E008952F
:1008E0001092B90180910001882331F08091F201CA
:1008F00087FF02C08EE101C086E0EBE2F1E0DF019C
:100900001D928A95E9F71092B8011092B7010C94E4
:100910007A0E1F93CF93DF93CDB7DEB767970FB6ED
:10092000F894DEBF0FBECDBF4B8B5C8B6D8B7E8B87
:100930008F8B86E09E01235F3F4FD901E82F1D92E8
:10094000EA95E9F795E0FE017396D90101900D92C1
:100950009A95E1F7F901DE01179601900D928A95BB
:10096000E1F7CE0107960E94161081113EC086E085
:10097000FE013796DE01119601900D928A95E1F7FE
:10098000FF81E8856A857B856115710531F0EF3F50
:1009900031F481E0FF3F19F403C081E001C080E041
:1009A00080FD23C020914F0130E0C901019687707E
:1009B00099274091800150E08417950779F1F983D8
:1009C000EA837D836C8396E0929FD001939FB00D64
:1009D0001124A05BBE4FFE01319601900D929A95B5
:1009E000E1F780934F010E94A40F16E080918001EF
:1009F00090914F018917F9F0189FC0011124805B75
:100A00009E4F0E9416108823B1F08091800190E0E3
:100A100001968770992780938001E8CF0E94700427
:100A200010924F0110928001E9E4F1E086E0DF01CD
:100A30001D928A95E9F767960FB6F894DEBF0FBE50
:100A4000CDBFDF91CF911F910895E091F401F09116
:100A5000F501309721F00190F081E02D099480E0BC
:100A600008950E940C0E811102C00E94170E86E0AC
:100A700090E00E94D71980932801282F269526956B
:100A8000269530E02630310524F087708862809307
:100A900028018091280180FF04C08695869586955F
:100AA00001C080E00C94FF01CF93DF932BE4829F81
:100AB000C0011124FC013FE0739FE00DF11D1124E2
:100AC000E60FF11DEE0FFF1FE850FF4FC591D491C7
:100AD000CE01C238D10569F1B0F4C133D10509F4B2
:100AE00075C048F4C932D10509F469C0CA32D105CC
:100AF00009F473C079C0C533D10509F459C0C933AD
:100B0000D105B9F071C0C33ED10571F138F4C03ED2
:100B1000D105B1F0C23ED10511F166C0C63ED10586
:100B2000B9F1C73ED105C9F1C43ED10509F05CC099
:100B300024C02091F20120FD57C221FD55C259C2A7
:100B40002091F20120FD4AC22091F30120FF51C201
:100B50008091F20184FDF4C183EE90E04AC22091BD
:100B6000F20122FF46C2F4CF8091F20182FD39C228
:100B70008091F30180FD38C2EBCF2091F30121FF7A
:100B800038C28091F20184FDDBC187EE90E031C272
:100B90002091F20123FF2DC2F4CF8091F20183FD59
:100BA00026C28091F30181FFECCF84EE90E021C258
:100BB0002091F20125FF1DC289E290E01AC2209126
:100BC000F20125FF16C285E390E013C22091F201E5
:100BD00026FF0FC28AE290E00CC22091F20126FFAC
:100BE00008C281E390E005C2C11541E5D40708F0D1
:100BF00047C0C11550E5D50708F03AC1C83ED10538
:100C000020F5C03ED10508F0F4C1C83AD10570F412
:100C1000C53AD10508F0ACC0C130D10509F4E9C12D
:100C200008F48EC1249708F48BC1E3C1CF3BD105F2
:100C300008F4A9C0C03CD10508F482C1CE01880FD8
:100C4000991FFC01E858F04004C1C11520E3D20708
:100C500088F4C11530E2D30708F0F4C0C03FD105D5
:100C600008F46EC1CF3FD10511F008F0C2C1CE012A
:100C70009065BFC1C11540E4D40708F4EDC0F4C0CD
:100C8000C11559E5D50758F5C11588E5D80708F00D
:100C900043C1C11524E5D20778F4C11533E5D30764
:100CA00008F01EC1C11542E5D40708F002C19C2F0F
:100CB0008827816F906A9DC1C11555E5D50708F455
:100CC00026C1C11586E5D80708F03AC18C2F0E94CD
:100CD00059028F7190E0982F882790628AC1CD3B8E
:100CE0002CE5D20709F423C1F8F4CB3B4CE5D4073B
:100CF00009F417C108F018C1C1158AE5D80708F032
:100D00001FC18C2F8F700E945902FE0194E0F6954E
:100D1000E7959A95E1F7EF70F0E0FE2FEE27F06986
:100D20009F01282BC90165C1C03C2CE5D20709F4FD
:100D300004C160F4CE3B4CE5D40709F4FBC0CF3BC3
:100D4000DC4509F0FDC080E092ED53C1CE01905624
:100D50008115904208F0F4C08D2F8F710E945902C6
:100D6000FE01FF27F0628F71AF01582BCA0141C10C
:100D7000C53AD10509F4E7C0C63AD10509F0E6C085
:100D800082E890E436C1C83AD10509F4E2C0C93A14
:100D9000D10509F4E1C0CA3AD10509F4E0C0CB3A63
:100DA000D10509F4DFC0CC3AD10509F4DEC0CB3B54
:100DB000D10509F4DDC0CC3BD10509F4DCC0CD3A46
:100DC000D10509F4DBC0C03BD10509F4DAC0CE3A45
:100DD000D10509F4D9C0CF3AD10509F4D8C0C13B37
:100DE000D10509F4D7C0C23BD10509F4D6C0C33B35
:100DF000D10509F4D5C0C43BD10509F4D4C0C53B25
:100E0000D10509F4D3C0C63BD10509F4D2C0C73B14
:100E1000D10509F4D1C0C83BD10509F4D0C0C93B04
:100E2000D10509F4CFC0CD3BD10509F4CEC0CE3BEE
:100E3000D10509F4CDC0CA3BD10509F4CCC080E08E
:100E400094E4D7C0CE019F70FC01EE0FFF1FE85065
:100E5000FF4F85919491CDC0CE019927D3FF02C059
:100E6000986CC7C0906CC5C0CE019F70906AC1C01D
:100E7000CE0174E0969587957A95E1F7282F237037
:100E80003C2F337081E090E002C0880F991F3A95A3
:100E9000E2F79C68AC01522B9A018C2F8F70E82FDF
:100EA000E695E69550E2E59FC0011124822B932B35
:100EB000A0C09E012370332781E090E0AC0102C006
:100EC000440F551F2A95E2F79A01EC2FE695E69517
:100ED00050E2E59FC0011124822B932B9C6889C0AE
:100EE0009E012370332781E090E0AC0102C0440FE3
:100EF000551F2A95E2F79A01EC2FE695E69550E208
:100F0000E59FC0011124822B932B9A6872C09C2FFD
:100F10008827846F906A6DC09C2F8827806F906AA5
:100F200068C080E094ED65C080E095ED62C080E02F
:100F300091ED5FC080E090ED5CC080E093ED59C022
:100F400080E090E056C081E890E453C083E890E4EC
:100F500050C082EE94E44DC089EE94E44AC08AEE1B
:100F600094E447C085EB94E444C086EB94E441C02C
:100F700083EB94E43EC084EB94E43BC087EB94E4C1
:100F800038C08CEC94E435C08DEC94E432C083E836
:100F900095E42FC08AE895E42CC082E995E429C045
:100FA00084E995E426C081E296E423C083E296E4D6
:100FB00020C084E296E41DC085E296E41AC086E271
:100FC00096E417C087E296E414C08FE694E411C05B
:100FD00080E794E40EC08AE296E40BC089E390E0D7
:100FE00008C082EE90E005C080EE90E002C086EE80
:100FF00090E0DF91CF91089581FF02C02A98089573
:101000002A9A0895CF92DF92EF92FF920F931F9347
:10101000CF93DF9300D000D01F92CDB7DEB7FC0195
:101020000081D18083819481892B39F01FEFD11207
:1010300006C091E00F3F19F403C091E001C090E0B9
:1010400090FD13C57F0185E0DE01119601900D92A0
:101050008A95E1F7F701228189819A81222349F05B
:101060000E949E0E182F682F89819A810E94170F67
:1010700003C00E94EB0E182F2BE4129FF0011124E5
:101080003FE0D39EE00DF11D1124E00FF11DEE0FA6
:10109000FF1FE850FF4F05911491033F4CE51407E3
:1010A00089F180F4083D9CE51907C9F0093DECE59C
:1010B0001E07A1F1073DFCE51F0799F526E241EE69
:1010C00061EE10C0053F2CE5120721F1F8F0063F54
:1010D0004CE5140731F527E245EE66EE03C027E242
:1010E00045EE65EEC7010F900F900F900F900F9097
:1010F000DF91CF911F910F91FF90EF90DF90CF90F4
:101100000C94CC0326E241EE60EEECCF27E245EEF4
:1011100064EEE8CF26E241EE62EEE4CF28E241E061
:10112000E0CFF7018281882309F4DAC21092260108
:101130000631FCE51F0709F46CC458F401303CE5A6
:10114000130709F416C308F033C301151C45B1F4A5
:10115000E1C20E3D9CE5190709F414C348F40C3DA7
:10116000FCE51F0709F41DC30D3D1C4539F41CC3E4
:10117000C8018A5F9C45099708F41AC3F7010081EA
:101180001181C8010E949E0ED82E682FC8010E94AE
:10119000170FB8018D2D0E945405182F892FD12EBD
:1011A000F701358132953F70228121111092B801EB
:1011B000F82EF2949FE0F9224F2D50E04E30510569
:1011C00008F078C2FA01EC59FF4F0C945F1A982F7F
:1011D000907F8F70082F992311F00295007F2223B2
:1011E000B9F0002309F4B1C180E2810F883010F01A
:1011F000D11006C08091B901082B0093B90105C038
:101200008091B801082B0093B8010E947A0E9DC10D
:10121000812F0E94B102002309F44CC2105E009598
:10122000183010F0D11006C08091B9010823009346
:10123000B90105C08091B80108230093B8010E944C
:101240007A0E38C2982F907F8F70903211F082956D
:10125000807FF1E0DF120AC0222321F0363008F04F
:1012600029C208C0353008F025C214C0222329F055
:1012700031116BC10E94A7021DC2332359F01933EB
:1012800009F074C10FEF27EE33E0015020403040E9
:10129000E1F76AC10E949C020DC2982F937009F079
:1012A0006CC021110CC2912F929596959770990F51
:1012B000990F212F2F70C22ED12CE12CF12C092E49
:1012C00004C0CC0CDD1CEE1CFF1C0A94D2F714FFEA
:1012D00012C00FE010E020E030E004C0000F111F4A
:1012E000221F331F9A95D2F7B901A8014095509556
:1012F0006095709503C040E050E0BA0186958695F0
:101300008370823029F1D8F40091BA011091BB01A9
:101310002091BC013091BD01813069F0D701C60137
:10132000842B952BA62BB72BBC01CD0160237123F9
:10133000822393230AC0C02AD12AE22AF32ACB01AE
:10134000BA016C297D298E299F290E94960FB7C169
:10135000D701C601842B952BA62BB72B0091BA0180
:101360001091BB012091BC013091BD01BC01CD01A8
:101370006027712782279327E8CF222319F0982F1F
:10138000917001C09695992309F499C1912F929576
:1013900096959770990F990F212F2F70C22ED12CEF
:1013A000E12CF12C092E04C0CC0CDD1CEE1CFF1C22
:1013B0000A94D2F714FF12C00FE010E020E030E0F2
:1013C00004C0000F111F221F331F9A95D2F7B901D5
:1013D000A801409550956095709503C040E050E09D
:1013E000BA018695869583708230E9F088F5009180
:1013F000B3011091B4012091B5013091B601813053
:1014000069F0D701C601842B952BA62BB72BBC0105
:10141000CD01602371238223932320C0C02AD12AC7
:10142000E22AF32A15C0D701C601842B952BA62BDF
:10143000B72B0091B3011091B4012091B501309107
:10144000B601BC01CD01602771278227932706C012
:10145000CB01BA016C297D298E299F290E94420F58
:101460002EC1082F0F70222339F0802F0E94750F94
:10147000812F0E94A70223C1812F0E949C02802FEE
:101480000E94500F1CC1912F41EFD416B1F14D15A0
:1014900020F0E0EFDE1641F054C0F2EFDF1699F1D4
:1014A00003EFD016B1F14DC0222319F1353008F009
:1014B00001C1282F2F7181E090E0A0E0B0E0AC01E5
:1014C000BD0104C0440F551F661F771F2A95D2F730
:1014D0008091B3019091B401A091B501B091B60192
:1014E0008A019B01082719272A273B27C901B80130
:1014F00025C0363008F0DEC0DCCF222331F08F71FA
:101500000E94750FD7C02223D1F38F710E94500F14
:10151000D1C0222381F0282F2F7181E090E0A0E03C
:10152000B0E0BC01CD0104C0660F771F881F991F72
:101530002A95D2F703C060E070E0CB010E94420F11
:10154000B9C0222331F03323D1F2812F0E94E3026C
:10155000B1C03323D1F2993349F42FEF37EE43E092
:10156000215030404040E1F700C00000812F0E9430
:10157000B102A0C0211179C28F708230D1F128F45C
:10158000882369F0813021F195C0843009F482C04C
:1015900008F447C0853009F08DC080E07CC0209100
:1015A0002801822F869586958695482F50E04530F4
:1015B000510554F48F5F982F990F990F990F822F2F
:1015C0008770892B8093280160912801616048C051
:1015D00080912801982F96959695969509F446C086
:1015E000915E990F990F990F8770892B809328012D
:1015F0002FC06091280160FF09C06E7F60932801B1
:1016000086E090E00E94E51980E035C0616060935B
:101610002801613019F489E0809328016091280144
:1016200021C080912801282F2695269526952F5F89
:101630002F71922F990F990F990F8770892B809393
:101640002801263018F087708093280180912801A6
:10165000887F91E009F490E06091280190FB60F9A7
:101660006093280186E090E00E94E51980912801AE
:101670008695869586950F900F900F900F900F90FE
:10168000DF91CF911F910F91FF90EF90DF90CF905E
:101690000C94FF0185E00F900F900F900F900F902A
:1016A000DF91CF911F910F91FF90EF90DF90CF903E
:1016B0000C94AB0388EF8F0D843008F0D6C10E94E4
:1016C00025050F900F900F900F900F90DF91CF9105
:1016D0001F910F91FF90EF90DF90CF900C94FC073B
:1016E0000631FCE51F0709F4A4C150F401153CE5DF
:1016F000130708F486C102301C4508F082C1B5C149
:101700000C3D8CE5180708F47CC10F3D1C4508F022
:1017100078C1ABC10E947004EFEFF4E30CE0E1503C
:10172000F0400040E1F700C0000081E08093E0005D
:1017300080E28093D8001092C9008FE19EE4019767
:10174000F1F700C0000087E090EBDC018093190204
:1017500090931A02A0931B02B0931C029CE088E1B4
:101760000FB6F894A895809360000FBE9093600028
:10177000FFCF80910E02982F909590FB80F9809377
:101780000E0273C10F900F900F900F900F90DF918A
:10179000CF911F910F91FF90EF90DF90CF900C941D
:1017A000170E1092F10161C182E08093F1015DC1D9
:1017B0000E940C0E811102C00E94170E0E94FB0DA8
:1017C0009093F3018093F20100313CE5130709F493
:1017D000C3C008F041C008308CE5180709F49AC06E
:1017E000F0F40430ECE51E0709F487C068F4023019
:1017F0002CE5120709F477C003301C4509F0E5C059
:101800008091F201826076C006304CE5140709F43D
:101810006EC008F07BC08091F20188606BC00C3014
:101820009CE5190709F485C068F40A30FCE51F0738
:1018300009F474C008F079C00E9470048091F2012C
:10184000806858C00E303CE5130709F476C008F0F4
:101850007FC08091F2018BC00B3F8CE5180709F423
:101860004FC018F50331ECE51E0709F47DC078F48C
:1018700001312CE5120709F473C002311C4509F04F
:10188000A4C00E9470048091F2018F7733C00531AB
:101890004CE5140709F472C008F486C00A3F1C45E1
:1018A00009F093C08091F3013EC00F3FECE51E07A5
:1018B00009F45FC058F40D3F2CE5120709F444C049
:1018C00008F43FC08091F30182602DC001304DE5E6
:1018D000140709F475C008F45DC002301D4509F015
:1018E00074C060E06EC08091F201816003C080919D
:1018F000F20180618093F20168C08091F20111C011
:101900008091F30182608093F3015FC08091F201C6
:101910008062F0CF8091F2018064ECCF8091F2017F
:1019200088608460E7CF8160EECF8091F2018E7F86
:10193000E1CF8091F2018D7FDDCF8091F201877F31
:10194000D9CF8091F30118C08091F3018D7FDBCF57
:101950008091F2018F7ECECF8091F2018F7DCACF30
:101960008091F2018F7BC6CF8091F201877F8B7FC0
:10197000C1CF8091F3018D7F8E7FC5CF8091F20121
:1019800082FB222720F991E0922790FB82F990FBBD
:1019900083F9B0CF8091F301982F909591708E7F4D
:1019A000892B90FB81F9AFCF0E9470048091F201E6
:1019B00087FB222720F991E0922790FB87F99ACFA5
:1019C00061E08EE090E00E94E5196091F2011091D3
:1019D000F30184E090E00E94E519612F81E290E03C
:1019E0000E94E5190F900F900F900F900F90DF91CC
:1019F000CF911F910F91FF90EF90DF90CF900C94BB
:101A00007004F70100811181C8010E94EB0ED82EED
:101A1000C0CB8091B9018A7A91E009F490E090936B
:101A2000270181111EC069E289E291E00E94C60D82
:101A300009C080912701811116C069E289E291E015
:101A40000E949E0D0F900F900F900F900F90DF91BE
:101A5000CF911F910F91FF90EF90DF90CF900C945A
:101A60007A0E65E3E1CF65E3E9CF0F900F900F9019
:101A70000F900F90DF91CF911F910F91FF90EF90FA
:101A8000DF90CF900895CF92DF92EF92FF920F9365
:101A90001F932FB7F8944091ED015091EE016091A2
:101AA000EF017091F0012FBF6A017B01EE24FF244A
:101AB0008C0120E030E0C016D106E206F30610F4F7
:101AC000415051099A01281B390BC9011F910F91EF
:101AD000FF90EF90DF90CF9008952FB7F89480910A
:101AE000ED019091EE01A091EF01B091F0012FBFB7
:101AF00008951F920F920FB60F9211248F939F9308
:101B0000AF93BF938091ED019091EE01A091EF0111
:101B1000B091F0014196A11DB11D8093ED0190930C
:101B2000EE01A093EF01B093F001BF91AF919F91AF
:101B30008F910F900FBE0F901F901895209100016C
:101B40002223C9F02091F20127FF15C0262F2695E8
:101B5000269526952E31C8F4FC01E20FF11D677021
:101B600081E090E001C0880F6A95EAF78095928144
:101B7000892382830895FC0106962281621301C0A5
:101B800012823196E817F907C1F7089520910001F4
:101B90002223C1F02091F20127FF14C0262F2695A1
:101BA000269526952E3130F5FC01E20FF11D677068
:101BB00081E090E001C0880F6A95EAF79281892B55
:101BC00082830895FC0132962FEF30E04191641733
:101BD00089F02F3F19F4411101C0232F3F5F3630A8
:101BE000A9F72F3F39F0FC01E20FF11D27FDFA950F
:101BF000628308950895CF9384E090E00E94D719FE
:101C0000C82F81E290E00E94D7192C2F30E0A90163
:101C1000582BCA01CF91089580E090E00E94DF190F
:101C200021E08C3E9E4F09F020E0822F08956CEE5B
:101C30007EEF80E090E00E94031A60E082E090E096
:101C40000E94E51960E083E090E00E94E51910929F
:101C5000BA011092BB011092BC011092BD0160E06C
:101C600084E090E00E94E51960E081E290E00E944B
:101C7000E51960E085E090E00E94E51960E086E00B
:101C800090E00E94E5196FEF87E090E00E94E5196F
:101C900040E050E0BA0188E090E00E94F71960E06F
:101CA0008DE090E00E94E51940E050E0BA0188E143
:101CB00090E00E94F71960E087E190E00E94E5194A
:101CC00040E050E0BA018CE190E00E94F71960E03A
:101CD00080E290E00E94E51940E050E0BA018FE018
:101CE00090E00E94F71940E050E0BA0183E190E0F3
:101CF0000C94F7199091B9018091B801892B9091BA
:101D0000B701892B80932901E091F401F091F5014D
:101D1000309799F090910001992349F09091F20148
:101D200097FF05C080932A0185E0809329010280F6
:101D3000F381E02D89E291E009940895BF92CF925A
:101D4000DF92EF92FF920F931F93CF93DF938C015B
:101D5000C090B301D090B401E090B501F090B6010D
:101D60008091BA019091BB01A091BC01B091BD01DD
:101D7000C82AD92AEA2AFB2ACFE1D0E0D701C60136
:101D80000C2E04C0B695A795979587950A94D2F71F
:101D900080FD04C0219790F7B12C07C0BC2EB8017C
:101DA0008C2F0E9454050197A9F38B2DDF91CF91C1
:101DB0001F910F91FF90EF90DF90CF90BF9008950B
:101DC000CF93DF93EC010E949E0EBE010E9454054A
:101DD000DF91CF9108952FE0929F800D1124682FFD
:101DE000669566956695982F977085E0689FB00117
:101DF000112440E050E080E0FB01E40FF51FEF57B5
:101E0000FE4F208130E0092E02C0369527950A94B6
:101E1000E2F721703327042E01C0220F0A94EAF75B
:101E2000822B4F5F5F4F4530510531F708952FE00A
:101E3000929F800D1124E82FE695E695E695877030
:101E400051E001C0550F8A95EAF785E0E89FF0015F
:101E50001124EF57FE4F20E030E070E04081CB01CD
:101E6000022E02C0969587950A94E2F781708195BB
:101E700084278523842781932F5F3F4F25303105A9
:101E800069F708956093B3017093B4018093B5012D
:101E90009093B6011092B8011092B7010C947A0E8B
:101EA0000F931F9341E050E060E070E004C0440FE6
:101EB000551F661F771F8A95D2F7409550956095FC
:101EC00070958091B3019091B401A091B501B0914A
:101ED000B6018A019B01082319232A233B23C90148
:101EE000B8011F910F910C94420F0F931F9341E083
:101EF00050E060E070E004C0440F551F661F771F7C
:101F00008A95D2F78091B3019091B401A091B50167
:101F1000B091B6018A019B01082B192B2A2B3B2B70
:101F2000C901B8011F910F910C94420F6093BA013F
:101F30007093BB018093BC019093BD011092B801D6
:101F40001092B7010C947A0E8091800190914F010C
:101F5000891719F08F5F8770FBCF0895CF93809119
:101F60004E0182958F7009F05FC080914B018823EC
:101F700009F45AC080918001B0914F0170914901DC
:101F8000A0914A0140914C0150914D0191E07F3F59
:101F900009F090E0692FC6E08B1709F445C04115A0
:101FA000510521F0AF3F21F020E003C021E001C046
:101FB000262F90E020FD35C0C89FF001C99FF00D8D
:101FC0001124E05BFE4F21812A132BC020812713AF
:101FD00028C02281211125C023813481241735078F
:101FE00010F421503109241B350B283C3105C8F46D
:101FF00020914E012F70206120934E0126E0289FF2
:10200000F001299FF00D1124EB5AFE4F80818F7053
:102010008061808389E491E00E940208CF910C9452
:10202000A40F01968770B8CFCF910895AF92BF9259
:10203000CF92DF92EF92FF920F931F93CF93DF9394
:10204000CDB7DEB761970FB6F894DEBF0FBECDBF38
:102050008C0185E0F801DE011D9601900D928A95B4
:10206000E1F7D8013C9111962C9111971296EC90C2
:102070005091490160914A0180914C0190914D012C
:10208000009731F06F3F31F441E05F3F19F403C036
:1020900041E001C040E0B42FB170BB2E40FD43C110
:1020A000F801C380D480A0904B01AA2009F4E2C0BB
:1020B00040914E01C816D90628F0D601A81BB90BCD
:1020C000CD0104C0809590958C0D9D1DFF24F39447
:1020D000883C910548F0F12C407F09F090C089E4DC
:1020E00091E00E94020817C1842F807F09F052C03E
:1020F000621312C0531310C0FE2CE1100DC04F70BC
:10210000406140934E0189E491E00E940208809171
:102110004E01F801858348C1CD2831F02F3F31F4BD
:1021200081E03F3F19F403C081E001C080E080FD01
:1021300003C081E08E2502C080E090E0F82FF170AE
:10214000FF2E80FF1CC08091800140914F0156E01E
:10215000841709F406C190E0589FF001599FF00DD3
:102160001124E05BFE4F6181261306C060813613A7
:1021700003C06281E61203C001968770E9CFFE2C8E
:10218000EE2009F411C180914E01816080934E01CF
:10219000F12C0AC1621308C0531306C0E11004C039
:1021A00080914E01F80199C03D872E878D859E85CF
:1021B0000E944704882369F1EE2059F120914E01D5
:1021C000822F82958F7090E0029774F08091490180
:1021D00090914A0198878F831986DB86CA862C875F
:1021E000CE0107960E94020886E0F801A9E4B1E05A
:1021F00001900D928A95E1F70E94AE0F0DC0621713
:1022000071F03D872E878D859E850E944704811140
:102210001AC0C8010E940208FF24F394C5C05313DA
:10222000F0CFE110EECF80914E01F8018583C80117
:102230000E94020886E0E9E4F1E0DF011D928A9540
:10224000E9F7FA2CB1C0EE2021F320914E01822F44
:1022500082958F7090E002973CF2809149019091B5
:102260004A019A8389831B82DD82CC822E83CE0130
:102270000196B8CFC816D90638F0C81AD90AB8ECF2
:10228000CB16D10450F007C0809590958C0D9D1D04
:10229000883C910510F0F12C3EC0FE2CEE2009F494
:1022A000B8CF621327C0531325C020914E0120FDE3
:1022B00018C0822F82958F70482F50E0411551052C
:1022C00081F0F80125834F30510541F08F5F982F41
:1022D0009295907F822F8F70892B8583C8010E94F1
:1022E000020886E0F801A9E4B1E001900D928A9518
:1022F000E1F75AC03D872E878D859E850E94470451
:10230000811172CF80914E01816080934E01C8018E
:102310000E94020849C0E9E4F1E086E0DF011D9275
:102320008A95E9F741C0EE2009F473CF3D872E87E7
:102330008D859E850E944704F82E882309F469CF75
:1023400086E0F801A9E4B1E001900D928A95E1F7E9
:102350008091490190914A010E94E00E0E94AE0FC7
:1023600023C03D872E878D859E850E94E00E292FF4
:1023700022952F70223028F49F7039F0811105C00A
:102380000BC0243028F49F7049F4805E883020F020
:10239000C8010E940208BF2CFB2C06C0D80115966C
:1023A0009C91907F91F7F8CF8F2D61960FB6F8949E
:1023B000DEBF0FBECDBFDF91CF911F910F91FF9078
:1023C000EF90DF90CF90BF90AF900895EF92FF9283
:1023D0000F931F93CF93DF937C018B010E94DA163A
:1023E000811119C0E70101151105A1F08091E800E4
:1023F00085FD0AC08091E8008E778093E8000E94F6
:10240000DA16882381F307C089918093F100015087
:102410001109E9CF80E0DF91CF911F910F91FF90DB
:10242000EF9008951F93CF93DF93CDB7DEB7AA97B0
:102430000FB6F894DEBF0FBECDBFE5EEF1E08091A0
:10244000F100819321E0ED3EF207C9F78091E601AA
:10245000833009F460C030F4813071F0823009F4C7
:102460009AC0B1C08A3009F486C08B3009F46BC0C1
:10247000893009F0A8C020C08091E501813A09F0B7
:10248000A2C08091E800877F8093E8008091E901F5
:102490009091EA01892B21F460E281EC91E003C084
:1024A00060E080E090E070E00E9461178091E800B9
:1024B0008B778093E80087C08091E501813209F035
:1024C00082C08091E9019091EA01029708F07BC0F7
:1024D0008091E800877F8093E8008091E80082FD8A
:1024E00005C08091E3018111F8CF6DC02091F30008
:1024F0008091F20090E0922B029729F48091F100F4
:102500008B7F813021F48091F1008093C001809114
:10251000E8008B7754C08091E501813A09F053C0FF
:102520008091E9019091EA01892B09F04CC08091DA
:10253000E800877F8093E8008091E80080FFFCCF6F
:102540008091000137C08091E5018132E1F58091F1
:10255000E9019091EA01892BB1F58091E800877F2C
:102560008093E8000E940D178091E701809300019D
:102570000E94700428C08091E501813221F580918C
:10258000E800877F8093E8000E940D178091E801A2
:102590008093BF0118C08091E501813AA1F4809138
:1025A000E800877F8093E8008091E80080FFFCCFFF
:1025B0008091BF018093F1008091E8008E77809335
:1025C000E8000E940D178091E80083FFD8C1809138
:1025D000E5019091E601492F50E04A30510508F09D
:1025E000CEC1FA01EE58FF4F0C945F1A803821F0EB
:1025F000823809F0C4C108C08091E1019091E201E4
:10260000992389F082600FC08091E9018F70873033
:1026100008F0B5C18093E9008091EB0085FB882725
:1026200080F91092E9009091E800977F9093E8007C
:102630008093F1001092F10071C1282F2D7F09F0D5
:102640009EC1882319F0823061F099C18091E70121
:10265000813009F094C1933009F080E08093E20169
:102660002EC08091E70181112AC08091E9018F700D
:102670002FEF280F263008F082C18093E9002091C7
:10268000EB0020FF1CC0933021F48091EB008062AE
:1026900014C09091EB0090619093EB0021E030E04A
:1026A000A90102C0440F551F8A95E2F74093EA0042
:1026B0001092EA008091EB0088608093EB0010920A
:1026C000E9008091E800877F2CC1811158C11091E9
:1026D000E7011F778091E3008078812B8093E300EE
:1026E0008091E800877F8093E8000E940D17809119
:1026F000E80080FFFCCF8091E30080688093E300D6
:10270000111102C082E001C083E08093E30137C170
:102710008058823008F033C18091E7019091E80140
:102720008C3D53E0950779F583E08A838AE28983BB
:102730004FB7F894DE01139620E03EE051E2E32F1C
:10274000F0E050935700E49120FF03C0E295EF7052
:102750003F5FEF708E2F90E0EA3010F0C79601C017
:10276000C0968D939D932F5F243149F74FBF809181
:10277000E800877F8093E8006AE270E0CE0101966E
:102780000E946117BAC04091E9015091EA01292FD6
:10279000332723303105B1F068F42130310509F4D5
:1027A000FDC02230310509F0EAC08BE390E0EFE98B
:1027B000F2E050C02132310581F12232310509F4B5
:1027C00039C0DDC0992781309105B9F070F08230B1
:1027D0009105D9F0039709F0D2C0ECEEF2E0E49154
:1027E0008E2F90E0ECEEF2E032C0E0E1F3E0E49115
:1027F0008E2F90E0E0E1F3E02AC0EEEFF2E0E4910A
:102800008E2F90E0EEEFF2E022C0E2EFF2E0E491F2
:102810008E2F90E0E2EFF2E01AC04115510509F465
:10282000C2C04130510509F0AAC089E090E0EAEC4D
:10283000F2E010C04115510509F4BAC0413051050C
:1028400009F09DC08BE390E0E4E2F2E003C0009762
:1028500009F495C02091E800277F2093E80020919B
:10286000EB013091EC018217930708F49C0140E0E2
:102870002115310589F18091E301882309F43DC0D8
:102880008530D9F18091E80083FD37C08091E80060
:1028900082FD2FC08091E80080FFEACF4091F300D5
:1028A0008091F20090E0942B2115310559F0883089
:1028B000910540F444914093F10031962150310943
:1028C0000196F2CF41E0089709F040E08091E800DE
:1028D0008E778093E800CCCF4111CDCF0AC0809194
:1028E000E301882351F0853041F08091E80083FDB9
:1028F00004C08091E80082FFF2CF8091E8008B77DE
:102900008093E8003CC08038D1F58091E800877F53
:102910008093E8008091E4018093F1008091E800C9
:102920008E778093E8000E940D1729C0811127C07F
:102930008091E7019091E8019927029704F5809131
:10294000E800877F8093E8001091E7011093E4018D
:102950000E940D17111106C08091E30087FD02C08F
:1029600081E001C084E08093E30142E061EC81E01A
:102970000E942C1742E261EC82E00E942C178091A9
:10298000E80083FF1AC08091E800877F8093E80009
:102990008091EB0080628093EB000FC082E190E0B9
:1029A000EAEDF2E057CF89E090E0E1EBF2E052CFC0
:1029B00080E490E0EFE5F2E04DCFAA960FB6F894F0
:1029C000DEBF0FBECDBFDF91CF911F9108951F9243
:1029D0000F920FB60F9211242F933F934F935F9353
:1029E0006F937F938F939F93AF93BF93CF93DF9317
:1029F000EF93FF93C091E900CF708091EC00D82F46
:102A0000D17080FDD0E81092E9008091F000877FBE
:102A10008093F00078940E9412121092E900809145
:102A2000F00088608093F000CD2BCF70C093E90058
:102A3000FF91EF91DF91CF91BF91AF919F918F91D6
:102A40007F916F915F914F913F912F910F900FBEAA
:102A50000F901F901895E8EDF0E080818E7F8083C5
:102A60001092E2001092DA001092E100A0EEB0E0C5
:102A70008C9181608C9380818F77808319BCA7EDC6
:102A8000B0E08C918E7F8C9380818F7E80831092BA
:102A9000BE010895CF92DF92EF92FF920F931F93A2
:102AA000CF93DF93C8EDD0E088818F7E8883E7EDF8
:102AB000F0E080818160808384E082BF81E0809348
:102AC000BE0188818E7F888302EE10E0F8011082BB
:102AD0001092DA0081EEC82ED12CF6011082888186
:102AE0008F77888388818068888388818F7D8883B9
:102AF00019BC1092E3011092E4011092E2011092CD
:102B0000E10190EEE92EF12CF70180818B7F80832B
:102B100088818160888342E060E080E00E942C1719
:102B2000F60180818E7F8083F801808181608083BF
:102B3000808188608083F70180818E7F8083888197
:102B400080618883DF91CF911F910F91FF90EF906B
:102B5000DF90CF9008951F920F920FB60F9211241D
:102B60002F933F934F935F936F937F938F939F9395
:102B7000AF93BF93EF93FF938091E10082FF09C071
:102B80008091E20082FF05C08091E1008B7F8093FD
:102B9000E1008091DA0080FF2AC08091D80080FF98
:102BA00026C08091DA008E7F8093DA008091D90070
:102BB00080FF18C080E189BD82E189BD09B400FEB3
:102BC000FDCF81E08093E3018091BE0181110FC0B0
:102BD0000E942B150E944A158091E2008460809328
:102BE000E20005C019BC1092E3011092BE01809171
:102BF000E10080FF17C08091E20080FF13C0809148
:102C0000E2008E7F8093E2008091E20080618093F9
:102C1000E2008091D80080628093D80019BC85E0E2
:102C20008093E3018091E10084FF36C08091E2004F
:102C300084FF32C080E189BD82E189BD09B400FE14
:102C4000FDCF8091D8008F7D8093D8008091E100E6
:102C50008F7E8093E1008091E2008F7E8093E2007E
:102C60008091E20081608093E2008091E4018823FA
:102C700011F084E007C08091E30087FD02C081E08D
:102C800001C083E08093E3010E9470040E9431053B
:102C90000E9425050E94FC078091E10083FF27C068
:102CA0008091E20083FF23C08091E100877F8093C1
:102CB000E10082E08093E3011092E4018091E10061
:102CC0008E7F8093E1008091E2008E7F8093E2000E
:102CD0008091E20080618093E20042E060E080E069
:102CE0000E942C178091F00088608093F000FF9183
:102CF000EF91BF91AF919F918F917F916F915F9174
:102D00004F913F912F910F900FBE0F901F901895EC
:102D10000895089508958091C0010895CF93DF9399
:102D20002091F101211103C02091E30102C0223062
:102D300011F02430E1F520910001222339F0209197
:102D4000F20127FF03C060E222E002C068E021E058
:102D50002093E9002FEF3091E800215035FD06C0A7
:102D600035ED3A95F1F700002111F5CF2091E800FB
:102D700025FF1DC0EC0180910001811105C040E0DC
:102D800050E068E070E003C070E040E050E0CE0149
:102D90000E94E6118091E8008E778093E80080E23F
:102DA000FE01A1ECB1E001900D928A95E1F7DF916F
:102DB000CF9108952091E4003091E50095E640918F
:102DC000EC00842F817040FF23C08091E80080FDDB
:102DD0001DC08091E301882399F0853099F080919E
:102DE000EB0085FD11C04091E4005091E5002417EF
:102DF000350729F3915011F09A01E1CF84E008954D
:102E000082E0089583E0089581E0089580E00895C8
:102E10004091E80042FFDDCF08958091E50187FFF2
:102E200011C08091E80082FD05C08091E30181110D
:102E3000F8CF11C08091E8008B770BC08091E3013F
:102E4000882349F08091E80080FFF8CF8091E80066
:102E50008E778093E8000895982F973068F59093C7
:102E6000E900981739F07091EC002091ED00509135
:102E7000F00003C0242F762F50E021FD02C09F5F99
:102E8000ECCF3091EB003E7F3093EB003091ED00C2
:102E90003D7F3093ED003091EB0031603093EB00DB
:102EA0007093EC002093ED005093F0002091EE0021
:102EB00027FDE5CF80E008958F708093E90081E0E1
:102EC00008952091EB013091EC012617370748F067
:102ED0006115710539F42091E8002E772093E80000
:102EE00001C0B901FC0120E06115710579F1809103
:102EF000E3018823F1F18530F1F18091E80083FD51
:102F00003CC08091E80082FD2EC08091E80080FFE7
:102F1000EBCF2091F3008091F20090E0922B6115AD
:102F2000710551F08830910538F421912093F1001A
:102F3000615071090196F3CF21E0089709F020E074
:102F40008091E8008E778093E800CECF2111CFCF1B
:102F50000AC08091E301882361F0853061F080919F
:102F6000E80083FD0AC08091E80082FFF2CF80E094
:102F7000089582E0089583E0089581E00895CF9355
:102F8000DF93CDB7DEB72C970FB6F894DEBF0FBE38
:102F9000CDBF84B7877F84BF0FB6F894A895809182
:102FA0006000886180936000109260000FBE80E82E
:102FB000809361001092610085B7806885BF85B7F6
:102FC000806885BF0E942B150E944A158091E200FF
:102FD00084608093E20078948091E3018823A1F0DB
:102FE0001091E9001F709091EC00892F817090FD85
:102FF00080E8182B1092E9008091E80083FD0E9480
:1030000012121F701093E90082E084BD93E095BD19
:103010009AEF97BD80936E0040E151E0ABE0B1E0E4
:1030200061E070E08D91E82FE295EF70F0E021A172
:103030008F708B0102C0000F111F8A95E2F7C80143
:10304000902F9095922391A392A1892B82A34A1746
:103050005B0741F74FE151E0A0E1B1E061E070E0D2
:103060008D91E82FE295EF70F0E021A18F708B0138
:1030700002C0000F111F8A95E2F7C801902F9095AA
:10308000922391A392A1892B82A34A175B0741F750
:1030900023E0422E22E0522EA3E0B2E0E9EFF1E07D
:1030A000119211921D921D9212E0E330F107C1F7C7
:1030B0000E940C0E811102C00E94170E269A2E98B3
:1030C00082E28093800089E1809381008FEF9FEFFF
:1030D00090938700809386000E943105229A2A9A55
:1030E0000E940C0E811102C00E94170E82E090E037
:1030F0000E94D71980930E020E94FB0D9093F3015A
:103100008093F20183E090E00E94D719682F70E06D
:1031100080E090E00E94960F0E94310581E091E0EE
:103120009093F5018093F40101E010E022242A94A9
:10313000A9EFB1E06BE071E0712C5D018D909C9086
:10314000119711961C921E92FB018191BF01E82FED
:10315000E295EF702E2F30E03C872B87F90121A1FB
:103160008F70A80102C0440F551F8A95E2F7CA016B
:10317000242B21A322A1342E3094232122A350EA10
:103180005A95F1F790E1E92E91E0F92E40E050E0F8
:10319000F70161907F01262D22952F7030E0F90113
:1031A00020A1CD90DC90119730E0F62DFF7002C089
:1031B00035952795FA95E2F720FD08C09801042E71
:1031C00002C0220F331F0A94E2F702C020E030E071
:1031D000C22AD32A1196DC92CE924F5F5F4F4F30B6
:1031E0005105B1F6EB85FC8591A1392231A292A15E
:1031F000892B82A3129681E0F50120813181281567
:10320000390509F480E0782A4A165B0609F095CF63
:10321000772049F0F1E0F093F8010E946D0D909352
:10322000F7018093F6018091F801882391F1809154
:10323000F6019091F7010E94430D049750F180919F
:10324000F9019091FA019093040280930302809116
:10325000FB019091FC0190930602809305028091FE
:10326000FD019091FE0190930802809307028091E6
:10327000FF019091000290930A02809309028091CD
:1032800001029091020290930C0280930B02109223
:10329000F801AFE0B2E0E3E0F2E0E12CF12CBE2C6B
:1032A000419151912D913D912427352721153105CB
:1032B00099F180E090E06801082E02C0CC0CDD1C82
:1032C0000A94E2F7B9016C217D21672B09F189830A
:1032D000BA824C215D2181E0452B09F480E08B838B
:1032E0000E946D0D8160782F9D838C8349815A8166
:1032F0006B818D810E948904F701EE0FFF1FE15F52
:10330000FD4F80819181C826D926D182C0821BC001
:1033100001968F30910579F62FEFE21AF20A35E027
:10332000E316F10409F0BBCF2E822F8218860E948B
:103330006D0D8160782F9A8789874E815F816885BE
:103340008A850E9489040E94250590910D028917A3
:1033500009F4EECE0E94250580930D020E94FC0721
:10336000E7CE78941F920F920FB60F9211248F938D
:103370009F93AF93BF938091ED019091EE01A09147
:10338000EF01B091F0010196A11DB11D8093ED01F7
:103390009093EE01A093EF01B093F001BF91AF9134
:1033A0009F918F910F900FBE0F901F901895F999D4
:1033B000FECF92BD81BDF89A992780B50895A8E106
:1033C000B0E042E050E00C940B1A262FF999FECFA2
:1033D00092BD81BDF89A019700B4021639F01FBA68
:1033E00020BD0FB6F894FA9AF99A0FBE0895039685
:1033F000272F0E94E6190E94E519252F0E94E61941
:10340000242F0C94E6190196272F0E94E6190C949C
:10341000E519DC01CB01FC01F999FECF06C0F2BD34
:10342000E1BDF89A319600B40D9241505040B8F782
:103430000895DB018F939F930E94741ABF91AF91FF
:10344000A29F800D911DA39F900DB29F900D1124FE
:103450000895AA1BBB1B51E107C0AA1FBB1FA617DB
:10346000B70710F0A61BB70B881F991F5A95A9F72D
:1034700080959095BC01CD010895A1E21A2EAA1B5A
:10348000BB1BFD010DC0AA1FBB1FEE1FFF1FA21714
:10349000B307E407F50720F0A21BB30BE40BF50B11
:1034A000661F771F881F991F1A9469F7609570959A
:1034B000809590959B01AC01BD01CF010895EE0F61
:1034C000FF1F0590F491E02D0994A29FB001B39FD6
:1034D000C001A39F700D811D1124911DB29F700D1D
:1034E000811D1124911D08950E94651AA59F900DBC
:1034F000B49F900DA49F800D911D11240895F89400
:02350000FFCFFB
:10350200018B168E168A16881689169091929395BB
:10351200F0F1C66766379431303534979633F4004C
:00000001FF
