:100000000C94B4010C94FB010C94FB010C94FB01C7
:100010000C94FB010C94FB010C94FB010C94FB0170
:100020000C94FB010C94FB010C94BA200C948C21D1
:100030000C945E170C94FB010C94FB010C94FB01D7
:100040000C94FB010C94FB010C94FB010C94FB0140
:100050000C94FB010C94C6170C94FB010C94FB014F
:100060000C94FB010C94FB010C94FB010C94FB0120
:100070000C94FB010C94FB010C94FB010C94FB0110
:100080000C94FB010C94FB010C94FB010C94FB0100
:100090000C94FB010C94FB010C94FB010C94FB01F0
:1000A0000C94FB010C94FB010C94FB01C00CC00CE4
:1000B000F20CF20CB90E3F0DB90EB90E810D160EF1
:1000C000270E270E880E910EB90EB20E370F370F7E
:1000D000490F490F400F490F490F490F370F370F8D
:1000E000450F490F490F450FF921202218232022DF
:1000F00018236C228F221823E622F522165C1E009C
:100100001F002000210022002300240025002600DB
:1001100027002D002E004C002A002B0000001400A8
:100120001A000800150017001C0018000C0012002F
:1001300013002F00300031003900000004001600C9
:10014000070009000A000B000D000E000F0033002D
:10015000340028000000E10000001D001B00060024
:1001600019000500110010003600370038000000AB
:1001700052000151E000E3000000E2000000000036
:100180002C000000000000000000500000005100A2
:100190004F0001003A003B003C003D003E003F00A4
:1001A00040004100420043004400450001000100BE
:1001B000010000000000000000000000000000003E
:1001C000000000000000000000000000000001002E
:1001D0000000C25CC55CC65CC75CC85CC95CCA5C2C
:1001E000000000000000000001000000010000000D
:1001F000BF5CBE5CBD5CC15C000000000000000094
:1002000000000000000001000100010001000000EA
:1002100001000000000000000000000000000000DD
:1002200001000000010001000403300000000A0387
:1002300044005A0036003000000010034B0042001A
:100240004400460061006E007300000004030904CE
:1002500009023B00020100A0FA09040000010301A9
:100260000100092111010001224000070581030856
:10027000000A090401000103000000092111010026
:1002800001228A000705820320000A1201100100E2
:10029000000008EDFE6022010001020301050109D2
:1002A00002A10185020901A100050919012905150D
:1002B00000250195057501810295017503810105F0
:1002C00001093009311581257F95027508810609DC
:1002D000381581257F950175088106050C0A3802BD
:1002E0001581257F950175088106C0C005010906A5
:1002F000A1018505050719E029E7150025019508E5
:10030000750181020507190029EF1500250195F0F7
:1003100075018102050819012905950575019102EC
:10032000950175039101C005010906A10105071991
:10033000E029E715002501950875018102950175F1
:100340000881010507190029FF150026FF00950601
:1003500075088100050819012905950575019102A7
:10036000950175039101C00011241FBECFEFDAE0A3
:10037000DEBFCDBF04B603FE27C08091310290914D
:100380003202A0913302B09134028730904BA740E3
:10039000B04BD1F41092310210923202109233021B
:1003A0001092340214BE84B7877F84BF0FB6F894CE
:1003B000A895809160008861809360001092600031
:1003C0000FBEE0E0F8E3099511E0A0E0B1E0E4E160
:1003D000F8E402C005900D92A832B107D9F722E0E7
:1003E000A8E2B1E001C01D92A133B207E1F70E947B
:1003F000E41D0C9408240C9400000C940307229A2A
:100400002A9A08950E9404070C94FF0181FF02C0FC
:100410002A9801C02A9A0C945A0281E0089581E03A
:1004200008950C940F021F93CF93DF9300D000D058
:100430001F92CDB7DEB749835A836B832091540155
:1004400089819A81211112C0662349F00E94871484
:10045000182F682F89819A810E94301403C00E944E
:100460005B14182F69817A81812F04C00E94871440
:1004700069817A810F900F900F900F900F90DF910C
:10048000CF911F910C942204FC0140815181628123
:10049000738184810C9413020E94B915811102C0EA
:1004A0000E946C160E94A8080C9402020E94A708E1
:1004B0000C94FD0108950C94060208950E94250FE6
:1004C0000E945D022FEF84E39CE021508040904029
:1004D000E1F700C000000C94EC170F931F93CF932B
:1004E000DF938C010E944402EC01B8010E941102CA
:1004F000882309F49DC1B801CE010E942E098823EA
:1005000009F496C1C631FCE5DF0739F50E940815EC
:10051000982FF801828120910001309101018823F8
:1005200079F09A7A81E009F480E0809328019111B2
:1005300002C069E201C065E3C9010E94D9160AC080
:1005400080912801811102C069E201C065E3C901FF
:100550000E94E4160E9456156BC1C7318CE5D8077E
:1005600008F03BC1C130ECE5DE0771F4F80182818F
:10057000882309F45DC18091EC01982F909590FB40
:1005800080F98093EC0154C1C230FCE5DF0708F428
:1005900013C1F8018281882309F411C10E94B915A1
:1005A000811102C00E946C160E94D61590932202FF
:1005B00080932102C031FCE5DF0709F4BFC008F0D9
:1005C0003FC0C830ECE5DE0709F496C0F0F4C43053
:1005D0008CE5D80709F483C068F4C230FCE5DF0776
:1005E00009F473C0C330DC4509F0DDC080912102FD
:1005F000826072C0C630ECE5DE0709F46AC008F01C
:1006000077C080912102886067C0CC308CE5D80724
:1006100009F481C058F4CA30FCE5DF0709F470C062
:1006200008F075C080912102806856C0CE30ECE59C
:10063000DE0709F474C008F07DC08091210289C0F2
:10064000CB3F8CE5D80709F44DC008F5C331FCE574
:10065000DF0709F47BC068F4C131ECE5DE0709F47B
:1006600071C0C231DC4509F09EC0809121028F77B4
:1006700033C0C5318CE5D80709F472C008F486C0D0
:10068000CA3FDC4509F08FC0809122023EC0CF3FB7
:100690008CE5D80709F45FC058F4CD3FFCE5DF07CF
:1006A00009F444C008F43FC08091220282602DC04A
:1006B000C130EDE5DE0709F473C008F45DC0C23057
:1006C000DD4509F070C080E06CC08091210281603E
:1006D00003C08091210280618093210264C08091D7
:1006E000210211C0809122028260809322025BC0AD
:1006F000809121028062F0CF809121028064ECCF52
:100700008091210288608460E7CF8160EECF809184
:1007100021028E7FE1CF809121028D7FDDCF8091FC
:100720002102877FD9CF8091220218C080912202B6
:100730008D7FDBCF809121028F7ECECF80912102F1
:100740008F7DCACF809121028F7BC6CF80912102FD
:10075000877F8B7FC1CF809122028D7F8E7FC5CF17
:100760008091210282FB222720F991E0922790FBC1
:1007700082F990FB83F9B0CF80912202982F909557
:1007800091708E7F892B90FB81F9AFCF80912102F0
:1007900087FB222720F991E0922790FB87F99CCFD5
:1007A00081E00E946E1680912102909122020E94A7
:1007B000E7150E94250F3CC0C115DC4539F0C80182
:1007C000DF91CF911F910F910C940D02F80182815E
:1007D000882371F10E945E022BC0CE3DECE5DE075E
:1007E00039F4F8018281882319F10E946C1620C027
:1007F000CF3DFCE5DF07A8F4CC3D8CE5D80731F40C
:10080000F80182818823A1F080E008C0CD3DDC455D
:10081000B1F6F8018281882359F082E00E94811E9E
:1008200007C0CE018A5F9C45099708F4B2CEC7CFB6
:1008300080E0DF91CF911F910F91089580E090E0CB
:10084000089508952BE4829FC0011124FC012FE03C
:10085000729FE00DF11D1124E60FF11DEE0FFF1F39
:10086000E450FF4F859194910895880F991FFC01E2
:10087000E85DFD4F859194910895CF93DF930E9499
:1008800022040E942C06EC01811521E5920708F054
:1008900042C0811540E5940708F02DC1883E9105BE
:1008A00000F5803E910508F0D3C1883A910570F4B7
:1008B000853A910508F0A2C08130910509F4C8C1BC
:1008C00008F479C1049708F0C3C175C18F3B910545
:1008D00008F49FC0803C910508F46DC1805C9109CB
:1008E000F9C0C11580E3D80780F4C11520E2D20712
:1008F00008F0EEC0C03FD10508F45DC1CF3FD1057F
:1009000011F008F0A5C1D065A3C1C11540E4D4071A
:1009100008F0EEC0E3C0C11589E5D80760F5C11540
:1009200028E5D20708F033C1C11544E5D40778F4AF
:10093000C11583E5D80708F00FC1C11522E5D2071C
:1009400008F0F4C0DC2FCC27C16FD06A81C1C1157B
:1009500045E5D40708F416C1C11586E5D80708F0A7
:100960002AC18C2F0E94C0068F71C82FD0E0DC2FC7
:10097000CC27D0626DC1CD3B2CE5D20709F412C162
:10098000E0F4CB3B8CE5D80709F406C108F007C1B9
:10099000C1154AE5D40708F00EC18C2F8F700E9454
:1009A000C00694E0D695C7959A95E1F7CF70D0E050
:1009B000DC2FCC27D069C82B4BC1C03C8CE5D807B5
:1009C00009F4F6C060F4CE3B4CE5D40709F4EDC061
:1009D000CF3BDC4509F0EFC0C0E0D2ED39C1CE011C
:1009E00090568115904208F0E6C08D2F8F710E94BD
:1009F000C006DD27D0628F71D82B2AC1853A9105B8
:100A000009F4DCC0863A910509F0DBC0C2E8D0E405
:100A10001FC1883A910509F4D7C0893A910509F4B4
:100A2000D6C08A3A910509F4D5C08B3A910509F4EC
:100A3000D4C08C3A910509F4D3C08B3B910509F4DD
:100A4000D2C08C3B910509F4D1C08D3A910509F4CF
:100A5000D0C0803B910509F4CFC08E3A910509F4CE
:100A6000CEC08F3A910509F4CDC0813B910509F4C0
:100A7000CCC0823B910509F4CBC0833B910509F4BE
:100A8000CAC0843B910509F4C9C0853B910509F4AE
:100A9000C8C0863B910509F4C7C0873B910509F49E
:100AA000C6C0883B910509F4C5C0893B910509F48E
:100AB000C4C08D3B910509F4C3C08E3B910509F478
:100AC000C2C08A3B910509F4C1C0C0E0D4E4C0C0F3
:100AD000CE019F700E943504EC01BAC0CE01992767
:100AE000D3FF03C0EC01D86CB3C0EC01D06CB0C034
:100AF000DF70D06AADC074E0969587957A95E1F77E
:100B000083709C2F937021E030E002C0220F331FCE
:100B10009A95E2F73C68382BCF70C695C69540E2AF
:100B2000C49FE0011124C22BD32B92C0CE0183704D
:100B3000992721E030E002C0220F331F8A95E2F7A7
:100B40008C2F8695869540E2849FC0011124E9018F
:100B5000C82BD92BDC687CC0CE018370992721E09B
:100B600030E002C0220F331F8A95E2F78C2F869562
:100B7000869540E2849FC0011124E901C82BD92B3E
:100B8000DA6866C0DC2FCC27C46FD06A61C0DC2F66
:100B9000CC27C06FD06A5CC0C0E0D4ED59C0C0E0C3
:100BA000D5ED56C0C0E0D1ED53C0C0E0D0ED50C08F
:100BB000C0E0D3ED4DC0C0E0D0E04AC0C1E8D0E411
:100BC00047C0C3E8D0E444C0C2EED4E441C0C9EE9B
:100BD000D4E43EC0CAEED4E43BC0C5EBD4E438C094
:100BE000C6EBD4E435C0C3EBD4E432C0C4EBD4E4E8
:100BF0002FC0C7EBD4E42CC0CCECD4E429C0CDEC9E
:100C0000D4E426C0C3E8D5E423C0CAE8D5E420C0B4
:100C1000C2E9D5E41DC0C4E9D5E41AC0C1E2D6E4F6
:100C200017C0C3E2D6E414C0C4E2D6E411C0C5E2E2
:100C3000D6E40EC0C6E2D6E40BC0C7E2D6E408C0D4
:100C4000CFE6D4E405C0C0E7D4E402C0CAE2D6E4EB
:100C5000CE01DF91CF9108958238910569F1B0F40A
:100C60008133910509F46DC048F48932910509F486
:100C700063C08A32910509F469C0089585339105EE
:100C800009F455C089339105B9F00895833E910563
:100C900069F138F4803E9105B1F0823E910509F189
:100CA0000895863E9105A9F1873E9105B9F1843EEC
:100CB000910509F064C023C02091210220FD4FC09E
:100CC00021FD4DC008958091210280FD44C0809196
:100CD000220280FF44C08091210284FD42C083EE45
:100CE0004DC08091210282FF38C0F5CF8091210252
:100CF00082FD33C08091220280FD31C0ECCF809113
:100D0000220281FF32C08091210284FD2AC087EE39
:100D100035C08091210283FF26C0F5CF809121024A
:100D200083FD21C08091220281FD1FC0ECCF809104
:100D3000210285FD1CC01DC08091210285FD19C0C6
:100D400016C08091210286FD16C017C08091210235
:100D500086FD13C010C089E311C082EE0FC080EE83
:100D60000DC080E00BC086EE09C084EE07C089E2AA
:100D700005C085E303C08AE201C081E390E00895E5
:100D80009091210292FF0DC0282F2871283019F46C
:100D9000877F846006C0282F2471243011F48B7F54
:100DA000886093FF0DC0282F2871283119F4877EA1
:100DB000846106C0282F2471243111F48B7E886150
:100DC0002091220220FF0DC0382F3871383019F4DD
:100DD000877F816006C0382F3171313011F48E7FEA
:100DE000886021FF0DC0282F2871283119F4877ED3
:100DF000816106C0282F2171213111F48E7E886116
:100E000094FD877E089508950C940307E82FF0E081
:100E1000EE0FFF1FE75DFE4F8081918108950895D9
:100E2000CF93DF93A2E2B1E047E251E061E070E0EE
:100E30008D91E82FE295EF70F0E021A18F70EB012A
:100E400002C0CC0FDD1F8A95E2F7CE019C2F909552
:100E5000922391A392A1892B82A34A175B0741F7A2
:100E6000A3E1B1E042E251E061E070E08D91E82F52
:100E7000E295EF70F0E021A18F70EB0102C0CC0F82
:100E8000DD1F8A95E2F7CE019C2F9095922391A3C6
:100E900092A1892B82A34A175B0741F7E3E3F1E0B4
:100EA000A9E2B1E08DE391E0119211921D921D92A1
:100EB0008E179F07C9F785E00E940108DF91CF9147
:100EC0000C944C023F924F925F926F927F928F925E
:100ED0009F92AF92BF92CF92DF92EF92FF920F93C9
:100EE0001F93CF93DF9362E271E0A3E3B1E02DE3C0
:100EF000622E21E0722E412C01E010E05D018D9008
:100F00009C90119711961C921E92EB018991BE0143
:100F1000E82FE295EF70F0E021A18F70A80102C0E8
:100F2000440F551F8A95E2F7CA01242B21A322A161
:100F3000342E3094232122A350EA5A95F1F793E1FD
:100F4000E92E91E0F92E40E050E0E70159907E0152
:100F5000252D22952F7030E0E90128A1CD90DC905D
:100F6000119730E0D52DDF7002C035952795DA95C1
:100F7000E2F720FD08C09801042E02C0220F331FA3
:100F80000A94E2F702C020E030E0C22AD32A119688
:100F9000DC92CE924F5F5F4F4F305105B1F691A179
:100FA000D32DD923D1A392A1892B82A3129681E0BC
:100FB000F501208131812815390509F480E0482A9E
:100FC0006A167B0609F09ACF242D45E069E271E0AC
:100FD00083E391E00E9402080E945602842DDF9173
:100FE000CF911F910F91FF90EF90DF90CF90BF9026
:100FF000AF909F908F907F906F905F904F903F90B9
:1010000008950895FF920F931F93CF93DF93F82EC7
:10101000092F162FD72FC42F222349F081E0809368
:101020003F010E94901790933E0180933D01809173
:101030003F018823D9F080913D0190913E010E94AB
:101040009C17069798F0EF2DF02FA12FBD2F80E071
:1010500090E04C2F50E08417950734F421913191A2
:101060002D933D930196F7CF10923F01DF91CF91E1
:101070001F910F91FF900895E82FE295EF70F0E037
:1010800032A1282F2F7081E090E001C0880F2A95AF
:10109000EAF78095832382A30895CF92DF92EF929F
:1010A000FF92863030F4811105C0909180009F7DC1
:1010B00004C085E090918000906290938000282F7A
:1010C00030E0AFEFBFEF0E94AC2325E030E040E01E
:1010D00050E00E948423C9012C3764E1360728F4CC
:1010E00069E070E00E945C2329C0DA01C9018A50DE
:1010F000974DAF4FBF4F6627782F892F9A2F25EF37
:1011000038E241E050E00E94842369017A01CA017B
:10111000B9010E944C239B01AC01C701B6010E949A
:101120004C23BB27A92F982F872F009721E0A207D8
:10113000B10511F0BC0102C06FEF7FEF70938B001F
:1011400060938A00FF90EF90DF90CF90089508950C
:10115000269A86E30E943C0882E28093800089E11F
:10116000809381008FEF9FEF90938700809386009C
:101170000C94B71B0F931F93CF93DF93C62FD42FDD
:10118000122FFC0182818823C9F0609342010E94E2
:101190009017909341018093400180E28C0F88303A
:1011A00008F057C0C77081E001C0880FCA95EAF700
:1011B000DF91CF911F910F910C94800C809142018F
:1011C000681330C080914001909141010E949C17AA
:1011D000883C910538F500E20D0FCD17B9F080E29B
:1011E0008C0F883040F4C77081E001C0880FCA9529
:1011F000EAF70E94870C083028F581E09D2F977050
:1012000001C0880F9A95EAF70E94800C812F0E94F6
:101210006D0C0830F0F4D77081E001C0880FDA95CA
:10122000EAF70AC080E28C0F883098F4C77081E03A
:1012300001C0880FCA95EAF7DF91CF911F910F91F6
:101240000C94870C812FDF91CF911F910F910C94FB
:101250006D0CDF91CF911F910F9108959C01CB01EF
:10126000233F4CE53407F9F078F4283DFCE53F07CF
:10127000B9F0293D4CE5340711F1273D3C4531F5E6
:1012800026E241EE61EE1EC0253FFCE53F0799F0E6
:1012900070F0263F3C45D1F427E245EE66EE12C0E1
:1012A00027E245EE0EC026E241EE60EE0BC027E2DB
:1012B00045EE64EE07C026E241EE62EE03C028E28E
:1012C00041E065EE0E94BA0880E00895FC01828149
:1012D000882319F010924201089581E008959093B7
:1012E0004801809347010895E0914701F09148013A
:1012F000309721F00190F081E02D099480E008956D
:10130000E0914701F0914801309799F02091120146
:10131000222359F02091210227FF07C0DC012C91E4
:1013200011962C93119725E02C930280F381E02DE8
:1013300009940895E0914701F0914801309739F000
:1013400022E0DC012C930480F581E02D09940895BE
:1013500020914501309146012817390771F090938B
:10136000460180934501E0914701F0914801309793
:1013700021F00680F781E02D099408952091430122
:10138000309144012817390771F0909344018093FC
:101390004301E0914701F0914801309721F000842A
:1013A000F185E02D0994089585B7806885BF85B7DC
:1013B000806885BF089508950C94DB090C94DC09BE
:1013C0000C94DB090C94DB090E94D4090E94E0090B
:1013D0000C94DE0981E008950E9487170E9410078F
:1013E0000E945C180E94B71B0C94E2095F926F92F6
:1013F0007F928F929F92AF92BF92CF92DF92EF92A5
:10140000FF920F931F93CF93DF93CDB7DEB72A9749
:101410000FB6F894DEBF0FBECDBF0E9462070E94D8
:10142000EA09811111C08FEF89838A831B820E9490
:1014300090178160782F9D838C8349815A816B81BD
:101440008D810E94B30A56C09AE4692E91E0792EEC
:1014500000E010E088248394912C502E802F0E946D
:1014600006076C01F301A190B1903F01A826B926AF
:10147000A114B10431F40F5F1F4F0530110569F756
:10148000D2CF8091EC0181FD0E940F0780E090E0B7
:101490007401082E02C0EE0CFF1C0A94E2F79501BD
:1014A0002E213F21232B09F18E835F82CE20DF2066
:1014B00081E0CD2809F480E088870E949017816040
:1014C000782F9A8789874E815F8168858A850E94F7
:1014D000B30A000F111FF801E65BFE4F8081918176
:1014E000E826F926F182E08205C001968F30910549
:1014F00079F6C1CF0E94101B0E9474099091490196
:101500008917D9F00E947409809349012A960FB671
:10151000F894DEBF0FBECDBFDF91CF911F910F9129
:10152000FF90EF90DF90CF90BF90AF909F908F9003
:101530007F906F905F900C945B022A960FB6F894A0
:10154000DEBF0FBECDBFDF91CF911F910F91FF90F6
:10155000EF90DF90CF90BF90AF909F908F907F9053
:101560006F905F900895CF93DF93CDB7DEB72B9741
:101570000FB6F894DEBF0FBECDBF4F835887698783
:101580007A878B87DE01119686E0FD0111928A959C
:10159000E9F785E0FE01379601900D928A95E1F713
:1015A00049815A816B817C818D819E810E94F511D8
:1015B0002B960FB6F894DEBF0FBECDBFDF91CF9153
:1015C0000895FC01808191810E94C91408958823A7
:1015D00009F41AC18238C1F40E94740981FD14C152
:1015E00069E380910001909101010E94D9160E9447
:1015F00056152FEF81EE94E0215080409040E1F7A6
:1016000000C0000069E319C08338F9F40E9474092E
:1016100080FDFAC063E580910001909101010E9474
:10162000D9160E9456152FEF81EE94E0215080408C
:101630009040E1F700C0000063E5809100019091C7
:1016400001010E94E4160C9456158438C1F40E94DE
:10165000740982FDD9C067E4809100019091010175
:101660000E94D9160E9456152FEF81EE94E021506A
:1016700080409040E1F700C0000067E4DECF9CEFBF
:10168000980F913A40F4682F8091000190910101E8
:101690000E94D916D8CF90E2980F983050F48770F6
:1016A00091E001C0990F8A95EAF7892F0E940B15E6
:1016B000CACF9BE5980F933070F4853A29F0863AAB
:1016C00031F083E890E005C081E890E002C082E854
:1016D00090E00C94A80998E5980F973108F08EC017
:1016E000883A09F445C0893A09F445C08A3A09F4B0
:1016F00045C08B3A09F445C08C3A09F445C08B3B90
:1017000009F445C08C3B09F445C08D3A09F445C045
:10171000803B09F445C08E3A09F445C08F3A09F47C
:1017200045C0813B09F445C0823B09F445C0833B79
:1017300009F445C0843B09F445C0853B09F445C024
:10174000863B09F445C0873B09F445C0883B09F452
:1017500045C0893B09F445C08D3B09F445C08E3B2B
:1017600009F445C08A3B09F445C080E090E044C0DC
:1017700082EE90E041C089EE90E03EC08AEE90E0BB
:101780003BC085EB90E038C086EB90E035C083EB42
:1017900090E032C084EB90E02FC087EB90E02CC04B
:1017A0008CEC90E029C08DEC90E026C083E891E0BD
:1017B00023C08AE891E020C082E991E01DC084E95D
:1017C00091E01AC081E292E017C083E292E014C077
:1017D00084E292E011C085E292E00EC086E292E0DF
:1017E0000BC087E292E008C08FE690E005C080E77A
:1017F00090E002C08AE292E00C94BE09803F20F0A3
:101800000E94181A0C94051B0895882309F464C0DB
:10181000823879F40E94740981FF5EC069E3809187
:101820000001909101010E94D9160E94561569E3AA
:1018300010C08338B1F40E94740980FF4DC063E585
:1018400080910001909101010E94D9160E945615C5
:1018500063E580910001909101010E94E4160C94CF
:101860005615843879F40E94740982FF35C067E404
:1018700080910001909101010E94D9160E94561595
:1018800067E4E7CF9CEF980F913A10F4682FE1CF0F
:1018900090E2980F983050F4877091E001C0990F52
:1018A0008A95EAF7892F0E941115D9CF9BE5980FE9
:1018B000933020F480E090E00C94A80998E5980F0C
:1018C000973120F480E090E00C94BE09803F20F036
:1018D0000E94801A0C94051B0895CF93C82F0E9474
:1018E000E70AC93349F42FEF87EE93E02150804097
:1018F0009040E1F700C000008C2FCF910C94050CB4
:10190000882321F00E940B150C9456150895882306
:1019100021F00E9411150C9456150895CF92DF9274
:10192000EF92FF920F931F93CF93DF937C01062FCB
:10193000C72FFC01158112951F70D281D1110E9411
:1019400028150E940115882379F0DD2369F080E2D3
:10195000800F883048F082E00E94A0150E94011597
:1019600091E0D82ED92601C0D12CCC2EC2948FE084
:10197000C8228C2D90E0FC01EA5AFF4F0C94A6235C
:101980008C2F807FCF70882311F0C295C07FDD231C
:1019900099F0CC2309F4A7C180E2800F883010F0C1
:1019A000011104C08C2F0E940B1503C08C2F0E94C4
:1019B0001B150E94561597C1802F0E94050CCC2341
:1019C00009F4D7C180E2800F883010F0011104C003
:1019D0008C2F0E94111503C08C2F0E9421150E948C
:1019E0005615C7C18C2F807FCF70803211F0C29501
:1019F000C07F002319F00130C9F022C0DD2371F04F
:101A0000112341F0113031F40E943B158C2B0E94C0
:101A10004315AFC10E943B158C2B1DC0112319F03B
:101A2000113009F4A6C10E944C1525C0DD2321F018
:101A3000163008F09EC10EC0153008F09AC11BC0C8
:101A4000DD2361F0112331F0F701858180FF4BC167
:101A50008F7085838C2F0E94800C8BC1112359F0CD
:101A6000093309F051C1FFEF27EE83E0F150204028
:101A70008040E1F747C18C2F0E94870C7AC1DD239B
:101A8000F9F0053F51F0063F71F0043FA9F4809151
:101A90001B0290911C0281600BC080911B029091EF
:101AA0001C02826005C080911B0290911C02846020
:101AB00090931C0280931B02802F0E94181A1EC054
:101AC000053F51F0063F71F0043FA9F480911B02DD
:101AD00090911C028E7F0BC080911B0290911C0282
:101AE0008D7F05C080911B0290911C028B7F90938B
:101AF0001C0280931B02802F0E94801A0E94051BEB
:101B000040C18C2F837009F045C0D11136C1402FE0
:101B1000429546954770440F440F602F6F70862F93
:101B200090E0A0E0B0E0042E04C0880F991FAA1F27
:101B3000BB1F0A94D2F704FF10C00FE010E020E0B2
:101B400030E004C0000F111F221F331F4A95D2F747
:101B5000009510952095309503C000E010E09801A5
:101B6000C695C695C370BC01CD01602B712B822B2D
:101B7000932BC23049F058F4C13019F00E9446133B
:101B8000FCC00E943413F9C00E945813F6C00E9492
:101B90003213F3C0DD2319F08C2F817001C08695BC
:101BA000882309F4EAC0402F429546954770440FB8
:101BB000440F602F6F70862F90E0A0E0B0E0042EFD
:101BC00004C0880F991FAA1FBB1F0A94D2F704FFF5
:101BD00010C00FE010E020E030E004C0000F111F43
:101BE000221F331F4A95D2F7009510952095309506
:101BF00003C000E010E09801C695C695C370BC0113
:101C0000CD01602B712B822B932BC23049F058F4FD
:101C1000C13019F00E940B14B0C00E94F913ADC07E
:101C20000E941D14AAC00E946C13A7C0CF70DD23B0
:101C300039F08C2F0E949213802F0E94800C9DC03F
:101C4000802F0E94870C8C2F0E94B31396C0023FF6
:101C500001F128F4003F41F0013FA1F040C0033FF3
:101C6000F9F0043F39F13BC0DD2341F0153008F0B5
:101C700080C08C2F8F710E94D8137BC0163008F063
:101C800078C0F7CFDD2339F08C2F8F710E9492132B
:101C900070C0DD23C9F38C2F8F710E94B31369C00C
:101CA000DD2329F08C2F8F710E947D1362C00E946A
:101CB00078135FC0DD2349F0CF718C2F0E949213FF
:101CC00063E08C2F0E948B1554C081E00E94A01508
:101CD000123008F44EC082E00E94A0154AC0DD23F5
:101CE00031F0112389F2802F0E94E70A42C01123AC
:101CF00091F2093349F49FEFE7EEF3E09150E040B1
:101D0000F040E1F700C00000802F0E94050C31C0B8
:101D10004C2F4F70602FC7010E941E040E94A31217
:101D200030C0D1112EC0CF70C23091F038F4CC2326
:101D300061F0C130F1F40E94FB1B23C0C43071F08C
:101D400050F0C530B1F480E00AC00E94D81B19C021
:101D50000E94421C16C00E94491C13C085E00E94CC
:101D6000721C0FC04C2F4F70602FC7010E942104BE
:101D700008C088EF8C0D843020F40E9474090E9402
:101D80005B02DD20C9F00E94FD1480FD15C0F70143
:101D900012820E94F7140E949213C7010E94E50E5E
:101DA0000E94F714DF91CF911F910F91FF90EF9058
:101DB000DF90CF900C94B313DF91CF911F910F91CF
:101DC000FF90EF90DF90CF9008950F931F93CF93E4
:101DD000DF93EC01988189812B813C81232B31F0A9
:101DE0008F3F31F481E09F3F19F403C081E001C0CF
:101DF00080E080FD13C0CE010E946D02882371F047
:101E0000688179818A810E94D4148C010E942F14E8
:101E10000E942013B801CE010E948E0CDF91CF9159
:101E20001F910F9108950E9428150E9438150E9455
:101E300056150E94AB1B0C94051B809100019091DC
:101E400001010E94EF160C94130F0E9418150C94B8
:101E50001D0FE92FE295EF704E2F50E0FA013297F7
:101E6000EE30F105B0F4EA59FF4F0C94A623803F01
:101E700091F018F4883E68F40EC0843F51F40BC012
:101E8000883E48F0813F29F406C093FB882780F9FB
:101E9000089580E0089581E008950E94C9140E9489
:101EA000290F0895CF93DF9300D000D01F92CDB7B4
:101EB000DEB70F900F900F900F900F90DF91CF91A2
:101EC0000895CF93DF9300D000D000D0CDB7DEB718
:101ED00026960FB6F894DEBF0FBECDBFDF91CF912F
:101EE00008951F93CF93DF93C091550116E0809121
:101EF0005601C81799F0D0E01C9FF0011D9FF00D0E
:101F00001124E95AFE4F408151816281738184819D
:101F100095810E94610F2196C770E9CFDF91CF9123
:101F20001F91089540918701509188016091890126
:101F300070918A0180918B0190918C010C94610FBA
:101F4000CF9380918C0182958F7009F05FC0809152
:101F50008901882309F45AC080915501B091560136
:101F600070918701A091880140918A0150918B0165
:101F700091E07F3F09F090E0692FC6E08B1709F4EC
:101F800045C04115510521F0AF3F21F020E003C0CD
:101F900021E001C0262F90E020FD35C0C89FF00150
:101FA000C99FF00D1124E95AFE4F21812A132BC03D
:101FB0002081271328C02281211125C0238134814B
:101FC0002417350710F421503109241B350B283C08
:101FD0003105C8F420918C012F70206120938C0171
:101FE00026E0289FF001299FF00D1124E45AFE4FAE
:101FF00080818F708061808387E891E00E94E50E88
:10200000CF910C94710F01968770B8CFCF9108953E
:10201000AF92BF92CF92DF92EF92FF920F931F93F6
:10202000CF93DF93CDB7DEB761970FB6F894DEBFDD
:102030000FBECDBF8C0185E0F801DE011D96019039
:102040000D928A95E1F7D8014C9111965C91119708
:102050001296EC90309187016091880180918A01FD
:1020600090918B01009731F06F3F31F421E03F3FB9
:1020700019F403C021E001C020E0B22FB170BB2EE3
:1020800020FD60C1F801C380D480A0908901AA20FE
:1020900009F4EEC020918C01C816D90628F0D601AB
:1020A000A81BB90BCD0104C0809590958C0D9D1D8A
:1020B000FF24F394883C910580F0F12C207F09F0F7
:1020C0009CC07C2DD98AC88A6E2D89890E94520FA6
:1020D00087E891E00E94E50E2DC1822F807F09F0F4
:1020E00054C0561314C0431312C0FE2CE1100FC08D
:1020F0002F70206120938C010E94920F87E891E05D
:102100000E94E50E80918C01F80185835CC1CD2889
:1021100031F05F3F31F481E04F3F19F403C081E0BB
:1021200001C080E080FD03C081E08E2502C080E018
:1021300090E0F82FF170FF2E80FF1CC080915501B8
:102140002091560136E0821709F41AC190E0389FB9
:10215000F001399FF00D1124E95AFE4F61815613A9
:1021600006C06081461303C06281E61203C0019677
:102170008770E9CFFE2CEE2009F425C180918C01F7
:10218000816080938C01F12C1EC1561309C043134A
:1021900007C0E11005C080918C01F8018583A4C0BF
:1021A0004D875E878D859E850E944D0F882379F12E
:1021B000EE2069F120918C01822F82958F7090E042
:1021C000029774F0809187019091880198878F839E
:1021D0001986DB86CA862C87CE0107960E94E50EFB
:1021E00086E0F801A7E8B1E001900D928A95E1F749
:1021F0000E94A00F0E94920F0DC0561771F04D87DC
:102200005E878D859E850E944D0F81111AC0C80181
:102210000E94E50EFF24F394D6C04313F0CFE110E3
:10222000EECF80918C01F8018583C8010E94E50EF4
:1022300086E0E7E8F1E0DF011D928A95E9F7FA2CE4
:10224000C2C0EE2021F320918C01822F82958F70E5
:1022500090E002972CF280918701909188019A83F7
:1022600089831B82DD82CC822E83CE010196B6CF7C
:10227000C816D90628F0F601E81BF90BCF0104C0F7
:10228000809590958C0D9D1D883C910548F0F12C12
:102290007C2DD98AC88A6E2D89890E94520F4AC026
:1022A000FE2CEE2009F4B3CF561333C0431331C0D4
:1022B00020918C0120FD24C0822F82958F70482FA1
:1022C00050E041155105E1F0D80115962C93159772
:1022D0004F30510549F08F5F982F9295907F822F54
:1022E0008F70892B15968C93C8010E94E50E86E0AD
:1022F000F801A7E8B1E001900D928A95E1F73DC0A1
:1023000086E0F801A7E8B1E001900D928A95E1F727
:102310005AC04D875E878D859E850E944D0F811125
:102320005FCF80918C01816080938C01C8010E94F5
:10233000E50E49C0E7E8F1E086E0DF011D928A95ED
:10234000E9F71BC0EE2009F462CF4D875E878D85CB
:102350009E850E944D0FF82E882309F458CF86E001
:10236000F801A7E8B1E001900D928A95E1F787E8BE
:1023700091E00E94E10A0E94A00F0E94920F23C0E8
:102380004D875E878D859E850E94C914292F2295D1
:102390002F70223028F49F7039F0811105C00BC0D6
:1023A000243028F49F7049F4805E883020F0C80102
:1023B0000E94E50EBF2CFB2C06C0D80115969C91FF
:1023C000907F91F7F8CF8F2D61960FB6F894DEBF0E
:1023D0000FBECDBFDF91CF911F910F91FF90EF9076
:1023E000DF90CF90BF90AF9008951F93CF93DF936E
:1023F000CDB7DEB72C970FB6F894DEBF0FBECDBFBA
:102400004F83588769877A878B879C87CE01079689
:102410000E9408108823D1F09F8188852A853B85FA
:10242000232B31F08F3F31F481E09F3F19F403C03B
:1024300081E001C080E080FD47C04F8158856985FB
:102440007A858B859C850E94610F3EC086E0FE01E7
:102450003796DE01119601900D928A95E1F7FF8182
:10246000E8856A857B856115710531F0EF3F31F4B0
:1024700081E0FF3F19F403C081E001C080E080FDEE
:1024800023C02091560130E0C90101968770992739
:102490004091550150E084179507F1F1F983EA83E3
:1024A0007D836C8396E0929FD001939FB00D1124A1
:1024B000A95ABE4FFE01319601900D929A95E1F70F
:1024C000809356010E94710F16E080915501909102
:1024D0005601891771F1189FC0011124895A9E4F26
:1024E0000E940810882329F1E09155011E9FF001F8
:1024F0001124E95AFE4F40815181628173818481A8
:1025000095810E94610F8091550190E0019687703E
:10251000992780935501D9CF0E94250F109256011B
:1025200010925501E7E8F1E086E0DF011D928A95FF
:10253000E9F72C960FB6F894DEBF0FBECDBFDF9142
:10254000CF911F910895EF92FF920F931F93CF9316
:10255000DF938C01892B09F46CC0F12CEE24E394F9
:10256000E8012196F8018491843740F4843008F022
:1025700051C0813081F0823019F15BC0853709F498
:1025800044C0A8F19CE7980F903708F052C08F77AD
:102590000E94050C41C00E5F1F4FFE01849190E226
:1025A000980F983050F48770FE2D01C0FF0F8A9568
:1025B000EAF78F2F0E942B1514C00E94E70A2DC046
:1025C0000E5F1F4FFE01849190E2980F983060F4E7
:1025D0008770FE2D01C0FF0F8A95EAF78F2F0E94AA
:1025E00031150E94561519C00E94050C16C00E5FC9
:1025F0001F4FFE01C491CC2381F08FE99FE001972A
:10260000F1F700C00000C150F6CF0E5F1F4FFE0172
:10261000F49003C00E94E70A8E018F2D882309F4ED
:102620009FCFEFE9FFE03197F1F700C00000815044
:10263000F5CFDF91CF911F910F91FF90EF9008950B
:10264000089508950C9421130C9422130E942413CE
:102650006093C3017093C4018093C5019093C60138
:102660000C94130F0C9426130F931F930091C30126
:102670001091C4012091C5013091C601602B712BCE
:10268000822B932B1F910F910C9426130F931F9362
:102690000091C3011091C4012091C5013091C60180
:1026A00060237123822393231F910F910C9426138F
:1026B0000F931F930091C3011091C4012091C50194
:1026C0003091C60160277127822793271F910F91B0
:1026D0000C9426130C9421130E946A136093BF017B
:1026E0007093C0018093C1019093C2010C94130FA9
:1026F00060E070E0CB010C946C130F931F9341E0EA
:1027000050E060E070E08A019B0104C0000F111FDF
:10271000221F331F8A95D2F7C901B8011F910F916B
:102720000C946C130F931F9341E050E060E070E055
:1027300004C0440F551F661F771F8A95D2F78091FA
:10274000BF019091C001A091C101B091C2018A0165
:102750009B01082B192B2A2B3B2BC901B8011F9178
:102760000F910C946C130F931F9341E050E060E0C5
:1027700070E004C0440F551F661F771F8A95D2F77B
:1027800040955095609570958091BF019091C001E2
:10279000A091C101B091C2018A019B0108231923B4
:1027A0002A233B23C901B8011F910F910C946C138C
:1027B0000F931F9341E050E060E070E004C0440FCD
:1027C000551F661F771F8A95D2F78091BF019091A0
:1027D000C001A091C101B091C2018A019B010827EB
:1027E00019272A273B27C901B8011F910F910C9483
:1027F0006C130F931F930091BF011091C0012091A2
:10280000C1013091C201602B712B822B932B1F9140
:102810000F910C946C130F931F930091BF011091B3
:10282000C0012091C1013091C20160237123822334
:1028300093231F910F910C946C130F931F9300918E
:10284000BF011091C0012091C1013091C2016027E8
:102850007127822793271F910F910C946C13089571
:102860002FE0929F800D1124E82FE695E695E695DE
:10287000877051E001C0550F8A95EAF785E0E89F1F
:10288000F0011124E357FE4F20E030E070E040817A
:10289000CB01022E02C0969587950A94E2F78170CB
:1028A000819584278523842781932F5F3F4F25308F
:1028B000310569F708952FE0929F800D1124682F4C
:1028C000669566956695982F977085E0689FB0012C
:1028D000112440E050E080E0FB01E40FF51FE357D6
:1028E000FE4F208130E0092E02C0369527950A94CC
:1028F000E2F721703327042E01C0220F0A94EAF771
:10290000822B4F5F5F4F4530510531F70895BF92DD
:10291000CF92DF92EF92FF920F931F93CF93DF93AB
:102920008C01C090BF01D090C001E090C101F09037
:10293000C2018091C3019091C401A091C501B091E1
:10294000C601C82AD92AEA2AFB2ACFE1D0E0D7015A
:10295000C6010C2E04C0B695A795979587950A9445
:10296000D2F780FD04C0219790F7B12C07C0BC2E90
:10297000B8018C2F0E943D040197A9F38B2DDF91A4
:10298000CF911F910F91FF90EF90DF90CF90BF906C
:102990000895CF93DF93EC010E948714BE010E943B
:1029A0003D04DF91CF9108951F93CF93DF93EB0107
:1029B00090915401992321F0CB010E94C91413C0B6
:1029C000882349F0CB010E948714182F682FCE016D
:1029D0000E94301404C0CB010E945B14182FBE016A
:1029E000812F0E943D04DF91CF911F910895809126
:1029F000C70185958595859508958091C701877054
:102A000008959091C701977081E009F480E00895DE
:102A10008091EB0108959091EB01892B8093EB015C
:102A2000089580959091EB0189238093EB0108959F
:102A30001092EB0108959091EA01892B8093EA01AD
:102A4000089580959091EA0189238093EA01089581
:102A50001092EA0108959091E901892B8093E90190
:102A6000089580959091E90189238093E901089563
:102A70001092E90108958091C801089508950C9479
:102A80003E150C943F159091C801981721F0809342
:102A9000C8010C94411508958091C801882329F03C
:102AA0001092C80180E00C9441150895E091000156
:102AB000F09101018091EB018083E0910001F091A0
:102AC000010190818091EA01892B8083E0910001CE
:102AD000F091010190818091E901892B808380919F
:102AE000C801882381F0E0910001F09101019081FB
:102AF000892B808380910001909101010E947316BF
:102B000081110E944C1580910001909101010C945B
:102B100080090C943E1598E0899F90011124262B82
:102B20002093C7010E9492138091C70185958595D6
:102B300085950C9489151092C70180E00C94891535
:102B40002091C701809582238093C701982F9770A9
:102B500079F430E0482F082E000C550B2417350768
:102B600039F08595859585950E94B3130C949B1536
:102B7000089580E090E00E94CE2321E08C3E9E4F9D
:102B800009F020E0822F089582E090E00C94C623A3
:102B9000682F82E090E00C94D42383E090E00C94C2
:102BA000C623682F83E090E00C94D423CF9384E075
:102BB00090E00E94C623C82F81E290E00E94C623C5
:102BC0002C2F30E0A901582BCA01CF910895CF9343
:102BD000C92F682F84E090E00E94D4236C2F81E2FB
:102BE00090E0CF910C94D42386E090E00C94C6231F
:102BF000682F86E090E00C94D423AB01BC018FE0F9
:102C000090E00C94E623AB01BC0183E190E00C94CE
:102C1000E62360E070E0CB010C94031660E070E006
:102C2000CB010E94FD150C9409166CEE7EEF80E03E
:102C300090E00E94F22360E082E090E00E94D423C2
:102C400060E083E090E00E94D4231092C3011092D0
:102C5000C4011092C5011092C60160E084E090E0CA
:102C60000E94D42360E081E290E00E94D42360E0DF
:102C700085E090E00E94D42360E086E090E00E942E
:102C8000D4236FEF87E090E00E94D42340E050E02F
:102C9000BA0188E090E00E94E62360E08DE090E0D9
:102CA0000E94D42340E050E0BA0188E190E00E9405
:102CB000E62360E087E190E00E94D42340E050E00A
:102CC000BA018CE190E00E94E62360E080E290E0AF
:102CD0000E94D4230C940E160C941516682F8EE0C7
:102CE00090E00C94D423FC01329680911201882349
:102CF00031F08091210287FF02C09EE101C096E081
:102D000080E0915028F021912223D9F38F5FF9CFF1
:102D100008959C01FC0132969FEF80E04191461797
:102D200089F09F3F19F4411101C0982F8F5F8630C1
:102D3000A9F79F3F39F0F901E90FF11D97FDFA95C9
:102D40006283089508959C012A5F3F4FFC014281F0
:102D5000461301C01282019682179307B9F70895AE
:102D6000262F2695269526952E3168F4FC01E20F34
:102D7000F11D677021E030E001C0220F6A95EAF78B
:102D80008281282B22830895262F26952695269525
:102D90002E3170F4FC01E20FF11D677021E030E08C
:102DA00001C0220F6A95EAF72095828128232283A9
:102DB000089520911201222329F02091210227FD5C
:102DC0000C94B0160C94891620911201222329F03C
:102DD0002091210227FD0C94C4160C94A316209177
:102DE0001201FC013296222331F08091210287FFEB
:102DF00002C08EE101C086E0DF011D928A95E9F7ED
:102E0000089508950C9401170C940117CF930E9414
:102E100004170E9462070E940217C0E08C2F0E94D4
:102E20000607892B29F4CF5FC530C1F780E001C0C8
:102E300081E0CF9108950C9401170C941B170E9408
:102E40001D1780912802843061F11092ED0120E479
:102E500088E190E00FB6F894A895809360000FBECB
:102E60002093600080E00E944D0880E00E945B0299
:102E70000E941D1783B7817F846083BF83B7816001
:102E800083BF7894889583B78E7F83BF0FB6F894FD
:102E9000A895809160008861809360001092600026
:102EA0000FBE08950C9401170E94250F0E94B71BB6
:102EB0000E9474090E945B020C9452171F920F9299
:102EC0000FB60F9211248F939F93AF93BF9380916E
:102ED000ED01811113C080911D0290911E02A091FD
:102EE0001F02B09120024196A11DB11D80931D02C9
:102EF00090931E02A0931F02B0932002BF91AF9146
:102F00009F918F910F900FBE0F901F90189582E0A8
:102F100084BD93E095BD9AEF97BD80936E000895B0
:102F20002FB7F89480911D0290911E02A0911F026C
:102F3000B09120022FBF0895CF92DF92EF92FF92BF
:102F40000F931F932FB7F89440911D0250911E02CA
:102F500060911F02709120022FBF6A017B01EE2455
:102F6000FF248C0120E030E0C016D106E206F30613
:102F700010F4415051099A01281B390BC9011F91C6
:102F80000F91FF90EF90DF90CF90089578941F926B
:102F90000F920FB60F9211248F939F93AF93BF930D
:102FA00080911D0290911E02A0911F02B0912002FB
:102FB0000196A11DB11D80931D0290931E02A09346
:102FC0001F02B0932002BF91AF919F918F910F90FC
:102FD0000FBE0F901F90189581E08093E00080E273
:102FE0008093D8001092C9008FE19EE40197F1F719
:102FF00000C0000087E090EBDC01809331029093E9
:103000003202A0933302B09334029CE088E10FB601
:10301000F894A895809360000FBE90936000FFCF56
:10302000AF92BF92CF92DF92EF92FF920F931F93D6
:10303000CF93C0E0CC24C394D12CE82EF12C8C2F5C
:103040000E9406075C0100E010E0C601002E02C0ED
:10305000880F991F0A94E2F78A219B21892B31F46A
:103060000F5F1F4F0F30110581F70AC0602F7C2FB3
:1030700080E00E942204E816F90691F781E004C07E
:10308000CF5FC530E1F680E0CF911F910F91FF90A7
:10309000EF90DF90CF90BF90AF900895CF93C82F5F
:1030A0008CE20E941018882321F08C2FCF910C9471
:1030B000101880E0CF910895CF930E94B915811127
:1030C00002C00E946C16C5E6C15049F00E9462071A
:1030D0008FE39CE90197F1F700C00000F5CF89E28A
:1030E0000E944E18811120C18AE20E944E1881115F
:1030F0000E946C1685E00E944E1881110E94EC1708
:103100000E94C4158093EC0187E00E944E1888232A
:10311000A9F18BE10E944E18882351F08091EC01B7
:1031200081FB222720F991E0922790FB81F90EC0C4
:103130008EE00E944E18882361F08091EC0182FBA2
:10314000222720F991E0922790FB82F98093EC01ED
:1031500015C080E10E944E189091EC01882341F047
:1031600093FB222720F981E0822780FB93F904C09A
:10317000892F809580FB90F99093EC018091EC0170
:103180000E94C8150E94D6159093220280932102B6
:1031900080EE0E944E18882341F080912102982FE2
:1031A000909590FB80F98093210289E30E944E184C
:1031B000882359F08091210281FB222720F991E098
:1031C000922790FB81F98093210282EE0E944E1893
:1031D000882359F08091210282FB222720F991E077
:1031E000922790FB82F98093210286EE0E944E186E
:1031F000882359F08091210283FB222720F991E056
:10320000922790FB83F98093210283EE0E944E184F
:10321000882359F08091210284FB222720F991E034
:10322000922790FB84F98093210285E30E944E1837
:10323000882359F08091210285FB222720F991E013
:10324000922790FB85F98093210281E30E944E181A
:10325000882359F08091210286FB222720F991E0F2
:10326000922790FB86F98093210281E10E944E18FB
:10327000882359F08091210287FB222720F991E0D1
:10328000922790FB87F980932102809121029091EF
:1032900022020E94E71587E20E944E18C82F8EE195
:1032A0000E944E188111C2608FE10E944E18811158
:1032B000C46080E20E944E188111C86081E20E94C1
:1032C0004E188111C06182E20E944E188111C062C5
:1032D00083E20E944E188111C06484E20E944E185D
:1032E000882311F0C06802C0CC2329F08C2F0E94E3
:1032F000D1156C2F03C00E94CD15682F70E080E0BF
:1033000090E00E9432138FE00E944E18882319F03B
:1033100081E00E946E1685E10E944E18882321F0FC
:1033200080E0CF910C946E16CF9108958091F101B9
:1033300080FF0BC06091050185E0689FB0011124FA
:1033400075956795759567952BC081FF09C060914C
:10335000050185E0689FB00111247595679520C02F
:1033600082FF07C06091050185E0689FB0011124CC
:1033700017C09091F0019923D1F060910401961744
:1033800088F72091050185E0289F90011124929FE4
:10339000A001939F500D112470E0CA010E94702378
:1033A0006038710540F46115710519F406C065E0D7
:1033B00070E0862F08958FE7089581E00895809149
:1033C000F10180FF08C06091030170E07595679579
:1033D0007595679521C081FF06C06091030170E07B
:1033E0007595679519C082FF04C06091030170E074
:1033F00010C09091F001992399F060910201961705
:10340000A0F780910301899FC001112470E00E9400
:1034100070236038710540F46115710519F406C018
:1034200061E070E0862F08958FE7089581E00895A8
:10343000803F21F40E949619819504C0813F29F4B0
:103440000E9496198093F5010895823F21F40E940D
:103450009619819504C0833F29F40E9496198093A0
:10346000F4010895893F19F40E94DF1905C08A3FCD
:1034700031F40E94DF1981958093F60108958B3F06
:1034800021F40E94DF19819504C08C3F29F40E9429
:10349000DF198093F7010895843F21F48091F301AF
:1034A000816017C0853F21F48091F301826011C0D3
:1034B000863F21F48091F30184600BC0873F21F4A3
:1034C0008091F301886005C0883F31F48091F30159
:1034D00080618093F30108958D3F21F48091F10183
:1034E00081600BC08E3F21F48091F101826005C0A4
:1034F0008F3F29F48091F10184608093F101089558
:10350000803F39F48091F50187FF6CC01092F5017E
:1035100069C0813F29F48091F5011816BCF362C09F
:103520009091F401823F29F497FF5CC01092F4015E
:1035300059C0833F19F41916CCF354C0893F41F4A4
:103540008091F60118160CF04DC01092F6014AC099
:103550008A3F29F48091F60187FF44C0F6CF8B3F64
:1035600039F48091F70187FF3DC01092F7013AC00E
:103570008C3F29F48091F7011816BCF333C0843FC7
:1035800021F48091F3018E7F17C0853F21F4809153
:10359000F3018D7F11C0863F21F48091F3018B7F71
:1035A0000BC0873F21F48091F301877F05C0883FDE
:1035B00031F48091F3018F7E8093F30113C08D3F2E
:1035C00021F48091F1018E7F0BC08E3F21F4809118
:1035D000F1018D7F05C08F3F29F48091F1018B7F30
:1035E0008093F1018091F40181110EC08091F50169
:1035F00081110AC08091F601811106C08091F70106
:10360000811102C01092F001089582EF91E00E94B2
:103610009A090E9490179093EF018093EE0108950C
:103620001F93CF93DF938091EE019091EF010E9461
:103630009C17AC019091F001992321F02091060193
:1036400030E006C0209107018AE0289F90011124F4
:103650004217530708F47BC08091F401C091F50133
:10366000D091F6011091F701811107C0C1116BC013
:10367000D11169C0111167C06AC09F3F19F09F5FE7
:103680009093F001181624F40E9496198093F40187
:103690008091F40187FF05C00E949619819580935F
:1036A000F4011C1624F40E9496198093F501809170
:1036B000F50187FF05C00E94961981958093F50159
:1036C0003091F4013323E1F02091F5012223C1F080
:1036D00045EB3403C0011124992319F09093F401B0
:1036E00003C081E08093F40135EB2303C001112472
:1036F000992319F09093F50103C081E08093F501BF
:103700001D1624F40E94DF198093F6018091F601C2
:1037100087FF05C00E94DF1981958093F60111167D
:1037200024F40E94DF198093F7018091F70187FF4D
:1037300005C00E94DF1981958093F701DF91CF9139
:103740001F910C94051B9F3F09F099CFAACFDF91E1
:10375000CF911F910895E2EFF1E086E0DF011D9225
:103760008A95E9F71092F0011092F10108950E94F4
:10377000B915811102C00E946C160E94F415809345
:103780002302282F26952695269530E026303105F0
:1037900024F087708862809323028091230280FF47
:1037A00004C086958695869501C080E00C944D08EE
:1037B00020912302822F869586958695482F50E08A
:1037C0004530510554F48F5F982F990F990F990F39
:1037D000822F8770892B809323028091230281603E
:1037E000809323020E94F815809123028695869586
:1037F00086950C944D0880912302982F9695969566
:103800009695A1F0915E990F990F990F8770892B6A
:1038100080932302887F91E009F490E08091230255
:1038200090FB80F9809323020E94F8158091230277
:103830008695869586950C944D088091230280FD8F
:1038400013C0816080932302813019F489E0809352
:103850002302809123020E94F8158091230286950D
:10386000869586950C944D0808958091230280FFDB
:1038700008C08E7F809323020E94F81580E00C948C
:103880004D0808958091230280FD0C94351C0C9402
:103890001D1C90912302892F8695869586958F5FB2
:1038A0008F719770863038F4880F880F880F892BB6
:1038B0008093230202C09093230280912302887F89
:1038C00091E009F490E08091230290FB80F98093CD
:1038D00023020E94F815809123028695869586958D
:1038E0000C944D08863008F085E0880F880F880F0B
:1038F000909123029770892B80932302887F91E017
:1039000009F490E08091230290FB80F980932302D8
:103910000E94F815809123028695869586950C94D1
:103920004D088091180208950895CF93DF93EC011C
:103930000E94911E823011F08430F9F482E080936D
:10394000E9008FEF9091E800815095FD06C095ED5C
:103950009A95F1F700008111F5CF8091E80085FF7D
:103960000CC040E050E066E070E0CE010E94AE1E68
:103970008091E8008E778093E800DF91CF910895E1
:10398000CF93DF93EC010E94911E823011F08430BE
:10399000D9F580911201882339F08091210287FFA7
:1039A00003C060E282E002C068E081E08093E90049
:1039B0008FEF9091E800815095FD06C095ED9A95A6
:1039C000F1F700008111F5CF8091E80085FF1CC060
:1039D00080911201811105C040E050E068E070E084
:1039E00003C070E040E050E0CE010E94AE1E809126
:1039F000E8008E778093E80080E2FE01A8EFB1E056
:103A000001900D928A95E1F7DF91CF910895089585
:103A100080912702811109C00E943F200E949C20B2
:103A20008091E20084608093E20008951092270262
:103A30000895089508950C94541742E061EC81E0D4
:103A40000E94B81F42E261EC82E00C94B81F8091A2
:103A50002A02833009F460C030F4813071F0823082
:103A600009F499C008958A3009F485C08B3009F4AF
:103A70006BC0893009F0A7C020C080912902813A2B
:103A800009F0A1C08091E800877F8093E8008091D1
:103A90002D0290912E02892B21F460E288EF91E0B3
:103AA00003C060E080E090E070E00E94F91E809129
:103AB000E8008B778093E800089580912902813295
:103AC00009F081C080912D0290912E02029708F09A
:103AD0007AC08091E800877F8093E8008091E800B9
:103AE00082FD05C0809128028111F8CF6CC0209121
:103AF000F3008091F20090E0922B029729F48091DC
:103B0000F1008B7F813021F48091F10080931802C5
:103B10008091E8008B7753C080912902813A09F0A7
:103B200052C080912D0290912E02892B09F04BC03A
:103B30008091E800877F8093E8008091E80080FF13
:103B4000FCCF8091120136C0809129028132D9F5D3
:103B500080912D0290912E02892BA9F58091E80089
:103B6000877F8093E8000E94ED1F80912B02809355
:103B700012010C94250F80912902813221F5809148
:103B8000E800877F8093E8000E94ED1F80912C025F
:103B900080931902089580912902813AA1F48091BD
:103BA000E800877F8093E8008091E80080FFFCCFE9
:103BB000809119028093F1008091E8008E778093C4
:103BC000E8000C94ED1F089584B7877F84BF0FB67B
:103BD000F894A895809160008861809360001092AD
:103BE00060000FBE80E880936100109261000E9427
:103BF000E4090E943F200E949C208091E2008460A2
:103C00008093E20078940E9431230E94EC0988E0BE
:103C100091E00E946F0980912802853069F40E942A
:103C20001F17809126028823B1F30E94061788236C
:103C300091F30E94981EEFCF0E94F609ECCF0C94EE
:103C4000211E292F332723303105C9F060F421309C
:103C5000310581F02230310509F04AC08BE390E054
:103C600020E532E049C02132310511F1223231051F
:103C700079F13EC082E190E02BE832E03DC0992727
:103C80008130910561F040F08230910559F0039741
:103C900079F5E8E2F2E008C0ECE4F2E005C0EAE31E
:103CA000F2E002C0EEE2F2E0849190E09F0124C0D5
:103CB0006115710541F061307105D1F489E090E042
:103CC0002BE732E019C089E090E022E632E014C030
:103CD0006115710541F06130710551F48AE890E099
:103CE0002DE932E009C080E490E027E233E004C02F
:103CF00080E090E020E030E0FA01318320830895F5
:103D00000895CF93C82F0E94801EC0931A02CF91AE
:103D1000089580912802843011F081E0089582E0B6
:103D2000089580911A02811102C00C94891E089591
:103D300080E189BD82E189BD09B400FEFDCF80919B
:103D4000D8008F7D8093D8008091E00082608093BE
:103D5000E0008091E00081FDFCCF0895CF92DF92DA
:103D6000EF92FF920F931F93CF93DF93EC018B01A0
:103D70007A010E940C20811133C0E114F10439F062
:103D8000F70180819181081B190BC80FD91FC12C25
:103D9000D12C0115110519F18091E80085FD16C09F
:103DA0008091E8008E778093E800E114F10449F0F7
:103DB000F70180819181C80ED91ED182C08285E031
:103DC0000FC00E940C20882321F30AC089918093A0
:103DD000F10001501109FFEFCF1ADF0ADACF80E0BE
:103DE000DF91CF911F910F91FF90EF90DF90CF90D7
:103DF000089520912F02309130022617370748F09E
:103E00006115710539F42091E8002E772093E800C0
:103E100001C0B901FC0120E06115710579F18091C3
:103E200028028823F1F18530F1F18091E80083FDCB
:103E30003CC08091E80082FD2EC08091E80080FFA8
:103E4000EBCF2091F3008091F20090E0922B61156E
:103E5000710551F08830910538F421912093F100DB
:103E6000615071090196F3CF21E0089709F020E035
:103E70008091E8008E778093E800CECF2111CFCFDC
:103E80000AC080912802882361F0853061F080911A
:103E9000E80083FD0AC08091E80082FFF2CF80E055
:103EA000089582E0089583E0089581E008952091C7
:103EB0002F02309130022617370748F0611571053F
:103EC00039F42091E8002E772093E80001C0B90171
:103ED000FC0120E06115710591F180912802882391
:103EE00009F440C0853009F43FC08091E80083FDAB
:103EF0003DC08091E80082FD2FC08091E80080FFE6
:103F0000E9CF2091F3008091F20090E0922B6115AF
:103F1000710559F08830910540F424912093F10007
:103F20003196615071090196F2CF21E0089709F0AE
:103F300020E08091E8008E778093E800CBCF2111BC
:103F4000CCCF0AC080912802882361F0853061F0CF
:103F50008091E80083FD0AC08091E80082FFF2CFE3
:103F600080E0089582E0089583E0089581E0089557
:103F7000982F973068F59093E900981739F0709171
:103F8000EC002091ED005091F00003C0242F762F1B
:103F900050E021FD02C09F5FECCF3091EB003E7FEF
:103FA0003093EB003091ED003D7F3093ED00309188
:103FB000EB0031603093EB007093EC002093ED0048
:103FC0005093F0002091EE0027FDE5CF80E00895AA
:103FD0008F708093E90081E008958091290287FF26
:103FE00011C08091E80082FD05C0809128028111F6
:103FF000F8CF11C08091E8008B770BC08091280228
:10400000882349F08091E80080FFF8CF8091E80094
:104010008E778093E80008952091E4003091E500C8
:1040200095E64091EC00842F817040FF23C0809181
:10403000E80080FD1DC080912802882399F085301A
:1040400099F08091EB0085FD11C04091E400509102
:10405000E5002417350729F3915011F09A01E1CFBB
:1040600084E0089582E0089583E0089581E0089552
:1040700080E008954091E80042FFDDCF08950E945E
:10408000AD200E94B520E0EEF0E080818160808369
:10409000E8EDF0E080818F77808319BCA7EDB0E078
:1040A0008C918E7F8C9380818F7E808310922702EB
:1040B00008950F931F93CF93DF930E94AD200E942A
:1040C000B520C8EDD0E088818F77888388818068AB
:1040D000888388818F7D888319BC10922802109272
:1040E0002402109226021092250200EE10E0F80140
:1040F00080818B7F808388818160888342E060E05B
:1041000080E00E94B81FE1EEF0E080818E7F808326
:10411000E2EEF0E08081816080838081886080832E
:10412000F80180818E7F8083888180618883DF9120
:10413000CF911F910F910895E8EDF0E080818F7E7F
:104140008083E7EDF0E080818160808384E082BF3E
:1041500081E0809327020C945920E8EDF0E0808103
:104160008E7F80831092E20008951092DA00109200
:10417000E10008951F920F920FB60F9211242F9312
:104180003F934F935F936F937F938F939F93AF93DF
:10419000BF93EF93FF938091E10082FF0BC080916A
:1041A000E20082FF07C08091E1008B7F8093E100F5
:1041B0000E9430238091DA0080FF1FC08091D800D8
:1041C00080FF1BC08091DA008E7F8093DA0080919F
:1041D000D90080FF0DC080E189BD82E189BD09B4AD
:1041E00000FEFDCF81E0809328020E94081D05C0DB
:1041F00019BC109228020E94161D8091E10080FFD8
:1042000019C08091E20080FF15C08091E2008E7F8E
:104210008093E2008091E20080618093E2008091CF
:10422000D80080628093D80019BC85E08093280272
:104230000E941A1D8091E10084FF30C08091E2004D
:1042400084FF2CC080E189BD82E189BD09B400FEF4
:10425000FDCF8091D8008F7D8093D8008091E100C0
:104260008F7E8093E1008091E2008F7E8093E20058
:104270008091E20081608093E20080912402882393
:1042800011F084E007C08091E30087FD02C081E067
:1042900001C083E0809328020E941B1D8091E100F1
:1042A00083FF29C08091E20083FF25C08091E10057
:1042B000877F8093E10082E080932802109224029D
:1042C0008091E1008E7F8093E1008091E2008E7FFB
:1042D0008093E2008091E20080618093E20042E0FE
:1042E00060E080E00E94B81F8091F00088608093B9
:1042F000F0000E94191DFF91EF91BF91AF919F9126
:104300008F917F916F915F914F913F912F910F907E
:104310000FBE0F901F9018951F920F920FB60F921D
:1043200011242F933F934F935F936F937F938F93BA
:104330009F93AF93BF93CF93DF93EF93FF93C0917E
:10434000E900CF708091EC00D82FD17080FDD0E8CB
:104350001092E9008091F000877F8093F0007894BC
:104360000E94D0211092E9008091F0008860809333
:10437000F000CD2BCF70C093E900FF91EF91DF915A
:10438000CF91BF91AF919F918F917F916F915F91ED
:104390004F913F912F910F900FBE0F901F90189546
:1043A0001F93CF93DF93CDB7DEB7AA970FB6F894DC
:1043B000DEBF0FBECDBFE9E2F2E08091F100819354
:1043C00022E0E133F207C9F70E94271D8091E8003F
:1043D00083FF2EC18091290290912A02492F50E03B
:1043E0004A30510508F024C1FA01EC58FF4F0C94F3
:1043F000A623803821F0823809F01AC108C08091C4
:10440000250290912602992389F082600FC0809145
:104410002D028F70873008F00BC18093E9008091E6
:10442000EB0085FB882780F91092E9009091E80065
:10443000977F9093E8008093F1001092F100D1C033
:10444000282F2D7F09F0F4C0882319F0823061F005
:10445000EFC080912B02813009F0EAC0933009F05F
:1044600080E0809326022EC080912B0281112AC009
:1044700080912D028F702FEF280F263008F0D8C0C2
:104480008093E9002091EB0020FF1CC0933021F4C1
:104490008091EB00806214C09091EB00906190934A
:1044A000EB0021E030E0A90102C0440F551F8A95BE
:1044B000E2F74093EA001092EA008091EB008860F6
:1044C0008093EB001092E9008091E800877F809351
:1044D000E8000E94ED1FACC08111AAC010912B0210
:1044E0001F778091E3008078812B8093E300809197
:1044F000E800877F8093E8000E94ED1F8091E8002C
:1045000080FFFCCF8091E30080688093E30011116D
:1045100002C082E001C083E08093280289C08058F5
:10452000823008F085C080912B0290912C028C3D46
:1045300053E0950779F583E08A838AE289834FB750
:10454000F894DE01139620E03EE051E2E32FF0E024
:1045500050935700E49120FF03C0E295EF703F5F56
:10456000EF708E2F90E0EA3010F0C79601C0C09631
:104570008D939D932F5F243149F74FBF8091E800C1
:10458000877F8093E8006AE270E0CE0101960E9486
:10459000F91E16C060912D0270912E02AE014F5F80
:1045A0005F4F0E941F1EBC01892B09F441C09091EE
:1045B000E800977F9093E80089819A810E94571FB5
:1045C0008091E8008B778093E80032C0803881F5D5
:1045D0008091E800877F8093E80080912402809397
:1045E000F1008091E8008E7772CF811121C0809117
:1045F0002B0290912C0299270297D4F48091E80025
:10460000877F8093E80080912B02809324020E9490
:10461000ED1F80912402811106C08091E30087FD87
:1046200002C081E001C084E0809328020E941D1D29
:104630008091E80083FF0AC08091E800877F809323
:10464000E8008091EB0080628093EB00AA960FB6A1
:10465000F894DEBF0FBECDBFDF91CF911F910895BB
:104660000895CF93809128028823A1F0C091E9009A
:10467000CF709091EC00892F817090FD80E8C82B5D
:104680001092E9008091E80083FD0E94D021CF7054
:10469000C093E900CF910895DB018F939F930E940F
:1046A000BB23BF91AF91A29F800D911DA39F900D41
:1046B000B29F900D11240895AA1BBB1B51E107C0A6
:1046C000AA1FBB1FA617B70710F0A61BB70B881FA2
:1046D000991F5A95A9F780959095BC01CD01089531
:1046E00097FB072E16F4009407D077FD09D00E949F
:1046F0005C2307FC05D03EF4909581959F4F08956B
:10470000709561957F4F0895A1E21A2EAA1BBB1BDD
:10471000FD010DC0AA1FBB1FEE1FFF1FA217B3078D
:10472000E407F50720F0A21BB30BE40BF50B661FA3
:10473000771F881F991F1A9469F760957095809567
:1047400090959B01AC01BD01CF010895EE0FFF1FB5
:104750000590F491E02D0994A29FB001B39FC00190
:10476000A39F700D811D1124911DB29F700D811D9D
:104770001124911D08950E94AC23A59F900DB49F14
:10478000900DA49F800D911D11240895F999FECFDD
:1047900092BD81BDF89A992780B50895A8E1B0E04F
:1047A00042E050E00C94FA23262FF999FECF92BDF7
:1047B00081BDF89A019700B4021639F01FBA20BDE6
:1047C0000FB6F894FA9AF99A0FBE08950396272F18
:1047D0000E94D5230E94D423252F0E94D523242F65
:1047E0000C94D5230196272F0E94D5230C94D42313
:1047F000DC01CB01FC01F999FECF06C0F2BDE1BDA1
:10480000F89A319600B40D9241505040B8F708958F
:04481000F894FFCF4A
:10481400C9012808140A321E911CC01C951C071DCE
:10482400941C01F0F1C6676637943130353497969D
:0848340033F49091929395007A
:00000001FF
