:100000000C948A010C94D1010C94D1010C94D1016F
:100010000C94D1010C94D1010C94D1010C94D10118
:100020000C94D1010C94D1010C94A7190C94E318F1
:100030000C94260D0C94D1010C94D1010C94D10197
:100040000C94D1010C94D1010C94D1010C94D101E8
:100050000C94D1010C94CA0C0C94D1010C94D101D4
:100060000C94D1010C94D1010C94D1010C94D101C8
:100070000C94D1010C94D1010C94D1010C94D101B8
:100080000C94D1010C94D1010C94D1010C94D101A8
:100090000C94D1010C94D1010C94D1010C94D10198
:1000A0000C94D1010C94D1010C94D10124082408A2
:1000B0005F085F089B0A9B0A9B0A9B0A8F087309CB
:1000C000850985099B0AFC09F2161917BB1819172F
:1000D000BB1861178417BB187F189218981A981AC2
:1000E000AB1AAB1AA11AAB1AAB1AAB1A981A981A18
:1000F000A61AAB1AAB1AA61A165C1E001F00200027
:1001000021002200230024002500260027002D00C6
:100110002E004C002A002B00000014001A000800DA
:10012000150017001C0018000C00120013002F000F
:1001300030003100390000000400160007000900FB
:100140000A000B000D000E000F00330034002800E1
:100150000000E10000001D001B0006001900050062
:100160001100100036003700380000005200015125
:10017000E000E3000000E200000000002C000000AE
:100180000000000000005000000051004F0001007E
:100190003A003B003C003D003E003F004000410073
:1001A000420043004400450001000100010000003E
:1001B000000000000000000000000000000000003F
:1001C0000000000000000000000001000000C25C10
:1001D000C55CC65CC75CC85CC95CCA5C000000004A
:1001E000000000000100000001000000BF5CBE5CD8
:1001F000BD5CC15C000000000000000000000000C9
:1002000000000100010001000100000001000000E9
:1002100000000000000000000000000001000000DD
:100220000100010005010906A1018505050719E086
:1002300029E71500250195087501810205071900B8
:1002400029EF1500250195F07501810205081901B6
:100250002905950575019102950175039101C00568
:10026000010906A101050719E029E71500250195F7
:10027000087501810295017508810105071900299A
:10028000FF150026FF009506750881000508190175
:100290002905950575019102950175039101C00924
:1002A000023B00020100A0FA090400000103010161
:1002B0000009211101000122400007058103080007
:1002C0000A090401000103000000092111010001D5
:1002D000223B000705820320000A120110010000E2
:1002E0000008EDFE6022010001020301040330005A
:1002F00000000A0344005A003600300000001003DA
:100300004B0042004400460061006E007300000094
:100310000403090411241FBECFEFDAE0DEBFCDBF16
:1003200004B603FE27C080911A0290911B02A0918F
:100330001C02B0911D028730904BA740B04BD1F406
:1003400010921A0210921B0210921C0210921D02AF
:1003500014BE84B7877F84BF0FB6F894A8958091A8
:100360006000886180936000109260000FBEE0E042
:10037000F8E3099511E0A0E0B1E0E4EEF9E302C092
:1003800005900D92A032B107D9F722E0A0E2B1E0CA
:1003900001C01D92AA31B207E1F70E94F1120C943C
:1003A000F01C0C9400009091CF0192FF0DC0282FFB
:1003B0002871283019F4877F846006C0282F2471A3
:1003C000243011F48B7F886093FF0DC0282F287193
:1003D000283119F4877E846106C0282F24712431C6
:1003E00011F48B7E88612091D00120FF0DC0382F41
:1003F0003871383019F4877F816006C0382F317129
:10040000313011F48E7F886021FF0DC0282F2871B4
:10041000283119F4877E816106C0282F217121318E
:1004200011F48E7E886194FD877E08950F931F934B
:10043000CF93DF93C62FD42F122FFC018281882304
:10044000C9F0609329010E941A0D909324018093B2
:10045000230180E28C0F883008F05EC0C77081E015
:1004600001C0880FCA95EAF7DF91CF911F910F91D4
:100470000C94D11A8091290168133EC08091230108
:10048000909124010E94F00C883C9105A8F500E2AF
:100490000D0FCD17B9F080E28C0F883040F4C77093
:1004A00081E001C0880FCA95EAF70E94C61A083099
:1004B00048F481E09D2F977001C0880F9A95EAF764
:1004C0000E94D11A812F0E94371B193349F4FFEF84
:1004D00027EE83E0F15020408040E1F700C00000AB
:1004E000812F0E94DB1A0830B8F4D77081E001C078
:1004F000880FDA95EAF70AC080E28C0F883060F442
:10050000C77081E001C0880FCA95EAF7DF91CF91EB
:100510001F910F910C94C61ADF91CF911F910F91EB
:1005200008951F93CF93DF93CDB7DEB767970FB6CC
:10053000F894DEBF0FBECDBF4B8B5C8B6D8B7E8B7B
:100540008F8B86E09E01235F3F4FD901E82F1D92DC
:10055000EA95E9F795E0FE017396D90101900D92B5
:100560009A95E1F7F901DE01179601900D928A95AF
:10057000E1F7CE0107960E94EA0F81113EC086E0A6
:10058000FE013796DE01119601900D928A95E1F7F2
:10059000FF81E8856A857B856115710531F0EF3F44
:1005A00031F481E0FF3F19F403C081E001C080E035
:1005B00080FD23C02091510130E0C9010196877070
:1005C00099274091820150E08417950779F1F983CA
:1005D000EA837D836C8396E0929FD001939FB00D58
:1005E0001124AE5ABE4FFE01319601900D929A959C
:1005F000E1F7809351010E94780F16E0809182010B
:1006000090915101891709F1189FC00111248E5A48
:100610009E4F0E94EA0F8823C1F08091820190E0F2
:1006200001968770992780938201E8CF1092EB01A1
:100630000E94AF1A1092510110928201EBE4F1E096
:1006400086E0DF011D928A95E9F767960FB6F89468
:10065000DEBF0FBECDBFDF91CF911F9108952091D6
:100660002701309128012817390771F0909328014C
:1006700080932701E091D101F091D201309721F0D0
:100680000084F185E02D0994089520912501309191
:1006900026012817390771F09093260180932501D0
:1006A000E091D101F091D201309721F00680F781DD
:1006B000E02D09940895E091D101F091D201309795
:1006C00021F00190F081E02D099480E00895CF920F
:1006D000DF92EF92FF92863030F4811105C0909145
:1006E00080009F7D04C085E090918000906290938F
:1006F0008000282F30E0AFEFBFEF0E94D61C25E02E
:1007000030E040E050E00E94AE1CC9012C3764E1AB
:10071000360728F469E070E00E949A1C29C0DA01CB
:10072000C9018A50974DAF4FBF4F6627782F892F49
:100730009A2F25EF38E241E050E00E94AE1C69019B
:100740007A01CA01B9010E948A1C9B01AC01C70150
:10075000B6010E948A1CBB27A92F982F872F0097CC
:1007600021E0A207B10511F0BC0102C06FEF7FEFDD
:1007700070938B0060938A00FF90EF90DF90CF9092
:1007800008955F926F927F928F929F92AF92BF92E5
:10079000CF92DF92EF92FF920F931F93CF93DF934D
:1007A0006BE071E0A5ECB1E0612C01E010E05D01CF
:1007B0008D909C90119711961C921E92EB0189913D
:1007C000BE01E82FE295EF70F0E021A18F70A80143
:1007D00002C0440F551F8A95E2F7CA01242B21A3BA
:1007E00022A1542E5094252122A350EA5A95F1F7C4
:1007F00090E1E92E91E0F92E40E050E0E701799098
:100800007E01272D22952F7030E0E90128A1CD909F
:10081000DC90119730E0D72DDF7002C03595279519
:10082000DA95E2F720FD08C09801042E02C0220FDD
:10083000331F0A94E2F702C020E030E0C22AD32A34
:100840001196DC92CE924F5F5F4F4F305105B1F65B
:1008500091A1D52DD923D1A392A1892B82A3129640
:1008600081E0F501208131812815390509F480E006
:10087000682AF1E0AF3CBF0709F099CF662049F044
:1008800081E0809322010E941A0D909321018093B0
:10089000200180912201882391F180912001909183
:1008A00021010E94F00C039750F18091C5019091B5
:1008B000C6019093D5018093D4018091C701909196
:1008C000C8019093D7018093D6018091C90190917E
:1008D000CA019093D9018093D8018091CB01909166
:1008E000CC019093DB018093DA018091CD0190914E
:1008F000CE019093DD018093DC0110922201862DC0
:10090000DF91CF911F910F91FF90EF90DF90CF90EB
:10091000BF90AF909F908F907F906F905F90089561
:10092000CF93DF932BE4829FC0011124FC013FE0B1
:10093000739FE00DF11D1124E60FF11DEE0FFF1F57
:10094000E850FF4FC591D491CE01C238D10569F16D
:10095000B0F4C133D10509F475C048F4C932D105EA
:1009600009F469C0CA32D10509F473C079C0C5332E
:10097000D10509F459C0C933D105B9F071C0C33EDE
:10098000D10571F138F4C03ED105B1F0C23ED105B8
:1009900011F166C0C63ED105B9F1C73ED105C9F116
:1009A000C43ED10509F05CC024C02091CF0120FDD8
:1009B00057C221FD55C259C22091CF0120FD4AC224
:1009C0002091D00120FF51C28091CF0184FDF4C15C
:1009D00083EE90E04AC22091CF0122FF46C2F4CFBD
:1009E0008091CF0182FD39C28091D00180FD38C253
:1009F000EBCF2091D00121FF38C28091CF0184FD3F
:100A0000DBC187EE90E031C22091CF0123FF2DC2E0
:100A1000F4CF8091CF0183FD26C28091D00181FF68
:100A2000ECCF84EE90E021C22091CF0125FF1DC2C2
:100A300089E290E01AC22091CF0125FF16C285E31A
:100A400090E013C22091CF0126FF0FC28AE290E00E
:100A50000CC22091CF0126FF08C281E390E005C2BD
:100A6000C11541E5D40708F047C0C11550E5D507C9
:100A700008F03AC1C83ED10520F5C03ED10508F0C6
:100A8000F4C1C83AD10570F4C53AD10508F0ACC03C
:100A9000C130D10509F4E9C108F48EC1249708F4E6
:100AA0008BC1E3C1CF3BD10508F4A9C0C03CD1053F
:100AB00008F482C1CE01880F991FFC01E858F0406C
:100AC00004C1C11520E3D20788F4C11530E2D30771
:100AD00008F0F4C0C03FD10508F46EC1CF3FD10586
:100AE00011F008F0C2C1CE019065BFC1C11540E44C
:100AF000D40708F4EDC0F4C0C11559E5D50758F581
:100B0000C11588E5D80708F043C1C11524E5D2070F
:100B100078F4C11533E5D30708F01EC1C11542E5CD
:100B2000D40708F002C19C2F8827816F906A9DC16D
:100B3000C11555E5D50708F426C1C11586E5D807C6
:100B400008F03AC18C2F0E94D3018F7190E0982F4A
:100B5000882790628AC1CD3B2CE5D20709F423C1D6
:100B6000F8F4CB3B4CE5D40709F417C108F018C1E1
:100B7000C1158AE5D80708F01FC18C2F8F700E941D
:100B8000D301FE0194E0F695E7959A95E1F7EF70B1
:100B9000F0E0FE2FEE27F0699F01282BC90165C107
:100BA000C03C2CE5D20709F404C160F4CE3B4CE50F
:100BB000D40709F4FBC0CF3BDC4509F0FDC080E061
:100BC00092ED53C1CE0190568115904208F0F4C0C9
:100BD0008D2F8F710E94D301FE01FF27F0628F716C
:100BE000AF01582BCA0141C1C53AD10509F4E7C08C
:100BF000C63AD10509F0E6C082E890E436C1C83AA9
:100C0000D10509F4E2C0C93AD10509F4E1C0CA3AF4
:100C1000D10509F4E0C0CB3AD10509F4DFC0CC3AE4
:100C2000D10509F4DEC0CB3BD10509F4DDC0CC3BD6
:100C3000D10509F4DCC0CD3AD10509F4DBC0C03BD5
:100C4000D10509F4DAC0CE3AD10509F4D9C0CF3ABA
:100C5000D10509F4D8C0C13BD10509F4D7C0C23BC6
:100C6000D10509F4D6C0C33BD10509F4D5C0C43BB6
:100C7000D10509F4D4C0C53BD10509F4D3C0C63BA6
:100C8000D10509F4D2C0C73BD10509F4D1C0C83B96
:100C9000D10509F4D0C0C93BD10509F4CFC0CD3B83
:100CA000D10509F4CEC0CE3BD10509F4CDC0CA3B75
:100CB000D10509F4CCC080E094E4D7C0CE019F7088
:100CC000FC01EE0FFF1FE850FF4F85919491CDC0BE
:100CD000CE019927D3FF02C0986CC7C0906CC5C0E5
:100CE000CE019F70906AC1C0CE0174E09695879541
:100CF0007A95E1F7282F23703C2F337081E090E044
:100D000002C0880F991F3A95E2F79C68AC01522BFC
:100D10009A018C2F8F70E82FE695E69550E2E59FBB
:100D2000C0011124822B932BA0C09E012370332776
:100D300081E090E0AC0102C0440F551F2A95E2F714
:100D40009A01EC2FE695E69550E2E59FC00111244B
:100D5000822B932B9C6889C09E012370332781E0EE
:100D600090E0AC0102C0440F551F2A95E2F79A01AA
:100D7000EC2FE695E69550E2E59FC0011124822B09
:100D8000932B9A6872C09C2F8827846F906A6DC0DD
:100D90009C2F8827806F906A68C080E094ED65C0C2
:100DA00080E095ED62C080E091ED5FC080E090ED65
:100DB0005CC080E093ED59C080E090E056C081E8CF
:100DC00090E453C083E890E450C082EE94E44DC0B8
:100DD00089EE94E44AC08AEE94E447C085EB94E43B
:100DE00044C086EB94E441C083EB94E43EC084EBC2
:100DF00094E43BC087EB94E438C08CEC94E435C0B9
:100E00008DEC94E432C083E895E42FC08AE895E441
:100E10002CC082E995E429C084E995E426C081E2EA
:100E200096E423C083E296E420C084E296E41DC0E9
:100E300085E296E41AC086E296E417C087E296E45B
:100E400014C08FE694E411C080E794E40EC08AE2F7
:100E500096E40BC089E390E008C082EE90E005C004
:100E600080EE90E002C086EE90E0DF91CF91089591
:100E700081FF02C02A9808952A9A0895CF92DF929E
:100E8000EF92FF920F931F93CF93DF9300D000D088
:100E90001F92CDB7DEB7FC010081D18083819481A0
:100EA000892B39F01FEFD11206C091E00F3F19F4E2
:100EB00003C091E001C090E090FDF4C47F0185E0A3
:100EC000DE01119601900D928A95E1F7F7012281DA
:100ED00089819A81222349F00E94720E182F682F6F
:100EE00089819A810E94EB0E03C00E94BF0E182FC9
:100EF0002BE4129FF00111243FE0D39EE00DF11D81
:100F00001124E00FF11DEE0FFF1FE850FF4F059178
:100F10001491033F4CE5140789F180F4083D8CE5FA
:100F20001807C9F0093D9CE51907A1F1073DECE55B
:100F30001E0799F526E241EE61EE10C0053FFCE583
:100F40001F0721F1F8F0063F3CE5130731F527E2D2
:100F500045EE66EE03C027E245EE65EEC7010F9051
:100F60000F900F900F900F90DF91CF911F910F91E5
:100F7000FF90EF90DF90CF900C94160226E241EEA6
:100F800060EEECCF27E245EE64EEE8CF26E241EEDC
:100F900062EEE4CF28E241E0E0CFF70182818823CE
:100FA00009F4DFC2109229010631FCE51F0709F49C
:100FB0004DC458F401303CE5130709F4FBC208F0B6
:100FC00018C301151C45B1F4E6C20E3D8CE51807A7
:100FD00009F4F9C248F40C3DECE51E0709F402C31C
:100FE0000D3D1C4539F401C3C8018A5F9C45099732
:100FF00008F4FFC2F70100811181C8010E94720E3E
:10100000D82E682FC8010E94EB0EB8018D2D0E94CA
:101010009004182F892FC12EF7013581932F9295B7
:101020009F70228121111092BA01D82ED2944FE0E4
:10103000D4224D2D50E04E30510508F07CC2FA010B
:10104000EA5AFF4F0C94D01C982F907F8F70082F76
:10105000992311F00295007F2223B9F0002309F4AF
:10106000B6C180E2810F883010F0C11006C08091B7
:10107000EB01082B0093EB0105C08091BA01082B0E
:101080000093BA010E944E0EA2C1812F0E94DB1A6A
:10109000002309F450C2105E0095183010F0C11002
:1010A00006C08091EB0108230093EB0105C08091FD
:1010B000BA0108230093BA010E944E0E3CC2482F89
:1010C000407F8F70403211F08295807FF1E0CF1227
:1010D0000AC0222321F0963008F02DC20DC09530B1
:1010E00008F029C219C0222351F0992329F030FFBA
:1010F0006EC13F70F70135830E94D11A1CC299233B
:1011000059F0193309F074C1FFEF07EE23E0F150F5
:1011100000402040E1F76AC10E94C61A0CC2982F15
:10112000937009F06CC021110BC2912F9295969586
:101130009770990F990F212F2F70C22ED12CE12C6F
:10114000F12C092E04C0CC0CDD1CEE1CFF1C0A94F3
:10115000D2F714FF12C00FE010E020E030E004C02E
:10116000000F111F221F331F9A95D2F7B901A80152
:10117000409550956095709503C040E050E0BA01ED
:10118000869586958370823029F1D8F40091BB0151
:101190001091BC012091BD013091BE01813069F0F8
:1011A000D701C601842B952BA62BB72BBC01CD01F3
:1011B00060237123822393230AC0C02AD12AE22A02
:1011C000F32ACB01BA016C297D298E299F290E941F
:1011D0006A0FB6C1D701C601842B952BA62BB72B5E
:1011E0000091BB011091BC012091BD013091BE0165
:1011F000BC01CD016027712782279327E8CF2223E6
:1012000019F0982F917001C09695992309F498C10F
:10121000912F929596959770990F990F212F2F7076
:10122000C22ED12CE12CF12C092E04C0CC0CDD1CDB
:10123000EE1CFF1C0A94D2F714FF12C00FE010E05E
:1012400020E030E004C0000F111F221F331F9A95C9
:10125000D2F7B901A801409550956095709503C0EB
:1012600040E050E0BA018695869583708230E9F0BF
:1012700088F50091B5011091B6012091B701309128
:10128000B801813069F0D701C601842B952BA62BBC
:10129000B72BBC01CD01602371238223932320C08F
:1012A000C02AD12AE22AF32A15C0D701C601842B0D
:1012B000952BA62BB72B0091B5011091B60120916B
:1012C000B7013091B801BC01CD0160277127822799
:1012D000932706C0CB01BA016C297D298E299F294D
:1012E0000E94160F2DC1082F0F70222339F0802F76
:1012F0000E94490F812F0E94D11A22C1812F0E9482
:10130000C61A802F0E94240F1BC1312F41EFC41633
:10131000B1F14C1520F050EFC51641F054C0E2EF8A
:10132000CE1699F1F3EFCF16B1F14DC0222319F18A
:10133000953008F000C1282F2F7181E090E0A0E0E7
:10134000B0E0AC01BD0104C0440F551F661F771FFC
:101350002A95D2F78091B5019091B601A091B7017D
:10136000B091B8018A019B01082719272A273B273A
:10137000C901B80125C0963008F0DDC0DCCF2223BA
:1013800031F08F710E94490FD6C02223D1F38F71A3
:101390000E94240FD0C0222381F0282F2F7181E0DA
:1013A00090E0A0E0B0E0BC01CD0104C0660F771F63
:1013B000881F991F2A95D2F703C060E070E0CB0127
:1013C0000E94160FB8C0222331F09923D1F2812F49
:1013D0000E94371BB0C09923D1F2393349F42FEF63
:1013E00037EE43E0215030404040E1F700C00000BC
:1013F000812F0E94DB1A9FC0211154C28F7082304E
:10140000D1F128F4882369F0813021F194C084302F
:1014100009F481C008F447C0853009F08CC080E031
:101420007BC02091C301822F869586958695482F93
:1014300050E04530510554F48F5F982F990F990F64
:10144000990F822F8770892B8093C3016091C3010C
:10145000616047C08091C301982F969596959695A7
:1014600009F445C0915E990F990F990F8770892BE8
:101470008093C3012EC06091C30160FF09C06E7FDD
:101480006093C30186E090E00E94561C80E034C067
:1014900061606093C301613019F489E08093C301F6
:1014A0006091C30120C09091C301892F86958695D4
:1014B00086958F5F8F719770863038F4880F880F0C
:1014C000880F892B8093C30102C09093C301809140
:1014D000C301887F91E009F490E06091C30190FB23
:1014E00060F96093C30186E090E00E94561C8091F1
:1014F000C3018695869586950F900F900F900F905B
:101500000F90DF91CF911F910F91FF90EF90DF909F
:10151000CF900C94670385E00F900F900F900F9081
:101520000F90DF91CF911F910F91FF90EF90DF907F
:10153000CF900C94BF1588EF8D0D843008F0B2C1A8
:101540000E945B030F900F900F900F900F90DF9110
:10155000CF911F910F91FF90EF90DF90CF900C945F
:1015600038070631FCE51F0709F480C150F4011566
:101570003CE5130708F462C102301C4508F05EC167
:1015800091C10C3D5CE5150708F458C10F3D1C45A1
:1015900008F054C187C11092EB010E94AF1A9FEF6F
:1015A000E4E3FCE09150E040F040E1F700C00000CF
:1015B0000E94A60C8091DF01982F909590FB80F9F6
:1015C0008093DF016FC10F900F900F900F900F90DD
:1015D000DF91CF911F910F91FF90EF90DF90CF900F
:1015E0000C94C80D1092C4015DC182E08093C401C7
:1015F00059C10E94BD0D811102C00E94C80D0E94F8
:10160000AC0D9093D0018093CF0100312CE51207EF
:1016100009F4BFC008F03FC008304CE5140709F4D6
:1016200096C0F0F404308CE5180709F483C068F420
:101630000230ECE51E0709F473C003301C4509F0C5
:10164000DFC08091CF01826072C006302CE51207A6
:1016500009F46AC008F077C08091CF01886067C044
:101660000C304CE5140709F481C058F40A308CE5BD
:10167000180709F470C008F075C08091CF01806828
:1016800056C00E30ECE51E0709F474C008F07DC0AA
:101690008091CF0189C00B3F2CE5120709F44DC0A2
:1016A00008F503314CE5140709F47BC068F40131F7
:1016B0008CE5180709F471C002311C4509F0A0C07F
:1016C0008091CF018F7733C00531ECE51E0709F417
:1016D00072C008F486C00A3F1C4509F091C0809191
:1016E000D0013EC00F3F3CE5130709F45FC058F43A
:1016F0000D3F5CE5150709F444C008F43FC0809134
:10170000D00182602DC001309DE5190709F473C036
:1017100008F45DC002301D4509F072C060E06CC085
:101720008091CF01816003C08091CF01806180935F
:10173000CF0166C08091CF0111C08091D00182603D
:101740008093D0015DC08091CF018062F0CF809105
:10175000CF018064ECCF8091CF0188608460E7CFB7
:101760008160EECF8091CF018E7FE1CF8091CF015C
:101770008D7FDDCF8091CF01877FD9CF8091D00140
:1017800018C08091D0018D7FDBCF8091CF018F7EFB
:10179000CECF8091CF018F7DCACF8091CF018F7B3B
:1017A000C6CF8091CF01877F8B7FC1CF8091D00141
:1017B0008D7F8E7FC5CF8091CF0182FB222720F9BC
:1017C00091E0922790FB82F990FB83F9B0CF809152
:1017D000D001982F909591708E7F892B90FB81F985
:1017E000AFCF8091CF0187FB222720F991E092278C
:1017F00090FB87F99CCF61E08EE090E00E94561C40
:101800006091CF011091D00184E090E00E94561CBD
:10181000612F81E290E00E94561C1092EB010F9024
:101820000F900F900F900F90DF91CF911F910F911C
:10183000FF90EF90DF90CF900C94AF1AF7010081EA
:101840001181C8010E94BF0ED82EDFCB8091EB0121
:101850008A7A91E009F490E090932A0181111EC0E8
:1018600069E28BE291E00E94770D09C080912A0124
:10187000811116C069E28BE291E00E944F0D0F903A
:101880000F900F900F900F90DF91CF911F910F91BC
:10189000FF90EF90DF90CF900C944E0E65E3E1CF78
:1018A00065E3E9CF0F900F900F900F900F90DF91AD
:1018B000CF911F910F91FF90EF90DF90CF900895FF
:1018C0000F931F93CF93DF93A4EDB1E040E050E07E
:1018D00061E070E090E0CD91DD9120E030E0FB012F
:1018E000022E02C0EE0FFF1F0A94E2F7EC23FD2345
:1018F000EF2B61F0F901E40FF51FEE0FFF1FE85029
:10190000FF4F059114918017910761F02F5F3F4FB2
:101910002F30310521F7415F5F4F4B345105D9F628
:1019200080E001C081E0DF91CF911F910F91089578
:10193000CF93C82F8CE20E94600C882321F08C2F5B
:10194000CF910C94600C80E0CF91089581E080935A
:10195000E00080E28093D8001092C9008FE19EE4FD
:101960000197F1F700C0000087E090EBDC01809365
:101970001A0290931B02A0931C02B0931D029CE0DC
:1019800088E10FB6F894A895809360000FBE9093FD
:101990006000FFCF78941F920F920FB60F92112420
:1019A0008F939F93AF93BF938091BF019091C0019C
:1019B000A091C101B091C2010196A11DB11D8093FA
:1019C000BF019093C001A093C101B093C201BF9128
:1019D000AF919F918F910F900FBE0F901F90189510
:1019E000CF92DF92EF92FF920F931F932FB7F8944D
:1019F0004091BF015091C0016091C1017091C2013D
:101A00002FBF6A017B01EE24FF248C0120E030E02F
:101A1000C016D106E206F30610F4415051099A01AE
:101A2000281B390BC9011F910F91FF90EF90DF9098
:101A3000CF9008952FB7F8948091BF019091C00185
:101A4000A091C101B091C2012FBF08951F920F92C2
:101A50000FB60F9211248F939F93AF93BF938091F2
:101A6000D301811113C08091BF019091C001A09159
:101A7000C101B091C2014196A11DB11D8093BF016A
:101A80009093C001A093C101B093C201BF91AF91E7
:101A90009F918F910F900FBE0F901F9018952091DE
:101AA0000A012223C9F02091CF0127FF15C0262F5C
:101AB0002695269526952E31C8F4FC01E20FF11DDE
:101AC000677081E090E001C0880F6A95EAF7809521
:101AD0009281892382830895FC01069622816213F4
:101AE00001C012823196E817F907C1F708952091D5
:101AF0000A012223C1F02091CF0127FF14C0262F15
:101B00002695269526952E3130F5FC01E20FF11D24
:101B1000677081E090E001C0880F6A95EAF79281D2
:101B2000892B82830895FC0132962FEF30E041919A
:101B3000641789F02F3F19F4411101C0232F3F5F33
:101B40003630A9F72F3F39F0FC01E20FF11D27FDD8
:101B5000FA95628308950895CF9384E090E00E94FF
:101B6000481CC82F81E290E00E94481C2C2F30E0D6
:101B7000A901582BCA01CF91089580E090E00E94FE
:101B8000501C21E08C3E9E4F09F020E0822F0895EA
:101B90006CEE7EEF80E090E00E94741C60E082E0DA
:101BA00090E00E94561C60E083E090E00E94561C8A
:101BB0001092BB011092BC011092BD011092BE01A7
:101BC00060E084E090E00E94561C60E081E290E0DA
:101BD0000E94561C60E085E090E00E94561C60E088
:101BE00086E090E00E94561C6FEF87E090E00E9434
:101BF000561C40E050E0BA0188E090E00E94681C6A
:101C000060E08DE090E00E94561C40E050E0BA0198
:101C100088E190E00E94681C60E087E190E00E940B
:101C2000561C40E050E0BA018CE190E00E94681C34
:101C300060E080E290E00E94561C40E050E0BA0173
:101C40008FE090E00E94681C40E050E0BA0183E120
:101C500090E00C94681C0E94BD0D811102C00E948E
:101C6000C80D86E090E00E94481C8093C301282F95
:101C700026952695269530E02630310524F087708C
:101C800088628093C3018091C30180FF04C0869560
:101C90008695869501C080E00C9467039091EB01D6
:101CA0008091BA01892B9091B901892B80932B01E6
:101CB000E091D101F091D201309799F090910A0111
:101CC000992349F09091CF0197FF05C080932C0193
:101CD00085E080932B010280F381E02D8BE291E07F
:101CE00009940895BF92CF92DF92EF92FF920F93E3
:101CF0001F93CF93DF938C01C090B501D090B601B4
:101D0000E090B701F090B8018091BB019091BC01C7
:101D1000A091BD01B091BE01C82AD92AEA2AFB2AA6
:101D2000CFE1D0E0D701C6010C2E04C0B695A7952F
:101D3000979587950A94D2F780FD04C0219790F774
:101D4000B12C07C0BC2EB8018C2F0E9490040197C3
:101D5000A9F38B2DDF91CF911F910F91FF90EF9001
:101D6000DF90CF90BF900895CF93DF93EC010E9456
:101D7000720EBE010E949004DF91CF9108952FE072
:101D8000929F800D1124682F669566956695982F11
:101D9000977085E0689FB001112440E050E080E03A
:101DA000FB01E40FF51FED57FE4F208130E0092EB7
:101DB00002C0369527950A94E2F721703327042E46
:101DC00001C0220F0A94EAF7822B4F5F5F4F453024
:101DD000510531F708952FE0929F800D1124E82FCF
:101DE000E695E695E695877051E001C0550F8A9516
:101DF000EAF785E0E89FF0011124ED57FE4F20E05F
:101E000030E070E04081CB01022E02C096958795AC
:101E10000A94E2F781708195842785238427819332
:101E20002F5F3F4F2530310569F708956093B50165
:101E30007093B6018093B7019093B8011092BA01E4
:101E40001092B9010C944E0E0F931F9341E050E095
:101E500060E070E004C0440F551F661F771F8A952D
:101E6000D2F740955095609570958091B50190910D
:101E7000B601A091B701B091B8018A019B01082376
:101E800019232A233B23C901B8011F910F910C94F8
:101E9000160F0F931F9341E050E060E070E004C024
:101EA000440F551F661F771F8A95D2F78091B501A1
:101EB0009091B601A091B701B091B8018A019B0140
:101EC000082B192B2A2B3B2BC901B8011F910F910D
:101ED0000C94160F6093BB017093BC018093BD01FD
:101EE0009093BE011092BA011092B9010C944E0E5B
:101EF0008091820190915101891719F08F5F87704D
:101F0000FBCF0895CF938091500182958F7009F097
:101F10005FC080914D01882309F45AC080918201ED
:101F2000B091510170914B01A0914C0140914E0133
:101F300050914F0191E07F3F09F090E0692FC6E09A
:101F40008B1709F445C04115510521F0AF3F21F031
:101F500020E003C021E001C0262F90E020FD35C025
:101F6000C89FF001C99FF00D1124EE5AFE4F218148
:101F70002A132BC02081271328C02281211125C0BC
:101F8000238134812417350710F421503109241B93
:101F9000350B283C3105C8F4209150012F70206189
:101FA0002093500126E0289FF001299FF00D112475
:101FB000E95AFE4F80818F70806180838BE491E0CD
:101FC0000E943E07CF910C94780F01968770B8CF8E
:101FD000CF910895AF92BF92CF92DF92EF92FF928E
:101FE0000F931F93CF93DF93CDB7DEB761970FB6F3
:101FF000F894DEBF0FBECDBF8C0185E0F801DE0195
:102000001D9601900D928A95E1F7D8013C911196A9
:102010002C9111971296EC9050914B0160914C01CC
:1020200080914E0190914F01009731F06F3F31F454
:1020300041E05F3F19F403C041E001C040E0B42F2C
:10204000B170BB2E40FD43C1F801C380D480A09085
:102050004D01AA2009F4E2C040915001C816D906EA
:1020600028F0D601A81BB90BCD0104C0809590952E
:102070008C0D9D1DFF24F394883C910548F0F12CB4
:10208000407F09F090C08BE491E00E943E0717C1A9
:10209000842F807F09F052C0621312C0531310C006
:1020A000FE2CE1100DC04F704061409350018BE455
:1020B00091E00E943E0780915001F801858348C15C
:1020C000CD2831F02F3F31F481E03F3F19F403C0B8
:1020D00081E001C080E080FD03C081E08E2502C068
:1020E00080E090E0F82FF170FF2E80FF1CC08091FF
:1020F00082014091510156E0841709F406C190E035
:10210000589FF001599FF00D1124EE5AFE4F618146
:10211000261306C06081361303C06281E61203C035
:1021200001968770E9CFFE2CEE2009F411C1809151
:102130005001816080935001F12C0AC1621308C0E4
:10214000531306C0E11004C080915001F80199C0FA
:102150003D872E878D859E850E94861A882369F18A
:10216000EE2059F120915001822F82958F7090E0DE
:10217000029774F080914B0190914C0198878F8366
:102180001986DB86CA862C87CE0107960E943E07F9
:1021900086E0F801ABE4B1E001900D928A95E1F799
:1021A0000E94820F0DC0621771F03D872E878D85CA
:1021B0009E850E94861A81111AC0C8010E943E079E
:1021C000FF24F394C5C05313F0CFE110EECF8091FC
:1021D0005001F8018583C8010E943E0786E0EBE4C8
:1021E000F1E0DF011D928A95E9F7FA2CB1C0EE20EB
:1021F00021F320915001822F82958F7090E00297F9
:102200003CF280914B0190914C019A8389831B820F
:10221000DD82CC822E83CE010196B8CFC816D906B6
:1022200038F0C81AD90AB8ECCB16D10450F007C060
:10223000809590958C0D9D1D883C910510F0F12C9A
:102240003EC0FE2CEE2009F4B8CF621327C0531312
:1022500025C02091500120FD18C0822F82958F70DB
:10226000482F50E04115510581F0F80125834F308A
:10227000510541F08F5F982F9295907F822F8F703C
:10228000892B8583C8010E943E0786E0F801ABE4F4
:10229000B1E001900D928A95E1F75AC03D872E87F3
:1022A0008D859E850E94861A811172CF8091500182
:1022B000816080935001C8010E943E0749C0EBE451
:1022C000F1E086E0DF011D928A95E9F741C0EE203A
:1022D00009F473CF3D872E878D859E850E94861ACF
:1022E000F82E882309F469CF86E0F801ABE4B1E069
:1022F00001900D928A95E1F780914B0190914C01EC
:102300000E94B40E0E94820F23C03D872E878D85C8
:102310009E850E94B40E292F22952F70223028F41A
:102320009F7039F0811105C00BC0243028F49F70D4
:1023300049F4805E883020F0C8010E943E07BF2C1F
:10234000FB2C06C0D80115969C91907F91F7F8CF91
:102350008F2D61960FB6F894DEBF0FBECDBFDF9113
:10236000CF911F910F91FF90EF90DF90CF90BF9092
:10237000AF9008950895089508958091ED0108950E
:10238000CF93DF932091C401211103C0209110024B
:1023900002C0223011F02430E1F520910A012223FD
:1023A00039F02091CF0127FF03C060E222E002C094
:1023B00068E021E02093E9002FEF3091E800215000
:1023C00035FD06C035ED3A95F1F700002111F5CF46
:1023D0002091E80025FF1DC0EC0180910A018111C8
:1023E00005C040E050E068E070E003C070E040E00D
:1023F00050E0CE010E94E0158091E8008E77809336
:10240000E80080E2FE01AEEEB1E001900D928A9507
:10241000E1F7DF91CF9108952091E4003091E5003C
:1024200095E64091EC00842F817040FF23C080919D
:10243000E80080FD1DC080911002882399F085304E
:1024400099F08091EB0085FD11C04091E40050911E
:10245000E5002417350729F3915011F09A01E1CFD7
:1024600084E0089582E0089583E0089581E008956E
:1024700080E008954091E80042FFDDCF089580910B
:10248000120287FF11C08091E80082FD05C0809193
:1024900010028111F8CF11C08091E8008B770BC03A
:1024A00080911002882349F08091E80080FFF8CFE6
:1024B0008091E8008E778093E8000895982F9730F8
:1024C00068F59093E900981739F07091EC0020912D
:1024D000ED005091F00003C0242F762F50E021FD35
:1024E00002C09F5FECCF3091EB003E7F3093EB005A
:1024F0003091ED003D7F3093ED003091EB00316085
:102500003093EB007093EC002093ED005093F000BB
:102510002091EE0027FDE5CF80E008958F70809335
:10252000E90081E0089520911802309119022617E0
:10253000370748F06115710539F42091E8002E77CE
:102540002093E80001C0B901FC0120E0611571058C
:1025500079F1809110028823F1F18530F1F18091B9
:10256000E80083FD3CC08091E80082FD2EC0809190
:10257000E80080FFEBCF2091F3008091F20090E023
:10258000922B6115710551F08830910538F4219135
:102590002093F100615071090196F3CF21E0089773
:1025A00009F020E08091E8008E778093E800CECF9C
:1025B0002111CFCF0AC080911002882361F08530AD
:1025C00061F08091E80083FD0AC08091E80082FFFD
:1025D000F2CF80E0089582E0089583E0089581E0DD
:1025E0000895CF93DF93CDB7DEB72A970FB6F8944F
:1025F000DEBF0FBECDBF84B7877F84BF0FB6F89410
:10260000A8958091600088618093600010926000BE
:102610000FBE80E8809361001092610085B78068EA
:1026200085BF85B7806885BF0E9427190E9446191B
:102630008091E20084608093E2007894809110029F
:102640008823A1F01091E9001F709091EC00892F70
:10265000817090FD80E8182B1092E9008091E800CD
:1026600083FD0E940C161F701093E90082E084BD68
:1026700093E095BD9AEF97BD80936E00ABE0B1E01B
:1026800040E151E061E070E08D91E82FE295EF705C
:10269000F0E021A18F708B0102C0000F111F8A95FD
:1026A000E2F7C801902F9095922391A392A1892BD4
:1026B00082A34A175B0741F7A0E1B1E04FE151E087
:1026C00061E070E08D91E82FE295EF70F0E021A1DC
:1026D0008F708B0102C0000F111F8A95E2F7C801AD
:1026E000902F9095922391A392A1892B82A34A17B0
:1026F0005B0741F7E5ECF1E0A4EDB1E01192119236
:102700001D921D9211E0EF3CF107C1F70E94BD0D33
:10271000811102C00E94C80D269A2E9882E28093F1
:10272000800089E1809381008FEF9FEF9093870075
:10273000809386000E942B0E229A2A9A0E94BD0D39
:10274000811102C00E94C80D15E6115049F00E9487
:10275000C1038FE39CE90197F1F700C00000F5CFBA
:1027600089E20E94980C811132C18AE20E94980C81
:1027700081110E94C80D85E00E94980C81110E9471
:10278000A60C82E090E00E94481C8093DF0187E065
:102790000E94980C8823A9F18BE10E94980C882351
:1027A00051F08091DF0181FB222720F991E09227EF
:1027B00090FB81F90EC08EE00E94980C882361F096
:1027C0008091DF0182FB222720F991E0922790FB84
:1027D00082F98093DF0115C080E10E94980C9091EE
:1027E000DF01882341F093FB222720F981E0822733
:1027F00080FB93F904C0892F809580FB90F990931A
:10280000DF016091DF0182E090E00E94561C0E948F
:10281000AC0D9093D0018093CF0180EE0E94980C74
:10282000882341F08091CF01982F909590FB80F9FB
:102830008093CF0189E30E94980C882359F08091FE
:10284000CF0181FB222720F991E0922790FB81F9AB
:102850008093CF0182EE0E94980C882359F08091DA
:10286000CF0182FB222720F991E0922790FB82F989
:102870008093CF0186EE0E94980C882359F08091B6
:10288000CF0183FB222720F991E0922790FB83F967
:102890008093CF0183EE0E94980C882359F0809199
:1028A000CF0184FB222720F991E0922790FB84F945
:1028B0008093CF0185E30E94980C882359F0809182
:1028C000CF0185FB222720F991E0922790FB85F923
:1028D0008093CF0181E30E94980C882359F0809166
:1028E000CF0186FB222720F991E0922790FB86F901
:1028F0008093CF0181E10E94980C882359F0809148
:10290000CF0187FB222720F991E0922790FB87F9DE
:102910008093CF016091CF011091D00184E090E0CD
:102920000E94561C612F81E290E00E94561C87E2B3
:102930000E94980C182F8EE10E94980C8111126051
:102940008FE10E94980C8111146080E20E94980C23
:102950008111186081E20E94980C8111106182E25D
:102960000E94980C8111106283E20E94980C8111E0
:10297000106484E20E94980C882311F0106802C051
:10298000112339F0612F83E090E00E94561C612FE3
:1029900005C083E090E00E94481C682F70E080E052
:1029A00090E00E946A0F8FE00E94980C882329F023
:1029B00061E08EE090E00E94561C85E10E94980C38
:1029C000882329F060E08EE090E00E94561C0E946F
:1029D0002B0E80E091E09093D2018093D101882466
:1029E0008394912C77247A942EEDA22E21E0B22E9E
:1029F00030E1532E42E1342E58E1C52ED12C60E453
:102A0000662E80911002853009F03DC08091100241
:102A1000843039F11092D3010FB6F894A895C09282
:102A200060000FBE6092600080E00E94670380E05B
:102A30000E94380783B7817F846083BF83B781603A
:102A400083BF7894889583B78E7F83BF0FB6F89441
:102A5000A89580916000886180936000109260006A
:102A60000FBE80910F02882309F4CBCF0E94C103CF
:102A7000E4EDF1E081919191892B09F06CC0AE16E3
:102A8000BF06C1F7BECF0E94C103E0EEF1E0A4EDA6
:102A9000B1E000E010E0402E4D915D912191319127
:102AA000242735272115310599F180E090E0740144
:102AB000082E02C0EE0CFF1C0A94E2F7B9016E2149
:102AC0007F21672B09F189834A824E215F2181E0B2
:102AD000452B09F480E08B830E941A0D8160782FCA
:102AE0009D838C8349815A816B818D810E949102E3
:102AF000000F111FF801E052FE4F80819181E826FE
:102B0000F926F182E08219C001968F30910579F69D
:102B10000F5F1F4F0530110509F0BDCF7E827F8208
:102B200018860E941A0D8160782F9A8789874E81B6
:102B30005F8168858A850E9491020E945B03909163
:102B4000DE01891709F45DCF0E945B038093DE01EB
:102B50000E94380756CF59BC39BC09B400FEFDCFDE
:102B60008091D8008F7D8093D8008091E0008260B2
:102B70008093E0008091E00081FDFCCF42CF863061
:102B800008F085E0880F880F880F9091C301977037
:102B9000892B8093C301887F91E009F490E06091D4
:102BA000C30190FB60F96093C30186E090E00E944E
:102BB000561C8091C3018695869586950C94670373
:102BC000EF92FF920F931F93CF93DF937C018B01C2
:102BD0000E940C12811119C0E70101151105A1F025
:102BE0008091E80085FD0AC08091E8008E7780938F
:102BF000E8000E940C12882381F307C0899180931A
:102C0000F10001501109E9CF80E0DF91CF911F91D0
:102C10000F91FF90EF9008951F93CF93DF93CDB75F
:102C2000DEB7AA970FB6F894DEBF0FBECDBFE2E1C4
:102C3000F2E08091F100819322E0EA31F207C9F7D6
:102C400080911302833009F460C030F4813071F058
:102C5000823009F49CC0B3C08A3009F488C08B303C
:102C600009F46BC0893009F0AAC020C0809112021B
:102C7000813A09F0A4C08091E800877F8093E80042
:102C80008091160290911702892B21F460E28EEE5A
:102C900091E003C060E080E090E070E00E94931259
:102CA0008091E8008B778093E80089C080911202C0
:102CB000813209F084C08091160290911702029728
:102CC00008F07DC08091E800877F8093E8008091C4
:102CD000E80082FD05C0809110028111F8CF6FC01D
:102CE0002091F3008091F20090E0922B029729F45A
:102CF0008091F1008B7F813021F48091F1008093ED
:102D0000ED018091E8008B7756C080911202813AE4
:102D100009F055C08091160290911702892B09F095
:102D20004EC08091E800877F8093E8008091E800A2
:102D300080FFFCCF80910A0139C08091120281325C
:102D4000F1F58091160290911702892BC1F58091BF
:102D5000E800877F8093E8000E943F128091140270
:102D600080930A011092EB010E94AF1A28C0809153
:102D70001202813221F58091E800877F8093E8007C
:102D80000E943F12809115028093EC0118C080913F
:102D90001202813AA1F48091E800877F8093E800D5
:102DA0008091E80080FFFCCF8091EC018093F100DE
:102DB0008091E8008E778093E8000E943F12809116
:102DC000E80083FFD8C18091120290911302492F2D
:102DD00050E04A30510508F0CEC1FA01EC59FF4FDE
:102DE0000C94D01C803821F0823809F0C4C108C08E
:102DF00080910E0290910F02992389F082600FC09A
:102E0000809116028F70873008F0B5C18093E90079
:102E10008091EB0085FB882780F91092E900909162
:102E2000E800977F9093E8008093F1001092F10002
:102E300071C1282F2D7F09F09EC1882319F082309F
:102E400061F099C180911402813009F094C19330EE
:102E500009F080E080930F022EC08091140281114E
:102E60002AC0809116028F702FEF280F263008F0AD
:102E700082C18093E9002091EB0020FF1CC09330B9
:102E800021F48091EB00806214C09091EB0090617E
:102E90009093EB0021E030E0A90102C0440F551FE0
:102EA0008A95E2F74093EA001092EA008091EB00E5
:102EB00088608093EB001092E9008091E800877FA2
:102EC0002CC1811158C1109114021F778091E30029
:102ED0008078812B8093E3008091E800877F809346
:102EE000E8000E943F128091E80080FFFCCF8091B3
:102EF000E30080688093E300111102C082E001C00A
:102F000083E08093100237C18058823008F033C1CB
:102F100080911402909115028C3D53E0950779F54C
:102F200083E08A838AE289834FB7F894DE0113969F
:102F300020E03EE051E2E32FF0E050935700E491AF
:102F400020FF03C0E295EF703F5FEF708E2F90E09F
:102F5000EA3010F0C79601C0C0968D939D932F5F05
:102F6000243149F74FBF8091E800877F8093E800C4
:102F70006AE270E0CE0101960E949312BAC04091BD
:102F8000160250911702292F332723303105B1F053
:102F900068F42130310509F4FDC02230310509F013
:102FA000EAC08BE390E0EFE9F2E050C02132310556
:102FB00081F12232310509F439C0DDC09927813011
:102FC0009105B9F070F082309105D9F0039709F0BE
:102FD000D2C0ECEEF2E0E4918E2F90E0ECEEF2E065
:102FE00032C0E0E1F3E0E4918E2F90E0E0E1F3E025
:102FF0002AC0EEEFF2E0E4918E2F90E0EEEFF2E0E7
:1030000022C0E2EFF2E0E4918E2F90E0E2EFF2E0F6
:103010001AC04115510509F4C2C04130510509F0EB
:10302000AAC089E090E0EAECF2E010C04115510539
:1030300009F4BAC04130510509F09DC08BE390E01E
:10304000E4E2F2E003C0009709F495C02091E800A3
:10305000277F2093E80020911802309119028217EF
:10306000930708F49C0140E02115310589F1809116
:103070001002882309F43DC08530D9F18091E80021
:1030800083FD37C08091E80082FD2FC08091E80069
:1030900080FFEACF4091F3008091F20090E0942B02
:1030A0002115310559F08830910540F44491409341
:1030B000F1003196215031090196F2CF41E0089795
:1030C00009F040E08091E8008E778093E800CCCF53
:1030D0004111CDCF0AC080911002882351F0853074
:1030E00041F08091E80083FD04C08091E80082FFF8
:1030F000F2CF8091E8008B778093E8003CC0803865
:10310000D1F58091E800877F8093E80080911102DB
:103110008093F1008091E8008E778093E8000E9410
:103120003F1229C0811127C080911402909115028D
:103130009927029704F58091E800877F8093E80043
:1031400010911402109311020E943F12111106C037
:103150008091E30087FD02C081E001C084E080939C
:10316000100242E061EC81E00E945E1242E261ECFA
:1031700082E00E945E128091E80083FF1AC0809175
:10318000E800877F8093E8008091EB008062809365
:10319000EB000FC082E190E0EAEDF2E057CF89E06A
:1031A00090E0E1EBF2E052CF80E490E0EFE5F2E076
:1031B0004DCFAA960FB6F894DEBF0FBECDBFDF91FC
:1031C000CF911F9108951F920F920FB60F92112465
:1031D0002F933F934F935F936F937F938F939F931F
:1031E000AF93BF93CF93DF93EF93FF93C091E90029
:1031F000CF708091EC00D82FD17080FDD0E8109274
:10320000E9008091F000877F8093F00078940E941D
:103210000C161092E9008091F00088608093F00015
:10322000CD2BCF70C093E900FF91EF91DF91CF914B
:10323000BF91AF919F918F917F916F915F914F91CE
:103240003F912F910F900FBE0F901F901895E8EDB2
:10325000F0E080818E7F80831092E2001092DA008D
:103260001092E100A0EEB0E08C9181608C9380819F
:103270008F77808319BCA7EDB0E08C918E7F8C9303
:1032800080818F7E80831092EA010895CF92DF9231
:10329000EF92FF920F931F93CF93DF93C8EDD0E08F
:1032A00088818F7E8883E7EDF0E080818160808374
:1032B00084E082BF81E08093EA0188818E7F8883E9
:1032C00002EE10E0F80110821092DA0081EEC82EB2
:1032D000D12CF601108288818F778883888180685D
:1032E000888388818F7D888319BC10921002109288
:1032F000110210920F0210920E0290EEE92EF12CA4
:10330000F70180818B7F808388818160888342E0A0
:1033100060E080E00E945E12F60180818E7F8083F3
:10332000F801808181608083808188608083F701DB
:1033300080818E7F8083888180618883DF91CF91B7
:103340001F910F91FF90EF90DF90CF9008951F9203
:103350000F920FB60F9211242F933F934F935F93C9
:103360006F937F938F939F93AF93BF93EF93FF934D
:103370008091E10082FF09C08091E20082FF05C0D8
:103380008091E1008B7F8093E1008091DA0080FFE3
:103390002AC08091D80080FF26C08091DA008E7FFD
:1033A0008093DA008091D90080FF18C080E189BD48
:1033B00082E189BD09B400FEFDCF81E08093100257
:1033C0008091EA0181110FC00E9427190E944619BD
:1033D0008091E20084608093E20005C019BC1092E5
:1033E00010021092EA018091E10080FF17C08091E5
:1033F000E20080FF13C08091E2008E7F8093E200A4
:103400008091E20080618093E2008091D800806228
:103410008093D80019BC85E0809310028091E10070
:1034200084FF38C08091E20084FF34C080E189BD10
:1034300082E189BD09B400FEFDCF8091D8008F7D67
:103440008093D8008091E1008F7E8093E10080918D
:10345000E2008F7E8093E2008091E20081608093A1
:10346000E20080911102882311F084E007C080916E
:10347000E30087FD02C081E001C083E08093100279
:103480001092EB010E94AF1A0E942B0E0E945B0368
:103490000E9438078091E10083FF27C08091E200FD
:1034A00083FF23C08091E100877F8093E10082E069
:1034B00080931002109211028091E1008E7F809320
:1034C000E1008091E2008E7F8093E2008091E20033
:1034D00080618093E20042E060E080E00E945E1242
:1034E0008091F00088608093F000FF91EF91BF9190
:1034F000AF919F918F917F916F915F914F913F918C
:103500002F910F900FBE0F901F9018950E94B40E30
:10351000292F2F70E92FE295EF704E2F50E0FA011E
:103520003297EE30F105B8F4E259FF4F0C94D01CFD
:10353000803F99F018F4883E70F40FC0843F59F42E
:103540000CC0883E50F0813F31F407C0822F869531
:1035500086958695089580E0089581E0089580918C
:103560000A01882331F08091CF0187FF02C08EE1EC
:1035700001C086E0EDE2F1E0DF011D928A95E9F7F6
:103580001092BA011092B9010C944E0E882341F0AA
:1035900080959091EB0189238093EB010C944E0E62
:1035A0000895882339F09091EB01892B8093EB01EA
:1035B0000C944E0E0895882309F458C0682F823861
:1035C00069F40E945B0381FF51C069E38BE291E0E3
:1035D0000E94770D0E944E0E69E30EC0833891F46D
:1035E0000E945B0380FF42C063E58BE291E00E9492
:1035F000770D0E944E0E63E58BE291E00E944F0D25
:103600000C944E0E843869F40E945B0382FF2EC036
:1036100067E48BE291E00E94770D0E944E0E67E412
:10362000EBCF8CEF860F813A38F380E2860F88303B
:1036300070F4677081E090E001C0880F6A95EAF746
:1036400080959091EB0189238093EB01D9CF8BE595
:10365000860F833020F480E090E00C944503685A94
:10366000673120F480E090E00C942F0308958823C4
:1036700009F40DC1682F8238B1F40E945B0381FD0B
:1036800006C169E38BE291E00E94770D0E944E0E25
:103690002FEF81EE94E0215080409040E1F700C090
:1036A000000069E317C08338D9F40E945B0380FDF2
:1036B000EEC063E58BE291E00E94770D0E944E0E12
:1036C0002FEF81EE94E0215080409040E1F700C060
:1036D000000063E58BE291E00E944F0D0C944E0ECA
:1036E0008438B1F40E945B0382FDD1C067E48BE2B1
:1036F00091E00E94770D0E944E0E2FEF81EE94E034
:10370000215080409040E1F700C0000067E4E2CF24
:103710008CEF860F813A28F48BE291E00E94770DBE
:10372000DDCF80E2860F883068F4677081E090E03A
:1037300001C0880F6A95EAF79091EB01892B80937D
:10374000EB01CCCF8BE5860F833070F4653A29F01E
:10375000663A31F083E890E005C081E890E002C06D
:1037600082E890E00C94450388E5860F873108F0E5
:103770008EC0683A09F445C0693A09F445C06A3A0E
:1037800009F445C06B3A09F445C06C3A09F445C0E8
:103790006B3B09F445C06C3B09F445C06D3A09F434
:1037A00045C0603B09F445C06E3A09F445C06F3A24
:1037B00009F445C0613B09F445C0623B09F445C0CA
:1037C000633B09F445C0643B09F445C0653B09F41B
:1037D00045C0663B09F445C0673B09F445C0683BFA
:1037E00009F445C0693B09F445C06D3B09F445C087
:1037F0006E3B09F445C06A3B09F445C080E090E0A7
:1038000044C082EE90E041C089EE90E03EC08AEE76
:1038100090E03BC085EB90E038C086EB90E035C08F
:1038200083EB90E032C084EB90E02FC087EB90E018
:103830002CC08CEC90E029C08DEC90E026C083E891
:1038400091E023C08AE891E020C082E991E01DC0A8
:1038500084E991E01AC081E292E017C083E292E02D
:1038600014C084E292E011C085E292E00EC086E2CC
:1038700092E00BC087E292E008C08FE690E005C0BE
:1038800080E790E002C08AE292E00C942F03089552
:10389000F999FECF92BD81BDF89A992780B5089518
:1038A000A8E1B0E042E050E00C947C1C262FF9998E
:1038B000FECF92BD81BDF89A019700B4021639F08F
:1038C0001FBA20BD0FB6F894FA9AF99A0FBE089560
:1038D0000396272F0E94571C0E94561C252F0E94DA
:1038E000571C242F0C94571C0196272F0E94571CFD
:1038F0000C94561CDC01CB01FC01F999FECF06C0EB
:10390000F2BDE1BDF89A319600B40D92415050409D
:10391000B8F70895DB018F939F930E94E51CBF9138
:10392000AF91A29F800D911DA39F900DB29F900D0E
:1039300011240895AA1BBB1B51E107C0AA1FBB1F7E
:10394000A617B70710F0A61BB70B881F991F5A952B
:10395000A9F780959095BC01CD010895A1E21A2E9A
:10396000AA1BBB1BFD010DC0AA1FBB1FEE1FFF1F23
:10397000A217B307E407F50720F0A21BB30BE40B73
:10398000F50B661F771F881F991F1A9469F76095BA
:103990007095809590959B01AC01BD01CF01089574
:1039A000EE0FFF1F0590F491E02D0994A29FB00146
:1039B000B39FC001A39F700D811D1124911DB29F63
:1039C000700D811D1124911D08950E94D61CA59F84
:1039D000900DB49F900DA49F800D911D112408950A
:0439E000F894FFCF89
:1039E400BD11C011BC11BA11BB11019091929395F4
:1039F400F0F1C66766379431303534979633F40066
:00000001FF
