:100000000C9458010C949F010C949F010C949F0137
:100010000C949F010C949F010C949F010C949F01E0
:100020000C949F010C949F010C9442160C94FE15A5
:100030000C9449190C949F010C949F010C949F01FE
:100040000C949F010C949F010C949F010C949F01B0
:100050000C949F010C9425190C949F010C949F0102
:100060000C949F010C949F010C949F010C949F0190
:100070000C949F010C949F010C949F010C949F0180
:100080000C949F010C949F010C949F010C949F0170
:100090000C949F010C949F010C949F010C949F0160
:1000A0000C949F010C949F010C949F01165C1E0000
:1000B0001F0020002100220023002400250026002C
:1000C00027002A002B0014001A0008001500170052
:1000D0001C0018000C00120013003100390004004D
:1000E0001600070009000A000B000D000E000F00AB
:1000F00033003400E1001D001B000600190005005C
:10010000110010003600370038002800E000E3003E
:100110006500E20002512C002C00015150005200F9
:1001200051004F000000000000000000000000002F
:1001300000000000000000000000000000000000BF
:1001400000000000000000000000000000000000AF
:10015000000000000000000000000000000000009F
:100160000000000000000000000000000000BF5C74
:10017000BE5CBD5CC15C000000000000000000002F
:10018000000000000000000000000000000000006F
:10019000000001000000000000000000165C0000EC
:1001A00000000000000000000000000000002D0022
:1001B0002E004C003A003B003C003D003E003F005A
:1001C00040004100420043004400450000000000A0
:1001D000000000000000000000000000000000001F
:1001E00000000000E100000000000000000000002E
:1001F00000000000000000000000000000000000FF
:1002000000000000010000000000000000000000ED
:100210000000000005010906A101050719E029E712
:100220001500250195087501810295017508810168
:100230000507190029FF150026FF0095067508819E
:1002400000050819012905950575019102950175AB
:10025000039101C009022200010100A0FA09040073
:1002600000010301010009211101000122400007E2
:1002700005810308000A1201100100000008EDFECC
:10028000616002000102030104033000000010035A
:100290005000720065006F006E006900630000008E
:1002A0000A034F004C004B00420000000403090405
:1002B00011241FBECFEFDAE0DEBFCDBF04B603FED0
:1002C00027C08091DD019091DE01A091DF01B09106
:1002D000E0018730904BA740B04BD1F41092DD0184
:1002E0001092DE011092DF011092E00114BE84B77B
:1002F000877F84BF0FB6F894A895809160008861CD
:1003000080936000109260000FBEE0E0F8E3099572
:1003100011E0A0E0B1E0E8E7F4E302C005900D923F
:10032000AC31B107D9F721E0ACE1B1E001C01D92D9
:10033000AD3DB207E1F70E941E170C94141A0C94FD
:100340000000982F9093E900891779F05091EC0004
:100350002091ED004091F00021FD0AC09F5F973091
:1003600089F78093E90081E00895562F40E022E06C
:100370003091EB003E7F3093EB003091ED003D7FFC
:100380003093ED003091EB0031603093EB005093EF
:10039000EC002093ED004093F0002091EE0027FD4B
:1003A000DDCF80E00895E8EDF0E080818E7F8083EE
:1003B0001092E2001092DA001092E100A0EEB0E09C
:1003C0008C9181608C9380818F77808319BCA7ED9D
:1003D000B0E08C918E7F8C9380818F7E8083109291
:1003E000C6010895CF92DF92EF92FF920F931F9371
:1003F000CF93DF93C8EDD0E088818F7E8883E7EDCF
:10040000F0E080818160808384E082BF81E080931E
:10041000C60188818E7F888302EE10E0F801108289
:100420001092DA0081EEC82ED12CF601108288815C
:100430008F77888388818068888388818F7D88838F
:1004400019BC1092D3011092D4011092D2011092D3
:10045000D10190EEE92EF12CF70180818B7F808312
:1004600088818160888360E080E00E94A101F601BC
:1004700080818E7F8083F80180818160808380818C
:1004800088608083F70180818E7F8083888180618E
:100490008883DF91CF911F910F91FF90EF90DF90B4
:1004A000CF9008952091E4003091E50095E6A901F0
:1004B0002091EC00822F817020FF06C08091E8001F
:1004C00080FF06C080E008952091E80022FD1AC058
:1004D0008091D301882389F0853089F08091EB00E9
:1004E00085FD0FC02091E4003091E50042175307CD
:1004F000F9F29150E1F684E0089582E0089583E0F6
:10050000089581E00895EF92FF920F931F93CF9388
:100510007C010E945202C82F811119C008E010E02E
:100520008091E80085FD0BC08091E8008E77809374
:10053000E8000E945202882399F3C82F08C0F701EF
:1005400081917F018093F1000150110949F78C2FAF
:10055000CF911F910F91FF90EF9008958091D50159
:1005600087FF13C08091E80082FF06C08091E800F9
:100570008B778093E80004C08091D3018111F2CF82
:1005800008958091D3018823D9F38091E80080FFFA
:10059000F8CF8091E8008E77ECCFFC018091DB01F1
:1005A0009091DC0186179707A0F06115710529F479
:1005B0009091E8009E779093E80090E061157105B6
:1005C00051F4911108C08091E80082FF34C080E0AE
:1005D0000895BC01F2CF8091D3018823C1F1853009
:1005E000C1F18091E80083FD30C08091E80082FD78
:1005F000EACF8091E80080FFE1CF8091F300209165
:10060000F200382F6115710519F02830310558F0C6
:1006100091E02830310509F090E02091E8002E7734
:100620002093E800CBCF81918093F1006150710954
:100630002F5F3F4FE7CF8091D301882341F0853072
:1006400041F08091E80083FFBECF81E0089582E011
:10065000089583E008950895089508958091C8014C
:100660000895CF92DF92EF92FF920F931F932FB7CF
:10067000F89440919A0150919B0160919C01709176
:100680009D012FBF6A017B01EE24FF248C0130E025
:1006900020E0C016D106E206F30650F0481B590BC5
:1006A000CA011F910F91FF90EF90DF90CF900895B6
:1006B00041505109F3CF2FB7F89480919A0190914E
:1006C0009B01A0919C01B0919D012FBF0895809145
:1006D0009501811110929501089580919401909156
:1006E0009301892B90919201892B80931C01909109
:1006F0009501992391F0892B80931C0120E08EE1D4
:1007000091E0FC013191CF0131112F5FF1E0843292
:100710009F07B9F721110E946703E091A101F091B1
:10072000A201309731F00280F381E02D8CE191E05D
:1007300009940895EEE1F1E09191891303C0DF017E
:1007400011971C9291E0E432F907B1F70895AEE1F8
:10075000B1E0EFEF90E02D91821751F0EF3F19F4E7
:10076000211101C0E92F9F5F9630A9F7EF3F09F4EF
:1007700008950E2E000CFF0BE45EFE4F8283089559
:100780002CE0929F800D1124982F97708695869566
:10079000869525E0829FF0011124EB59FE4F50E031
:1007A00040E080E0219130E0092E02C03695279587
:1007B0000A94E2F721703327042E01C0220F0A9415
:1007C000EAF7822B4F5F5F4F4530510559F7089587
:1007D0002CE0929F800D1124982F977041E001C06A
:1007E000440F9A95EAF786958695869595E0899FB8
:1007F000F0011124EB59FE4F90E080E070E0519140
:10080000DF0111979B01082E02C0369527950A94A7
:10081000E2F7217021952527242325272C93019683
:100820008530910561F7089560938D0170938E0175
:1008300080938F01909390011092930110929201F6
:100840000C946D030F931F9341E050E060E070E063
:1008500004C0440F551F661F771F8A95D2F7CB013E
:10086000BA01609570958095909500918D011091D9
:100870008E0120918F01309190016023712382239A
:1008800093231F910F910C941404909191018095E2
:10089000892380939101282F277071F4282F082E27
:1008A000000C330B9217130639F0859585958595C5
:1008B0000E9422041092910108950F931F9341E02A
:1008C00050E060E070E004C0440F551F661F771FC2
:1008D0008A95D2F780918D0190918E01A0918F0120
:1008E000B09190018A019B01082B192B2A2B3B2BDD
:1008F000C901B8011F910F910C94140460939601E3
:1009000070939701809398019093990110929301AD
:10091000109292010C946D038091640190913301C7
:10092000981301C008958F5F8770FACF882341F034
:100930008095909194018923809394010C946D0388
:100940000895882339F090919401982B9093940105
:100950000C946D03089520912801309129012817E6
:10096000390771F09093290180932801E091A1014A
:10097000F091A201309721F00084F185E02D0994D7
:10098000089520912601309127012817390771F029
:100990009093270180932601E091A101F091A2019B
:1009A000309721F00680F781E02D09940895E091B9
:1009B000A101F091A201309721F00190F081E02D8A
:1009C000099480E00895882309F452C0823871F4B4
:1009D0000E94D70481FF4CC089E30E94A7030E94B4
:1009E0006D0389E30E949A030C946D03833859F4D4
:1009F0000E94D70480FF3CC083E50E94A7030E94A9
:100A00006D0383E5EFCF843859F40E94D70482FF49
:100A10002FC087E40E94A7030E946D0387E4E2CF02
:100A20009CEF980F913AF0F290E2980F983088F48A
:100A3000877021E030E0A90102C0440F551F8A955C
:100A4000E2F7CA01809590919401892380939401E3
:100A5000CBCF9BE5980F933020F490E080E00C948E
:100A6000C104885A873120F490E080E00C94AB04F4
:100A70000895CF92DF92EF92FF92843028F5811192
:100A800024C090918000977F90938000282F30E0C1
:100A9000AFEFBFEF0E94B81923E030E040E050E034
:100AA0000E949019C9012C3764E1360790F469E07F
:100AB00070E00E947C1970938D0060938C00FF9011
:100AC000EF90DF90CF90089583E090918000986040
:100AD000DBCF2A50374D4F4F5F4F942F832F722F0C
:100AE000662725EF38E241E050E00E949019690145
:100AF0007A01CA01B9010E946C199B01AC01C701BE
:100B0000B6010E946C19672F782F892F99276115DC
:100B1000710521E08207910571F66FEF7FEFCBCF72
:100B200090919F0192FF06C0282F28712830F9F478
:100B3000877F846093FF06C0282F28712831F1F445
:100B4000877E84612091A00120FF06C0382F387174
:100B50003830D9F4877F816021FF06C0282F2871A3
:100B60002831D1F4877E816194FD877E0895282FF6
:100B700024712430F9F68B7F8860DCCF282F247114
:100B8000243101F78B7E8861DDCF382F3171313010
:100B900019F78E7F8860E0CF282F2171213121F74E
:100BA0008E7E8861E1CFCF93DF93972F70E02CE0AA
:100BB000929F600D711D1124FB013CE3839FE00DAA
:100BC000F11D1124EE0FFF1FE455FF4FC591D49185
:100BD000CE01C238D105B9F1E8F5C133D10509F428
:100BE00099C050F5C932D10509F48DC0CA32D1057A
:100BF00009F497C0C11521E5D20708F0C9C0C11595
:100C000030E5D30708F0E8C1C83ED10508F0A0C020
:100C1000C03ED10568F5C83AD10508F089C0C53A8B
:100C2000D10508F030C1C130D10511F1209709F488
:100C300043C02497E8F440C0C533D10509F45CC033
:100C4000C933D105B9F620919F01237089F080EE58
:100C500090E00EC0C33ED10591F168F4C03ED105CD
:100C6000F9F0C23ED10531F620919F0122FD20C04E
:100C7000DF91CF910895C63ED10561F1C73ED10500
:100C800081F1C43ED10509F0B5CF2091A00121FF2B
:100C9000EFCF80919F0184FD0FC087EE90E0E8CFF9
:100CA00020919F0120FDE5C13091A00130FFE0CFF0
:100CB00083EE90E024FFDCCF90E080E0D9CF20915C
:100CC0009F0122FDD9C13091A00130FDC0CF24FF8A
:100CD000CFCFF2CF20919F0123FFCACF24FDECCFCD
:100CE000DCCF20919F0123FDCAC13091A00131FFCB
:100CF000EECF84EE90E0BCCF20919F0125FFB8CFCE
:100D000089E290E0B5CF20919F0125FFB1CF85E327
:100D100090E0AECF20919F0126FFAACF8AE290E01B
:100D2000A7CF20919F0126FFA3CF81E390E0A0CF22
:100D3000CF3BD10508F4B6C0C03CD10508F4BCCF08
:100D4000FE01EE0FFF1FE45DF0408591949190CF7E
:100D5000C11520E3D20788F4C11530E2D30708F0AB
:100D60002EC1C03FD10508F4A7CFCF3FD10511F068
:100D700008F07ECFCE0190657BCFC11580E4D80707
:100D800008F026C1CE019927D3FF20C1986C70CFFF
:100D9000C11599E5D90760F5C11528E5D20708F016
:100DA00063C1C11534E5D30778F4C11583E5D807CD
:100DB00008F041C1C11592E5D90708F029C19C2F5F
:100DC0008827816F906A54CFC11525E5D20708F4B2
:100DD00046C1C11536E5D30708F06ECF8C2F0E94AF
:100DE000900590E0982F882788279F71906240CFC8
:100DF000CD3B8CE5D80709F445C100F580E094EDC2
:100E0000CB3B2CE5D20709F433CF80E095EDCC3B0A
:100E10003CE5D30708F02CCFC1158AE5D80708F0C8
:100E20004BCF8C2F8F700E94900534E0D695C795DC
:100E30003A95E1F7CF709C2F90691ACFC03C9CE5A2
:100E4000D90709F422C170F480E090EDCE3B3CE577
:100E5000D30709F40DCFCF3BDC4509F02DCF80E05F
:100E600092ED06CFCE0190568115904208F024CF26
:100E70008D2F8F710E94900590E0982F88278827EA
:100E80009F718C2BB3CF81E890E4C53AD10509F46A
:100E9000EFCE82E890E4C63AD10509F4E9CE83E8C2
:100EA00090E4E6CE82EE94E4C83AD10509F4E0CEAF
:100EB00089EE94E4C93AD10509F4DACE8AEE94E4D5
:100EC000CA3AD10509F4D4CE85EB94E4CB3AD105E6
:100ED00009F4CECE86EB94E4CC3AD10509F4C8CE21
:100EE00083EB94E4CB3BD10509F4C2CE84EB94E4CC
:100EF000CC3BD10509F4BCCE87EB94E4CD3AD105C7
:100F000009F4B6CE8CEC94E4C03BD10509F4B0CE24
:100F10008DEC94E4CE3AD10509F4AACE83E895E4A9
:100F2000CF3AD10509F4A4CE8AE895E4C13BD105B6
:100F300009F49ECE82E995E4C23BD10509F498CE2E
:100F400084E995E4C33BD10509F492CE81E296E4AD
:100F5000C43BD10509F48CCE83E296E4C53BD105B0
:100F600009F486CE84E296E4C63BD10509F480CE2E
:100F700085E296E4C73BD10509F47ACE86E296E491
:100F8000C83BD10509F474CE87E296E4C93BD1058C
:100F900009F46ECE8FE694E4CD3BD10509F468CE1A
:100FA00080E794E4CE3BD10509F462CE80E094E47E
:100FB000CA3BD10509F05CCE8AE296E459CEFE0127
:100FC000FF70EE0FFF1FE455FF4FBFCE906C50CE69
:100FD000CE019F70906A4CCE9E01E4E03695279535
:100FE000EA95E1F723708C2F86958695837030E221
:100FF000839FC0011124922BC37021E030E002C016
:10100000220F331FCA95E2F7822B932B9C6830CEB8
:101010009E012370332781E090E002C0880F991F62
:101020002A95E2F7C695C69520E2C29FE0011124F9
:101030008C2B9D2BEBCF9E012370332781E090E01A
:1010400002C0880F991F2A95E2F7C695C69530E22F
:10105000C39FE00111248C2B9D2B9A6809CE9C2FF5
:101060008827846F906A04CE9C2F8827806F906AAF
:10107000FFCD89E390E0FCCD82EE90E0F9CD86EEE5
:1010800090E0F6CD80E091EDF3CD80E093EDF0CDF2
:10109000BF92CF92DF92EF92FF920F931F93CF9365
:1010A000DF938C01C0908D01D0908E01E0908F0174
:1010B000F09090018091960190919701A0919801F4
:1010C000B0919901C82AD92AEA2AFB2ACFE1D0E0B7
:1010D000BC2ED701C6010C2E04C0B695A7959795D6
:1010E00087950A94D2F780FD0EC0219788F7B12C1E
:1010F0008B2DDF91CF911F910F91FF90EF90DF909B
:10110000CF90BF900895B8018C2F0E94D30501970E
:1011100061F3EECFCF93DF93EC010E944808BE014C
:10112000DF91CF910C94D3050E948A08292F2F704C
:1011300092959F7092509E3078F4E92FF0E0EA5E2D
:10114000F54E0C94B219803F19F020F4883E20F43B
:1011500081E00895843FE1F380E00895883EC0F384
:10116000813FD1F7F5CF822F869586958695089594
:10117000CF93DF93EC0180919E01811107C0809194
:10118000D301843029F0DF91CF9108958230C9F7DF
:1011900081E08093E9008FEF9091E800815095FD08
:1011A00006C095ED9A95F1F700008111F5CF809179
:1011B000E80085FFE8CF50E040E068E070E0CE0155
:1011C0000E9483028091E8008E778093E80088E097
:1011D000FE01A9ECB1E001900D928A95E1F7D3CF21
:1011E000882309F402C18238B9F40E94D70481FD32
:1011F000FCC089E30E94A7030E946D032FEF81EEDC
:1012000094E0215080409040E1F700C0000089E365
:101210000E949A030C946D038338A1F40E94D704B2
:1012200080FDE3C083E50E94A7030E946D032FEFBA
:1012300081EE94E0215080409040E1F700C0000032
:1012400083E5E6CF8438A1F40E94D70482FDCDC0A7
:1012500087E40E94A7030E946D032FEF81EE94E0C4
:10126000215080409040E1F700C0000087E4D0CFDB
:101270009CEF980F913A18F40E94A703CBCF90E20D
:10128000980F983068F4877021E030E001C0220F99
:101290008A95EAF780919401822B80939401BACFCA
:1012A0009BE5980F933070F4853A31F0863A39F027
:1012B00083E890E00C94C10481E890E0FBCF82E8E1
:1012C00090E0F8CF98E5980F973108F08EC0883AF3
:1012D00009F446C0893A09F446C08A3A09F446C07E
:1012E0008B3A09F446C08C3A09F446C08B3B09F4AA
:1012F00046C08C3B09F446C08D3A09F446C0803B99
:1013000009F446C08E3A09F446C08F3A09F446C043
:10131000813B09F446C0823B09F446C0833B09F493
:1013200046C0843B09F446C0853B09F446C0863B71
:1013300009F446C0873B09F446C0883B09F446C01F
:10134000893B09F446C08D3B09F446C08E3B09F445
:1013500046C08A3B09F446C090E080E00C94AB04A0
:1013600082EE90E0FBCF89EE90E0F8CF8AEE90E03D
:10137000F5CF85EB90E0F2CF86EB90E0EFCF83EBFB
:1013800090E0ECCF84EB90E0E9CF87EB90E0E6CF04
:101390008CEC90E0E3CF8DEC90E0E0CF83E891E03F
:1013A000DDCF8AE891E0DACF82E991E0D7CF84E916
:1013B00091E0D4CF81E292E0D1CF83E292E0CECF30
:1013C00084E292E0CBCF85E292E0C8CF86E292E061
:1013D000C5CF87E292E0C2CF8FE690E0BFCF80E733
:1013E00090E0BCCF8AE292E0B9CF08950F931F93AB
:1013F000CF93DF93C62FD42F022FFC018281882345
:10140000A1F060932A010E945B03909325018093D1
:101410002401C77081E001C0880FCA95EAF7DF9107
:10142000CF911F910F910C94A10410912A011613D2
:1014300038C080912401909125010E943103883C9D
:10144000910578F5C0E2CD0F1D17B9F080E2810F4C
:10145000883040F4177081E001C0880F1A95EAF7D0
:101460000E949604C83048F481E09D2F977001C017
:10147000880F9A95EAF70E94A104802F0E94F00835
:10148000802F0E94E304C83098F4D77081E001C037
:10149000880FDA95EAF7DF91CF911F910F910C94A5
:1014A0009604C77081E001C0880FCA95EAF7F3CFB0
:1014B000DF91CF911F910F910895CF9384E090E039
:1014C0000E94D219C82F81E290E00E94D219982F71
:1014D0008C2FCF91089590E080E00E94DA1921E0EE
:1014E0008C3E9E4F09F020E0822F0895982F990F8F
:1014F000990F990F80912C018770892B80932C0173
:10150000887F91E009F490E060912C0190FB60F9F4
:1015100060932C0186E090E00E94E01980912C01FC
:101520008695869586950C9439056CEE7EEF90E055
:1015300080E00E94FE1960E082E090E00E94E019E5
:1015400060E083E090E00E94E01910929601109212
:101550009701109298011092990160E084E090E068
:101560000E94E01960E081E290E00E94E01960E0F2
:1015700085E090E00E94E01960E086E090E00E9443
:10158000E0196FEF87E090E00E94E01940E050E042
:10159000BA0188E090E00E94F21960E08DE090E0EE
:1015A0000E94E01940E050E0BA0188E190E00E941A
:1015B000F21960E087E190E00E94E01940E050E01D
:1015C000BA018CE190E00E94F21960E080E290E0C4
:1015D0000E94E01940E050E0BA018FE090E00E94E4
:1015E000F21940E050E0BA0183E190E00C94F21966
:1015F0000E946B0A811102C00E94950A86E090E069
:101600000E94D21980932C01803220F0877088616B
:1016100080932C0190912C01892F817090FF04C040
:10162000892F8695869586950C943905109294019C
:10163000EEE1F1E086E0DF011D928A95E9F7109274
:101640009301109292010C946D031F93CF93DF933B
:10165000CDB7DEB7AA970FB6F894DEBF0FBECDBFE9
:1016600085ED91E02091F100FC012193CF01F1E0A3
:101670008D3D9F07B9F78091D601833009F46FC083
:10168000B8F4813009F446C0823009F4B0C08091CA
:10169000E80083FF6DC28091D5019091D6019A3008
:1016A00008F066C2E92FF0E0EC5DF54E0C94B2193B
:1016B0008A3009F48BC08B3009F46EC0893039F759
:1016C0008091D501813219F78091D9019091DA0189
:1016D000892BE9F68091E800877F8093E80080916C
:1016E000E80082FF37C09091F3008091F2000297EA
:1016F00029F48091F1008B7F813021F48091F100F9
:101700008093C8018091E8008B778093E8000E9465
:10171000AE02BDCF8091D501813A09F0B8CF80915A
:10172000E800877F8093E8008091D9019091DA01E9
:10173000892B61F468E089EC91E070E00E94CD02B1
:101740008091E8008B778093E800A1CF60E090E083
:1017500080E0F3CF8091D3018111C1CF98CF8091E8
:10176000D501813A09F093CF8091D9019091DA01A6
:10177000892B09F08CCF8091E800877F8093E80067
:101780008091E80080FFFCCF80910A018093F100F6
:101790008091E8008E77B9CF8091D501813209F030
:1017A00076CF8091D9019091DA01892B09F06FCF22
:1017B0008091E800877F8093E8000E94AE028091CC
:1017C000D70180930A010E94160B61CF8091D50149
:1017D000813209F05CCF8091E800877F8093E80038
:1017E0000E94AE028091D8018093C70150CF8091B2
:1017F000D501813A09F04BCF8091E800877F809333
:10180000E8008091E80080FFFCCF8091C701BECF47
:10181000803899F0823809F0ABC18091D9018F707E
:10182000873008F0A5C18093E9008091EB0085FB2B
:10183000882780F91092E90006C08091D10190912B
:10184000D201911182609091E800977F9093E80017
:101850008093F1001092F1008091E8008E7784C1AE
:10186000882309F472C1823009F082C18091D701C6
:10187000811175C18091D9018F702FEF280F26300B
:1018800008F076C18093E9002091EB0020FF67C14A
:10189000933031F48091EB0080628093EB005FC164
:1018A0009091EB0090619093EB0021E030E001C05B
:1018B000220F8A95EAF72093EA001092EA008091BD
:1018C000EB008860EACF811153C11091D7011F77D7
:1018D0008091E3008078812B8093E3008091E80081
:1018E000877F8093E8000E94AE028091E80080FF2D
:1018F000FCCF8091E30080688093E30082E01111C7
:1019000083E08093D30134C18058823008F030C125
:101910008091D7019091D8018C3D23E09207A1F5E9
:1019200083E08A838AE289834FB7F894DE011396B5
:1019300020E03EE051E2E32FF0E050935700E491C5
:1019400020FF03C0E295EF703F5FEF708E2F90E0B5
:10195000EA30C0F0C7968D939D932F5F243159F7DD
:101960004FBF8091E800877F8093E8006AE270E0D3
:10197000CE0101960E94CD028091E8008B77809382
:10198000E800F6C0C096E7CF4091D9015091DA0146
:10199000292F33272330310509F440C078F5213051
:1019A000310509F472C082E290E0E4E5F2E0223011
:1019B000310509F0DDC02091E800277F2093E80081
:1019C0002091DB013091DC018217930708F49C0120
:1019D00040E02115310509F05DC041115BC08091E7
:1019E000E80082FDC9CF8091D301882329F2853098
:1019F00019F28091E80083FFF2CFBECF213231058A
:101A000009F43BC02232310509F0B2C0452B09F080
:101A1000AFC080E490E0E4E1F2E0CDCF99278130DF
:101A20009105D9F0009771F082309105F1F003979C
:101A300009F09EC0E8E8F2E0E4918E2F90E0E8E83B
:101A4000F2E007C0ECEAF2E0E4918E2F90E0ECEADD
:101A5000F2E0009709F48CC0AECFE0EAF2E0E49146
:101A60008E2F90E0E0EAF2E0F4CFEEE8F2E0E491CD
:101A70008E2F90E0EEE8F2E0ECCF452B09F078C035
:101A800089E090E0E6E6F2E096CF82E190E0E6E7DA
:101A9000F2E091CF8091D301882309F46DCF853096
:101AA00009F46ACF8091E80083FD66CF8091E80059
:101AB00082FD95CF8091E80080FF8BCF9091F3005D
:101AC0008091F2002115310519F08830910550F010
:101AD00041E0089709F040E08091E8008E7780931C
:101AE000E80077CF44914093F100319621503109BD
:101AF0000196E8CF8038E1F58091E800877F8093F8
:101B0000E8008091D4018093F100A6CE811130C00D
:101B10001091D701123060F58091E800877F8093A3
:101B2000E8001093D4010E94AE02112311F084E06A
:101B300005C08091E30087FDFACF81E08093D30157
:101B400061EC81E00E94A10113C08091D701813036
:101B500079F481E0933009F080E08093D201109213
:101B6000E9008091E800877F8093E8000E94AE0240
:101B70008091E80083FF0AC08091E800877F80930E
:101B8000E8008091EB0080628093EB00AA960FB68C
:101B9000F894DEBF0FBECDBFDF91CF911F910895A6
:101BA0008F929F92AF92BF92CF92DF92EF92FF926D
:101BB0000F931F93CF93DF9300D000D00F92CDB738
:101BC000DEB77C01FC0183819481892B39F010817F
:101BD000D180812F8D218F3F09F03FC50F900F904D
:101BE0000F900F900F90DF91CF911F910F91FF9069
:101BF000EF90DF90CF90BF90AF909F908F9008951F
:101C00000E944808082F682F89819A810E94E80362
:101C1000E12FF0E02CE0D29EE00DF11D11243CE319
:101C2000039FE00DF11D1124EE0FFF1FE455FF4F40
:101C300005911491033F8CE5180709F490C028F52D
:101C4000083DECE51E0709F486C0093DFCE51F07C9
:101C500009F491C0073D2CE5120729F526E241EE73
:101C600061EEC7010F900F900F900F900F90DF91D2
:101C7000CF911F910F91FF90EF90DF90CF90BF9089
:101C8000AF909F908F900C94F609053F3CE51307A9
:101C900009F46DC008F467C027E245EE66EE063F22
:101CA0009CE51907F1F2F7018281882309F4E6C463
:101CB00010922A010631FCE51F0709F4F0C108F073
:101CC0005DC001303CE5130709F4F1C008F070C0B5
:101CD00001151C4509F4BCC0F7010081118188235E
:101CE00009F409C2C8010E944808D82E682FC8010B
:101CF0000E94E803B8018D2D0E94D3058C01882E27
:101D0000F701A580A2943FE0A322B280B110109207
:101D1000930180919101877079F0BB2069F080E296
:101D2000800F883048F082E00E9445048091910144
:101D30008770DD24D3948111D12CC12EC2942FE061
:101D4000C222FDE0FC1508F410C2EC2DF0E0E25DCB
:101D5000F54E0C94B21927E245EE65EE82CF26E2ED
:101D600041EE60EE7ECF27E245EE64EE7ACF26E2CA
:101D700041EE62EE76CF28E241E0EFCF0E3DFCE58A
:101D80001F0709F49DC068F40C3D3CE5130709F4F6
:101D9000AAC00D3D1C4509F09FCF82E080939E01B3
:101DA0001DCF98012A5F3C452930310508F094CFBA
:101DB000882309F491CF0E946B0A811102C00E940E
:101DC000950A0E945D0A9093A00180939F010031C3
:101DD0009CE5190709F432C108F0C5C00830FCE5DC
:101DE0001F0709F421C108F094C004303CE5130733
:101DF00009F412C108F07AC002309CE5190709F411
:101E000005C180919F01826003301C4509F401C126
:101E100060919F011091A00184E090E00E94E01980
:101E2000612F81E290E00E94E0190F900F900F90D7
:101E30000F900F90DF91CF911F910F91FF90EF9036
:101E4000DF90CF90BF90AF909F908F900C94160B27
:101E50000E94160BEFEFF4E32CE0E150F04020403D
:101E6000E1F700C0000081E08093E00080E2809311
:101E7000D8001092C9008FE19EE40197F1F700C0ED
:101E8000000087E090EBDC018093DD019093DE01A0
:101E9000A093DF01B093E00188E19CE00FB6F894D5
:101EA000A895809360000FBE90936000FFCF909143
:101EB000BB01892F8E7F90FF81608093BB018ECE06
:101EC0000F900F900F900F900F90DF91CF911F9177
:101ED0000F91FF90EF90DF90CF90BF90AF909F90C9
:101EE0008F900C94950A10929E0178CE80919F015C
:101EF00080610630FCE51F0709F48BC080919F01CB
:101F0000886007301C4508F484C080919F0180627E
:101F100080C080919F018D7F0C303CE5130709F450
:101F200078C070F480919F018C600A309CE519079D
:101F300009F46FC008F47CC080919F018E7F69C056
:101F400080919F01877F0E30FCE51F0709F461C077
:101F500080919F018B7F0F301C4508F45AC08091FF
:101F60009F018F7E56C00B3F3CE5130709F458C014
:101F700030F503319CE5190709F468C078F40131A4
:101F8000FCE51F0709F45EC002311C4509F040CF93
:101F90000E94160B80919F018F773BC005313CE575
:101FA000130709F45BC008F46FC08091A001816041
:101FB0000A3F1C4509F02CCF8093A00129CF0F3F89
:101FC000ECE51E0709F446C088F48091A0018D7FDE
:101FD0000D3F2CE5120781F38091A0018E7F0E3F0B
:101FE0001C4550F38091A0018360E6CF01308DE560
:101FF000180709F452C0F0F160E002301D4509F005
:1020000007CF8EE090E00E94E01902CF80919F01FF
:10201000816080939F01FCCE80919F018460F9CF05
:102020008091A0018260C8CF80919F018064F1CF30
:102030000E94160B80919F018068EBCF80919F01D9
:102040008F7DE7CF80919F018F7BE3CF80919F01B0
:10205000837FDFCF8091A0018C7FAECF80919F01E5
:1020600082FB992790F921E0922790FB82F990FB5F
:1020700083F9CFCF8091A001982F909591708E7F9A
:10208000892B90FB81F998CF0E94160B90919F01AC
:10209000892F97FB87F98058BCCF61E0B2CF809140
:1020A00094018A7A91E009F490E090932B018111D8
:1020B00016C089E20E94A7030F900F900F900F9017
:1020C0000F90DF91CF911F910F91FF90EF90DF90D4
:1020D000CF90BF90AF909F908F900C946D0385E34D
:1020E000E9CF80912B01811104C089E20E949A03FB
:1020F000E3CF85E3FBCFC8010E94C003D82EFACD01
:10210000212F2F70A22E107F19F0A29490EFA922F8
:10211000BB20C9F0AA2069F080E2800F883010F05F
:1021200081100BC080919401A82AA09294010E9472
:102130006D03802F0E94F00818C080919301A82A97
:10214000A0929301F4CF802F0E94E304AA2069F0AB
:10215000A094005E083010F0811037C08091940187
:10216000A822A09294010E946D03EC2DE850FF0B71
:10217000349710F40E94D704DD2009F42FCD80910C
:10218000910180FD2BCDF70112828595859585956E
:102190000E945D04C7010E94D00D80919101859538
:1021A000859585950F900F900F900F900F90DF9170
:1021B000CF911F910F91FF90EF90DF90CF90BF9044
:1021C000AF909F908F900C94220480919301A8224D
:1021D000A0929301C8CF312F3F70932E107F103201
:1021E00019F0929480EF9822882071F091E089167E
:1021F00061F1BB20B9F1AA2071F1F701858180FF5F
:1022000098CF8F70858327C0BB2091F09091950166
:10221000892D892BA11003C00E94A104A6CFE1E063
:10222000AE12FACF981709F4A0CF809395019DCFF5
:10223000A11006C00E946703892D0E94960495CFC5
:10224000F1E0AF1609F491CFF5CFBB2031F025E0D6
:102250002A1508F48ACF892DDFCF34E03A1508F427
:1022600084CFEACFAA2041F3093349F4FFEF27EEE8
:1022700033E0F15020403040E1F700C00000802FF3
:102280000E94E30472CF812F837009F066C0B11001
:102290006CCF802F829586958770880F880F602F6E
:1022A0006F70862E912CB12CA12C082E04C0880CA6
:1022B000991CAA1CBB1C0A94D2F740E050E0BA015A
:1022C00004FF0FC04FE050E060E070E004C0440F36
:1022D000551F661F771F8A95D2F7409550956095D8
:1022E0007095812F869586958370823019F1D8F488
:1022F00000919601109197012091980130919901D8
:10230000813069F0482959296A297B29CB01BA0112
:1023100060237123822393230E947E0426CF802A88
:10232000912AA22AB32ACB01BA01682979298A29DC
:102330009B29F2CF482959296A297B2900919601C6
:10234000109197012091980130919901CB01BA0128
:102350006027712782279327DFCF8695BB2011F056
:10236000812F8170882309F400CF802F8295869574
:102370008770880F880F602F6F70862E912CB12C7C
:10238000A12C082E04C0880C991CAA1CBB1C0A9402
:10239000D2F740E050E0BA0104FF0FC04FE050E038
:1023A00060E070E004C0440F551F661F771F8A95D8
:1023B000D2F74095509560957095812F86958695BA
:1023C0008370823019F1D8F400918D0110918E0143
:1023D00020918F0130919001813069F0482959296D
:1023E0006A297B29CB01BA016023712382239323BD
:1023F0000E941404BACE802A912AA22AB32ACB01C1
:10240000BA01682979298A299B29F2CF48295929B3
:102410006A297B2900918D0110918E0120918F01F5
:1024200030919001CB01BA01602771278227932751
:10243000DFCF1F70BB2029F0812F0E945D04802F09
:10244000EBCE802F0E949604812F0E9422048DCE15
:10245000802F92EF891609F450C0981578F0E0EFBC
:102460008E1619F1F1EF8F1609F43FC0BB2009F465
:1024700067C0A1105ECE812F8F713CC023EF821602
:1024800009F440C034EF8312F1CFBB2009F44DC0F2
:102490001F71812F0E945D04E8E01E9FC00111247E
:1024A000836080939101812F25C0BB20C9F084E017
:1024B0008A1508F45ACE1F7161E070E080E090E068
:1024C00004C0660F771F881F991F1A95D2F70091D5
:1024D0008D0110918E0120918F0130919001A4CF38
:1024E00095E09A1508F441CEE6CF812F8F71BB207D
:1024F00009F4ABCF0E945D0438CE812F8F71BB20D1
:10250000C9F3A3CF60E070E0CB01BB2009F470CF2A
:102510001F7161E070E080E090E004C0660F771FFB
:10252000881F991F1A95D2F763CF81E00E94450456
:10253000F1E0FA1508F019CE82E00E94450415CEAC
:10254000AA2059F0893309F09ACE2FEF37EE83E0B5
:10255000215030408040E1F790CE812F8F7175CFB0
:10256000B11003CE1F70123009F444C0B0F411232F
:1025700001F1113009F0F9CD80912C01982F987F4D
:1025800089F1885080932C01887F91E009F490E0D4
:1025900060912C0190FB60F91FC0143009F45BC0FE
:1025A00008F442C080E0153009F0DFCD0E94760AC1
:1025B000DCCD80912C01982F969596959695933029
:1025C00040F49F5F990F990F990F8770892B809323
:1025D0002C0160912C01616060932C0186E090E0F9
:1025E0000E94E01980912C018695869586950E941F
:1025F0003905BBCD60912C0160FF09C06E7F6093EF
:102600002C0186E090E00E94E01980E0F0CF60FDB0
:10261000ACCD616060932C01613019F489E0809346
:102620002C0160912C01DACF90912C01892F869595
:10263000869586958F5F8F719770843048F4880FE8
:10264000880F880F892B80932C0180912C019CCFBF
:1026500090932C01FACF83E0A9CF85E0DE0111969B
:1026600001900D928A95E1F7F701228189819A8183
:102670002111C6CA0E94C003082FCACA0631FCE550
:102680001F0709F42ECD60F401303CE5130709F46F
:10269000A5CA08F021CB01151C4509F49FCA1CCB23
:1026A0000E3DFCE51F0709F499CA08F015CB0C3D57
:1026B0003CE5130709F492CA0D3D1C4509F48ECA86
:1026C0000BCB1F93CF93DF9380913201807FC1F4B6
:1026D00080912F018823A1F080916401C091330182
:1026E00060912D0170912E01409130015091310186
:1026F000D62FD723DA01A095B09516E0C81304C0F1
:10270000DF91CF911F91089590E04115510511F08F
:10271000DF3F31F401968770F1CF2A0F3B1F17C0BE
:10272000189FF001199FF00D1124EC5CFE4F2181E0
:102730002713F0CF20812613EDCF22812111EACF7C
:10274000238134812417350740F3241B350B283CA3
:10275000310500F7209132012F7020612093320162
:1027600026E0289FF001299FF00D1124E75CFE4F21
:1027700080818F70806180838DE291E00E94D00D16
:10278000DF91CF911F910C948C04BF92CF92DF9276
:10279000EF92FF920F931F93CF93DF93CDB7DEB7E6
:1027A00061970FB6F894DEBF0FBECDBF8C0185E0F8
:1027B000F801DE011D9601900D928A95E1F7D8018E
:1027C0002C9111963C9111971296EC901297809152
:1027D000300190913101009709F463C140912D01BE
:1027E00050912E01642F65236F3F09F45AC113964F
:1027F000CD90DC90B0902F01BB2009F413C1C81616
:10280000D906C0F1F601E81BF90BCF01FF24F394C0
:10281000883C910508F0F12C80913201982F907F2F
:10282000FF2009F4C1C091117DC0FE2C531327C0B5
:10283000421325C0E11023C08F7080618093320164
:102840008DE291E00E94D00D80913201D801159661
:102850008C938F2D61960FB6F894DEBF0FBECDBF5F
:10286000DF91CF911F910F91FF90EF90DF90CF906C
:10287000BF900895809590958C0D9D1DC7CFCD2854
:1028800029F0822F83238F3F09F029C180E0B82FE0
:10289000B170DB2E80FF3CC0809164014091330118
:1028A00056E0841315C02D873E878D859E850E9436
:1028B0008A08292F22952F702230F0F0243018F545
:1028C0009F70F1F0F8019581907FD1F4D12C1EC05A
:1028D00090E0589FF001599FF00D1124EC5CFE4FE1
:1028E0006181361306C06081261303C06281E6123F
:1028F0000FC001968770D5CF9F7011F0882331F3F8
:10290000805E883018F3C8010E94D00DFD2CA1CF45
:10291000EE2009F49ECF80913201816080933201D4
:10292000F12C97CF531313C0421311C0E1100FC005
:10293000D80115968C93C8010E94D00D86E0F8014D
:10294000ADE2B1E001900D928A95E1F782CF2D873B
:102950003E878D859E850E949408882309F1EE208C
:10296000F9F080913201803270F020912D01309188
:102970002E0138872F831986DB86CA868C87CE0185
:1029800007960E94D00D86E0F801ADE2B1E001901B
:102990000D928A95E1F70E946113FF24F39459CFB9
:1029A000C8010E94D00DF9CF91110CC08DE291E0C9
:1029B0000E94D00D86E0EDE2F1E0DF011D928A95E4
:1029C000E9F747CF531312C0421310C0E1100EC0F5
:1029D000F8018583C8010E94D00DEDE2F1E086E0A8
:1029E000DF011D928A95E9F7FB2C33CF2D873E87B7
:1029F0008D859E850E949408882391F2EE2081F2B5
:102A000080913201803208F4BECF20912D013091A7
:102A10002E013A8329831B82DD82CC828E83CE01F4
:102A20000196AFCFC816D90640F0C81AD90AB8EC3B
:102A3000CB16D10448F0F12CBDCF809590958C0D2C
:102A40009D1D883C9105B8F7FE2CEE2009F4A8CF17
:102A5000531316C0421314C08091320180FD6ECF13
:102A6000982F907F09F46ACFF8018583903F09F48D
:102A700062CF982F907F905F8F70892B85835BCF7B
:102A80002D873E878D859E850E94940881117BCF7E
:102A900080913201816080933201C8010E94D00D83
:102AA000D8CEEE2009F47CCF2D873E878D859E857C
:102AB0000E949408F82E882309F472CF86E0F8016A
:102AC000ADE2B1E001900D928A95E1F780912D0180
:102AD00090912E010E948A080E946113BACE81E073
:102AE0008E25D5CE1F93CF93DF93CDB7DEB76797F3
:102AF0000FB6F894DEBF0FBECDBF4B8B5C8B6D8BDA
:102B00007E8B8F8B1A8A198A85E0FE017396DE010F
:102B10001D9601900D928A95E1F786E0FE013D96A3
:102B2000DE01179601900D928A95E1F7CE01079686
:102B30000E94C513811112C086E0FE013796DE01A6
:102B4000119601900D928A95E1F78A859B85892BD4
:102B500029F08F81988589238F3FB1F516E0809108
:102B600064019091330189131DC067960FB6F894E4
:102B7000DEBF0FBECDBFDF91CF911F91089596E0CC
:102B8000929FD001939FB00D1124AC5CBE4FFE010B
:102B9000319601900D929A95E1F7809333010E944E
:102BA0008C04DCCF819FC00111248C5C9E4F0E945D
:102BB000C5138823D1F28091640190E0019687705B
:102BC000992780936401CBCF2091330130E0C90174
:102BD000019687709927409164014817190679F684
:102BE0000E94160B109233011092640186E0EDE210
:102BF000F1E0DF011D928A95E9F7B0CF1F920F92A5
:102C00000FB60F9211242F933F934F935F936F93BF
:102C10007F938F939F93AF93BF93CF93DF93EF9364
:102C2000FF93D091E900DF708091EC00C82FC17054
:102C300080FDC0E81092E9008091F000877F8093CA
:102C4000F00078940E94250B1092E9008091F0002A
:102C500088608093F000CD2BCF70C093E900FF9186
:102C6000EF91DF91CF91BF91AF919F918F917F9124
:102C70006F915F914F913F912F910F900FBE0F90E9
:102C80001F9018951F920F920FB60F9211242F9339
:102C90003F934F935F936F937F938F939F93AF93E4
:102CA000BF93EF93FF938091E10082FF09C0809171
:102CB000E20082FF05C08091E1008B7F8093E100FC
:102CC0008091DA0080FF24C08091D80080FF20C06E
:102CD0008091DA008E7F8093DA008091D90080FFA6
:102CE000A0C080E189BD82E189BD09B400FEFDCFAD
:102CF00081E08093D3018091C601811109C00E94B7
:102D0000D3010E94F2018091E20084608093E2008E
:102D10008091E10080FF17C08091E20080FF13C026
:102D20008091E2008E7F8093E2008091E2008061DA
:102D30008093E2008091D80080628093D80019BC13
:102D400085E08093D3018091E10084FF2FC08091C2
:102D5000E20084FF2BC080E189BD82E189BD89B595
:102D6000982F917080FFFBCF8091D8008F7D80934A
:102D7000D8008091E1008F7E8093E1008091E20095
:102D80008F7E8093E2008091E20081608093E20078
:102D90008091D401882309F44AC084E08093D30150
:102DA0000E94160B0E94F80A0E94D7048091E1004D
:102DB00083FF26C08091E20083FF22C08091E10062
:102DC000877F8093E10082E08093D3011092D40149
:102DD0008091E1008E7F8093E1008091E2008E7F00
:102DE0008093E2008091E20080618093E20060E0E5
:102DF00080E00E94A1018091F00088608093F00043
:102E0000FF91EF91BF91AF919F918F917F916F91C2
:102E10005F914F913F912F910F900FBE0F901F9098
:102E2000189519BC1092D3011092C60171CF8091F0
:102E3000E30087FD93E09093D301B2CFCDB7DEB727
:102E40002C970FB6F894DEBF0FBECDBF84B7877F37
:102E500084BF0FB6F894A895809160008861809334
:102E60006000109260000FBE80E8809361001092B5
:102E7000610085B7806885BF85B7806885BF0E947F
:102E8000D3010E94F2018091E20084608093E2000D
:102E900078948091D3018823A1F01091E9001F70EC
:102EA0009091EC00892F817090FD80E8182B109292
:102EB000E9008091E80083FD0E94250B1F701093AC
:102EC000E90082E084BD93E095BD9AEF97BD8093C1
:102ED0006E00ABE0B1E061E070E08D91E82FE2952B
:102EE000EF70F0E041A18F709B0101C0220F8A9525
:102EF000EAF7922F9095942391A382A1822B82A32B
:102F000021E0A031B20749F7A0E1B1E061E070E053
:102F10008D91E82FE295EF70F0E041A18F709B0159
:102F200001C0220F8A95EAF7922F9095942391A3DE
:102F300082A1822B82A381E0AC31B80749F71092BD
:102F4000A7011092A6011092B1011092B001109247
:102F5000A9011092A8011092B3011092B20110922F
:102F6000AB011092AA011092B5011092B401109217
:102F7000AD011092AC011092B7011092B6011092FF
:102F8000AF011092AE011092B9011092B8010E94E7
:102F90006B0A811102C00E94950A279A2F988AE035
:102FA0008093800089E1809381008FEF9FEF909361
:102FB0008700809386000E94F80A6E9A769A0E9493
:102FC0006B0A811102C00E94950A82E090E00E9483
:102FD000D2198093BB010E945D0A9093A001809357
:102FE0009F0183E090E00E94D219682F70E090E08A
:102FF00080E00E947E040E94F80A80E091E09093B5
:10300000A2018093A10101E010E033243394552400
:103010005A94A6EAB1E0BC87AB872BE0E22E21E010
:10302000F22E712CEB85FC8580809180119211929B
:10303000FC87EB87D7018D917D01E82FE295EF703A
:10304000F0E091A18F70B80101C0660F8A95EAF790
:10305000892F862B81A382A1662E6094862182A36C
:10306000B0EABA95F1F790E1C92E91E0D92E30E09F
:1030700020E04B855C8542505109D6014D906D0191
:10308000842D82958F7090E0DC0190968C91DA010E
:10309000AD90BC9090E0B42DBF7002C0959587951F
:1030A000BA95E2F780FD63C0C801022E02C0880F06
:1030B000991F0A94E2F78A299B29DA0111969C93B9
:1030C0008E932F5F3F4F2C303105B9F681A16822D6
:1030D00061A282A1682B62A381E02D913C91281509
:1030E000390509F480E0782AEB85FC85E05BF14046
:1030F00009F098CF7720F1F13092A5010E945B038F
:103100009093A4018093A3018091A3019091A401C5
:103110000E943103069790F18091A6019091A7013A
:103120009093B1018093B0018091A8019091A90181
:103130009093B3018093B2018091AA019091AB0169
:103140009093B5018093B4018091AC019091AD0151
:103150009093B7018093B6018091AE019091AF0139
:103160009093B9018093B8011092A50107C090E037
:1031700080E0A1CF8091A5018111C6CFE0EBF1E005
:10318000ACEBB1E0F12CE12CBE2C219131914D91B1
:103190005D914217530709F440C090E080E0422758
:1031A00053276801082E02C0CC0CDD1C0A94E2F7FC
:1031B000BA016C217D21672B61F18983BA822C21B0
:1031C0003D2181E0232B09F480E08B830E945B0387
:1031D0008160782F9D838C8349815A816B818D8199
:1031E0000E947215F701EE0FFF1FE454FE4F80811D
:1031F0009181C826D926D182C0820E94D70490919D
:10320000BA01891709F405CF0E94D7048093BA0147
:1032100000CF01968C30910521F68FEFE81AF80A5D
:1032200095E0E916F10409F0AFCF5E825F8218865F
:103230000E945B038160782F9A8789874E815F8126
:1032400068858A850E947215D8CF78941F921FB620
:103250001F9211248F939F93AF93BF9380919A01F4
:1032600090919B01A0919C01B0919D010196A11D9F
:10327000B11D80939A0190939B01A0939C01B09300
:103280009D01BF91AF919F918F911F901FBE1F9085
:1032900018951F921FB61F9211248F939F93AF937F
:1032A000BF9380919A0190919B01A0919C01B09154
:1032B0009D014196A11DB11D80939A0190939B01A0
:1032C000A0939C01B0939D01BF91AF919F918F916D
:1032D0001F901FBE1F901895DB018F939F930E9434
:1032E000C719BF91AF91A29F800D911DA39F900D13
:1032F000B29F900D11240895AA1BBB1B51E107C07A
:10330000AA1FBB1FA617B70710F0A61BB70B881F75
:10331000991F5A95A9F780959095BC01CD01089504
:10332000A1E21A2EAA1BBB1BFD010DC0AA1FBB1FC9
:10333000EE1FFF1FA217B307E407F50720F0A21B3B
:10334000B30BE40BF50B661F771F881F991F1A94A8
:1033500069F760957095809590959B01AC01BD01D2
:10336000CF010895EE0FFF1F0590F491E02D099411
:10337000A29FB001B39FC001A39F700D811D1124B6
:10338000911DB29F700D811D1124911D08950E9401
:10339000B819A59F900DB49F900DA49F800D911D0D
:1033A00011240895F999FECF92BD81BDF89A99270D
:1033B00080B50895A8E1B0E042E050E00C94061A10
:1033C000262FF999FECF92BD81BDF89A019700B4DE
:1033D000021639F01FBA20BD0FB6F894FA9AF99A7E
:1033E0000FBE08950396272F0E94E1190E94E0194D
:1033F000252F0E94E119242F0C94E1190196272F03
:103400000E94E1190C94E019DC01CB01FC01F9994F
:10341000FECF06C0F2BDE1BDF89A319600B40D9220
:1034200041505040B8F70895F894FFCFA308A3087F
:10343000AC08AC08AE08AC08AC08AC08A308A308FC
:10344000B308AC08AC08B308080C300CB80D300C4D
:10345000B80D630C840CB80D7A0D860D80108010A9
:10346000EB10EB10B510B510B510B51043111912D3
:0834700028122812B510B01259
:103478002E03B8082D032B032C03019295353693A0
:0C348800F1F03067F4F5F6F794963497F5
:00000001FF
