:100000000C94C9020C9410030C9410030C9410036C
:100010000C9410030C9410030C9410030C94100314
:100020000C9410030C9410030C94851E0C94C11DA9
:100030000C94DE270C9410030C9410030C94100302
:100040000C9410030C9410030C9410030C941003E4
:100050000C9410030C9482270C9410030C9410033E
:100060000C9410030C9410030C9410030C941003C4
:100070000C9410030C9410030C9410030C941003B4
:100080000C9490080C9410030C9410030C9410031F
:100090000C9410030C9410030C9410030C94100394
:1000A0000C9410030C9410030C94100339045004A6
:1000B00073046D057A06B905EA053006EB14EB14F6
:1000C0002815281578152F182F182F18981586160B
:1000D000981698162F182B17D01BF71BA31DF71B6C
:1000E000A31D431C661CA31D6B1D7A1DEE23EE236E
:1000F00001240124F723012401240124EE23EE230B
:10010000FC2301240124FC2307634236B79BD8A7B4
:100110001A39685618AEBAAB558C1D3CB7CC57632C
:10012000BD6DEDFD753EF6177231BF000000803FDA
:1001300008000000BE922449123EABAAAA2ABECDF6
:10014000CCCC4C3E00000080BEABAAAAAA3E000068
:100150000000BF000000803F000000000008417860
:10016000D3BB4387D1133D190E3CC3BD4282AD2B97
:100170003E68EC8276BED98FE1A93E4C80EFFFBE8F
:1001800001C4FF7F3F0000000000617564696F20BB
:10019000706C6179206E6F746520667265713D25A3
:1001A0006420766F6C3D256400617564696F20730F
:1001B000746F70206E6F746520667265713D256482
:1001C00000617564696F2073746F7020616C6C20BE
:1001D0006E6F74657300165C1E001F002000210006
:1001E00022002300240025002600270031002B00D8
:1001F00014001A000800150017001C0018000C005D
:10020000120013002A00390004001600070009003C
:100210000A000B000D000E000F0033003400E10057
:100220001D001B000600190005001100100036001B
:10023000370038002800E000E3006500E2000251CA
:100240002C002C0001515000520051004F000000C2
:10025000000000000000000000000000000000009E
:10026000000000000000000000000000000000008E
:10027000000000000000000000000000000000007E
:10028000000000000000000000000000000000006E
:100290000000000000000000BF5CBE5CBD5C000010
:1002A000000000000000000000000000000000004E
:1002B000000000000000000000000000010000003D
:1002C0000000000000003A003B003C003D003E0002
:1002D0003F00400041004200430044004500000050
:1002E000000000000000000000000000000000000E
:1002F000000000004C0000000000000000000000B2
:1003000000000000000000000000000000000000ED
:1003100000000000000000000000000000000000DD
:1003200000000100010000000000000000000100CA
:100330000000000000000000010001000100444531
:100340004255473A2064697361626C65642E0A0005
:1003500044454255473A20656E61626C65642E0AD9
:10036000006261636B6C6967687420696E637265B3
:100370006173653A2025750A006261636B6C696779
:1003800068742064656372656173653A2025750A37
:10039000006261636B6C6967687420646973616291
:1003A0006C650A006261636B6C6967687420656ED6
:1003B00061626C650A006261636B6C6967687420D6
:1003C000746F67676C653A2025750A006261636B1C
:1003D0006C6967687420737465703A2025750A002B
:1003E0000631FF0974A1010975150026FF0095204B
:1003F000750881020976150026FF00952075089181
:1004000002C005010980A10185031A81002A830029
:10041000160100260300950175108100C0050C0926
:1004200001A10185041A01002A9C02160100269CE4
:1004300002950175108100C005010906A10105079B
:1004400019E029E71500250195087501810295013C
:10045000750881010507190029FF150026FF009581
:100460000675088100050819012905950575019192
:1004700002950175039101C05B435D005B445D0023
:100480005B535D005B575D005B525D0009025B00E2
:10049000030100A0FA090400000103010100092181
:1004A000110100012240000705810308000A090428
:1004B00001000103000000092111010001223600A2
:1004C0000705820320000A0904020002030000005D
:1004D00009211101000122220007058303200001E8
:1004E000070503032000011201100100000008EDC0
:1004F000FE616002000102030104033000000010ED
:10050000035000720065006F006E00690063000018
:10051000000A034F004C004B004200000004030996
:10052000040A002530313662003A20002530325866
:10053000000A722F63203031323334353637383980
:100540004142434445460A000A0025303258006BB8
:100550006579626F6172645F7365745F6C65643A3C
:1005600020005B735D004B6579626F61726420737C
:10057000746172742E0A000A002530325820006B14
:100580006579626F6172645F7265706F72743A2030
:10059000000011241FBECFEFDAE0DEBFCDBF04B6EE
:1005A00003FE27C08091590590915A05A0915B05E3
:1005B000B0915C058730904BA740B04BD1F41092BE
:1005C000590510925A0510925B0510925C0514BEF5
:1005D00084B7877F84BF0FB6F894A8958091600098
:1005E000886180936000109260000FBEE0E0F8E345
:1005F000099514E0A0E0B1E0E6E2F0E602C0059063
:100600000D92AA31B107D9F725E0AAE1B4E001C003
:100610001D92A935B207E1F70E94AF210C94113069
:100620000C940000FF93EF93E0911A04F0911B04E7
:10063000309709F00995EF91FF910895FC0185919C
:10064000803011F0EFDFFBCF0895FF27E0E230E2CA
:1006500047FF0CC0419597FF09C0EDE2609570958A
:1006600080959095611D711D811D911D27FF02C010
:10067000219530E350E2AA27660F771F881F991F44
:10068000AA1FA41710F0A41B63955A95A9F7AA30C6
:1006900008F0A95FA05DAF93F39561157105810521
:1006A000910541F7ED3211F4EF93F395F21718F439
:1006B0003F93F395FBCF8F91B5DFFA95E1F708955E
:1006C000E991F9918591803021F0853219F0AADF06
:1006D000F9CF089520E0E89455915532C1F3503395
:1006E00011F4689455915A3348F4505390F3220F03
:1006F000022E220F220F200D250FF4CF0EF421958C
:1007000089919991533619F3533729F1533559F19A
:10071000BC0188279927E8945C3621F48991999146
:1007200068945591543639F446EF7EF077FF0DC04A
:100730008FEF9FEF0AC055374AE039F0583540E156
:1007400021F0523642E009F00895FF93EF937DDFE8
:10075000EF91FF91B7CFFF93EF93FC018191803030
:10076000B9F360DFFBCFFF93EF9368DFF1CFDF9347
:10077000CF93CDB7DEB72596A3DFCF91DF91089554
:100780009091C50492FF0DC0282F2871283019F4CC
:10079000877F846006C0282F2471243011F48B7F5A
:1007A000886093FF0DC0282F2871283119F4877EA7
:1007B000846106C0282F2471243111F48B7E886156
:1007C0002091C60420FF0DC0382F3871383019F43D
:1007D000877F816006C0382F3171313011F48E7FF0
:1007E000886021FF0DC0282F2871283119F4877ED9
:1007F000816106C0282F2171213111F48E7E88611C
:1008000094FD877E08958F929F92AF92BF92CF9270
:10081000DF92EF92FF92CF93DF936B017C01C09147
:100820006204D0916304BE0180E090E00E94CA2C73
:100830004B015C01A701960160E070E08CE594E457
:100840000E94222C9B01AC01C501B4010E94E32D42
:100850000E949B2C9B01E0916A048E2E912C48E013
:100860008416910408F046C2F401EA5AFF4F0C9432
:100870000B301092400180E090E0A0E0BFE3809355
:100880003C0190933D01A0933E01B0933F01109233
:100890005E0410925F0410926004109261042AC2F8
:1008A0001092400110925E0410925F041092600456
:1008B000109261046431710528F46A30710508F4FE
:1008C00053C104C0693C710508F04EC180E090E05E
:1008D000A0E8BEE380933C0190933D01A0933E01CC
:1008E000B0933F0107C21092400110925E04109233
:1008F0005F04109260041092610420E030E040EA4E
:1009000052E4C701B6010E941D2C87FDF3C120E00F
:1009100030E040E253E4C701B6010E941D2C87FF7E
:1009200030C00E94FB2A68E270E00E94F72FBC01F1
:10093000645C7F4F072E000C880B990B0E94CC2C17
:100940006B017C0180916204909163048B3091056E
:1009500008F4BEC08531910508F079C165E170E009
:10096000681B790B80E090E00E94CA2C20E030E008
:1009700040E05FE30E94E32D20E030E040E251E4FC
:1009800039C020E030E040EA53E4C701B6010E94DC
:100990001D2C87FF3AC00E94FB2A68EE73E00E947C
:1009A000F72FBC0168517C4F072E000C880B990B68
:1009B0000E94CC2C6B017C018091620490916304B5
:1009C0008630910508F484C08531910508F03FC157
:1009D00065E170E0681B790B80E090E00E94CA2C12
:1009E00020E030E040E05FE30E94E32D20E030E0D3
:1009F00040E751E40E94222C60933C0170933D013A
:100A000080933E0190933F0175C120E030E040E2C9
:100A100054E4C701B6010E941D2C87FF30C00E941C
:100A2000FB2A60ED77E00E94F72FBC016854744FF9
:100A3000072E000C880B990B0E94CC2C6B017C01BB
:100A400080916204909163048031910508F440C064
:100A50008531910508F0FBC065E170E0681B790BFA
:100A600080E090E00E94CA2C20E030E040E05FE3AC
:100A70000E94E32D20E030E040EA50E4BBCF20E0CC
:100A800030E040EA54E4C701B6010E941D2C87FF04
:100A900031C10E94FB2A60ED77E00E94F72FBC0174
:100AA0006854744F072E000C880B990B0E94CC2CB5
:100AB0006B017C0180916204909163048432910502
:100AC00038F08333910508F0C2C063E370E082CF51
:100AD00080E090E0A0E0BFE3FDCE41E04093400124
:100AE00010925E0410925F041092600410926104F0
:100AF0006431710540F46A30710560F520E030E042
:100B000040E85EE32BC0693C710508F0A0C080E0BE
:100B100090E00E94CA2C20E030E040EA51E40E94BC
:100B2000B02B20E030E044E353E40E94222C9B01F0
:100B3000AC010E94E32D20E030E040E05EE30E9443
:100B4000E32D9B01AC0160E070E080E09EE30E9439
:100B5000B02B52CF20E030E040E05FE3C701B601A8
:100B60000E94E32D6B017C0180E090E0A0E0BEE3F9
:100B7000B1CE21E02093400110925E0410925F04F8
:100B800010926004109261044AE0469F9001479FD2
:100B9000300D1124C90168EB7BE00E94E32FBC01FA
:100BA0006C5D754077FF03C0719561957109072EE3
:100BB000000C880B990B0E94CC2C2EE333EC4EE2F8
:100BC00059E30E94E32D20E030E040EC5EE30E9418
:100BD000B12B12CF81E08093400110925E041092FD
:100BE0005F041092600410926104CE018370992713
:100BF000892BE1F0BE016170772780E090E00E94D0
:100C0000CA2C20E030E040E05EE30E94E32D20E0CB
:100C100030E040E45FE30E94B12B60933C017093AD
:100C20003D0180933E0190933F010CC080E090E035
:100C3000A0E0BFE380933C0190933D01A0933E016F
:100C4000B0933F01C770DD27CD2B09F053C0109240
:100C50003C0110923D0110923E0110923F014AC0AA
:100C600041E04093400110925E0410925F041092A4
:100C7000600410926104812C912CA12C9FE3B92E69
:100C800080923C0190923D01A0923E01B0923F01C2
:100C90002739310578F180E090E00E94CA2C20E0ED
:100CA00030E047E153E40E94B02B20E030E04AE717
:100CB00054E40E94222C20E030E048E452E40E94F8
:100CC000E32D20E030E040EA51E40E94122D0E9422
:100CD000942C660F771F660F771FFB01E655FC4FBC
:100CE0002081318142815381C701B6010E94E32DE9
:100CF0006B017C01C701B601DF91CF91FF90EF90AE
:100D0000DF90CF90BF90AF909F908F9008951F93EA
:100D1000CF93DF93CDB7DEB767970FB6F894DEBFFA
:100D20000FBECDBF4B8B5C8B6D8B7E8B8F8B86E02C
:100D30009E01235F3F4FD901E82F1D92EA95E9F705
:100D400095E0FE017396D90101900D929A95E1F715
:100D5000F901DE01179601900D928A95E1F7CE0117
:100D600007960E940524811136C086E0FE01379661
:100D7000DE01119601900D928A95E1F77F816885D9
:100D8000EA85FB85309739F16F3F11F47F3F19F108
:100D90002091EE0430E0C9010196877099274091B7
:100DA0001F0550E08417950779F179836A83FD83E5
:100DB000EC8396E0929FD001939FB00D1124A15136
:100DC000BB4FFE01319601900D929A95E1F7809309
:100DD000EE040E944A2A16E080911F059091EE04CD
:100DE000891701F1189FC001112481519B4F0E9466
:100DF00005248823B9F080911F0590E00196877043
:100E0000992780931F05E8CF0E94D1251092EE0408
:100E100010921F05E8EEF4E086E0DF011D928A954E
:100E2000E9F7D9CF67960FB6F894DEBF0FBECDBFF6
:100E3000DF91CF911F91089520916804309169044A
:100E40008217930771F09093690480936804E0918E
:100E5000C704F091C804309721F00084F185E02D9B
:100E600009940895209166043091670482179307CE
:100E700071F09093670480936604E091C704F09149
:100E8000C804309721F00680F781E02D0994089579
:100E9000E091C704F091C804309721F00190F081EF
:100EA000E02D099480E008950F931F93CF93DF9373
:100EB000C62FD42F022FFC0182818823C9F06093B2
:100EC00084040E94D227909365048093640480E296
:100ED0008C0F883008F05EC0C77081E001C0880FB9
:100EE000CA95EAF7DF91CF911F910F910C94E725F6
:100EF0001091840416133EC080916404909165049F
:100F00000E94A827883C9105A8F5C0E2CD0F1D17C7
:100F1000B9F080E2810F883040F4177081E001C0A1
:100F2000880F1A95EAF70E94DC25C83048F481E062
:100F30009D2F977001C0880F9A95EAF70E94E725C8
:100F4000802F0E944D26093349F4FFEF27EE83E0FE
:100F5000F15020408040E1F700C00000802F0E9447
:100F6000F125C830B8F4D77081E001C0880FDA9558
:100F7000EAF70AC080E28C0F883060F4C77081E025
:100F800001C0880FCA95EAF7DF91CF911F910F91A9
:100F90000C94DC25DF91CF911F910F910895CF9292
:100FA000DF92EF92FF92843030F4811105C090916E
:100FB0008000977F04C083E09091800098609093B8
:100FC0008000282F30E0AFEFBFEF0E94A12B23E07D
:100FD00030E040E050E00E947F2B2C3784E138075E
:100FE0004105510530F4C90169E070E00E94E32F2A
:100FF00029C0DA01C9018A50974DAF4FBF4F66270C
:10100000782F892F9A2F25EF38E241E050E00E9497
:101010007F2B69017A01CA01B9010E94C72F9B0188
:10102000AC01C701B6010E94C72FBB27A92F982F7B
:10103000872F009721E0A207B10511F0BC0102C083
:101040006FEF7FEF70938D0060938C00FF90EF90B7
:10105000DF90CF900895843008F083E0880F880FE8
:10106000880F909186049770892B80938604887FDF
:1010700091E009F490E06091860490FB60F9609340
:10108000860486E090E00E94192B80918604869564
:10109000869586950C94CF070E943E28811102C048
:1010A0000E94492886E090E00E940B2B80938604E2
:1010B000282F26952695269530E02430310524F0FA
:1010C00087708861809386048091860480FF04C0C5
:1010D00086958695869501C080E00C94CF0781E0C7
:1010E0008093820468E070E081EC91E00C94511AE6
:1010F00081E08093830468E070E081E491E00C94E7
:10110000511A6091B70461606093B70487E090E082
:101110000E94192B62E070E08CE191E00C94511A6E
:101120001F920F920FB60F9211244F925F926F92FF
:101130007F928F929F92AF92BF92CF92DF92EF9267
:10114000FF922F933F934F935F936F937F938F9370
:101150009F93AF93BF93CF93DF93EF93FF938091D0
:10116000B604882309F4ABC1C0915C04D0915D043E
:101170001C161D060CF0A3C140905E0450905F0445
:10118000609060047090610420E030E0A901C30128
:10119000B2010E94DE2D18160CF065C0C130D105D9
:1011A00009F452C080915A0490915B04BE010E94E0
:1011B000F72F7C0190935B0480935A048090AC04D9
:1011C0009090AD04A090AE04B090AF0420E030E069
:1011D00040E85FE3C501B4010E94B12B6093AC0409
:1011E0007093AD048093AE049093AF04F701EE0FBB
:1011F000FF1FEE0FFF1FE65CFB4FA3019201608112
:101200007181828193810E94222C20E030E040E0B5
:101210005EE30E94E32D9B01AC01C501B4010E9475
:10122000DE2D18168CF4C7010196BE010E94F72F1F
:1012300090935B0480935A041092AC041092AD0416
:101240001092AE041092AF04E0915A04F0915B0446
:10125000EE0FFF1FEE0FFF1FE65CFB4F60817181F9
:1012600082819381E0C0809140012197882309F415
:10127000BFC0C0903604D0903704E0903804F0909E
:10128000390420E030E0A901C701B6010E941D2CFD
:10129000882309F4A2C0FE01EE0FFF1FEE0FFF1F0F
:1012A000E65CFB4F80809180A280B380A501940111
:1012B000C701B6010E941D2C87FF31C0A501940112
:1012C00060E070E08CED93EC0E94222C20E030E096
:1012D00040E451E40E94222C20E030E040E05FE353
:1012E0000E94E32D9B01AC0160E070E080E090E49F
:1012F0000E94502E9B01AC01C501B4010E94E32D58
:101300009B01AC01C701B6010E941D2C87FF07C0DD
:10131000A701960160E070E08CED93E439C0A5016F
:101320009401C701B6010E94DE2D18160CF055C0BD
:10133000A501940160E070E08CED93E40E94222C02
:1013400020E030E040E451E40E94222C20E030E034
:1013500040E05FE30E94E32D9B01AC0160E070E0A0
:1013600080E090E40E94502E9B01AC01C501B401C5
:101370000E94E32D9B01AC01C701B6010E94DE2D46
:1013800018165CF5A701960160E070E08CED93EC17
:101390000E94222C20E030E040E451E40E94222C04
:1013A00020E030E040E05FE30E94E32D9B01AC01D0
:1013B00060E070E080E090E40E94502E9B01AC0160
:1013C000C701B6010E94E32D609336047093370481
:1013D00080933804909339041EC0CC0FDD1FCC0FCE
:1013E000DD1FC65CDB4F88819981AA81BB810BC060
:1013F000FE01EE0FFF1FEE0FFF1FE65CFB4F80812B
:101400009181A281B3818093360490933704A09395
:101410003804B09339046091360470913704809198
:1014200038049091390420916204309163042F3F75
:101430004FEF340731F02F5F3F4F30936304209319
:1014400062040E9403046B017C0120E034E244EF5B
:1014500051E40E941D2C87FF08C046EFC42E48E2CD
:10146000D42E44EFE42E41E4F42E20E030E040E0BE
:1014700051E4C701B6010E94E32D9B01AC0160E07D
:1014800074E284E79BE40E94222C6B017C010E94A1
:101490009B2C709397006093960020913C013091B3
:1014A0003D0140913E0150913F01C701B6010E94AC
:1014B000E32D0E949B2C709399006093980080917B
:1014C000B504882309F441C1C090A604D090A704B4
:1014D000E090A804F090A90420E030E0A901C70141
:1014E000B6010E94DE2D1816D4F580916204909109
:1014F00063048F3F2FEF920729F0019690936304C6
:1015000080936204C701B6010E94030420E030E02A
:1015100040E051E40E94E32D9B01AC0160E074E2E5
:1015200084E79BE40E94222C6B017C010E949B2C8F
:10153000709397006093960020913C0130913D019B
:1015400040913E0150913F01C701B6010E94E32D39
:101550000E949B2C709399006093980008C0109291
:101560009700109296001092990010929800609146
:10157000A0047091A1046F5F7F4F7093A1046093EA
:10158000A004209196003091970080E090E0232BFA
:1015900071F12091350421112AC0C0919600D0919B
:1015A00097000E94CA2C6B017C01BE0180E090E094
:1015B0000E94CA2C9B01AC016091A2047091A3040B
:1015C0008091A4049091A5040E94222C20E03FEF7A
:1015D0004FE757E40E94E32D20E030E040E85FE36E
:1015E0000E94B02B9B01AC01C701B6010AC00E944A
:1015F000CA2C2091A2043091A3044091A4045091DC
:10160000A5040E94DE2D87FDA0C08091AA049091C0
:10161000AB0401969093AB048093AA042091B1048B
:101620003091B20482179307B0F08091B004882300
:1016300029F01092AB041092AA040DC080917100A1
:101640008D7F80937100809190008F7380939000C4
:101650001092B50482C0209135048091AA04909123
:10166000AB04E091B304F091B40421113FC021E038
:10167000209335049C01215031093093AB04209311
:10168000AA0433E0880F991F3A95E1F7E80FF91F94
:10169000DF011897CD90DD90ED90FC902081318195
:1016A00042815381C701B6010E941D2C811109C0DE
:1016B0001092A6041092A7041092A8041092A904F4
:1016C00008C0C092A604D092A704E092A804F092A9
:1016D000A90480E090E0A0E8BFE38093A204909387
:1016E000A304A093A404B093A5042BC010923504C6
:1016F000109263041092620423E0880F991F2A95C8
:10170000E1F7E80FF91F80819181A281B381809375
:10171000A6049093A704A093A804B093A90420E082
:1017200030E040E85EE364817581868197810E94A4
:10173000E32D6093A2047093A3048093A404909378
:10174000A5041092A1041092A0048091B70480FD1A
:1017500004C01092B5041092B604FF91EF91DF918E
:10176000CF91BF91AF919F918F917F916F915F9139
:101770004F913F912F91FF90EF90DF90CF90BF90CE
:10178000AF909F908F907F906F905F904F900F9051
:101790000FBE0F901F9018950E943E28811102C025
:1017A0000E94492887E090E00E940B2B8093B704A9
:1017B0008091B804811129C03E9A809171008D7F7B
:1017C0008093710082E0809390008AE18093910081
:1017D00081EC91E1909397008093960023EA3BE09F
:1017E0004EE855E460913C0170913D0180913E01CD
:1017F00090913F010E94E32D0E949B2C70939900D1
:101800006093980081E08093B8048091B70480FFD2
:1018100006C063E070E084E091E00C94511A0895F2
:101820008091D50480FF08C081EC91E09F938F9355
:101830000E94B7030F900F908091B804811102C0ED
:101840000E94CC0B10925D0410925C048091710098
:101850008D7F80937100809190008F7380939000B2
:101860001092B5041092B604109236041092370408
:1018700010923804109239041092310410923204FC
:1018800010923304109234041092300410922F04FA
:10189000EAE3F4E0AFE1B4E01192119211921192F7
:1018A0001D921D9284E0EA35F807B1F70895809102
:1018B000830481110C94100C08950E94570C10920F
:1018C000830468E070E081E891E00C94511A62E0D2
:1018D00070E08CE291E00E94511A2FEF81EE94E0CB
:1018E000215080409040E1F700C000000E94100CA1
:1018F0006091B7046E7F6093B70487E090E00C942A
:10190000192BCF92DF92EF92FF920F931F93CF93F9
:10191000DF93682F70E065547109072E000C880B67
:10192000990B0E94CC2C20E030E040E451E40E946E
:10193000222C9B01AC0160E070E080E090E40E940A
:10194000502E20E030E04CED53E40E94E32D6B017B
:101950007C018091D50480FF10C0C701B6010E94B0
:10196000942C7F936F9389EA91E09F938F930E94C9
:10197000B7030F900F900F900F908091B6048823BB
:1019800009F48AC08091B804811102C00E94CC0B76
:101990000AE514E0C7E0D0E0A7019601F8019291B2
:1019A0008291729162918F010E941D2C811131C030
:1019B000FE01EE0FFF1FEE0FFF1FE65CFB4F1082D4
:1019C000118212821382DE01AA0FBB1FA15EBB4FE0
:1019D00011961C921E92C730D105E9F021964481E0
:1019E000558166817781408351836283738314823A
:1019F00015821682178212968D919C9113971196DB
:101A00009C938E9313961C921E9212973496129664
:101A1000E2CF219708F680915C0490915D040197D4
:101A200097FD05C090935D0480935C0404C0109200
:101A30005D0410925C0480915C0490915D0420919F
:101A40005A0430915B042817390724F010925B0484
:101A500010925A04892B01F5809171008D7F80933B
:101A60007100809190008F738093900010923604E3
:101A700010923704109238041092390410923104F5
:101A800010923204109233041092340410923004F5
:101A900010922F041092B604DF91CF911F910F91F5
:101AA000FF90EF90DF90CF900895CF92DF92EF926A
:101AB000FF92682F70E065547109072E000C880BA7
:101AC000990B0E94CC2C20E030E040E451E40E94CD
:101AD000222C9B01AC0160E070E080E090E40E9469
:101AE000502E20E030E04CED53E40E94E32D6B01DA
:101AF0007C018091D50480FF15C01F928FE08F93E9
:101B0000C701B6010E94942C7F936F938AE891E0FD
:101B10009F938F930E94B7030F900F900F900F9099
:101B20000F900F908091B804811102C00E94CC0BDD
:101B30008091B70480FF48C080915C0490915D045F
:101B400008970CF041C0809171008D7F80937100E7
:101B50008091B50481110E94100C81E08093B6043D
:101B6000109263041092620420E030E0A901C701E2
:101B7000B6010E94DE2D1816ECF480915C04909161
:101B80005D04FC01EE0FFF1FEE0FFF1FE65CFB4F35
:101B9000C082D182E282F382FC01EE0FFF1FE15E80
:101BA000FB4F2FE030E031832083019690935D045A
:101BB00080935C04809171008260809371008091B9
:101BC0009000806880939000FF90EF90DF90CF901E
:101BD00008955F926F927F928F929F92AF92BF9281
:101BE000CF92DF92EF92FF920F931F93CF93DF93E9
:101BF00009E014E0ABEBB4E0612CEE24E394F12CAB
:101C00005D018D909C90119711961C921E92E80197
:101C100089918E01E82FE295EF70F0E091A18F702D
:101C2000970101C0220F8A95EAF7892F822B81A3A1
:101C300082A1522E5094852182A3D0EADA95F1F741
:101C40008EE0C82E84E0D82E80E090E0E601799006
:101C50006E01472D42954F7050E0EA0148A16D9109
:101C60007C91119750E0D72DDF7002C055954795B4
:101C7000DA95E2F740FD08C0A701082E02C0440F24
:101C8000551F0A94E2F702C040E050E0642B752B28
:101C900011967C936E9301968C309105B9F681A1D3
:101CA000D52DD823D1A382A1282B22A3129681E07F
:101CB000F501208131818216930609F480E0682ABB
:101CC000F4E0A53CBF0709F09BCF662049F081E016
:101CD00080931E040E94D22790931D0480931C04BD
:101CE00080911E04882391F180911C0490911D0421
:101CF0000E94A827069750F18091BB049091BC04E4
:101D00009093CB048093CA048091BD049091BE044B
:101D10009093CD048093CC048091BF049091C00433
:101D20009093CF048093CE048091C1049091C2041B
:101D30009093D1048093D0048091C3049091C40403
:101D40009093D3048093D20410921E0480917F0458
:101D5000882309F441C080917B0490917C04009712
:101D600081F40E94D22790937C0480937B0420917D
:101D70007D0430E02115310571F480917E0490E0FE
:101D80000BC00E94A827209102033091030328175B
:101D9000390738F321C0C9010197FC01E559FB4F10
:101DA0008081F901E559FB4FD08190918304911115
:101DB0000E94810C80918304882319F08D2F0E944A
:101DC000550D80917D0490E0019660917E0470E055
:101DD0000E94F72F80937D04862DDF91CF911F9174
:101DE0000F91FF90EF90DF90CF90BF90AF909F90BA
:101DF0008F907F906F905F900895CF93DF934CE02A
:101E0000749F900111249CE3899F200D311D1124A2
:101E1000260F311D220F331F2A523E4FF901C59163
:101E2000D491CE01C238D10569F1B0F4C133D105E6
:101E300009F475C048F4C932D10509F469C0CA3241
:101E4000D10509F473C079C0C533D10509F459C06F
:101E5000C933D105B9F071C0C33ED10571F138F471
:101E6000C03ED105B1F0C23ED10511F166C0C63EFB
:101E7000D105B9F1C73ED105C9F1C43ED10509F07C
:101E80005CC024C02091C50420FD53C221FD51C275
:101E900055C22091C50420FD46C22091C60420FFF2
:101EA0004DC28091C50484FDF0C183EE90E046C22E
:101EB0002091C50422FF42C2F4CF8091C50482FD67
:101EC00035C28091C60480FD34C2EBCF2091C60498
:101ED00021FF34C28091C50484FDD7C187EE90E014
:101EE0002DC22091C50423FF29C2F4CF8091C504DF
:101EF00083FD22C28091C60481FFECCF84EE90E086
:101F00001DC22091C50425FF19C289E290E016C2C6
:101F10002091C50425FF12C285E390E00FC22091F5
:101F2000C50426FF0BC28AE290E008C22091C504D6
:101F300026FF04C281E390E001C2C11521E5D2076A
:101F400008F046C0C11530E5D30708F038C1C83ED7
:101F5000D10518F5C03ED10508F0F0C1C83AD10549
:101F600070F4C53AD10508F0AAC0C130D10509F412
:101F7000E5C108F48AC1249708F487C1DFC1CF3BCB
:101F8000D10508F4A7C0C03CD10508F47EC1FE010C
:101F9000EE0FFF1FE65FFF4F02C1C11540E3D407FC
:101FA00088F4C11520E2D20708F0F3C0C03FD10584
:101FB00008F46BC1CF3FD10511F008F0BFC1CE01CD
:101FC0009065BCC1C11530E4D30708F4EBC0F2C082
:101FD000C11549E5D40760F5C11588E5D80708F0B3
:101FE0003DC1C11594E5D90780F4C11523E5D20799
:101FF00008F018C1C11532E5D30708F0FDC0FC2F69
:10200000EE27CF01816F906A99C1C11545E5D407CC
:1020100008F41EC1C11586E5D80708F036C18C2F1B
:102020000E94C0038F7190E0982F8827906286C12C
:10203000CD3B9CE5D90709F41FC1F0F4CB3B3CE54F
:10204000D30709F413C108F014C1C1158AE5D807F4
:1020500008F01BC18C2F8F700E94C003FE0194E01A
:10206000F695E7959A95E1F7EF70F0E0FE2FEE27F1
:10207000F0699F01282BF8C0C03C9CE5D90709F402
:1020800001C160F4CE3B3CE5D30709F4F8C0CF3B77
:10209000DC4509F0FAC080E092ED50C1CE019056C7
:1020A0008115904208F0F1C08D2F8F710E94C003FE
:1020B000FE01FF27F0628F719F01382BD5C0C53A12
:1020C000D10509F4E5C0C63AD10509F0E4C082E8BB
:1020D00090E434C1C83AD10509F4E0C0C93AD10549
:1020E00009F4DFC0CA3AD10509F4DEC0CB3AD10504
:1020F00009F4DDC0CC3AD10509F4DCC0CB3BD105F5
:1021000009F4DBC0CC3BD10509F4DAC0CD3AD105E6
:1021100009F4D9C0C03BD10509F4D8C0CE3AD105E5
:1021200009F4D7C0CF3AD10509F4D6C0C13BD105D7
:1021300009F4D5C0C23BD10509F4D4C0C33BD105D5
:1021400009F4D3C0C43BD10509F4D2C0C53BD105C5
:1021500009F4D1C0C63BD10509F4D0C0C73BD105B5
:1021600009F4CFC0C83BD10509F4CEC0C93BD105A5
:1021700009F4CDC0CD3BD10509F4CCC0CE3BD1058F
:1021800009F4CBC0CA3BD10509F4CAC080E094E48D
:10219000D5C0FE01FF70EE0FFF1FE657FE4F859181
:1021A0009491CCC0CE019927D3FF02C0986CC6C0D1
:1021B000906CC4C0FE01FF70CF01906ABFC08C2F2D
:1021C000837021E030E002C0220F331F8A95E2F7CE
:1021D0003C68CE0174E0969587957A95E1F7837017
:1021E000382BEC2FEF70E695E69540E2E49FC001B6
:1021F0001124822B932BA2C08C2F8695869590E27A
:10220000899FA0011124FE01E370FF2721E030E047
:10221000C90102C0880F991FEA95E2F7842B952B1C
:102220009C688CC08C2F8695869520E2829FA001A9
:102230001124FE01E370FF2721E030E0C90102C054
:10224000880F991FEA95E2F7842B952B9A6876C040
:10225000FC2FEE27CF01846F906A70C0FC2FEE2711
:10226000CF01806F906A6AC0C90168C080E094EDB8
:1022700065C080E095ED62C080E091ED5FC080E0D8
:1022800090ED5CC080E093ED59C080E090E056C0D6
:1022900081E890E453C083E890E450C082EE94E477
:1022A0004DC089EE94E44AC08AEE94E447C085EBC1
:1022B00094E444C086EB94E441C083EB94E43EC0D4
:1022C00084EB94E43BC087EB94E438C08CEC94E45A
:1022D00035C08DEC94E432C083E895E42FC08AE8E1
:1022E00095E42CC082E995E429C084E995E426C0F0
:1022F00081E296E423C083E296E420C084E296E47F
:102300001DC085E296E41AC086E296E417C087E213
:1023100096E414C08FE694E411C080E794E40EC004
:102320008AE296E40BC089E390E008C082EE90E078
:1023300005C080EE90E002C086EE90E0DF91CF9184
:1023400008954F925F926F927F92AF92BF92CF9219
:10235000DF92EF92FF920F931F93CF93DF93CDB74E
:10236000DEB7AA970FB6F894DEBF0FBECDBFFC0153
:10237000D080118183819481892B11F40C943C1AB3
:102380001F3F29F40FEFD01611F40C943C1A7F0173
:1023900085E0DE01949601900D928A95E1F7D701D0
:1023A00012962C918CA19DA1222349F00E943029E4
:1023B000082F682F8CA19DA10E94A82903C00E940C
:1023C0007C29082FBCE01B9FF00111241CE3019F16
:1023D000E00DF11D1124ED0DF11DEE0FFF1FEA526E
:1023E000FE4F059114910D312CE51207E1F4D70150
:1023F00012968C91882309F485C0AA960FB6F8949A
:10240000DEBF0FBECDBFDF91CF911F910F91FF9027
:10241000EF90DF90CF90BF90AF907F906F905F90E4
:102420004F900C9481080E31BCE51B07D9F4F701DD
:102430008281882309F466C0AA960FB6F894DEBF9D
:102440000FBECDBFDF91CF911F910F91FF90EF9005
:10245000DF90CF90BF90AF907F906F905F904F9044
:102460000C94670C0F31FCE51F0759F4D701129645
:102470008C91882309F446C08091B70480FDDCCF9D
:10248000BCCF0A32BCE51B0749F4F70182818823DF
:10249000C9F180916A0490E001960DC00B32FCE511
:1024A0001F0739F5D70112968C91882359F1809135
:1024B0006A0490E007968770992780936A0464E025
:1024C00070E081E092E0AA960FB6F894DEBF0FBEEE
:1024D000CDBFDF91CF911F910F91FF90EF90DF90D3
:1024E000CF90BF90AF907F906F905F904F900C9483
:1024F000511A0632FCE51F0709F0CDC0F7018281B1
:102500008111DAC090918304911105C080918204F9
:10251000882309F462C1D70112966C91662309F4ED
:102520004BC0003E110561F40E94570C81E080937E
:1025300081041092800410927F0410927E049CC744
:10254000023E110571F40E94570C8091810488238A
:1025500019F081E0809380041092810410927F042E
:102560008BC7033E110591F480918004882321F1EB
:102570000E94570C1092810481E080937F04109296
:102580007D0410927C0410927B0476C702351105FD
:1025900031F480910203909103030A9708C001353A
:1025A000110551F480910203909103030A969093D0
:1025B00003038093020360C78091010381110AC065
:1025C000F7012081205F818145E050E0481B5109DF
:1025D000FCE01DC0813081F4D7012C9183E3820F90
:1025E00011964C9125E030E0241B3109322F330F36
:1025F000330F230F280F2DC0823069F4F70120819B
:102600002D5C818145E050E0481B5109F7E04F9F68
:10261000200D11241EC08330D9F483E2E7E8F3E0F3
:10262000DE01119601900D928A95E1F7D7018C9108
:10263000FE01E80FF11D11968C9145E050E0481B1A
:1026400051092085BCE04B9F200D1124275F01C05C
:102650002CE06623B1F0992329F0822F2AA70E944B
:10266000550D2AA580918104882381F080917E04F4
:10267000E82FF0E0E559FB4F20838F5F80937E04C5
:1026800005C0992319F0822F0E94810C0F3F11057C
:1026900008F0A3C0F1C60732FCE51F0719F10832A4
:1026A000BCE51B07D9F5F7018281882309F42ACFFD
:1026B0008091830481111CC0AA960FB6F894DEBFE6
:1026C0000FBECDBFDF91CF911F910F91FF90EF9083
:1026D000DF90CF90BF90AF907F906F905F904F90C2
:1026E0000C947808D70112968C91882309F40ACFAC
:1026F000AA960FB6F894DEBF0FBECDBFDF91CF9183
:102700001F910F91FF90EF90DF90CF90BF90AF900F
:102710007F906F905F904F900C945D0C0C32FCE5B5
:102720001F07E1F4D70112968C91882309F4EACEB1
:10273000AA960FB6F894DEBF0FBECDBFDF91CF9142
:102740001F910F91FF90EF90DF90CF90BF90AF90CF
:102750007F906F905F904F900C946F080D32BCE5A6
:102760001B0761F4F7018281882309F4CBCE109214
:10277000820468E070E081E292E0A5CE0E32FCE5D2
:102780001F0759F4D70112968C91882309F4BACE09
:10279000809182048111EBCFCBCF0932BCE51B07BE
:1027A00009F0B0CEF7018281882309F4ABCE0E94F4
:1027B000570C2091010330E02F5F3F4F23703327E8
:1027C0002093010348E2429FC001439F900D1124D2
:1027D00065E070E08F599D4F76CE033F2CE51207E0
:1027E000D1F426E241EE60EEC701AA960FB6F89446
:1027F000DEBF0FBECDBFDF91CF911F910F91FF9034
:10280000EF90DF90CF90BF90AF907F906F905F90F0
:102810004F900C945407043F3CE5130708F07FC029
:10282000083D8CE5180721F427E245EE65EEDCCF84
:10283000093D9CE5190719F428E241E0F7CF073D6F
:10284000ACE51A0721F426E241EE61EECDCFF701A7
:102850008281882351F1109284040631FCE51F0720
:1028600049F160F401303CE5130709F463C408F052
:10287000ACC401151C4509F43FC46AC00E3DACE56B
:102880001A0709F47DC450F40C3DECE51E0709F469
:102890008DC40D3D1C4509F48CC45AC0C8018A5F23
:1028A0009C45099708F491C453C00631FCE51F0705
:1028B00009F00AC490914F05882381F09A7A81E04B
:1028C00009F480E080938504811102C069E201C0AF
:1028D00065E380EE94E00E9413280BC0809185048C
:1028E000811102C069E201C065E380EE94E00E94BC
:1028F0000728AA960FB6F894DEBF0FBECDBFDF91B2
:10290000CF911F910F91FF90EF90DF90CF90BF90EC
:10291000AF907F906F905F904F900C94C828053FC8
:10292000BCE51B0721F426E241EE62EE5DCF053FD8
:10293000ECE51E0720F427E245EE64EE55CF063F96
:10294000FCE51F0709F083CF27E245EE66EE4CCF8A
:10295000D7010D911C91C8010E943029D82E682FF3
:10296000C8010E94A829B8018D2D0E94FD0E182FC4
:10297000282FD70115960C91159702950F70129676
:10298000AC90A11010924E0580914C05877099F083
:10299000AA2089F080E2810F883068F082E02AA7BF
:1029A00099A70E94062A80914C058770BB24B39496
:1029B0002AA599A58111B12CC92EC2948FE0C822F5
:1029C000D12CBEE0CB16D10408F049C3F601E25A7F
:1029D000FF4F0C940B30892F807F9F70092F882325
:1029E00011F00295007FAA20B9F0002309F41DC25E
:1029F00080E2810F883010F0211106C090914F05C0
:102A0000092B00934F0505C090914E05092B0093AB
:102A10004E050E94C82809C2812F2AA70E94F125CD
:102A20002AA5002309F41BC3105E0095183010F08E
:102A3000211106C090914F05092300934F0505C051
:102A400090914E05092300934E050E94C82807C3A4
:102A5000392F307F892F8F70303211F08295807F2F
:102A6000222319F02130E9F026C0AA2081F020911C
:102A70005005002351F0013041F4982F922B291773
:102A800009F4EDC290935005EAC2822B1EC00023C8
:102A900019F0013009F4E3C289A70E94C22889A570
:102AA00024C0AA2021F0063008F0D9C20EC005309B
:102AB00008F0D5C21AC0AA2059F0002331F0F7015E
:102AC000958190FFB2C19F7095830E94E725C7C290
:102AD000002359F0193309F0BAC1FFEF07EE23E0E4
:102AE000F15000402040E1F7B0C10E94DC25B7C2A0
:102AF000292F26952695237030E02115310521F0E8
:102B00002130310559F0ABC2AA2019F0812F937002
:102B100002C080E090E00E943207AAC2AA2019F009
:102B2000812F937002C080E090E00E941C07A0C239
:102B3000892F837009F071C0A11098C2812F8295EE
:102B400086958770880F880F412F4F7050E060E0A6
:102B500070E02A013B01082E04C0440C551C661C81
:102B6000771C0A94D2F714FF12C00FE010E020E0A7
:102B700030E004C0000F111F221F331F8A95D2F7C7
:102B8000B901A801409550956095709503C040E04B
:102B900050E0BA01969596959370292F30E0223037
:102BA000310531F123303105D1F0809151059091FB
:102BB0005205A0915305B09154052130310559F0CB
:102BC00044295529662977298A019B01082319235D
:102BD0002A233B231FC0482A592A6A2A7B2ACB0171
:102BE000BA0164297529862997290E94402A3EC284
:102BF00044295529662977298091510590915205DC
:102C0000A0915305B09154058A019B01082719270B
:102C10002A273B27C901B801E8CFAA2019F0892F3C
:102C2000817001C08695882309F420C2812F829586
:102C300086958770880F880F412F4F7050E060E0B5
:102C400070E02A013B01082E04C0440C551C661C90
:102C5000771C0A94D2F714FF12C00FE010E020E0B6
:102C600030E004C0000F111F221F331F8A95D2F7D6
:102C7000B901A801409550956095709503C040E05A
:102C800050E0BA01969596959370292F30E0223046
:102C90003105F1F02330310581F1809148059091A3
:102CA0004905A0914A05B0914B052130310559F0F5
:102CB00044295529662977298A019B01082319236C
:102CC0002A233B2317C0482A592A6A2A7B2A15C07F
:102CD000442955296629772980914805909149050D
:102CE000A0914A05B0914B058A019B01082719273D
:102CF0002A273B27C901B80106C0CB01BA016429C4
:102D00007529862997290E94D729B0C1092F0F70EC
:102D1000AA2039F0802F0E941F2A812F0E94E725C8
:102D2000A5C1812F0E94DC25802F0E94E1299EC130
:102D3000812F223FD1F128F4203F49F0213F81F13A
:102D40006FC0233FC9F1243F09F44EC069C0AA20D7
:102D500019F1053008F083C1292F2F7181E090E02F
:102D6000A0E0B0E0AC01BD0104C0440F551F661FD8
:102D7000771F2A95D2F78091480590914905A09137
:102D80004A05B0914B058A019B01082719272A277C
:102D90003B27C901B80121C0063008F060C1DCCF73
:102DA000AA2029F0892F8F712EC0AA20D9F3892F4C
:102DB0008F710E94E12953C1AA2091F0292F2F7110
:102DC00081E090E0A0E0B0E0BC01CD0104C0660F5E
:102DD000771F881F991F2A95D2F70E94D7293FC1D4
:102DE00060E070E0CB01F9CFAA2081F0192F1F71AC
:102DF000812F0E941F2A28E0129FC00111248360A6
:102E000080934C05812F0E941F2A29C181E00E94D6
:102E1000062A023008F423C182E00E94062A1FC15C
:102E2000AA2039F0002309F4BDCF812F0E944D263E
:102E300016C1002309F4BBCF893349F43FEF87EE75
:102E400093E0315080409040E1F700C00000812FB6
:102E50000E94F12504C1A1100BC19F70292F30E001
:102E60002230310509F46BC03CF42115310581F0A5
:102E700021303105C9F1F3C02430310509F4EBC02C
:102E80000CF4A8C02530310509F0E9C080E0E4C0A9
:102E900020918604822F869586958695482F50E04E
:102EA0004330510554F48F5F982F990F990F990F64
:102EB000822F8770892B80938604609186046160DD
:102EC0006093860486E090E00E94192B8091D504DF
:102ED00080FFB9C0809186048695869586951F925D
:102EE0008F9381E693E0A7C080918604982F9695F2
:102EF00096959695B1F0915E990F990F990F8770FD
:102F0000892B80938604887F91E009F490E060919A
:102F1000860490FB60F96093860486E090E00E944E
:102F2000192B8091D50480FF8EC0809186048695F0
:102F3000869586951F928F9389E793E07CC01091C8
:102F4000860411708091D50480FF0CC01F921F93DE
:102F500086EB93E09F938F930E94B7030F900F909F
:102F60000F900F90609186041123B9F060FF80C02C
:102F70006E7F6093860486E090E00E94192B80911A
:102F8000D50480FF08C081E993E09F938F930E944E
:102F9000B7030F900F9080E05BC060FD69C0616077
:102FA00060938604613019F489E08093860460910F
:102FB000860486E090E00E94192B8091D50480FF62
:102FC00042C084EA93E09F938F930E94B7030F90CF
:102FD0000F9039C090918604892F869586958695A5
:102FE0008F5F8F719770843038F4880F880F880F47
:102FF000892B8093860402C0909386048091860476
:10300000887F91E009F490E06091860490FB60F97C
:103010006093860486E090E00E94192B8091D5048D
:1030200080FF11C0809186048695869586951F92B3
:103030008F938CEC93E09F938F930E94B7030F9034
:103040000F900F900F9080918604869586958695B7
:103050000E94CF070DC083E00E942B0809C0A8E0A2
:10306000CA1AD108B4E0CB16D10410F40E94480764
:10307000BB2009F401C280914C0580FDFDC1F70120
:1030800012828595859585950E941F2AC7010E9409
:10309000A11180914C05859585958595AA960FB6C9
:1030A000F894DEBF0FBECDBFDF91CF911F910F917E
:1030B000FF90EF90DF90CF90BF90AF907F906F9098
:1030C0005F904F900C94E12907312CE5120750F4E2
:1030D00001153CE5130708F470C002301C4508F4E4
:1030E000CBC16BC00C3D9CE5190708F466C00F3DD1
:1030F0001C4508F4C1C161C00E94D1250E94570C33
:103100000E94D2278C0163E070E084E093E00E948B
:10311000511AC8010E94A8278A3F910538F48FE907
:103120009FE00197F1F700C00000F3CF0E94100C60
:103130000E945E278091D504982F9095917090FB06
:1031400080F98093D504992319F080E593E002C0BB
:103150008EE393E0AA960FB6F894DEBF0FBECDBF04
:10316000DF91CF911F910F91FF90EF90DF90CF9063
:10317000BF90AF907F906F905F904F900C941E0324
:10318000AA960FB6F894DEBF0FBECDBFDF91CF91E8
:103190001F910F91FF90EF90DF90CF90BF90AF9075
:1031A0007F906F905F904F900C9449281092B904D3
:1031B00063C182E08093B9045FC1F701008111818E
:1031C000C8010E947C29D82ECECB0E943E288111B6
:1031D00002C00E9449280E942D289093C604809323
:1031E000C50400319CE5190709F4CAC008F042C0C3
:1031F0000830BCE51B0709F4A0C0F0F40430FCE57E
:103200001F0709F486C068F402303CE5130709F48F
:103210007CC003301C4509F00CC18091C50482605C
:103220007BC006309CE5190709F47FC008F081C017
:103230008091C504886070C00C30BCE51B0709F4A0
:103240008BC068F40A30FCE51F0709F47AC008F067
:103250007FC00E94D1258091C50480685DC00E307A
:103260003CE5130709F47CC008F086C08091C504D2
:103270008B7F52C00B3F9CE5190709F450C020F525
:103280000331BCE51B0709F483C078F40131FCE588
:103290001F0709F479C002311C4509F0CAC00E9419
:1032A000D1258091C5048F7737C005313CE51307E0
:1032B00009F47CC008F4ACC00A3F1C4509F0B9C051
:1032C0008091C60481602EC00F3FACE51A0709F457
:1032D00066C070F40D3FECE51E0709F449C008F420
:1032E00043C08091C604826081608093C60484C01C
:1032F00001302DE5120709F497C008F470C00230C0
:103300001D4509F096C060E090C08091C5048160C1
:1033100003C08091C50484608093C5048AC08091F5
:10332000C60482608093C60484C08091C504806115
:10333000F3CF8091C5048062EFCF8091C504806493
:10334000EBCF8091C504886084608093C5043DC044
:103350008091C5048E7FE0CF8091C5048D7FDCCF46
:103360008091C504877FD8CF8091C6048E7FDACF45
:103370008091C6048D7FD6CF8091C5048F7ECCCF3F
:103380008091C5048F7DC8CF8091C5048F7BC4CF49
:103390008091C504877F8B7F8093C5041BC080917B
:1033A000C6048D7F8E7F8093C6042BC08091C50498
:1033B00082FB222720F991E0922790FB82F990FB73
:1033C00083F98093C504992329F064E070E08CE5CB
:1033D00093E01BC062E070E08CE293E016C0809145
:1033E000C604982F909591708E7F892B90FB81F960
:1033F0008093C604992329F064E070E08CE393E0A5
:1034000004C062E070E08CE193E00E94511A11C0A8
:103410000E94D1258091C50487FB222720F991E0E5
:10342000922790FB87F978CF61E08EE090E00E94D0
:10343000192B6091C5041091C60484E090E00E94AD
:10344000192B612F81E290E00E94192BAA960FB6EA
:10345000F894DEBF0FBECDBFDF91CF911F910F91CA
:10346000FF90EF90DF90CF90BF90AF907F906F90E4
:103470005F904F900C94D125AA960FB6F894DEBFBA
:103480000FBECDBFDF91CF911F910F91FF90EF90B5
:10349000DF90CF90BF90AF907F906F905F904F90F4
:1034A00008950F931F93CF93DF93EC018B018091CD
:1034B000B804811102C00E94CC0B8091B70480FF38
:1034C0004FC0809171008D7F809371008091B60410
:1034D00081110E94100C81E08093B504D093B40454
:1034E000C093B3041093B2040093B1041092B004DB
:1034F0001092AC041092AD041092AE041092AF047E
:103500001092AB041092AA0488819981AA81BB8190
:103510008093A6049093A704A093A804B093A90451
:1035200020E030E040E85EE36C817D818E819F8108
:103530000E94E32D6093A2047093A3048093A404DB
:103540009093A5041092A1041092A00480917100A0
:1035500082608093710080919000806880939000D9
:10356000DF91CF911F910F910895CF92DF92FF923B
:103570000F931F93CF93DF931F92CDB7DEB7F82E33
:103580008B0199830E94C620998181111CC0CF2C88
:10359000D92E01151105B1F08091E80085FD0AC012
:1035A0008091E8008E778093E8000E94C6208823EF
:1035B00081F309C0F60181916F018093F100015000
:1035C0001109E7CF80E00F90DF91CF911F910F910C
:1035D000FF90DF90CF9008951F93CF93DF93CDB7E7
:1035E000DEB7AA970FB6F894DEBF0FBECDBFE8E9ED
:1035F000F4E088E08E0F9091F10091938E13FBCF51
:1036000080919904833009F460C030F4813071F006
:10361000823009F49AC0B1C08A3009F486C08B3078
:1036200009F46BC0893009F0A8C020C080919804CB
:10363000813A09F0A2C08091E800877F8093E8007A
:1036400080919C0490919D04892B21F468E08CE882
:1036500094E003C060E080E090E070E00E944C21C4
:103660008091E8008B778093E80087C08091980470
:10367000813209F082C080919C0490919D04029750
:1036800008F07BC08091E800877F8093E8008091FC
:10369000E80082FD05C0809196048111F8CF6DC0CD
:1036A0002091F3008091F20090E0922B029729F490
:1036B0008091F1008B7F813021F48091F100809323
:1036C0008B048091E8008B7754C080919804813AF4
:1036D00009F053C080919C0490919D04892B09F0BE
:1036E0004CC08091E800877F8093E8008091E800DB
:1036F00080FFFCCF80917C0337C080919804813299
:10370000E1F580919C0490919D04892BB1F5809105
:10371000E800877F8093E8000E94F82080919A0457
:1037200080937C030E94D12528C080919804813227
:1037300021F58091E800877F8093E8000E94F820BF
:1037400080919B0480938A0418C080919804813AE8
:10375000A1F48091E800877F8093E8008091E800E1
:1037600080FFFCCF80918A048093F1008091E80073
:103770008E778093E8000E94F8208091E80083FF14
:10378000E2C18091980490919904492F50E04A3009
:10379000510508F0D8C1FA01E459FF4F0C940B30E1
:1037A000803821F0823809F0CEC108C0809194049D
:1037B00090919504992389F082600FC080919C04B8
:1037C0008F70873008F0BFC18093E9008091EB00D3
:1037D00085FB882780F91092E9009091E800977F97
:1037E0009093E8008093F1001092F1007FC1282FA0
:1037F0002D7F09F0A8C1882319F0823061F0A3C1A0
:1038000080919A04813009F09EC1933009F080E0E4
:10381000809395042EC080919A0481112AC08091D2
:103820009C048F702FEF280F263008F08CC18093F6
:10383000E9002091EB0020FF1CC0933021F480911F
:10384000EB00806214C09091EB0090619093EB00CC
:1038500021E030E0A90102C0440F551F8A95E2F72C
:103860004093EA001092EA008091EB008860809318
:10387000EB001092E9008091E800877F8093E800D8
:103880000E94F82060C181115EC110919A041F77D7
:103890008091E3008078812B8093E3008091E800A1
:1038A000877F8093E8000E94F8208091E80080FFE5
:1038B000FCCF8091E30080688093E300111102C087
:1038C00082E001C083E0809396043DC1805882303D
:1038D00008F039C120919A0430919B042C3D53E0AB
:1038E000350779F583E08A838AE289834FB7F894B4
:1038F000DE01139620E03EE051E2E32FF0E050932A
:103900005700E49120FF03C0E295EF703F5FEF7036
:103910008E2F90E0EA3010F0C79601C0C0968D93CC
:103920009D932F5F243149F74FBF8091E800877F37
:103930008093E8006AE270E0CE0101960E944C217B
:10394000C4C080919C0490919D04432F552743301F
:103950005105B9F06CF44130510509F403C142300E
:10396000510509F0F0C08BE590E0ECE8F4E05BC0B5
:103970004132510509F434C04232510509F43FC0C7
:10398000E2C0C901992781309105D1F05CF4892BFF
:1039900009F0D9C0EDE1F5E0E4918E2F90E0EDE182
:1039A000F5E03EC08230910599F0039709F0CBC055
:1039B000E9EFF4E0E4918E2F90E0E9EFF4E030C01D
:1039C000E1E1F5E0E4918E2F90E0E1E1F5E028C03F
:1039D000EFEFF4E0E4918E2F90E0EFEFF4E020C001
:1039E0008330910508F0AFC0880F991FFC01ED5F8F
:1039F000FB4F0190F081E02D89E090E014C083300E
:103A0000910508F0A0C0FC01EE0FFF1FE350FC4F32
:103A10000190F081E02DDC01A650BC4F8C9190E02C
:103A2000009709F490C02091E800277F2093E800D8
:103A300020919E0430919F042817390708F4C9018A
:103A400040E0009789F120919604222309F43DC0BB
:103A50002530D9F12091E80023FD37C02091E800FE
:103A600022FD2FC02091E80020FFEBCF4091F30012
:103A70002091F20030E0342B009759F028303105C6
:103A800040F444914093F100319601972F5F3F4FEE
:103A9000F3CF41E02830310509F040E02091E80003
:103AA0002E772093E800CDCF4111CDCF0AC0809171
:103AB0009604882351F0853041F08091E80083FD21
:103AC00004C08091E80082FFF2CF8091E8008B77FC
:103AD0008093E80038C08038B1F58091E800877F96
:103AE0008093E800809197048093F1008091E80032
:103AF0008E77C4CE811127C010919A04123018F528
:103B00008091E800877F8093E800109397040E94DB
:103B1000F820111106C08091E30087FD02C081E00A
:103B200001C084E08093960442E061EC81E00E9451
:103B3000172142E261EC82E00E94172142E261EC2F
:103B400083E00E9417218091E80083FF10C08091DC
:103B5000E800877F8093E8008091EB00806280938B
:103B6000EB0005C082E190E0E7EEF4E05CCFAA96BE
:103B70000FB6F894DEBF0FBECDBFDF91CF911F917E
:103B800008951F920F920FB60F9211242F933F9317
:103B90004F935F936F937F938F939F93AF93BF9355
:103BA000CF93DF93EF93FF93C091E900CF708091A3
:103BB000EC00D82FD17080FDD0E81092E900809100
:103BC000F000877F8093F00078940E94EC1A1092A6
:103BD000E9008091F00088608093F000CD2BCF70D9
:103BE000C093E900FF91EF91DF91CF91BF91AF9129
:103BF0009F918F917F916F915F914F913F912F9105
:103C00000F900FBE0F901F901895E8EDF0E08081A7
:103C10008E7F80831092E2001092DA001092E10011
:103C2000A0EEB0E08C9181608C9380818F7780834F
:103C300019BCA7EDB0E08C918E7F8C9380818F7E34
:103C40008083109289040895CF92DF92EF92FF92C1
:103C50000F931F93CF93DF93C8EDD0E088818F7EC1
:103C60008883E7EDF0E080818160808384E082BF1B
:103C700081E08093890488818E7F888302EE10E042
:103C8000F80110821092DA0081EEC82ED12CF601D4
:103C9000108288818F778883888180688883888173
:103CA0008F7D888319BC109296041092970410920D
:103CB00095041092940490EEE92EF12CF701808186
:103CC0008B7F808388818160888342E060E080E030
:103CD0000E941721F60180818E7F8083F801808108
:103CE00081608083808188608083F70180818E7FFE
:103CF0008083888180618883DF91CF911F910F91AC
:103D0000FF90EF90DF90CF9008951F920F920FB623
:103D10000F9211242F933F934F935F936F937F9351
:103D20008F939F93AF93BF93EF93FF938091E100A5
:103D300082FF49C08091E20082FF45C08091E1008E
:103D40008B7F8093E100209188042F5F822F62E3B4
:103D50000E94D72F992319F02093880434C0109221
:103D6000880480918704882371F1809196048430BF
:103D700041F58091E9008F702091EC00922F9170B5
:103D800020FD90E8892B93E09093E9009091EB005F
:103D900090FF14C09091EE0097FF10C09091E80042
:103DA00095FF03C01092F100F9CF9091E80090FFC9
:103DB00005C09091E8009E779093E8008F70809303
:103DC000E900109287048091DA0080FF32C0809170
:103DD000D80080FF2EC08091DA008E7F8093DA00B9
:103DE0008091D90080FF1CC080E189BD82E189BD3E
:103DF00009B400FEFDCF81E08093960488E794E04B
:103E00000E941E0380918904811113C00E94051E27
:103E10000E94241E8091E20084608093E20009C029
:103E200019BC109296048CE794E00E941E03109235
:103E300089048091E10080FF1BC08091E20080FF37
:103E400017C08091E2008E7F8093E2008091E200B3
:103E500080618093E2008091D80080628093D800D6
:103E600019BC85E08093960480E894E00E941E03CC
:103E70008091E10084FF38C08091E20084FF34C06B
:103E800080E189BD82E189BD09B400FEFDCF80914A
:103E9000D8008F7D8093D8008091E1008F7E809341
:103EA000E1008091E2008F7E8093E2008091E20049
:103EB00081608093E20080919704882311F084E070
:103EC00007C08091E30087FD02C081E001C083E06C
:103ED0008093960484E894E00E941E030E94D125FA
:103EE0000E944C080E9448078091E10083FF2BC08C
:103EF0008091E20083FF27C08091E100877F80935B
:103F0000E10082E080939604109297048091E10092
:103F10008E7F8093E1008091E2008E7F8093E200AB
:103F20008091E20080618093E20042E060E080E006
:103F30000E9417218091F00088608093F00088E84B
:103F400094E00E941E03FF91EF91BF91AF919F916A
:103F50008F917F916F915F914F913F912F910F9032
:103F60000FBE0F901F901895089580918B040895AF
:103F70009FB7F894109287049FBF90919604943055
:103F800009F057C09091E9009F703091EC00232F09
:103F9000217030FD20E8922B23E02093E90020914E
:103FA000EB0020FF43C02091EE0027FF3FC020918F
:103FB000BA04222321F02091E80025FF37C0109297
:103FC000BA0426E03091E80035FD15C03091960422
:103FD000343061F53091EB0035FD28C0215021F4DB
:103FE00081E08093BA0422C0EFE9FFE03197F1F756
:103FF00000C00000E7CF8093F1008091E80085FDCC
:104000000AC08091E80080FFFCCF8091E8008E77A5
:104010008093E80006C08FB7F89421E020938704CE
:104020008FBF9F709093E90080E008959F709093F8
:10403000E9008FEF0895CF93DF9300D01F92CDB7A3
:10404000DEB79C019091B904911105C0809196044E
:10405000843049F504C0923011F0943021F584E0A9
:1040600089833B832A8382E08093E9008FEF9091DC
:10407000E800815095FD06C095ED9A95F1F7000096
:104080008111F5CF8091E80085FF0DC040E050E040
:1040900063E070E0CE0101960E94B51A8091E800BD
:1040A0008E778093E8000F900F900F90DF91CF9163
:1040B0000895CF93DF9300D01F92CDB7DEB7209144
:1040C0009604243031F523E02983805891099B839D
:1040D0008A8382E08093E9008FEF9091E80081501D
:1040E00095FD06C095ED9A95F1F700008111F5CF89
:1040F0008091E80085FF0DC040E050E063E070E093
:10410000CE0101960E94B51A8091E8008E778093C7
:10411000E8000F900F900F90DF91CF910895CF930B
:10412000DF932091B904211103C02091960402C0AD
:10413000223011F0243039F521E02093E9002FEFEF
:104140003091E800215035FD06C035ED3A95F1F784
:1041500000002111F5CF2091E80025FF14C0EC01EB
:1041600040E050E068E070E00E94B51A8091E800FD
:104170008E778093E80088E0FE01ACE8B4E001901F
:104180000D928A95E1F7DF91CF9108952091E40097
:104190003091E50095E64091EC00842F817040FF5E
:1041A00022C08091E80080FD1CC080919604882385
:1041B00091F0853091F08091EB0085FD10C0409129
:1041C000E4005091E5004217530729F39A019150FA
:1041D00011F784E0089582E0089583E0089581E076
:1041E000089580E008954091E80042FFDECF0895F1
:1041F0008091980487FF11C08091E80082FD05C07E
:10420000809196048111F8CF11C08091E8008B77DE
:104210000BC080919604882349F08091E80080FFCC
:10422000F8CF8091E8008E778093E8000895982F6A
:10423000973058F59093E900981739F07091EC0099
:104240002091ED005091F00003C0242F762F50E014
:1042500021FF19C03091EB003E7F3093EB0030918D
:10426000ED003D7F3093ED003091EB0031603093F5
:10427000EB007093EC002093ED005093F000209140
:10428000EE0027FF07C09F5FD3CF8F708093E900B8
:1042900081E0089580E0089520919E0430919F046C
:1042A0002617370748F06115710539F42091E800A9
:1042B0002E772093E80001C0B90140E06115710537
:1042C000A9F120919604222309F443C0253009F472
:1042D00042C02091E80023FD40C02091E80022FD6B
:1042E00032C02091E80020FFE9CF4091F3002091F7
:1042F000F20030E0342BFC01CF016115710559F05B
:104300002830310540F481918093F10061507109AA
:104310002F5F3F4FF1CF41E02830310509F040E0F9
:104320002091E8002E772093E800C8CF4111C9CF33
:104330000AC080919604882361F0853061F08091F5
:10434000E80083FD0AC08091E80082FFF2CF80E0A0
:10435000089582E0089583E0089581E00895CF9361
:10436000DF93CDB7DEB72C970FB6F894DEBF0FBE44
:10437000CDBF84B7877F84BF0FB6F894A89580918E
:104380006000886180936000109260000FBE80E83A
:10439000809361001092610085B7806885BF85B702
:1043A000806885BF0E94051E0E94241E8091E20045
:1043B00084608093E20088EB9FE190931B048093DC
:1043C0001A047894809196048823A1F01091E90052
:1043D0001F709091EC00892F817090FD80E8182B60
:1043E0001092E9008091E80083FD0E94EC1A1F7092
:1043F0001093E90082E084BD93E095BD9AEF97BDEC
:1044000080936E00A9E0B4E041E050E025E02A0F7F
:104410008D91E82FE295EF70F0E031A18F70BA0135
:1044200002C0660F771F8A95E2F7CB01962F909511
:10443000932391A392A1892B82A32A13E9CFAEE003
:10444000B4E041E050E02CE02A0F8D91E82FE29596
:10445000EF70F0E031A18F70BA0102C0660F771FD4
:104460008A95E2F7CB01962F9095932391A392A181
:10447000892B82A32A13E9CFEBEBF4E0AAECB4E09A
:10448000119211921D921D9274E0E53CF707C1F75D
:104490000E94E90D8FE39CE90197F1F700C000004D
:1044A0000E94E90D8091CA0480FF08C06FEF7FEF82
:1044B00080E090E00E94372B0E945E270E943E28F9
:1044C000811102C00E944928279A2F988AE0809380
:1044D000800089E1809381008FEF9FEF90938700A8
:1044E000809386000E944C080E94CC0B6E9A769AAC
:1044F0000E943E28811102C00E94492882E090E07B
:104500000E940B2B8093D5040E942D289093C60403
:104510008093C50483E090E00E940B2B682F70E02D
:1045200080E090E00E94402A0E944C088DE793E0D2
:104530009093C8048093C70486E695E00E941E030A
:1045400022242394312C80919604853009F042C0B6
:1045500082E695E00E941E0380919604843039F132
:104560001092C90420E488E190E00FB6F894A89571
:10457000809360000FBE2093600080E00E94CF0710
:1045800083B7817F846083BF83B7816083BF789462
:10459000889583B78E7F83BF0FB6F894A8958091D6
:1045A0006000886180936000109260000FBE80916F
:1045B0009504882309F4C7CF0E94E90DEAECF4E0E2
:1045C00081919191892B09F0E3C094E0E43DF907D2
:1045D000B9F7B9CF0E94E90D36ED832E34E0932E62
:1045E0004AECA42E44E0B42E00E010E00B87D50185
:1045F000CD90DD905D01F401E190F1904F01EC244C
:10460000FD24E114F104B1F40F5F1F4F05301105D3
:1046100069F78FEF8E838F8318860E94D22781607F
:10462000782F9A8789874E815F8168858A850E9465
:1046300087067FC08091D50481FD03C080E090E0B3
:104640004BC081E395E00E941E032AEC622E24E019
:10465000722E412C512C5F924F92ACE2B5E0BF9389
:10466000AF930E94B70389E295E00E941E03D30135
:104670008C9111969C91B2E06B0E711C9C870E94EC
:10468000AC28282F9C85892F2C870E94AC282C854C
:1046900030E0322F2227F901E82BCF019F938F932F
:1046A000A3E2B5E0BF93AF930E94B70381E295E028
:1046B0000E941E03FFEF4F1A5F0A0FB6F894DEBF89
:1046C0000FBECDBF55E04516510429F6B7CF019670
:1046D0008C30910509F498CF3101082E02C0660C88
:1046E000771C0A94E2F793012E213F21232B79F3C3
:1046F00089836B856A83C620D72081E0CD2809F4A1
:1047000080E08B830E94D2278160782F9D838C83E9
:1047100049815A816B818D810E948706000F111F8C
:10472000F801EA52FB4F80819181682679267182D7
:1047300060821091D4040E944807181709F403CF2F
:104740000E944807182F8093D4048091D50482FFDB
:10475000FACE80FF04C08FE495E00E941E03809192
:10476000D50480FF0CC01F921F938AE495E09F93AD
:104770008F930E94B7030F900F900F900F9080912E
:10478000D50480FFE0CE88E495E00E941E03DBCED6
:1047900080E189BD82E189BD09B400FEFDCF809131
:1047A000D8008F7D8093D8008091E0008260809354
:1047B000E0008091E00081FDFCCFC5CE0E94712910
:1047C000292F2F7092959F70E92FF0E03297EE30ED
:1047D000F105B8F4EA58FF4F0C940B30803F99F084
:1047E00018F4883E70F40FC0843F59F40CC0883E22
:1047F00050F0813F31F407C0822F869586958695CB
:10480000089580E0089581E00895BF92CF92DF92ED
:10481000EF92FF920F931F93CF93DF93CDB7DEB745
:1048200061970FB6F894DEBF0FBECDBF8C0185E057
:10483000F801DE011D9601900D928A95E1F7D801ED
:104840003C9111962C9111971296EC901297139619
:10485000CD90DC9014975091E8046091E904809128
:10486000EB049091EC04009709F44FC16F3F19F4E9
:104870005F3F09F44AC1B090EA04BB2009F4ECC0E0
:104880004091ED04C816D90628F0F601E81BF90B93
:10489000CF0104C0809590958C0D9D1DFF24F3944D
:1048A000883C910548F0F12C407F09F09FC088EECC
:1048B00094E00E94A11121C1842F807F09F044C09F
:1048C000621312C0531310C0E1100EC04F7040614C
:1048D0004093ED0488EE94E00E94A1118091ED04D4
:1048E000D80115968C932EC0CD2819F12F3F11F4C5
:1048F0003F3FF9F0FE2CE1101CC080911F05409154
:10490000EE0456E0841709F458C090E0589FF00177
:10491000599FF00D1124E151FB4F6181261306C010
:104920006081361303C06281611103C001968770F4
:10493000E9CFFE2CEE2009F415C18091ED048160D1
:104940008093ED04F12C0EC162130AC0531308C00A
:10495000E11006C08091ED04D80115968C93B0C08B
:104960003D872E878D859E850E94DE238823D1F189
:10497000EE20C1F12091ED04822F82958F7090E09E
:10498000029774F08091E8049091E90498878F83EE
:104990001986DB86CA862C87CE0107960E94A11154
:1049A00086E0F801A8EEB4E001900D928A95E1F757
:1049B0000E94542AFF24F394D5C03D872E878D850D
:1049C0009E850E947129292F22952F7030E0223078
:1049D00031050CF0BBC09F7009F0B5C0805E883017
:1049E00008F4C0C0C8010E94A111E4CF621314C032
:1049F000531312C0E11010C08091ED04F8018583BB
:104A0000C8010E94A11186E0E8EEF4E0DF011D92EA
:104A10008A95E9F7FB2CA6C03D872E878D859E855C
:104A20000E94DE238823F1F2EE20E1F22091ED04D2
:104A3000822F82958F7090E002970CF4B1CF809115
:104A4000E8049091E9049A8389831B82DD82CC82F9
:104A50002E83CE010196A2CFC816D90638F0C81A07
:104A6000D90AB8ECCB16D10450F007C080959095C8
:104A70008C0D9D1D883C910510F0F12C3EC0FE2C44
:104A8000EE2009F4AFCF621327C0531325C0209145
:104A9000ED0420FD18C0822F82958F70482F50E0C2
:104AA0004115510581F0F80125834F30510541F042
:104AB0008F5F982F9295907F822F8F70892B85839F
:104AC000C8010E94A11186E0F801A8EEB4E00190AF
:104AD0000D928A95E1F746C03D872E878D859E858C
:104AE0000E94DE2381115CCF8091ED048160809370
:104AF000ED04C8010E94A11135C0E8EEF4E086E0A3
:104B0000DF011D928A95E9F72DC0EE2009F46ACFE6
:104B10003D872E878D859E850E94DE23F82E882373
:104B200009F460CF86E0F801A8EEB4E001900D92A0
:104B30008A95E1F78091E8049091E9040E94712937
:104B40000E94542A0FC0811149CF0CC02430310576
:104B50000CF048CF9F7009F441CFF8019581907F08
:104B600009F03CCF8F2D61960FB6F894DEBF0FBED3
:104B7000CDBFDF91CF911F910F91FF90EF90DF900C
:104B8000CF90BF90089510924E0510924D050E944F
:104B9000C82880E090E00E94320780E090E00C940A
:104BA0001C0710924F0586E0E2EEF4E0DF011D9253
:104BB0008A95E9F70C94C325882341F0809590915C
:104BC0004F05892380934F050C94C82808958823A6
:104BD00039F090914F05892B80934F050C94C8288C
:104BE0000895882309F458C0682F823869F40E9418
:104BF000480781FF51C069E380EE94E00E941328CA
:104C00000E94C82869E30EC0833891F40E944807C7
:104C100080FF42C063E580EE94E00E9413280E946A
:104C2000C82863E580EE94E00E9407280C94C82809
:104C3000843869F40E94480782FF2EC067E480EE42
:104C400094E00E9413280E94C82867E4EBCF8CEF01
:104C5000860F813A38F380E2860F883070F46770EF
:104C600081E090E001C0880F6A95EAF78095909105
:104C70004F05892380934F05D9CF8BE5860F83306D
:104C800020F480E090E00C943207685A673120F4F9
:104C900080E090E00C941C070895882309F40DC16E
:104CA000682F8238B1F40E94480781FD06C169E38C
:104CB00080EE94E00E9413280E94C8282FEF81EE16
:104CC00094E0215080409040E1F700C0000069E38B
:104CD00017C08338D9F40E94480780FDEEC063E511
:104CE00080EE94E00E9413280E94C8282FEF81EEE6
:104CF00094E0215080409040E1F700C0000063E55F
:104D000080EE94E00E9407280C94C8288438B1F4FF
:104D10000E94480782FDD1C067E480EE94E00E94C3
:104D200013280E94C8282FEF81EE94E02150804084
:104D30009040E1F700C0000067E4E2CF8CEF860FFF
:104D4000813A28F480EE94E00E941328DDCF80E2BF
:104D5000860F883068F4677081E090E001C0880FAA
:104D60006A95EAF790914F05892B80934F05CCCF38
:104D70008BE5860F833070F4653A29F0663A31F09E
:104D800083E890E005C081E890E002C082E890E00E
:104D90000C94320788E5860F873108F08EC0683A98
:104DA00009F445C0693A09F445C06A3A09F445C0B6
:104DB0006B3A09F445C06C3A09F445C06B3B09F401
:104DC00045C06C3B09F445C06D3A09F445C0603BF1
:104DD00009F445C06E3A09F445C06F3A09F445C07C
:104DE000613B09F445C0623B09F445C0633B09F4EB
:104DF00045C0643B09F445C0653B09F445C0663BCA
:104E000009F445C0673B09F445C0683B09F445C057
:104E1000693B09F445C06D3B09F445C06E3B09F49C
:104E200045C06A3B09F445C080E090E044C082EE92
:104E300090E041C089EE90E03EC08AEE90E03BC039
:104E400085EB90E038C086EB90E035C083EB90E0D6
:104E500032C084EB90E02FC087EB90E02CC08CEC4C
:104E600090E029C08DEC90E026C083E891E023C05B
:104E70008AE891E020C082E991E01DC084E991E0D8
:104E80001AC081E292E017C083E292E014C084E28B
:104E900092E011C085E292E00EC086E292E00BC083
:104EA00087E292E008C08FE690E005C080E790E0DE
:104EB00002C08AE292E00C941C07089581E080937E
:104EC000E00080E28093D8001092C9008FE19EE458
:104ED0000197F1F700C0000087E090EBDC018093C0
:104EE000590590935A05A0935B05B0935C059CE02F
:104EF00088E10FB6F894A895809360000FBE909358
:104F00006000FFCF78941F920F920FB60F9211247A
:104F10008F939F93AF93BF938091550590915605C2
:104F2000A0915705B09158050196A11DB11D809320
:104F3000550590935605A0935705B0935805BF911A
:104F4000AF919F918F910F900FBE0F901F9018956A
:104F5000CF92DF92EF92FF920F931F932FB7F894A7
:104F6000409155055091560560915705709158052F
:104F70002FBF6A017B01EE24FF248C0120E030E08A
:104F8000C016D106E206F30610F4415051099A0109
:104F9000281B390BC9011F910F91FF90EF90DF90F3
:104FA000CF9008952FB7F8948091550590915605AC
:104FB000A0915705B09158052FBF08951F920F92E9
:104FC0000FB60F9211248F939F93AF93BF9380914D
:104FD000C904811113C08091550590915605A09187
:104FE0005705B09158054196A11DB11D80935505F7
:104FF00090935605A0935705B0935805BF91AF9174
:105000009F918F910F900FBE0F901F901895FC01EC
:10501000329608962081261301C010823196E81737
:10502000F907C1F708959C01FC0132969FEF80E0DB
:105030004191461789F09F3F19F4411101C0982F03
:105040008F5F8630A9F79F3F39F0F901E90FF11D15
:1050500097FDFA95628308950895CF9384E090E0D8
:105060000E940B2BC82F81E290E00E940B2B2C2F6B
:1050700030E0A901582BCA01CF91089580E090E05B
:105080000E94132B21E08C3E9E4F09F020E0822FDE
:1050900008956CEE7EEF80E090E00E94372B60E098
:1050A00082E090E00E94192B60E083E090E00E9493
:1050B000192B10925105109252051092530510921F
:1050C000540560E084E090E00E94192B60E081E2EA
:1050D00090E00E94192B60E085E090E00E94192B7F
:1050E00060E086E090E00E94192B6FEF87E090E08F
:1050F0000E94192B40E050E0BA0188E090E00E9445
:105100002B2B60E08DE090E00E94192B40E050E0F6
:10511000BA0188E190E00E942B2B60E087E190E0EB
:105120000E94192B40E050E0BA018CE190E00E940F
:105130002B2B60E080E290E00E94192B40E050E0D1
:10514000BA018FE090E00E942B2B40E050E0BA01C2
:1051500083E190E00C942B2B8295982F9C7C392F27
:1051600036953695282F237344E0249FC0011124DF
:10517000932F982B292F2A7A2695892F8575880FAA
:10518000822B089580915005811110925005089549
:10519000FF920F931F93CF93DF9390914E058091D1
:1051A0004F05892B20914D05982F922B9093E00469
:1051B00080915005882391F0892B8093E004E2EEE2
:1051C000F4E080E096E09E0F9E1729F021912223C3
:1051D000D9F38F5FF9CF81110E94C228E091C704F3
:1051E000F091C8043097B1F10280F381E02D80EE98
:1051F00094E009958091D50482FF2CC080FF04C003
:105200008FE795E00E941E03C0EED4E009E715E0A9
:10521000FC2E88E0F80E8091D50480FF0BC08881B9
:105220001F928F931F930F930E94B7030F900F90BD
:105230000F900F902196FC12EECF8091D50480FF45
:1052400009C087E795E0DF91CF911F910F91FF9003
:105250000C941E03DF91CF911F910F91FF90089541
:10526000BF92CF92DF92EF92FF920F931F93CF9353
:10527000DF938C01C0905105D0905205E09053050A
:10528000F09054058091480590914905A0914A05F8
:10529000B0914B05C82AD92AEA2AFB2ACFE1D0E0EF
:1052A000D701C6010C2E04C0B695A7959795879592
:1052B0000A94D2F780FF07C0BC2EB8018C2F0E9441
:1052C000FD0E019719F4219758F7B12C8B2DDF9122
:1052D000CF911F910F91FF90EF90DF90CF90BF90F3
:1052E0000895CF93DF93EC010E943029BE010E9404
:1052F000FD0EDF91CF9108952CE0929F800D112437
:10530000682F669566956695982F977085E0689FDB
:10531000B001112440E050E080E0FA01E60FF71FF1
:10532000E05EFA4F208130E0092E02C036952795C5
:105330000A94E2F721703327042E01C0220F0A9449
:10534000EAF7822B4F5F5F4F4530510531F70895E3
:105350002CE0929F800D1124A82FA695A695A695C6
:10536000877051E001C0550F8A95EAF785E0A89F44
:10537000D001112420E030E070E0F901EA0FFB1FBA
:10538000E05EFA4F4081CB01022E02C096958795D0
:105390000A94E2F7817099278195842785238427D1
:1053A00080832F5F3F4F2530310539F70895609393
:1053B00048057093490580934A0590934B050C94DA
:1053C000C3250F931F9341E050E060E070E004C0FC
:1053D000440F551F661F771F8A95D2F74095509549
:1053E000609570958091480590914905A0914A0576
:1053F000B0914B058A019B01082319232A233B23E3
:10540000C901B8011F910F910C94D72920914C0527
:105410008095822380934C05982F977079F430E023
:10542000482F082E000C550B2417350739F08595A9
:10543000859585950E94E12910924C0508950F935A
:105440001F9341E050E060E070E004C0440F551F3E
:10545000661F771F8A95D2F780914805909149057C
:10546000A0914A05B0914B058A019B01082B192B8D
:105470002A2B3B2BC901B8011F910F910C94D729FE
:105480006093510570935205809353059093540592
:105490000C94C32580911F059091EE04891719F093
:1054A0008F5F8770FBCF08958091ED0482958F7098
:1054B00009F054C08091EA04882309F44FC0809118
:1054C0001F05A091EE046091E8047091E9044091F9
:1054D000EB045091EC04B6E08A1709F43FC090E069
:1054E00041155105C1F17F3F11F46F3FA1F1B89F04
:1054F000F001B99FF00D1124E151FB4F218172138E
:105500002AC02081621327C02281211124C0238157
:1055100034812417350710F421503109241B350B31
:10552000283C3105C0F42091ED042F7020612093B8
:10553000ED0426E0289FF001299FF00D1124EC5086
:10554000FB4F80818F708061808388EE94E00E94A1
:10555000A1110C944A2A01968770BECF08958F92AC
:105560009F92AF92BF92CF92DF92EF92FF92CF9332
:10557000DF93EC01688179818A819B8161157105D6
:105580008105910521F464E279ED8BE597E02DE149
:1055900033EF41E050E00E944D2B49015A019B013D
:1055A000AC01A7EAB1E40E946C2B6B017C01ACEE6C
:1055B000B4EFA50194010E947A2BDC01CB018C0D84
:1055C0009D1DAE1DBF1DB7FF03C00197A109B048C7
:1055D00088839983AA83BB839F77DF91CF91FF90C4
:1055E000EF90DF90CF90BF90AF909F908F900895F5
:1055F0000E94AF2A089580E091E00E94AF2A0895AA
:10560000A0E0B0E08093000190930101A09302011B
:10561000B09303010895F999FECF92BD81BDF89A28
:10562000992780B50895A8E1B0E042E050E00C94DD
:105630003F2B262FF999FECF92BD81BDF89A019795
:1056400000B4021639F01FBA20BD0FB6F894FA9ACA
:10565000F99A0FBE08950396272F0E941A2B0E94D5
:10566000192B252F0E941A2B242F0C941A2B0196EC
:10567000272F0E941A2B0C94192BDC01CB01FC0163
:10568000F999FECF06C0F2BDE1BDF89A319600B49B
:105690000D9241505040B8F70895052E97FB1EF427
:1056A00000940E94642B57FD07D00E947F2B07FCBB
:1056B00003D04EF40C94642B509540953095219571
:1056C0003F4F4F4F5F4F089590958095709561952E
:1056D0007F4F8F4F9F4F08950E94A12BA59F900D44
:1056E000B49F900DA49F800D911D11240895B7FFC4
:1056F0000C946C2B0E946C2B821B930B0895A1E2DF
:105700001A2EAA1BBB1BFD010DC0AA1FBB1FEE1F3B
:10571000FF1FA217B307E407F50720F0A21BB30B86
:10572000E40BF50B661F771F881F991F1A9469F702
:1057300060957095809590959B01AC01BD01CF015E
:105740000895A29FB001B39FC001A39F700D811D5A
:105750001124911DB29F700D811D1124911D08957A
:105760005058BB27AA270E94C82B0C94A42D0E9436
:10577000962D38F00E949D2D20F039F49F3F19F4AA
:1057800026F40C94932D0EF4E095E7FB0C947F2DFA
:10579000E92F0E94B52D58F3BA17620773078407E3
:1057A000950720F079F4A6F50C94D72D0EF4E0952A
:1057B0000B2EBA2FA02D0B01B90190010C01CA01CB
:1057C000A0011124FF27591B99F0593F50F4503E76
:1057D00068F11A16F040A22F232F342F4427585F68
:1057E000F3CF469537952795A795F0405395C9F780
:1057F0007EF41F16BA0B620B730B840BBAF0915038
:10580000A1F0FF0FBB1F661F771F881FC2F70EC0D6
:10581000BA0F621F731F841F48F4879577956795A9
:10582000B795F7959E3F08F0B0CF9395880F08F095
:105830009927EE0F9795879508950E945B2D08F4A0
:1058400081E008950E94362C0C94A42D0E949D2D79
:1058500058F00E94962D40F029F45F3F29F00C94F7
:105860007F2D51110C94D82D0C94932D0E94B52DA1
:1058700068F39923B1F3552391F3951B550BBB277F
:10588000AA2762177307840738F09F5F5F4F220FC4
:10589000331F441FAA1FA9F335D00E2E3AF0E0E8BB
:1058A00032D091505040E695001CCAF72BD0FE2F05
:1058B00029D0660F771F881FBB1F26173707480799
:1058C000AB07B0E809F0BB0B802DBF01FF27935851
:1058D0005F4F3AF09E3F510578F00C947F2D0C9469
:1058E000D82D5F3FE4F3983ED4F38695779567957E
:1058F000B795F7959F5FC9F7880F911D9695879586
:1059000097F90895E1E0660F771F881FBB1F6217A4
:1059100073078407BA0720F0621B730B840BBA0B62
:10592000EE1F88F7E09508950E949B2C6894B111B2
:105930000C94D82D08950E94BD2D88F09F5798F0A3
:10594000B92F9927B751B0F0E1F0660F771F881F84
:10595000991F1AF0BA95C9F714C0B13091F00E949E
:10596000D72DB1E008950C94D72D672F782F882775
:10597000B85F39F0B93FCCF3869577956795B395C5
:10598000D9F73EF490958095709561957F4F8F4F34
:105990009F4F0895E89409C097FB3EF49095809539
:1059A000709561957F4F8F4F9F4F9923A9F0F92FE5
:1059B00096E9BB279395F695879577956795B79563
:1059C000F111F8CFFAF4BB0F11F460FF1BC06F5F49
:1059D0007F4F8F4F9F4F16C0882311F096E911C05B
:1059E000772321F09EE8872F762F05C0662371F07C
:1059F00096E8862F70E060E02AF09A95660F771F90
:105A0000881FDAF7880F9695879597F908950E9471
:105A1000962D20F019F00E949D2D50F40C94932D9A
:105A20000C94D82DE92F0E94B52D88F35523B1F39E
:105A3000E7FB6217730784079507A8F189F3E92F3D
:105A4000FF2788232AF03197660F771F881FDAF720
:105A5000952F5527442332F091505040220F331F89
:105A6000441FD2F7BB27E91BF50B621B730B840B9A
:105A7000B109B1F222F4620F731F841FB11D319777
:105A80002AF0660F771F881FBB1FEFCF9150504041
:105A900062F041F0882332F0660F771F881F915023
:105AA0005040C1F793950C94852D86957795679511
:105AB0009F5FD9F7F7CF990F0008550FAA0BE0E8C1
:105AC000FEEF16161706E807F907C0F012161306C0
:105AD000E407F50798F0621B730B840B950B39F400
